{
	"credits.sol": {
		"Creditcertification": {
			"abi": [
				{
					"anonymous": false,
					"inputs": [
						{
							"indexed": true,
							"internalType": "address",
							"name": "newAdmin",
							"type": "address"
						}
					],
					"name": "AdminAdded",
					"type": "event"
				},
				{
					"anonymous": false,
					"inputs": [
						{
							"indexed": true,
							"internalType": "address",
							"name": "admin",
							"type": "address"
						}
					],
					"name": "AdminRemoved",
					"type": "event"
				},
				{
					"anonymous": false,
					"inputs": [
						{
							"indexed": true,
							"internalType": "address",
							"name": "previousOwner",
							"type": "address"
						},
						{
							"indexed": true,
							"internalType": "address",
							"name": "newOwner",
							"type": "address"
						}
					],
					"name": "OwnershipTransferred",
					"type": "event"
				},
				{
					"inputs": [
						{
							"internalType": "address",
							"name": "student",
							"type": "address"
						},
						{
							"internalType": "uint256",
							"name": "courseId",
							"type": "uint256"
						}
					],
					"name": "Cancel",
					"outputs": [],
					"stateMutability": "nonpayable",
					"type": "function"
				},
				{
					"inputs": [
						{
							"internalType": "address",
							"name": "_newAdmin",
							"type": "address"
						}
					],
					"name": "addAdmin",
					"outputs": [],
					"stateMutability": "nonpayable",
					"type": "function"
				},
				{
					"inputs": [
						{
							"internalType": "uint256",
							"name": "courseId",
							"type": "uint256"
						},
						{
							"internalType": "uint256",
							"name": "credits",
							"type": "uint256"
						},
						{
							"internalType": "string",
							"name": "courseName",
							"type": "string"
						}
					],
					"name": "addCourse",
					"outputs": [],
					"stateMutability": "nonpayable",
					"type": "function"
				},
				{
					"inputs": [
						{
							"internalType": "address",
							"name": "teacher",
							"type": "address"
						}
					],
					"name": "addTeacher",
					"outputs": [],
					"stateMutability": "nonpayable",
					"type": "function"
				},
				{
					"inputs": [
						{
							"internalType": "address",
							"name": "",
							"type": "address"
						},
						{
							"internalType": "address",
							"name": "",
							"type": "address"
						}
					],
					"name": "allowance",
					"outputs": [
						{
							"internalType": "uint256",
							"name": "",
							"type": "uint256"
						}
					],
					"stateMutability": "view",
					"type": "function"
				},
				{
					"inputs": [
						{
							"internalType": "address",
							"name": "spender",
							"type": "address"
						},
						{
							"internalType": "uint256",
							"name": "num",
							"type": "uint256"
						}
					],
					"name": "approve",
					"outputs": [
						{
							"internalType": "bool",
							"name": "",
							"type": "bool"
						}
					],
					"stateMutability": "nonpayable",
					"type": "function"
				},
				{
					"inputs": [
						{
							"internalType": "address",
							"name": "student",
							"type": "address"
						},
						{
							"internalType": "uint256",
							"name": "index",
							"type": "uint256"
						}
					],
					"name": "approveCreditTransfer",
					"outputs": [],
					"stateMutability": "nonpayable",
					"type": "function"
				},
				{
					"inputs": [
						{
							"internalType": "address",
							"name": "student",
							"type": "address"
						}
					],
					"name": "countCourseIdOccurrences",
					"outputs": [
						{
							"internalType": "uint256",
							"name": "",
							"type": "uint256"
						}
					],
					"stateMutability": "view",
					"type": "function"
				},
				{
					"inputs": [
						{
							"internalType": "uint256",
							"name": "",
							"type": "uint256"
						}
					],
					"name": "courseExists",
					"outputs": [
						{
							"internalType": "bool",
							"name": "",
							"type": "bool"
						}
					],
					"stateMutability": "view",
					"type": "function"
				},
				{
					"inputs": [
						{
							"internalType": "uint256",
							"name": "",
							"type": "uint256"
						}
					],
					"name": "courseLists",
					"outputs": [
						{
							"internalType": "uint256",
							"name": "",
							"type": "uint256"
						}
					],
					"stateMutability": "view",
					"type": "function"
				},
				{
					"inputs": [
						{
							"internalType": "uint256",
							"name": "",
							"type": "uint256"
						}
					],
					"name": "courserInfo",
					"outputs": [
						{
							"internalType": "uint256",
							"name": "courserId",
							"type": "uint256"
						},
						{
							"internalType": "string",
							"name": "courserName",
							"type": "string"
						},
						{
							"internalType": "uint256",
							"name": "credits",
							"type": "uint256"
						},
						{
							"internalType": "uint256",
							"name": "createTime",
							"type": "uint256"
						}
					],
					"stateMutability": "view",
					"type": "function"
				},
				{
					"inputs": [
						{
							"internalType": "address",
							"name": "",
							"type": "address"
						},
						{
							"internalType": "uint256",
							"name": "",
							"type": "uint256"
						}
					],
					"name": "creditTransferRequests",
					"outputs": [
						{
							"internalType": "address",
							"name": "studentAddr",
							"type": "address"
						},
						{
							"internalType": "uint256",
							"name": "courseId",
							"type": "uint256"
						},
						{
							"internalType": "string",
							"name": "targetInstitution",
							"type": "string"
						},
						{
							"internalType": "bool",
							"name": "isApproved",
							"type": "bool"
						},
						{
							"internalType": "bool",
							"name": "isExecuted",
							"type": "bool"
						},
						{
							"internalType": "uint256",
							"name": "index",
							"type": "uint256"
						}
					],
					"stateMutability": "view",
					"type": "function"
				},
				{
					"inputs": [
						{
							"internalType": "address",
							"name": "student",
							"type": "address"
						},
						{
							"internalType": "uint256",
							"name": "index",
							"type": "uint256"
						}
					],
					"name": "executeCreditTransfer",
					"outputs": [],
					"stateMutability": "nonpayable",
					"type": "function"
				},
				{
					"inputs": [],
					"name": "getAllCourseID",
					"outputs": [
						{
							"internalType": "uint256[]",
							"name": "",
							"type": "uint256[]"
						}
					],
					"stateMutability": "view",
					"type": "function"
				},
				{
					"inputs": [],
					"name": "getAllrequestCreditTransfer",
					"outputs": [
						{
							"components": [
								{
									"internalType": "address",
									"name": "studentAddr",
									"type": "address"
								},
								{
									"internalType": "uint256",
									"name": "courseId",
									"type": "uint256"
								},
								{
									"internalType": "string",
									"name": "targetInstitution",
									"type": "string"
								},
								{
									"internalType": "bool",
									"name": "isApproved",
									"type": "bool"
								},
								{
									"internalType": "bool",
									"name": "isExecuted",
									"type": "bool"
								},
								{
									"internalType": "uint256",
									"name": "index",
									"type": "uint256"
								}
							],
							"internalType": "struct Creditcertification.CreditTransfer[]",
							"name": "",
							"type": "tuple[]"
						}
					],
					"stateMutability": "view",
					"type": "function"
				},
				{
					"inputs": [
						{
							"internalType": "uint256",
							"name": "courseId",
							"type": "uint256"
						}
					],
					"name": "getCourseInfo",
					"outputs": [
						{
							"components": [
								{
									"internalType": "uint256",
									"name": "courserId",
									"type": "uint256"
								},
								{
									"internalType": "string",
									"name": "courserName",
									"type": "string"
								},
								{
									"internalType": "uint256",
									"name": "credits",
									"type": "uint256"
								},
								{
									"internalType": "uint256",
									"name": "createTime",
									"type": "uint256"
								}
							],
							"internalType": "struct Creditcertification.CourserInfo",
							"name": "",
							"type": "tuple"
						}
					],
					"stateMutability": "nonpayable",
					"type": "function"
				},
				{
					"inputs": [
						{
							"internalType": "address",
							"name": "student",
							"type": "address"
						}
					],
					"name": "getCreditTransfersOfStudent",
					"outputs": [
						{
							"components": [
								{
									"internalType": "address",
									"name": "studentAddr",
									"type": "address"
								},
								{
									"internalType": "uint256",
									"name": "courseId",
									"type": "uint256"
								},
								{
									"internalType": "string",
									"name": "targetInstitution",
									"type": "string"
								},
								{
									"internalType": "bool",
									"name": "isApproved",
									"type": "bool"
								},
								{
									"internalType": "bool",
									"name": "isExecuted",
									"type": "bool"
								},
								{
									"internalType": "uint256",
									"name": "index",
									"type": "uint256"
								}
							],
							"internalType": "struct Creditcertification.CreditTransfer[]",
							"name": "",
							"type": "tuple[]"
						}
					],
					"stateMutability": "view",
					"type": "function"
				},
				{
					"inputs": [],
					"name": "getCreditsOfStudent",
					"outputs": [
						{
							"components": [
								{
									"internalType": "uint256",
									"name": "courserId",
									"type": "uint256"
								},
								{
									"internalType": "uint256",
									"name": "credits",
									"type": "uint256"
								},
								{
									"internalType": "uint256",
									"name": "score",
									"type": "uint256"
								},
								{
									"internalType": "uint256",
									"name": "issueDate",
									"type": "uint256"
								},
								{
									"internalType": "bool",
									"name": "isModified",
									"type": "bool"
								},
								{
									"internalType": "uint256",
									"name": "modifyNum",
									"type": "uint256"
								},
								{
									"internalType": "bool",
									"name": "isRevoked",
									"type": "bool"
								},
								{
									"internalType": "string",
									"name": "issuingInstitution",
									"type": "string"
								},
								{
									"internalType": "bool",
									"name": "isTransferred",
									"type": "bool"
								},
								{
									"internalType": "string",
									"name": "targetInstitution",
									"type": "string"
								}
							],
							"internalType": "struct Creditcertification.Credit[]",
							"name": "creditList",
							"type": "tuple[]"
						}
					],
					"stateMutability": "view",
					"type": "function"
				},
				{
					"inputs": [
						{
							"internalType": "address",
							"name": "student",
							"type": "address"
						}
					],
					"name": "getStudentCreditByMechanism",
					"outputs": [
						{
							"components": [
								{
									"internalType": "uint256",
									"name": "courserId",
									"type": "uint256"
								},
								{
									"internalType": "uint256",
									"name": "credits",
									"type": "uint256"
								},
								{
									"internalType": "uint256",
									"name": "score",
									"type": "uint256"
								},
								{
									"internalType": "uint256",
									"name": "issueDate",
									"type": "uint256"
								},
								{
									"internalType": "bool",
									"name": "isModified",
									"type": "bool"
								},
								{
									"internalType": "uint256",
									"name": "modifyNum",
									"type": "uint256"
								},
								{
									"internalType": "bool",
									"name": "isRevoked",
									"type": "bool"
								},
								{
									"internalType": "string",
									"name": "issuingInstitution",
									"type": "string"
								},
								{
									"internalType": "bool",
									"name": "isTransferred",
									"type": "bool"
								},
								{
									"internalType": "string",
									"name": "targetInstitution",
									"type": "string"
								}
							],
							"internalType": "struct Creditcertification.Credit[]",
							"name": "creditList",
							"type": "tuple[]"
						}
					],
					"stateMutability": "nonpayable",
					"type": "function"
				},
				{
					"inputs": [
						{
							"internalType": "address",
							"name": "",
							"type": "address"
						}
					],
					"name": "isAdmin",
					"outputs": [
						{
							"internalType": "bool",
							"name": "",
							"type": "bool"
						}
					],
					"stateMutability": "view",
					"type": "function"
				},
				{
					"inputs": [
						{
							"internalType": "address",
							"name": "student",
							"type": "address"
						},
						{
							"internalType": "uint256",
							"name": "courseId",
							"type": "uint256"
						},
						{
							"internalType": "uint256",
							"name": "newScore",
							"type": "uint256"
						}
					],
					"name": "modifyCredit",
					"outputs": [],
					"stateMutability": "nonpayable",
					"type": "function"
				},
				{
					"inputs": [],
					"name": "owner",
					"outputs": [
						{
							"internalType": "address",
							"name": "",
							"type": "address"
						}
					],
					"stateMutability": "view",
					"type": "function"
				},
				{
					"inputs": [
						{
							"internalType": "address",
							"name": "student",
							"type": "address"
						},
						{
							"internalType": "uint256",
							"name": "courserId",
							"type": "uint256"
						},
						{
							"internalType": "uint256",
							"name": "score",
							"type": "uint256"
						},
						{
							"internalType": "string",
							"name": "issuingInstitution",
							"type": "string"
						}
					],
					"name": "recordCredit",
					"outputs": [],
					"stateMutability": "nonpayable",
					"type": "function"
				},
				{
					"inputs": [
						{
							"internalType": "address",
							"name": "_admin",
							"type": "address"
						}
					],
					"name": "removeAdmin",
					"outputs": [],
					"stateMutability": "nonpayable",
					"type": "function"
				},
				{
					"inputs": [
						{
							"internalType": "address",
							"name": "teacher",
							"type": "address"
						}
					],
					"name": "removeTeacher",
					"outputs": [],
					"stateMutability": "nonpayable",
					"type": "function"
				},
				{
					"inputs": [],
					"name": "renounceOwnership",
					"outputs": [],
					"stateMutability": "nonpayable",
					"type": "function"
				},
				{
					"inputs": [
						{
							"internalType": "uint256",
							"name": "courseId",
							"type": "uint256"
						},
						{
							"internalType": "string",
							"name": "targetInstitution",
							"type": "string"
						}
					],
					"name": "requestCreditTransfer",
					"outputs": [],
					"stateMutability": "nonpayable",
					"type": "function"
				},
				{
					"inputs": [
						{
							"internalType": "address",
							"name": "",
							"type": "address"
						},
						{
							"internalType": "uint256",
							"name": "",
							"type": "uint256"
						}
					],
					"name": "studentCourseIds",
					"outputs": [
						{
							"internalType": "uint256",
							"name": "",
							"type": "uint256"
						}
					],
					"stateMutability": "view",
					"type": "function"
				},
				{
					"inputs": [
						{
							"internalType": "address",
							"name": "",
							"type": "address"
						},
						{
							"internalType": "uint256",
							"name": "",
							"type": "uint256"
						}
					],
					"name": "studentCredits",
					"outputs": [
						{
							"internalType": "uint256",
							"name": "courserId",
							"type": "uint256"
						},
						{
							"internalType": "uint256",
							"name": "credits",
							"type": "uint256"
						},
						{
							"internalType": "uint256",
							"name": "score",
							"type": "uint256"
						},
						{
							"internalType": "uint256",
							"name": "issueDate",
							"type": "uint256"
						},
						{
							"internalType": "bool",
							"name": "isModified",
							"type": "bool"
						},
						{
							"internalType": "uint256",
							"name": "modifyNum",
							"type": "uint256"
						},
						{
							"internalType": "bool",
							"name": "isRevoked",
							"type": "bool"
						},
						{
							"internalType": "string",
							"name": "issuingInstitution",
							"type": "string"
						},
						{
							"internalType": "bool",
							"name": "isTransferred",
							"type": "bool"
						},
						{
							"internalType": "string",
							"name": "targetInstitution",
							"type": "string"
						}
					],
					"stateMutability": "view",
					"type": "function"
				},
				{
					"inputs": [
						{
							"internalType": "uint256",
							"name": "",
							"type": "uint256"
						}
					],
					"name": "studentLists",
					"outputs": [
						{
							"internalType": "address",
							"name": "",
							"type": "address"
						}
					],
					"stateMutability": "view",
					"type": "function"
				},
				{
					"inputs": [
						{
							"internalType": "address",
							"name": "",
							"type": "address"
						}
					],
					"name": "teachers",
					"outputs": [
						{
							"internalType": "bool",
							"name": "",
							"type": "bool"
						}
					],
					"stateMutability": "view",
					"type": "function"
				},
				{
					"inputs": [
						{
							"internalType": "address",
							"name": "newOwner",
							"type": "address"
						}
					],
					"name": "transferOwnership",
					"outputs": [],
					"stateMutability": "nonpayable",
					"type": "function"
				}
			],
			"devdoc": {
				"kind": "dev",
				"methods": {},
				"version": 1
			},
			"evm": {
				"assembly": "    /* \"credits.sol\":1498:11551  contract Creditcertification is Ownable{... */\n  mstore(0x40, 0x80)\n  callvalue\n  dup1\n  iszero\n  tag_1\n  jumpi\n  0x00\n  dup1\n  revert\ntag_1:\n  pop\n    /* \"credits.sol\":415:432  address msgSender */\n  0x00\n    /* \"credits.sol\":456:474  _owner = msgSender */\n  dup1\n  sload\n  not(sub(exp(0x02, 0xa0), 0x01))\n  and\n    /* \"credits.sol\":435:445  msg.sender */\n  caller\n    /* \"credits.sol\":456:474  _owner = msgSender */\n  swap1\n  dup2\n  or\n  dup3\n  sstore\n    /* \"credits.sol\":490:533  OwnershipTransferred(address(0), msgSender) */\n  mload(0x40)\n    /* \"credits.sol\":435:445  msg.sender */\n  swap1\n  swap2\n  dup3\n  swap2\n    /* \"credits.sol\":490:533  OwnershipTransferred(address(0), msgSender) */\n  0x8be0079c531659141344cd1fd0a4f28419497f9722a3daafe3b4186f6b6457e0\n  swap1\n    /* \"credits.sol\":415:432  address msgSender */\n  dup3\n  swap1\n    /* \"credits.sol\":490:533  OwnershipTransferred(address(0), msgSender) */\n  log3\n    /* \"credits.sol\":404:541  {... */\n  pop\n    /* \"credits.sol\":1498:11551  contract Creditcertification is Ownable{... */\n  dataSize(sub_0)\n  dup1\n  dataOffset(sub_0)\n  0x00\n  codecopy\n  0x00\n  return\nstop\n\nsub_0: assembly {\n        /* \"credits.sol\":1498:11551  contract Creditcertification is Ownable{... */\n      mstore(0x40, 0x80)\n      callvalue\n      dup1\n      iszero\n      tag_1\n      jumpi\n      0x00\n      dup1\n      revert\n    tag_1:\n      pop\n      jumpi(tag_2, lt(calldatasize, 0x04))\n      calldataload(0x00)\n      0x0100000000000000000000000000000000000000000000000000000000\n      swap1\n      div\n      dup1\n      0x6b105c81\n      gt\n      tag_35\n      jumpi\n      dup1\n      0xb44e7d09\n      gt\n      tag_36\n      jumpi\n      dup1\n      0xe2ed5a4e\n      gt\n      tag_37\n      jumpi\n      dup1\n      0xe2ed5a4e\n      eq\n      tag_31\n      jumpi\n      dup1\n      0xf0a47f78\n      eq\n      tag_32\n      jumpi\n      dup1\n      0xf2012286\n      eq\n      tag_33\n      jumpi\n      dup1\n      0xf2fde38b\n      eq\n      tag_34\n      jumpi\n      0x00\n      dup1\n      revert\n    tag_37:\n      dup1\n      0xb44e7d09\n      eq\n      tag_27\n      jumpi\n      dup1\n      0xdba8c55f\n      eq\n      tag_28\n      jumpi\n      dup1\n      0xdcc63a16\n      eq\n      tag_29\n      jumpi\n      dup1\n      0xdd62ed3e\n      eq\n      tag_30\n      jumpi\n      0x00\n      dup1\n      revert\n    tag_36:\n      dup1\n      0x8da5cb5b\n      gt\n      tag_38\n      jumpi\n      dup1\n      0x8da5cb5b\n      eq\n      tag_23\n      jumpi\n      dup1\n      0x981059ee\n      eq\n      tag_24\n      jumpi\n      dup1\n      0xa59742df\n      eq\n      tag_25\n      jumpi\n      dup1\n      0xb264a4a5\n      eq\n      tag_26\n      jumpi\n      0x00\n      dup1\n      revert\n    tag_38:\n      dup1\n      0x6b105c81\n      eq\n      tag_19\n      jumpi\n      dup1\n      0x70480275\n      eq\n      tag_20\n      jumpi\n      dup1\n      0x715018a6\n      eq\n      tag_21\n      jumpi\n      dup1\n      0x75e7c425\n      eq\n      tag_22\n      jumpi\n      0x00\n      dup1\n      revert\n    tag_35:\n      dup1\n      0x3bc6e309\n      gt\n      tag_39\n      jumpi\n      dup1\n      0x5407b304\n      gt\n      tag_40\n      jumpi\n      dup1\n      0x5407b304\n      eq\n      tag_15\n      jumpi\n      dup1\n      0x5ba75156\n      eq\n      tag_16\n      jumpi\n      dup1\n      0x659cc07b\n      eq\n      tag_17\n      jumpi\n      dup1\n      0x68fdbd70\n      eq\n      tag_18\n      jumpi\n      0x00\n      dup1\n      revert\n    tag_40:\n      dup1\n      0x3bc6e309\n      eq\n      tag_11\n      jumpi\n      dup1\n      0x416d6499\n      eq\n      tag_12\n      jumpi\n      dup1\n      0x4a5ad49e\n      eq\n      tag_13\n      jumpi\n      dup1\n      0x52ff6846\n      eq\n      tag_14\n      jumpi\n      0x00\n      dup1\n      revert\n    tag_39:\n      dup1\n      0x1785f53c\n      gt\n      tag_41\n      jumpi\n      dup1\n      0x1785f53c\n      eq\n      tag_7\n      jumpi\n      dup1\n      0x24d7806c\n      eq\n      tag_8\n      jumpi\n      dup1\n      0x261ca633\n      eq\n      tag_9\n      jumpi\n      dup1\n      0x27f83af9\n      eq\n      tag_10\n      jumpi\n      0x00\n      dup1\n      revert\n    tag_41:\n      dup1\n      0x041c2ee0\n      eq\n      tag_3\n      jumpi\n      dup1\n      0x0740c8cf\n      eq\n      tag_4\n      jumpi\n      dup1\n      0x095ea7b3\n      eq\n      tag_5\n      jumpi\n      dup1\n      0x1145d39a\n      eq\n      tag_6\n      jumpi\n    tag_2:\n      0x00\n      dup1\n      revert\n        /* \"credits.sol\":8091:8236  function countCourseIdOccurrences(address student) public view returns (uint256) {... */\n    tag_3:\n      tag_42\n      tag_43\n      calldatasize\n      0x04\n      tag_44\n      jump\t// in\n    tag_43:\n      sub(exp(0x02, 0xa0), 0x01)\n        /* \"credits.sol\":8190:8221  creditTransferRequests[student] */\n      and\n        /* \"credits.sol\":8163:8170  uint256 */\n      0x00\n        /* \"credits.sol\":8190:8221  creditTransferRequests[student] */\n      swap1\n      dup2\n      mstore\n        /* \"credits.sol\":8190:8212  creditTransferRequests */\n      0x09\n        /* \"credits.sol\":8190:8221  creditTransferRequests[student] */\n      0x20\n      mstore\n      0x40\n      swap1\n      keccak256\n        /* \"credits.sol\":8190:8228  creditTransferRequests[student].length */\n      sload\n      swap1\n        /* \"credits.sol\":8091:8236  function countCourseIdOccurrences(address student) public view returns (uint256) {... */\n      jump\n    tag_42:\n      mload(0x40)\n        /* \"#utility.yul\":552:577   */\n      swap1\n      dup2\n      mstore\n        /* \"#utility.yul\":540:542   */\n      0x20\n        /* \"#utility.yul\":525:543   */\n      add\n        /* \"credits.sol\":8091:8236  function countCourseIdOccurrences(address student) public view returns (uint256) {... */\n    tag_46:\n      mload(0x40)\n      dup1\n      swap2\n      sub\n      swap1\n      return\n        /* \"credits.sol\":2857:2907  mapping(address => uint[]) public studentCourseIds */\n    tag_4:\n      tag_42\n      tag_49\n      calldatasize\n      0x04\n      tag_50\n      jump\t// in\n    tag_49:\n      tag_51\n      jump\t// in\n        /* \"credits.sol\":5955:6098  function approve(address spender,uint256 num )external returns(bool){... */\n    tag_5:\n      tag_53\n      tag_54\n      calldatasize\n      0x04\n      tag_50\n      jump\t// in\n    tag_54:\n      tag_55\n      jump\t// in\n    tag_53:\n      mload(0x40)\n        /* \"#utility.yul\":1108:1122   */\n      swap1\n      iszero\n        /* \"#utility.yul\":1101:1123   */\n      iszero\n        /* \"#utility.yul\":1083:1124   */\n      dup2\n      mstore\n        /* \"#utility.yul\":1071:1073   */\n      0x20\n        /* \"#utility.yul\":1056:1074   */\n      add\n        /* \"credits.sol\":5955:6098  function approve(address spender,uint256 num )external returns(bool){... */\n      tag_46\n        /* \"#utility.yul\":943:1130   */\n      jump\n        /* \"credits.sol\":10673:11540  function getAllrequestCreditTransfer() external view returns (CreditTransfer[] memory) {... */\n    tag_6:\n      tag_58\n      tag_59\n      jump\t// in\n    tag_58:\n      mload(0x40)\n      tag_46\n      swap2\n      swap1\n      tag_61\n      jump\t// in\n        /* \"credits.sol\":776:909  function removeAdmin(address _admin) onlyOwner public  {... */\n    tag_7:\n      tag_62\n      tag_63\n      calldatasize\n      0x04\n      tag_44\n      jump\t// in\n    tag_63:\n      tag_64\n      jump\t// in\n    tag_62:\n      stop\n        /* \"credits.sol\":126:165  mapping(address => bool) public isAdmin */\n    tag_8:\n      tag_53\n      tag_66\n      calldatasize\n      0x04\n      tag_44\n      jump\t// in\n    tag_66:\n      mstore(0x20, 0x01)\n      0x00\n      swap1\n      dup2\n      mstore\n      0x40\n      swap1\n      keccak256\n      sload\n      0xff\n      and\n      dup2\n      jump\n        /* \"credits.sol\":3299:3328  address[] public studentLists */\n    tag_9:\n      tag_69\n      tag_70\n      calldatasize\n      0x04\n      tag_71\n      jump\t// in\n    tag_70:\n      tag_72\n      jump\t// in\n    tag_69:\n      mload(0x40)\n      sub(exp(0x02, 0xa0), 0x01)\n        /* \"#utility.yul\":3403:3458   */\n      swap1\n      swap2\n      and\n        /* \"#utility.yul\":3385:3459   */\n      dup2\n      mstore\n        /* \"#utility.yul\":3373:3375   */\n      0x20\n        /* \"#utility.yul\":3358:3376   */\n      add\n        /* \"credits.sol\":3299:3328  address[] public studentLists */\n      tag_46\n        /* \"#utility.yul\":3239:3465   */\n      jump\n        /* \"credits.sol\":7650:8021  function Cancel(address student,uint256 courseId)external  onlyAdmin{... */\n    tag_10:\n      tag_62\n      tag_76\n      calldatasize\n      0x04\n      tag_50\n      jump\t// in\n    tag_76:\n      tag_77\n      jump\t// in\n        /* \"credits.sol\":4123:4277  function addTeacher(address teacher)external onlyAdmin{... */\n    tag_11:\n      tag_62\n      tag_79\n      calldatasize\n      0x04\n      tag_44\n      jump\t// in\n    tag_79:\n      tag_80\n      jump\t// in\n        /* \"credits.sol\":5475:5888  function getCreditsOfStudent() external view returns(Credit[] memory creditList) {... */\n    tag_12:\n      tag_81\n      tag_82\n      jump\t// in\n    tag_81:\n      mload(0x40)\n      tag_46\n      swap2\n      swap1\n      tag_84\n      jump\t// in\n        /* \"credits.sol\":3224:3290  mapping(address => CreditTransfer[]) public creditTransferRequests */\n    tag_13:\n      tag_85\n      tag_86\n      calldatasize\n      0x04\n      tag_50\n      jump\t// in\n    tag_86:\n      tag_87\n      jump\t// in\n    tag_85:\n      mload(0x40)\n      tag_46\n      swap7\n      swap6\n      swap5\n      swap4\n      swap3\n      swap2\n      swap1\n      tag_89\n      jump\t// in\n        /* \"credits.sol\":4305:4532  function removeTeacher(address teacher)external onlyAdmin{... */\n    tag_14:\n      tag_62\n      tag_91\n      calldatasize\n      0x04\n      tag_44\n      jump\t// in\n    tag_91:\n      tag_92\n      jump\t// in\n        /* \"credits.sol\":2984:3028  mapping(uint256 => bool) public courseExists */\n    tag_15:\n      tag_53\n      tag_94\n      calldatasize\n      0x04\n      tag_71\n      jump\t// in\n    tag_94:\n      mstore(0x20, 0x06)\n      0x00\n      swap1\n      dup2\n      mstore\n      0x40\n      swap1\n      keccak256\n      sload\n      0xff\n      and\n      dup2\n      jump\n        /* \"credits.sol\":4578:5290  function recordCredit(address student,uint256 courserId,uint256 score,string memory issuingInstitution)public onlyTeacher{... */\n    tag_16:\n      tag_62\n      tag_98\n      calldatasize\n      0x04\n      tag_99\n      jump\t// in\n    tag_98:\n      tag_100\n      jump\t// in\n        /* \"credits.sol\":6153:6697  function getStudentCreditByMechanism(address student)external  returns(Credit[]memory creditList){... */\n    tag_17:\n      tag_81\n      tag_102\n      calldatasize\n      0x04\n      tag_44\n      jump\t// in\n    tag_102:\n      tag_103\n      jump\t// in\n        /* \"credits.sol\":5328:5426  function getAllCourseID()external view returns(uint[] memory){... */\n    tag_18:\n      tag_105\n      tag_106\n      jump\t// in\n    tag_105:\n      mload(0x40)\n      tag_46\n      swap2\n      swap1\n      tag_108\n      jump\t// in\n        /* \"credits.sol\":9433:9686  function approveCreditTransfer(address student, uint index) external onlyAdmin {... */\n    tag_19:\n      tag_62\n      tag_110\n      calldatasize\n      0x04\n      tag_50\n      jump\t// in\n    tag_110:\n      tag_111\n      jump\t// in\n        /* \"credits.sol\":636:768  function addAdmin(address _newAdmin)onlyOwner public {... */\n    tag_20:\n      tag_62\n      tag_113\n      calldatasize\n      0x04\n      tag_44\n      jump\t// in\n    tag_113:\n      tag_114\n      jump\t// in\n        /* \"credits.sol\":1121:1269  function renounceOwnership() public virtual onlyOwner {... */\n    tag_21:\n      tag_62\n      tag_116\n      jump\t// in\n        /* \"credits.sol\":8282:9361  function requestCreditTransfer(uint256 courseId, string memory targetInstitution) external {... */\n    tag_22:\n      tag_62\n      tag_118\n      calldatasize\n      0x04\n      tag_119\n      jump\t// in\n    tag_118:\n      tag_120\n      jump\t// in\n        /* \"credits.sol\":549:628  function owner() public view returns (address) {... */\n    tag_23:\n        /* \"credits.sol\":587:594  address */\n      0x00\n        /* \"credits.sol\":614:620  _owner */\n      sload\n      sub(exp(0x02, 0xa0), 0x01)\n      and\n        /* \"credits.sol\":549:628  function owner() public view returns (address) {... */\n      jump(tag_69)\n        /* \"credits.sol\":3901:4091  function getCourseInfo(uint256 courseId)external returns(CourserInfo memory){... */\n    tag_24:\n      tag_124\n      tag_125\n      calldatasize\n      0x04\n      tag_71\n      jump\t// in\n    tag_125:\n      tag_126\n      jump\t// in\n    tag_124:\n      mload(0x40)\n      tag_46\n      swap2\n      swap1\n      tag_128\n      jump\t// in\n        /* \"credits.sol\":10392:10620  function getCreditTransfersOfStudent(address student) external  view returns (CreditTransfer[] memory) {... */\n    tag_25:\n      tag_58\n      tag_130\n      calldatasize\n      0x04\n      tag_44\n      jump\t// in\n    tag_130:\n      tag_131\n      jump\t// in\n        /* \"credits.sol\":2641:2689  mapping (uint256=>CourserInfo)public courserInfo */\n    tag_26:\n      tag_133\n      tag_134\n      calldatasize\n      0x04\n      tag_71\n      jump\t// in\n    tag_134:\n      tag_135\n      jump\t// in\n    tag_133:\n      mload(0x40)\n      tag_46\n      swap5\n      swap4\n      swap3\n      swap2\n      swap1\n      tag_137\n      jump\t// in\n        /* \"credits.sol\":6747:7591  function modifyCredit(address student, uint256 courseId,  uint256 newScore) external  onlyTeacher {... */\n    tag_27:\n      tag_62\n      tag_139\n      calldatasize\n      0x04\n      tag_140\n      jump\t// in\n    tag_139:\n      tag_141\n      jump\t// in\n        /* \"credits.sol\":9734:10352  function executeCreditTransfer(address student, uint index) external onlyAdmin{... */\n    tag_28:\n      tag_62\n      tag_143\n      calldatasize\n      0x04\n      tag_50\n      jump\t// in\n    tag_143:\n      tag_144\n      jump\t// in\n        /* \"credits.sol\":3467:3867  function addCourse(uint256 courseId,uint256 credits,string memory courseName)external onlyAdmin{... */\n    tag_29:\n      tag_62\n      tag_146\n      calldatasize\n      0x04\n      tag_147\n      jump\t// in\n    tag_146:\n      tag_148\n      jump\t// in\n        /* \"credits.sol\":3109:3168  mapping(address=>mapping(address=>uint256))public allowance */\n    tag_30:\n      tag_42\n      tag_150\n      calldatasize\n      0x04\n      tag_151\n      jump\t// in\n    tag_150:\n      0x08\n      0x20\n      swap1\n      dup2\n      mstore\n      0x00\n      swap3\n      dup4\n      mstore\n      0x40\n      dup1\n      dup5\n      keccak256\n      swap1\n      swap2\n      mstore\n      swap1\n      dup3\n      mstore\n      swap1\n      keccak256\n      sload\n      dup2\n      jump\n        /* \"credits.sol\":3037:3065  uint256[]public  courseLists */\n    tag_31:\n      tag_42\n      tag_155\n      calldatasize\n      0x04\n      tag_71\n      jump\t// in\n    tag_155:\n      tag_156\n      jump\t// in\n        /* \"credits.sol\":2938:2975  mapping(address=>bool)public teachers */\n    tag_32:\n      tag_53\n      tag_159\n      calldatasize\n      0x04\n      tag_44\n      jump\t// in\n    tag_159:\n      mstore(0x20, 0x05)\n      0x00\n      swap1\n      dup2\n      mstore\n      0x40\n      swap1\n      keccak256\n      sload\n      0xff\n      and\n      dup2\n      jump\n        /* \"credits.sol\":2745:2810  mapping(address => mapping(uint => Credit)) public studentCredits */\n    tag_33:\n      tag_162\n      tag_163\n      calldatasize\n      0x04\n      tag_50\n      jump\t// in\n    tag_163:\n      tag_164\n      jump\t// in\n    tag_162:\n      mload(0x40)\n      tag_46\n      swap11\n      swap10\n      swap9\n      swap8\n      swap7\n      swap6\n      swap5\n      swap4\n      swap3\n      swap2\n      swap1\n      tag_166\n      jump\t// in\n        /* \"credits.sol\":1277:1491  function transferOwnership(address newOwner) public virtual onlyOwner {... */\n    tag_34:\n      tag_62\n      tag_168\n      calldatasize\n      0x04\n      tag_44\n      jump\t// in\n    tag_168:\n      tag_169\n      jump\t// in\n        /* \"credits.sol\":2857:2907  mapping(address => uint[]) public studentCourseIds */\n    tag_51:\n      mstore(0x20, 0x04)\n      dup2\n      0x00\n      mstore\n      keccak256(0x00, 0x40)\n      dup2\n      dup2\n      sload\n      dup2\n      lt\n      tag_171\n      jumpi\n      0x00\n      dup1\n      revert\n    tag_171:\n      swap1\n      0x00\n      mstore\n      keccak256(0x00, 0x20)\n      add\n      0x00\n      swap2\n      pop\n      swap2\n      pop\n      pop\n      sload\n      dup2\n      jump\t// out\n        /* \"credits.sol\":5955:6098  function approve(address spender,uint256 num )external returns(bool){... */\n    tag_55:\n        /* \"credits.sol\":6044:6054  msg.sender */\n      caller\n        /* \"credits.sol\":6018:6022  bool */\n      0x00\n        /* \"credits.sol\":6034:6055  allowance[msg.sender] */\n      swap1\n      dup2\n      mstore\n        /* \"credits.sol\":6034:6043  allowance */\n      0x08\n        /* \"credits.sol\":6034:6055  allowance[msg.sender] */\n      0x20\n      swap1\n      dup2\n      mstore\n      0x40\n      dup1\n      dup4\n      keccak256\n      sub(exp(0x02, 0xa0), 0x01)\n        /* \"credits.sol\":6034:6064  allowance[msg.sender][spender] */\n      dup7\n      and\n      dup5\n      mstore\n      swap1\n      swap2\n      mstore\n      swap1\n      keccak256\n        /* \"credits.sol\":6034:6068  allowance[msg.sender][spender]=num */\n      dup2\n      swap1\n      sstore\n        /* \"credits.sol\":6086:6090  true */\n      0x01\n        /* \"credits.sol\":5955:6098  function approve(address spender,uint256 num )external returns(bool){... */\n    tag_173:\n      swap3\n      swap2\n      pop\n      pop\n      jump\t// out\n        /* \"credits.sol\":10673:11540  function getAllrequestCreditTransfer() external view returns (CreditTransfer[] memory) {... */\n    tag_59:\n        /* \"credits.sol\":10735:10758  CreditTransfer[] memory */\n      0x60\n        /* \"credits.sol\":10771:10789  uint totalRequests */\n      0x00\n        /* \"credits.sol\":10860:10866  uint i */\n      dup1\n        /* \"credits.sol\":10855:10992  for (uint i = 0; i < studentLists.length; i++) {... */\n    tag_175:\n        /* \"credits.sol\":10876:10888  studentLists */\n      0x0a\n        /* \"credits.sol\":10876:10895  studentLists.length */\n      sload\n        /* \"credits.sol\":10872:10895  i < studentLists.length */\n      dup2\n      lt\n        /* \"credits.sol\":10855:10992  for (uint i = 0; i < studentLists.length; i++) {... */\n      iszero\n      tag_176\n      jumpi\n        /* \"credits.sol\":10934:10956  creditTransferRequests */\n      0x09\n        /* \"credits.sol\":10934:10973  creditTransferRequests[studentLists[i]] */\n      0x00\n        /* \"credits.sol\":10957:10969  studentLists */\n      0x0a\n        /* \"credits.sol\":10970:10971  i */\n      dup4\n        /* \"credits.sol\":10957:10972  studentLists[i] */\n      dup2\n      sload\n      dup2\n      lt\n      tag_179\n      jumpi\n      tag_179\n      tag_180\n      jump\t// in\n    tag_179:\n      0x00\n      swap2\n      dup3\n      mstore\n      0x20\n      dup1\n      dup4\n      keccak256\n      swap1\n      swap2\n      add\n      sload\n      sub(exp(0x02, 0xa0), 0x01)\n      and\n        /* \"credits.sol\":10934:10973  creditTransferRequests[studentLists[i]] */\n      dup4\n      mstore\n      dup3\n      add\n      swap3\n      swap1\n      swap3\n      mstore\n      0x40\n      add\n      swap1\n      keccak256\n        /* \"credits.sol\":10934:10980  creditTransferRequests[studentLists[i]].length */\n      sload\n        /* \"credits.sol\":10917:10980  totalRequests += creditTransferRequests[studentLists[i]].length */\n      tag_182\n      swap1\n      dup4\n      tag_183\n      jump\t// in\n    tag_182:\n      swap2\n      pop\n        /* \"credits.sol\":10897:10900  i++ */\n      dup1\n      tag_184\n      dup2\n      tag_185\n      jump\t// in\n    tag_184:\n      swap2\n      pop\n      pop\n        /* \"credits.sol\":10855:10992  for (uint i = 0; i < studentLists.length; i++) {... */\n      jump(tag_175)\n    tag_176:\n      pop\n        /* \"credits.sol\":11062:11097  CreditTransfer[] memory allRequests */\n      0x00\n        /* \"credits.sol\":11121:11134  totalRequests */\n      dup2\n        /* \"credits.sol\":11100:11135  new CreditTransfer[](totalRequests) */\n      0xffffffffffffffff\n      dup2\n      gt\n      iszero\n      tag_187\n      jumpi\n      tag_187\n      tag_188\n      jump\t// in\n    tag_187:\n      mload(0x40)\n      swap1\n      dup1\n      dup3\n      mstore\n      dup1\n      0x20\n      mul\n      0x20\n      add\n      dup3\n      add\n      0x40\n      mstore\n      dup1\n      iszero\n      tag_189\n      jumpi\n      dup2\n      0x20\n      add\n    tag_190:\n      tag_191\n      mload(0x40)\n      dup1\n      0xc0\n      add\n      0x40\n      mstore\n      dup1\n      and(sub(exp(0x02, 0xa0), 0x01), 0x00)\n      dup2\n      mstore\n      0x20\n      add\n      0x00\n      dup2\n      mstore\n      0x20\n      add\n      0x60\n      dup2\n      mstore\n      0x20\n      add\n      iszero(iszero(0x00))\n      dup2\n      mstore\n      0x20\n      add\n      iszero(iszero(0x00))\n      dup2\n      mstore\n      0x20\n      add\n      0x00\n      dup2\n      mstore\n      pop\n      swap1\n      jump\n    tag_191:\n      dup2\n      mstore\n      0x20\n      add\n      swap1\n      0x01\n      swap1\n      sub\n      swap1\n      dup2\n      tag_190\n      jumpi\n      swap1\n      pop\n    tag_189:\n      pop\n        /* \"credits.sol\":11062:11135  CreditTransfer[] memory allRequests = new CreditTransfer[](totalRequests) */\n      swap1\n      pop\n        /* \"credits.sol\":11146:11165  uint currentRequest */\n      0x00\n        /* \"credits.sol\":11218:11224  uint i */\n      dup1\n        /* \"credits.sol\":11213:11502  for (uint i = 0; i < studentLists.length; i++) {... */\n    tag_193:\n        /* \"credits.sol\":11234:11246  studentLists */\n      0x0a\n        /* \"credits.sol\":11234:11253  studentLists.length */\n      sload\n        /* \"credits.sol\":11230:11253  i < studentLists.length */\n      dup2\n      lt\n        /* \"credits.sol\":11213:11502  for (uint i = 0; i < studentLists.length; i++) {... */\n      iszero\n      tag_194\n      jumpi\n        /* \"credits.sol\":11280:11286  uint j */\n      0x00\n        /* \"credits.sol\":11275:11491  for (uint j = 0; j < creditTransferRequests[studentLists[i]].length; j++) {... */\n    tag_196:\n        /* \"credits.sol\":11296:11318  creditTransferRequests */\n      0x09\n        /* \"credits.sol\":11296:11335  creditTransferRequests[studentLists[i]] */\n      0x00\n        /* \"credits.sol\":11319:11331  studentLists */\n      0x0a\n        /* \"credits.sol\":11332:11333  i */\n      dup5\n        /* \"credits.sol\":11319:11334  studentLists[i] */\n      dup2\n      sload\n      dup2\n      lt\n      tag_200\n      jumpi\n      tag_200\n      tag_180\n      jump\t// in\n    tag_200:\n      0x00\n      swap2\n      dup3\n      mstore\n      0x20\n      dup1\n      dup4\n      keccak256\n      swap1\n      swap2\n      add\n      sload\n      sub(exp(0x02, 0xa0), 0x01)\n      and\n        /* \"credits.sol\":11296:11335  creditTransferRequests[studentLists[i]] */\n      dup4\n      mstore\n      dup3\n      add\n      swap3\n      swap1\n      swap3\n      mstore\n      0x40\n      add\n      swap1\n      keccak256\n        /* \"credits.sol\":11296:11342  creditTransferRequests[studentLists[i]].length */\n      sload\n        /* \"credits.sol\":11292:11342  j < creditTransferRequests[studentLists[i]].length */\n      dup2\n      lt\n        /* \"credits.sol\":11275:11491  for (uint j = 0; j < creditTransferRequests[studentLists[i]].length; j++) {... */\n      iszero\n      tag_197\n      jumpi\n        /* \"credits.sol\":11398:11420  creditTransferRequests */\n      0x09\n        /* \"credits.sol\":11398:11437  creditTransferRequests[studentLists[i]] */\n      0x00\n        /* \"credits.sol\":11421:11433  studentLists */\n      0x0a\n        /* \"credits.sol\":11434:11435  i */\n      dup5\n        /* \"credits.sol\":11421:11436  studentLists[i] */\n      dup2\n      sload\n      dup2\n      lt\n      tag_203\n      jumpi\n      tag_203\n      tag_180\n      jump\t// in\n    tag_203:\n      0x00\n      swap2\n      dup3\n      mstore\n      0x20\n      dup1\n      dup4\n      keccak256\n      swap1\n      swap2\n      add\n      sload\n      sub(exp(0x02, 0xa0), 0x01)\n      and\n        /* \"credits.sol\":11398:11437  creditTransferRequests[studentLists[i]] */\n      dup4\n      mstore\n      dup3\n      add\n      swap3\n      swap1\n      swap3\n      mstore\n      0x40\n      add\n      swap1\n      keccak256\n        /* \"credits.sol\":11398:11440  creditTransferRequests[studentLists[i]][j] */\n      dup1\n      sload\n        /* \"credits.sol\":11438:11439  j */\n      dup3\n      swap1\n        /* \"credits.sol\":11398:11440  creditTransferRequests[studentLists[i]][j] */\n      dup2\n      lt\n      tag_206\n      jumpi\n      tag_206\n      tag_180\n      jump\t// in\n    tag_206:\n      swap1\n      0x00\n      mstore\n      keccak256(0x00, 0x20)\n      swap1\n      0x05\n      mul\n      add\n        /* \"credits.sol\":11368:11440  allRequests[currentRequest] = creditTransferRequests[studentLists[i]][j] */\n      mload(0x40)\n      dup1\n      0xc0\n      add\n      0x40\n      mstore\n      swap1\n      dup2\n      0x00\n      dup3\n      add\n      0x00\n      swap1\n      sload\n      swap1\n      0x0100\n      exp\n      swap1\n      div\n      sub(exp(0x02, 0xa0), 0x01)\n      and\n      sub(exp(0x02, 0xa0), 0x01)\n      and\n      sub(exp(0x02, 0xa0), 0x01)\n      and\n      dup2\n      mstore\n      0x20\n      add\n      0x01\n      dup3\n      add\n      sload\n      dup2\n      mstore\n      0x20\n      add\n      0x02\n      dup3\n      add\n      dup1\n      sload\n      tag_208\n      swap1\n      tag_209\n      jump\t// in\n    tag_208:\n      dup1\n      0x1f\n      add\n      0x20\n      dup1\n      swap2\n      div\n      mul\n      0x20\n      add\n      mload(0x40)\n      swap1\n      dup2\n      add\n      0x40\n      mstore\n      dup1\n      swap3\n      swap2\n      swap1\n      dup2\n      dup2\n      mstore\n      0x20\n      add\n      dup3\n      dup1\n      sload\n      tag_210\n      swap1\n      tag_209\n      jump\t// in\n    tag_210:\n      dup1\n      iszero\n      tag_211\n      jumpi\n      dup1\n      0x1f\n      lt\n      tag_212\n      jumpi\n      0x0100\n      dup1\n      dup4\n      sload\n      div\n      mul\n      dup4\n      mstore\n      swap2\n      0x20\n      add\n      swap2\n      jump(tag_211)\n    tag_212:\n      dup3\n      add\n      swap2\n      swap1\n      0x00\n      mstore\n      keccak256(0x00, 0x20)\n      swap1\n    tag_213:\n      dup2\n      sload\n      dup2\n      mstore\n      swap1\n      0x01\n      add\n      swap1\n      0x20\n      add\n      dup1\n      dup4\n      gt\n      tag_213\n      jumpi\n      dup3\n      swap1\n      sub\n      0x1f\n      and\n      dup3\n      add\n      swap2\n    tag_211:\n      pop\n      pop\n      pop\n      swap2\n      dup4\n      mstore\n      pop\n      pop\n      0x03\n      dup3\n      add\n      sload\n      0xff\n      dup1\n      dup3\n      and\n      iszero\n      iszero\n      0x20\n      dup5\n      add\n      mstore\n      0x0100\n      swap1\n      swap2\n      div\n      and\n      iszero\n      iszero\n      0x40\n      dup3\n      add\n      mstore\n      0x04\n      swap1\n      swap2\n      add\n      sload\n      0x60\n      swap1\n      swap2\n      add\n      mstore\n        /* \"credits.sol\":11368:11395  allRequests[currentRequest] */\n      dup5\n      mload\n        /* \"credits.sol\":11368:11379  allRequests */\n      dup6\n      swap1\n        /* \"credits.sol\":11380:11394  currentRequest */\n      dup6\n      swap1\n        /* \"credits.sol\":11368:11395  allRequests[currentRequest] */\n      dup2\n      lt\n      tag_215\n      jumpi\n      tag_215\n      tag_180\n      jump\t// in\n    tag_215:\n      0x20\n      mul\n      0x20\n      add\n      add\n        /* \"credits.sol\":11368:11440  allRequests[currentRequest] = creditTransferRequests[studentLists[i]][j] */\n      dup2\n      swap1\n      mstore\n      pop\n        /* \"credits.sol\":11459:11475  currentRequest++ */\n      dup3\n      dup1\n      tag_216\n      swap1\n      tag_185\n      jump\t// in\n    tag_216:\n      swap4\n      pop\n      pop\n        /* \"credits.sol\":11344:11347  j++ */\n      dup1\n      dup1\n      tag_217\n      swap1\n      tag_185\n      jump\t// in\n    tag_217:\n      swap2\n      pop\n      pop\n        /* \"credits.sol\":11275:11491  for (uint j = 0; j < creditTransferRequests[studentLists[i]].length; j++) {... */\n      jump(tag_196)\n    tag_197:\n      pop\n        /* \"credits.sol\":11255:11258  i++ */\n      dup1\n      tag_218\n      dup2\n      tag_185\n      jump\t// in\n    tag_218:\n      swap2\n      pop\n      pop\n        /* \"credits.sol\":11213:11502  for (uint i = 0; i < studentLists.length; i++) {... */\n      jump(tag_193)\n    tag_194:\n      pop\n        /* \"credits.sol\":11521:11532  allRequests */\n      swap1\n      swap4\n        /* \"credits.sol\":10673:11540  function getAllrequestCreditTransfer() external view returns (CreditTransfer[] memory) {... */\n      swap3\n      pop\n      pop\n      pop\n      jump\t// out\n        /* \"credits.sol\":776:909  function removeAdmin(address _admin) onlyOwner public  {... */\n    tag_64:\n        /* \"credits.sol\":957:963  _owner */\n      and(sub(exp(0x02, 0xa0), 0x01), sload(0x00))\n        /* \"credits.sol\":967:977  msg.sender */\n      caller\n        /* \"credits.sol\":957:977  _owner == msg.sender */\n      eq\n        /* \"credits.sol\":949:988  require(_owner == msg.sender, \"!owner\") */\n      tag_220\n      jumpi\n      mload(0x40)\n      mul(0x461bcd, exp(0x02, 0xe5))\n      dup2\n      mstore\n      0x04\n      add\n      tag_221\n      swap1\n      tag_222\n      jump\t// in\n    tag_221:\n      mload(0x40)\n      dup1\n      swap2\n      sub\n      swap1\n      revert\n    tag_220:\n      sub(exp(0x02, 0xa0), 0x01)\n        /* \"credits.sol\":842:857  isAdmin[_admin] */\n      dup2\n      and\n        /* \"credits.sol\":860:865  false */\n      0x00\n        /* \"credits.sol\":842:857  isAdmin[_admin] */\n      dup2\n      dup2\n      mstore\n        /* \"credits.sol\":842:849  isAdmin */\n      0x01\n        /* \"credits.sol\":842:857  isAdmin[_admin] */\n      0x20\n      mstore\n      0x40\n      dup1\n      dup3\n      keccak256\n        /* \"credits.sol\":842:865  isAdmin[_admin] = false */\n      dup1\n      sload\n      not(0xff)\n      and\n      swap1\n      sstore\n        /* \"credits.sol\":881:901  AdminRemoved(_admin) */\n      mload\n      0xa3b62bc36326052d97ea62d63c3d60308ed4c3ea8ac079dd8499f1e9c4f80c0f\n      swap2\n        /* \"credits.sol\":860:865  false */\n      swap1\n        /* \"credits.sol\":881:901  AdminRemoved(_admin) */\n      log2\n        /* \"credits.sol\":776:909  function removeAdmin(address _admin) onlyOwner public  {... */\n      pop\n      jump\t// out\n        /* \"credits.sol\":3299:3328  address[] public studentLists */\n    tag_72:\n      0x0a\n      dup2\n      dup2\n      sload\n      dup2\n      lt\n      tag_224\n      jumpi\n      0x00\n      dup1\n      revert\n    tag_224:\n      0x00\n      swap2\n      dup3\n      mstore\n      0x20\n      swap1\n      swap2\n      keccak256\n      add\n      sload\n      sub(exp(0x02, 0xa0), 0x01)\n      and\n      swap1\n      pop\n      dup2\n      jump\t// out\n        /* \"credits.sol\":7650:8021  function Cancel(address student,uint256 courseId)external  onlyAdmin{... */\n    tag_77:\n        /* \"credits.sol\":1065:1075  msg.sender */\n      caller\n        /* \"credits.sol\":1057:1076  isAdmin[msg.sender] */\n      0x00\n      swap1\n      dup2\n      mstore\n        /* \"credits.sol\":1057:1064  isAdmin */\n      0x01\n        /* \"credits.sol\":1057:1076  isAdmin[msg.sender] */\n      0x20\n      mstore\n      0x40\n      swap1\n      keccak256\n      sload\n      0xff\n      and\n        /* \"credits.sol\":1049:1093  require(isAdmin[msg.sender], \"Not an admin\") */\n      tag_227\n      jumpi\n      mload(0x40)\n      mul(0x461bcd, exp(0x02, 0xe5))\n      dup2\n      mstore\n      0x04\n      add\n      tag_221\n      swap1\n      tag_229\n      jump\t// in\n    tag_227:\n      sub(exp(0x02, 0xa0), 0x01)\n        /* \"credits.sol\":7737:7760  studentCredits[student] */\n      dup3\n      and\n      0x00\n      swap1\n      dup2\n      mstore\n        /* \"credits.sol\":7737:7751  studentCredits */\n      0x03\n        /* \"credits.sol\":7737:7760  studentCredits[student] */\n      0x20\n      dup2\n      dup2\n      mstore\n      0x40\n      dup1\n      dup5\n      keccak256\n        /* \"credits.sol\":7737:7770  studentCredits[student][courseId] */\n      dup6\n      dup6\n      mstore\n      swap1\n      swap2\n      mstore\n      dup3\n      keccak256\n        /* \"credits.sol\":7737:7780  studentCredits[student][courseId].issueDate */\n      add\n      sload\n        /* \"credits.sol\":7737:7785  studentCredits[student][courseId].issueDate != 0 */\n      swap1\n      sub\n        /* \"credits.sol\":7729:7811  require(studentCredits[student][courseId].issueDate != 0, \"Credit does not exist\") */\n      tag_231\n      jumpi\n      mload(0x40)\n      mul(0x461bcd, exp(0x02, 0xe5))\n      dup2\n      mstore\n      0x04\n      add\n      tag_221\n      swap1\n      tag_233\n      jump\t// in\n    tag_231:\n      sub(exp(0x02, 0xa0), 0x01)\n        /* \"credits.sol\":7882:7905  studentCredits[student] */\n      dup3\n      and\n      0x00\n      swap1\n      dup2\n      mstore\n        /* \"credits.sol\":7882:7896  studentCredits */\n      0x03\n        /* \"credits.sol\":7882:7905  studentCredits[student] */\n      0x20\n      swap1\n      dup2\n      mstore\n      0x40\n      dup1\n      dup4\n      keccak256\n        /* \"credits.sol\":7882:7915  studentCredits[student][courseId] */\n      dup5\n      dup5\n      mstore\n      swap1\n      swap2\n      mstore\n      swap1\n      keccak256\n        /* \"credits.sol\":7882:7925  studentCredits[student][courseId].isRevoked */\n      0x06\n      add\n      sload\n      0xff\n      and\n        /* \"credits.sol\":7881:7925  !studentCredits[student][courseId].isRevoked */\n      iszero\n        /* \"credits.sol\":7873:7952  require(!studentCredits[student][courseId].isRevoked, \"Credit already revoked\") */\n      tag_237\n      jumpi\n      mload(0x40)\n      mul(0x461bcd, exp(0x02, 0xe5))\n      dup2\n      mstore\n      0x04\n      add\n      tag_221\n      swap1\n      tag_239\n      jump\t// in\n    tag_237:\n      sub(exp(0x02, 0xa0), 0x01)\n        /* \"credits.sol\":7963:7986  studentCredits[student] */\n      swap1\n      swap2\n      and\n      0x00\n      swap1\n      dup2\n      mstore\n        /* \"credits.sol\":7963:7977  studentCredits */\n      0x03\n        /* \"credits.sol\":7963:7986  studentCredits[student] */\n      0x20\n      swap1\n      dup2\n      mstore\n      0x40\n      dup1\n      dup4\n      keccak256\n        /* \"credits.sol\":7963:7996  studentCredits[student][courseId] */\n      swap4\n      dup4\n      mstore\n      swap3\n      swap1\n      mstore\n      keccak256\n        /* \"credits.sol\":7963:8006  studentCredits[student][courseId].isRevoked */\n      0x06\n      add\n        /* \"credits.sol\":7963:8013  studentCredits[student][courseId].isRevoked = true */\n      dup1\n      sload\n      not(0xff)\n      and\n        /* \"credits.sol\":8009:8013  true */\n      0x01\n        /* \"credits.sol\":7963:8013  studentCredits[student][courseId].isRevoked = true */\n      or\n      swap1\n      sstore\n        /* \"credits.sol\":7650:8021  function Cancel(address student,uint256 courseId)external  onlyAdmin{... */\n      jump\t// out\n        /* \"credits.sol\":4123:4277  function addTeacher(address teacher)external onlyAdmin{... */\n    tag_80:\n        /* \"credits.sol\":1065:1075  msg.sender */\n      caller\n        /* \"credits.sol\":1057:1076  isAdmin[msg.sender] */\n      0x00\n      swap1\n      dup2\n      mstore\n        /* \"credits.sol\":1057:1064  isAdmin */\n      0x01\n        /* \"credits.sol\":1057:1076  isAdmin[msg.sender] */\n      0x20\n      mstore\n      0x40\n      swap1\n      keccak256\n      sload\n      0xff\n      and\n        /* \"credits.sol\":1049:1093  require(isAdmin[msg.sender], \"Not an admin\") */\n      tag_241\n      jumpi\n      mload(0x40)\n      mul(0x461bcd, exp(0x02, 0xe5))\n      dup2\n      mstore\n      0x04\n      add\n      tag_221\n      swap1\n      tag_229\n      jump\t// in\n    tag_241:\n      sub(exp(0x02, 0xa0), 0x01)\n        /* \"credits.sol\":4196:4215  teacher!=address(0) */\n      dup2\n      and\n        /* \"credits.sol\":4188:4234  require(teacher!=address(0),\"Invalid address\") */\n      tag_244\n      jumpi\n      mload(0x40)\n      mul(0x461bcd, exp(0x02, 0xe5))\n      dup2\n      mstore\n      0x04\n      add\n      tag_221\n      swap1\n      tag_246\n      jump\t// in\n    tag_244:\n      sub(exp(0x02, 0xa0), 0x01)\n        /* \"credits.sol\":4247:4264  teachers[teacher] */\n      and\n      0x00\n      swap1\n      dup2\n      mstore\n        /* \"credits.sol\":4247:4255  teachers */\n      0x05\n        /* \"credits.sol\":4247:4264  teachers[teacher] */\n      0x20\n      mstore\n      0x40\n      swap1\n      keccak256\n        /* \"credits.sol\":4247:4269  teachers[teacher]=true */\n      dup1\n      sload\n      not(0xff)\n      and\n        /* \"credits.sol\":4265:4269  true */\n      0x01\n        /* \"credits.sol\":4247:4269  teachers[teacher]=true */\n      or\n      swap1\n      sstore\n        /* \"credits.sol\":4123:4277  function addTeacher(address teacher)external onlyAdmin{... */\n      jump\t// out\n        /* \"credits.sol\":5475:5888  function getCreditsOfStudent() external view returns(Credit[] memory creditList) {... */\n    tag_82:\n        /* \"credits.sol\":5598:5608  msg.sender */\n      caller\n        /* \"credits.sol\":5567:5578  uint length */\n      0x00\n        /* \"credits.sol\":5581:5609  studentCourseIds[msg.sender] */\n      swap1\n      dup2\n      mstore\n        /* \"credits.sol\":5581:5597  studentCourseIds */\n      0x04\n        /* \"credits.sol\":5581:5609  studentCourseIds[msg.sender] */\n      0x20\n      mstore\n      0x40\n      swap1\n      keccak256\n        /* \"credits.sol\":5581:5616  studentCourseIds[msg.sender].length */\n      sload\n        /* \"credits.sol\":5528:5554  Credit[] memory creditList */\n      0x60\n      swap1\n        /* \"credits.sol\":5581:5616  studentCourseIds[msg.sender].length */\n      dup1\n        /* \"credits.sol\":5640:5660  new Credit[](length) */\n      0xffffffffffffffff\n      dup2\n      gt\n      iszero\n      tag_249\n      jumpi\n      tag_249\n      tag_188\n      jump\t// in\n    tag_249:\n      mload(0x40)\n      swap1\n      dup1\n      dup3\n      mstore\n      dup1\n      0x20\n      mul\n      0x20\n      add\n      dup3\n      add\n      0x40\n      mstore\n      dup1\n      iszero\n      tag_250\n      jumpi\n      dup2\n      0x20\n      add\n    tag_251:\n      tag_252\n      tag_253\n      jump\t// in\n    tag_252:\n      dup2\n      mstore\n      0x20\n      add\n      swap1\n      0x01\n      swap1\n      sub\n      swap1\n      dup2\n      tag_251\n      jumpi\n      swap1\n      pop\n    tag_250:\n      pop\n        /* \"credits.sol\":5627:5660  creditList = new Credit[](length) */\n      swap2\n      pop\n        /* \"credits.sol\":5677:5683  uint i */\n      0x00\n        /* \"credits.sol\":5673:5851  for(uint i = 0; i < length; i++) {... */\n    tag_254:\n        /* \"credits.sol\":5693:5699  length */\n      dup2\n        /* \"credits.sol\":5689:5690  i */\n      dup2\n        /* \"credits.sol\":5689:5699  i < length */\n      lt\n        /* \"credits.sol\":5673:5851  for(uint i = 0; i < length; i++) {... */\n      iszero\n      tag_255\n      jumpi\n        /* \"credits.sol\":5756:5766  msg.sender */\n      caller\n        /* \"credits.sol\":5723:5736  uint courseId */\n      0x00\n        /* \"credits.sol\":5739:5767  studentCourseIds[msg.sender] */\n      swap1\n      dup2\n      mstore\n        /* \"credits.sol\":5739:5755  studentCourseIds */\n      0x04\n        /* \"credits.sol\":5739:5767  studentCourseIds[msg.sender] */\n      0x20\n      mstore\n      0x40\n      dup2\n      keccak256\n        /* \"credits.sol\":5739:5770  studentCourseIds[msg.sender][i] */\n      dup1\n      sload\n        /* \"credits.sol\":5768:5769  i */\n      dup4\n      swap1\n        /* \"credits.sol\":5739:5770  studentCourseIds[msg.sender][i] */\n      dup2\n      lt\n      tag_258\n      jumpi\n      tag_258\n      tag_180\n      jump\t// in\n    tag_258:\n      0x00\n      swap2\n      dup3\n      mstore\n      0x20\n      dup1\n      dup4\n      keccak256\n      swap1\n      swap2\n      add\n      sload\n        /* \"credits.sol\":5818:5828  msg.sender */\n      caller\n        /* \"credits.sol\":5803:5829  studentCredits[msg.sender] */\n      dup4\n      mstore\n        /* \"credits.sol\":5803:5817  studentCredits */\n      0x03\n        /* \"credits.sol\":5803:5829  studentCredits[msg.sender] */\n      dup1\n      dup4\n      mstore\n      0x40\n      dup1\n      dup6\n      keccak256\n        /* \"credits.sol\":5803:5839  studentCredits[msg.sender][courseId] */\n      dup4\n      dup7\n      mstore\n      dup5\n      mstore\n      swap4\n      dup5\n      swap1\n      keccak256\n        /* \"credits.sol\":5787:5839  creditList[i] = studentCredits[msg.sender][courseId] */\n      dup5\n      mload\n      0x0140\n      dup2\n      add\n      dup7\n      mstore\n      dup2\n      sload\n      dup2\n      mstore\n      0x01\n      dup3\n      add\n      sload\n      swap5\n      dup2\n      add\n      swap5\n      swap1\n      swap5\n      mstore\n      0x02\n      dup2\n      add\n      sload\n      swap5\n      dup5\n      add\n      swap5\n      swap1\n      swap5\n      mstore\n      dup4\n      add\n      sload\n      0x60\n      dup4\n      add\n      mstore\n      0x04\n      dup4\n      add\n      sload\n      0xff\n      swap1\n      dup2\n      and\n      iszero\n      iszero\n      0x80\n      dup5\n      add\n      mstore\n      0x05\n      dup5\n      add\n      sload\n      0xa0\n      dup5\n      add\n      mstore\n      0x06\n      dup5\n      add\n      sload\n      and\n      iszero\n      iszero\n      0xc0\n      dup4\n      add\n      mstore\n      0x07\n      dup4\n      add\n      dup1\n      sload\n        /* \"credits.sol\":5739:5770  studentCourseIds[msg.sender][i] */\n      swap2\n      swap5\n      pop\n        /* \"credits.sol\":5787:5839  creditList[i] = studentCredits[msg.sender][courseId] */\n      swap2\n      swap3\n        /* \"credits.sol\":5803:5839  studentCredits[msg.sender][courseId] */\n      swap2\n        /* \"credits.sol\":5787:5839  creditList[i] = studentCredits[msg.sender][courseId] */\n      0xe0\n      dup5\n      add\n      swap2\n      tag_260\n      swap1\n      tag_209\n      jump\t// in\n    tag_260:\n      dup1\n      0x1f\n      add\n      0x20\n      dup1\n      swap2\n      div\n      mul\n      0x20\n      add\n      mload(0x40)\n      swap1\n      dup2\n      add\n      0x40\n      mstore\n      dup1\n      swap3\n      swap2\n      swap1\n      dup2\n      dup2\n      mstore\n      0x20\n      add\n      dup3\n      dup1\n      sload\n      tag_261\n      swap1\n      tag_209\n      jump\t// in\n    tag_261:\n      dup1\n      iszero\n      tag_262\n      jumpi\n      dup1\n      0x1f\n      lt\n      tag_263\n      jumpi\n      0x0100\n      dup1\n      dup4\n      sload\n      div\n      mul\n      dup4\n      mstore\n      swap2\n      0x20\n      add\n      swap2\n      jump(tag_262)\n    tag_263:\n      dup3\n      add\n      swap2\n      swap1\n      0x00\n      mstore\n      keccak256(0x00, 0x20)\n      swap1\n    tag_264:\n      dup2\n      sload\n      dup2\n      mstore\n      swap1\n      0x01\n      add\n      swap1\n      0x20\n      add\n      dup1\n      dup4\n      gt\n      tag_264\n      jumpi\n      dup3\n      swap1\n      sub\n      0x1f\n      and\n      dup3\n      add\n      swap2\n    tag_262:\n      pop\n      pop\n      pop\n      swap2\n      dup4\n      mstore\n      pop\n      pop\n      0x08\n      dup3\n      add\n      sload\n      0xff\n      and\n      iszero\n      iszero\n      0x20\n      dup3\n      add\n      mstore\n      0x09\n      dup3\n      add\n      dup1\n      sload\n      0x40\n      swap1\n      swap3\n      add\n      swap2\n      tag_265\n      swap1\n      tag_209\n      jump\t// in\n    tag_265:\n      dup1\n      0x1f\n      add\n      0x20\n      dup1\n      swap2\n      div\n      mul\n      0x20\n      add\n      mload(0x40)\n      swap1\n      dup2\n      add\n      0x40\n      mstore\n      dup1\n      swap3\n      swap2\n      swap1\n      dup2\n      dup2\n      mstore\n      0x20\n      add\n      dup3\n      dup1\n      sload\n      tag_266\n      swap1\n      tag_209\n      jump\t// in\n    tag_266:\n      dup1\n      iszero\n      tag_267\n      jumpi\n      dup1\n      0x1f\n      lt\n      tag_268\n      jumpi\n      0x0100\n      dup1\n      dup4\n      sload\n      div\n      mul\n      dup4\n      mstore\n      swap2\n      0x20\n      add\n      swap2\n      jump(tag_267)\n    tag_268:\n      dup3\n      add\n      swap2\n      swap1\n      0x00\n      mstore\n      keccak256(0x00, 0x20)\n      swap1\n    tag_269:\n      dup2\n      sload\n      dup2\n      mstore\n      swap1\n      0x01\n      add\n      swap1\n      0x20\n      add\n      dup1\n      dup4\n      gt\n      tag_269\n      jumpi\n      dup3\n      swap1\n      sub\n      0x1f\n      and\n      dup3\n      add\n      swap2\n    tag_267:\n      pop\n      pop\n      pop\n      pop\n      pop\n      dup2\n      mstore\n      pop\n      pop\n        /* \"credits.sol\":5787:5797  creditList */\n      dup5\n        /* \"credits.sol\":5798:5799  i */\n      dup4\n        /* \"credits.sol\":5787:5800  creditList[i] */\n      dup2\n      mload\n      dup2\n      lt\n      tag_271\n      jumpi\n      tag_271\n      tag_180\n      jump\t// in\n    tag_271:\n      0x20\n      mul\n      0x20\n      add\n      add\n        /* \"credits.sol\":5787:5839  creditList[i] = studentCredits[msg.sender][courseId] */\n      dup2\n      swap1\n      mstore\n      pop\n        /* \"credits.sol\":5706:5851  {... */\n      pop\n        /* \"credits.sol\":5701:5704  i++ */\n      dup1\n      dup1\n      tag_272\n      swap1\n      tag_185\n      jump\t// in\n    tag_272:\n      swap2\n      pop\n      pop\n        /* \"credits.sol\":5673:5851  for(uint i = 0; i < length; i++) {... */\n      jump(tag_254)\n    tag_255:\n      pop\n        /* \"credits.sol\":5863:5880  return creditList */\n      pop\n        /* \"credits.sol\":5475:5888  function getCreditsOfStudent() external view returns(Credit[] memory creditList) {... */\n      swap1\n      jump\t// out\n        /* \"credits.sol\":3224:3290  mapping(address => CreditTransfer[]) public creditTransferRequests */\n    tag_87:\n      mstore(0x20, 0x09)\n      dup2\n      0x00\n      mstore\n      keccak256(0x00, 0x40)\n      dup2\n      dup2\n      sload\n      dup2\n      lt\n      tag_273\n      jumpi\n      0x00\n      dup1\n      revert\n    tag_273:\n      0x00\n      swap2\n      dup3\n      mstore\n      0x20\n      swap1\n      swap2\n      keccak256\n      0x05\n      swap1\n      swap2\n      mul\n      add\n      dup1\n      sload\n      0x01\n      dup3\n      add\n      sload\n      0x02\n      dup4\n      add\n      dup1\n      sload\n      sub(exp(0x02, 0xa0), 0x01)\n      swap1\n      swap4\n      and\n      swap6\n      pop\n      swap1\n      swap4\n      pop\n      swap1\n      tag_275\n      swap1\n      tag_209\n      jump\t// in\n    tag_275:\n      dup1\n      0x1f\n      add\n      0x20\n      dup1\n      swap2\n      div\n      mul\n      0x20\n      add\n      mload(0x40)\n      swap1\n      dup2\n      add\n      0x40\n      mstore\n      dup1\n      swap3\n      swap2\n      swap1\n      dup2\n      dup2\n      mstore\n      0x20\n      add\n      dup3\n      dup1\n      sload\n      tag_276\n      swap1\n      tag_209\n      jump\t// in\n    tag_276:\n      dup1\n      iszero\n      tag_277\n      jumpi\n      dup1\n      0x1f\n      lt\n      tag_278\n      jumpi\n      0x0100\n      dup1\n      dup4\n      sload\n      div\n      mul\n      dup4\n      mstore\n      swap2\n      0x20\n      add\n      swap2\n      jump(tag_277)\n    tag_278:\n      dup3\n      add\n      swap2\n      swap1\n      0x00\n      mstore\n      keccak256(0x00, 0x20)\n      swap1\n    tag_279:\n      dup2\n      sload\n      dup2\n      mstore\n      swap1\n      0x01\n      add\n      swap1\n      0x20\n      add\n      dup1\n      dup4\n      gt\n      tag_279\n      jumpi\n      dup3\n      swap1\n      sub\n      0x1f\n      and\n      dup3\n      add\n      swap2\n    tag_277:\n      pop\n      pop\n      pop\n      pop\n      0x03\n      dup4\n      add\n      sload\n      0x04\n      swap1\n      swap4\n      add\n      sload\n      swap2\n      swap3\n      0xff\n      dup1\n      dup3\n      and\n      swap4\n      0x0100\n      swap1\n      swap3\n      div\n      and\n      swap2\n      pop\n      dup7\n      jump\t// out\n        /* \"credits.sol\":4305:4532  function removeTeacher(address teacher)external onlyAdmin{... */\n    tag_92:\n        /* \"credits.sol\":1065:1075  msg.sender */\n      caller\n        /* \"credits.sol\":1057:1076  isAdmin[msg.sender] */\n      0x00\n      swap1\n      dup2\n      mstore\n        /* \"credits.sol\":1057:1064  isAdmin */\n      0x01\n        /* \"credits.sol\":1057:1076  isAdmin[msg.sender] */\n      0x20\n      mstore\n      0x40\n      swap1\n      keccak256\n      sload\n      0xff\n      and\n        /* \"credits.sol\":1049:1093  require(isAdmin[msg.sender], \"Not an admin\") */\n      tag_281\n      jumpi\n      mload(0x40)\n      mul(0x461bcd, exp(0x02, 0xe5))\n      dup2\n      mstore\n      0x04\n      add\n      tag_221\n      swap1\n      tag_229\n      jump\t// in\n    tag_281:\n      sub(exp(0x02, 0xa0), 0x01)\n        /* \"credits.sol\":4381:4400  teacher!=address(0) */\n      dup2\n      and\n        /* \"credits.sol\":4373:4419  require(teacher!=address(0),\"Invalid address\") */\n      tag_284\n      jumpi\n      mload(0x40)\n      mul(0x461bcd, exp(0x02, 0xe5))\n      dup2\n      mstore\n      0x04\n      add\n      tag_221\n      swap1\n      tag_246\n      jump\t// in\n    tag_284:\n      sub(exp(0x02, 0xa0), 0x01)\n        /* \"credits.sol\":4438:4455  teachers[teacher] */\n      dup2\n      and\n      0x00\n      swap1\n      dup2\n      mstore\n        /* \"credits.sol\":4438:4446  teachers */\n      0x05\n        /* \"credits.sol\":4438:4455  teachers[teacher] */\n      0x20\n      mstore\n      0x40\n      swap1\n      keccak256\n      sload\n      0xff\n      and\n        /* \"credits.sol\":4438:4461  teachers[teacher]==true */\n      iszero\n      iszero\n        /* \"credits.sol\":4438:4455  teachers[teacher] */\n      0x01\n        /* \"credits.sol\":4438:4461  teachers[teacher]==true */\n      eq\n        /* \"credits.sol\":4430:4490  require(teachers[teacher]==true,\"address are not a teacher\") */\n      tag_286\n      jumpi\n      mload(0x40)\n      mul(0x461bcd, exp(0x02, 0xe5))\n      dup2\n      mstore\n        /* \"#utility.yul\":15033:15035   */\n      0x20\n        /* \"credits.sol\":4430:4490  require(teachers[teacher]==true,\"address are not a teacher\") */\n      0x04\n      dup3\n      add\n        /* \"#utility.yul\":15015:15036   */\n      mstore\n        /* \"#utility.yul\":15072:15074   */\n      0x19\n        /* \"#utility.yul\":15052:15070   */\n      0x24\n      dup3\n      add\n        /* \"#utility.yul\":15045:15075   */\n      mstore\n        /* \"#utility.yul\":15111:15138   */\n      0x6164647265737320617265206e6f742061207465616368657200000000000000\n        /* \"#utility.yul\":15091:15109   */\n      0x44\n      dup3\n      add\n        /* \"#utility.yul\":15084:15139   */\n      mstore\n        /* \"#utility.yul\":15156:15174   */\n      0x64\n      add\n        /* \"credits.sol\":4430:4490  require(teachers[teacher]==true,\"address are not a teacher\") */\n      tag_221\n        /* \"#utility.yul\":14831:15180   */\n      jump\n        /* \"credits.sol\":4430:4490  require(teachers[teacher]==true,\"address are not a teacher\") */\n    tag_286:\n      sub(exp(0x02, 0xa0), 0x01)\n        /* \"credits.sol\":4501:4518  teachers[teacher] */\n      and\n        /* \"credits.sol\":4519:4524  false */\n      0x00\n        /* \"credits.sol\":4501:4518  teachers[teacher] */\n      swap1\n      dup2\n      mstore\n        /* \"credits.sol\":4501:4509  teachers */\n      0x05\n        /* \"credits.sol\":4501:4518  teachers[teacher] */\n      0x20\n      mstore\n      0x40\n      swap1\n      keccak256\n        /* \"credits.sol\":4501:4524  teachers[teacher]=false */\n      dup1\n      sload\n      not(0xff)\n      and\n      swap1\n      sstore\n        /* \"credits.sol\":4305:4532  function removeTeacher(address teacher)external onlyAdmin{... */\n      jump\t// out\n        /* \"credits.sol\":4578:5290  function recordCredit(address student,uint256 courserId,uint256 score,string memory issuingInstitution)public onlyTeacher{... */\n    tag_100:\n        /* \"credits.sol\":3390:3400  msg.sender */\n      caller\n        /* \"credits.sol\":3381:3401  teachers[msg.sender] */\n      0x00\n      swap1\n      dup2\n      mstore\n        /* \"credits.sol\":3381:3389  teachers */\n      0x05\n        /* \"credits.sol\":3381:3401  teachers[msg.sender] */\n      0x20\n      mstore\n      0x40\n      swap1\n      keccak256\n      sload\n      0xff\n      and\n        /* \"credits.sol\":3373:3419  require(teachers[msg.sender], \"Not a teacher\") */\n      tag_290\n      jumpi\n      mload(0x40)\n      mul(0x461bcd, exp(0x02, 0xe5))\n      dup2\n      mstore\n        /* \"#utility.yul\":15387:15389   */\n      0x20\n        /* \"credits.sol\":3373:3419  require(teachers[msg.sender], \"Not a teacher\") */\n      0x04\n      dup3\n      add\n        /* \"#utility.yul\":15369:15390   */\n      mstore\n        /* \"#utility.yul\":15426:15428   */\n      0x0d\n        /* \"#utility.yul\":15406:15424   */\n      0x24\n      dup3\n      add\n        /* \"#utility.yul\":15399:15429   */\n      mstore\n        /* \"#utility.yul\":15465:15480   */\n      0x4e6f742061207465616368657200000000000000000000000000000000000000\n        /* \"#utility.yul\":15445:15463   */\n      0x44\n      dup3\n      add\n        /* \"#utility.yul\":15438:15481   */\n      mstore\n        /* \"#utility.yul\":15498:15516   */\n      0x64\n      add\n        /* \"credits.sol\":3373:3419  require(teachers[msg.sender], \"Not a teacher\") */\n      tag_221\n        /* \"#utility.yul\":15185:15522   */\n      jump\n        /* \"credits.sol\":3373:3419  require(teachers[msg.sender], \"Not a teacher\") */\n    tag_290:\n      sub(exp(0x02, 0xa0), 0x01)\n        /* \"credits.sol\":4718:4737  student!=address(0) */\n      dup5\n      and\n        /* \"credits.sol\":4710:4756  require(student!=address(0),\"Invalid address\") */\n      tag_294\n      jumpi\n      mload(0x40)\n      mul(0x461bcd, exp(0x02, 0xe5))\n      dup2\n      mstore\n      0x04\n      add\n      tag_221\n      swap1\n      tag_246\n      jump\t// in\n    tag_294:\n        /* \"credits.sol\":4882:4905  courseExists[courserId] */\n      0x00\n      dup4\n      dup2\n      mstore\n        /* \"credits.sol\":4882:4894  courseExists */\n      0x06\n        /* \"credits.sol\":4882:4905  courseExists[courserId] */\n      0x20\n      mstore\n      0x40\n      swap1\n      keccak256\n      sload\n      0xff\n      and\n        /* \"credits.sol\":4882:4911  courseExists[courserId]==true */\n      iszero\n      iszero\n        /* \"credits.sol\":4882:4905  courseExists[courserId] */\n      0x01\n        /* \"credits.sol\":4882:4911  courseExists[courserId]==true */\n      eq\n        /* \"credits.sol\":4874:4930  require(courseExists[courserId]==true,\"course not exit\") */\n      tag_298\n      jumpi\n      mload(0x40)\n      mul(0x461bcd, exp(0x02, 0xe5))\n      dup2\n      mstore\n        /* \"#utility.yul\":15729:15731   */\n      0x20\n        /* \"credits.sol\":4874:4930  require(courseExists[courserId]==true,\"course not exit\") */\n      0x04\n      dup3\n      add\n        /* \"#utility.yul\":15711:15732   */\n      mstore\n        /* \"#utility.yul\":15768:15770   */\n      0x0f\n        /* \"#utility.yul\":15748:15766   */\n      0x24\n      dup3\n      add\n        /* \"#utility.yul\":15741:15771   */\n      mstore\n        /* \"#utility.yul\":15807:15824   */\n      0x636f75727365206e6f7420657869740000000000000000000000000000000000\n        /* \"#utility.yul\":15787:15805   */\n      0x44\n      dup3\n      add\n        /* \"#utility.yul\":15780:15825   */\n      mstore\n        /* \"#utility.yul\":15842:15860   */\n      0x64\n      add\n        /* \"credits.sol\":4874:4930  require(courseExists[courserId]==true,\"course not exit\") */\n      tag_221\n        /* \"#utility.yul\":15527:15866   */\n      jump\n        /* \"credits.sol\":4874:4930  require(courseExists[courserId]==true,\"course not exit\") */\n    tag_298:\n        /* \"credits.sol\":4943:4964  uint currentTimestamp */\n      0x00\n        /* \"credits.sol\":5010:5032  courserInfo[courserId] */\n      dup4\n      dup2\n      mstore\n        /* \"credits.sol\":5010:5021  courserInfo */\n      0x02\n        /* \"credits.sol\":5010:5032  courserInfo[courserId] */\n      0x20\n      dup2\n      swap1\n      mstore\n      0x40\n      dup3\n      keccak256\n        /* \"credits.sol\":5010:5040  courserInfo[courserId].credits */\n      add\n      sload\n        /* \"credits.sol\":4967:4982  block.timestamp */\n      timestamp\n      swap2\n        /* \"credits.sol\":5069:5084  score*newredits */\n      tag_301\n        /* \"credits.sol\":5010:5040  courserInfo[courserId].credits */\n      dup3\n        /* \"credits.sol\":5069:5074  score */\n      dup7\n        /* \"credits.sol\":5069:5084  score*newredits */\n      tag_302\n      jump\t// in\n    tag_301:\n        /* \"credits.sol\":5053:5084  uint endCredits=score*newredits */\n      swap1\n      pop\n        /* \"credits.sol\":5132:5228  Credit(courserId, endCredits, score, currentTimestamp,false,0,false,issuingInstitution,false,\"\") */\n      mload(0x40)\n      dup1\n      0x0140\n      add\n      0x40\n      mstore\n      dup1\n        /* \"credits.sol\":5139:5148  courserId */\n      dup8\n        /* \"credits.sol\":5132:5228  Credit(courserId, endCredits, score, currentTimestamp,false,0,false,issuingInstitution,false,\"\") */\n      dup2\n      mstore\n      0x20\n      add\n        /* \"credits.sol\":5150:5160  endCredits */\n      dup3\n        /* \"credits.sol\":5132:5228  Credit(courserId, endCredits, score, currentTimestamp,false,0,false,issuingInstitution,false,\"\") */\n      dup2\n      mstore\n      0x20\n      add\n        /* \"credits.sol\":5162:5167  score */\n      dup7\n        /* \"credits.sol\":5132:5228  Credit(courserId, endCredits, score, currentTimestamp,false,0,false,issuingInstitution,false,\"\") */\n      dup2\n      mstore\n      0x20\n      add\n        /* \"credits.sol\":5169:5185  currentTimestamp */\n      dup5\n        /* \"credits.sol\":5132:5228  Credit(courserId, endCredits, score, currentTimestamp,false,0,false,issuingInstitution,false,\"\") */\n      dup2\n      mstore\n      0x20\n      add\n        /* \"credits.sol\":5186:5191  false */\n      0x00\n        /* \"credits.sol\":5132:5228  Credit(courserId, endCredits, score, currentTimestamp,false,0,false,issuingInstitution,false,\"\") */\n      iszero\n      iszero\n      dup2\n      mstore\n      0x20\n      add\n        /* \"credits.sol\":5192:5193  0 */\n      0x00\n        /* \"credits.sol\":5132:5228  Credit(courserId, endCredits, score, currentTimestamp,false,0,false,issuingInstitution,false,\"\") */\n      dup2\n      mstore\n      0x20\n      add\n        /* \"credits.sol\":5194:5199  false */\n      0x00\n        /* \"credits.sol\":5132:5228  Credit(courserId, endCredits, score, currentTimestamp,false,0,false,issuingInstitution,false,\"\") */\n      iszero\n      iszero\n      dup2\n      mstore\n      0x20\n      add\n        /* \"credits.sol\":5200:5218  issuingInstitution */\n      dup6\n        /* \"credits.sol\":5132:5228  Credit(courserId, endCredits, score, currentTimestamp,false,0,false,issuingInstitution,false,\"\") */\n      dup2\n      mstore\n      0x20\n      add\n        /* \"credits.sol\":5219:5224  false */\n      0x00\n        /* \"credits.sol\":5132:5228  Credit(courserId, endCredits, score, currentTimestamp,false,0,false,issuingInstitution,false,\"\") */\n      iszero\n      iszero\n      dup2\n      mstore\n      0x20\n      add\n      mload(0x40)\n      dup1\n      0x20\n      add\n      0x40\n      mstore\n      dup1\n      0x00\n      dup2\n      mstore\n      pop\n      dup2\n      mstore\n      pop\n        /* \"credits.sol\":5097:5111  studentCredits */\n      0x03\n        /* \"credits.sol\":5097:5120  studentCredits[student] */\n      0x00\n        /* \"credits.sol\":5112:5119  student */\n      dup10\n      sub(exp(0x02, 0xa0), 0x01)\n        /* \"credits.sol\":5097:5120  studentCredits[student] */\n      and\n      sub(exp(0x02, 0xa0), 0x01)\n      and\n      dup2\n      mstore\n      0x20\n      add\n      swap1\n      dup2\n      mstore\n      0x20\n      add\n      0x00\n      keccak256\n        /* \"credits.sol\":5097:5131  studentCredits[student][courserId] */\n      0x00\n        /* \"credits.sol\":5121:5130  courserId */\n      dup9\n        /* \"credits.sol\":5097:5131  studentCredits[student][courserId] */\n      dup2\n      mstore\n      0x20\n      add\n      swap1\n      dup2\n      mstore\n      0x20\n      add\n      0x00\n      keccak256\n        /* \"credits.sol\":5097:5228  studentCredits[student][courserId]=Credit(courserId, endCredits, score, currentTimestamp,false,0,false,issuingInstitution,false,\"\") */\n      0x00\n      dup3\n      add\n      mload\n      dup2\n      0x00\n      add\n      sstore\n      0x20\n      dup3\n      add\n      mload\n      dup2\n      0x01\n      add\n      sstore\n      0x40\n      dup3\n      add\n      mload\n      dup2\n      0x02\n      add\n      sstore\n      0x60\n      dup3\n      add\n      mload\n      dup2\n      0x03\n      add\n      sstore\n      0x80\n      dup3\n      add\n      mload\n      dup2\n      0x04\n      add\n      exp(0x0100, 0x00)\n      dup2\n      sload\n      dup2\n      0xff\n      mul\n      not\n      and\n      swap1\n      dup4\n      iszero\n      iszero\n      mul\n      or\n      swap1\n      sstore\n      pop\n      0xa0\n      dup3\n      add\n      mload\n      dup2\n      0x05\n      add\n      sstore\n      0xc0\n      dup3\n      add\n      mload\n      dup2\n      0x06\n      add\n      exp(0x0100, 0x00)\n      dup2\n      sload\n      dup2\n      0xff\n      mul\n      not\n      and\n      swap1\n      dup4\n      iszero\n      iszero\n      mul\n      or\n      swap1\n      sstore\n      pop\n      0xe0\n      dup3\n      add\n      mload\n      dup2\n      0x07\n      add\n      swap1\n      dup2\n      tag_303\n      swap2\n      swap1\n      tag_304\n      jump\t// in\n    tag_303:\n      pop\n      0x0100\n      dup3\n      add\n      mload\n      0x08\n      dup3\n      add\n      dup1\n      sload\n      not(0xff)\n      and\n      swap2\n      iszero\n      iszero\n      swap2\n      swap1\n      swap2\n      or\n      swap1\n      sstore\n      0x0120\n      dup3\n      add\n      mload\n      0x09\n      dup3\n      add\n      swap1\n      tag_305\n      swap1\n      dup3\n      tag_304\n      jump\t// in\n    tag_305:\n      pop\n      pop\n      pop\n      sub(exp(0x02, 0xa0), 0x01)\n        /* \"credits.sol\":5241:5266  studentCourseIds[student] */\n      swap1\n      swap7\n      and\n      0x00\n      swap1\n      dup2\n      mstore\n        /* \"credits.sol\":5241:5257  studentCourseIds */\n      0x04\n        /* \"credits.sol\":5241:5266  studentCourseIds[student] */\n      0x20\n      swap1\n      dup2\n      mstore\n      0x40\n      dup3\n      keccak256\n        /* \"credits.sol\":5241:5282  studentCourseIds[student].push(courserId) */\n      dup1\n      sload\n      0x01\n      dup2\n      add\n      dup3\n      sstore\n      swap1\n      dup4\n      mstore\n      swap2\n      keccak256\n      add\n      swap5\n      swap1\n      swap5\n      sstore\n      pop\n      pop\n      pop\n      pop\n      pop\n        /* \"credits.sol\":4578:5290  function recordCredit(address student,uint256 courserId,uint256 score,string memory issuingInstitution)public onlyTeacher{... */\n      jump\t// out\n        /* \"credits.sol\":6153:6697  function getStudentCreditByMechanism(address student)external  returns(Credit[]memory creditList){... */\n    tag_103:\n      sub(exp(0x02, 0xa0), 0x01)\n        /* \"credits.sol\":6269:6287  allowance[student] */\n      dup2\n      and\n        /* \"credits.sol\":6300:6301  0 */\n      0x00\n        /* \"credits.sol\":6269:6287  allowance[student] */\n      swap1\n      dup2\n      mstore\n        /* \"credits.sol\":6269:6278  allowance */\n      0x08\n        /* \"credits.sol\":6269:6287  allowance[student] */\n      0x20\n      swap1\n      dup2\n      mstore\n      0x40\n      dup1\n      dup4\n      keccak256\n        /* \"credits.sol\":6288:6298  msg.sender */\n      caller\n        /* \"credits.sol\":6269:6299  allowance[student][msg.sender] */\n      dup5\n      mstore\n      swap1\n      swap2\n      mstore\n      swap1\n      keccak256\n      sload\n        /* \"credits.sol\":6224:6249  Credit[]memory creditList */\n      0x60\n      swap1\n        /* \"credits.sol\":6261:6326  require(allowance[student][msg.sender]>0,\"you do not be allowed\") */\n      tag_308\n      jumpi\n      mload(0x40)\n      mul(0x461bcd, exp(0x02, 0xe5))\n      dup2\n      mstore\n        /* \"#utility.yul\":18471:18473   */\n      0x20\n        /* \"credits.sol\":6261:6326  require(allowance[student][msg.sender]>0,\"you do not be allowed\") */\n      0x04\n      dup3\n      add\n        /* \"#utility.yul\":18453:18474   */\n      mstore\n        /* \"#utility.yul\":18510:18512   */\n      0x15\n        /* \"#utility.yul\":18490:18508   */\n      0x24\n      dup3\n      add\n        /* \"#utility.yul\":18483:18513   */\n      mstore\n        /* \"#utility.yul\":18549:18572   */\n      0x796f7520646f206e6f7420626520616c6c6f7765640000000000000000000000\n        /* \"#utility.yul\":18529:18547   */\n      0x44\n      dup3\n      add\n        /* \"#utility.yul\":18522:18573   */\n      mstore\n        /* \"#utility.yul\":18590:18608   */\n      0x64\n      add\n        /* \"credits.sol\":6261:6326  require(allowance[student][msg.sender]>0,\"you do not be allowed\") */\n      tag_221\n        /* \"#utility.yul\":18269:18614   */\n      jump\n        /* \"credits.sol\":6261:6326  require(allowance[student][msg.sender]>0,\"you do not be allowed\") */\n    tag_308:\n      sub(exp(0x02, 0xa0), 0x01)\n        /* \"credits.sol\":6351:6376  studentCourseIds[student] */\n      dup3\n      and\n        /* \"credits.sol\":6337:6348  uint length */\n      0x00\n        /* \"credits.sol\":6351:6376  studentCourseIds[student] */\n      swap1\n      dup2\n      mstore\n        /* \"credits.sol\":6351:6367  studentCourseIds */\n      0x04\n        /* \"credits.sol\":6351:6376  studentCourseIds[student] */\n      0x20\n      mstore\n      0x40\n      swap1\n      keccak256\n        /* \"credits.sol\":6351:6383  studentCourseIds[student].length */\n      sload\n      dup1\n        /* \"credits.sol\":6407:6427  new Credit[](length) */\n      0xffffffffffffffff\n      dup2\n      gt\n      iszero\n      tag_312\n      jumpi\n      tag_312\n      tag_188\n      jump\t// in\n    tag_312:\n      mload(0x40)\n      swap1\n      dup1\n      dup3\n      mstore\n      dup1\n      0x20\n      mul\n      0x20\n      add\n      dup3\n      add\n      0x40\n      mstore\n      dup1\n      iszero\n      tag_313\n      jumpi\n      dup2\n      0x20\n      add\n    tag_314:\n      tag_315\n      tag_253\n      jump\t// in\n    tag_315:\n      dup2\n      mstore\n      0x20\n      add\n      swap1\n      0x01\n      swap1\n      sub\n      swap1\n      dup2\n      tag_314\n      jumpi\n      swap1\n      pop\n    tag_313:\n      pop\n        /* \"credits.sol\":6394:6427  creditList = new Credit[](length) */\n      swap2\n      pop\n        /* \"credits.sol\":6444:6450  uint i */\n      0x00\n        /* \"credits.sol\":6440:6612  for(uint i = 0; i < length; i++) {... */\n    tag_316:\n        /* \"credits.sol\":6460:6466  length */\n      dup2\n        /* \"credits.sol\":6456:6457  i */\n      dup2\n        /* \"credits.sol\":6456:6466  i < length */\n      lt\n        /* \"credits.sol\":6440:6612  for(uint i = 0; i < length; i++) {... */\n      iszero\n      tag_317\n      jumpi\n      sub(exp(0x02, 0xa0), 0x01)\n        /* \"credits.sol\":6506:6531  studentCourseIds[student] */\n      dup5\n      and\n        /* \"credits.sol\":6490:6503  uint courseId */\n      0x00\n        /* \"credits.sol\":6506:6531  studentCourseIds[student] */\n      swap1\n      dup2\n      mstore\n        /* \"credits.sol\":6506:6522  studentCourseIds */\n      0x04\n        /* \"credits.sol\":6506:6531  studentCourseIds[student] */\n      0x20\n      mstore\n      0x40\n      dup2\n      keccak256\n        /* \"credits.sol\":6506:6534  studentCourseIds[student][i] */\n      dup1\n      sload\n        /* \"credits.sol\":6532:6533  i */\n      dup4\n      swap1\n        /* \"credits.sol\":6506:6534  studentCourseIds[student][i] */\n      dup2\n      lt\n      tag_320\n      jumpi\n      tag_320\n      tag_180\n      jump\t// in\n    tag_320:\n      0x00\n      swap2\n      dup3\n      mstore\n      0x20\n      dup1\n      dup4\n      keccak256\n      swap1\n      swap2\n      add\n      sload\n      sub(exp(0x02, 0xa0), 0x01)\n        /* \"credits.sol\":6567:6590  studentCredits[student] */\n      dup9\n      and\n      dup4\n      mstore\n        /* \"credits.sol\":6567:6581  studentCredits */\n      0x03\n        /* \"credits.sol\":6567:6590  studentCredits[student] */\n      dup1\n      dup4\n      mstore\n      0x40\n      dup1\n      dup6\n      keccak256\n        /* \"credits.sol\":6567:6600  studentCredits[student][courseId] */\n      dup4\n      dup7\n      mstore\n      dup5\n      mstore\n      swap4\n      dup5\n      swap1\n      keccak256\n        /* \"credits.sol\":6551:6600  creditList[i] = studentCredits[student][courseId] */\n      dup5\n      mload\n      0x0140\n      dup2\n      add\n      dup7\n      mstore\n      dup2\n      sload\n      dup2\n      mstore\n      0x01\n      dup3\n      add\n      sload\n      swap5\n      dup2\n      add\n      swap5\n      swap1\n      swap5\n      mstore\n      0x02\n      dup2\n      add\n      sload\n      swap5\n      dup5\n      add\n      swap5\n      swap1\n      swap5\n      mstore\n      dup4\n      add\n      sload\n      0x60\n      dup4\n      add\n      mstore\n      0x04\n      dup4\n      add\n      sload\n      0xff\n      swap1\n      dup2\n      and\n      iszero\n      iszero\n      0x80\n      dup5\n      add\n      mstore\n      0x05\n      dup5\n      add\n      sload\n      0xa0\n      dup5\n      add\n      mstore\n      0x06\n      dup5\n      add\n      sload\n      and\n      iszero\n      iszero\n      0xc0\n      dup4\n      add\n      mstore\n      0x07\n      dup4\n      add\n      dup1\n      sload\n        /* \"credits.sol\":6506:6534  studentCourseIds[student][i] */\n      swap2\n      swap5\n      pop\n        /* \"credits.sol\":6551:6600  creditList[i] = studentCredits[student][courseId] */\n      swap2\n      swap3\n        /* \"credits.sol\":6567:6600  studentCredits[student][courseId] */\n      swap2\n        /* \"credits.sol\":6551:6600  creditList[i] = studentCredits[student][courseId] */\n      0xe0\n      dup5\n      add\n      swap2\n      tag_322\n      swap1\n      tag_209\n      jump\t// in\n    tag_322:\n      dup1\n      0x1f\n      add\n      0x20\n      dup1\n      swap2\n      div\n      mul\n      0x20\n      add\n      mload(0x40)\n      swap1\n      dup2\n      add\n      0x40\n      mstore\n      dup1\n      swap3\n      swap2\n      swap1\n      dup2\n      dup2\n      mstore\n      0x20\n      add\n      dup3\n      dup1\n      sload\n      tag_323\n      swap1\n      tag_209\n      jump\t// in\n    tag_323:\n      dup1\n      iszero\n      tag_324\n      jumpi\n      dup1\n      0x1f\n      lt\n      tag_325\n      jumpi\n      0x0100\n      dup1\n      dup4\n      sload\n      div\n      mul\n      dup4\n      mstore\n      swap2\n      0x20\n      add\n      swap2\n      jump(tag_324)\n    tag_325:\n      dup3\n      add\n      swap2\n      swap1\n      0x00\n      mstore\n      keccak256(0x00, 0x20)\n      swap1\n    tag_326:\n      dup2\n      sload\n      dup2\n      mstore\n      swap1\n      0x01\n      add\n      swap1\n      0x20\n      add\n      dup1\n      dup4\n      gt\n      tag_326\n      jumpi\n      dup3\n      swap1\n      sub\n      0x1f\n      and\n      dup3\n      add\n      swap2\n    tag_324:\n      pop\n      pop\n      pop\n      swap2\n      dup4\n      mstore\n      pop\n      pop\n      0x08\n      dup3\n      add\n      sload\n      0xff\n      and\n      iszero\n      iszero\n      0x20\n      dup3\n      add\n      mstore\n      0x09\n      dup3\n      add\n      dup1\n      sload\n      0x40\n      swap1\n      swap3\n      add\n      swap2\n      tag_327\n      swap1\n      tag_209\n      jump\t// in\n    tag_327:\n      dup1\n      0x1f\n      add\n      0x20\n      dup1\n      swap2\n      div\n      mul\n      0x20\n      add\n      mload(0x40)\n      swap1\n      dup2\n      add\n      0x40\n      mstore\n      dup1\n      swap3\n      swap2\n      swap1\n      dup2\n      dup2\n      mstore\n      0x20\n      add\n      dup3\n      dup1\n      sload\n      tag_328\n      swap1\n      tag_209\n      jump\t// in\n    tag_328:\n      dup1\n      iszero\n      tag_329\n      jumpi\n      dup1\n      0x1f\n      lt\n      tag_330\n      jumpi\n      0x0100\n      dup1\n      dup4\n      sload\n      div\n      mul\n      dup4\n      mstore\n      swap2\n      0x20\n      add\n      swap2\n      jump(tag_329)\n    tag_330:\n      dup3\n      add\n      swap2\n      swap1\n      0x00\n      mstore\n      keccak256(0x00, 0x20)\n      swap1\n    tag_331:\n      dup2\n      sload\n      dup2\n      mstore\n      swap1\n      0x01\n      add\n      swap1\n      0x20\n      add\n      dup1\n      dup4\n      gt\n      tag_331\n      jumpi\n      dup3\n      swap1\n      sub\n      0x1f\n      and\n      dup3\n      add\n      swap2\n    tag_329:\n      pop\n      pop\n      pop\n      pop\n      pop\n      dup2\n      mstore\n      pop\n      pop\n        /* \"credits.sol\":6551:6561  creditList */\n      dup5\n        /* \"credits.sol\":6562:6563  i */\n      dup4\n        /* \"credits.sol\":6551:6564  creditList[i] */\n      dup2\n      mload\n      dup2\n      lt\n      tag_333\n      jumpi\n      tag_333\n      tag_180\n      jump\t// in\n    tag_333:\n      0x20\n      mul\n      0x20\n      add\n      add\n        /* \"credits.sol\":6551:6600  creditList[i] = studentCredits[student][courseId] */\n      dup2\n      swap1\n      mstore\n      pop\n        /* \"credits.sol\":6473:6612  {... */\n      pop\n        /* \"credits.sol\":6468:6471  i++ */\n      dup1\n      dup1\n      tag_334\n      swap1\n      tag_185\n      jump\t// in\n    tag_334:\n      swap2\n      pop\n      pop\n        /* \"credits.sol\":6440:6612  for(uint i = 0; i < length; i++) {... */\n      jump(tag_316)\n    tag_317:\n      pop\n      sub(exp(0x02, 0xa0), 0x01)\n        /* \"credits.sol\":6624:6642  allowance[student] */\n      dup4\n      and\n      0x00\n      swap1\n      dup2\n      mstore\n        /* \"credits.sol\":6624:6633  allowance */\n      0x08\n        /* \"credits.sol\":6624:6642  allowance[student] */\n      0x20\n      swap1\n      dup2\n      mstore\n      0x40\n      dup1\n      dup4\n      keccak256\n        /* \"credits.sol\":6643:6653  msg.sender */\n      caller\n        /* \"credits.sol\":6624:6654  allowance[student][msg.sender] */\n      dup5\n      mstore\n      swap1\n      swap2\n      mstore\n      dup2\n      keccak256\n        /* \"credits.sol\":6624:6657  allowance[student][msg.sender]-=1 */\n      dup1\n      sload\n        /* \"credits.sol\":6656:6657  1 */\n      0x01\n      swap3\n        /* \"credits.sol\":6624:6642  allowance[student] */\n      swap1\n        /* \"credits.sol\":6624:6657  allowance[student][msg.sender]-=1 */\n      tag_335\n      swap1\n        /* \"credits.sol\":6656:6657  1 */\n      dup5\n      swap1\n        /* \"credits.sol\":6624:6657  allowance[student][msg.sender]-=1 */\n      tag_336\n      jump\t// in\n    tag_335:\n      swap1\n      swap2\n      sstore\n      pop\n        /* \"credits.sol\":6153:6697  function getStudentCreditByMechanism(address student)external  returns(Credit[]memory creditList){... */\n      swap2\n      swap4\n      swap3\n      pop\n      pop\n      pop\n      jump\t// out\n        /* \"credits.sol\":5328:5426  function getAllCourseID()external view returns(uint[] memory){... */\n    tag_106:\n        /* \"credits.sol\":5375:5388  uint[] memory */\n      0x60\n        /* \"credits.sol\":5407:5418  courseLists */\n      0x07\n        /* \"credits.sol\":5400:5418  return courseLists */\n      dup1\n      sload\n      dup1\n      0x20\n      mul\n      0x20\n      add\n      mload(0x40)\n      swap1\n      dup2\n      add\n      0x40\n      mstore\n      dup1\n      swap3\n      swap2\n      swap1\n      dup2\n      dup2\n      mstore\n      0x20\n      add\n      dup3\n      dup1\n      sload\n      dup1\n      iszero\n      tag_338\n      jumpi\n      0x20\n      mul\n      dup3\n      add\n      swap2\n      swap1\n      0x00\n      mstore\n      keccak256(0x00, 0x20)\n      swap1\n    tag_339:\n      dup2\n      sload\n      dup2\n      mstore\n      0x20\n      add\n      swap1\n      0x01\n      add\n      swap1\n      dup1\n      dup4\n      gt\n      tag_339\n      jumpi\n    tag_338:\n      pop\n      pop\n      pop\n      pop\n      pop\n      swap1\n      pop\n        /* \"credits.sol\":5328:5426  function getAllCourseID()external view returns(uint[] memory){... */\n      swap1\n      jump\t// out\n        /* \"credits.sol\":9433:9686  function approveCreditTransfer(address student, uint index) external onlyAdmin {... */\n    tag_111:\n        /* \"credits.sol\":1065:1075  msg.sender */\n      caller\n        /* \"credits.sol\":1057:1076  isAdmin[msg.sender] */\n      0x00\n      swap1\n      dup2\n      mstore\n        /* \"credits.sol\":1057:1064  isAdmin */\n      0x01\n        /* \"credits.sol\":1057:1076  isAdmin[msg.sender] */\n      0x20\n      mstore\n      0x40\n      swap1\n      keccak256\n      sload\n      0xff\n      and\n        /* \"credits.sol\":1049:1093  require(isAdmin[msg.sender], \"Not an admin\") */\n      tag_341\n      jumpi\n      mload(0x40)\n      mul(0x461bcd, exp(0x02, 0xe5))\n      dup2\n      mstore\n      0x04\n      add\n      tag_221\n      swap1\n      tag_229\n      jump\t// in\n    tag_341:\n      sub(exp(0x02, 0xa0), 0x01)\n        /* \"credits.sol\":9534:9565  creditTransferRequests[student] */\n      dup3\n      and\n      0x00\n      swap1\n      dup2\n      mstore\n        /* \"credits.sol\":9534:9556  creditTransferRequests */\n      0x09\n        /* \"credits.sol\":9534:9565  creditTransferRequests[student] */\n      0x20\n      mstore\n      0x40\n      swap1\n      keccak256\n        /* \"credits.sol\":9534:9572  creditTransferRequests[student][index] */\n      dup1\n      sload\n        /* \"credits.sol\":9566:9571  index */\n      dup3\n      swap1\n        /* \"credits.sol\":9534:9572  creditTransferRequests[student][index] */\n      dup2\n      lt\n      tag_345\n      jumpi\n      tag_345\n      tag_180\n      jump\t// in\n    tag_345:\n      0x00\n      swap2\n      dup3\n      mstore\n      0x20\n      swap1\n      swap2\n      keccak256\n        /* \"credits.sol\":9534:9583  creditTransferRequests[student][index].isApproved */\n      0x03\n        /* \"credits.sol\":9534:9572  creditTransferRequests[student][index] */\n      0x05\n      swap1\n      swap3\n      mul\n      add\n        /* \"credits.sol\":9534:9583  creditTransferRequests[student][index].isApproved */\n      add\n      sload\n      0xff\n      and\n        /* \"credits.sol\":9533:9583  !creditTransferRequests[student][index].isApproved */\n      iszero\n        /* \"credits.sol\":9525:9613  require(!creditTransferRequests[student][index].isApproved, \"Transfer already approved\") */\n      tag_347\n      jumpi\n      mload(0x40)\n      mul(0x461bcd, exp(0x02, 0xe5))\n      dup2\n      mstore\n        /* \"#utility.yul\":18954:18956   */\n      0x20\n        /* \"credits.sol\":9525:9613  require(!creditTransferRequests[student][index].isApproved, \"Transfer already approved\") */\n      0x04\n      dup3\n      add\n        /* \"#utility.yul\":18936:18957   */\n      mstore\n        /* \"#utility.yul\":18993:18995   */\n      0x19\n        /* \"#utility.yul\":18973:18991   */\n      0x24\n      dup3\n      add\n        /* \"#utility.yul\":18966:18996   */\n      mstore\n        /* \"#utility.yul\":19032:19059   */\n      0x5472616e7366657220616c726561647920617070726f76656400000000000000\n        /* \"#utility.yul\":19012:19030   */\n      0x44\n      dup3\n      add\n        /* \"#utility.yul\":19005:19060   */\n      mstore\n        /* \"#utility.yul\":19077:19095   */\n      0x64\n      add\n        /* \"credits.sol\":9525:9613  require(!creditTransferRequests[student][index].isApproved, \"Transfer already approved\") */\n      tag_221\n        /* \"#utility.yul\":18752:19101   */\n      jump\n        /* \"credits.sol\":9525:9613  require(!creditTransferRequests[student][index].isApproved, \"Transfer already approved\") */\n    tag_347:\n      sub(exp(0x02, 0xa0), 0x01)\n        /* \"credits.sol\":9626:9657  creditTransferRequests[student] */\n      dup3\n      and\n      0x00\n      swap1\n      dup2\n      mstore\n        /* \"credits.sol\":9626:9648  creditTransferRequests */\n      0x09\n        /* \"credits.sol\":9626:9657  creditTransferRequests[student] */\n      0x20\n      mstore\n      0x40\n      swap1\n      keccak256\n        /* \"credits.sol\":9626:9664  creditTransferRequests[student][index] */\n      dup1\n      sload\n        /* \"credits.sol\":9678:9682  true */\n      0x01\n      swap2\n        /* \"credits.sol\":9626:9657  creditTransferRequests[student] */\n      swap1\n        /* \"credits.sol\":9658:9663  index */\n      dup4\n      swap1\n        /* \"credits.sol\":9626:9664  creditTransferRequests[student][index] */\n      dup2\n      lt\n      tag_351\n      jumpi\n      tag_351\n      tag_180\n      jump\t// in\n    tag_351:\n      0x00\n      swap2\n      dup3\n      mstore\n      0x20\n      swap1\n      swap2\n      keccak256\n      0x05\n      swap1\n      swap2\n      mul\n      add\n        /* \"credits.sol\":9626:9675  creditTransferRequests[student][index].isApproved */\n      0x03\n      add\n        /* \"credits.sol\":9626:9682  creditTransferRequests[student][index].isApproved = true */\n      dup1\n      sload\n      not(0xff)\n      and\n      swap2\n      iszero\n      iszero\n      swap2\n      swap1\n      swap2\n      or\n      swap1\n      sstore\n      pop\n      pop\n        /* \"credits.sol\":9433:9686  function approveCreditTransfer(address student, uint index) external onlyAdmin {... */\n      jump\t// out\n        /* \"credits.sol\":636:768  function addAdmin(address _newAdmin)onlyOwner public {... */\n    tag_114:\n        /* \"credits.sol\":957:963  _owner */\n      and(sub(exp(0x02, 0xa0), 0x01), sload(0x00))\n        /* \"credits.sol\":967:977  msg.sender */\n      caller\n        /* \"credits.sol\":957:977  _owner == msg.sender */\n      eq\n        /* \"credits.sol\":949:988  require(_owner == msg.sender, \"!owner\") */\n      tag_354\n      jumpi\n      mload(0x40)\n      mul(0x461bcd, exp(0x02, 0xe5))\n      dup2\n      mstore\n      0x04\n      add\n      tag_221\n      swap1\n      tag_222\n      jump\t// in\n    tag_354:\n      sub(exp(0x02, 0xa0), 0x01)\n        /* \"credits.sol\":700:718  isAdmin[_newAdmin] */\n      dup2\n      and\n      0x00\n      dup2\n      dup2\n      mstore\n        /* \"credits.sol\":719:723  true */\n      0x01\n        /* \"credits.sol\":700:718  isAdmin[_newAdmin] */\n      0x20\n      dup2\n      swap1\n      mstore\n      0x40\n      dup1\n      dup4\n      keccak256\n        /* \"credits.sol\":700:723  isAdmin[_newAdmin]=true */\n      dup1\n      sload\n      not(0xff)\n      and\n      swap1\n      swap3\n      or\n      swap1\n      swap2\n      sstore\n        /* \"credits.sol\":739:760  AdminAdded(_newAdmin) */\n      mload\n      0x44d6d25963f097ad14f29f06854a01f575648a1ef82f30e562ccd3889717e339\n      swap2\n        /* \"credits.sol\":700:718  isAdmin[_newAdmin] */\n      swap1\n        /* \"credits.sol\":739:760  AdminAdded(_newAdmin) */\n      log2\n        /* \"credits.sol\":636:768  function addAdmin(address _newAdmin)onlyOwner public {... */\n      pop\n      jump\t// out\n        /* \"credits.sol\":1121:1269  function renounceOwnership() public virtual onlyOwner {... */\n    tag_116:\n        /* \"credits.sol\":957:963  _owner */\n      and(sub(exp(0x02, 0xa0), 0x01), sload(0x00))\n        /* \"credits.sol\":967:977  msg.sender */\n      caller\n        /* \"credits.sol\":957:977  _owner == msg.sender */\n      eq\n        /* \"credits.sol\":949:988  require(_owner == msg.sender, \"!owner\") */\n      tag_358\n      jumpi\n      mload(0x40)\n      mul(0x461bcd, exp(0x02, 0xe5))\n      dup2\n      mstore\n      0x04\n      add\n      tag_221\n      swap1\n      tag_222\n      jump\t// in\n    tag_358:\n        /* \"credits.sol\":1228:1229  0 */\n      0x00\n        /* \"credits.sol\":1212:1218  _owner */\n      dup1\n      sload\n        /* \"credits.sol\":1191:1231  OwnershipTransferred(_owner, address(0)) */\n      mload(0x40)\n      sub(exp(0x02, 0xa0), 0x01)\n        /* \"credits.sol\":1212:1218  _owner */\n      swap1\n      swap2\n      and\n      swap1\n        /* \"credits.sol\":1191:1231  OwnershipTransferred(_owner, address(0)) */\n      0x8be0079c531659141344cd1fd0a4f28419497f9722a3daafe3b4186f6b6457e0\n      swap1\n        /* \"credits.sol\":1228:1229  0 */\n      dup4\n      swap1\n        /* \"credits.sol\":1191:1231  OwnershipTransferred(_owner, address(0)) */\n      log3\n        /* \"credits.sol\":1259:1260  0 */\n      0x00\n        /* \"credits.sol\":1242:1261  _owner = address(0) */\n      dup1\n      sload\n      not(0xffffffffffffffffffffffffffffffffffffffff)\n      and\n      swap1\n      sstore\n        /* \"credits.sol\":1121:1269  function renounceOwnership() public virtual onlyOwner {... */\n      jump\t// out\n        /* \"credits.sol\":8282:9361  function requestCreditTransfer(uint256 courseId, string memory targetInstitution) external {... */\n    tag_120:\n        /* \"credits.sol\":8407:8417  msg.sender */\n      caller\n        /* \"credits.sol\":8392:8418  studentCredits[msg.sender] */\n      0x00\n      swap1\n      dup2\n      mstore\n        /* \"credits.sol\":8392:8406  studentCredits */\n      0x03\n        /* \"credits.sol\":8392:8418  studentCredits[msg.sender] */\n      0x20\n      dup2\n      dup2\n      mstore\n      0x40\n      dup1\n      dup5\n      keccak256\n        /* \"credits.sol\":8392:8428  studentCredits[msg.sender][courseId] */\n      dup7\n      dup6\n      mstore\n      swap1\n      swap2\n      mstore\n      dup3\n      keccak256\n        /* \"credits.sol\":8392:8438  studentCredits[msg.sender][courseId].issueDate */\n      add\n      sload\n        /* \"credits.sol\":8392:8443  studentCredits[msg.sender][courseId].issueDate != 0 */\n      swap1\n      sub\n        /* \"credits.sol\":8384:8469  require(studentCredits[msg.sender][courseId].issueDate != 0, \"Credit does not exist\") */\n      tag_362\n      jumpi\n      mload(0x40)\n      mul(0x461bcd, exp(0x02, 0xe5))\n      dup2\n      mstore\n      0x04\n      add\n      tag_221\n      swap1\n      tag_233\n      jump\t// in\n    tag_362:\n        /* \"credits.sol\":8504:8514  msg.sender */\n      caller\n        /* \"credits.sol\":8489:8515  studentCredits[msg.sender] */\n      0x00\n      swap1\n      dup2\n      mstore\n        /* \"credits.sol\":8489:8503  studentCredits */\n      0x03\n        /* \"credits.sol\":8489:8515  studentCredits[msg.sender] */\n      0x20\n      swap1\n      dup2\n      mstore\n      0x40\n      dup1\n      dup4\n      keccak256\n        /* \"credits.sol\":8489:8525  studentCredits[msg.sender][courseId] */\n      dup6\n      dup5\n      mstore\n      swap1\n      swap2\n      mstore\n      swap1\n      keccak256\n        /* \"credits.sol\":8489:8535  studentCredits[msg.sender][courseId].isRevoked */\n      0x06\n      add\n      sload\n      0xff\n      and\n        /* \"credits.sol\":8488:8535  !studentCredits[msg.sender][courseId].isRevoked */\n      iszero\n        /* \"credits.sol\":8480:8562  require(!studentCredits[msg.sender][courseId].isRevoked, \"Credit already revoked\") */\n      tag_364\n      jumpi\n      mload(0x40)\n      mul(0x461bcd, exp(0x02, 0xe5))\n      dup2\n      mstore\n      0x04\n      add\n      tag_221\n      swap1\n      tag_239\n      jump\t// in\n    tag_364:\n        /* \"credits.sol\":8610:8620  msg.sender */\n      caller\n        /* \"credits.sol\":8573:8584  uint256 num */\n      0x00\n        /* \"credits.sol\":8190:8221  creditTransferRequests[student] */\n      dup2\n      dup2\n      mstore\n        /* \"credits.sol\":8190:8212  creditTransferRequests */\n      0x09\n        /* \"credits.sol\":8190:8221  creditTransferRequests[student] */\n      0x20\n      swap1\n      dup2\n      mstore\n      0x40\n      dup1\n      dup4\n      keccak256\n        /* \"credits.sol\":8190:8228  creditTransferRequests[student].length */\n      dup1\n      sload\n        /* \"credits.sol\":8672:8908  CreditTransfer({... */\n      dup3\n      mload\n      0xc0\n      dup2\n      add\n      dup5\n      mstore\n      swap6\n      dup7\n      mstore\n      dup6\n      dup5\n      add\n      dup9\n      dup2\n      mstore\n      swap3\n      dup7\n      add\n      dup8\n      dup2\n      mstore\n      0x60\n      dup8\n      add\n      dup7\n      swap1\n      mstore\n      0x80\n      dup8\n      add\n      dup7\n      swap1\n      mstore\n      0xa0\n      dup8\n      add\n      dup3\n      swap1\n      mstore\n      0x01\n        /* \"credits.sol\":8632:8909  creditTransferRequests[msg.sender].push(CreditTransfer({... */\n      dup1\n      dup4\n      add\n      dup5\n      sstore\n      swap3\n      dup7\n      mstore\n      swap4\n      swap1\n      swap5\n      keccak256\n      dup6\n      mload\n      0x05\n      dup7\n      mul\n      swap1\n      swap2\n      add\n      dup1\n      sload\n      not(0xffffffffffffffffffffffffffffffffffffffff)\n      and\n      sub(exp(0x02, 0xa0), 0x01)\n      swap1\n      swap3\n      and\n      swap2\n      swap1\n      swap2\n      or\n      dup2\n      sstore\n      swap2\n      mload\n      swap1\n      dup3\n      add\n      sstore\n      swap1\n      mload\n        /* \"credits.sol\":8190:8228  creditTransferRequests[student].length */\n      swap2\n      swap3\n        /* \"credits.sol\":8672:8908  CreditTransfer({... */\n      swap2\n        /* \"credits.sol\":8632:8909  creditTransferRequests[msg.sender].push(CreditTransfer({... */\n      0x02\n      dup3\n      add\n      swap1\n      tag_368\n      swap1\n      dup3\n      tag_304\n      jump\t// in\n    tag_368:\n      pop\n      0x60\n      dup3\n      add\n      mload\n      0x03\n      dup3\n      add\n      dup1\n      sload\n      0x80\n      dup6\n      add\n      mload\n      iszero\n      iszero\n      0x0100\n      mul\n      not(0xff00)\n      swap4\n      iszero\n      iszero\n      swap4\n      swap1\n      swap4\n      and\n      not(0xffff)\n      swap1\n      swap2\n      and\n      or\n      swap2\n      swap1\n      swap2\n      or\n      swap1\n      sstore\n      0xa0\n      swap1\n      swap2\n      add\n      mload\n      0x04\n      swap1\n      swap2\n      add\n      sstore\n      0x00\n      dup1\n        /* \"credits.sol\":9015:9204  for (uint i = 0; i < studentLists.length; i++) {... */\n    tag_369:\n        /* \"credits.sol\":9036:9048  studentLists */\n      0x0a\n        /* \"credits.sol\":9036:9055  studentLists.length */\n      sload\n        /* \"credits.sol\":9032:9055  i < studentLists.length */\n      dup2\n      lt\n        /* \"credits.sol\":9015:9204  for (uint i = 0; i < studentLists.length; i++) {... */\n      iszero\n      tag_370\n      jumpi\n        /* \"credits.sol\":9100:9110  msg.sender */\n      caller\n      sub(exp(0x02, 0xa0), 0x01)\n        /* \"credits.sol\":9081:9110  studentLists[i] == msg.sender */\n      and\n        /* \"credits.sol\":9081:9093  studentLists */\n      0x0a\n        /* \"credits.sol\":9094:9095  i */\n      dup3\n        /* \"credits.sol\":9081:9096  studentLists[i] */\n      dup2\n      sload\n      dup2\n      lt\n      tag_373\n      jumpi\n      tag_373\n      tag_180\n      jump\t// in\n    tag_373:\n      0x00\n      swap2\n      dup3\n      mstore\n      0x20\n      swap1\n      swap2\n      keccak256\n      add\n      sload\n      sub(exp(0x02, 0xa0), 0x01)\n      and\n        /* \"credits.sol\":9081:9110  studentLists[i] == msg.sender */\n      sub\n        /* \"credits.sol\":9077:9193  if (studentLists[i] == msg.sender) {... */\n      tag_375\n      jumpi\n        /* \"credits.sol\":9149:9153  true */\n      0x01\n        /* \"credits.sol\":9131:9153  isStudentExists = true */\n      swap2\n      pop\n        /* \"credits.sol\":9172:9177  break */\n      jump(tag_370)\n        /* \"credits.sol\":9077:9193  if (studentLists[i] == msg.sender) {... */\n    tag_375:\n        /* \"credits.sol\":9057:9060  i++ */\n      dup1\n      tag_376\n      dup2\n      tag_185\n      jump\t// in\n    tag_376:\n      swap2\n      pop\n      pop\n        /* \"credits.sol\":9015:9204  for (uint i = 0; i < studentLists.length; i++) {... */\n      jump(tag_369)\n    tag_370:\n      pop\n        /* \"credits.sol\":9285:9300  isStudentExists */\n      dup1\n        /* \"credits.sol\":9280:9358  if (!isStudentExists) {... */\n      tag_377\n      jumpi\n        /* \"credits.sol\":9317:9329  studentLists */\n      0x0a\n        /* \"credits.sol\":9317:9346  studentLists.push(msg.sender) */\n      dup1\n      sload\n      0x01\n      dup2\n      add\n      dup3\n      sstore\n      0x00\n      swap2\n      swap1\n      swap2\n      mstore\n      0xc65a7bb8d6351c1cf70c95a316cc6a92839c986682d98bc35f958f4883f9d2a8\n      add\n      dup1\n      sload\n      not(0xffffffffffffffffffffffffffffffffffffffff)\n      and\n        /* \"credits.sol\":9335:9345  msg.sender */\n      caller\n        /* \"credits.sol\":9317:9346  studentLists.push(msg.sender) */\n      or\n      swap1\n      sstore\n        /* \"credits.sol\":9280:9358  if (!isStudentExists) {... */\n    tag_377:\n        /* \"credits.sol\":8373:9361  {... */\n      pop\n      pop\n        /* \"credits.sol\":8282:9361  function requestCreditTransfer(uint256 courseId, string memory targetInstitution) external {... */\n      pop\n      pop\n      jump\t// out\n        /* \"credits.sol\":3901:4091  function getCourseInfo(uint256 courseId)external returns(CourserInfo memory){... */\n    tag_126:\n        /* \"credits.sol\":3958:3976  CourserInfo memory */\n      tag_380\n      mload(0x40)\n      dup1\n      0x80\n      add\n      0x40\n      mstore\n      dup1\n      0x00\n      dup2\n      mstore\n      0x20\n      add\n      0x60\n      dup2\n      mstore\n      0x20\n      add\n      0x00\n      dup2\n      mstore\n      0x20\n      add\n      0x00\n      dup2\n      mstore\n      pop\n      swap1\n      jump\n    tag_380:\n        /* \"credits.sol\":3996:4018  courseExists[courseId] */\n      0x00\n      dup3\n      dup2\n      mstore\n        /* \"credits.sol\":3996:4008  courseExists */\n      0x06\n        /* \"credits.sol\":3996:4018  courseExists[courseId] */\n      0x20\n      mstore\n      0x40\n      swap1\n      keccak256\n        /* \"credits.sol\":3996:4023  courseExists[courseId]=true */\n      dup1\n      sload\n      not(0xff)\n      and\n        /* \"credits.sol\":4019:4023  true */\n      0x01\n        /* \"credits.sol\":3996:4023  courseExists[courseId]=true */\n      or\n      swap1\n      sstore\n        /* \"credits.sol\":4062:4073  courserInfo */\n      0x02\n        /* \"credits.sol\":4062:4083  courserInfo[courseId] */\n      0x00\n        /* \"credits.sol\":4074:4082  courseId */\n      dup4\n        /* \"credits.sol\":4062:4083  courserInfo[courseId] */\n      dup2\n      mstore\n      0x20\n      add\n      swap1\n      dup2\n      mstore\n      0x20\n      add\n      0x00\n      keccak256\n        /* \"credits.sol\":4055:4083  return courserInfo[courseId] */\n      mload(0x40)\n      dup1\n      0x80\n      add\n      0x40\n      mstore\n      swap1\n      dup2\n      0x00\n      dup3\n      add\n      sload\n      dup2\n      mstore\n      0x20\n      add\n      0x01\n      dup3\n      add\n      dup1\n      sload\n      tag_386\n      swap1\n      tag_209\n      jump\t// in\n    tag_386:\n      dup1\n      0x1f\n      add\n      0x20\n      dup1\n      swap2\n      div\n      mul\n      0x20\n      add\n      mload(0x40)\n      swap1\n      dup2\n      add\n      0x40\n      mstore\n      dup1\n      swap3\n      swap2\n      swap1\n      dup2\n      dup2\n      mstore\n      0x20\n      add\n      dup3\n      dup1\n      sload\n      tag_387\n      swap1\n      tag_209\n      jump\t// in\n    tag_387:\n      dup1\n      iszero\n      tag_388\n      jumpi\n      dup1\n      0x1f\n      lt\n      tag_389\n      jumpi\n      0x0100\n      dup1\n      dup4\n      sload\n      div\n      mul\n      dup4\n      mstore\n      swap2\n      0x20\n      add\n      swap2\n      jump(tag_388)\n    tag_389:\n      dup3\n      add\n      swap2\n      swap1\n      0x00\n      mstore\n      keccak256(0x00, 0x20)\n      swap1\n    tag_390:\n      dup2\n      sload\n      dup2\n      mstore\n      swap1\n      0x01\n      add\n      swap1\n      0x20\n      add\n      dup1\n      dup4\n      gt\n      tag_390\n      jumpi\n      dup3\n      swap1\n      sub\n      0x1f\n      and\n      dup3\n      add\n      swap2\n    tag_388:\n      pop\n      pop\n      pop\n      pop\n      pop\n      dup2\n      mstore\n      0x20\n      add\n      0x02\n      dup3\n      add\n      sload\n      dup2\n      mstore\n      0x20\n      add\n      0x03\n      dup3\n      add\n      sload\n      dup2\n      mstore\n      pop\n      pop\n      swap1\n      pop\n        /* \"credits.sol\":3901:4091  function getCourseInfo(uint256 courseId)external returns(CourserInfo memory){... */\n      swap2\n      swap1\n      pop\n      jump\t// out\n        /* \"credits.sol\":10392:10620  function getCreditTransfersOfStudent(address student) external  view returns (CreditTransfer[] memory) {... */\n    tag_131:\n        /* \"credits.sol\":10470:10493  CreditTransfer[] memory */\n      0x60\n      sub(exp(0x02, 0xa0), 0x01)\n        /* \"credits.sol\":10516:10537  student != address(0) */\n      dup3\n      and\n        /* \"credits.sol\":10508:10565  require(student != address(0), \"Invalid student address\") */\n      tag_392\n      jumpi\n      mload(0x40)\n      mul(0x461bcd, exp(0x02, 0xe5))\n      dup2\n      mstore\n        /* \"#utility.yul\":19654:19656   */\n      0x20\n        /* \"credits.sol\":10508:10565  require(student != address(0), \"Invalid student address\") */\n      0x04\n      dup3\n      add\n        /* \"#utility.yul\":19636:19657   */\n      mstore\n        /* \"#utility.yul\":19693:19695   */\n      0x17\n        /* \"#utility.yul\":19673:19691   */\n      0x24\n      dup3\n      add\n        /* \"#utility.yul\":19666:19696   */\n      mstore\n        /* \"#utility.yul\":19732:19757   */\n      0x496e76616c69642073747564656e742061646472657373000000000000000000\n        /* \"#utility.yul\":19712:19730   */\n      0x44\n      dup3\n      add\n        /* \"#utility.yul\":19705:19758   */\n      mstore\n        /* \"#utility.yul\":19775:19793   */\n      0x64\n      add\n        /* \"credits.sol\":10508:10565  require(student != address(0), \"Invalid student address\") */\n      tag_221\n        /* \"#utility.yul\":19452:19799   */\n      jump\n        /* \"credits.sol\":10508:10565  require(student != address(0), \"Invalid student address\") */\n    tag_392:\n      sub(exp(0x02, 0xa0), 0x01)\n        /* \"credits.sol\":10585:10616  creditTransferRequests[student] */\n      dup3\n      and\n      0x00\n      swap1\n      dup2\n      mstore\n        /* \"credits.sol\":10585:10607  creditTransferRequests */\n      0x09\n        /* \"credits.sol\":10585:10616  creditTransferRequests[student] */\n      0x20\n      swap1\n      dup2\n      mstore\n      0x40\n      dup1\n      dup4\n      keccak256\n        /* \"credits.sol\":10578:10616  return creditTransferRequests[student] */\n      dup1\n      sload\n      dup3\n      mload\n      dup2\n      dup6\n      mul\n      dup2\n      add\n      dup6\n      add\n      swap1\n      swap4\n      mstore\n      dup1\n      dup4\n      mstore\n      swap2\n      swap4\n        /* \"credits.sol\":10585:10616  creditTransferRequests[student] */\n      swap1\n      swap3\n        /* \"credits.sol\":10578:10616  return creditTransferRequests[student] */\n      dup5\n      add\n    tag_395:\n      dup3\n      dup3\n      lt\n      iszero\n      tag_396\n      jumpi\n      0x00\n      dup5\n      dup2\n      mstore\n      0x20\n      swap1\n      dup2\n      swap1\n      keccak256\n      0x40\n      dup1\n      mload\n      0xc0\n      dup2\n      add\n      dup3\n      mstore\n      0x05\n      dup7\n      mul\n      swap1\n      swap3\n      add\n      dup1\n      sload\n      sub(exp(0x02, 0xa0), 0x01)\n      and\n      dup4\n      mstore\n      0x01\n      dup2\n      add\n      sload\n      swap4\n      dup4\n      add\n      swap4\n      swap1\n      swap4\n      mstore\n      0x02\n      dup4\n      add\n      dup1\n      sload\n      swap3\n      swap4\n      swap3\n      swap2\n      dup5\n      add\n      swap2\n      tag_398\n      swap1\n      tag_209\n      jump\t// in\n    tag_398:\n      dup1\n      0x1f\n      add\n      0x20\n      dup1\n      swap2\n      div\n      mul\n      0x20\n      add\n      mload(0x40)\n      swap1\n      dup2\n      add\n      0x40\n      mstore\n      dup1\n      swap3\n      swap2\n      swap1\n      dup2\n      dup2\n      mstore\n      0x20\n      add\n      dup3\n      dup1\n      sload\n      tag_399\n      swap1\n      tag_209\n      jump\t// in\n    tag_399:\n      dup1\n      iszero\n      tag_400\n      jumpi\n      dup1\n      0x1f\n      lt\n      tag_401\n      jumpi\n      0x0100\n      dup1\n      dup4\n      sload\n      div\n      mul\n      dup4\n      mstore\n      swap2\n      0x20\n      add\n      swap2\n      jump(tag_400)\n    tag_401:\n      dup3\n      add\n      swap2\n      swap1\n      0x00\n      mstore\n      keccak256(0x00, 0x20)\n      swap1\n    tag_402:\n      dup2\n      sload\n      dup2\n      mstore\n      swap1\n      0x01\n      add\n      swap1\n      0x20\n      add\n      dup1\n      dup4\n      gt\n      tag_402\n      jumpi\n      dup3\n      swap1\n      sub\n      0x1f\n      and\n      dup3\n      add\n      swap2\n    tag_400:\n      pop\n      pop\n      pop\n      swap2\n      dup4\n      mstore\n      pop\n      pop\n      0x03\n      dup3\n      add\n      sload\n      0xff\n      dup1\n      dup3\n      and\n      iszero\n      iszero\n      0x20\n      dup1\n      dup6\n      add\n      swap2\n      swap1\n      swap2\n      mstore\n      0x0100\n      swap1\n      swap3\n      div\n      and\n      iszero\n      iszero\n      0x40\n      dup4\n      add\n      mstore\n      0x04\n      swap1\n      swap3\n      add\n      sload\n      0x60\n      swap1\n      swap2\n      add\n      mstore\n      swap1\n      dup3\n      mstore\n      0x01\n      swap3\n      swap1\n      swap3\n      add\n      swap2\n      add\n      jump(tag_395)\n    tag_396:\n      pop\n      pop\n      pop\n      pop\n      swap1\n      pop\n        /* \"credits.sol\":10392:10620  function getCreditTransfersOfStudent(address student) external  view returns (CreditTransfer[] memory) {... */\n      swap2\n      swap1\n      pop\n      jump\t// out\n        /* \"credits.sol\":2641:2689  mapping (uint256=>CourserInfo)public courserInfo */\n    tag_135:\n      mstore(0x20, 0x02)\n      0x00\n      swap1\n      dup2\n      mstore\n      0x40\n      swap1\n      keccak256\n      dup1\n      sload\n      0x01\n      dup3\n      add\n      dup1\n      sload\n      swap2\n      swap3\n      swap2\n      tag_403\n      swap1\n      tag_209\n      jump\t// in\n    tag_403:\n      dup1\n      0x1f\n      add\n      0x20\n      dup1\n      swap2\n      div\n      mul\n      0x20\n      add\n      mload(0x40)\n      swap1\n      dup2\n      add\n      0x40\n      mstore\n      dup1\n      swap3\n      swap2\n      swap1\n      dup2\n      dup2\n      mstore\n      0x20\n      add\n      dup3\n      dup1\n      sload\n      tag_404\n      swap1\n      tag_209\n      jump\t// in\n    tag_404:\n      dup1\n      iszero\n      tag_405\n      jumpi\n      dup1\n      0x1f\n      lt\n      tag_406\n      jumpi\n      0x0100\n      dup1\n      dup4\n      sload\n      div\n      mul\n      dup4\n      mstore\n      swap2\n      0x20\n      add\n      swap2\n      jump(tag_405)\n    tag_406:\n      dup3\n      add\n      swap2\n      swap1\n      0x00\n      mstore\n      keccak256(0x00, 0x20)\n      swap1\n    tag_407:\n      dup2\n      sload\n      dup2\n      mstore\n      swap1\n      0x01\n      add\n      swap1\n      0x20\n      add\n      dup1\n      dup4\n      gt\n      tag_407\n      jumpi\n      dup3\n      swap1\n      sub\n      0x1f\n      and\n      dup3\n      add\n      swap2\n    tag_405:\n      pop\n      pop\n      pop\n      pop\n      pop\n      swap1\n      dup1\n      0x02\n      add\n      sload\n      swap1\n      dup1\n      0x03\n      add\n      sload\n      swap1\n      pop\n      dup5\n      jump\t// out\n        /* \"credits.sol\":6747:7591  function modifyCredit(address student, uint256 courseId,  uint256 newScore) external  onlyTeacher {... */\n    tag_141:\n        /* \"credits.sol\":3390:3400  msg.sender */\n      caller\n        /* \"credits.sol\":3381:3401  teachers[msg.sender] */\n      0x00\n      swap1\n      dup2\n      mstore\n        /* \"credits.sol\":3381:3389  teachers */\n      0x05\n        /* \"credits.sol\":3381:3401  teachers[msg.sender] */\n      0x20\n      mstore\n      0x40\n      swap1\n      keccak256\n      sload\n      0xff\n      and\n        /* \"credits.sol\":3373:3419  require(teachers[msg.sender], \"Not a teacher\") */\n      tag_409\n      jumpi\n      mload(0x40)\n      mul(0x461bcd, exp(0x02, 0xe5))\n      dup2\n      mstore\n        /* \"#utility.yul\":15387:15389   */\n      0x20\n        /* \"credits.sol\":3373:3419  require(teachers[msg.sender], \"Not a teacher\") */\n      0x04\n      dup3\n      add\n        /* \"#utility.yul\":15369:15390   */\n      mstore\n        /* \"#utility.yul\":15426:15428   */\n      0x0d\n        /* \"#utility.yul\":15406:15424   */\n      0x24\n      dup3\n      add\n        /* \"#utility.yul\":15399:15429   */\n      mstore\n        /* \"#utility.yul\":15465:15480   */\n      0x4e6f742061207465616368657200000000000000000000000000000000000000\n        /* \"#utility.yul\":15445:15463   */\n      0x44\n      dup3\n      add\n        /* \"#utility.yul\":15438:15481   */\n      mstore\n        /* \"#utility.yul\":15498:15516   */\n      0x64\n      add\n        /* \"credits.sol\":3373:3419  require(teachers[msg.sender], \"Not a teacher\") */\n      tag_221\n        /* \"#utility.yul\":15185:15522   */\n      jump\n        /* \"credits.sol\":3373:3419  require(teachers[msg.sender], \"Not a teacher\") */\n    tag_409:\n      sub(exp(0x02, 0xa0), 0x01)\n        /* \"credits.sol\":6864:6887  studentCredits[student] */\n      dup4\n      and\n      0x00\n      swap1\n      dup2\n      mstore\n        /* \"credits.sol\":6864:6878  studentCredits */\n      0x03\n        /* \"credits.sol\":6864:6887  studentCredits[student] */\n      0x20\n      dup2\n      dup2\n      mstore\n      0x40\n      dup1\n      dup5\n      keccak256\n        /* \"credits.sol\":6864:6897  studentCredits[student][courseId] */\n      dup7\n      dup6\n      mstore\n      swap1\n      swap2\n      mstore\n      dup3\n      keccak256\n        /* \"credits.sol\":6864:6907  studentCredits[student][courseId].issueDate */\n      add\n      sload\n        /* \"credits.sol\":6864:6912  studentCredits[student][courseId].issueDate != 0 */\n      swap1\n      sub\n        /* \"credits.sol\":6856:6938  require(studentCredits[student][courseId].issueDate != 0, \"Credit does not exist\") */\n      tag_412\n      jumpi\n      mload(0x40)\n      mul(0x461bcd, exp(0x02, 0xe5))\n      dup2\n      mstore\n      0x04\n      add\n      tag_221\n      swap1\n      tag_233\n      jump\t// in\n    tag_412:\n      sub(exp(0x02, 0xa0), 0x01)\n        /* \"credits.sol\":6959:6978  student!=address(0) */\n      dup4\n      and\n        /* \"credits.sol\":6951:6997  require(student!=address(0),\"Invalid address\") */\n      tag_414\n      jumpi\n      mload(0x40)\n      mul(0x461bcd, exp(0x02, 0xe5))\n      dup2\n      mstore\n      0x04\n      add\n      tag_221\n      swap1\n      tag_246\n      jump\t// in\n    tag_414:\n      sub(exp(0x02, 0xa0), 0x01)\n        /* \"credits.sol\":7076:7099  studentCredits[student] */\n      dup4\n      and\n      0x00\n      swap1\n      dup2\n      mstore\n        /* \"credits.sol\":7076:7090  studentCredits */\n      0x03\n        /* \"credits.sol\":7076:7099  studentCredits[student] */\n      0x20\n      swap1\n      dup2\n      mstore\n      0x40\n      dup1\n      dup4\n      keccak256\n        /* \"credits.sol\":7076:7109  studentCredits[student][courseId] */\n      dup6\n      dup5\n      mstore\n      swap1\n      swap2\n      mstore\n      swap1\n      keccak256\n        /* \"credits.sol\":7076:7119  studentCredits[student][courseId].isRevoked */\n      0x06\n      add\n      sload\n      0xff\n      and\n        /* \"credits.sol\":7075:7119  !studentCredits[student][courseId].isRevoked */\n      iszero\n        /* \"credits.sol\":7067:7146  require(!studentCredits[student][courseId].isRevoked, \"Credit already revoked\") */\n      tag_418\n      jumpi\n      mload(0x40)\n      mul(0x461bcd, exp(0x02, 0xe5))\n      dup2\n      mstore\n      0x04\n      add\n      tag_221\n      swap1\n      tag_239\n      jump\t// in\n    tag_418:\n      sub(exp(0x02, 0xa0), 0x01)\n        /* \"credits.sol\":7171:7194  studentCredits[student] */\n      dup4\n      and\n        /* \"credits.sol\":7159:7170  uint256 num */\n      0x00\n        /* \"credits.sol\":7171:7194  studentCredits[student] */\n      swap1\n      dup2\n      mstore\n        /* \"credits.sol\":7171:7185  studentCredits */\n      0x03\n        /* \"credits.sol\":7171:7194  studentCredits[student] */\n      0x20\n      swap1\n      dup2\n      mstore\n      0x40\n      dup1\n      dup4\n      keccak256\n        /* \"credits.sol\":7171:7204  studentCredits[student][courseId] */\n      dup6\n      dup5\n      mstore\n      swap1\n      swap2\n      mstore\n      dup2\n      keccak256\n        /* \"credits.sol\":7171:7214  studentCredits[student][courseId].modifyNum */\n      0x05\n      add\n      sload\n        /* \"credits.sol\":7171:7216  studentCredits[student][courseId].modifyNum+1 */\n      tag_420\n      swap1\n        /* \"credits.sol\":7215:7216  1 */\n      0x01\n        /* \"credits.sol\":7171:7216  studentCredits[student][courseId].modifyNum+1 */\n      tag_183\n      jump\t// in\n    tag_420:\n        /* \"credits.sol\":7227:7245  uint256 newCredits */\n      0x00\n        /* \"credits.sol\":7255:7276  courserInfo[courseId] */\n      dup5\n      dup2\n      mstore\n        /* \"credits.sol\":7255:7266  courserInfo */\n      0x02\n        /* \"credits.sol\":7255:7276  courserInfo[courseId] */\n      0x20\n      dup2\n      swap1\n      mstore\n      0x40\n      dup3\n      keccak256\n        /* \"credits.sol\":7255:7284  courserInfo[courseId].credits */\n      add\n      sload\n        /* \"credits.sol\":7159:7216  uint256 num=studentCredits[student][courseId].modifyNum+1 */\n      swap2\n      swap3\n      pop\n        /* \"credits.sol\":7227:7245  uint256 newCredits */\n      swap1\n        /* \"credits.sol\":7246:7284  newScore*courserInfo[courseId].credits */\n      tag_421\n      swap1\n        /* \"credits.sol\":7246:7254  newScore */\n      dup5\n        /* \"credits.sol\":7246:7284  newScore*courserInfo[courseId].credits */\n      tag_302\n      jump\t// in\n    tag_421:\n      sub(exp(0x02, 0xa0), 0x01)\n        /* \"credits.sol\":7354:7377  studentCredits[student] */\n      swap6\n      swap1\n      swap6\n      and\n      0x00\n      swap1\n      dup2\n      mstore\n        /* \"credits.sol\":7354:7368  studentCredits */\n      0x03\n        /* \"credits.sol\":7354:7377  studentCredits[student] */\n      0x20\n      swap1\n      dup2\n      mstore\n      0x40\n      dup1\n      dup4\n      keccak256\n        /* \"credits.sol\":7354:7387  studentCredits[student][courseId] */\n      swap7\n      dup4\n      mstore\n      swap6\n      swap1\n      mstore\n      swap4\n      swap1\n      swap4\n      keccak256\n        /* \"credits.sol\":7354:7395  studentCredits[student][courseId].credits */\n      0x01\n      dup1\n      dup3\n      add\n        /* \"credits.sol\":7354:7406  studentCredits[student][courseId].credits=newCredits */\n      swap6\n      swap1\n      swap6\n      sstore\n        /* \"credits.sol\":7417:7460  studentCredits[student][courseId].modifyNum */\n      0x05\n      dup2\n      add\n        /* \"credits.sol\":7417:7464  studentCredits[student][courseId].modifyNum=num */\n      swap2\n      swap1\n      swap2\n      sstore\n        /* \"credits.sol\":7475:7514  studentCredits[student][courseId].score */\n      0x02\n      dup2\n      add\n        /* \"credits.sol\":7475:7523  studentCredits[student][courseId].score=newScore */\n      swap2\n      swap1\n      swap2\n      sstore\n        /* \"credits.sol\":7534:7578  studentCredits[student][courseId].isModified */\n      0x04\n      add\n        /* \"credits.sol\":7534:7583  studentCredits[student][courseId].isModified=true */\n      dup1\n      sload\n      not(0xff)\n      and\n      swap1\n      swap3\n      or\n      swap1\n      swap2\n      sstore\n      pop\n        /* \"credits.sol\":6747:7591  function modifyCredit(address student, uint256 courseId,  uint256 newScore) external  onlyTeacher {... */\n      jump\t// out\n        /* \"credits.sol\":9734:10352  function executeCreditTransfer(address student, uint index) external onlyAdmin{... */\n    tag_144:\n        /* \"credits.sol\":1065:1075  msg.sender */\n      caller\n        /* \"credits.sol\":1057:1076  isAdmin[msg.sender] */\n      0x00\n      swap1\n      dup2\n      mstore\n        /* \"credits.sol\":1057:1064  isAdmin */\n      0x01\n        /* \"credits.sol\":1057:1076  isAdmin[msg.sender] */\n      0x20\n      mstore\n      0x40\n      swap1\n      keccak256\n      sload\n      0xff\n      and\n        /* \"credits.sol\":1049:1093  require(isAdmin[msg.sender], \"Not an admin\") */\n      tag_423\n      jumpi\n      mload(0x40)\n      mul(0x461bcd, exp(0x02, 0xe5))\n      dup2\n      mstore\n      0x04\n      add\n      tag_221\n      swap1\n      tag_229\n      jump\t// in\n    tag_423:\n      sub(exp(0x02, 0xa0), 0x01)\n        /* \"credits.sol\":9831:9862  creditTransferRequests[student] */\n      dup3\n      and\n      0x00\n      swap1\n      dup2\n      mstore\n        /* \"credits.sol\":9831:9853  creditTransferRequests */\n      0x09\n        /* \"credits.sol\":9831:9862  creditTransferRequests[student] */\n      0x20\n      mstore\n      0x40\n      swap1\n      keccak256\n        /* \"credits.sol\":9831:9869  creditTransferRequests[student][index] */\n      dup1\n      sload\n        /* \"credits.sol\":9863:9868  index */\n      dup3\n      swap1\n        /* \"credits.sol\":9831:9869  creditTransferRequests[student][index] */\n      dup2\n      lt\n      tag_427\n      jumpi\n      tag_427\n      tag_180\n      jump\t// in\n    tag_427:\n      0x00\n      swap2\n      dup3\n      mstore\n      0x20\n      swap1\n      swap2\n      keccak256\n        /* \"credits.sol\":9831:9880  creditTransferRequests[student][index].isApproved */\n      0x03\n        /* \"credits.sol\":9831:9869  creditTransferRequests[student][index] */\n      0x05\n      swap1\n      swap3\n      mul\n      add\n        /* \"credits.sol\":9831:9880  creditTransferRequests[student][index].isApproved */\n      add\n      sload\n      0xff\n      and\n        /* \"credits.sol\":9823:9906  require(creditTransferRequests[student][index].isApproved, \"Transfer not approved\") */\n      tag_429\n      jumpi\n      mload(0x40)\n      mul(0x461bcd, exp(0x02, 0xe5))\n      dup2\n      mstore\n        /* \"#utility.yul\":20006:20008   */\n      0x20\n        /* \"credits.sol\":9823:9906  require(creditTransferRequests[student][index].isApproved, \"Transfer not approved\") */\n      0x04\n      dup3\n      add\n        /* \"#utility.yul\":19988:20009   */\n      mstore\n        /* \"#utility.yul\":20045:20047   */\n      0x15\n        /* \"#utility.yul\":20025:20043   */\n      0x24\n      dup3\n      add\n        /* \"#utility.yul\":20018:20048   */\n      mstore\n        /* \"#utility.yul\":20084:20107   */\n      0x5472616e73666572206e6f7420617070726f7665640000000000000000000000\n        /* \"#utility.yul\":20064:20082   */\n      0x44\n      dup3\n      add\n        /* \"#utility.yul\":20057:20108   */\n      mstore\n        /* \"#utility.yul\":20125:20143   */\n      0x64\n      add\n        /* \"credits.sol\":9823:9906  require(creditTransferRequests[student][index].isApproved, \"Transfer not approved\") */\n      tag_221\n        /* \"#utility.yul\":19804:20149   */\n      jump\n        /* \"credits.sol\":9823:9906  require(creditTransferRequests[student][index].isApproved, \"Transfer not approved\") */\n    tag_429:\n      sub(exp(0x02, 0xa0), 0x01)\n        /* \"credits.sol\":9928:9959  creditTransferRequests[student] */\n      dup3\n      and\n      0x00\n      swap1\n      dup2\n      mstore\n        /* \"credits.sol\":9928:9950  creditTransferRequests */\n      0x09\n        /* \"credits.sol\":9928:9959  creditTransferRequests[student] */\n      0x20\n      mstore\n      0x40\n      swap1\n      keccak256\n        /* \"credits.sol\":9928:9966  creditTransferRequests[student][index] */\n      dup1\n      sload\n        /* \"credits.sol\":9960:9965  index */\n      dup3\n      swap1\n        /* \"credits.sol\":9928:9966  creditTransferRequests[student][index] */\n      dup2\n      lt\n      tag_433\n      jumpi\n      tag_433\n      tag_180\n      jump\t// in\n    tag_433:\n      swap1\n      0x00\n      mstore\n      keccak256(0x00, 0x20)\n      swap1\n      0x05\n      mul\n      add\n        /* \"credits.sol\":9928:9977  creditTransferRequests[student][index].isExecuted */\n      0x03\n      add\n      0x01\n      swap1\n      sload\n      swap1\n      0x0100\n      exp\n      swap1\n      div\n      0xff\n      and\n        /* \"credits.sol\":9927:9977  !creditTransferRequests[student][index].isExecuted */\n      iszero\n        /* \"credits.sol\":9919:10007  require(!creditTransferRequests[student][index].isExecuted, \"Transfer already executed\") */\n      tag_435\n      jumpi\n      mload(0x40)\n      mul(0x461bcd, exp(0x02, 0xe5))\n      dup2\n      mstore\n        /* \"#utility.yul\":20356:20358   */\n      0x20\n        /* \"credits.sol\":9919:10007  require(!creditTransferRequests[student][index].isExecuted, \"Transfer already executed\") */\n      0x04\n      dup3\n      add\n        /* \"#utility.yul\":20338:20359   */\n      mstore\n        /* \"#utility.yul\":20395:20397   */\n      0x19\n        /* \"#utility.yul\":20375:20393   */\n      0x24\n      dup3\n      add\n        /* \"#utility.yul\":20368:20398   */\n      mstore\n        /* \"#utility.yul\":20434:20461   */\n      0x5472616e7366657220616c726561647920657865637574656400000000000000\n        /* \"#utility.yul\":20414:20432   */\n      0x44\n      dup3\n      add\n        /* \"#utility.yul\":20407:20462   */\n      mstore\n        /* \"#utility.yul\":20479:20497   */\n      0x64\n      add\n        /* \"credits.sol\":9919:10007  require(!creditTransferRequests[student][index].isExecuted, \"Transfer already executed\") */\n      tag_221\n        /* \"#utility.yul\":20154:20503   */\n      jump\n        /* \"credits.sol\":9919:10007  require(!creditTransferRequests[student][index].isExecuted, \"Transfer already executed\") */\n    tag_435:\n      sub(exp(0x02, 0xa0), 0x01)\n        /* \"credits.sol\":10111:10142  creditTransferRequests[student] */\n      dup3\n      and\n      0x00\n      swap1\n      dup2\n      mstore\n        /* \"credits.sol\":10111:10133  creditTransferRequests */\n      0x09\n        /* \"credits.sol\":10111:10142  creditTransferRequests[student] */\n      0x20\n      mstore\n      0x40\n      swap1\n      keccak256\n        /* \"credits.sol\":10111:10149  creditTransferRequests[student][index] */\n      dup1\n      sload\n        /* \"credits.sol\":10143:10148  index */\n      dup3\n      swap1\n        /* \"credits.sol\":10111:10149  creditTransferRequests[student][index] */\n      dup2\n      lt\n      tag_439\n      jumpi\n      tag_439\n      tag_180\n      jump\t// in\n    tag_439:\n      0x00\n      swap2\n      dup3\n      mstore\n      0x20\n      dup1\n      dup4\n      keccak256\n      sub(exp(0x02, 0xa0), 0x01)\n        /* \"credits.sol\":10020:10043  studentCredits[student] */\n      dup7\n      and\n      dup5\n      mstore\n        /* \"credits.sol\":10020:10034  studentCredits */\n      0x03\n        /* \"credits.sol\":10020:10043  studentCredits[student] */\n      dup3\n      mstore\n      0x40\n      dup1\n      dup6\n      keccak256\n        /* \"credits.sol\":10044:10066  creditTransferRequests */\n      0x09\n        /* \"credits.sol\":10044:10075  creditTransferRequests[student] */\n      swap1\n      swap4\n      mstore\n      dup5\n      keccak256\n        /* \"credits.sol\":10044:10082  creditTransferRequests[student][index] */\n      dup1\n      sload\n        /* \"credits.sol\":10111:10149  creditTransferRequests[student][index] */\n      0x05\n      swap5\n      swap1\n      swap5\n      mul\n      swap1\n      swap2\n      add\n        /* \"credits.sol\":10111:10167  creditTransferRequests[student][index].targetInstitution */\n      0x02\n      add\n      swap4\n        /* \"credits.sol\":10020:10043  studentCredits[student] */\n      swap2\n      swap3\n        /* \"credits.sol\":10076:10081  index */\n      dup6\n      swap1\n        /* \"credits.sol\":10044:10082  creditTransferRequests[student][index] */\n      dup2\n      lt\n      tag_442\n      jumpi\n      tag_442\n      tag_180\n      jump\t// in\n    tag_442:\n      swap1\n      0x00\n      mstore\n      keccak256(0x00, 0x20)\n      swap1\n      0x05\n      mul\n      add\n        /* \"credits.sol\":10044:10091  creditTransferRequests[student][index].courseId */\n      0x01\n      add\n      sload\n        /* \"credits.sol\":10020:10092  studentCredits[student][creditTransferRequests[student][index].courseId] */\n      dup2\n      mstore\n      0x20\n      add\n      swap1\n      dup2\n      mstore\n      0x20\n      add\n      0x00\n      keccak256\n        /* \"credits.sol\":10020:10110  studentCredits[student][creditTransferRequests[student][index].courseId].targetInstitution */\n      0x09\n      add\n        /* \"credits.sol\":10020:10167  studentCredits[student][creditTransferRequests[student][index].courseId].targetInstitution=creditTransferRequests[student][index].targetInstitution */\n      swap1\n      dup2\n      tag_444\n      swap2\n      swap1\n      tag_445\n      jump\t// in\n    tag_444:\n      pop\n      sub(exp(0x02, 0xa0), 0x01)\n        /* \"credits.sol\":10188:10219  creditTransferRequests[student] */\n      dup3\n      and\n      0x00\n      swap1\n      dup2\n      mstore\n        /* \"credits.sol\":10188:10210  creditTransferRequests */\n      0x09\n        /* \"credits.sol\":10188:10219  creditTransferRequests[student] */\n      0x20\n      mstore\n      0x40\n      swap1\n      keccak256\n        /* \"credits.sol\":10188:10226  creditTransferRequests[student][index] */\n      dup1\n      sload\n        /* \"credits.sol\":10240:10244  true */\n      0x01\n      swap2\n        /* \"credits.sol\":10188:10219  creditTransferRequests[student] */\n      swap1\n        /* \"credits.sol\":10220:10225  index */\n      dup4\n      swap1\n        /* \"credits.sol\":10188:10226  creditTransferRequests[student][index] */\n      dup2\n      lt\n      tag_447\n      jumpi\n      tag_447\n      tag_180\n      jump\t// in\n    tag_447:\n      0x00\n      swap2\n      dup3\n      mstore\n      0x20\n      dup1\n      dup4\n      keccak256\n        /* \"credits.sol\":10188:10237  creditTransferRequests[student][index].isExecuted */\n      0x03\n        /* \"credits.sol\":10188:10226  creditTransferRequests[student][index] */\n      0x05\n      swap1\n      swap4\n      mul\n      add\n        /* \"credits.sol\":10188:10237  creditTransferRequests[student][index].isExecuted */\n      dup3\n      add\n        /* \"credits.sol\":10188:10244  creditTransferRequests[student][index].isExecuted = true */\n      dup1\n      sload\n      swap5\n      iszero\n      iszero\n      0x0100\n      mul\n      not(0xff00)\n      swap1\n      swap6\n      and\n      swap5\n      swap1\n      swap5\n      or\n      swap1\n      swap4\n      sstore\n      sub(exp(0x02, 0xa0), 0x01)\n        /* \"credits.sol\":10257:10280  studentCredits[student] */\n      dup6\n      and\n      dup3\n      mstore\n      dup3\n      mstore\n      0x40\n      dup1\n      dup3\n      keccak256\n        /* \"credits.sol\":10281:10303  creditTransferRequests */\n      0x09\n        /* \"credits.sol\":10281:10312  creditTransferRequests[student] */\n      swap1\n      swap4\n      mstore\n      dup2\n      keccak256\n        /* \"credits.sol\":10281:10319  creditTransferRequests[student][index] */\n      dup1\n      sload\n        /* \"credits.sol\":10188:10237  creditTransferRequests[student][index].isExecuted */\n      0x01\n      swap4\n        /* \"credits.sol\":10257:10280  studentCredits[student] */\n      swap3\n        /* \"credits.sol\":10188:10226  creditTransferRequests[student][index] */\n      swap2\n        /* \"credits.sol\":10281:10312  creditTransferRequests[student] */\n      swap1\n        /* \"credits.sol\":10313:10318  index */\n      dup6\n      swap1\n        /* \"credits.sol\":10281:10319  creditTransferRequests[student][index] */\n      dup2\n      lt\n      tag_450\n      jumpi\n      tag_450\n      tag_180\n      jump\t// in\n    tag_450:\n      swap1\n      0x00\n      mstore\n      keccak256(0x00, 0x20)\n      swap1\n      0x05\n      mul\n      add\n        /* \"credits.sol\":10281:10328  creditTransferRequests[student][index].courseId */\n      0x01\n      add\n      sload\n        /* \"credits.sol\":10257:10329  studentCredits[student][creditTransferRequests[student][index].courseId] */\n      dup2\n      mstore\n      0x20\n      add\n      swap1\n      dup2\n      mstore\n      0x20\n      add\n      0x00\n      keccak256\n        /* \"credits.sol\":10257:10343  studentCredits[student][creditTransferRequests[student][index].courseId].isTransferred */\n      0x08\n      add\n      0x00\n        /* \"credits.sol\":10257:10348  studentCredits[student][creditTransferRequests[student][index].courseId].isTransferred=true */\n      0x0100\n      exp\n      dup2\n      sload\n      dup2\n      0xff\n      mul\n      not\n      and\n      swap1\n      dup4\n      iszero\n      iszero\n      mul\n      or\n      swap1\n      sstore\n      pop\n        /* \"credits.sol\":9734:10352  function executeCreditTransfer(address student, uint index) external onlyAdmin{... */\n      pop\n      pop\n      jump\t// out\n        /* \"credits.sol\":3467:3867  function addCourse(uint256 courseId,uint256 credits,string memory courseName)external onlyAdmin{... */\n    tag_148:\n        /* \"credits.sol\":1065:1075  msg.sender */\n      caller\n        /* \"credits.sol\":1057:1076  isAdmin[msg.sender] */\n      0x00\n      swap1\n      dup2\n      mstore\n        /* \"credits.sol\":1057:1064  isAdmin */\n      0x01\n        /* \"credits.sol\":1057:1076  isAdmin[msg.sender] */\n      0x20\n      mstore\n      0x40\n      swap1\n      keccak256\n      sload\n      0xff\n      and\n        /* \"credits.sol\":1049:1093  require(isAdmin[msg.sender], \"Not an admin\") */\n      tag_453\n      jumpi\n      mload(0x40)\n      mul(0x461bcd, exp(0x02, 0xe5))\n      dup2\n      mstore\n      0x04\n      add\n      tag_221\n      swap1\n      tag_229\n      jump\t// in\n    tag_453:\n        /* \"credits.sol\":3582:3604  courseExists[courseId] */\n      0x00\n      dup4\n      dup2\n      mstore\n        /* \"credits.sol\":3582:3594  courseExists */\n      0x06\n        /* \"credits.sol\":3582:3604  courseExists[courseId] */\n      0x20\n      mstore\n      0x40\n      swap1\n      keccak256\n      sload\n      0xff\n      and\n        /* \"credits.sol\":3581:3604  !courseExists[courseId] */\n      iszero\n        /* \"credits.sol\":3573:3629  require(!courseExists[courseId],\"Course already exists\") */\n      tag_456\n      jumpi\n      mload(0x40)\n      mul(0x461bcd, exp(0x02, 0xe5))\n      dup2\n      mstore\n        /* \"#utility.yul\":22157:22159   */\n      0x20\n        /* \"credits.sol\":3573:3629  require(!courseExists[courseId],\"Course already exists\") */\n      0x04\n      dup3\n      add\n        /* \"#utility.yul\":22139:22160   */\n      mstore\n        /* \"#utility.yul\":22196:22198   */\n      0x15\n        /* \"#utility.yul\":22176:22194   */\n      0x24\n      dup3\n      add\n        /* \"#utility.yul\":22169:22199   */\n      mstore\n        /* \"#utility.yul\":22235:22258   */\n      0x436f7572736520616c7265616479206578697374730000000000000000000000\n        /* \"#utility.yul\":22215:22233   */\n      0x44\n      dup3\n      add\n        /* \"#utility.yul\":22208:22259   */\n      mstore\n        /* \"#utility.yul\":22276:22294   */\n      0x64\n      add\n        /* \"credits.sol\":3573:3629  require(!courseExists[courseId],\"Course already exists\") */\n      tag_221\n        /* \"#utility.yul\":21955:22300   */\n      jump\n        /* \"credits.sol\":3573:3629  require(!courseExists[courseId],\"Course already exists\") */\n    tag_456:\n        /* \"credits.sol\":3640:3662  courseExists[courseId] */\n      0x00\n      dup4\n      dup2\n      mstore\n        /* \"credits.sol\":3640:3652  courseExists */\n      0x06\n        /* \"credits.sol\":3640:3662  courseExists[courseId] */\n      0x20\n      swap1\n      dup2\n      mstore\n      0x40\n      dup1\n      dup4\n      keccak256\n        /* \"credits.sol\":3640:3667  courseExists[courseId]=true */\n      dup1\n      sload\n      not(0xff)\n      and\n        /* \"credits.sol\":3663:3667  true */\n      0x01\n        /* \"credits.sol\":3640:3667  courseExists[courseId]=true */\n      swap1\n      dup2\n      or\n      swap1\n      swap2\n      sstore\n        /* \"credits.sol\":3678:3689  courseLists */\n      0x07\n        /* \"credits.sol\":3678:3704  courseLists.push(courseId) */\n      dup1\n      sload\n      dup1\n      dup4\n      add\n      swap1\n      swap2\n      sstore\n      0xa66cc928b5edb82af9bd49922954155ab7b0942694bea4ce44661d9a8736c688\n      add\n      dup8\n      swap1\n      sstore\n        /* \"credits.sol\":3737:3859  CourserInfo(... */\n      dup2\n      mload\n      0x80\n      dup2\n      add\n      dup4\n      mstore\n      dup8\n      dup2\n      mstore\n      dup1\n      dup5\n      add\n      dup7\n      dup2\n      mstore\n      dup2\n      dup5\n      add\n      dup9\n      swap1\n      mstore\n        /* \"credits.sol\":3833:3848  block.timestamp */\n      timestamp\n        /* \"credits.sol\":3737:3859  CourserInfo(... */\n      0x60\n      dup4\n      add\n      mstore\n        /* \"credits.sol\":3715:3736  courserInfo[courseId] */\n      dup9\n      dup7\n      mstore\n        /* \"credits.sol\":3715:3726  courserInfo */\n      0x02\n        /* \"credits.sol\":3715:3736  courserInfo[courseId] */\n      swap1\n      swap5\n      mstore\n      swap2\n      swap1\n      swap4\n      keccak256\n        /* \"credits.sol\":3715:3859  courserInfo[courseId]=CourserInfo(... */\n      dup2\n      mload\n      dup2\n      sstore\n      swap2\n      mload\n        /* \"credits.sol\":3737:3859  CourserInfo(... */\n      swap1\n      swap3\n        /* \"credits.sol\":3715:3859  courserInfo[courseId]=CourserInfo(... */\n      dup3\n      add\n      swap1\n      tag_460\n      swap1\n      dup3\n      tag_304\n      jump\t// in\n    tag_460:\n      pop\n      0x40\n      dup3\n      add\n      mload\n      0x02\n      dup3\n      add\n      sstore\n      0x60\n      swap1\n      swap2\n      add\n      mload\n      0x03\n      swap1\n      swap2\n      add\n      sstore\n      pop\n      pop\n      pop\n        /* \"credits.sol\":3467:3867  function addCourse(uint256 courseId,uint256 credits,string memory courseName)external onlyAdmin{... */\n      jump\t// out\n        /* \"credits.sol\":3037:3065  uint256[]public  courseLists */\n    tag_156:\n      0x07\n      dup2\n      dup2\n      sload\n      dup2\n      lt\n      tag_461\n      jumpi\n      0x00\n      dup1\n      revert\n    tag_461:\n      0x00\n      swap2\n      dup3\n      mstore\n      0x20\n      swap1\n      swap2\n      keccak256\n      add\n      sload\n      swap1\n      pop\n      dup2\n      jump\t// out\n        /* \"credits.sol\":2745:2810  mapping(address => mapping(uint => Credit)) public studentCredits */\n    tag_164:\n      0x03\n      0x20\n      dup2\n      dup2\n      mstore\n      0x00\n      swap4\n      dup5\n      mstore\n      0x40\n      dup1\n      dup6\n      keccak256\n      swap1\n      swap2\n      mstore\n      swap2\n      dup4\n      mstore\n      swap2\n      keccak256\n      dup1\n      sload\n      0x01\n      dup3\n      add\n      sload\n      0x02\n      dup4\n      add\n      sload\n      swap4\n      dup4\n      add\n      sload\n      0x04\n      dup5\n      add\n      sload\n      0x05\n      dup6\n      add\n      sload\n      0x06\n      dup7\n      add\n      sload\n      0x07\n      dup8\n      add\n      dup1\n      sload\n      swap7\n      swap9\n      swap6\n      swap8\n      swap6\n      swap7\n      swap5\n      swap6\n      0xff\n      swap5\n      dup6\n      and\n      swap6\n      swap4\n      swap5\n      swap1\n      swap3\n      and\n      swap3\n      tag_463\n      swap1\n      tag_209\n      jump\t// in\n    tag_463:\n      dup1\n      0x1f\n      add\n      0x20\n      dup1\n      swap2\n      div\n      mul\n      0x20\n      add\n      mload(0x40)\n      swap1\n      dup2\n      add\n      0x40\n      mstore\n      dup1\n      swap3\n      swap2\n      swap1\n      dup2\n      dup2\n      mstore\n      0x20\n      add\n      dup3\n      dup1\n      sload\n      tag_464\n      swap1\n      tag_209\n      jump\t// in\n    tag_464:\n      dup1\n      iszero\n      tag_465\n      jumpi\n      dup1\n      0x1f\n      lt\n      tag_466\n      jumpi\n      0x0100\n      dup1\n      dup4\n      sload\n      div\n      mul\n      dup4\n      mstore\n      swap2\n      0x20\n      add\n      swap2\n      jump(tag_465)\n    tag_466:\n      dup3\n      add\n      swap2\n      swap1\n      0x00\n      mstore\n      keccak256(0x00, 0x20)\n      swap1\n    tag_467:\n      dup2\n      sload\n      dup2\n      mstore\n      swap1\n      0x01\n      add\n      swap1\n      0x20\n      add\n      dup1\n      dup4\n      gt\n      tag_467\n      jumpi\n      dup3\n      swap1\n      sub\n      0x1f\n      and\n      dup3\n      add\n      swap2\n    tag_465:\n      pop\n      pop\n      pop\n      0x08\n      dup5\n      add\n      sload\n      0x09\n      dup6\n      add\n      dup1\n      sload\n      swap5\n      swap6\n      0xff\n      swap1\n      swap3\n      and\n      swap5\n      swap2\n      swap4\n      pop\n      swap2\n      pop\n      tag_468\n      swap1\n      tag_209\n      jump\t// in\n    tag_468:\n      dup1\n      0x1f\n      add\n      0x20\n      dup1\n      swap2\n      div\n      mul\n      0x20\n      add\n      mload(0x40)\n      swap1\n      dup2\n      add\n      0x40\n      mstore\n      dup1\n      swap3\n      swap2\n      swap1\n      dup2\n      dup2\n      mstore\n      0x20\n      add\n      dup3\n      dup1\n      sload\n      tag_469\n      swap1\n      tag_209\n      jump\t// in\n    tag_469:\n      dup1\n      iszero\n      tag_470\n      jumpi\n      dup1\n      0x1f\n      lt\n      tag_471\n      jumpi\n      0x0100\n      dup1\n      dup4\n      sload\n      div\n      mul\n      dup4\n      mstore\n      swap2\n      0x20\n      add\n      swap2\n      jump(tag_470)\n    tag_471:\n      dup3\n      add\n      swap2\n      swap1\n      0x00\n      mstore\n      keccak256(0x00, 0x20)\n      swap1\n    tag_472:\n      dup2\n      sload\n      dup2\n      mstore\n      swap1\n      0x01\n      add\n      swap1\n      0x20\n      add\n      dup1\n      dup4\n      gt\n      tag_472\n      jumpi\n      dup3\n      swap1\n      sub\n      0x1f\n      and\n      dup3\n      add\n      swap2\n    tag_470:\n      pop\n      pop\n      pop\n      pop\n      pop\n      swap1\n      pop\n      dup11\n      jump\t// out\n        /* \"credits.sol\":1277:1491  function transferOwnership(address newOwner) public virtual onlyOwner {... */\n    tag_169:\n        /* \"credits.sol\":957:963  _owner */\n      and(sub(exp(0x02, 0xa0), 0x01), sload(0x00))\n        /* \"credits.sol\":967:977  msg.sender */\n      caller\n        /* \"credits.sol\":957:977  _owner == msg.sender */\n      eq\n        /* \"credits.sol\":949:988  require(_owner == msg.sender, \"!owner\") */\n      tag_474\n      jumpi\n      mload(0x40)\n      mul(0x461bcd, exp(0x02, 0xe5))\n      dup2\n      mstore\n      0x04\n      add\n      tag_221\n      swap1\n      tag_222\n      jump\t// in\n    tag_474:\n      sub(exp(0x02, 0xa0), 0x01)\n        /* \"credits.sol\":1366:1388  newOwner != address(0) */\n      dup2\n      and\n        /* \"credits.sol\":1358:1401  require(newOwner != address(0), \"new is 0\") */\n      tag_477\n      jumpi\n      mload(0x40)\n      mul(0x461bcd, exp(0x02, 0xe5))\n      dup2\n      mstore\n        /* \"#utility.yul\":22507:22509   */\n      0x20\n        /* \"credits.sol\":1358:1401  require(newOwner != address(0), \"new is 0\") */\n      0x04\n      dup3\n      add\n        /* \"#utility.yul\":22489:22510   */\n      mstore\n        /* \"#utility.yul\":22546:22547   */\n      0x08\n        /* \"#utility.yul\":22526:22544   */\n      0x24\n      dup3\n      add\n        /* \"#utility.yul\":22519:22548   */\n      mstore\n        /* \"#utility.yul\":22584:22594   */\n      0x6e65772069732030000000000000000000000000000000000000000000000000\n        /* \"#utility.yul\":22564:22582   */\n      0x44\n      dup3\n      add\n        /* \"#utility.yul\":22557:22595   */\n      mstore\n        /* \"#utility.yul\":22612:22630   */\n      0x64\n      add\n        /* \"credits.sol\":1358:1401  require(newOwner != address(0), \"new is 0\") */\n      tag_221\n        /* \"#utility.yul\":22305:22636   */\n      jump\n        /* \"credits.sol\":1358:1401  require(newOwner != address(0), \"new is 0\") */\n    tag_477:\n        /* \"credits.sol\":1438:1444  _owner */\n      0x00\n      dup1\n      sload\n        /* \"credits.sol\":1417:1455  OwnershipTransferred(_owner, newOwner) */\n      mload(0x40)\n      sub(exp(0x02, 0xa0), 0x01)\n      dup1\n      dup6\n      and\n      swap4\n        /* \"credits.sol\":1438:1444  _owner */\n      swap3\n      and\n      swap2\n        /* \"credits.sol\":1417:1455  OwnershipTransferred(_owner, newOwner) */\n      0x8be0079c531659141344cd1fd0a4f28419497f9722a3daafe3b4186f6b6457e0\n      swap2\n      log3\n        /* \"credits.sol\":1466:1472  _owner */\n      0x00\n        /* \"credits.sol\":1466:1483  _owner = newOwner */\n      dup1\n      sload\n      not(0xffffffffffffffffffffffffffffffffffffffff)\n      and\n      sub(exp(0x02, 0xa0), 0x01)\n      swap3\n      swap1\n      swap3\n      and\n      swap2\n      swap1\n      swap2\n      or\n      swap1\n      sstore\n        /* \"credits.sol\":1277:1491  function transferOwnership(address newOwner) public virtual onlyOwner {... */\n      jump\t// out\n    tag_253:\n      mload(0x40)\n      dup1\n      0x0140\n      add\n      0x40\n      mstore\n      dup1\n      0x00\n      dup2\n      mstore\n      0x20\n      add\n      0x00\n      dup2\n      mstore\n      0x20\n      add\n      0x00\n      dup2\n      mstore\n      0x20\n      add\n      0x00\n      dup2\n      mstore\n      0x20\n      add\n      iszero(iszero(0x00))\n      dup2\n      mstore\n      0x20\n      add\n      0x00\n      dup2\n      mstore\n      0x20\n      add\n      iszero(iszero(0x00))\n      dup2\n      mstore\n      0x20\n      add\n      0x60\n      dup2\n      mstore\n      0x20\n      add\n      iszero(iszero(0x00))\n      dup2\n      mstore\n      0x20\n      add\n      0x60\n      dup2\n      mstore\n      pop\n      swap1\n      jump\t// out\n        /* \"#utility.yul\":14:210   */\n    tag_480:\n        /* \"#utility.yul\":82:102   */\n      dup1\n      calldataload\n      sub(exp(0x02, 0xa0), 0x01)\n        /* \"#utility.yul\":131:185   */\n      dup2\n      and\n        /* \"#utility.yul\":121:186   */\n      dup2\n      eq\n        /* \"#utility.yul\":111:204   */\n      tag_490\n      jumpi\n        /* \"#utility.yul\":200:201   */\n      0x00\n        /* \"#utility.yul\":197:198   */\n      dup1\n        /* \"#utility.yul\":190:202   */\n      revert\n        /* \"#utility.yul\":111:204   */\n    tag_490:\n        /* \"#utility.yul\":14:210   */\n      swap2\n      swap1\n      pop\n      jump\t// out\n        /* \"#utility.yul\":215:401   */\n    tag_44:\n        /* \"#utility.yul\":274:280   */\n      0x00\n        /* \"#utility.yul\":327:329   */\n      0x20\n        /* \"#utility.yul\":315:324   */\n      dup3\n        /* \"#utility.yul\":306:313   */\n      dup5\n        /* \"#utility.yul\":302:325   */\n      sub\n        /* \"#utility.yul\":298:330   */\n      slt\n        /* \"#utility.yul\":295:347   */\n      iszero\n      tag_492\n      jumpi\n        /* \"#utility.yul\":343:344   */\n      0x00\n        /* \"#utility.yul\":340:341   */\n      dup1\n        /* \"#utility.yul\":333:345   */\n      revert\n        /* \"#utility.yul\":295:347   */\n    tag_492:\n        /* \"#utility.yul\":366:395   */\n      tag_493\n        /* \"#utility.yul\":385:394   */\n      dup3\n        /* \"#utility.yul\":366:395   */\n      tag_480\n      jump\t// in\n    tag_493:\n        /* \"#utility.yul\":356:395   */\n      swap4\n        /* \"#utility.yul\":215:401   */\n      swap3\n      pop\n      pop\n      pop\n      jump\t// out\n        /* \"#utility.yul\":588:842   */\n    tag_50:\n        /* \"#utility.yul\":656:662   */\n      0x00\n        /* \"#utility.yul\":664:670   */\n      dup1\n        /* \"#utility.yul\":717:719   */\n      0x40\n        /* \"#utility.yul\":705:714   */\n      dup4\n        /* \"#utility.yul\":696:703   */\n      dup6\n        /* \"#utility.yul\":692:715   */\n      sub\n        /* \"#utility.yul\":688:720   */\n      slt\n        /* \"#utility.yul\":685:737   */\n      iszero\n      tag_496\n      jumpi\n        /* \"#utility.yul\":733:734   */\n      0x00\n        /* \"#utility.yul\":730:731   */\n      dup1\n        /* \"#utility.yul\":723:735   */\n      revert\n        /* \"#utility.yul\":685:737   */\n    tag_496:\n        /* \"#utility.yul\":756:785   */\n      tag_497\n        /* \"#utility.yul\":775:784   */\n      dup4\n        /* \"#utility.yul\":756:785   */\n      tag_480\n      jump\t// in\n    tag_497:\n        /* \"#utility.yul\":746:785   */\n      swap5\n        /* \"#utility.yul\":832:834   */\n      0x20\n        /* \"#utility.yul\":817:835   */\n      swap4\n      swap1\n      swap4\n      add\n        /* \"#utility.yul\":804:836   */\n      calldataload\n      swap4\n      pop\n      pop\n      pop\n        /* \"#utility.yul\":588:842   */\n      jump\t// out\n        /* \"#utility.yul\":1135:1558   */\n    tag_482:\n        /* \"#utility.yul\":1177:1180   */\n      0x00\n        /* \"#utility.yul\":1215:1220   */\n      dup2\n        /* \"#utility.yul\":1209:1221   */\n      mload\n        /* \"#utility.yul\":1242:1248   */\n      dup1\n        /* \"#utility.yul\":1237:1240   */\n      dup5\n        /* \"#utility.yul\":1230:1249   */\n      mstore\n        /* \"#utility.yul\":1267:1268   */\n      0x00\n        /* \"#utility.yul\":1277:1439   */\n    tag_501:\n        /* \"#utility.yul\":1291:1297   */\n      dup2\n        /* \"#utility.yul\":1288:1289   */\n      dup2\n        /* \"#utility.yul\":1285:1298   */\n      lt\n        /* \"#utility.yul\":1277:1439   */\n      iszero\n      tag_503\n      jumpi\n        /* \"#utility.yul\":1353:1357   */\n      0x20\n        /* \"#utility.yul\":1409:1422   */\n      dup2\n      dup6\n      add\n        /* \"#utility.yul\":1405:1427   */\n      dup2\n      add\n        /* \"#utility.yul\":1399:1428   */\n      mload\n        /* \"#utility.yul\":1381:1392   */\n      dup7\n      dup4\n      add\n        /* \"#utility.yul\":1377:1397   */\n      dup3\n      add\n        /* \"#utility.yul\":1370:1429   */\n      mstore\n        /* \"#utility.yul\":1306:1318   */\n      add\n        /* \"#utility.yul\":1277:1439   */\n      jump(tag_501)\n    tag_503:\n        /* \"#utility.yul\":1281:1284   */\n      pop\n        /* \"#utility.yul\":1484:1485   */\n      0x00\n        /* \"#utility.yul\":1477:1481   */\n      0x20\n        /* \"#utility.yul\":1468:1474   */\n      dup3\n        /* \"#utility.yul\":1463:1466   */\n      dup7\n        /* \"#utility.yul\":1459:1475   */\n      add\n        /* \"#utility.yul\":1455:1482   */\n      add\n        /* \"#utility.yul\":1448:1486   */\n      mstore\n        /* \"#utility.yul\":1547:1551   */\n      0x20\n        /* \"#utility.yul\":1540:1542   */\n      0x1f\n        /* \"#utility.yul\":1536:1543   */\n      not\n        /* \"#utility.yul\":1531:1533   */\n      0x1f\n        /* \"#utility.yul\":1523:1529   */\n      dup4\n        /* \"#utility.yul\":1519:1534   */\n      add\n        /* \"#utility.yul\":1515:1544   */\n      and\n        /* \"#utility.yul\":1510:1513   */\n      dup6\n        /* \"#utility.yul\":1506:1545   */\n      add\n        /* \"#utility.yul\":1502:1552   */\n      add\n        /* \"#utility.yul\":1495:1552   */\n      swap2\n      pop\n      pop\n        /* \"#utility.yul\":1135:1558   */\n      swap3\n      swap2\n      pop\n      pop\n      jump\t// out\n        /* \"#utility.yul\":1563:3049   */\n    tag_61:\n        /* \"#utility.yul\":1796:1798   */\n      0x20\n        /* \"#utility.yul\":1848:1869   */\n      dup1\n      dup3\n      mstore\n        /* \"#utility.yul\":1918:1931   */\n      dup3\n      mload\n        /* \"#utility.yul\":1821:1839   */\n      dup3\n      dup3\n      add\n        /* \"#utility.yul\":1940:1962   */\n      dup2\n      swap1\n      mstore\n        /* \"#utility.yul\":1767:1771   */\n      0x00\n      swap2\n        /* \"#utility.yul\":1796:1798   */\n      swap1\n        /* \"#utility.yul\":1981:1983   */\n      0x40\n      swap1\n        /* \"#utility.yul\":1999:2017   */\n      dup2\n      dup6\n      add\n      swap1\n        /* \"#utility.yul\":2059:2074   */\n      dup1\n      dup5\n      mul\n        /* \"#utility.yul\":2044:2075   */\n      dup7\n      add\n        /* \"#utility.yul\":2040:2080   */\n      dup4\n      add\n        /* \"#utility.yul\":2103:2118   */\n      dup8\n      dup6\n      add\n        /* \"#utility.yul\":1767:1771   */\n      dup7\n        /* \"#utility.yul\":2146:3020   */\n    tag_505:\n        /* \"#utility.yul\":2160:2166   */\n      dup4\n        /* \"#utility.yul\":2157:2158   */\n      dup2\n        /* \"#utility.yul\":2154:2167   */\n      lt\n        /* \"#utility.yul\":2146:3020   */\n      iszero\n      tag_507\n      jumpi\n        /* \"#utility.yul\":2253:2255   */\n      0x3f\n        /* \"#utility.yul\":2249:2256   */\n      not\n        /* \"#utility.yul\":2237:2246   */\n      dup10\n        /* \"#utility.yul\":2229:2235   */\n      dup5\n        /* \"#utility.yul\":2225:2247   */\n      sub\n        /* \"#utility.yul\":2221:2257   */\n      add\n        /* \"#utility.yul\":2216:2219   */\n      dup6\n        /* \"#utility.yul\":2209:2258   */\n      mstore\n        /* \"#utility.yul\":2287:2293   */\n      dup2\n        /* \"#utility.yul\":2281:2294   */\n      mload\n        /* \"#utility.yul\":2317:2321   */\n      0xc0\n      sub(exp(0x02, 0xa0), 0x01)\n        /* \"#utility.yul\":2359:2361   */\n      dup3\n        /* \"#utility.yul\":2353:2362   */\n      mload\n        /* \"#utility.yul\":2349:2407   */\n      and\n        /* \"#utility.yul\":2341:2347   */\n      dup6\n        /* \"#utility.yul\":2334:2408   */\n      mstore\n        /* \"#utility.yul\":2459:2461   */\n      dup9\n        /* \"#utility.yul\":2455:2457   */\n      dup3\n        /* \"#utility.yul\":2451:2462   */\n      add\n        /* \"#utility.yul\":2445:2463   */\n      mload\n        /* \"#utility.yul\":2440:2442   */\n      dup10\n        /* \"#utility.yul\":2432:2438   */\n      dup7\n        /* \"#utility.yul\":2428:2443   */\n      add\n        /* \"#utility.yul\":2421:2464   */\n      mstore\n        /* \"#utility.yul\":2511:2513   */\n      dup8\n        /* \"#utility.yul\":2507:2509   */\n      dup3\n        /* \"#utility.yul\":2503:2514   */\n      add\n        /* \"#utility.yul\":2497:2515   */\n      mload\n        /* \"#utility.yul\":2552:2554   */\n      dup2\n        /* \"#utility.yul\":2547:2549   */\n      dup10\n        /* \"#utility.yul\":2539:2545   */\n      dup8\n        /* \"#utility.yul\":2535:2550   */\n      add\n        /* \"#utility.yul\":2528:2555   */\n      mstore\n        /* \"#utility.yul\":2582:2630   */\n      tag_508\n        /* \"#utility.yul\":2626:2628   */\n      dup3\n        /* \"#utility.yul\":2618:2624   */\n      dup8\n        /* \"#utility.yul\":2614:2629   */\n      add\n        /* \"#utility.yul\":2600:2612   */\n      dup3\n        /* \"#utility.yul\":2582:2630   */\n      tag_482\n      jump\t// in\n    tag_508:\n        /* \"#utility.yul\":2653:2657   */\n      0x60\n        /* \"#utility.yul\":2714:2725   */\n      dup5\n      dup2\n      add\n        /* \"#utility.yul\":2708:2726   */\n      mload\n        /* \"#utility.yul\":2701:2727   */\n      iszero\n        /* \"#utility.yul\":2694:2728   */\n      iszero\n        /* \"#utility.yul\":2677:2692   */\n      swap1\n      dup9\n      add\n        /* \"#utility.yul\":2670:2729   */\n      mstore\n        /* \"#utility.yul\":2752:2756   */\n      0x80\n        /* \"#utility.yul\":2813:2824   */\n      dup1\n      dup6\n      add\n        /* \"#utility.yul\":2807:2825   */\n      mload\n        /* \"#utility.yul\":2800:2826   */\n      iszero\n        /* \"#utility.yul\":2793:2827   */\n      iszero\n        /* \"#utility.yul\":2776:2791   */\n      swap1\n      dup9\n      add\n        /* \"#utility.yul\":2769:2828   */\n      mstore\n        /* \"#utility.yul\":2851:2855   */\n      0xa0\n        /* \"#utility.yul\":2898:2909   */\n      swap4\n      dup5\n      add\n        /* \"#utility.yul\":2892:2910   */\n      mload\n        /* \"#utility.yul\":2875:2890   */\n      swap4\n      swap1\n      swap7\n      add\n        /* \"#utility.yul\":2868:2911   */\n      swap3\n      swap1\n      swap3\n      mstore\n      pop\n      pop\n        /* \"#utility.yul\":2998:3010   */\n      swap4\n      dup7\n      add\n      swap4\n        /* \"#utility.yul\":2963:2978   */\n      swap1\n      dup7\n      add\n      swap1\n        /* \"#utility.yul\":2182:2183   */\n      0x01\n        /* \"#utility.yul\":2175:2184   */\n      add\n        /* \"#utility.yul\":2146:3020   */\n      jump(tag_505)\n    tag_507:\n      pop\n        /* \"#utility.yul\":3037:3043   */\n      swap1\n      swap9\n        /* \"#utility.yul\":1563:3049   */\n      swap8\n      pop\n      pop\n      pop\n      pop\n      pop\n      pop\n      pop\n      pop\n      jump\t// out\n        /* \"#utility.yul\":3054:3234   */\n    tag_71:\n        /* \"#utility.yul\":3113:3119   */\n      0x00\n        /* \"#utility.yul\":3166:3168   */\n      0x20\n        /* \"#utility.yul\":3154:3163   */\n      dup3\n        /* \"#utility.yul\":3145:3152   */\n      dup5\n        /* \"#utility.yul\":3141:3164   */\n      sub\n        /* \"#utility.yul\":3137:3169   */\n      slt\n        /* \"#utility.yul\":3134:3186   */\n      iszero\n      tag_510\n      jumpi\n        /* \"#utility.yul\":3182:3183   */\n      0x00\n        /* \"#utility.yul\":3179:3180   */\n      dup1\n        /* \"#utility.yul\":3172:3184   */\n      revert\n        /* \"#utility.yul\":3134:3186   */\n    tag_510:\n      pop\n        /* \"#utility.yul\":3205:3228   */\n      calldataload\n      swap2\n        /* \"#utility.yul\":3054:3234   */\n      swap1\n      pop\n      jump\t// out\n        /* \"#utility.yul\":3470:5466   */\n    tag_84:\n        /* \"#utility.yul\":3687:3689   */\n      0x20\n        /* \"#utility.yul\":3739:3760   */\n      dup1\n      dup3\n      mstore\n        /* \"#utility.yul\":3809:3822   */\n      dup3\n      mload\n        /* \"#utility.yul\":3712:3730   */\n      dup3\n      dup3\n      add\n        /* \"#utility.yul\":3831:3853   */\n      dup2\n      swap1\n      mstore\n        /* \"#utility.yul\":3658:3662   */\n      0x00\n      swap2\n        /* \"#utility.yul\":3687:3689   */\n      swap1\n        /* \"#utility.yul\":3872:3874   */\n      0x40\n      swap1\n        /* \"#utility.yul\":3890:3908   */\n      dup2\n      dup6\n      add\n      swap1\n        /* \"#utility.yul\":3950:3965   */\n      dup1\n      dup5\n      mul\n        /* \"#utility.yul\":3935:3966   */\n      dup7\n      add\n        /* \"#utility.yul\":3931:3971   */\n      dup4\n      add\n        /* \"#utility.yul\":3994:4009   */\n      dup8\n      dup6\n      add\n        /* \"#utility.yul\":3658:3662   */\n      dup7\n        /* \"#utility.yul\":4037:5437   */\n    tag_513:\n        /* \"#utility.yul\":4051:4057   */\n      dup4\n        /* \"#utility.yul\":4048:4049   */\n      dup2\n        /* \"#utility.yul\":4045:4058   */\n      lt\n        /* \"#utility.yul\":4037:5437   */\n      iszero\n      tag_507\n      jumpi\n      not(0x3f)\n        /* \"#utility.yul\":4116:4138   */\n      dup10\n      dup5\n      sub\n        /* \"#utility.yul\":4112:4148   */\n      add\n        /* \"#utility.yul\":4100:4149   */\n      dup6\n      mstore\n        /* \"#utility.yul\":4172:4185   */\n      dup2\n      mload\n        /* \"#utility.yul\":4242:4251   */\n      dup1\n      mload\n        /* \"#utility.yul\":4227:4252   */\n      dup5\n      mstore\n        /* \"#utility.yul\":4295:4306   */\n      dup8\n      dup2\n      add\n        /* \"#utility.yul\":4289:4307   */\n      mload\n        /* \"#utility.yul\":4272:4287   */\n      dup9\n      dup6\n      add\n        /* \"#utility.yul\":4265:4308   */\n      mstore\n        /* \"#utility.yul\":4351:4362   */\n      dup7\n      dup2\n      add\n        /* \"#utility.yul\":4345:4363   */\n      mload\n        /* \"#utility.yul\":4328:4343   */\n      dup8\n      dup6\n      add\n        /* \"#utility.yul\":4321:4364   */\n      mstore\n        /* \"#utility.yul\":4387:4391   */\n      0x60\n        /* \"#utility.yul\":4434:4445   */\n      dup1\n      dup3\n      add\n        /* \"#utility.yul\":4428:4446   */\n      mload\n        /* \"#utility.yul\":4411:4426   */\n      swap1\n      dup6\n      add\n        /* \"#utility.yul\":4404:4447   */\n      mstore\n        /* \"#utility.yul\":4470:4474   */\n      0x80\n        /* \"#utility.yul\":4513:4524   */\n      dup1\n      dup3\n      add\n        /* \"#utility.yul\":4507:4525   */\n      mload\n        /* \"#utility.yul\":917:930   */\n      iszero\n        /* \"#utility.yul\":910:931   */\n      iszero\n        /* \"#utility.yul\":4568:4583   */\n      swap1\n      dup6\n      add\n        /* \"#utility.yul\":898:932   */\n      mstore\n        /* \"#utility.yul\":4607:4611   */\n      0xa0\n        /* \"#utility.yul\":4654:4665   */\n      dup1\n      dup3\n      add\n        /* \"#utility.yul\":4648:4666   */\n      mload\n        /* \"#utility.yul\":4631:4646   */\n      swap1\n      dup6\n      add\n        /* \"#utility.yul\":4624:4667   */\n      mstore\n        /* \"#utility.yul\":4690:4694   */\n      0xc0\n        /* \"#utility.yul\":4735:4746   */\n      dup1\n      dup3\n      add\n        /* \"#utility.yul\":4729:4747   */\n      mload\n        /* \"#utility.yul\":917:930   */\n      iszero\n        /* \"#utility.yul\":910:931   */\n      iszero\n        /* \"#utility.yul\":4792:4807   */\n      swap1\n      dup6\n      add\n        /* \"#utility.yul\":898:932   */\n      mstore\n        /* \"#utility.yul\":4831:4835   */\n      0xe0\n        /* \"#utility.yul\":4876:4887   */\n      dup1\n      dup3\n      add\n        /* \"#utility.yul\":4870:4888   */\n      mload\n        /* \"#utility.yul\":4208:4214   */\n      0x0140\n        /* \"#utility.yul\":4908:4923   */\n      dup3\n      dup8\n      add\n        /* \"#utility.yul\":4901:4928   */\n      dup2\n      swap1\n      mstore\n        /* \"#utility.yul\":4208:4214   */\n      swap2\n        /* \"#utility.yul\":4831:4835   */\n      swap1\n        /* \"#utility.yul\":4955:5005   */\n      tag_518\n        /* \"#utility.yul\":4989:5004   */\n      dup4\n      dup9\n      add\n        /* \"#utility.yul\":4870:4888   */\n      dup3\n        /* \"#utility.yul\":4955:5005   */\n      tag_482\n      jump\t// in\n    tag_518:\n        /* \"#utility.yul\":4941:5005   */\n      swap3\n      pop\n      pop\n      pop\n        /* \"#utility.yul\":5029:5035   */\n      0x0100\n        /* \"#utility.yul\":5084:5087   */\n      dup1\n        /* \"#utility.yul\":5080:5082   */\n      dup4\n        /* \"#utility.yul\":5076:5088   */\n      add\n        /* \"#utility.yul\":5070:5089   */\n      mload\n        /* \"#utility.yul\":5102:5151   */\n      tag_519\n        /* \"#utility.yul\":5146:5149   */\n      dup3\n        /* \"#utility.yul\":5138:5144   */\n      dup9\n        /* \"#utility.yul\":5134:5150   */\n      add\n        /* \"#utility.yul\":5118:5132   */\n      dup3\n        /* \"#utility.yul\":917:930   */\n      iszero\n        /* \"#utility.yul\":910:931   */\n      iszero\n        /* \"#utility.yul\":898:932   */\n      swap1\n      mstore\n        /* \"#utility.yul\":847:938   */\n      jump\n        /* \"#utility.yul\":5102:5151   */\n    tag_519:\n      pop\n      pop\n        /* \"#utility.yul\":5175:5181   */\n      0x0120\n        /* \"#utility.yul\":5230:5233   */\n      dup1\n        /* \"#utility.yul\":5226:5228   */\n      dup4\n        /* \"#utility.yul\":5222:5234   */\n      add\n        /* \"#utility.yul\":5216:5235   */\n      mload\n        /* \"#utility.yul\":5194:5235   */\n      swap3\n      pop\n        /* \"#utility.yul\":5285:5291   */\n      dup6\n        /* \"#utility.yul\":5277:5283   */\n      dup3\n        /* \"#utility.yul\":5273:5292   */\n      sub\n        /* \"#utility.yul\":5267:5270   */\n      dup2\n        /* \"#utility.yul\":5259:5265   */\n      dup8\n        /* \"#utility.yul\":5255:5271   */\n      add\n        /* \"#utility.yul\":5248:5293   */\n      mstore\n      pop\n        /* \"#utility.yul\":5316:5357   */\n      tag_520\n        /* \"#utility.yul\":5350:5356   */\n      dup2\n        /* \"#utility.yul\":5334:5348   */\n      dup4\n        /* \"#utility.yul\":5316:5357   */\n      tag_482\n      jump\t// in\n    tag_520:\n        /* \"#utility.yul\":5415:5427   */\n      swap7\n      dup10\n      add\n      swap7\n        /* \"#utility.yul\":5306:5357   */\n      swap5\n      pop\n      pop\n      pop\n        /* \"#utility.yul\":5380:5395   */\n      swap1\n      dup7\n      add\n      swap1\n        /* \"#utility.yul\":4073:4074   */\n      0x01\n        /* \"#utility.yul\":4066:4075   */\n      add\n        /* \"#utility.yul\":4037:5437   */\n      jump(tag_513)\n        /* \"#utility.yul\":5471:6119   */\n    tag_89:\n      sub(exp(0x02, 0xa0), 0x01)\n        /* \"#utility.yul\":5752:5758   */\n      dup8\n        /* \"#utility.yul\":5748:5803   */\n      and\n        /* \"#utility.yul\":5737:5746   */\n      dup2\n        /* \"#utility.yul\":5730:5804   */\n      mstore\n        /* \"#utility.yul\":5840:5846   */\n      dup6\n        /* \"#utility.yul\":5835:5837   */\n      0x20\n        /* \"#utility.yul\":5824:5833   */\n      dup3\n        /* \"#utility.yul\":5820:5838   */\n      add\n        /* \"#utility.yul\":5813:5847   */\n      mstore\n        /* \"#utility.yul\":5883:5886   */\n      0xc0\n        /* \"#utility.yul\":5878:5880   */\n      0x40\n        /* \"#utility.yul\":5867:5876   */\n      dup3\n        /* \"#utility.yul\":5863:5881   */\n      add\n        /* \"#utility.yul\":5856:5887   */\n      mstore\n        /* \"#utility.yul\":5711:5715   */\n      0x00\n        /* \"#utility.yul\":5904:5950   */\n      tag_522\n        /* \"#utility.yul\":5945:5948   */\n      0xc0\n        /* \"#utility.yul\":5934:5943   */\n      dup4\n        /* \"#utility.yul\":5930:5949   */\n      add\n        /* \"#utility.yul\":5922:5928   */\n      dup8\n        /* \"#utility.yul\":5904:5950   */\n      tag_482\n      jump\t// in\n    tag_522:\n        /* \"#utility.yul\":5993:6007   */\n      swap5\n      iszero\n        /* \"#utility.yul\":5986:6008   */\n      iszero\n        /* \"#utility.yul\":5981:5983   */\n      0x60\n        /* \"#utility.yul\":5966:5984   */\n      dup4\n      add\n        /* \"#utility.yul\":5959:6009   */\n      mstore\n      pop\n        /* \"#utility.yul\":6053:6067   */\n      swap2\n      iszero\n        /* \"#utility.yul\":6046:6068   */\n      iszero\n        /* \"#utility.yul\":6040:6043   */\n      0x80\n        /* \"#utility.yul\":6025:6044   */\n      dup4\n      add\n        /* \"#utility.yul\":6018:6069   */\n      mstore\n        /* \"#utility.yul\":6100:6103   */\n      0xa0\n        /* \"#utility.yul\":6085:6104   */\n      swap1\n      swap2\n      add\n        /* \"#utility.yul\":6078:6113   */\n      mstore\n        /* \"#utility.yul\":5896:5950   */\n      swap4\n        /* \"#utility.yul\":5471:6119   */\n      swap3\n      pop\n      pop\n      pop\n      jump\t// out\n        /* \"#utility.yul\":6124:6308   */\n    tag_188:\n      mul(0x4e487b71, exp(0x02, 0xe0))\n        /* \"#utility.yul\":6173:6174   */\n      0x00\n        /* \"#utility.yul\":6166:6254   */\n      mstore\n        /* \"#utility.yul\":6273:6277   */\n      0x41\n        /* \"#utility.yul\":6270:6271   */\n      0x04\n        /* \"#utility.yul\":6263:6278   */\n      mstore\n        /* \"#utility.yul\":6297:6301   */\n      0x24\n        /* \"#utility.yul\":6294:6295   */\n      0x00\n        /* \"#utility.yul\":6287:6302   */\n      revert\n        /* \"#utility.yul\":6313:7032   */\n    tag_483:\n        /* \"#utility.yul\":6356:6361   */\n      0x00\n        /* \"#utility.yul\":6409:6412   */\n      dup3\n        /* \"#utility.yul\":6402:6406   */\n      0x1f\n        /* \"#utility.yul\":6394:6400   */\n      dup4\n        /* \"#utility.yul\":6390:6407   */\n      add\n        /* \"#utility.yul\":6386:6413   */\n      slt\n        /* \"#utility.yul\":6376:6431   */\n      tag_525\n      jumpi\n        /* \"#utility.yul\":6427:6428   */\n      0x00\n        /* \"#utility.yul\":6424:6425   */\n      dup1\n        /* \"#utility.yul\":6417:6429   */\n      revert\n        /* \"#utility.yul\":6376:6431   */\n    tag_525:\n        /* \"#utility.yul\":6463:6469   */\n      dup2\n        /* \"#utility.yul\":6450:6470   */\n      calldataload\n        /* \"#utility.yul\":6489:6507   */\n      0xffffffffffffffff\n        /* \"#utility.yul\":6526:6528   */\n      dup1\n        /* \"#utility.yul\":6522:6524   */\n      dup3\n        /* \"#utility.yul\":6519:6529   */\n      gt\n        /* \"#utility.yul\":6516:6552   */\n      iszero\n      tag_527\n      jumpi\n        /* \"#utility.yul\":6532:6550   */\n      tag_527\n      tag_188\n      jump\t// in\n    tag_527:\n        /* \"#utility.yul\":6607:6609   */\n      0x40\n        /* \"#utility.yul\":6601:6610   */\n      mload\n        /* \"#utility.yul\":6575:6577   */\n      0x1f\n        /* \"#utility.yul\":6661:6674   */\n      dup4\n      add\n      not(0x1f)\n        /* \"#utility.yul\":6657:6679   */\n      swap1\n      dup2\n      and\n        /* \"#utility.yul\":6681:6683   */\n      0x3f\n        /* \"#utility.yul\":6653:6684   */\n      add\n        /* \"#utility.yul\":6649:6689   */\n      and\n        /* \"#utility.yul\":6637:6690   */\n      dup2\n      add\n      swap1\n        /* \"#utility.yul\":6705:6723   */\n      dup3\n      dup3\n      gt\n        /* \"#utility.yul\":6725:6747   */\n      dup2\n      dup4\n      lt\n        /* \"#utility.yul\":6702:6748   */\n      or\n        /* \"#utility.yul\":6699:6771   */\n      iszero\n      tag_529\n      jumpi\n        /* \"#utility.yul\":6751:6769   */\n      tag_529\n      tag_188\n      jump\t// in\n    tag_529:\n        /* \"#utility.yul\":6791:6801   */\n      dup2\n        /* \"#utility.yul\":6787:6789   */\n      0x40\n        /* \"#utility.yul\":6780:6802   */\n      mstore\n        /* \"#utility.yul\":6826:6828   */\n      dup4\n        /* \"#utility.yul\":6818:6824   */\n      dup2\n        /* \"#utility.yul\":6811:6829   */\n      mstore\n        /* \"#utility.yul\":6872:6875   */\n      dup7\n        /* \"#utility.yul\":6865:6869   */\n      0x20\n        /* \"#utility.yul\":6860:6862   */\n      dup6\n        /* \"#utility.yul\":6852:6858   */\n      dup9\n        /* \"#utility.yul\":6848:6863   */\n      add\n        /* \"#utility.yul\":6844:6870   */\n      add\n        /* \"#utility.yul\":6841:6876   */\n      gt\n        /* \"#utility.yul\":6838:6893   */\n      iszero\n      tag_530\n      jumpi\n        /* \"#utility.yul\":6889:6890   */\n      0x00\n        /* \"#utility.yul\":6886:6887   */\n      dup1\n        /* \"#utility.yul\":6879:6891   */\n      revert\n        /* \"#utility.yul\":6838:6893   */\n    tag_530:\n        /* \"#utility.yul\":6953:6955   */\n      dup4\n        /* \"#utility.yul\":6946:6950   */\n      0x20\n        /* \"#utility.yul\":6938:6944   */\n      dup8\n        /* \"#utility.yul\":6934:6951   */\n      add\n        /* \"#utility.yul\":6927:6931   */\n      0x20\n        /* \"#utility.yul\":6919:6925   */\n      dup4\n        /* \"#utility.yul\":6915:6932   */\n      add\n        /* \"#utility.yul\":6902:6956   */\n      calldatacopy\n        /* \"#utility.yul\":7000:7001   */\n      0x00\n        /* \"#utility.yul\":6993:6997   */\n      0x20\n        /* \"#utility.yul\":6988:6990   */\n      dup6\n        /* \"#utility.yul\":6980:6986   */\n      dup4\n        /* \"#utility.yul\":6976:6991   */\n      add\n        /* \"#utility.yul\":6972:6998   */\n      add\n        /* \"#utility.yul\":6965:7002   */\n      mstore\n        /* \"#utility.yul\":7020:7026   */\n      dup1\n        /* \"#utility.yul\":7011:7026   */\n      swap5\n      pop\n      pop\n      pop\n      pop\n      pop\n        /* \"#utility.yul\":6313:7032   */\n      swap3\n      swap2\n      pop\n      pop\n      jump\t// out\n        /* \"#utility.yul\":7037:7570   */\n    tag_99:\n        /* \"#utility.yul\":7133:7139   */\n      0x00\n        /* \"#utility.yul\":7141:7147   */\n      dup1\n        /* \"#utility.yul\":7149:7155   */\n      0x00\n        /* \"#utility.yul\":7157:7163   */\n      dup1\n        /* \"#utility.yul\":7210:7213   */\n      0x80\n        /* \"#utility.yul\":7198:7207   */\n      dup6\n        /* \"#utility.yul\":7189:7196   */\n      dup8\n        /* \"#utility.yul\":7185:7208   */\n      sub\n        /* \"#utility.yul\":7181:7214   */\n      slt\n        /* \"#utility.yul\":7178:7231   */\n      iszero\n      tag_532\n      jumpi\n        /* \"#utility.yul\":7227:7228   */\n      0x00\n        /* \"#utility.yul\":7224:7225   */\n      dup1\n        /* \"#utility.yul\":7217:7229   */\n      revert\n        /* \"#utility.yul\":7178:7231   */\n    tag_532:\n        /* \"#utility.yul\":7250:7279   */\n      tag_533\n        /* \"#utility.yul\":7269:7278   */\n      dup6\n        /* \"#utility.yul\":7250:7279   */\n      tag_480\n      jump\t// in\n    tag_533:\n        /* \"#utility.yul\":7240:7279   */\n      swap4\n      pop\n        /* \"#utility.yul\":7326:7328   */\n      0x20\n        /* \"#utility.yul\":7315:7324   */\n      dup6\n        /* \"#utility.yul\":7311:7329   */\n      add\n        /* \"#utility.yul\":7298:7330   */\n      calldataload\n        /* \"#utility.yul\":7288:7330   */\n      swap3\n      pop\n        /* \"#utility.yul\":7377:7379   */\n      0x40\n        /* \"#utility.yul\":7366:7375   */\n      dup6\n        /* \"#utility.yul\":7362:7380   */\n      add\n        /* \"#utility.yul\":7349:7381   */\n      calldataload\n        /* \"#utility.yul\":7339:7381   */\n      swap2\n      pop\n        /* \"#utility.yul\":7432:7434   */\n      0x60\n        /* \"#utility.yul\":7421:7430   */\n      dup6\n        /* \"#utility.yul\":7417:7435   */\n      add\n        /* \"#utility.yul\":7404:7436   */\n      calldataload\n        /* \"#utility.yul\":7459:7477   */\n      0xffffffffffffffff\n        /* \"#utility.yul\":7451:7457   */\n      dup2\n        /* \"#utility.yul\":7448:7478   */\n      gt\n        /* \"#utility.yul\":7445:7495   */\n      iszero\n      tag_534\n      jumpi\n        /* \"#utility.yul\":7491:7492   */\n      0x00\n        /* \"#utility.yul\":7488:7489   */\n      dup1\n        /* \"#utility.yul\":7481:7493   */\n      revert\n        /* \"#utility.yul\":7445:7495   */\n    tag_534:\n        /* \"#utility.yul\":7514:7564   */\n      tag_535\n        /* \"#utility.yul\":7556:7563   */\n      dup8\n        /* \"#utility.yul\":7547:7553   */\n      dup3\n        /* \"#utility.yul\":7536:7545   */\n      dup9\n        /* \"#utility.yul\":7532:7554   */\n      add\n        /* \"#utility.yul\":7514:7564   */\n      tag_483\n      jump\t// in\n    tag_535:\n        /* \"#utility.yul\":7504:7564   */\n      swap2\n      pop\n      pop\n        /* \"#utility.yul\":7037:7570   */\n      swap3\n      swap6\n      swap2\n      swap5\n      pop\n      swap3\n      pop\n      jump\t// out\n        /* \"#utility.yul\":7575:8207   */\n    tag_108:\n        /* \"#utility.yul\":7746:7748   */\n      0x20\n        /* \"#utility.yul\":7798:7819   */\n      dup1\n      dup3\n      mstore\n        /* \"#utility.yul\":7868:7881   */\n      dup3\n      mload\n        /* \"#utility.yul\":7771:7789   */\n      dup3\n      dup3\n      add\n        /* \"#utility.yul\":7890:7912   */\n      dup2\n      swap1\n      mstore\n        /* \"#utility.yul\":7717:7721   */\n      0x00\n      swap2\n        /* \"#utility.yul\":7746:7748   */\n      swap1\n        /* \"#utility.yul\":7969:7984   */\n      dup5\n      dup3\n      add\n      swap1\n        /* \"#utility.yul\":7943:7945   */\n      0x40\n        /* \"#utility.yul\":7928:7946   */\n      dup6\n      add\n      swap1\n        /* \"#utility.yul\":7717:7721   */\n      dup5\n        /* \"#utility.yul\":8012:8181   */\n    tag_537:\n        /* \"#utility.yul\":8026:8032   */\n      dup2\n        /* \"#utility.yul\":8023:8024   */\n      dup2\n        /* \"#utility.yul\":8020:8033   */\n      lt\n        /* \"#utility.yul\":8012:8181   */\n      iszero\n      tag_539\n      jumpi\n        /* \"#utility.yul\":8087:8100   */\n      dup4\n      mload\n        /* \"#utility.yul\":8075:8101   */\n      dup4\n      mstore\n        /* \"#utility.yul\":8156:8171   */\n      swap3\n      dup5\n      add\n      swap3\n        /* \"#utility.yul\":8121:8133   */\n      swap2\n      dup5\n      add\n      swap2\n        /* \"#utility.yul\":8048:8049   */\n      0x01\n        /* \"#utility.yul\":8041:8050   */\n      add\n        /* \"#utility.yul\":8012:8181   */\n      jump(tag_537)\n    tag_539:\n      pop\n        /* \"#utility.yul\":8198:8201   */\n      swap1\n      swap7\n        /* \"#utility.yul\":7575:8207   */\n      swap6\n      pop\n      pop\n      pop\n      pop\n      pop\n      pop\n      jump\t// out\n        /* \"#utility.yul\":8212:8602   */\n    tag_119:\n        /* \"#utility.yul\":8290:8296   */\n      0x00\n        /* \"#utility.yul\":8298:8304   */\n      dup1\n        /* \"#utility.yul\":8351:8353   */\n      0x40\n        /* \"#utility.yul\":8339:8348   */\n      dup4\n        /* \"#utility.yul\":8330:8337   */\n      dup6\n        /* \"#utility.yul\":8326:8349   */\n      sub\n        /* \"#utility.yul\":8322:8354   */\n      slt\n        /* \"#utility.yul\":8319:8371   */\n      iszero\n      tag_541\n      jumpi\n        /* \"#utility.yul\":8367:8368   */\n      0x00\n        /* \"#utility.yul\":8364:8365   */\n      dup1\n        /* \"#utility.yul\":8357:8369   */\n      revert\n        /* \"#utility.yul\":8319:8371   */\n    tag_541:\n        /* \"#utility.yul\":8403:8412   */\n      dup3\n        /* \"#utility.yul\":8390:8413   */\n      calldataload\n        /* \"#utility.yul\":8380:8413   */\n      swap2\n      pop\n        /* \"#utility.yul\":8464:8466   */\n      0x20\n        /* \"#utility.yul\":8453:8462   */\n      dup4\n        /* \"#utility.yul\":8449:8467   */\n      add\n        /* \"#utility.yul\":8436:8468   */\n      calldataload\n        /* \"#utility.yul\":8491:8509   */\n      0xffffffffffffffff\n        /* \"#utility.yul\":8483:8489   */\n      dup2\n        /* \"#utility.yul\":8480:8510   */\n      gt\n        /* \"#utility.yul\":8477:8527   */\n      iszero\n      tag_542\n      jumpi\n        /* \"#utility.yul\":8523:8524   */\n      0x00\n        /* \"#utility.yul\":8520:8521   */\n      dup1\n        /* \"#utility.yul\":8513:8525   */\n      revert\n        /* \"#utility.yul\":8477:8527   */\n    tag_542:\n        /* \"#utility.yul\":8546:8596   */\n      tag_543\n        /* \"#utility.yul\":8588:8595   */\n      dup6\n        /* \"#utility.yul\":8579:8585   */\n      dup3\n        /* \"#utility.yul\":8568:8577   */\n      dup7\n        /* \"#utility.yul\":8564:8586   */\n      add\n        /* \"#utility.yul\":8546:8596   */\n      tag_483\n      jump\t// in\n    tag_543:\n        /* \"#utility.yul\":8536:8596   */\n      swap2\n      pop\n      pop\n        /* \"#utility.yul\":8212:8602   */\n      swap3\n      pop\n      swap3\n      swap1\n      pop\n      jump\t// out\n        /* \"#utility.yul\":8607:9161   */\n    tag_128:\n        /* \"#utility.yul\":8792:8794   */\n      0x20\n        /* \"#utility.yul\":8781:8790   */\n      dup2\n        /* \"#utility.yul\":8774:8795   */\n      mstore\n        /* \"#utility.yul\":8837:8843   */\n      dup2\n        /* \"#utility.yul\":8831:8844   */\n      mload\n        /* \"#utility.yul\":8826:8828   */\n      0x20\n        /* \"#utility.yul\":8815:8824   */\n      dup3\n        /* \"#utility.yul\":8811:8829   */\n      add\n        /* \"#utility.yul\":8804:8845   */\n      mstore\n        /* \"#utility.yul\":8755:8759   */\n      0x00\n        /* \"#utility.yul\":8892:8894   */\n      0x20\n        /* \"#utility.yul\":8884:8890   */\n      dup4\n        /* \"#utility.yul\":8880:8895   */\n      add\n        /* \"#utility.yul\":8874:8896   */\n      mload\n        /* \"#utility.yul\":8932:8936   */\n      0x80\n        /* \"#utility.yul\":8927:8929   */\n      0x40\n        /* \"#utility.yul\":8916:8925   */\n      dup5\n        /* \"#utility.yul\":8912:8930   */\n      add\n        /* \"#utility.yul\":8905:8937   */\n      mstore\n        /* \"#utility.yul\":8960:9012   */\n      tag_545\n        /* \"#utility.yul\":9007:9010   */\n      0xa0\n        /* \"#utility.yul\":8996:9005   */\n      dup5\n        /* \"#utility.yul\":8992:9011   */\n      add\n        /* \"#utility.yul\":8978:8990   */\n      dup3\n        /* \"#utility.yul\":8960:9012   */\n      tag_482\n      jump\t// in\n    tag_545:\n        /* \"#utility.yul\":8946:9012   */\n      swap1\n      pop\n        /* \"#utility.yul\":9066:9068   */\n      0x40\n        /* \"#utility.yul\":9058:9064   */\n      dup5\n        /* \"#utility.yul\":9054:9069   */\n      add\n        /* \"#utility.yul\":9048:9070   */\n      mload\n        /* \"#utility.yul\":9043:9045   */\n      0x60\n        /* \"#utility.yul\":9032:9041   */\n      dup5\n        /* \"#utility.yul\":9028:9046   */\n      add\n        /* \"#utility.yul\":9021:9071   */\n      mstore\n        /* \"#utility.yul\":9127:9129   */\n      0x60\n        /* \"#utility.yul\":9119:9125   */\n      dup5\n        /* \"#utility.yul\":9115:9130   */\n      add\n        /* \"#utility.yul\":9109:9131   */\n      mload\n        /* \"#utility.yul\":9102:9106   */\n      0x80\n        /* \"#utility.yul\":9091:9100   */\n      dup5\n        /* \"#utility.yul\":9087:9107   */\n      add\n        /* \"#utility.yul\":9080:9132   */\n      mstore\n        /* \"#utility.yul\":9149:9155   */\n      dup1\n        /* \"#utility.yul\":9141:9155   */\n      swap2\n      pop\n      pop\n        /* \"#utility.yul\":8607:9161   */\n      swap3\n      swap2\n      pop\n      pop\n      jump\t// out\n        /* \"#utility.yul\":9166:9601   */\n    tag_137:\n        /* \"#utility.yul\":9399:9405   */\n      dup5\n        /* \"#utility.yul\":9388:9397   */\n      dup2\n        /* \"#utility.yul\":9381:9406   */\n      mstore\n        /* \"#utility.yul\":9442:9445   */\n      0x80\n        /* \"#utility.yul\":9437:9439   */\n      0x20\n        /* \"#utility.yul\":9426:9435   */\n      dup3\n        /* \"#utility.yul\":9422:9440   */\n      add\n        /* \"#utility.yul\":9415:9446   */\n      mstore\n        /* \"#utility.yul\":9362:9366   */\n      0x00\n        /* \"#utility.yul\":9463:9509   */\n      tag_547\n        /* \"#utility.yul\":9504:9507   */\n      0x80\n        /* \"#utility.yul\":9493:9502   */\n      dup4\n        /* \"#utility.yul\":9489:9508   */\n      add\n        /* \"#utility.yul\":9481:9487   */\n      dup7\n        /* \"#utility.yul\":9463:9509   */\n      tag_482\n      jump\t// in\n    tag_547:\n        /* \"#utility.yul\":9540:9542   */\n      0x40\n        /* \"#utility.yul\":9525:9543   */\n      dup4\n      add\n        /* \"#utility.yul\":9518:9552   */\n      swap5\n      swap1\n      swap5\n      mstore\n      pop\n        /* \"#utility.yul\":9583:9585   */\n      0x60\n        /* \"#utility.yul\":9568:9586   */\n      add\n        /* \"#utility.yul\":9561:9595   */\n      mstore\n        /* \"#utility.yul\":9455:9509   */\n      swap3\n        /* \"#utility.yul\":9166:9601   */\n      swap2\n      pop\n      pop\n      jump\t// out\n        /* \"#utility.yul\":9606:9928   */\n    tag_140:\n        /* \"#utility.yul\":9683:9689   */\n      0x00\n        /* \"#utility.yul\":9691:9697   */\n      dup1\n        /* \"#utility.yul\":9699:9705   */\n      0x00\n        /* \"#utility.yul\":9752:9754   */\n      0x60\n        /* \"#utility.yul\":9740:9749   */\n      dup5\n        /* \"#utility.yul\":9731:9738   */\n      dup7\n        /* \"#utility.yul\":9727:9750   */\n      sub\n        /* \"#utility.yul\":9723:9755   */\n      slt\n        /* \"#utility.yul\":9720:9772   */\n      iszero\n      tag_549\n      jumpi\n        /* \"#utility.yul\":9768:9769   */\n      0x00\n        /* \"#utility.yul\":9765:9766   */\n      dup1\n        /* \"#utility.yul\":9758:9770   */\n      revert\n        /* \"#utility.yul\":9720:9772   */\n    tag_549:\n        /* \"#utility.yul\":9791:9820   */\n      tag_550\n        /* \"#utility.yul\":9810:9819   */\n      dup5\n        /* \"#utility.yul\":9791:9820   */\n      tag_480\n      jump\t// in\n    tag_550:\n        /* \"#utility.yul\":9781:9820   */\n      swap6\n        /* \"#utility.yul\":9867:9869   */\n      0x20\n        /* \"#utility.yul\":9852:9870   */\n      dup6\n      add\n        /* \"#utility.yul\":9839:9871   */\n      calldataload\n      swap6\n      pop\n        /* \"#utility.yul\":9918:9920   */\n      0x40\n        /* \"#utility.yul\":9903:9921   */\n      swap1\n      swap5\n      add\n        /* \"#utility.yul\":9890:9922   */\n      calldataload\n      swap4\n        /* \"#utility.yul\":9606:9928   */\n      swap3\n      pop\n      pop\n      pop\n      jump\t// out\n        /* \"#utility.yul\":9933:10391   */\n    tag_147:\n        /* \"#utility.yul\":10020:10026   */\n      0x00\n        /* \"#utility.yul\":10028:10034   */\n      dup1\n        /* \"#utility.yul\":10036:10042   */\n      0x00\n        /* \"#utility.yul\":10089:10091   */\n      0x60\n        /* \"#utility.yul\":10077:10086   */\n      dup5\n        /* \"#utility.yul\":10068:10075   */\n      dup7\n        /* \"#utility.yul\":10064:10087   */\n      sub\n        /* \"#utility.yul\":10060:10092   */\n      slt\n        /* \"#utility.yul\":10057:10109   */\n      iszero\n      tag_552\n      jumpi\n        /* \"#utility.yul\":10105:10106   */\n      0x00\n        /* \"#utility.yul\":10102:10103   */\n      dup1\n        /* \"#utility.yul\":10095:10107   */\n      revert\n        /* \"#utility.yul\":10057:10109   */\n    tag_552:\n        /* \"#utility.yul\":10141:10150   */\n      dup4\n        /* \"#utility.yul\":10128:10151   */\n      calldataload\n        /* \"#utility.yul\":10118:10151   */\n      swap3\n      pop\n        /* \"#utility.yul\":10198:10200   */\n      0x20\n        /* \"#utility.yul\":10187:10196   */\n      dup5\n        /* \"#utility.yul\":10183:10201   */\n      add\n        /* \"#utility.yul\":10170:10202   */\n      calldataload\n        /* \"#utility.yul\":10160:10202   */\n      swap2\n      pop\n        /* \"#utility.yul\":10253:10255   */\n      0x40\n        /* \"#utility.yul\":10242:10251   */\n      dup5\n        /* \"#utility.yul\":10238:10256   */\n      add\n        /* \"#utility.yul\":10225:10257   */\n      calldataload\n        /* \"#utility.yul\":10280:10298   */\n      0xffffffffffffffff\n        /* \"#utility.yul\":10272:10278   */\n      dup2\n        /* \"#utility.yul\":10269:10299   */\n      gt\n        /* \"#utility.yul\":10266:10316   */\n      iszero\n      tag_553\n      jumpi\n        /* \"#utility.yul\":10312:10313   */\n      0x00\n        /* \"#utility.yul\":10309:10310   */\n      dup1\n        /* \"#utility.yul\":10302:10314   */\n      revert\n        /* \"#utility.yul\":10266:10316   */\n    tag_553:\n        /* \"#utility.yul\":10335:10385   */\n      tag_554\n        /* \"#utility.yul\":10377:10384   */\n      dup7\n        /* \"#utility.yul\":10368:10374   */\n      dup3\n        /* \"#utility.yul\":10357:10366   */\n      dup8\n        /* \"#utility.yul\":10353:10375   */\n      add\n        /* \"#utility.yul\":10335:10385   */\n      tag_483\n      jump\t// in\n    tag_554:\n        /* \"#utility.yul\":10325:10385   */\n      swap2\n      pop\n      pop\n        /* \"#utility.yul\":9933:10391   */\n      swap3\n      pop\n      swap3\n      pop\n      swap3\n      jump\t// out\n        /* \"#utility.yul\":10396:10656   */\n    tag_151:\n        /* \"#utility.yul\":10464:10470   */\n      0x00\n        /* \"#utility.yul\":10472:10478   */\n      dup1\n        /* \"#utility.yul\":10525:10527   */\n      0x40\n        /* \"#utility.yul\":10513:10522   */\n      dup4\n        /* \"#utility.yul\":10504:10511   */\n      dup6\n        /* \"#utility.yul\":10500:10523   */\n      sub\n        /* \"#utility.yul\":10496:10528   */\n      slt\n        /* \"#utility.yul\":10493:10545   */\n      iszero\n      tag_556\n      jumpi\n        /* \"#utility.yul\":10541:10542   */\n      0x00\n        /* \"#utility.yul\":10538:10539   */\n      dup1\n        /* \"#utility.yul\":10531:10543   */\n      revert\n        /* \"#utility.yul\":10493:10545   */\n    tag_556:\n        /* \"#utility.yul\":10564:10593   */\n      tag_557\n        /* \"#utility.yul\":10583:10592   */\n      dup4\n        /* \"#utility.yul\":10564:10593   */\n      tag_480\n      jump\t// in\n    tag_557:\n        /* \"#utility.yul\":10554:10593   */\n      swap2\n      pop\n        /* \"#utility.yul\":10612:10650   */\n      tag_558\n        /* \"#utility.yul\":10646:10648   */\n      0x20\n        /* \"#utility.yul\":10635:10644   */\n      dup5\n        /* \"#utility.yul\":10631:10649   */\n      add\n        /* \"#utility.yul\":10612:10650   */\n      tag_480\n      jump\t// in\n    tag_558:\n        /* \"#utility.yul\":10602:10650   */\n      swap1\n      pop\n        /* \"#utility.yul\":10396:10656   */\n      swap3\n      pop\n      swap3\n      swap1\n      pop\n      jump\t// out\n        /* \"#utility.yul\":10661:11670   */\n    tag_166:\n        /* \"#utility.yul\":11027:11031   */\n      0x00\n        /* \"#utility.yul\":11056:11059   */\n      0x0140\n        /* \"#utility.yul\":11086:11092   */\n      dup13\n        /* \"#utility.yul\":11075:11084   */\n      dup4\n        /* \"#utility.yul\":11068:11093   */\n      mstore\n        /* \"#utility.yul\":11129:11135   */\n      dup12\n        /* \"#utility.yul\":11124:11126   */\n      0x20\n        /* \"#utility.yul\":11113:11122   */\n      dup5\n        /* \"#utility.yul\":11109:11127   */\n      add\n        /* \"#utility.yul\":11102:11136   */\n      mstore\n        /* \"#utility.yul\":11172:11178   */\n      dup11\n        /* \"#utility.yul\":11167:11169   */\n      0x40\n        /* \"#utility.yul\":11156:11165   */\n      dup5\n        /* \"#utility.yul\":11152:11170   */\n      add\n        /* \"#utility.yul\":11145:11179   */\n      mstore\n        /* \"#utility.yul\":11215:11221   */\n      dup10\n        /* \"#utility.yul\":11210:11212   */\n      0x60\n        /* \"#utility.yul\":11199:11208   */\n      dup5\n        /* \"#utility.yul\":11195:11213   */\n      add\n        /* \"#utility.yul\":11188:11222   */\n      mstore\n        /* \"#utility.yul\":11273:11279   */\n      dup9\n        /* \"#utility.yul\":11266:11280   */\n      iszero\n        /* \"#utility.yul\":11259:11281   */\n      iszero\n        /* \"#utility.yul\":11253:11256   */\n      0x80\n        /* \"#utility.yul\":11242:11251   */\n      dup5\n        /* \"#utility.yul\":11238:11257   */\n      add\n        /* \"#utility.yul\":11231:11282   */\n      mstore\n        /* \"#utility.yul\":11319:11325   */\n      dup8\n        /* \"#utility.yul\":11313:11316   */\n      0xa0\n        /* \"#utility.yul\":11302:11311   */\n      dup5\n        /* \"#utility.yul\":11298:11317   */\n      add\n        /* \"#utility.yul\":11291:11326   */\n      mstore\n        /* \"#utility.yul\":11377:11383   */\n      dup7\n        /* \"#utility.yul\":11370:11384   */\n      iszero\n        /* \"#utility.yul\":11363:11385   */\n      iszero\n        /* \"#utility.yul\":11357:11360   */\n      0xc0\n        /* \"#utility.yul\":11346:11355   */\n      dup5\n        /* \"#utility.yul\":11342:11361   */\n      add\n        /* \"#utility.yul\":11335:11386   */\n      mstore\n        /* \"#utility.yul\":11423:11425   */\n      dup1\n        /* \"#utility.yul\":11417:11420   */\n      0xe0\n        /* \"#utility.yul\":11406:11415   */\n      dup5\n        /* \"#utility.yul\":11402:11421   */\n      add\n        /* \"#utility.yul\":11395:11426   */\n      mstore\n        /* \"#utility.yul\":11449:11494   */\n      tag_560\n        /* \"#utility.yul\":11490:11492   */\n      dup2\n        /* \"#utility.yul\":11479:11488   */\n      dup5\n        /* \"#utility.yul\":11475:11493   */\n      add\n        /* \"#utility.yul\":11467:11473   */\n      dup8\n        /* \"#utility.yul\":11449:11494   */\n      tag_482\n      jump\t// in\n    tag_560:\n        /* \"#utility.yul\":11435:11494   */\n      swap1\n      pop\n        /* \"#utility.yul\":11545:11551   */\n      dup5\n        /* \"#utility.yul\":11538:11552   */\n      iszero\n        /* \"#utility.yul\":11531:11553   */\n      iszero\n        /* \"#utility.yul\":11525:11528   */\n      0x0100\n        /* \"#utility.yul\":11514:11523   */\n      dup5\n        /* \"#utility.yul\":11510:11529   */\n      add\n        /* \"#utility.yul\":11503:11554   */\n      mstore\n        /* \"#utility.yul\":11603:11612   */\n      dup3\n        /* \"#utility.yul\":11595:11601   */\n      dup2\n        /* \"#utility.yul\":11591:11613   */\n      sub\n        /* \"#utility.yul\":11585:11588   */\n      0x0120\n        /* \"#utility.yul\":11574:11583   */\n      dup5\n        /* \"#utility.yul\":11570:11589   */\n      add\n        /* \"#utility.yul\":11563:11614   */\n      mstore\n        /* \"#utility.yul\":11631:11664   */\n      tag_561\n        /* \"#utility.yul\":11657:11663   */\n      dup2\n        /* \"#utility.yul\":11649:11655   */\n      dup6\n        /* \"#utility.yul\":11631:11664   */\n      tag_482\n      jump\t// in\n    tag_561:\n        /* \"#utility.yul\":11623:11664   */\n      swap14\n        /* \"#utility.yul\":10661:11670   */\n      swap13\n      pop\n      pop\n      pop\n      pop\n      pop\n      pop\n      pop\n      pop\n      pop\n      pop\n      pop\n      pop\n      pop\n      jump\t// out\n        /* \"#utility.yul\":11675:11859   */\n    tag_180:\n      mul(0x4e487b71, exp(0x02, 0xe0))\n        /* \"#utility.yul\":11724:11725   */\n      0x00\n        /* \"#utility.yul\":11717:11805   */\n      mstore\n        /* \"#utility.yul\":11824:11828   */\n      0x32\n        /* \"#utility.yul\":11821:11822   */\n      0x04\n        /* \"#utility.yul\":11814:11829   */\n      mstore\n        /* \"#utility.yul\":11848:11852   */\n      0x24\n        /* \"#utility.yul\":11845:11846   */\n      0x00\n        /* \"#utility.yul\":11838:11853   */\n      revert\n        /* \"#utility.yul\":11864:12048   */\n    tag_484:\n      mul(0x4e487b71, exp(0x02, 0xe0))\n        /* \"#utility.yul\":11913:11914   */\n      0x00\n        /* \"#utility.yul\":11906:11994   */\n      mstore\n        /* \"#utility.yul\":12013:12017   */\n      0x11\n        /* \"#utility.yul\":12010:12011   */\n      0x04\n        /* \"#utility.yul\":12003:12018   */\n      mstore\n        /* \"#utility.yul\":12037:12041   */\n      0x24\n        /* \"#utility.yul\":12034:12035   */\n      0x00\n        /* \"#utility.yul\":12027:12042   */\n      revert\n        /* \"#utility.yul\":12053:12178   */\n    tag_183:\n        /* \"#utility.yul\":12118:12127   */\n      dup1\n      dup3\n      add\n        /* \"#utility.yul\":12139:12149   */\n      dup1\n      dup3\n      gt\n        /* \"#utility.yul\":12136:12172   */\n      iszero\n      tag_173\n      jumpi\n        /* \"#utility.yul\":12152:12170   */\n      tag_173\n      tag_484\n      jump\t// in\n        /* \"#utility.yul\":12183:12318   */\n    tag_185:\n        /* \"#utility.yul\":12222:12225   */\n      0x00\n        /* \"#utility.yul\":12243:12260   */\n      0x01\n      dup3\n      add\n        /* \"#utility.yul\":12240:12283   */\n      tag_569\n      jumpi\n        /* \"#utility.yul\":12263:12281   */\n      tag_569\n      tag_484\n      jump\t// in\n    tag_569:\n      pop\n        /* \"#utility.yul\":12310:12311   */\n      0x01\n        /* \"#utility.yul\":12299:12312   */\n      add\n      swap1\n        /* \"#utility.yul\":12183:12318   */\n      jump\t// out\n        /* \"#utility.yul\":12323:12760   */\n    tag_209:\n        /* \"#utility.yul\":12408:12409   */\n      0x02\n        /* \"#utility.yul\":12398:12410   */\n      dup2\n      div\n        /* \"#utility.yul\":12455:12456   */\n      0x01\n        /* \"#utility.yul\":12445:12457   */\n      dup3\n      and\n      dup1\n        /* \"#utility.yul\":12466:12527   */\n      tag_571\n      jumpi\n        /* \"#utility.yul\":12520:12524   */\n      0x7f\n        /* \"#utility.yul\":12512:12518   */\n      dup3\n        /* \"#utility.yul\":12508:12525   */\n      and\n        /* \"#utility.yul\":12498:12525   */\n      swap2\n      pop\n        /* \"#utility.yul\":12466:12527   */\n    tag_571:\n        /* \"#utility.yul\":12573:12575   */\n      0x20\n        /* \"#utility.yul\":12565:12571   */\n      dup3\n        /* \"#utility.yul\":12562:12576   */\n      lt\n        /* \"#utility.yul\":12542:12560   */\n      dup2\n        /* \"#utility.yul\":12539:12577   */\n      sub\n        /* \"#utility.yul\":12536:12754   */\n      tag_572\n      jumpi\n      mul(0x4e487b71, exp(0x02, 0xe0))\n        /* \"#utility.yul\":12607:12608   */\n      0x00\n        /* \"#utility.yul\":12600:12688   */\n      mstore\n        /* \"#utility.yul\":12711:12715   */\n      0x22\n        /* \"#utility.yul\":12708:12709   */\n      0x04\n        /* \"#utility.yul\":12701:12716   */\n      mstore\n        /* \"#utility.yul\":12739:12743   */\n      0x24\n        /* \"#utility.yul\":12736:12737   */\n      0x00\n        /* \"#utility.yul\":12729:12744   */\n      revert\n        /* \"#utility.yul\":12536:12754   */\n    tag_572:\n      pop\n        /* \"#utility.yul\":12323:12760   */\n      swap2\n      swap1\n      pop\n      jump\t// out\n        /* \"#utility.yul\":12765:13094   */\n    tag_222:\n        /* \"#utility.yul\":12967:12969   */\n      0x20\n        /* \"#utility.yul\":12949:12970   */\n      dup1\n      dup3\n      mstore\n        /* \"#utility.yul\":13006:13007   */\n      0x06\n        /* \"#utility.yul\":12986:13004   */\n      swap1\n      dup3\n      add\n        /* \"#utility.yul\":12979:13008   */\n      mstore\n        /* \"#utility.yul\":13044:13052   */\n      0x216f776e65720000000000000000000000000000000000000000000000000000\n        /* \"#utility.yul\":13039:13041   */\n      0x40\n        /* \"#utility.yul\":13024:13042   */\n      dup3\n      add\n        /* \"#utility.yul\":13017:13053   */\n      mstore\n        /* \"#utility.yul\":13085:13087   */\n      0x60\n        /* \"#utility.yul\":13070:13088   */\n      add\n      swap1\n        /* \"#utility.yul\":12765:13094   */\n      jump\t// out\n        /* \"#utility.yul\":13099:13435   */\n    tag_229:\n        /* \"#utility.yul\":13301:13303   */\n      0x20\n        /* \"#utility.yul\":13283:13304   */\n      dup1\n      dup3\n      mstore\n        /* \"#utility.yul\":13340:13342   */\n      0x0c\n        /* \"#utility.yul\":13320:13338   */\n      swap1\n      dup3\n      add\n        /* \"#utility.yul\":13313:13343   */\n      mstore\n        /* \"#utility.yul\":13379:13393   */\n      0x4e6f7420616e2061646d696e0000000000000000000000000000000000000000\n        /* \"#utility.yul\":13374:13376   */\n      0x40\n        /* \"#utility.yul\":13359:13377   */\n      dup3\n      add\n        /* \"#utility.yul\":13352:13394   */\n      mstore\n        /* \"#utility.yul\":13426:13428   */\n      0x60\n        /* \"#utility.yul\":13411:13429   */\n      add\n      swap1\n        /* \"#utility.yul\":13099:13435   */\n      jump\t// out\n        /* \"#utility.yul\":13440:13785   */\n    tag_233:\n        /* \"#utility.yul\":13642:13644   */\n      0x20\n        /* \"#utility.yul\":13624:13645   */\n      dup1\n      dup3\n      mstore\n        /* \"#utility.yul\":13681:13683   */\n      0x15\n        /* \"#utility.yul\":13661:13679   */\n      swap1\n      dup3\n      add\n        /* \"#utility.yul\":13654:13684   */\n      mstore\n        /* \"#utility.yul\":13720:13743   */\n      0x43726564697420646f6573206e6f742065786973740000000000000000000000\n        /* \"#utility.yul\":13715:13717   */\n      0x40\n        /* \"#utility.yul\":13700:13718   */\n      dup3\n      add\n        /* \"#utility.yul\":13693:13744   */\n      mstore\n        /* \"#utility.yul\":13776:13778   */\n      0x60\n        /* \"#utility.yul\":13761:13779   */\n      add\n      swap1\n        /* \"#utility.yul\":13440:13785   */\n      jump\t// out\n        /* \"#utility.yul\":14136:14482   */\n    tag_239:\n        /* \"#utility.yul\":14338:14340   */\n      0x20\n        /* \"#utility.yul\":14320:14341   */\n      dup1\n      dup3\n      mstore\n        /* \"#utility.yul\":14377:14379   */\n      0x16\n        /* \"#utility.yul\":14357:14375   */\n      swap1\n      dup3\n      add\n        /* \"#utility.yul\":14350:14380   */\n      mstore\n        /* \"#utility.yul\":14416:14440   */\n      0x43726564697420616c7265616479207265766f6b656400000000000000000000\n        /* \"#utility.yul\":14411:14413   */\n      0x40\n        /* \"#utility.yul\":14396:14414   */\n      dup3\n      add\n        /* \"#utility.yul\":14389:14441   */\n      mstore\n        /* \"#utility.yul\":14473:14475   */\n      0x60\n        /* \"#utility.yul\":14458:14476   */\n      add\n      swap1\n        /* \"#utility.yul\":14136:14482   */\n      jump\t// out\n        /* \"#utility.yul\":14487:14826   */\n    tag_246:\n        /* \"#utility.yul\":14689:14691   */\n      0x20\n        /* \"#utility.yul\":14671:14692   */\n      dup1\n      dup3\n      mstore\n        /* \"#utility.yul\":14728:14730   */\n      0x0f\n        /* \"#utility.yul\":14708:14726   */\n      swap1\n      dup3\n      add\n        /* \"#utility.yul\":14701:14731   */\n      mstore\n        /* \"#utility.yul\":14767:14784   */\n      0x496e76616c696420616464726573730000000000000000000000000000000000\n        /* \"#utility.yul\":14762:14764   */\n      0x40\n        /* \"#utility.yul\":14747:14765   */\n      dup3\n      add\n        /* \"#utility.yul\":14740:14785   */\n      mstore\n        /* \"#utility.yul\":14817:14819   */\n      0x60\n        /* \"#utility.yul\":14802:14820   */\n      add\n      swap1\n        /* \"#utility.yul\":14487:14826   */\n      jump\t// out\n        /* \"#utility.yul\":15871:16039   */\n    tag_302:\n        /* \"#utility.yul\":15944:15953   */\n      dup1\n      dup3\n      mul\n        /* \"#utility.yul\":15975:15984   */\n      dup2\n      iszero\n        /* \"#utility.yul\":15992:16007   */\n      dup3\n      dup3\n      div\n        /* \"#utility.yul\":15986:16008   */\n      dup5\n      eq\n        /* \"#utility.yul\":15972:16009   */\n      or\n        /* \"#utility.yul\":15962:16033   */\n      tag_173\n      jumpi\n        /* \"#utility.yul\":16013:16031   */\n      tag_173\n      tag_484\n      jump\t// in\n        /* \"#utility.yul\":16170:16721   */\n    tag_486:\n        /* \"#utility.yul\":16272:16274   */\n      0x1f\n        /* \"#utility.yul\":16267:16270   */\n      dup3\n        /* \"#utility.yul\":16264:16275   */\n      gt\n        /* \"#utility.yul\":16261:16715   */\n      iszero\n      tag_587\n      jumpi\n        /* \"#utility.yul\":16308:16309   */\n      0x00\n        /* \"#utility.yul\":16333:16338   */\n      dup2\n        /* \"#utility.yul\":16329:16331   */\n      dup2\n        /* \"#utility.yul\":16322:16339   */\n      mstore\n        /* \"#utility.yul\":16378:16382   */\n      0x20\n        /* \"#utility.yul\":16374:16376   */\n      dup2\n        /* \"#utility.yul\":16364:16383   */\n      keccak256\n        /* \"#utility.yul\":16450:16454   */\n      0x20\n        /* \"#utility.yul\":16445:16447   */\n      0x1f\n        /* \"#utility.yul\":16433:16443   */\n      dup7\n        /* \"#utility.yul\":16429:16448   */\n      add\n        /* \"#utility.yul\":16425:16455   */\n      div\n        /* \"#utility.yul\":16419:16423   */\n      dup2\n        /* \"#utility.yul\":16415:16456   */\n      add\n        /* \"#utility.yul\":16487:16491   */\n      0x20\n        /* \"#utility.yul\":16475:16485   */\n      dup7\n        /* \"#utility.yul\":16472:16492   */\n      lt\n        /* \"#utility.yul\":16469:16516   */\n      iszero\n      tag_588\n      jumpi\n      pop\n        /* \"#utility.yul\":16510:16514   */\n      dup1\n        /* \"#utility.yul\":16469:16516   */\n    tag_588:\n        /* \"#utility.yul\":16567:16571   */\n      0x20\n        /* \"#utility.yul\":16562:16564   */\n      0x1f\n        /* \"#utility.yul\":16557:16560   */\n      dup7\n        /* \"#utility.yul\":16553:16565   */\n      add\n        /* \"#utility.yul\":16549:16572   */\n      div\n        /* \"#utility.yul\":16543:16547   */\n      dup3\n        /* \"#utility.yul\":16539:16573   */\n      add\n        /* \"#utility.yul\":16529:16573   */\n      swap2\n      pop\n        /* \"#utility.yul\":16623:16705   */\n    tag_589:\n        /* \"#utility.yul\":16641:16643   */\n      dup2\n        /* \"#utility.yul\":16634:16639   */\n      dup2\n        /* \"#utility.yul\":16631:16644   */\n      lt\n        /* \"#utility.yul\":16623:16705   */\n      iszero\n      tag_591\n      jumpi\n        /* \"#utility.yul\":16686:16703   */\n      dup3\n      dup2\n      sstore\n        /* \"#utility.yul\":16667:16668   */\n      0x01\n        /* \"#utility.yul\":16656:16669   */\n      add\n        /* \"#utility.yul\":16623:16705   */\n      jump(tag_589)\n    tag_591:\n        /* \"#utility.yul\":16627:16630   */\n      pop\n      pop\n      pop\n        /* \"#utility.yul\":16261:16715   */\n    tag_587:\n        /* \"#utility.yul\":16170:16721   */\n      pop\n      pop\n      pop\n      jump\t// out\n        /* \"#utility.yul\":16905:18264   */\n    tag_304:\n        /* \"#utility.yul\":17031:17034   */\n      dup2\n        /* \"#utility.yul\":17025:17035   */\n      mload\n        /* \"#utility.yul\":17058:17076   */\n      0xffffffffffffffff\n        /* \"#utility.yul\":17050:17056   */\n      dup2\n        /* \"#utility.yul\":17047:17077   */\n      gt\n        /* \"#utility.yul\":17044:17100   */\n      iszero\n      tag_595\n      jumpi\n        /* \"#utility.yul\":17080:17098   */\n      tag_595\n      tag_188\n      jump\t// in\n    tag_595:\n        /* \"#utility.yul\":17109:17206   */\n      tag_596\n        /* \"#utility.yul\":17199:17205   */\n      dup2\n        /* \"#utility.yul\":17159:17197   */\n      tag_597\n        /* \"#utility.yul\":17191:17195   */\n      dup5\n        /* \"#utility.yul\":17185:17196   */\n      sload\n        /* \"#utility.yul\":17159:17197   */\n      tag_209\n      jump\t// in\n    tag_597:\n        /* \"#utility.yul\":17153:17157   */\n      dup5\n        /* \"#utility.yul\":17109:17206   */\n      tag_486\n      jump\t// in\n    tag_596:\n        /* \"#utility.yul\":17261:17265   */\n      0x20\n      dup1\n        /* \"#utility.yul\":17325:17327   */\n      0x1f\n        /* \"#utility.yul\":17314:17328   */\n      dup4\n      gt\n        /* \"#utility.yul\":17342:17343   */\n      0x01\n        /* \"#utility.yul\":17337:18007   */\n      dup2\n      eq\n      tag_599\n      jumpi\n        /* \"#utility.yul\":18051:18052   */\n      0x00\n        /* \"#utility.yul\":18068:18074   */\n      dup5\n        /* \"#utility.yul\":18065:18154   */\n      iszero\n      tag_600\n      jumpi\n      pop\n        /* \"#utility.yul\":18120:18139   */\n      dup6\n      dup4\n      add\n        /* \"#utility.yul\":18114:18140   */\n      mload\n        /* \"#utility.yul\":18065:18154   */\n    tag_600:\n        /* \"#utility.yul\":16886:16887   */\n      0x02\n        /* \"#utility.yul\":16882:16893   */\n      dup1\n      dup7\n      mul\n        /* \"#utility.yul\":16869:16870   */\n      0x08\n        /* \"#utility.yul\":16865:16876   */\n      dup8\n      mul\n        /* \"#utility.yul\":16858:16877   */\n      swap1\n      swap2\n      exp\n      not(0x00)\n        /* \"#utility.yul\":16846:16878   */\n      div\n        /* \"#utility.yul\":16842:16879   */\n      not\n        /* \"#utility.yul\":16832:16880   */\n      dup3\n      and\n        /* \"#utility.yul\":16829:16894   */\n      or\n        /* \"#utility.yul\":18174:18178   */\n      dup7\n        /* \"#utility.yul\":18167:18248   */\n      sstore\n      pop\n        /* \"#utility.yul\":17307:18258   */\n      jump(tag_591)\n        /* \"#utility.yul\":17337:18007   */\n    tag_599:\n        /* \"#utility.yul\":16117:16118   */\n      0x00\n        /* \"#utility.yul\":16110:16124   */\n      dup6\n      dup2\n      mstore\n        /* \"#utility.yul\":16154:16158   */\n      0x20\n        /* \"#utility.yul\":16141:16159   */\n      dup2\n      keccak256\n      not(0x1f)\n        /* \"#utility.yul\":17373:17393   */\n      dup7\n      and\n      swap2\n        /* \"#utility.yul\":17491:17727   */\n    tag_603:\n        /* \"#utility.yul\":17505:17512   */\n      dup3\n        /* \"#utility.yul\":17502:17503   */\n      dup2\n        /* \"#utility.yul\":17499:17513   */\n      lt\n        /* \"#utility.yul\":17491:17727   */\n      iszero\n      tag_605\n      jumpi\n        /* \"#utility.yul\":17594:17613   */\n      dup9\n      dup7\n      add\n        /* \"#utility.yul\":17588:17614   */\n      mload\n        /* \"#utility.yul\":17573:17615   */\n      dup3\n      sstore\n        /* \"#utility.yul\":17686:17713   */\n      swap5\n      dup5\n      add\n      swap5\n        /* \"#utility.yul\":17654:17655   */\n      0x01\n        /* \"#utility.yul\":17642:17656   */\n      swap1\n      swap2\n      add\n      swap1\n        /* \"#utility.yul\":17521:17540   */\n      dup5\n      add\n        /* \"#utility.yul\":17491:17727   */\n      jump(tag_603)\n    tag_605:\n        /* \"#utility.yul\":17495:17498   */\n      pop\n        /* \"#utility.yul\":17755:17761   */\n      dup6\n        /* \"#utility.yul\":17746:17753   */\n      dup3\n        /* \"#utility.yul\":17743:17762   */\n      lt\n        /* \"#utility.yul\":17740:17948   */\n      iszero\n      tag_606\n      jumpi\n        /* \"#utility.yul\":17816:17835   */\n      dup8\n      dup6\n      add\n        /* \"#utility.yul\":17810:17836   */\n      mload\n        /* \"#utility.yul\":17910:17911   */\n      0x08\n        /* \"#utility.yul\":17925:17927   */\n      0x1f\n        /* \"#utility.yul\":17913:17928   */\n      dup9\n      and\n        /* \"#utility.yul\":17906:17929   */\n      mul\n        /* \"#utility.yul\":17903:17904   */\n      0x02\n        /* \"#utility.yul\":17899:17930   */\n      exp\n      not(0x00)\n        /* \"#utility.yul\":17887:17931   */\n      div\n        /* \"#utility.yul\":17883:17932   */\n      not\n        /* \"#utility.yul\":17868:17933   */\n      and\n        /* \"#utility.yul\":17853:17934   */\n      dup2\n      sstore\n        /* \"#utility.yul\":17740:17948   */\n    tag_606:\n      pop\n      pop\n      pop\n      pop\n      pop\n        /* \"#utility.yul\":17990:17991   */\n      0x02\n        /* \"#utility.yul\":17978:17992   */\n      mul\n        /* \"#utility.yul\":17994:17995   */\n      0x01\n        /* \"#utility.yul\":17974:17996   */\n      add\n        /* \"#utility.yul\":17961:17997   */\n      swap1\n      sstore\n      pop\n        /* \"#utility.yul\":16905:18264   */\n      jump\t// out\n        /* \"#utility.yul\":18619:18747   */\n    tag_336:\n        /* \"#utility.yul\":18686:18695   */\n      dup2\n      dup2\n      sub\n        /* \"#utility.yul\":18707:18718   */\n      dup2\n      dup2\n      gt\n        /* \"#utility.yul\":18704:18741   */\n      iszero\n      tag_173\n      jumpi\n        /* \"#utility.yul\":18721:18739   */\n      tag_173\n      tag_484\n      jump\t// in\n        /* \"#utility.yul\":20508:21950   */\n    tag_445:\n        /* \"#utility.yul\":20627:20630   */\n      dup2\n        /* \"#utility.yul\":20621:20625   */\n      dup2\n        /* \"#utility.yul\":20618:20631   */\n      sub\n        /* \"#utility.yul\":20615:20641   */\n      tag_617\n      jumpi\n        /* \"#utility.yul\":20634:20639   */\n      pop\n      pop\n        /* \"#utility.yul\":20508:21950   */\n      jump\t// out\n        /* \"#utility.yul\":20615:20641   */\n    tag_617:\n        /* \"#utility.yul\":20664:20701   */\n      tag_618\n        /* \"#utility.yul\":20696:20699   */\n      dup3\n        /* \"#utility.yul\":20690:20700   */\n      sload\n        /* \"#utility.yul\":20664:20701   */\n      tag_209\n      jump\t// in\n    tag_618:\n        /* \"#utility.yul\":20724:20742   */\n      0xffffffffffffffff\n        /* \"#utility.yul\":20716:20722   */\n      dup2\n        /* \"#utility.yul\":20713:20743   */\n      gt\n        /* \"#utility.yul\":20710:20766   */\n      iszero\n      tag_620\n      jumpi\n        /* \"#utility.yul\":20746:20764   */\n      tag_620\n      tag_188\n      jump\t// in\n    tag_620:\n        /* \"#utility.yul\":20775:20872   */\n      tag_621\n        /* \"#utility.yul\":20865:20871   */\n      dup2\n        /* \"#utility.yul\":20825:20863   */\n      tag_597\n        /* \"#utility.yul\":20857:20861   */\n      dup5\n        /* \"#utility.yul\":20851:20862   */\n      sload\n        /* \"#utility.yul\":20825:20863   */\n      tag_209\n      jump\t// in\n        /* \"#utility.yul\":20775:20872   */\n    tag_621:\n        /* \"#utility.yul\":20898:20899   */\n      0x00\n        /* \"#utility.yul\":20926:20928   */\n      0x1f\n        /* \"#utility.yul\":20918:20924   */\n      dup3\n        /* \"#utility.yul\":20915:20929   */\n      gt\n        /* \"#utility.yul\":20943:20944   */\n      0x01\n        /* \"#utility.yul\":20938:21693   */\n      dup2\n      eq\n      tag_624\n      jumpi\n        /* \"#utility.yul\":21737:21738   */\n      0x00\n        /* \"#utility.yul\":21754:21760   */\n      dup4\n        /* \"#utility.yul\":21751:21840   */\n      iszero\n      tag_625\n      jumpi\n      pop\n        /* \"#utility.yul\":21806:21825   */\n      dup5\n      dup3\n      add\n        /* \"#utility.yul\":21800:21826   */\n      sload\n        /* \"#utility.yul\":21751:21840   */\n    tag_625:\n        /* \"#utility.yul\":16886:16887   */\n      0x02\n        /* \"#utility.yul\":16882:16893   */\n      dup1\n      dup6\n      mul\n        /* \"#utility.yul\":16869:16870   */\n      0x08\n        /* \"#utility.yul\":16865:16876   */\n      dup7\n      mul\n        /* \"#utility.yul\":16858:16877   */\n      swap1\n      swap2\n      exp\n      not(0x00)\n        /* \"#utility.yul\":16846:16878   */\n      div\n        /* \"#utility.yul\":16842:16879   */\n      not\n        /* \"#utility.yul\":16832:16880   */\n      dup3\n      and\n        /* \"#utility.yul\":16829:16894   */\n      or\n        /* \"#utility.yul\":21860:21864   */\n      dup6\n        /* \"#utility.yul\":21853:21934   */\n      sstore\n      pop\n        /* \"#utility.yul\":20908:21944   */\n      jump(tag_623)\n        /* \"#utility.yul\":20938:21693   */\n    tag_624:\n        /* \"#utility.yul\":16117:16118   */\n      0x00\n        /* \"#utility.yul\":16110:16124   */\n      dup6\n      dup2\n      mstore\n        /* \"#utility.yul\":16154:16158   */\n      0x20\n        /* \"#utility.yul\":16141:16159   */\n      swap1\n      keccak256\n      not(0x1f)\n        /* \"#utility.yul\":20974:20994   */\n      dup5\n      and\n      swap1\n        /* \"#utility.yul\":16117:16118   */\n      0x00\n        /* \"#utility.yul\":16110:16124   */\n      dup7\n      dup2\n      mstore\n        /* \"#utility.yul\":16154:16158   */\n      0x20\n        /* \"#utility.yul\":16141:16159   */\n      swap1\n      keccak256\n        /* \"#utility.yul\":21138:21147   */\n      dup5\n        /* \"#utility.yul\":21160:21411   */\n    tag_629:\n        /* \"#utility.yul\":21174:21181   */\n      dup4\n        /* \"#utility.yul\":21171:21172   */\n      dup2\n        /* \"#utility.yul\":21168:21182   */\n      lt\n        /* \"#utility.yul\":21160:21411   */\n      iszero\n      tag_631\n      jumpi\n        /* \"#utility.yul\":21256:21277   */\n      dup3\n      dup7\n      add\n        /* \"#utility.yul\":21250:21278   */\n      sload\n        /* \"#utility.yul\":21235:21279   */\n      dup3\n      sstore\n        /* \"#utility.yul\":21306:21307   */\n      0x01\n        /* \"#utility.yul\":21379:21397   */\n      swap6\n      dup7\n      add\n      swap6\n        /* \"#utility.yul\":21334:21349   */\n      swap1\n      swap2\n      add\n      swap1\n        /* \"#utility.yul\":21197:21201   */\n      0x20\n        /* \"#utility.yul\":21190:21202   */\n      add\n        /* \"#utility.yul\":21160:21411   */\n      jump(tag_629)\n    tag_631:\n        /* \"#utility.yul\":21164:21167   */\n      pop\n        /* \"#utility.yul\":21439:21445   */\n      dup6\n        /* \"#utility.yul\":21430:21437   */\n      dup4\n        /* \"#utility.yul\":21427:21446   */\n      lt\n        /* \"#utility.yul\":21424:21634   */\n      iszero\n      tag_632\n      jumpi\n        /* \"#utility.yul\":21500:21521   */\n      dup2\n      dup6\n      add\n        /* \"#utility.yul\":21494:21522   */\n      sload\n        /* \"#utility.yul\":21596:21597   */\n      0x08\n        /* \"#utility.yul\":21611:21613   */\n      0x1f\n        /* \"#utility.yul\":21599:21614   */\n      dup9\n      and\n        /* \"#utility.yul\":21592:21615   */\n      mul\n        /* \"#utility.yul\":21589:21590   */\n      0x02\n        /* \"#utility.yul\":21585:21616   */\n      exp\n      not(0x00)\n        /* \"#utility.yul\":21573:21617   */\n      div\n        /* \"#utility.yul\":21569:21618   */\n      not\n        /* \"#utility.yul\":21554:21619   */\n      and\n        /* \"#utility.yul\":21539:21620   */\n      dup2\n      sstore\n        /* \"#utility.yul\":21424:21634   */\n    tag_632:\n      pop\n      pop\n      pop\n        /* \"#utility.yul\":21680:21681   */\n      0x01\n        /* \"#utility.yul\":21676:21677   */\n      0x02\n        /* \"#utility.yul\":21668:21674   */\n      dup5\n        /* \"#utility.yul\":21664:21678   */\n      mul\n        /* \"#utility.yul\":21660:21682   */\n      add\n        /* \"#utility.yul\":21654:21658   */\n      dup5\n        /* \"#utility.yul\":21647:21683   */\n      sstore\n        /* \"#utility.yul\":20908:21944   */\n    tag_623:\n      pop\n      pop\n      pop\n        /* \"#utility.yul\":20508:21950   */\n      pop\n      pop\n      jump\t// out\n\n    auxdata: 0xa2646970667358221220dd769fc4aaebec864cd1d8529354227a8e1702c54f35de7719de5eea3391abb164736f6c63430008140033\n}\n",
				"bytecode": {
					"linkReferences": {},
					"object": "608060405234801561001057600080fd5b5060008054600160a060020a031916339081178255604051909182917f8be0079c531659141344cd1fd0a4f28419497f9722a3daafe3b4186f6b6457e0908290a350612f6e806100616000396000f3fe608060405234801561001057600080fd5b506004361061020d576000357c0100000000000000000000000000000000000000000000000000000000900480636b105c811161012c578063b44e7d09116100bf578063e2ed5a4e1161008e578063e2ed5a4e146104d9578063f0a47f78146104ec578063f20122861461050f578063f2fde38b1461053857600080fd5b8063b44e7d0914610475578063dba8c55f14610488578063dcc63a161461049b578063dd62ed3e146104ae57600080fd5b80638da5cb5b116100fb5780638da5cb5b1461040e578063981059ee1461041f578063a59742df1461043f578063b264a4a51461045257600080fd5b80636b105c81146103cd57806370480275146103e0578063715018a6146103f357806375e7c425146103fb57600080fd5b80633bc6e309116101a45780635407b304116101735780635407b3041461036f5780635ba7515614610392578063659cc07b146103a557806368fdbd70146103b857600080fd5b80633bc6e3091461030f578063416d6499146103225780634a5ad49e1461033757806352ff68461461035c57600080fd5b80631785f53c116101e05780631785f53c1461029957806324d7806c146102ae578063261ca633146102d157806327f83af9146102fc57600080fd5b8063041c2ee0146102125780630740c8cf1461024e578063095ea7b3146102615780631145d39a14610284575b600080fd5b61023b6102203660046125c8565b600160a060020a031660009081526009602052604090205490565b6040519081526020015b60405180910390f35b61023b61025c3660046125ea565b61054b565b61027461026f3660046125ea565b61057c565b6040519015158152602001610245565b61028c6105ab565b604051610245919061265a565b6102ac6102a73660046125c8565b6108b6565b005b6102746102bc3660046125c8565b60016020526000908152604090205460ff1681565b6102e46102df366004612703565b610935565b604051600160a060020a039091168152602001610245565b6102ac61030a3660046125ea565b61095f565b6102ac61031d3660046125c8565b610a54565b61032a610ad3565b604051610245919061271c565b61034a6103453660046125ea565b610d57565b604051610245969594939291906127f9565b6102ac61036a3660046125c8565b610e46565b61027461037d366004612703565b60066020526000908152604090205460ff1681565b6102ac6103a03660046128e5565b610f32565b61032a6103b33660046125c8565b6111c5565b6103c0611513565b6040516102459190612946565b6102ac6103db3660046125ea565b61156b565b6102ac6103ee3660046125c8565b611682565b6102ac6116fe565b6102ac61040936600461298a565b611782565b600054600160a060020a03166102e4565b61043261042d366004612703565b611993565b60405161024591906129d1565b61028c61044d3660046125c8565b611aac565b610465610460366004612703565b611c58565b6040516102459493929190612a17565b6102ac610483366004612a43565b611d09565b6102ac6104963660046125ea565b611ec8565b6102ac6104a9366004612a76565b61218d565b61023b6104bc366004612ac6565b600860209081526000928352604080842090915290825290205481565b61023b6104e7366004612703565b6122c9565b6102746104fa3660046125c8565b60056020526000908152604090205460ff1681565b61052261051d3660046125ea565b6122ea565b6040516102459a99989796959493929190612af9565b6102ac6105463660046125c8565b612465565b6004602052816000526040600020818154811061056757600080fd5b90600052602060002001600091509150505481565b336000908152600860209081526040808320600160a060020a0386168452909152902081905560015b92915050565b60606000805b600a548110156106155760096000600a83815481106105d2576105d2612b6a565b6000918252602080832090910154600160a060020a031683528201929092526040019020546106019083612b9c565b91508061060d81612baf565b9150506105b1565b5060008167ffffffffffffffff8111156106315761063161283f565b6040519080825280602002602001820160405280156106a857816020015b6106956040518060c001604052806000600160a060020a031681526020016000815260200160608152602001600015158152602001600015158152602001600081525090565b81526020019060019003908161064f5790505b5090506000805b600a548110156108ad5760005b60096000600a84815481106106d3576106d3612b6a565b6000918252602080832090910154600160a060020a0316835282019290925260400190205481101561089a5760096000600a848154811061071657610716612b6a565b6000918252602080832090910154600160a060020a03168352820192909252604001902080548290811061074c5761074c612b6a565b90600052602060002090600502016040518060c00160405290816000820160009054906101000a9004600160a060020a0316600160a060020a0316600160a060020a03168152602001600182015481526020016002820180546107ae90612bc8565b80601f01602080910402602001604051908101604052809291908181526020018280546107da90612bc8565b80156108275780601f106107fc57610100808354040283529160200191610827565b820191906000526020600020905b81548152906001019060200180831161080a57829003601f168201915b5050509183525050600382015460ff808216151560208401526101009091041615156040820152600490910154606090910152845185908590811061086e5761086e612b6a565b6020026020010181905250828061088490612baf565b935050808061089290612baf565b9150506106bc565b50806108a581612baf565b9150506106af565b50909392505050565b600054600160a060020a031633146108ec5760405160e560020a62461bcd0281526004016108e390612c05565b60405180910390fd5b600160a060020a038116600081815260016020526040808220805460ff19169055517fa3b62bc36326052d97ea62d63c3d60308ed4c3ea8ac079dd8499f1e9c4f80c0f9190a250565b600a818154811061094557600080fd5b600091825260209091200154600160a060020a0316905081565b3360009081526001602052604090205460ff166109915760405160e560020a62461bcd0281526004016108e390612c3c565b600160a060020a03821660009081526003602081815260408084208585529091528220015490036109d75760405160e560020a62461bcd0281526004016108e390612c73565b600160a060020a038216600090815260036020908152604080832084845290915290206006015460ff1615610a215760405160e560020a62461bcd0281526004016108e390612caa565b600160a060020a03909116600090815260036020908152604080832093835292905220600601805460ff19166001179055565b3360009081526001602052604090205460ff16610a865760405160e560020a62461bcd0281526004016108e390612c3c565b600160a060020a038116610aaf5760405160e560020a62461bcd0281526004016108e390612ce1565b600160a060020a03166000908152600560205260409020805460ff19166001179055565b336000908152600460205260409020546060908067ffffffffffffffff811115610aff57610aff61283f565b604051908082528060200260200182016040528015610b3857816020015b610b25612553565b815260200190600190039081610b1d5790505b50915060005b81811015610d5257336000908152600460205260408120805483908110610b6757610b67612b6a565b600091825260208083209091015433835260038083526040808520838652845293849020845161014081018652815481526001820154948101949094526002810154948401949094528301546060830152600483015460ff90811615156080840152600584015460a0840152600684015416151560c083015260078301805491945091929160e0840191610bfa90612bc8565b80601f0160208091040260200160405190810160405280929190818152602001828054610c2690612bc8565b8015610c735780601f10610c4857610100808354040283529160200191610c73565b820191906000526020600020905b815481529060010190602001808311610c5657829003601f168201915b5050509183525050600882015460ff1615156020820152600982018054604090920191610c9f90612bc8565b80601f0160208091040260200160405190810160405280929190818152602001828054610ccb90612bc8565b8015610d185780601f10610ced57610100808354040283529160200191610d18565b820191906000526020600020905b815481529060010190602001808311610cfb57829003601f168201915b505050505081525050848381518110610d3357610d33612b6a565b6020026020010181905250508080610d4a90612baf565b915050610b3e565b505090565b60096020528160005260406000208181548110610d7357600080fd5b6000918252602090912060059091020180546001820154600283018054600160a060020a03909316955090935090610daa90612bc8565b80601f0160208091040260200160405190810160405280929190818152602001828054610dd690612bc8565b8015610e235780601f10610df857610100808354040283529160200191610e23565b820191906000526020600020905b815481529060010190602001808311610e0657829003601f168201915b505050506003830154600490930154919260ff8082169361010090920416915086565b3360009081526001602052604090205460ff16610e785760405160e560020a62461bcd0281526004016108e390612c3c565b600160a060020a038116610ea15760405160e560020a62461bcd0281526004016108e390612ce1565b600160a060020a03811660009081526005602052604090205460ff161515600114610f115760405160e560020a62461bcd02815260206004820152601960248201527f6164647265737320617265206e6f74206120746561636865720000000000000060448201526064016108e3565b600160a060020a03166000908152600560205260409020805460ff19169055565b3360009081526005602052604090205460ff16610f945760405160e560020a62461bcd02815260206004820152600d60248201527f4e6f74206120746561636865720000000000000000000000000000000000000060448201526064016108e3565b600160a060020a038416610fbd5760405160e560020a62461bcd0281526004016108e390612ce1565b60008381526006602052604090205460ff1615156001146110235760405160e560020a62461bcd02815260206004820152600f60248201527f636f75727365206e6f742065786974000000000000000000000000000000000060448201526064016108e3565b60008381526002602081905260408220015442916110418286612d18565b905060405180610140016040528087815260200182815260200186815260200184815260200160001515815260200160008152602001600015158152602001858152602001600015158152602001604051806020016040528060008152508152506003600089600160a060020a0316600160a060020a0316815260200190815260200160002060008881526020019081526020016000206000820151816000015560208201518160010155604082015181600201556060820151816003015560808201518160040160006101000a81548160ff02191690831515021790555060a0820151816005015560c08201518160060160006101000a81548160ff02191690831515021790555060e082015181600701908161115f9190612d7e565b5061010082015160088201805460ff1916911515919091179055610120820151600982019061118e9082612d7e565b505050600160a060020a03909616600090815260046020908152604082208054600181018255908352912001949094555050505050565b600160a060020a038116600090815260086020908152604080832033845290915290205460609061123b5760405160e560020a62461bcd02815260206004820152601560248201527f796f7520646f206e6f7420626520616c6c6f776564000000000000000000000060448201526064016108e3565b600160a060020a0382166000908152600460205260409020548067ffffffffffffffff81111561126d5761126d61283f565b6040519080825280602002602001820160405280156112a657816020015b611293612553565b81526020019060019003908161128b5790505b50915060005b818110156114d257600160a060020a03841660009081526004602052604081208054839081106112de576112de612b6a565b6000918252602080832090910154600160a060020a038816835260038083526040808520838652845293849020845161014081018652815481526001820154948101949094526002810154948401949094528301546060830152600483015460ff90811615156080840152600584015460a0840152600684015416151560c083015260078301805491945091929160e084019161137a90612bc8565b80601f01602080910402602001604051908101604052809291908181526020018280546113a690612bc8565b80156113f35780601f106113c8576101008083540402835291602001916113f3565b820191906000526020600020905b8154815290600101906020018083116113d657829003601f168201915b5050509183525050600882015460ff161515602082015260098201805460409092019161141f90612bc8565b80601f016020809104026020016040519081016040528092919081815260200182805461144b90612bc8565b80156114985780601f1061146d57610100808354040283529160200191611498565b820191906000526020600020905b81548152906001019060200180831161147b57829003601f168201915b5050505050815250508483815181106114b3576114b3612b6a565b60200260200101819052505080806114ca90612baf565b9150506112ac565b50600160a060020a03831660009081526008602090815260408083203384529091528120805460019290611507908490612e44565b90915550919392505050565b6060600780548060200260200160405190810160405280929190818152602001828054801561156157602002820191906000526020600020905b81548152602001906001019080831161154d575b5050505050905090565b3360009081526001602052604090205460ff1661159d5760405160e560020a62461bcd0281526004016108e390612c3c565b600160a060020a03821660009081526009602052604090208054829081106115c7576115c7612b6a565b600091825260209091206003600590920201015460ff161561162e5760405160e560020a62461bcd02815260206004820152601960248201527f5472616e7366657220616c726561647920617070726f7665640000000000000060448201526064016108e3565b600160a060020a03821660009081526009602052604090208054600191908390811061165c5761165c612b6a565b60009182526020909120600590910201600301805460ff19169115159190911790555050565b600054600160a060020a031633146116af5760405160e560020a62461bcd0281526004016108e390612c05565b600160a060020a0381166000818152600160208190526040808320805460ff1916909217909155517f44d6d25963f097ad14f29f06854a01f575648a1ef82f30e562ccd3889717e3399190a250565b600054600160a060020a0316331461172b5760405160e560020a62461bcd0281526004016108e390612c05565b60008054604051600160a060020a03909116907f8be0079c531659141344cd1fd0a4f28419497f9722a3daafe3b4186f6b6457e0908390a36000805473ffffffffffffffffffffffffffffffffffffffff19169055565b3360009081526003602081815260408084208685529091528220015490036117bf5760405160e560020a62461bcd0281526004016108e390612c73565b33600090815260036020908152604080832085845290915290206006015460ff16156118005760405160e560020a62461bcd0281526004016108e390612caa565b3360008181526009602090815260408083208054825160c081018452958652858401888152928601878152606087018690526080870186905260a087018290526001808301845592865293909420855160058602909101805473ffffffffffffffffffffffffffffffffffffffff1916600160a060020a039092169190911781559151908201559051919291600282019061189b9082612d7e565b506060820151600382018054608085015115156101000261ff00199315159390931661ffff199091161791909117905560a0909101516004909101556000805b600a548110156119375733600160a060020a0316600a828154811061190257611902612b6a565b600091825260209091200154600160a060020a0316036119255760019150611937565b8061192f81612baf565b9150506118db565b508061198d57600a80546001810182556000919091527fc65a7bb8d6351c1cf70c95a316cc6a92839c986682d98bc35f958f4883f9d2a801805473ffffffffffffffffffffffffffffffffffffffff1916331790555b50505050565b6119be6040518060800160405280600081526020016060815260200160008152602001600081525090565b6000828152600660205260409020805460ff191660011790556002600083815260200190815260200160002060405180608001604052908160008201548152602001600182018054611a0f90612bc8565b80601f0160208091040260200160405190810160405280929190818152602001828054611a3b90612bc8565b8015611a885780601f10611a5d57610100808354040283529160200191611a88565b820191906000526020600020905b815481529060010190602001808311611a6b57829003601f168201915b50505050508152602001600282015481526020016003820154815250509050919050565b6060600160a060020a038216611b075760405160e560020a62461bcd02815260206004820152601760248201527f496e76616c69642073747564656e74206164647265737300000000000000000060448201526064016108e3565b600160a060020a038216600090815260096020908152604080832080548251818502810185019093528083529193909284015b82821015611c4d5760008481526020908190206040805160c081018252600586029092018054600160a060020a0316835260018101549383019390935260028301805492939291840191611b8d90612bc8565b80601f0160208091040260200160405190810160405280929190818152602001828054611bb990612bc8565b8015611c065780601f10611bdb57610100808354040283529160200191611c06565b820191906000526020600020905b815481529060010190602001808311611be957829003601f168201915b5050509183525050600382015460ff808216151560208085019190915261010090920416151560408301526004909201546060909101529082526001929092019101611b3a565b505050509050919050565b60026020526000908152604090208054600182018054919291611c7a90612bc8565b80601f0160208091040260200160405190810160405280929190818152602001828054611ca690612bc8565b8015611cf35780601f10611cc857610100808354040283529160200191611cf3565b820191906000526020600020905b815481529060010190602001808311611cd657829003601f168201915b5050505050908060020154908060030154905084565b3360009081526005602052604090205460ff16611d6b5760405160e560020a62461bcd02815260206004820152600d60248201527f4e6f74206120746561636865720000000000000000000000000000000000000060448201526064016108e3565b600160a060020a0383166000908152600360208181526040808420868552909152822001549003611db15760405160e560020a62461bcd0281526004016108e390612c73565b600160a060020a038316611dda5760405160e560020a62461bcd0281526004016108e390612ce1565b600160a060020a038316600090815260036020908152604080832085845290915290206006015460ff1615611e245760405160e560020a62461bcd0281526004016108e390612caa565b600160a060020a0383166000908152600360209081526040808320858452909152812060050154611e56906001612b9c565b60008481526002602081905260408220015491925090611e769084612d18565b600160a060020a039590951660009081526003602090815260408083209683529590529390932060018082019590955560058101919091556002810191909155600401805460ff191690921790915550565b3360009081526001602052604090205460ff16611efa5760405160e560020a62461bcd0281526004016108e390612c3c565b600160a060020a0382166000908152600960205260409020805482908110611f2457611f24612b6a565b600091825260209091206003600590920201015460ff16611f8a5760405160e560020a62461bcd02815260206004820152601560248201527f5472616e73666572206e6f7420617070726f766564000000000000000000000060448201526064016108e3565b600160a060020a0382166000908152600960205260409020805482908110611fb457611fb4612b6a565b906000526020600020906005020160030160019054906101000a900460ff16156120235760405160e560020a62461bcd02815260206004820152601960248201527f5472616e7366657220616c72656164792065786563757465640000000000000060448201526064016108e3565b600160a060020a038216600090815260096020526040902080548290811061204d5761204d612b6a565b60009182526020808320600160a060020a03861684526003825260408085206009909352842080546005949094029091016002019391928590811061209457612094612b6a565b906000526020600020906005020160010154815260200190815260200160002060090190816120c39190612e57565b50600160a060020a0382166000908152600960205260409020805460019190839081106120f2576120f2612b6a565b600091825260208083206003600590930201820180549415156101000261ff001990951694909417909355600160a060020a0385168252825260408082206009909352812080546001939291908590811061214f5761214f612b6a565b906000526020600020906005020160010154815260200190815260200160002060080160006101000a81548160ff0219169083151502179055505050565b3360009081526001602052604090205460ff166121bf5760405160e560020a62461bcd0281526004016108e390612c3c565b60008381526006602052604090205460ff16156122215760405160e560020a62461bcd02815260206004820152601560248201527f436f7572736520616c726561647920657869737473000000000000000000000060448201526064016108e3565b6000838152600660209081526040808320805460ff19166001908117909155600780548083019091557fa66cc928b5edb82af9bd49922954155ab7b0942694bea4ce44661d9a8736c68801879055815160808101835287815280840186815281840188905242606083015288865260029094529190932081518155915190928201906122ad9082612d7e565b5060408201516002820155606090910151600390910155505050565b600781815481106122d957600080fd5b600091825260209091200154905081565b6003602081815260009384526040808520909152918352912080546001820154600283015493830154600484015460058501546006860154600787018054969895979596949560ff9485169593949092169261234590612bc8565b80601f016020809104026020016040519081016040528092919081815260200182805461237190612bc8565b80156123be5780601f10612393576101008083540402835291602001916123be565b820191906000526020600020905b8154815290600101906020018083116123a157829003601f168201915b5050506008840154600985018054949560ff9092169491935091506123e290612bc8565b80601f016020809104026020016040519081016040528092919081815260200182805461240e90612bc8565b801561245b5780601f106124305761010080835404028352916020019161245b565b820191906000526020600020905b81548152906001019060200180831161243e57829003601f168201915b505050505090508a565b600054600160a060020a031633146124925760405160e560020a62461bcd0281526004016108e390612c05565b600160a060020a0381166124eb5760405160e560020a62461bcd02815260206004820152600860248201527f6e6577206973203000000000000000000000000000000000000000000000000060448201526064016108e3565b60008054604051600160a060020a03808516939216917f8be0079c531659141344cd1fd0a4f28419497f9722a3daafe3b4186f6b6457e091a36000805473ffffffffffffffffffffffffffffffffffffffff1916600160a060020a0392909216919091179055565b604051806101400160405280600081526020016000815260200160008152602001600081526020016000151581526020016000815260200160001515815260200160608152602001600015158152602001606081525090565b8035600160a060020a03811681146125c357600080fd5b919050565b6000602082840312156125da57600080fd5b6125e3826125ac565b9392505050565b600080604083850312156125fd57600080fd5b612606836125ac565b946020939093013593505050565b6000815180845260005b8181101561263a5760208185018101518683018201520161261e565b506000602082860101526020601f19601f83011685010191505092915050565b60208082528251828201819052600091906040908185019080840286018301878501865b838110156126f557603f19898403018552815160c0600160a060020a03825116855288820151898601528782015181898701526126bd82870182612614565b60608481015115159088015260808085015115159088015260a09384015193909601929092525050938601939086019060010161267e565b509098975050505050505050565b60006020828403121561271557600080fd5b5035919050565b60208082528251828201819052600091906040908185019080840286018301878501865b838110156126f557603f19898403018552815180518452878101518885015286810151878501526060808201519085015260808082015115159085015260a0808201519085015260c08082015115159085015260e08082015161014082870181905291906127b083880182612614565b92505050610100808301516127c88288018215159052565b505061012080830151925085820381870152506127e58183612614565b968901969450505090860190600101612740565b600160a060020a038716815285602082015260c06040820152600061282160c0830187612614565b941515606083015250911515608083015260a0909101529392505050565b60e060020a634e487b7102600052604160045260246000fd5b600082601f83011261286957600080fd5b813567ffffffffffffffff808211156128845761288461283f565b604051601f8301601f19908116603f011681019082821181831017156128ac576128ac61283f565b816040528381528660208588010111156128c557600080fd5b836020870160208301376000602085830101528094505050505092915050565b600080600080608085870312156128fb57600080fd5b612904856125ac565b93506020850135925060408501359150606085013567ffffffffffffffff81111561292e57600080fd5b61293a87828801612858565b91505092959194509250565b6020808252825182820181905260009190848201906040850190845b8181101561297e57835183529284019291840191600101612962565b50909695505050505050565b6000806040838503121561299d57600080fd5b82359150602083013567ffffffffffffffff8111156129bb57600080fd5b6129c785828601612858565b9150509250929050565b602081528151602082015260006020830151608060408401526129f760a0840182612614565b905060408401516060840152606084015160808401528091505092915050565b848152608060208201526000612a306080830186612614565b6040830194909452506060015292915050565b600080600060608486031215612a5857600080fd5b612a61846125ac565b95602085013595506040909401359392505050565b600080600060608486031215612a8b57600080fd5b8335925060208401359150604084013567ffffffffffffffff811115612ab057600080fd5b612abc86828701612858565b9150509250925092565b60008060408385031215612ad957600080fd5b612ae2836125ac565b9150612af0602084016125ac565b90509250929050565b60006101408c83528b60208401528a604084015289606084015288151560808401528760a084015286151560c08401528060e0840152612b3b81840187612614565b9050841515610100840152828103610120840152612b598185612614565b9d9c50505050505050505050505050565b60e060020a634e487b7102600052603260045260246000fd5b60e060020a634e487b7102600052601160045260246000fd5b808201808211156105a5576105a5612b83565b600060018201612bc157612bc1612b83565b5060010190565b600281046001821680612bdc57607f821691505b602082108103612bff5760e060020a634e487b7102600052602260045260246000fd5b50919050565b60208082526006908201527f216f776e65720000000000000000000000000000000000000000000000000000604082015260600190565b6020808252600c908201527f4e6f7420616e2061646d696e0000000000000000000000000000000000000000604082015260600190565b60208082526015908201527f43726564697420646f6573206e6f742065786973740000000000000000000000604082015260600190565b60208082526016908201527f43726564697420616c7265616479207265766f6b656400000000000000000000604082015260600190565b6020808252600f908201527f496e76616c696420616464726573730000000000000000000000000000000000604082015260600190565b80820281158282048414176105a5576105a5612b83565b601f821115612d79576000818152602081206020601f86010481016020861015612d565750805b6020601f860104820191505b81811015612d7557828155600101612d62565b5050505b505050565b815167ffffffffffffffff811115612d9857612d9861283f565b612dac81612da68454612bc8565b84612d2f565b602080601f831160018114612de55760008415612dc95750858301515b60028086026008870290910a6000190419821617865550612d75565b600085815260208120601f198616915b82811015612e1457888601518255948401946001909101908401612df5565b5085821015612e3457878501516008601f88160260020a60001904191681555b5050505050600202600101905550565b818103818111156105a5576105a5612b83565b818103612e62575050565b612e6c8254612bc8565b67ffffffffffffffff811115612e8457612e8461283f565b612e9281612da68454612bc8565b6000601f821160018114612eca5760008315612eae5750848201545b60028085026008860290910a6000190419821617855550612f31565b600085815260209020601f19841690600086815260209020845b83811015612f045782860154825560019586019590910190602001612ee4565b5085831015612f2457818501546008601f88160260020a60001904191681555b5050506001600284020184555b505050505056fea2646970667358221220dd769fc4aaebec864cd1d8529354227a8e1702c54f35de7719de5eea3391abb164736f6c63430008140033",
					"opcodes": "PUSH1 0x80 PUSH1 0x40 MSTORE CALLVALUE DUP1 ISZERO PUSH2 0x10 JUMPI PUSH1 0x0 DUP1 REVERT JUMPDEST POP PUSH1 0x0 DUP1 SLOAD PUSH1 0x1 PUSH1 0xA0 PUSH1 0x2 EXP SUB NOT AND CALLER SWAP1 DUP2 OR DUP3 SSTORE PUSH1 0x40 MLOAD SWAP1 SWAP2 DUP3 SWAP2 PUSH32 0x8BE0079C531659141344CD1FD0A4F28419497F9722A3DAAFE3B4186F6B6457E0 SWAP1 DUP3 SWAP1 LOG3 POP PUSH2 0x2F6E DUP1 PUSH2 0x61 PUSH1 0x0 CODECOPY PUSH1 0x0 RETURN INVALID PUSH1 0x80 PUSH1 0x40 MSTORE CALLVALUE DUP1 ISZERO PUSH2 0x10 JUMPI PUSH1 0x0 DUP1 REVERT JUMPDEST POP PUSH1 0x4 CALLDATASIZE LT PUSH2 0x20D JUMPI PUSH1 0x0 CALLDATALOAD PUSH29 0x100000000000000000000000000000000000000000000000000000000 SWAP1 DIV DUP1 PUSH4 0x6B105C81 GT PUSH2 0x12C JUMPI DUP1 PUSH4 0xB44E7D09 GT PUSH2 0xBF JUMPI DUP1 PUSH4 0xE2ED5A4E GT PUSH2 0x8E JUMPI DUP1 PUSH4 0xE2ED5A4E EQ PUSH2 0x4D9 JUMPI DUP1 PUSH4 0xF0A47F78 EQ PUSH2 0x4EC JUMPI DUP1 PUSH4 0xF2012286 EQ PUSH2 0x50F JUMPI DUP1 PUSH4 0xF2FDE38B EQ PUSH2 0x538 JUMPI PUSH1 0x0 DUP1 REVERT JUMPDEST DUP1 PUSH4 0xB44E7D09 EQ PUSH2 0x475 JUMPI DUP1 PUSH4 0xDBA8C55F EQ PUSH2 0x488 JUMPI DUP1 PUSH4 0xDCC63A16 EQ PUSH2 0x49B JUMPI DUP1 PUSH4 0xDD62ED3E EQ PUSH2 0x4AE JUMPI PUSH1 0x0 DUP1 REVERT JUMPDEST DUP1 PUSH4 0x8DA5CB5B GT PUSH2 0xFB JUMPI DUP1 PUSH4 0x8DA5CB5B EQ PUSH2 0x40E JUMPI DUP1 PUSH4 0x981059EE EQ PUSH2 0x41F JUMPI DUP1 PUSH4 0xA59742DF EQ PUSH2 0x43F JUMPI DUP1 PUSH4 0xB264A4A5 EQ PUSH2 0x452 JUMPI PUSH1 0x0 DUP1 REVERT JUMPDEST DUP1 PUSH4 0x6B105C81 EQ PUSH2 0x3CD JUMPI DUP1 PUSH4 0x70480275 EQ PUSH2 0x3E0 JUMPI DUP1 PUSH4 0x715018A6 EQ PUSH2 0x3F3 JUMPI DUP1 PUSH4 0x75E7C425 EQ PUSH2 0x3FB JUMPI PUSH1 0x0 DUP1 REVERT JUMPDEST DUP1 PUSH4 0x3BC6E309 GT PUSH2 0x1A4 JUMPI DUP1 PUSH4 0x5407B304 GT PUSH2 0x173 JUMPI DUP1 PUSH4 0x5407B304 EQ PUSH2 0x36F JUMPI DUP1 PUSH4 0x5BA75156 EQ PUSH2 0x392 JUMPI DUP1 PUSH4 0x659CC07B EQ PUSH2 0x3A5 JUMPI DUP1 PUSH4 0x68FDBD70 EQ PUSH2 0x3B8 JUMPI PUSH1 0x0 DUP1 REVERT JUMPDEST DUP1 PUSH4 0x3BC6E309 EQ PUSH2 0x30F JUMPI DUP1 PUSH4 0x416D6499 EQ PUSH2 0x322 JUMPI DUP1 PUSH4 0x4A5AD49E EQ PUSH2 0x337 JUMPI DUP1 PUSH4 0x52FF6846 EQ PUSH2 0x35C JUMPI PUSH1 0x0 DUP1 REVERT JUMPDEST DUP1 PUSH4 0x1785F53C GT PUSH2 0x1E0 JUMPI DUP1 PUSH4 0x1785F53C EQ PUSH2 0x299 JUMPI DUP1 PUSH4 0x24D7806C EQ PUSH2 0x2AE JUMPI DUP1 PUSH4 0x261CA633 EQ PUSH2 0x2D1 JUMPI DUP1 PUSH4 0x27F83AF9 EQ PUSH2 0x2FC JUMPI PUSH1 0x0 DUP1 REVERT JUMPDEST DUP1 PUSH4 0x41C2EE0 EQ PUSH2 0x212 JUMPI DUP1 PUSH4 0x740C8CF EQ PUSH2 0x24E JUMPI DUP1 PUSH4 0x95EA7B3 EQ PUSH2 0x261 JUMPI DUP1 PUSH4 0x1145D39A EQ PUSH2 0x284 JUMPI JUMPDEST PUSH1 0x0 DUP1 REVERT JUMPDEST PUSH2 0x23B PUSH2 0x220 CALLDATASIZE PUSH1 0x4 PUSH2 0x25C8 JUMP JUMPDEST PUSH1 0x1 PUSH1 0xA0 PUSH1 0x2 EXP SUB AND PUSH1 0x0 SWAP1 DUP2 MSTORE PUSH1 0x9 PUSH1 0x20 MSTORE PUSH1 0x40 SWAP1 KECCAK256 SLOAD SWAP1 JUMP JUMPDEST PUSH1 0x40 MLOAD SWAP1 DUP2 MSTORE PUSH1 0x20 ADD JUMPDEST PUSH1 0x40 MLOAD DUP1 SWAP2 SUB SWAP1 RETURN JUMPDEST PUSH2 0x23B PUSH2 0x25C CALLDATASIZE PUSH1 0x4 PUSH2 0x25EA JUMP JUMPDEST PUSH2 0x54B JUMP JUMPDEST PUSH2 0x274 PUSH2 0x26F CALLDATASIZE PUSH1 0x4 PUSH2 0x25EA JUMP JUMPDEST PUSH2 0x57C JUMP JUMPDEST PUSH1 0x40 MLOAD SWAP1 ISZERO ISZERO DUP2 MSTORE PUSH1 0x20 ADD PUSH2 0x245 JUMP JUMPDEST PUSH2 0x28C PUSH2 0x5AB JUMP JUMPDEST PUSH1 0x40 MLOAD PUSH2 0x245 SWAP2 SWAP1 PUSH2 0x265A JUMP JUMPDEST PUSH2 0x2AC PUSH2 0x2A7 CALLDATASIZE PUSH1 0x4 PUSH2 0x25C8 JUMP JUMPDEST PUSH2 0x8B6 JUMP JUMPDEST STOP JUMPDEST PUSH2 0x274 PUSH2 0x2BC CALLDATASIZE PUSH1 0x4 PUSH2 0x25C8 JUMP JUMPDEST PUSH1 0x1 PUSH1 0x20 MSTORE PUSH1 0x0 SWAP1 DUP2 MSTORE PUSH1 0x40 SWAP1 KECCAK256 SLOAD PUSH1 0xFF AND DUP2 JUMP JUMPDEST PUSH2 0x2E4 PUSH2 0x2DF CALLDATASIZE PUSH1 0x4 PUSH2 0x2703 JUMP JUMPDEST PUSH2 0x935 JUMP JUMPDEST PUSH1 0x40 MLOAD PUSH1 0x1 PUSH1 0xA0 PUSH1 0x2 EXP SUB SWAP1 SWAP2 AND DUP2 MSTORE PUSH1 0x20 ADD PUSH2 0x245 JUMP JUMPDEST PUSH2 0x2AC PUSH2 0x30A CALLDATASIZE PUSH1 0x4 PUSH2 0x25EA JUMP JUMPDEST PUSH2 0x95F JUMP JUMPDEST PUSH2 0x2AC PUSH2 0x31D CALLDATASIZE PUSH1 0x4 PUSH2 0x25C8 JUMP JUMPDEST PUSH2 0xA54 JUMP JUMPDEST PUSH2 0x32A PUSH2 0xAD3 JUMP JUMPDEST PUSH1 0x40 MLOAD PUSH2 0x245 SWAP2 SWAP1 PUSH2 0x271C JUMP JUMPDEST PUSH2 0x34A PUSH2 0x345 CALLDATASIZE PUSH1 0x4 PUSH2 0x25EA JUMP JUMPDEST PUSH2 0xD57 JUMP JUMPDEST PUSH1 0x40 MLOAD PUSH2 0x245 SWAP7 SWAP6 SWAP5 SWAP4 SWAP3 SWAP2 SWAP1 PUSH2 0x27F9 JUMP JUMPDEST PUSH2 0x2AC PUSH2 0x36A CALLDATASIZE PUSH1 0x4 PUSH2 0x25C8 JUMP JUMPDEST PUSH2 0xE46 JUMP JUMPDEST PUSH2 0x274 PUSH2 0x37D CALLDATASIZE PUSH1 0x4 PUSH2 0x2703 JUMP JUMPDEST PUSH1 0x6 PUSH1 0x20 MSTORE PUSH1 0x0 SWAP1 DUP2 MSTORE PUSH1 0x40 SWAP1 KECCAK256 SLOAD PUSH1 0xFF AND DUP2 JUMP JUMPDEST PUSH2 0x2AC PUSH2 0x3A0 CALLDATASIZE PUSH1 0x4 PUSH2 0x28E5 JUMP JUMPDEST PUSH2 0xF32 JUMP JUMPDEST PUSH2 0x32A PUSH2 0x3B3 CALLDATASIZE PUSH1 0x4 PUSH2 0x25C8 JUMP JUMPDEST PUSH2 0x11C5 JUMP JUMPDEST PUSH2 0x3C0 PUSH2 0x1513 JUMP JUMPDEST PUSH1 0x40 MLOAD PUSH2 0x245 SWAP2 SWAP1 PUSH2 0x2946 JUMP JUMPDEST PUSH2 0x2AC PUSH2 0x3DB CALLDATASIZE PUSH1 0x4 PUSH2 0x25EA JUMP JUMPDEST PUSH2 0x156B JUMP JUMPDEST PUSH2 0x2AC PUSH2 0x3EE CALLDATASIZE PUSH1 0x4 PUSH2 0x25C8 JUMP JUMPDEST PUSH2 0x1682 JUMP JUMPDEST PUSH2 0x2AC PUSH2 0x16FE JUMP JUMPDEST PUSH2 0x2AC PUSH2 0x409 CALLDATASIZE PUSH1 0x4 PUSH2 0x298A JUMP JUMPDEST PUSH2 0x1782 JUMP JUMPDEST PUSH1 0x0 SLOAD PUSH1 0x1 PUSH1 0xA0 PUSH1 0x2 EXP SUB AND PUSH2 0x2E4 JUMP JUMPDEST PUSH2 0x432 PUSH2 0x42D CALLDATASIZE PUSH1 0x4 PUSH2 0x2703 JUMP JUMPDEST PUSH2 0x1993 JUMP JUMPDEST PUSH1 0x40 MLOAD PUSH2 0x245 SWAP2 SWAP1 PUSH2 0x29D1 JUMP JUMPDEST PUSH2 0x28C PUSH2 0x44D CALLDATASIZE PUSH1 0x4 PUSH2 0x25C8 JUMP JUMPDEST PUSH2 0x1AAC JUMP JUMPDEST PUSH2 0x465 PUSH2 0x460 CALLDATASIZE PUSH1 0x4 PUSH2 0x2703 JUMP JUMPDEST PUSH2 0x1C58 JUMP JUMPDEST PUSH1 0x40 MLOAD PUSH2 0x245 SWAP5 SWAP4 SWAP3 SWAP2 SWAP1 PUSH2 0x2A17 JUMP JUMPDEST PUSH2 0x2AC PUSH2 0x483 CALLDATASIZE PUSH1 0x4 PUSH2 0x2A43 JUMP JUMPDEST PUSH2 0x1D09 JUMP JUMPDEST PUSH2 0x2AC PUSH2 0x496 CALLDATASIZE PUSH1 0x4 PUSH2 0x25EA JUMP JUMPDEST PUSH2 0x1EC8 JUMP JUMPDEST PUSH2 0x2AC PUSH2 0x4A9 CALLDATASIZE PUSH1 0x4 PUSH2 0x2A76 JUMP JUMPDEST PUSH2 0x218D JUMP JUMPDEST PUSH2 0x23B PUSH2 0x4BC CALLDATASIZE PUSH1 0x4 PUSH2 0x2AC6 JUMP JUMPDEST PUSH1 0x8 PUSH1 0x20 SWAP1 DUP2 MSTORE PUSH1 0x0 SWAP3 DUP4 MSTORE PUSH1 0x40 DUP1 DUP5 KECCAK256 SWAP1 SWAP2 MSTORE SWAP1 DUP3 MSTORE SWAP1 KECCAK256 SLOAD DUP2 JUMP JUMPDEST PUSH2 0x23B PUSH2 0x4E7 CALLDATASIZE PUSH1 0x4 PUSH2 0x2703 JUMP JUMPDEST PUSH2 0x22C9 JUMP JUMPDEST PUSH2 0x274 PUSH2 0x4FA CALLDATASIZE PUSH1 0x4 PUSH2 0x25C8 JUMP JUMPDEST PUSH1 0x5 PUSH1 0x20 MSTORE PUSH1 0x0 SWAP1 DUP2 MSTORE PUSH1 0x40 SWAP1 KECCAK256 SLOAD PUSH1 0xFF AND DUP2 JUMP JUMPDEST PUSH2 0x522 PUSH2 0x51D CALLDATASIZE PUSH1 0x4 PUSH2 0x25EA JUMP JUMPDEST PUSH2 0x22EA JUMP JUMPDEST PUSH1 0x40 MLOAD PUSH2 0x245 SWAP11 SWAP10 SWAP9 SWAP8 SWAP7 SWAP6 SWAP5 SWAP4 SWAP3 SWAP2 SWAP1 PUSH2 0x2AF9 JUMP JUMPDEST PUSH2 0x2AC PUSH2 0x546 CALLDATASIZE PUSH1 0x4 PUSH2 0x25C8 JUMP JUMPDEST PUSH2 0x2465 JUMP JUMPDEST PUSH1 0x4 PUSH1 0x20 MSTORE DUP2 PUSH1 0x0 MSTORE PUSH1 0x40 PUSH1 0x0 KECCAK256 DUP2 DUP2 SLOAD DUP2 LT PUSH2 0x567 JUMPI PUSH1 0x0 DUP1 REVERT JUMPDEST SWAP1 PUSH1 0x0 MSTORE PUSH1 0x20 PUSH1 0x0 KECCAK256 ADD PUSH1 0x0 SWAP2 POP SWAP2 POP POP SLOAD DUP2 JUMP JUMPDEST CALLER PUSH1 0x0 SWAP1 DUP2 MSTORE PUSH1 0x8 PUSH1 0x20 SWAP1 DUP2 MSTORE PUSH1 0x40 DUP1 DUP4 KECCAK256 PUSH1 0x1 PUSH1 0xA0 PUSH1 0x2 EXP SUB DUP7 AND DUP5 MSTORE SWAP1 SWAP2 MSTORE SWAP1 KECCAK256 DUP2 SWAP1 SSTORE PUSH1 0x1 JUMPDEST SWAP3 SWAP2 POP POP JUMP JUMPDEST PUSH1 0x60 PUSH1 0x0 DUP1 JUMPDEST PUSH1 0xA SLOAD DUP2 LT ISZERO PUSH2 0x615 JUMPI PUSH1 0x9 PUSH1 0x0 PUSH1 0xA DUP4 DUP2 SLOAD DUP2 LT PUSH2 0x5D2 JUMPI PUSH2 0x5D2 PUSH2 0x2B6A JUMP JUMPDEST PUSH1 0x0 SWAP2 DUP3 MSTORE PUSH1 0x20 DUP1 DUP4 KECCAK256 SWAP1 SWAP2 ADD SLOAD PUSH1 0x1 PUSH1 0xA0 PUSH1 0x2 EXP SUB AND DUP4 MSTORE DUP3 ADD SWAP3 SWAP1 SWAP3 MSTORE PUSH1 0x40 ADD SWAP1 KECCAK256 SLOAD PUSH2 0x601 SWAP1 DUP4 PUSH2 0x2B9C JUMP JUMPDEST SWAP2 POP DUP1 PUSH2 0x60D DUP2 PUSH2 0x2BAF JUMP JUMPDEST SWAP2 POP POP PUSH2 0x5B1 JUMP JUMPDEST POP PUSH1 0x0 DUP2 PUSH8 0xFFFFFFFFFFFFFFFF DUP2 GT ISZERO PUSH2 0x631 JUMPI PUSH2 0x631 PUSH2 0x283F JUMP JUMPDEST PUSH1 0x40 MLOAD SWAP1 DUP1 DUP3 MSTORE DUP1 PUSH1 0x20 MUL PUSH1 0x20 ADD DUP3 ADD PUSH1 0x40 MSTORE DUP1 ISZERO PUSH2 0x6A8 JUMPI DUP2 PUSH1 0x20 ADD JUMPDEST PUSH2 0x695 PUSH1 0x40 MLOAD DUP1 PUSH1 0xC0 ADD PUSH1 0x40 MSTORE DUP1 PUSH1 0x0 PUSH1 0x1 PUSH1 0xA0 PUSH1 0x2 EXP SUB AND DUP2 MSTORE PUSH1 0x20 ADD PUSH1 0x0 DUP2 MSTORE PUSH1 0x20 ADD PUSH1 0x60 DUP2 MSTORE PUSH1 0x20 ADD PUSH1 0x0 ISZERO ISZERO DUP2 MSTORE PUSH1 0x20 ADD PUSH1 0x0 ISZERO ISZERO DUP2 MSTORE PUSH1 0x20 ADD PUSH1 0x0 DUP2 MSTORE POP SWAP1 JUMP JUMPDEST DUP2 MSTORE PUSH1 0x20 ADD SWAP1 PUSH1 0x1 SWAP1 SUB SWAP1 DUP2 PUSH2 0x64F JUMPI SWAP1 POP JUMPDEST POP SWAP1 POP PUSH1 0x0 DUP1 JUMPDEST PUSH1 0xA SLOAD DUP2 LT ISZERO PUSH2 0x8AD JUMPI PUSH1 0x0 JUMPDEST PUSH1 0x9 PUSH1 0x0 PUSH1 0xA DUP5 DUP2 SLOAD DUP2 LT PUSH2 0x6D3 JUMPI PUSH2 0x6D3 PUSH2 0x2B6A JUMP JUMPDEST PUSH1 0x0 SWAP2 DUP3 MSTORE PUSH1 0x20 DUP1 DUP4 KECCAK256 SWAP1 SWAP2 ADD SLOAD PUSH1 0x1 PUSH1 0xA0 PUSH1 0x2 EXP SUB AND DUP4 MSTORE DUP3 ADD SWAP3 SWAP1 SWAP3 MSTORE PUSH1 0x40 ADD SWAP1 KECCAK256 SLOAD DUP2 LT ISZERO PUSH2 0x89A JUMPI PUSH1 0x9 PUSH1 0x0 PUSH1 0xA DUP5 DUP2 SLOAD DUP2 LT PUSH2 0x716 JUMPI PUSH2 0x716 PUSH2 0x2B6A JUMP JUMPDEST PUSH1 0x0 SWAP2 DUP3 MSTORE PUSH1 0x20 DUP1 DUP4 KECCAK256 SWAP1 SWAP2 ADD SLOAD PUSH1 0x1 PUSH1 0xA0 PUSH1 0x2 EXP SUB AND DUP4 MSTORE DUP3 ADD SWAP3 SWAP1 SWAP3 MSTORE PUSH1 0x40 ADD SWAP1 KECCAK256 DUP1 SLOAD DUP3 SWAP1 DUP2 LT PUSH2 0x74C JUMPI PUSH2 0x74C PUSH2 0x2B6A JUMP JUMPDEST SWAP1 PUSH1 0x0 MSTORE PUSH1 0x20 PUSH1 0x0 KECCAK256 SWAP1 PUSH1 0x5 MUL ADD PUSH1 0x40 MLOAD DUP1 PUSH1 0xC0 ADD PUSH1 0x40 MSTORE SWAP1 DUP2 PUSH1 0x0 DUP3 ADD PUSH1 0x0 SWAP1 SLOAD SWAP1 PUSH2 0x100 EXP SWAP1 DIV PUSH1 0x1 PUSH1 0xA0 PUSH1 0x2 EXP SUB AND PUSH1 0x1 PUSH1 0xA0 PUSH1 0x2 EXP SUB AND PUSH1 0x1 PUSH1 0xA0 PUSH1 0x2 EXP SUB AND DUP2 MSTORE PUSH1 0x20 ADD PUSH1 0x1 DUP3 ADD SLOAD DUP2 MSTORE PUSH1 0x20 ADD PUSH1 0x2 DUP3 ADD DUP1 SLOAD PUSH2 0x7AE SWAP1 PUSH2 0x2BC8 JUMP JUMPDEST DUP1 PUSH1 0x1F ADD PUSH1 0x20 DUP1 SWAP2 DIV MUL PUSH1 0x20 ADD PUSH1 0x40 MLOAD SWAP1 DUP2 ADD PUSH1 0x40 MSTORE DUP1 SWAP3 SWAP2 SWAP1 DUP2 DUP2 MSTORE PUSH1 0x20 ADD DUP3 DUP1 SLOAD PUSH2 0x7DA SWAP1 PUSH2 0x2BC8 JUMP JUMPDEST DUP1 ISZERO PUSH2 0x827 JUMPI DUP1 PUSH1 0x1F LT PUSH2 0x7FC JUMPI PUSH2 0x100 DUP1 DUP4 SLOAD DIV MUL DUP4 MSTORE SWAP2 PUSH1 0x20 ADD SWAP2 PUSH2 0x827 JUMP JUMPDEST DUP3 ADD SWAP2 SWAP1 PUSH1 0x0 MSTORE PUSH1 0x20 PUSH1 0x0 KECCAK256 SWAP1 JUMPDEST DUP2 SLOAD DUP2 MSTORE SWAP1 PUSH1 0x1 ADD SWAP1 PUSH1 0x20 ADD DUP1 DUP4 GT PUSH2 0x80A JUMPI DUP3 SWAP1 SUB PUSH1 0x1F AND DUP3 ADD SWAP2 JUMPDEST POP POP POP SWAP2 DUP4 MSTORE POP POP PUSH1 0x3 DUP3 ADD SLOAD PUSH1 0xFF DUP1 DUP3 AND ISZERO ISZERO PUSH1 0x20 DUP5 ADD MSTORE PUSH2 0x100 SWAP1 SWAP2 DIV AND ISZERO ISZERO PUSH1 0x40 DUP3 ADD MSTORE PUSH1 0x4 SWAP1 SWAP2 ADD SLOAD PUSH1 0x60 SWAP1 SWAP2 ADD MSTORE DUP5 MLOAD DUP6 SWAP1 DUP6 SWAP1 DUP2 LT PUSH2 0x86E JUMPI PUSH2 0x86E PUSH2 0x2B6A JUMP JUMPDEST PUSH1 0x20 MUL PUSH1 0x20 ADD ADD DUP2 SWAP1 MSTORE POP DUP3 DUP1 PUSH2 0x884 SWAP1 PUSH2 0x2BAF JUMP JUMPDEST SWAP4 POP POP DUP1 DUP1 PUSH2 0x892 SWAP1 PUSH2 0x2BAF JUMP JUMPDEST SWAP2 POP POP PUSH2 0x6BC JUMP JUMPDEST POP DUP1 PUSH2 0x8A5 DUP2 PUSH2 0x2BAF JUMP JUMPDEST SWAP2 POP POP PUSH2 0x6AF JUMP JUMPDEST POP SWAP1 SWAP4 SWAP3 POP POP POP JUMP JUMPDEST PUSH1 0x0 SLOAD PUSH1 0x1 PUSH1 0xA0 PUSH1 0x2 EXP SUB AND CALLER EQ PUSH2 0x8EC JUMPI PUSH1 0x40 MLOAD PUSH1 0xE5 PUSH1 0x2 EXP PUSH3 0x461BCD MUL DUP2 MSTORE PUSH1 0x4 ADD PUSH2 0x8E3 SWAP1 PUSH2 0x2C05 JUMP JUMPDEST PUSH1 0x40 MLOAD DUP1 SWAP2 SUB SWAP1 REVERT JUMPDEST PUSH1 0x1 PUSH1 0xA0 PUSH1 0x2 EXP SUB DUP2 AND PUSH1 0x0 DUP2 DUP2 MSTORE PUSH1 0x1 PUSH1 0x20 MSTORE PUSH1 0x40 DUP1 DUP3 KECCAK256 DUP1 SLOAD PUSH1 0xFF NOT AND SWAP1 SSTORE MLOAD PUSH32 0xA3B62BC36326052D97EA62D63C3D60308ED4C3EA8AC079DD8499F1E9C4F80C0F SWAP2 SWAP1 LOG2 POP JUMP JUMPDEST PUSH1 0xA DUP2 DUP2 SLOAD DUP2 LT PUSH2 0x945 JUMPI PUSH1 0x0 DUP1 REVERT JUMPDEST PUSH1 0x0 SWAP2 DUP3 MSTORE PUSH1 0x20 SWAP1 SWAP2 KECCAK256 ADD SLOAD PUSH1 0x1 PUSH1 0xA0 PUSH1 0x2 EXP SUB AND SWAP1 POP DUP2 JUMP JUMPDEST CALLER PUSH1 0x0 SWAP1 DUP2 MSTORE PUSH1 0x1 PUSH1 0x20 MSTORE PUSH1 0x40 SWAP1 KECCAK256 SLOAD PUSH1 0xFF AND PUSH2 0x991 JUMPI PUSH1 0x40 MLOAD PUSH1 0xE5 PUSH1 0x2 EXP PUSH3 0x461BCD MUL DUP2 MSTORE PUSH1 0x4 ADD PUSH2 0x8E3 SWAP1 PUSH2 0x2C3C JUMP JUMPDEST PUSH1 0x1 PUSH1 0xA0 PUSH1 0x2 EXP SUB DUP3 AND PUSH1 0x0 SWAP1 DUP2 MSTORE PUSH1 0x3 PUSH1 0x20 DUP2 DUP2 MSTORE PUSH1 0x40 DUP1 DUP5 KECCAK256 DUP6 DUP6 MSTORE SWAP1 SWAP2 MSTORE DUP3 KECCAK256 ADD SLOAD SWAP1 SUB PUSH2 0x9D7 JUMPI PUSH1 0x40 MLOAD PUSH1 0xE5 PUSH1 0x2 EXP PUSH3 0x461BCD MUL DUP2 MSTORE PUSH1 0x4 ADD PUSH2 0x8E3 SWAP1 PUSH2 0x2C73 JUMP JUMPDEST PUSH1 0x1 PUSH1 0xA0 PUSH1 0x2 EXP SUB DUP3 AND PUSH1 0x0 SWAP1 DUP2 MSTORE PUSH1 0x3 PUSH1 0x20 SWAP1 DUP2 MSTORE PUSH1 0x40 DUP1 DUP4 KECCAK256 DUP5 DUP5 MSTORE SWAP1 SWAP2 MSTORE SWAP1 KECCAK256 PUSH1 0x6 ADD SLOAD PUSH1 0xFF AND ISZERO PUSH2 0xA21 JUMPI PUSH1 0x40 MLOAD PUSH1 0xE5 PUSH1 0x2 EXP PUSH3 0x461BCD MUL DUP2 MSTORE PUSH1 0x4 ADD PUSH2 0x8E3 SWAP1 PUSH2 0x2CAA JUMP JUMPDEST PUSH1 0x1 PUSH1 0xA0 PUSH1 0x2 EXP SUB SWAP1 SWAP2 AND PUSH1 0x0 SWAP1 DUP2 MSTORE PUSH1 0x3 PUSH1 0x20 SWAP1 DUP2 MSTORE PUSH1 0x40 DUP1 DUP4 KECCAK256 SWAP4 DUP4 MSTORE SWAP3 SWAP1 MSTORE KECCAK256 PUSH1 0x6 ADD DUP1 SLOAD PUSH1 0xFF NOT AND PUSH1 0x1 OR SWAP1 SSTORE JUMP JUMPDEST CALLER PUSH1 0x0 SWAP1 DUP2 MSTORE PUSH1 0x1 PUSH1 0x20 MSTORE PUSH1 0x40 SWAP1 KECCAK256 SLOAD PUSH1 0xFF AND PUSH2 0xA86 JUMPI PUSH1 0x40 MLOAD PUSH1 0xE5 PUSH1 0x2 EXP PUSH3 0x461BCD MUL DUP2 MSTORE PUSH1 0x4 ADD PUSH2 0x8E3 SWAP1 PUSH2 0x2C3C JUMP JUMPDEST PUSH1 0x1 PUSH1 0xA0 PUSH1 0x2 EXP SUB DUP2 AND PUSH2 0xAAF JUMPI PUSH1 0x40 MLOAD PUSH1 0xE5 PUSH1 0x2 EXP PUSH3 0x461BCD MUL DUP2 MSTORE PUSH1 0x4 ADD PUSH2 0x8E3 SWAP1 PUSH2 0x2CE1 JUMP JUMPDEST PUSH1 0x1 PUSH1 0xA0 PUSH1 0x2 EXP SUB AND PUSH1 0x0 SWAP1 DUP2 MSTORE PUSH1 0x5 PUSH1 0x20 MSTORE PUSH1 0x40 SWAP1 KECCAK256 DUP1 SLOAD PUSH1 0xFF NOT AND PUSH1 0x1 OR SWAP1 SSTORE JUMP JUMPDEST CALLER PUSH1 0x0 SWAP1 DUP2 MSTORE PUSH1 0x4 PUSH1 0x20 MSTORE PUSH1 0x40 SWAP1 KECCAK256 SLOAD PUSH1 0x60 SWAP1 DUP1 PUSH8 0xFFFFFFFFFFFFFFFF DUP2 GT ISZERO PUSH2 0xAFF JUMPI PUSH2 0xAFF PUSH2 0x283F JUMP JUMPDEST PUSH1 0x40 MLOAD SWAP1 DUP1 DUP3 MSTORE DUP1 PUSH1 0x20 MUL PUSH1 0x20 ADD DUP3 ADD PUSH1 0x40 MSTORE DUP1 ISZERO PUSH2 0xB38 JUMPI DUP2 PUSH1 0x20 ADD JUMPDEST PUSH2 0xB25 PUSH2 0x2553 JUMP JUMPDEST DUP2 MSTORE PUSH1 0x20 ADD SWAP1 PUSH1 0x1 SWAP1 SUB SWAP1 DUP2 PUSH2 0xB1D JUMPI SWAP1 POP JUMPDEST POP SWAP2 POP PUSH1 0x0 JUMPDEST DUP2 DUP2 LT ISZERO PUSH2 0xD52 JUMPI CALLER PUSH1 0x0 SWAP1 DUP2 MSTORE PUSH1 0x4 PUSH1 0x20 MSTORE PUSH1 0x40 DUP2 KECCAK256 DUP1 SLOAD DUP4 SWAP1 DUP2 LT PUSH2 0xB67 JUMPI PUSH2 0xB67 PUSH2 0x2B6A JUMP JUMPDEST PUSH1 0x0 SWAP2 DUP3 MSTORE PUSH1 0x20 DUP1 DUP4 KECCAK256 SWAP1 SWAP2 ADD SLOAD CALLER DUP4 MSTORE PUSH1 0x3 DUP1 DUP4 MSTORE PUSH1 0x40 DUP1 DUP6 KECCAK256 DUP4 DUP7 MSTORE DUP5 MSTORE SWAP4 DUP5 SWAP1 KECCAK256 DUP5 MLOAD PUSH2 0x140 DUP2 ADD DUP7 MSTORE DUP2 SLOAD DUP2 MSTORE PUSH1 0x1 DUP3 ADD SLOAD SWAP5 DUP2 ADD SWAP5 SWAP1 SWAP5 MSTORE PUSH1 0x2 DUP2 ADD SLOAD SWAP5 DUP5 ADD SWAP5 SWAP1 SWAP5 MSTORE DUP4 ADD SLOAD PUSH1 0x60 DUP4 ADD MSTORE PUSH1 0x4 DUP4 ADD SLOAD PUSH1 0xFF SWAP1 DUP2 AND ISZERO ISZERO PUSH1 0x80 DUP5 ADD MSTORE PUSH1 0x5 DUP5 ADD SLOAD PUSH1 0xA0 DUP5 ADD MSTORE PUSH1 0x6 DUP5 ADD SLOAD AND ISZERO ISZERO PUSH1 0xC0 DUP4 ADD MSTORE PUSH1 0x7 DUP4 ADD DUP1 SLOAD SWAP2 SWAP5 POP SWAP2 SWAP3 SWAP2 PUSH1 0xE0 DUP5 ADD SWAP2 PUSH2 0xBFA SWAP1 PUSH2 0x2BC8 JUMP JUMPDEST DUP1 PUSH1 0x1F ADD PUSH1 0x20 DUP1 SWAP2 DIV MUL PUSH1 0x20 ADD PUSH1 0x40 MLOAD SWAP1 DUP2 ADD PUSH1 0x40 MSTORE DUP1 SWAP3 SWAP2 SWAP1 DUP2 DUP2 MSTORE PUSH1 0x20 ADD DUP3 DUP1 SLOAD PUSH2 0xC26 SWAP1 PUSH2 0x2BC8 JUMP JUMPDEST DUP1 ISZERO PUSH2 0xC73 JUMPI DUP1 PUSH1 0x1F LT PUSH2 0xC48 JUMPI PUSH2 0x100 DUP1 DUP4 SLOAD DIV MUL DUP4 MSTORE SWAP2 PUSH1 0x20 ADD SWAP2 PUSH2 0xC73 JUMP JUMPDEST DUP3 ADD SWAP2 SWAP1 PUSH1 0x0 MSTORE PUSH1 0x20 PUSH1 0x0 KECCAK256 SWAP1 JUMPDEST DUP2 SLOAD DUP2 MSTORE SWAP1 PUSH1 0x1 ADD SWAP1 PUSH1 0x20 ADD DUP1 DUP4 GT PUSH2 0xC56 JUMPI DUP3 SWAP1 SUB PUSH1 0x1F AND DUP3 ADD SWAP2 JUMPDEST POP POP POP SWAP2 DUP4 MSTORE POP POP PUSH1 0x8 DUP3 ADD SLOAD PUSH1 0xFF AND ISZERO ISZERO PUSH1 0x20 DUP3 ADD MSTORE PUSH1 0x9 DUP3 ADD DUP1 SLOAD PUSH1 0x40 SWAP1 SWAP3 ADD SWAP2 PUSH2 0xC9F SWAP1 PUSH2 0x2BC8 JUMP JUMPDEST DUP1 PUSH1 0x1F ADD PUSH1 0x20 DUP1 SWAP2 DIV MUL PUSH1 0x20 ADD PUSH1 0x40 MLOAD SWAP1 DUP2 ADD PUSH1 0x40 MSTORE DUP1 SWAP3 SWAP2 SWAP1 DUP2 DUP2 MSTORE PUSH1 0x20 ADD DUP3 DUP1 SLOAD PUSH2 0xCCB SWAP1 PUSH2 0x2BC8 JUMP JUMPDEST DUP1 ISZERO PUSH2 0xD18 JUMPI DUP1 PUSH1 0x1F LT PUSH2 0xCED JUMPI PUSH2 0x100 DUP1 DUP4 SLOAD DIV MUL DUP4 MSTORE SWAP2 PUSH1 0x20 ADD SWAP2 PUSH2 0xD18 JUMP JUMPDEST DUP3 ADD SWAP2 SWAP1 PUSH1 0x0 MSTORE PUSH1 0x20 PUSH1 0x0 KECCAK256 SWAP1 JUMPDEST DUP2 SLOAD DUP2 MSTORE SWAP1 PUSH1 0x1 ADD SWAP1 PUSH1 0x20 ADD DUP1 DUP4 GT PUSH2 0xCFB JUMPI DUP3 SWAP1 SUB PUSH1 0x1F AND DUP3 ADD SWAP2 JUMPDEST POP POP POP POP POP DUP2 MSTORE POP POP DUP5 DUP4 DUP2 MLOAD DUP2 LT PUSH2 0xD33 JUMPI PUSH2 0xD33 PUSH2 0x2B6A JUMP JUMPDEST PUSH1 0x20 MUL PUSH1 0x20 ADD ADD DUP2 SWAP1 MSTORE POP POP DUP1 DUP1 PUSH2 0xD4A SWAP1 PUSH2 0x2BAF JUMP JUMPDEST SWAP2 POP POP PUSH2 0xB3E JUMP JUMPDEST POP POP SWAP1 JUMP JUMPDEST PUSH1 0x9 PUSH1 0x20 MSTORE DUP2 PUSH1 0x0 MSTORE PUSH1 0x40 PUSH1 0x0 KECCAK256 DUP2 DUP2 SLOAD DUP2 LT PUSH2 0xD73 JUMPI PUSH1 0x0 DUP1 REVERT JUMPDEST PUSH1 0x0 SWAP2 DUP3 MSTORE PUSH1 0x20 SWAP1 SWAP2 KECCAK256 PUSH1 0x5 SWAP1 SWAP2 MUL ADD DUP1 SLOAD PUSH1 0x1 DUP3 ADD SLOAD PUSH1 0x2 DUP4 ADD DUP1 SLOAD PUSH1 0x1 PUSH1 0xA0 PUSH1 0x2 EXP SUB SWAP1 SWAP4 AND SWAP6 POP SWAP1 SWAP4 POP SWAP1 PUSH2 0xDAA SWAP1 PUSH2 0x2BC8 JUMP JUMPDEST DUP1 PUSH1 0x1F ADD PUSH1 0x20 DUP1 SWAP2 DIV MUL PUSH1 0x20 ADD PUSH1 0x40 MLOAD SWAP1 DUP2 ADD PUSH1 0x40 MSTORE DUP1 SWAP3 SWAP2 SWAP1 DUP2 DUP2 MSTORE PUSH1 0x20 ADD DUP3 DUP1 SLOAD PUSH2 0xDD6 SWAP1 PUSH2 0x2BC8 JUMP JUMPDEST DUP1 ISZERO PUSH2 0xE23 JUMPI DUP1 PUSH1 0x1F LT PUSH2 0xDF8 JUMPI PUSH2 0x100 DUP1 DUP4 SLOAD DIV MUL DUP4 MSTORE SWAP2 PUSH1 0x20 ADD SWAP2 PUSH2 0xE23 JUMP JUMPDEST DUP3 ADD SWAP2 SWAP1 PUSH1 0x0 MSTORE PUSH1 0x20 PUSH1 0x0 KECCAK256 SWAP1 JUMPDEST DUP2 SLOAD DUP2 MSTORE SWAP1 PUSH1 0x1 ADD SWAP1 PUSH1 0x20 ADD DUP1 DUP4 GT PUSH2 0xE06 JUMPI DUP3 SWAP1 SUB PUSH1 0x1F AND DUP3 ADD SWAP2 JUMPDEST POP POP POP POP PUSH1 0x3 DUP4 ADD SLOAD PUSH1 0x4 SWAP1 SWAP4 ADD SLOAD SWAP2 SWAP3 PUSH1 0xFF DUP1 DUP3 AND SWAP4 PUSH2 0x100 SWAP1 SWAP3 DIV AND SWAP2 POP DUP7 JUMP JUMPDEST CALLER PUSH1 0x0 SWAP1 DUP2 MSTORE PUSH1 0x1 PUSH1 0x20 MSTORE PUSH1 0x40 SWAP1 KECCAK256 SLOAD PUSH1 0xFF AND PUSH2 0xE78 JUMPI PUSH1 0x40 MLOAD PUSH1 0xE5 PUSH1 0x2 EXP PUSH3 0x461BCD MUL DUP2 MSTORE PUSH1 0x4 ADD PUSH2 0x8E3 SWAP1 PUSH2 0x2C3C JUMP JUMPDEST PUSH1 0x1 PUSH1 0xA0 PUSH1 0x2 EXP SUB DUP2 AND PUSH2 0xEA1 JUMPI PUSH1 0x40 MLOAD PUSH1 0xE5 PUSH1 0x2 EXP PUSH3 0x461BCD MUL DUP2 MSTORE PUSH1 0x4 ADD PUSH2 0x8E3 SWAP1 PUSH2 0x2CE1 JUMP JUMPDEST PUSH1 0x1 PUSH1 0xA0 PUSH1 0x2 EXP SUB DUP2 AND PUSH1 0x0 SWAP1 DUP2 MSTORE PUSH1 0x5 PUSH1 0x20 MSTORE PUSH1 0x40 SWAP1 KECCAK256 SLOAD PUSH1 0xFF AND ISZERO ISZERO PUSH1 0x1 EQ PUSH2 0xF11 JUMPI PUSH1 0x40 MLOAD PUSH1 0xE5 PUSH1 0x2 EXP PUSH3 0x461BCD MUL DUP2 MSTORE PUSH1 0x20 PUSH1 0x4 DUP3 ADD MSTORE PUSH1 0x19 PUSH1 0x24 DUP3 ADD MSTORE PUSH32 0x6164647265737320617265206E6F742061207465616368657200000000000000 PUSH1 0x44 DUP3 ADD MSTORE PUSH1 0x64 ADD PUSH2 0x8E3 JUMP JUMPDEST PUSH1 0x1 PUSH1 0xA0 PUSH1 0x2 EXP SUB AND PUSH1 0x0 SWAP1 DUP2 MSTORE PUSH1 0x5 PUSH1 0x20 MSTORE PUSH1 0x40 SWAP1 KECCAK256 DUP1 SLOAD PUSH1 0xFF NOT AND SWAP1 SSTORE JUMP JUMPDEST CALLER PUSH1 0x0 SWAP1 DUP2 MSTORE PUSH1 0x5 PUSH1 0x20 MSTORE PUSH1 0x40 SWAP1 KECCAK256 SLOAD PUSH1 0xFF AND PUSH2 0xF94 JUMPI PUSH1 0x40 MLOAD PUSH1 0xE5 PUSH1 0x2 EXP PUSH3 0x461BCD MUL DUP2 MSTORE PUSH1 0x20 PUSH1 0x4 DUP3 ADD MSTORE PUSH1 0xD PUSH1 0x24 DUP3 ADD MSTORE PUSH32 0x4E6F742061207465616368657200000000000000000000000000000000000000 PUSH1 0x44 DUP3 ADD MSTORE PUSH1 0x64 ADD PUSH2 0x8E3 JUMP JUMPDEST PUSH1 0x1 PUSH1 0xA0 PUSH1 0x2 EXP SUB DUP5 AND PUSH2 0xFBD JUMPI PUSH1 0x40 MLOAD PUSH1 0xE5 PUSH1 0x2 EXP PUSH3 0x461BCD MUL DUP2 MSTORE PUSH1 0x4 ADD PUSH2 0x8E3 SWAP1 PUSH2 0x2CE1 JUMP JUMPDEST PUSH1 0x0 DUP4 DUP2 MSTORE PUSH1 0x6 PUSH1 0x20 MSTORE PUSH1 0x40 SWAP1 KECCAK256 SLOAD PUSH1 0xFF AND ISZERO ISZERO PUSH1 0x1 EQ PUSH2 0x1023 JUMPI PUSH1 0x40 MLOAD PUSH1 0xE5 PUSH1 0x2 EXP PUSH3 0x461BCD MUL DUP2 MSTORE PUSH1 0x20 PUSH1 0x4 DUP3 ADD MSTORE PUSH1 0xF PUSH1 0x24 DUP3 ADD MSTORE PUSH32 0x636F75727365206E6F7420657869740000000000000000000000000000000000 PUSH1 0x44 DUP3 ADD MSTORE PUSH1 0x64 ADD PUSH2 0x8E3 JUMP JUMPDEST PUSH1 0x0 DUP4 DUP2 MSTORE PUSH1 0x2 PUSH1 0x20 DUP2 SWAP1 MSTORE PUSH1 0x40 DUP3 KECCAK256 ADD SLOAD TIMESTAMP SWAP2 PUSH2 0x1041 DUP3 DUP7 PUSH2 0x2D18 JUMP JUMPDEST SWAP1 POP PUSH1 0x40 MLOAD DUP1 PUSH2 0x140 ADD PUSH1 0x40 MSTORE DUP1 DUP8 DUP2 MSTORE PUSH1 0x20 ADD DUP3 DUP2 MSTORE PUSH1 0x20 ADD DUP7 DUP2 MSTORE PUSH1 0x20 ADD DUP5 DUP2 MSTORE PUSH1 0x20 ADD PUSH1 0x0 ISZERO ISZERO DUP2 MSTORE PUSH1 0x20 ADD PUSH1 0x0 DUP2 MSTORE PUSH1 0x20 ADD PUSH1 0x0 ISZERO ISZERO DUP2 MSTORE PUSH1 0x20 ADD DUP6 DUP2 MSTORE PUSH1 0x20 ADD PUSH1 0x0 ISZERO ISZERO DUP2 MSTORE PUSH1 0x20 ADD PUSH1 0x40 MLOAD DUP1 PUSH1 0x20 ADD PUSH1 0x40 MSTORE DUP1 PUSH1 0x0 DUP2 MSTORE POP DUP2 MSTORE POP PUSH1 0x3 PUSH1 0x0 DUP10 PUSH1 0x1 PUSH1 0xA0 PUSH1 0x2 EXP SUB AND PUSH1 0x1 PUSH1 0xA0 PUSH1 0x2 EXP SUB AND DUP2 MSTORE PUSH1 0x20 ADD SWAP1 DUP2 MSTORE PUSH1 0x20 ADD PUSH1 0x0 KECCAK256 PUSH1 0x0 DUP9 DUP2 MSTORE PUSH1 0x20 ADD SWAP1 DUP2 MSTORE PUSH1 0x20 ADD PUSH1 0x0 KECCAK256 PUSH1 0x0 DUP3 ADD MLOAD DUP2 PUSH1 0x0 ADD SSTORE PUSH1 0x20 DUP3 ADD MLOAD DUP2 PUSH1 0x1 ADD SSTORE PUSH1 0x40 DUP3 ADD MLOAD DUP2 PUSH1 0x2 ADD SSTORE PUSH1 0x60 DUP3 ADD MLOAD DUP2 PUSH1 0x3 ADD SSTORE PUSH1 0x80 DUP3 ADD MLOAD DUP2 PUSH1 0x4 ADD PUSH1 0x0 PUSH2 0x100 EXP DUP2 SLOAD DUP2 PUSH1 0xFF MUL NOT AND SWAP1 DUP4 ISZERO ISZERO MUL OR SWAP1 SSTORE POP PUSH1 0xA0 DUP3 ADD MLOAD DUP2 PUSH1 0x5 ADD SSTORE PUSH1 0xC0 DUP3 ADD MLOAD DUP2 PUSH1 0x6 ADD PUSH1 0x0 PUSH2 0x100 EXP DUP2 SLOAD DUP2 PUSH1 0xFF MUL NOT AND SWAP1 DUP4 ISZERO ISZERO MUL OR SWAP1 SSTORE POP PUSH1 0xE0 DUP3 ADD MLOAD DUP2 PUSH1 0x7 ADD SWAP1 DUP2 PUSH2 0x115F SWAP2 SWAP1 PUSH2 0x2D7E JUMP JUMPDEST POP PUSH2 0x100 DUP3 ADD MLOAD PUSH1 0x8 DUP3 ADD DUP1 SLOAD PUSH1 0xFF NOT AND SWAP2 ISZERO ISZERO SWAP2 SWAP1 SWAP2 OR SWAP1 SSTORE PUSH2 0x120 DUP3 ADD MLOAD PUSH1 0x9 DUP3 ADD SWAP1 PUSH2 0x118E SWAP1 DUP3 PUSH2 0x2D7E JUMP JUMPDEST POP POP POP PUSH1 0x1 PUSH1 0xA0 PUSH1 0x2 EXP SUB SWAP1 SWAP7 AND PUSH1 0x0 SWAP1 DUP2 MSTORE PUSH1 0x4 PUSH1 0x20 SWAP1 DUP2 MSTORE PUSH1 0x40 DUP3 KECCAK256 DUP1 SLOAD PUSH1 0x1 DUP2 ADD DUP3 SSTORE SWAP1 DUP4 MSTORE SWAP2 KECCAK256 ADD SWAP5 SWAP1 SWAP5 SSTORE POP POP POP POP POP JUMP JUMPDEST PUSH1 0x1 PUSH1 0xA0 PUSH1 0x2 EXP SUB DUP2 AND PUSH1 0x0 SWAP1 DUP2 MSTORE PUSH1 0x8 PUSH1 0x20 SWAP1 DUP2 MSTORE PUSH1 0x40 DUP1 DUP4 KECCAK256 CALLER DUP5 MSTORE SWAP1 SWAP2 MSTORE SWAP1 KECCAK256 SLOAD PUSH1 0x60 SWAP1 PUSH2 0x123B JUMPI PUSH1 0x40 MLOAD PUSH1 0xE5 PUSH1 0x2 EXP PUSH3 0x461BCD MUL DUP2 MSTORE PUSH1 0x20 PUSH1 0x4 DUP3 ADD MSTORE PUSH1 0x15 PUSH1 0x24 DUP3 ADD MSTORE PUSH32 0x796F7520646F206E6F7420626520616C6C6F7765640000000000000000000000 PUSH1 0x44 DUP3 ADD MSTORE PUSH1 0x64 ADD PUSH2 0x8E3 JUMP JUMPDEST PUSH1 0x1 PUSH1 0xA0 PUSH1 0x2 EXP SUB DUP3 AND PUSH1 0x0 SWAP1 DUP2 MSTORE PUSH1 0x4 PUSH1 0x20 MSTORE PUSH1 0x40 SWAP1 KECCAK256 SLOAD DUP1 PUSH8 0xFFFFFFFFFFFFFFFF DUP2 GT ISZERO PUSH2 0x126D JUMPI PUSH2 0x126D PUSH2 0x283F JUMP JUMPDEST PUSH1 0x40 MLOAD SWAP1 DUP1 DUP3 MSTORE DUP1 PUSH1 0x20 MUL PUSH1 0x20 ADD DUP3 ADD PUSH1 0x40 MSTORE DUP1 ISZERO PUSH2 0x12A6 JUMPI DUP2 PUSH1 0x20 ADD JUMPDEST PUSH2 0x1293 PUSH2 0x2553 JUMP JUMPDEST DUP2 MSTORE PUSH1 0x20 ADD SWAP1 PUSH1 0x1 SWAP1 SUB SWAP1 DUP2 PUSH2 0x128B JUMPI SWAP1 POP JUMPDEST POP SWAP2 POP PUSH1 0x0 JUMPDEST DUP2 DUP2 LT ISZERO PUSH2 0x14D2 JUMPI PUSH1 0x1 PUSH1 0xA0 PUSH1 0x2 EXP SUB DUP5 AND PUSH1 0x0 SWAP1 DUP2 MSTORE PUSH1 0x4 PUSH1 0x20 MSTORE PUSH1 0x40 DUP2 KECCAK256 DUP1 SLOAD DUP4 SWAP1 DUP2 LT PUSH2 0x12DE JUMPI PUSH2 0x12DE PUSH2 0x2B6A JUMP JUMPDEST PUSH1 0x0 SWAP2 DUP3 MSTORE PUSH1 0x20 DUP1 DUP4 KECCAK256 SWAP1 SWAP2 ADD SLOAD PUSH1 0x1 PUSH1 0xA0 PUSH1 0x2 EXP SUB DUP9 AND DUP4 MSTORE PUSH1 0x3 DUP1 DUP4 MSTORE PUSH1 0x40 DUP1 DUP6 KECCAK256 DUP4 DUP7 MSTORE DUP5 MSTORE SWAP4 DUP5 SWAP1 KECCAK256 DUP5 MLOAD PUSH2 0x140 DUP2 ADD DUP7 MSTORE DUP2 SLOAD DUP2 MSTORE PUSH1 0x1 DUP3 ADD SLOAD SWAP5 DUP2 ADD SWAP5 SWAP1 SWAP5 MSTORE PUSH1 0x2 DUP2 ADD SLOAD SWAP5 DUP5 ADD SWAP5 SWAP1 SWAP5 MSTORE DUP4 ADD SLOAD PUSH1 0x60 DUP4 ADD MSTORE PUSH1 0x4 DUP4 ADD SLOAD PUSH1 0xFF SWAP1 DUP2 AND ISZERO ISZERO PUSH1 0x80 DUP5 ADD MSTORE PUSH1 0x5 DUP5 ADD SLOAD PUSH1 0xA0 DUP5 ADD MSTORE PUSH1 0x6 DUP5 ADD SLOAD AND ISZERO ISZERO PUSH1 0xC0 DUP4 ADD MSTORE PUSH1 0x7 DUP4 ADD DUP1 SLOAD SWAP2 SWAP5 POP SWAP2 SWAP3 SWAP2 PUSH1 0xE0 DUP5 ADD SWAP2 PUSH2 0x137A SWAP1 PUSH2 0x2BC8 JUMP JUMPDEST DUP1 PUSH1 0x1F ADD PUSH1 0x20 DUP1 SWAP2 DIV MUL PUSH1 0x20 ADD PUSH1 0x40 MLOAD SWAP1 DUP2 ADD PUSH1 0x40 MSTORE DUP1 SWAP3 SWAP2 SWAP1 DUP2 DUP2 MSTORE PUSH1 0x20 ADD DUP3 DUP1 SLOAD PUSH2 0x13A6 SWAP1 PUSH2 0x2BC8 JUMP JUMPDEST DUP1 ISZERO PUSH2 0x13F3 JUMPI DUP1 PUSH1 0x1F LT PUSH2 0x13C8 JUMPI PUSH2 0x100 DUP1 DUP4 SLOAD DIV MUL DUP4 MSTORE SWAP2 PUSH1 0x20 ADD SWAP2 PUSH2 0x13F3 JUMP JUMPDEST DUP3 ADD SWAP2 SWAP1 PUSH1 0x0 MSTORE PUSH1 0x20 PUSH1 0x0 KECCAK256 SWAP1 JUMPDEST DUP2 SLOAD DUP2 MSTORE SWAP1 PUSH1 0x1 ADD SWAP1 PUSH1 0x20 ADD DUP1 DUP4 GT PUSH2 0x13D6 JUMPI DUP3 SWAP1 SUB PUSH1 0x1F AND DUP3 ADD SWAP2 JUMPDEST POP POP POP SWAP2 DUP4 MSTORE POP POP PUSH1 0x8 DUP3 ADD SLOAD PUSH1 0xFF AND ISZERO ISZERO PUSH1 0x20 DUP3 ADD MSTORE PUSH1 0x9 DUP3 ADD DUP1 SLOAD PUSH1 0x40 SWAP1 SWAP3 ADD SWAP2 PUSH2 0x141F SWAP1 PUSH2 0x2BC8 JUMP JUMPDEST DUP1 PUSH1 0x1F ADD PUSH1 0x20 DUP1 SWAP2 DIV MUL PUSH1 0x20 ADD PUSH1 0x40 MLOAD SWAP1 DUP2 ADD PUSH1 0x40 MSTORE DUP1 SWAP3 SWAP2 SWAP1 DUP2 DUP2 MSTORE PUSH1 0x20 ADD DUP3 DUP1 SLOAD PUSH2 0x144B SWAP1 PUSH2 0x2BC8 JUMP JUMPDEST DUP1 ISZERO PUSH2 0x1498 JUMPI DUP1 PUSH1 0x1F LT PUSH2 0x146D JUMPI PUSH2 0x100 DUP1 DUP4 SLOAD DIV MUL DUP4 MSTORE SWAP2 PUSH1 0x20 ADD SWAP2 PUSH2 0x1498 JUMP JUMPDEST DUP3 ADD SWAP2 SWAP1 PUSH1 0x0 MSTORE PUSH1 0x20 PUSH1 0x0 KECCAK256 SWAP1 JUMPDEST DUP2 SLOAD DUP2 MSTORE SWAP1 PUSH1 0x1 ADD SWAP1 PUSH1 0x20 ADD DUP1 DUP4 GT PUSH2 0x147B JUMPI DUP3 SWAP1 SUB PUSH1 0x1F AND DUP3 ADD SWAP2 JUMPDEST POP POP POP POP POP DUP2 MSTORE POP POP DUP5 DUP4 DUP2 MLOAD DUP2 LT PUSH2 0x14B3 JUMPI PUSH2 0x14B3 PUSH2 0x2B6A JUMP JUMPDEST PUSH1 0x20 MUL PUSH1 0x20 ADD ADD DUP2 SWAP1 MSTORE POP POP DUP1 DUP1 PUSH2 0x14CA SWAP1 PUSH2 0x2BAF JUMP JUMPDEST SWAP2 POP POP PUSH2 0x12AC JUMP JUMPDEST POP PUSH1 0x1 PUSH1 0xA0 PUSH1 0x2 EXP SUB DUP4 AND PUSH1 0x0 SWAP1 DUP2 MSTORE PUSH1 0x8 PUSH1 0x20 SWAP1 DUP2 MSTORE PUSH1 0x40 DUP1 DUP4 KECCAK256 CALLER DUP5 MSTORE SWAP1 SWAP2 MSTORE DUP2 KECCAK256 DUP1 SLOAD PUSH1 0x1 SWAP3 SWAP1 PUSH2 0x1507 SWAP1 DUP5 SWAP1 PUSH2 0x2E44 JUMP JUMPDEST SWAP1 SWAP2 SSTORE POP SWAP2 SWAP4 SWAP3 POP POP POP JUMP JUMPDEST PUSH1 0x60 PUSH1 0x7 DUP1 SLOAD DUP1 PUSH1 0x20 MUL PUSH1 0x20 ADD PUSH1 0x40 MLOAD SWAP1 DUP2 ADD PUSH1 0x40 MSTORE DUP1 SWAP3 SWAP2 SWAP1 DUP2 DUP2 MSTORE PUSH1 0x20 ADD DUP3 DUP1 SLOAD DUP1 ISZERO PUSH2 0x1561 JUMPI PUSH1 0x20 MUL DUP3 ADD SWAP2 SWAP1 PUSH1 0x0 MSTORE PUSH1 0x20 PUSH1 0x0 KECCAK256 SWAP1 JUMPDEST DUP2 SLOAD DUP2 MSTORE PUSH1 0x20 ADD SWAP1 PUSH1 0x1 ADD SWAP1 DUP1 DUP4 GT PUSH2 0x154D JUMPI JUMPDEST POP POP POP POP POP SWAP1 POP SWAP1 JUMP JUMPDEST CALLER PUSH1 0x0 SWAP1 DUP2 MSTORE PUSH1 0x1 PUSH1 0x20 MSTORE PUSH1 0x40 SWAP1 KECCAK256 SLOAD PUSH1 0xFF AND PUSH2 0x159D JUMPI PUSH1 0x40 MLOAD PUSH1 0xE5 PUSH1 0x2 EXP PUSH3 0x461BCD MUL DUP2 MSTORE PUSH1 0x4 ADD PUSH2 0x8E3 SWAP1 PUSH2 0x2C3C JUMP JUMPDEST PUSH1 0x1 PUSH1 0xA0 PUSH1 0x2 EXP SUB DUP3 AND PUSH1 0x0 SWAP1 DUP2 MSTORE PUSH1 0x9 PUSH1 0x20 MSTORE PUSH1 0x40 SWAP1 KECCAK256 DUP1 SLOAD DUP3 SWAP1 DUP2 LT PUSH2 0x15C7 JUMPI PUSH2 0x15C7 PUSH2 0x2B6A JUMP JUMPDEST PUSH1 0x0 SWAP2 DUP3 MSTORE PUSH1 0x20 SWAP1 SWAP2 KECCAK256 PUSH1 0x3 PUSH1 0x5 SWAP1 SWAP3 MUL ADD ADD SLOAD PUSH1 0xFF AND ISZERO PUSH2 0x162E JUMPI PUSH1 0x40 MLOAD PUSH1 0xE5 PUSH1 0x2 EXP PUSH3 0x461BCD MUL DUP2 MSTORE PUSH1 0x20 PUSH1 0x4 DUP3 ADD MSTORE PUSH1 0x19 PUSH1 0x24 DUP3 ADD MSTORE PUSH32 0x5472616E7366657220616C726561647920617070726F76656400000000000000 PUSH1 0x44 DUP3 ADD MSTORE PUSH1 0x64 ADD PUSH2 0x8E3 JUMP JUMPDEST PUSH1 0x1 PUSH1 0xA0 PUSH1 0x2 EXP SUB DUP3 AND PUSH1 0x0 SWAP1 DUP2 MSTORE PUSH1 0x9 PUSH1 0x20 MSTORE PUSH1 0x40 SWAP1 KECCAK256 DUP1 SLOAD PUSH1 0x1 SWAP2 SWAP1 DUP4 SWAP1 DUP2 LT PUSH2 0x165C JUMPI PUSH2 0x165C PUSH2 0x2B6A JUMP JUMPDEST PUSH1 0x0 SWAP2 DUP3 MSTORE PUSH1 0x20 SWAP1 SWAP2 KECCAK256 PUSH1 0x5 SWAP1 SWAP2 MUL ADD PUSH1 0x3 ADD DUP1 SLOAD PUSH1 0xFF NOT AND SWAP2 ISZERO ISZERO SWAP2 SWAP1 SWAP2 OR SWAP1 SSTORE POP POP JUMP JUMPDEST PUSH1 0x0 SLOAD PUSH1 0x1 PUSH1 0xA0 PUSH1 0x2 EXP SUB AND CALLER EQ PUSH2 0x16AF JUMPI PUSH1 0x40 MLOAD PUSH1 0xE5 PUSH1 0x2 EXP PUSH3 0x461BCD MUL DUP2 MSTORE PUSH1 0x4 ADD PUSH2 0x8E3 SWAP1 PUSH2 0x2C05 JUMP JUMPDEST PUSH1 0x1 PUSH1 0xA0 PUSH1 0x2 EXP SUB DUP2 AND PUSH1 0x0 DUP2 DUP2 MSTORE PUSH1 0x1 PUSH1 0x20 DUP2 SWAP1 MSTORE PUSH1 0x40 DUP1 DUP4 KECCAK256 DUP1 SLOAD PUSH1 0xFF NOT AND SWAP1 SWAP3 OR SWAP1 SWAP2 SSTORE MLOAD PUSH32 0x44D6D25963F097AD14F29F06854A01F575648A1EF82F30E562CCD3889717E339 SWAP2 SWAP1 LOG2 POP JUMP JUMPDEST PUSH1 0x0 SLOAD PUSH1 0x1 PUSH1 0xA0 PUSH1 0x2 EXP SUB AND CALLER EQ PUSH2 0x172B JUMPI PUSH1 0x40 MLOAD PUSH1 0xE5 PUSH1 0x2 EXP PUSH3 0x461BCD MUL DUP2 MSTORE PUSH1 0x4 ADD PUSH2 0x8E3 SWAP1 PUSH2 0x2C05 JUMP JUMPDEST PUSH1 0x0 DUP1 SLOAD PUSH1 0x40 MLOAD PUSH1 0x1 PUSH1 0xA0 PUSH1 0x2 EXP SUB SWAP1 SWAP2 AND SWAP1 PUSH32 0x8BE0079C531659141344CD1FD0A4F28419497F9722A3DAAFE3B4186F6B6457E0 SWAP1 DUP4 SWAP1 LOG3 PUSH1 0x0 DUP1 SLOAD PUSH20 0xFFFFFFFFFFFFFFFFFFFFFFFFFFFFFFFFFFFFFFFF NOT AND SWAP1 SSTORE JUMP JUMPDEST CALLER PUSH1 0x0 SWAP1 DUP2 MSTORE PUSH1 0x3 PUSH1 0x20 DUP2 DUP2 MSTORE PUSH1 0x40 DUP1 DUP5 KECCAK256 DUP7 DUP6 MSTORE SWAP1 SWAP2 MSTORE DUP3 KECCAK256 ADD SLOAD SWAP1 SUB PUSH2 0x17BF JUMPI PUSH1 0x40 MLOAD PUSH1 0xE5 PUSH1 0x2 EXP PUSH3 0x461BCD MUL DUP2 MSTORE PUSH1 0x4 ADD PUSH2 0x8E3 SWAP1 PUSH2 0x2C73 JUMP JUMPDEST CALLER PUSH1 0x0 SWAP1 DUP2 MSTORE PUSH1 0x3 PUSH1 0x20 SWAP1 DUP2 MSTORE PUSH1 0x40 DUP1 DUP4 KECCAK256 DUP6 DUP5 MSTORE SWAP1 SWAP2 MSTORE SWAP1 KECCAK256 PUSH1 0x6 ADD SLOAD PUSH1 0xFF AND ISZERO PUSH2 0x1800 JUMPI PUSH1 0x40 MLOAD PUSH1 0xE5 PUSH1 0x2 EXP PUSH3 0x461BCD MUL DUP2 MSTORE PUSH1 0x4 ADD PUSH2 0x8E3 SWAP1 PUSH2 0x2CAA JUMP JUMPDEST CALLER PUSH1 0x0 DUP2 DUP2 MSTORE PUSH1 0x9 PUSH1 0x20 SWAP1 DUP2 MSTORE PUSH1 0x40 DUP1 DUP4 KECCAK256 DUP1 SLOAD DUP3 MLOAD PUSH1 0xC0 DUP2 ADD DUP5 MSTORE SWAP6 DUP7 MSTORE DUP6 DUP5 ADD DUP9 DUP2 MSTORE SWAP3 DUP7 ADD DUP8 DUP2 MSTORE PUSH1 0x60 DUP8 ADD DUP7 SWAP1 MSTORE PUSH1 0x80 DUP8 ADD DUP7 SWAP1 MSTORE PUSH1 0xA0 DUP8 ADD DUP3 SWAP1 MSTORE PUSH1 0x1 DUP1 DUP4 ADD DUP5 SSTORE SWAP3 DUP7 MSTORE SWAP4 SWAP1 SWAP5 KECCAK256 DUP6 MLOAD PUSH1 0x5 DUP7 MUL SWAP1 SWAP2 ADD DUP1 SLOAD PUSH20 0xFFFFFFFFFFFFFFFFFFFFFFFFFFFFFFFFFFFFFFFF NOT AND PUSH1 0x1 PUSH1 0xA0 PUSH1 0x2 EXP SUB SWAP1 SWAP3 AND SWAP2 SWAP1 SWAP2 OR DUP2 SSTORE SWAP2 MLOAD SWAP1 DUP3 ADD SSTORE SWAP1 MLOAD SWAP2 SWAP3 SWAP2 PUSH1 0x2 DUP3 ADD SWAP1 PUSH2 0x189B SWAP1 DUP3 PUSH2 0x2D7E JUMP JUMPDEST POP PUSH1 0x60 DUP3 ADD MLOAD PUSH1 0x3 DUP3 ADD DUP1 SLOAD PUSH1 0x80 DUP6 ADD MLOAD ISZERO ISZERO PUSH2 0x100 MUL PUSH2 0xFF00 NOT SWAP4 ISZERO ISZERO SWAP4 SWAP1 SWAP4 AND PUSH2 0xFFFF NOT SWAP1 SWAP2 AND OR SWAP2 SWAP1 SWAP2 OR SWAP1 SSTORE PUSH1 0xA0 SWAP1 SWAP2 ADD MLOAD PUSH1 0x4 SWAP1 SWAP2 ADD SSTORE PUSH1 0x0 DUP1 JUMPDEST PUSH1 0xA SLOAD DUP2 LT ISZERO PUSH2 0x1937 JUMPI CALLER PUSH1 0x1 PUSH1 0xA0 PUSH1 0x2 EXP SUB AND PUSH1 0xA DUP3 DUP2 SLOAD DUP2 LT PUSH2 0x1902 JUMPI PUSH2 0x1902 PUSH2 0x2B6A JUMP JUMPDEST PUSH1 0x0 SWAP2 DUP3 MSTORE PUSH1 0x20 SWAP1 SWAP2 KECCAK256 ADD SLOAD PUSH1 0x1 PUSH1 0xA0 PUSH1 0x2 EXP SUB AND SUB PUSH2 0x1925 JUMPI PUSH1 0x1 SWAP2 POP PUSH2 0x1937 JUMP JUMPDEST DUP1 PUSH2 0x192F DUP2 PUSH2 0x2BAF JUMP JUMPDEST SWAP2 POP POP PUSH2 0x18DB JUMP JUMPDEST POP DUP1 PUSH2 0x198D JUMPI PUSH1 0xA DUP1 SLOAD PUSH1 0x1 DUP2 ADD DUP3 SSTORE PUSH1 0x0 SWAP2 SWAP1 SWAP2 MSTORE PUSH32 0xC65A7BB8D6351C1CF70C95A316CC6A92839C986682D98BC35F958F4883F9D2A8 ADD DUP1 SLOAD PUSH20 0xFFFFFFFFFFFFFFFFFFFFFFFFFFFFFFFFFFFFFFFF NOT AND CALLER OR SWAP1 SSTORE JUMPDEST POP POP POP POP JUMP JUMPDEST PUSH2 0x19BE PUSH1 0x40 MLOAD DUP1 PUSH1 0x80 ADD PUSH1 0x40 MSTORE DUP1 PUSH1 0x0 DUP2 MSTORE PUSH1 0x20 ADD PUSH1 0x60 DUP2 MSTORE PUSH1 0x20 ADD PUSH1 0x0 DUP2 MSTORE PUSH1 0x20 ADD PUSH1 0x0 DUP2 MSTORE POP SWAP1 JUMP JUMPDEST PUSH1 0x0 DUP3 DUP2 MSTORE PUSH1 0x6 PUSH1 0x20 MSTORE PUSH1 0x40 SWAP1 KECCAK256 DUP1 SLOAD PUSH1 0xFF NOT AND PUSH1 0x1 OR SWAP1 SSTORE PUSH1 0x2 PUSH1 0x0 DUP4 DUP2 MSTORE PUSH1 0x20 ADD SWAP1 DUP2 MSTORE PUSH1 0x20 ADD PUSH1 0x0 KECCAK256 PUSH1 0x40 MLOAD DUP1 PUSH1 0x80 ADD PUSH1 0x40 MSTORE SWAP1 DUP2 PUSH1 0x0 DUP3 ADD SLOAD DUP2 MSTORE PUSH1 0x20 ADD PUSH1 0x1 DUP3 ADD DUP1 SLOAD PUSH2 0x1A0F SWAP1 PUSH2 0x2BC8 JUMP JUMPDEST DUP1 PUSH1 0x1F ADD PUSH1 0x20 DUP1 SWAP2 DIV MUL PUSH1 0x20 ADD PUSH1 0x40 MLOAD SWAP1 DUP2 ADD PUSH1 0x40 MSTORE DUP1 SWAP3 SWAP2 SWAP1 DUP2 DUP2 MSTORE PUSH1 0x20 ADD DUP3 DUP1 SLOAD PUSH2 0x1A3B SWAP1 PUSH2 0x2BC8 JUMP JUMPDEST DUP1 ISZERO PUSH2 0x1A88 JUMPI DUP1 PUSH1 0x1F LT PUSH2 0x1A5D JUMPI PUSH2 0x100 DUP1 DUP4 SLOAD DIV MUL DUP4 MSTORE SWAP2 PUSH1 0x20 ADD SWAP2 PUSH2 0x1A88 JUMP JUMPDEST DUP3 ADD SWAP2 SWAP1 PUSH1 0x0 MSTORE PUSH1 0x20 PUSH1 0x0 KECCAK256 SWAP1 JUMPDEST DUP2 SLOAD DUP2 MSTORE SWAP1 PUSH1 0x1 ADD SWAP1 PUSH1 0x20 ADD DUP1 DUP4 GT PUSH2 0x1A6B JUMPI DUP3 SWAP1 SUB PUSH1 0x1F AND DUP3 ADD SWAP2 JUMPDEST POP POP POP POP POP DUP2 MSTORE PUSH1 0x20 ADD PUSH1 0x2 DUP3 ADD SLOAD DUP2 MSTORE PUSH1 0x20 ADD PUSH1 0x3 DUP3 ADD SLOAD DUP2 MSTORE POP POP SWAP1 POP SWAP2 SWAP1 POP JUMP JUMPDEST PUSH1 0x60 PUSH1 0x1 PUSH1 0xA0 PUSH1 0x2 EXP SUB DUP3 AND PUSH2 0x1B07 JUMPI PUSH1 0x40 MLOAD PUSH1 0xE5 PUSH1 0x2 EXP PUSH3 0x461BCD MUL DUP2 MSTORE PUSH1 0x20 PUSH1 0x4 DUP3 ADD MSTORE PUSH1 0x17 PUSH1 0x24 DUP3 ADD MSTORE PUSH32 0x496E76616C69642073747564656E742061646472657373000000000000000000 PUSH1 0x44 DUP3 ADD MSTORE PUSH1 0x64 ADD PUSH2 0x8E3 JUMP JUMPDEST PUSH1 0x1 PUSH1 0xA0 PUSH1 0x2 EXP SUB DUP3 AND PUSH1 0x0 SWAP1 DUP2 MSTORE PUSH1 0x9 PUSH1 0x20 SWAP1 DUP2 MSTORE PUSH1 0x40 DUP1 DUP4 KECCAK256 DUP1 SLOAD DUP3 MLOAD DUP2 DUP6 MUL DUP2 ADD DUP6 ADD SWAP1 SWAP4 MSTORE DUP1 DUP4 MSTORE SWAP2 SWAP4 SWAP1 SWAP3 DUP5 ADD JUMPDEST DUP3 DUP3 LT ISZERO PUSH2 0x1C4D JUMPI PUSH1 0x0 DUP5 DUP2 MSTORE PUSH1 0x20 SWAP1 DUP2 SWAP1 KECCAK256 PUSH1 0x40 DUP1 MLOAD PUSH1 0xC0 DUP2 ADD DUP3 MSTORE PUSH1 0x5 DUP7 MUL SWAP1 SWAP3 ADD DUP1 SLOAD PUSH1 0x1 PUSH1 0xA0 PUSH1 0x2 EXP SUB AND DUP4 MSTORE PUSH1 0x1 DUP2 ADD SLOAD SWAP4 DUP4 ADD SWAP4 SWAP1 SWAP4 MSTORE PUSH1 0x2 DUP4 ADD DUP1 SLOAD SWAP3 SWAP4 SWAP3 SWAP2 DUP5 ADD SWAP2 PUSH2 0x1B8D SWAP1 PUSH2 0x2BC8 JUMP JUMPDEST DUP1 PUSH1 0x1F ADD PUSH1 0x20 DUP1 SWAP2 DIV MUL PUSH1 0x20 ADD PUSH1 0x40 MLOAD SWAP1 DUP2 ADD PUSH1 0x40 MSTORE DUP1 SWAP3 SWAP2 SWAP1 DUP2 DUP2 MSTORE PUSH1 0x20 ADD DUP3 DUP1 SLOAD PUSH2 0x1BB9 SWAP1 PUSH2 0x2BC8 JUMP JUMPDEST DUP1 ISZERO PUSH2 0x1C06 JUMPI DUP1 PUSH1 0x1F LT PUSH2 0x1BDB JUMPI PUSH2 0x100 DUP1 DUP4 SLOAD DIV MUL DUP4 MSTORE SWAP2 PUSH1 0x20 ADD SWAP2 PUSH2 0x1C06 JUMP JUMPDEST DUP3 ADD SWAP2 SWAP1 PUSH1 0x0 MSTORE PUSH1 0x20 PUSH1 0x0 KECCAK256 SWAP1 JUMPDEST DUP2 SLOAD DUP2 MSTORE SWAP1 PUSH1 0x1 ADD SWAP1 PUSH1 0x20 ADD DUP1 DUP4 GT PUSH2 0x1BE9 JUMPI DUP3 SWAP1 SUB PUSH1 0x1F AND DUP3 ADD SWAP2 JUMPDEST POP POP POP SWAP2 DUP4 MSTORE POP POP PUSH1 0x3 DUP3 ADD SLOAD PUSH1 0xFF DUP1 DUP3 AND ISZERO ISZERO PUSH1 0x20 DUP1 DUP6 ADD SWAP2 SWAP1 SWAP2 MSTORE PUSH2 0x100 SWAP1 SWAP3 DIV AND ISZERO ISZERO PUSH1 0x40 DUP4 ADD MSTORE PUSH1 0x4 SWAP1 SWAP3 ADD SLOAD PUSH1 0x60 SWAP1 SWAP2 ADD MSTORE SWAP1 DUP3 MSTORE PUSH1 0x1 SWAP3 SWAP1 SWAP3 ADD SWAP2 ADD PUSH2 0x1B3A JUMP JUMPDEST POP POP POP POP SWAP1 POP SWAP2 SWAP1 POP JUMP JUMPDEST PUSH1 0x2 PUSH1 0x20 MSTORE PUSH1 0x0 SWAP1 DUP2 MSTORE PUSH1 0x40 SWAP1 KECCAK256 DUP1 SLOAD PUSH1 0x1 DUP3 ADD DUP1 SLOAD SWAP2 SWAP3 SWAP2 PUSH2 0x1C7A SWAP1 PUSH2 0x2BC8 JUMP JUMPDEST DUP1 PUSH1 0x1F ADD PUSH1 0x20 DUP1 SWAP2 DIV MUL PUSH1 0x20 ADD PUSH1 0x40 MLOAD SWAP1 DUP2 ADD PUSH1 0x40 MSTORE DUP1 SWAP3 SWAP2 SWAP1 DUP2 DUP2 MSTORE PUSH1 0x20 ADD DUP3 DUP1 SLOAD PUSH2 0x1CA6 SWAP1 PUSH2 0x2BC8 JUMP JUMPDEST DUP1 ISZERO PUSH2 0x1CF3 JUMPI DUP1 PUSH1 0x1F LT PUSH2 0x1CC8 JUMPI PUSH2 0x100 DUP1 DUP4 SLOAD DIV MUL DUP4 MSTORE SWAP2 PUSH1 0x20 ADD SWAP2 PUSH2 0x1CF3 JUMP JUMPDEST DUP3 ADD SWAP2 SWAP1 PUSH1 0x0 MSTORE PUSH1 0x20 PUSH1 0x0 KECCAK256 SWAP1 JUMPDEST DUP2 SLOAD DUP2 MSTORE SWAP1 PUSH1 0x1 ADD SWAP1 PUSH1 0x20 ADD DUP1 DUP4 GT PUSH2 0x1CD6 JUMPI DUP3 SWAP1 SUB PUSH1 0x1F AND DUP3 ADD SWAP2 JUMPDEST POP POP POP POP POP SWAP1 DUP1 PUSH1 0x2 ADD SLOAD SWAP1 DUP1 PUSH1 0x3 ADD SLOAD SWAP1 POP DUP5 JUMP JUMPDEST CALLER PUSH1 0x0 SWAP1 DUP2 MSTORE PUSH1 0x5 PUSH1 0x20 MSTORE PUSH1 0x40 SWAP1 KECCAK256 SLOAD PUSH1 0xFF AND PUSH2 0x1D6B JUMPI PUSH1 0x40 MLOAD PUSH1 0xE5 PUSH1 0x2 EXP PUSH3 0x461BCD MUL DUP2 MSTORE PUSH1 0x20 PUSH1 0x4 DUP3 ADD MSTORE PUSH1 0xD PUSH1 0x24 DUP3 ADD MSTORE PUSH32 0x4E6F742061207465616368657200000000000000000000000000000000000000 PUSH1 0x44 DUP3 ADD MSTORE PUSH1 0x64 ADD PUSH2 0x8E3 JUMP JUMPDEST PUSH1 0x1 PUSH1 0xA0 PUSH1 0x2 EXP SUB DUP4 AND PUSH1 0x0 SWAP1 DUP2 MSTORE PUSH1 0x3 PUSH1 0x20 DUP2 DUP2 MSTORE PUSH1 0x40 DUP1 DUP5 KECCAK256 DUP7 DUP6 MSTORE SWAP1 SWAP2 MSTORE DUP3 KECCAK256 ADD SLOAD SWAP1 SUB PUSH2 0x1DB1 JUMPI PUSH1 0x40 MLOAD PUSH1 0xE5 PUSH1 0x2 EXP PUSH3 0x461BCD MUL DUP2 MSTORE PUSH1 0x4 ADD PUSH2 0x8E3 SWAP1 PUSH2 0x2C73 JUMP JUMPDEST PUSH1 0x1 PUSH1 0xA0 PUSH1 0x2 EXP SUB DUP4 AND PUSH2 0x1DDA JUMPI PUSH1 0x40 MLOAD PUSH1 0xE5 PUSH1 0x2 EXP PUSH3 0x461BCD MUL DUP2 MSTORE PUSH1 0x4 ADD PUSH2 0x8E3 SWAP1 PUSH2 0x2CE1 JUMP JUMPDEST PUSH1 0x1 PUSH1 0xA0 PUSH1 0x2 EXP SUB DUP4 AND PUSH1 0x0 SWAP1 DUP2 MSTORE PUSH1 0x3 PUSH1 0x20 SWAP1 DUP2 MSTORE PUSH1 0x40 DUP1 DUP4 KECCAK256 DUP6 DUP5 MSTORE SWAP1 SWAP2 MSTORE SWAP1 KECCAK256 PUSH1 0x6 ADD SLOAD PUSH1 0xFF AND ISZERO PUSH2 0x1E24 JUMPI PUSH1 0x40 MLOAD PUSH1 0xE5 PUSH1 0x2 EXP PUSH3 0x461BCD MUL DUP2 MSTORE PUSH1 0x4 ADD PUSH2 0x8E3 SWAP1 PUSH2 0x2CAA JUMP JUMPDEST PUSH1 0x1 PUSH1 0xA0 PUSH1 0x2 EXP SUB DUP4 AND PUSH1 0x0 SWAP1 DUP2 MSTORE PUSH1 0x3 PUSH1 0x20 SWAP1 DUP2 MSTORE PUSH1 0x40 DUP1 DUP4 KECCAK256 DUP6 DUP5 MSTORE SWAP1 SWAP2 MSTORE DUP2 KECCAK256 PUSH1 0x5 ADD SLOAD PUSH2 0x1E56 SWAP1 PUSH1 0x1 PUSH2 0x2B9C JUMP JUMPDEST PUSH1 0x0 DUP5 DUP2 MSTORE PUSH1 0x2 PUSH1 0x20 DUP2 SWAP1 MSTORE PUSH1 0x40 DUP3 KECCAK256 ADD SLOAD SWAP2 SWAP3 POP SWAP1 PUSH2 0x1E76 SWAP1 DUP5 PUSH2 0x2D18 JUMP JUMPDEST PUSH1 0x1 PUSH1 0xA0 PUSH1 0x2 EXP SUB SWAP6 SWAP1 SWAP6 AND PUSH1 0x0 SWAP1 DUP2 MSTORE PUSH1 0x3 PUSH1 0x20 SWAP1 DUP2 MSTORE PUSH1 0x40 DUP1 DUP4 KECCAK256 SWAP7 DUP4 MSTORE SWAP6 SWAP1 MSTORE SWAP4 SWAP1 SWAP4 KECCAK256 PUSH1 0x1 DUP1 DUP3 ADD SWAP6 SWAP1 SWAP6 SSTORE PUSH1 0x5 DUP2 ADD SWAP2 SWAP1 SWAP2 SSTORE PUSH1 0x2 DUP2 ADD SWAP2 SWAP1 SWAP2 SSTORE PUSH1 0x4 ADD DUP1 SLOAD PUSH1 0xFF NOT AND SWAP1 SWAP3 OR SWAP1 SWAP2 SSTORE POP JUMP JUMPDEST CALLER PUSH1 0x0 SWAP1 DUP2 MSTORE PUSH1 0x1 PUSH1 0x20 MSTORE PUSH1 0x40 SWAP1 KECCAK256 SLOAD PUSH1 0xFF AND PUSH2 0x1EFA JUMPI PUSH1 0x40 MLOAD PUSH1 0xE5 PUSH1 0x2 EXP PUSH3 0x461BCD MUL DUP2 MSTORE PUSH1 0x4 ADD PUSH2 0x8E3 SWAP1 PUSH2 0x2C3C JUMP JUMPDEST PUSH1 0x1 PUSH1 0xA0 PUSH1 0x2 EXP SUB DUP3 AND PUSH1 0x0 SWAP1 DUP2 MSTORE PUSH1 0x9 PUSH1 0x20 MSTORE PUSH1 0x40 SWAP1 KECCAK256 DUP1 SLOAD DUP3 SWAP1 DUP2 LT PUSH2 0x1F24 JUMPI PUSH2 0x1F24 PUSH2 0x2B6A JUMP JUMPDEST PUSH1 0x0 SWAP2 DUP3 MSTORE PUSH1 0x20 SWAP1 SWAP2 KECCAK256 PUSH1 0x3 PUSH1 0x5 SWAP1 SWAP3 MUL ADD ADD SLOAD PUSH1 0xFF AND PUSH2 0x1F8A JUMPI PUSH1 0x40 MLOAD PUSH1 0xE5 PUSH1 0x2 EXP PUSH3 0x461BCD MUL DUP2 MSTORE PUSH1 0x20 PUSH1 0x4 DUP3 ADD MSTORE PUSH1 0x15 PUSH1 0x24 DUP3 ADD MSTORE PUSH32 0x5472616E73666572206E6F7420617070726F7665640000000000000000000000 PUSH1 0x44 DUP3 ADD MSTORE PUSH1 0x64 ADD PUSH2 0x8E3 JUMP JUMPDEST PUSH1 0x1 PUSH1 0xA0 PUSH1 0x2 EXP SUB DUP3 AND PUSH1 0x0 SWAP1 DUP2 MSTORE PUSH1 0x9 PUSH1 0x20 MSTORE PUSH1 0x40 SWAP1 KECCAK256 DUP1 SLOAD DUP3 SWAP1 DUP2 LT PUSH2 0x1FB4 JUMPI PUSH2 0x1FB4 PUSH2 0x2B6A JUMP JUMPDEST SWAP1 PUSH1 0x0 MSTORE PUSH1 0x20 PUSH1 0x0 KECCAK256 SWAP1 PUSH1 0x5 MUL ADD PUSH1 0x3 ADD PUSH1 0x1 SWAP1 SLOAD SWAP1 PUSH2 0x100 EXP SWAP1 DIV PUSH1 0xFF AND ISZERO PUSH2 0x2023 JUMPI PUSH1 0x40 MLOAD PUSH1 0xE5 PUSH1 0x2 EXP PUSH3 0x461BCD MUL DUP2 MSTORE PUSH1 0x20 PUSH1 0x4 DUP3 ADD MSTORE PUSH1 0x19 PUSH1 0x24 DUP3 ADD MSTORE PUSH32 0x5472616E7366657220616C726561647920657865637574656400000000000000 PUSH1 0x44 DUP3 ADD MSTORE PUSH1 0x64 ADD PUSH2 0x8E3 JUMP JUMPDEST PUSH1 0x1 PUSH1 0xA0 PUSH1 0x2 EXP SUB DUP3 AND PUSH1 0x0 SWAP1 DUP2 MSTORE PUSH1 0x9 PUSH1 0x20 MSTORE PUSH1 0x40 SWAP1 KECCAK256 DUP1 SLOAD DUP3 SWAP1 DUP2 LT PUSH2 0x204D JUMPI PUSH2 0x204D PUSH2 0x2B6A JUMP JUMPDEST PUSH1 0x0 SWAP2 DUP3 MSTORE PUSH1 0x20 DUP1 DUP4 KECCAK256 PUSH1 0x1 PUSH1 0xA0 PUSH1 0x2 EXP SUB DUP7 AND DUP5 MSTORE PUSH1 0x3 DUP3 MSTORE PUSH1 0x40 DUP1 DUP6 KECCAK256 PUSH1 0x9 SWAP1 SWAP4 MSTORE DUP5 KECCAK256 DUP1 SLOAD PUSH1 0x5 SWAP5 SWAP1 SWAP5 MUL SWAP1 SWAP2 ADD PUSH1 0x2 ADD SWAP4 SWAP2 SWAP3 DUP6 SWAP1 DUP2 LT PUSH2 0x2094 JUMPI PUSH2 0x2094 PUSH2 0x2B6A JUMP JUMPDEST SWAP1 PUSH1 0x0 MSTORE PUSH1 0x20 PUSH1 0x0 KECCAK256 SWAP1 PUSH1 0x5 MUL ADD PUSH1 0x1 ADD SLOAD DUP2 MSTORE PUSH1 0x20 ADD SWAP1 DUP2 MSTORE PUSH1 0x20 ADD PUSH1 0x0 KECCAK256 PUSH1 0x9 ADD SWAP1 DUP2 PUSH2 0x20C3 SWAP2 SWAP1 PUSH2 0x2E57 JUMP JUMPDEST POP PUSH1 0x1 PUSH1 0xA0 PUSH1 0x2 EXP SUB DUP3 AND PUSH1 0x0 SWAP1 DUP2 MSTORE PUSH1 0x9 PUSH1 0x20 MSTORE PUSH1 0x40 SWAP1 KECCAK256 DUP1 SLOAD PUSH1 0x1 SWAP2 SWAP1 DUP4 SWAP1 DUP2 LT PUSH2 0x20F2 JUMPI PUSH2 0x20F2 PUSH2 0x2B6A JUMP JUMPDEST PUSH1 0x0 SWAP2 DUP3 MSTORE PUSH1 0x20 DUP1 DUP4 KECCAK256 PUSH1 0x3 PUSH1 0x5 SWAP1 SWAP4 MUL ADD DUP3 ADD DUP1 SLOAD SWAP5 ISZERO ISZERO PUSH2 0x100 MUL PUSH2 0xFF00 NOT SWAP1 SWAP6 AND SWAP5 SWAP1 SWAP5 OR SWAP1 SWAP4 SSTORE PUSH1 0x1 PUSH1 0xA0 PUSH1 0x2 EXP SUB DUP6 AND DUP3 MSTORE DUP3 MSTORE PUSH1 0x40 DUP1 DUP3 KECCAK256 PUSH1 0x9 SWAP1 SWAP4 MSTORE DUP2 KECCAK256 DUP1 SLOAD PUSH1 0x1 SWAP4 SWAP3 SWAP2 SWAP1 DUP6 SWAP1 DUP2 LT PUSH2 0x214F JUMPI PUSH2 0x214F PUSH2 0x2B6A JUMP JUMPDEST SWAP1 PUSH1 0x0 MSTORE PUSH1 0x20 PUSH1 0x0 KECCAK256 SWAP1 PUSH1 0x5 MUL ADD PUSH1 0x1 ADD SLOAD DUP2 MSTORE PUSH1 0x20 ADD SWAP1 DUP2 MSTORE PUSH1 0x20 ADD PUSH1 0x0 KECCAK256 PUSH1 0x8 ADD PUSH1 0x0 PUSH2 0x100 EXP DUP2 SLOAD DUP2 PUSH1 0xFF MUL NOT AND SWAP1 DUP4 ISZERO ISZERO MUL OR SWAP1 SSTORE POP POP POP JUMP JUMPDEST CALLER PUSH1 0x0 SWAP1 DUP2 MSTORE PUSH1 0x1 PUSH1 0x20 MSTORE PUSH1 0x40 SWAP1 KECCAK256 SLOAD PUSH1 0xFF AND PUSH2 0x21BF JUMPI PUSH1 0x40 MLOAD PUSH1 0xE5 PUSH1 0x2 EXP PUSH3 0x461BCD MUL DUP2 MSTORE PUSH1 0x4 ADD PUSH2 0x8E3 SWAP1 PUSH2 0x2C3C JUMP JUMPDEST PUSH1 0x0 DUP4 DUP2 MSTORE PUSH1 0x6 PUSH1 0x20 MSTORE PUSH1 0x40 SWAP1 KECCAK256 SLOAD PUSH1 0xFF AND ISZERO PUSH2 0x2221 JUMPI PUSH1 0x40 MLOAD PUSH1 0xE5 PUSH1 0x2 EXP PUSH3 0x461BCD MUL DUP2 MSTORE PUSH1 0x20 PUSH1 0x4 DUP3 ADD MSTORE PUSH1 0x15 PUSH1 0x24 DUP3 ADD MSTORE PUSH32 0x436F7572736520616C7265616479206578697374730000000000000000000000 PUSH1 0x44 DUP3 ADD MSTORE PUSH1 0x64 ADD PUSH2 0x8E3 JUMP JUMPDEST PUSH1 0x0 DUP4 DUP2 MSTORE PUSH1 0x6 PUSH1 0x20 SWAP1 DUP2 MSTORE PUSH1 0x40 DUP1 DUP4 KECCAK256 DUP1 SLOAD PUSH1 0xFF NOT AND PUSH1 0x1 SWAP1 DUP2 OR SWAP1 SWAP2 SSTORE PUSH1 0x7 DUP1 SLOAD DUP1 DUP4 ADD SWAP1 SWAP2 SSTORE PUSH32 0xA66CC928B5EDB82AF9BD49922954155AB7B0942694BEA4CE44661D9A8736C688 ADD DUP8 SWAP1 SSTORE DUP2 MLOAD PUSH1 0x80 DUP2 ADD DUP4 MSTORE DUP8 DUP2 MSTORE DUP1 DUP5 ADD DUP7 DUP2 MSTORE DUP2 DUP5 ADD DUP9 SWAP1 MSTORE TIMESTAMP PUSH1 0x60 DUP4 ADD MSTORE DUP9 DUP7 MSTORE PUSH1 0x2 SWAP1 SWAP5 MSTORE SWAP2 SWAP1 SWAP4 KECCAK256 DUP2 MLOAD DUP2 SSTORE SWAP2 MLOAD SWAP1 SWAP3 DUP3 ADD SWAP1 PUSH2 0x22AD SWAP1 DUP3 PUSH2 0x2D7E JUMP JUMPDEST POP PUSH1 0x40 DUP3 ADD MLOAD PUSH1 0x2 DUP3 ADD SSTORE PUSH1 0x60 SWAP1 SWAP2 ADD MLOAD PUSH1 0x3 SWAP1 SWAP2 ADD SSTORE POP POP POP JUMP JUMPDEST PUSH1 0x7 DUP2 DUP2 SLOAD DUP2 LT PUSH2 0x22D9 JUMPI PUSH1 0x0 DUP1 REVERT JUMPDEST PUSH1 0x0 SWAP2 DUP3 MSTORE PUSH1 0x20 SWAP1 SWAP2 KECCAK256 ADD SLOAD SWAP1 POP DUP2 JUMP JUMPDEST PUSH1 0x3 PUSH1 0x20 DUP2 DUP2 MSTORE PUSH1 0x0 SWAP4 DUP5 MSTORE PUSH1 0x40 DUP1 DUP6 KECCAK256 SWAP1 SWAP2 MSTORE SWAP2 DUP4 MSTORE SWAP2 KECCAK256 DUP1 SLOAD PUSH1 0x1 DUP3 ADD SLOAD PUSH1 0x2 DUP4 ADD SLOAD SWAP4 DUP4 ADD SLOAD PUSH1 0x4 DUP5 ADD SLOAD PUSH1 0x5 DUP6 ADD SLOAD PUSH1 0x6 DUP7 ADD SLOAD PUSH1 0x7 DUP8 ADD DUP1 SLOAD SWAP7 SWAP9 SWAP6 SWAP8 SWAP6 SWAP7 SWAP5 SWAP6 PUSH1 0xFF SWAP5 DUP6 AND SWAP6 SWAP4 SWAP5 SWAP1 SWAP3 AND SWAP3 PUSH2 0x2345 SWAP1 PUSH2 0x2BC8 JUMP JUMPDEST DUP1 PUSH1 0x1F ADD PUSH1 0x20 DUP1 SWAP2 DIV MUL PUSH1 0x20 ADD PUSH1 0x40 MLOAD SWAP1 DUP2 ADD PUSH1 0x40 MSTORE DUP1 SWAP3 SWAP2 SWAP1 DUP2 DUP2 MSTORE PUSH1 0x20 ADD DUP3 DUP1 SLOAD PUSH2 0x2371 SWAP1 PUSH2 0x2BC8 JUMP JUMPDEST DUP1 ISZERO PUSH2 0x23BE JUMPI DUP1 PUSH1 0x1F LT PUSH2 0x2393 JUMPI PUSH2 0x100 DUP1 DUP4 SLOAD DIV MUL DUP4 MSTORE SWAP2 PUSH1 0x20 ADD SWAP2 PUSH2 0x23BE JUMP JUMPDEST DUP3 ADD SWAP2 SWAP1 PUSH1 0x0 MSTORE PUSH1 0x20 PUSH1 0x0 KECCAK256 SWAP1 JUMPDEST DUP2 SLOAD DUP2 MSTORE SWAP1 PUSH1 0x1 ADD SWAP1 PUSH1 0x20 ADD DUP1 DUP4 GT PUSH2 0x23A1 JUMPI DUP3 SWAP1 SUB PUSH1 0x1F AND DUP3 ADD SWAP2 JUMPDEST POP POP POP PUSH1 0x8 DUP5 ADD SLOAD PUSH1 0x9 DUP6 ADD DUP1 SLOAD SWAP5 SWAP6 PUSH1 0xFF SWAP1 SWAP3 AND SWAP5 SWAP2 SWAP4 POP SWAP2 POP PUSH2 0x23E2 SWAP1 PUSH2 0x2BC8 JUMP JUMPDEST DUP1 PUSH1 0x1F ADD PUSH1 0x20 DUP1 SWAP2 DIV MUL PUSH1 0x20 ADD PUSH1 0x40 MLOAD SWAP1 DUP2 ADD PUSH1 0x40 MSTORE DUP1 SWAP3 SWAP2 SWAP1 DUP2 DUP2 MSTORE PUSH1 0x20 ADD DUP3 DUP1 SLOAD PUSH2 0x240E SWAP1 PUSH2 0x2BC8 JUMP JUMPDEST DUP1 ISZERO PUSH2 0x245B JUMPI DUP1 PUSH1 0x1F LT PUSH2 0x2430 JUMPI PUSH2 0x100 DUP1 DUP4 SLOAD DIV MUL DUP4 MSTORE SWAP2 PUSH1 0x20 ADD SWAP2 PUSH2 0x245B JUMP JUMPDEST DUP3 ADD SWAP2 SWAP1 PUSH1 0x0 MSTORE PUSH1 0x20 PUSH1 0x0 KECCAK256 SWAP1 JUMPDEST DUP2 SLOAD DUP2 MSTORE SWAP1 PUSH1 0x1 ADD SWAP1 PUSH1 0x20 ADD DUP1 DUP4 GT PUSH2 0x243E JUMPI DUP3 SWAP1 SUB PUSH1 0x1F AND DUP3 ADD SWAP2 JUMPDEST POP POP POP POP POP SWAP1 POP DUP11 JUMP JUMPDEST PUSH1 0x0 SLOAD PUSH1 0x1 PUSH1 0xA0 PUSH1 0x2 EXP SUB AND CALLER EQ PUSH2 0x2492 JUMPI PUSH1 0x40 MLOAD PUSH1 0xE5 PUSH1 0x2 EXP PUSH3 0x461BCD MUL DUP2 MSTORE PUSH1 0x4 ADD PUSH2 0x8E3 SWAP1 PUSH2 0x2C05 JUMP JUMPDEST PUSH1 0x1 PUSH1 0xA0 PUSH1 0x2 EXP SUB DUP2 AND PUSH2 0x24EB JUMPI PUSH1 0x40 MLOAD PUSH1 0xE5 PUSH1 0x2 EXP PUSH3 0x461BCD MUL DUP2 MSTORE PUSH1 0x20 PUSH1 0x4 DUP3 ADD MSTORE PUSH1 0x8 PUSH1 0x24 DUP3 ADD MSTORE PUSH32 0x6E65772069732030000000000000000000000000000000000000000000000000 PUSH1 0x44 DUP3 ADD MSTORE PUSH1 0x64 ADD PUSH2 0x8E3 JUMP JUMPDEST PUSH1 0x0 DUP1 SLOAD PUSH1 0x40 MLOAD PUSH1 0x1 PUSH1 0xA0 PUSH1 0x2 EXP SUB DUP1 DUP6 AND SWAP4 SWAP3 AND SWAP2 PUSH32 0x8BE0079C531659141344CD1FD0A4F28419497F9722A3DAAFE3B4186F6B6457E0 SWAP2 LOG3 PUSH1 0x0 DUP1 SLOAD PUSH20 0xFFFFFFFFFFFFFFFFFFFFFFFFFFFFFFFFFFFFFFFF NOT AND PUSH1 0x1 PUSH1 0xA0 PUSH1 0x2 EXP SUB SWAP3 SWAP1 SWAP3 AND SWAP2 SWAP1 SWAP2 OR SWAP1 SSTORE JUMP JUMPDEST PUSH1 0x40 MLOAD DUP1 PUSH2 0x140 ADD PUSH1 0x40 MSTORE DUP1 PUSH1 0x0 DUP2 MSTORE PUSH1 0x20 ADD PUSH1 0x0 DUP2 MSTORE PUSH1 0x20 ADD PUSH1 0x0 DUP2 MSTORE PUSH1 0x20 ADD PUSH1 0x0 DUP2 MSTORE PUSH1 0x20 ADD PUSH1 0x0 ISZERO ISZERO DUP2 MSTORE PUSH1 0x20 ADD PUSH1 0x0 DUP2 MSTORE PUSH1 0x20 ADD PUSH1 0x0 ISZERO ISZERO DUP2 MSTORE PUSH1 0x20 ADD PUSH1 0x60 DUP2 MSTORE PUSH1 0x20 ADD PUSH1 0x0 ISZERO ISZERO DUP2 MSTORE PUSH1 0x20 ADD PUSH1 0x60 DUP2 MSTORE POP SWAP1 JUMP JUMPDEST DUP1 CALLDATALOAD PUSH1 0x1 PUSH1 0xA0 PUSH1 0x2 EXP SUB DUP2 AND DUP2 EQ PUSH2 0x25C3 JUMPI PUSH1 0x0 DUP1 REVERT JUMPDEST SWAP2 SWAP1 POP JUMP JUMPDEST PUSH1 0x0 PUSH1 0x20 DUP3 DUP5 SUB SLT ISZERO PUSH2 0x25DA JUMPI PUSH1 0x0 DUP1 REVERT JUMPDEST PUSH2 0x25E3 DUP3 PUSH2 0x25AC JUMP JUMPDEST SWAP4 SWAP3 POP POP POP JUMP JUMPDEST PUSH1 0x0 DUP1 PUSH1 0x40 DUP4 DUP6 SUB SLT ISZERO PUSH2 0x25FD JUMPI PUSH1 0x0 DUP1 REVERT JUMPDEST PUSH2 0x2606 DUP4 PUSH2 0x25AC JUMP JUMPDEST SWAP5 PUSH1 0x20 SWAP4 SWAP1 SWAP4 ADD CALLDATALOAD SWAP4 POP POP POP JUMP JUMPDEST PUSH1 0x0 DUP2 MLOAD DUP1 DUP5 MSTORE PUSH1 0x0 JUMPDEST DUP2 DUP2 LT ISZERO PUSH2 0x263A JUMPI PUSH1 0x20 DUP2 DUP6 ADD DUP2 ADD MLOAD DUP7 DUP4 ADD DUP3 ADD MSTORE ADD PUSH2 0x261E JUMP JUMPDEST POP PUSH1 0x0 PUSH1 0x20 DUP3 DUP7 ADD ADD MSTORE PUSH1 0x20 PUSH1 0x1F NOT PUSH1 0x1F DUP4 ADD AND DUP6 ADD ADD SWAP2 POP POP SWAP3 SWAP2 POP POP JUMP JUMPDEST PUSH1 0x20 DUP1 DUP3 MSTORE DUP3 MLOAD DUP3 DUP3 ADD DUP2 SWAP1 MSTORE PUSH1 0x0 SWAP2 SWAP1 PUSH1 0x40 SWAP1 DUP2 DUP6 ADD SWAP1 DUP1 DUP5 MUL DUP7 ADD DUP4 ADD DUP8 DUP6 ADD DUP7 JUMPDEST DUP4 DUP2 LT ISZERO PUSH2 0x26F5 JUMPI PUSH1 0x3F NOT DUP10 DUP5 SUB ADD DUP6 MSTORE DUP2 MLOAD PUSH1 0xC0 PUSH1 0x1 PUSH1 0xA0 PUSH1 0x2 EXP SUB DUP3 MLOAD AND DUP6 MSTORE DUP9 DUP3 ADD MLOAD DUP10 DUP7 ADD MSTORE DUP8 DUP3 ADD MLOAD DUP2 DUP10 DUP8 ADD MSTORE PUSH2 0x26BD DUP3 DUP8 ADD DUP3 PUSH2 0x2614 JUMP JUMPDEST PUSH1 0x60 DUP5 DUP2 ADD MLOAD ISZERO ISZERO SWAP1 DUP9 ADD MSTORE PUSH1 0x80 DUP1 DUP6 ADD MLOAD ISZERO ISZERO SWAP1 DUP9 ADD MSTORE PUSH1 0xA0 SWAP4 DUP5 ADD MLOAD SWAP4 SWAP1 SWAP7 ADD SWAP3 SWAP1 SWAP3 MSTORE POP POP SWAP4 DUP7 ADD SWAP4 SWAP1 DUP7 ADD SWAP1 PUSH1 0x1 ADD PUSH2 0x267E JUMP JUMPDEST POP SWAP1 SWAP9 SWAP8 POP POP POP POP POP POP POP POP JUMP JUMPDEST PUSH1 0x0 PUSH1 0x20 DUP3 DUP5 SUB SLT ISZERO PUSH2 0x2715 JUMPI PUSH1 0x0 DUP1 REVERT JUMPDEST POP CALLDATALOAD SWAP2 SWAP1 POP JUMP JUMPDEST PUSH1 0x20 DUP1 DUP3 MSTORE DUP3 MLOAD DUP3 DUP3 ADD DUP2 SWAP1 MSTORE PUSH1 0x0 SWAP2 SWAP1 PUSH1 0x40 SWAP1 DUP2 DUP6 ADD SWAP1 DUP1 DUP5 MUL DUP7 ADD DUP4 ADD DUP8 DUP6 ADD DUP7 JUMPDEST DUP4 DUP2 LT ISZERO PUSH2 0x26F5 JUMPI PUSH1 0x3F NOT DUP10 DUP5 SUB ADD DUP6 MSTORE DUP2 MLOAD DUP1 MLOAD DUP5 MSTORE DUP8 DUP2 ADD MLOAD DUP9 DUP6 ADD MSTORE DUP7 DUP2 ADD MLOAD DUP8 DUP6 ADD MSTORE PUSH1 0x60 DUP1 DUP3 ADD MLOAD SWAP1 DUP6 ADD MSTORE PUSH1 0x80 DUP1 DUP3 ADD MLOAD ISZERO ISZERO SWAP1 DUP6 ADD MSTORE PUSH1 0xA0 DUP1 DUP3 ADD MLOAD SWAP1 DUP6 ADD MSTORE PUSH1 0xC0 DUP1 DUP3 ADD MLOAD ISZERO ISZERO SWAP1 DUP6 ADD MSTORE PUSH1 0xE0 DUP1 DUP3 ADD MLOAD PUSH2 0x140 DUP3 DUP8 ADD DUP2 SWAP1 MSTORE SWAP2 SWAP1 PUSH2 0x27B0 DUP4 DUP9 ADD DUP3 PUSH2 0x2614 JUMP JUMPDEST SWAP3 POP POP POP PUSH2 0x100 DUP1 DUP4 ADD MLOAD PUSH2 0x27C8 DUP3 DUP9 ADD DUP3 ISZERO ISZERO SWAP1 MSTORE JUMP JUMPDEST POP POP PUSH2 0x120 DUP1 DUP4 ADD MLOAD SWAP3 POP DUP6 DUP3 SUB DUP2 DUP8 ADD MSTORE POP PUSH2 0x27E5 DUP2 DUP4 PUSH2 0x2614 JUMP JUMPDEST SWAP7 DUP10 ADD SWAP7 SWAP5 POP POP POP SWAP1 DUP7 ADD SWAP1 PUSH1 0x1 ADD PUSH2 0x2740 JUMP JUMPDEST PUSH1 0x1 PUSH1 0xA0 PUSH1 0x2 EXP SUB DUP8 AND DUP2 MSTORE DUP6 PUSH1 0x20 DUP3 ADD MSTORE PUSH1 0xC0 PUSH1 0x40 DUP3 ADD MSTORE PUSH1 0x0 PUSH2 0x2821 PUSH1 0xC0 DUP4 ADD DUP8 PUSH2 0x2614 JUMP JUMPDEST SWAP5 ISZERO ISZERO PUSH1 0x60 DUP4 ADD MSTORE POP SWAP2 ISZERO ISZERO PUSH1 0x80 DUP4 ADD MSTORE PUSH1 0xA0 SWAP1 SWAP2 ADD MSTORE SWAP4 SWAP3 POP POP POP JUMP JUMPDEST PUSH1 0xE0 PUSH1 0x2 EXP PUSH4 0x4E487B71 MUL PUSH1 0x0 MSTORE PUSH1 0x41 PUSH1 0x4 MSTORE PUSH1 0x24 PUSH1 0x0 REVERT JUMPDEST PUSH1 0x0 DUP3 PUSH1 0x1F DUP4 ADD SLT PUSH2 0x2869 JUMPI PUSH1 0x0 DUP1 REVERT JUMPDEST DUP2 CALLDATALOAD PUSH8 0xFFFFFFFFFFFFFFFF DUP1 DUP3 GT ISZERO PUSH2 0x2884 JUMPI PUSH2 0x2884 PUSH2 0x283F JUMP JUMPDEST PUSH1 0x40 MLOAD PUSH1 0x1F DUP4 ADD PUSH1 0x1F NOT SWAP1 DUP2 AND PUSH1 0x3F ADD AND DUP2 ADD SWAP1 DUP3 DUP3 GT DUP2 DUP4 LT OR ISZERO PUSH2 0x28AC JUMPI PUSH2 0x28AC PUSH2 0x283F JUMP JUMPDEST DUP2 PUSH1 0x40 MSTORE DUP4 DUP2 MSTORE DUP7 PUSH1 0x20 DUP6 DUP9 ADD ADD GT ISZERO PUSH2 0x28C5 JUMPI PUSH1 0x0 DUP1 REVERT JUMPDEST DUP4 PUSH1 0x20 DUP8 ADD PUSH1 0x20 DUP4 ADD CALLDATACOPY PUSH1 0x0 PUSH1 0x20 DUP6 DUP4 ADD ADD MSTORE DUP1 SWAP5 POP POP POP POP POP SWAP3 SWAP2 POP POP JUMP JUMPDEST PUSH1 0x0 DUP1 PUSH1 0x0 DUP1 PUSH1 0x80 DUP6 DUP8 SUB SLT ISZERO PUSH2 0x28FB JUMPI PUSH1 0x0 DUP1 REVERT JUMPDEST PUSH2 0x2904 DUP6 PUSH2 0x25AC JUMP JUMPDEST SWAP4 POP PUSH1 0x20 DUP6 ADD CALLDATALOAD SWAP3 POP PUSH1 0x40 DUP6 ADD CALLDATALOAD SWAP2 POP PUSH1 0x60 DUP6 ADD CALLDATALOAD PUSH8 0xFFFFFFFFFFFFFFFF DUP2 GT ISZERO PUSH2 0x292E JUMPI PUSH1 0x0 DUP1 REVERT JUMPDEST PUSH2 0x293A DUP8 DUP3 DUP9 ADD PUSH2 0x2858 JUMP JUMPDEST SWAP2 POP POP SWAP3 SWAP6 SWAP2 SWAP5 POP SWAP3 POP JUMP JUMPDEST PUSH1 0x20 DUP1 DUP3 MSTORE DUP3 MLOAD DUP3 DUP3 ADD DUP2 SWAP1 MSTORE PUSH1 0x0 SWAP2 SWAP1 DUP5 DUP3 ADD SWAP1 PUSH1 0x40 DUP6 ADD SWAP1 DUP5 JUMPDEST DUP2 DUP2 LT ISZERO PUSH2 0x297E JUMPI DUP4 MLOAD DUP4 MSTORE SWAP3 DUP5 ADD SWAP3 SWAP2 DUP5 ADD SWAP2 PUSH1 0x1 ADD PUSH2 0x2962 JUMP JUMPDEST POP SWAP1 SWAP7 SWAP6 POP POP POP POP POP POP JUMP JUMPDEST PUSH1 0x0 DUP1 PUSH1 0x40 DUP4 DUP6 SUB SLT ISZERO PUSH2 0x299D JUMPI PUSH1 0x0 DUP1 REVERT JUMPDEST DUP3 CALLDATALOAD SWAP2 POP PUSH1 0x20 DUP4 ADD CALLDATALOAD PUSH8 0xFFFFFFFFFFFFFFFF DUP2 GT ISZERO PUSH2 0x29BB JUMPI PUSH1 0x0 DUP1 REVERT JUMPDEST PUSH2 0x29C7 DUP6 DUP3 DUP7 ADD PUSH2 0x2858 JUMP JUMPDEST SWAP2 POP POP SWAP3 POP SWAP3 SWAP1 POP JUMP JUMPDEST PUSH1 0x20 DUP2 MSTORE DUP2 MLOAD PUSH1 0x20 DUP3 ADD MSTORE PUSH1 0x0 PUSH1 0x20 DUP4 ADD MLOAD PUSH1 0x80 PUSH1 0x40 DUP5 ADD MSTORE PUSH2 0x29F7 PUSH1 0xA0 DUP5 ADD DUP3 PUSH2 0x2614 JUMP JUMPDEST SWAP1 POP PUSH1 0x40 DUP5 ADD MLOAD PUSH1 0x60 DUP5 ADD MSTORE PUSH1 0x60 DUP5 ADD MLOAD PUSH1 0x80 DUP5 ADD MSTORE DUP1 SWAP2 POP POP SWAP3 SWAP2 POP POP JUMP JUMPDEST DUP5 DUP2 MSTORE PUSH1 0x80 PUSH1 0x20 DUP3 ADD MSTORE PUSH1 0x0 PUSH2 0x2A30 PUSH1 0x80 DUP4 ADD DUP7 PUSH2 0x2614 JUMP JUMPDEST PUSH1 0x40 DUP4 ADD SWAP5 SWAP1 SWAP5 MSTORE POP PUSH1 0x60 ADD MSTORE SWAP3 SWAP2 POP POP JUMP JUMPDEST PUSH1 0x0 DUP1 PUSH1 0x0 PUSH1 0x60 DUP5 DUP7 SUB SLT ISZERO PUSH2 0x2A58 JUMPI PUSH1 0x0 DUP1 REVERT JUMPDEST PUSH2 0x2A61 DUP5 PUSH2 0x25AC JUMP JUMPDEST SWAP6 PUSH1 0x20 DUP6 ADD CALLDATALOAD SWAP6 POP PUSH1 0x40 SWAP1 SWAP5 ADD CALLDATALOAD SWAP4 SWAP3 POP POP POP JUMP JUMPDEST PUSH1 0x0 DUP1 PUSH1 0x0 PUSH1 0x60 DUP5 DUP7 SUB SLT ISZERO PUSH2 0x2A8B JUMPI PUSH1 0x0 DUP1 REVERT JUMPDEST DUP4 CALLDATALOAD SWAP3 POP PUSH1 0x20 DUP5 ADD CALLDATALOAD SWAP2 POP PUSH1 0x40 DUP5 ADD CALLDATALOAD PUSH8 0xFFFFFFFFFFFFFFFF DUP2 GT ISZERO PUSH2 0x2AB0 JUMPI PUSH1 0x0 DUP1 REVERT JUMPDEST PUSH2 0x2ABC DUP7 DUP3 DUP8 ADD PUSH2 0x2858 JUMP JUMPDEST SWAP2 POP POP SWAP3 POP SWAP3 POP SWAP3 JUMP JUMPDEST PUSH1 0x0 DUP1 PUSH1 0x40 DUP4 DUP6 SUB SLT ISZERO PUSH2 0x2AD9 JUMPI PUSH1 0x0 DUP1 REVERT JUMPDEST PUSH2 0x2AE2 DUP4 PUSH2 0x25AC JUMP JUMPDEST SWAP2 POP PUSH2 0x2AF0 PUSH1 0x20 DUP5 ADD PUSH2 0x25AC JUMP JUMPDEST SWAP1 POP SWAP3 POP SWAP3 SWAP1 POP JUMP JUMPDEST PUSH1 0x0 PUSH2 0x140 DUP13 DUP4 MSTORE DUP12 PUSH1 0x20 DUP5 ADD MSTORE DUP11 PUSH1 0x40 DUP5 ADD MSTORE DUP10 PUSH1 0x60 DUP5 ADD MSTORE DUP9 ISZERO ISZERO PUSH1 0x80 DUP5 ADD MSTORE DUP8 PUSH1 0xA0 DUP5 ADD MSTORE DUP7 ISZERO ISZERO PUSH1 0xC0 DUP5 ADD MSTORE DUP1 PUSH1 0xE0 DUP5 ADD MSTORE PUSH2 0x2B3B DUP2 DUP5 ADD DUP8 PUSH2 0x2614 JUMP JUMPDEST SWAP1 POP DUP5 ISZERO ISZERO PUSH2 0x100 DUP5 ADD MSTORE DUP3 DUP2 SUB PUSH2 0x120 DUP5 ADD MSTORE PUSH2 0x2B59 DUP2 DUP6 PUSH2 0x2614 JUMP JUMPDEST SWAP14 SWAP13 POP POP POP POP POP POP POP POP POP POP POP POP POP JUMP JUMPDEST PUSH1 0xE0 PUSH1 0x2 EXP PUSH4 0x4E487B71 MUL PUSH1 0x0 MSTORE PUSH1 0x32 PUSH1 0x4 MSTORE PUSH1 0x24 PUSH1 0x0 REVERT JUMPDEST PUSH1 0xE0 PUSH1 0x2 EXP PUSH4 0x4E487B71 MUL PUSH1 0x0 MSTORE PUSH1 0x11 PUSH1 0x4 MSTORE PUSH1 0x24 PUSH1 0x0 REVERT JUMPDEST DUP1 DUP3 ADD DUP1 DUP3 GT ISZERO PUSH2 0x5A5 JUMPI PUSH2 0x5A5 PUSH2 0x2B83 JUMP JUMPDEST PUSH1 0x0 PUSH1 0x1 DUP3 ADD PUSH2 0x2BC1 JUMPI PUSH2 0x2BC1 PUSH2 0x2B83 JUMP JUMPDEST POP PUSH1 0x1 ADD SWAP1 JUMP JUMPDEST PUSH1 0x2 DUP2 DIV PUSH1 0x1 DUP3 AND DUP1 PUSH2 0x2BDC JUMPI PUSH1 0x7F DUP3 AND SWAP2 POP JUMPDEST PUSH1 0x20 DUP3 LT DUP2 SUB PUSH2 0x2BFF JUMPI PUSH1 0xE0 PUSH1 0x2 EXP PUSH4 0x4E487B71 MUL PUSH1 0x0 MSTORE PUSH1 0x22 PUSH1 0x4 MSTORE PUSH1 0x24 PUSH1 0x0 REVERT JUMPDEST POP SWAP2 SWAP1 POP JUMP JUMPDEST PUSH1 0x20 DUP1 DUP3 MSTORE PUSH1 0x6 SWAP1 DUP3 ADD MSTORE PUSH32 0x216F776E65720000000000000000000000000000000000000000000000000000 PUSH1 0x40 DUP3 ADD MSTORE PUSH1 0x60 ADD SWAP1 JUMP JUMPDEST PUSH1 0x20 DUP1 DUP3 MSTORE PUSH1 0xC SWAP1 DUP3 ADD MSTORE PUSH32 0x4E6F7420616E2061646D696E0000000000000000000000000000000000000000 PUSH1 0x40 DUP3 ADD MSTORE PUSH1 0x60 ADD SWAP1 JUMP JUMPDEST PUSH1 0x20 DUP1 DUP3 MSTORE PUSH1 0x15 SWAP1 DUP3 ADD MSTORE PUSH32 0x43726564697420646F6573206E6F742065786973740000000000000000000000 PUSH1 0x40 DUP3 ADD MSTORE PUSH1 0x60 ADD SWAP1 JUMP JUMPDEST PUSH1 0x20 DUP1 DUP3 MSTORE PUSH1 0x16 SWAP1 DUP3 ADD MSTORE PUSH32 0x43726564697420616C7265616479207265766F6B656400000000000000000000 PUSH1 0x40 DUP3 ADD MSTORE PUSH1 0x60 ADD SWAP1 JUMP JUMPDEST PUSH1 0x20 DUP1 DUP3 MSTORE PUSH1 0xF SWAP1 DUP3 ADD MSTORE PUSH32 0x496E76616C696420616464726573730000000000000000000000000000000000 PUSH1 0x40 DUP3 ADD MSTORE PUSH1 0x60 ADD SWAP1 JUMP JUMPDEST DUP1 DUP3 MUL DUP2 ISZERO DUP3 DUP3 DIV DUP5 EQ OR PUSH2 0x5A5 JUMPI PUSH2 0x5A5 PUSH2 0x2B83 JUMP JUMPDEST PUSH1 0x1F DUP3 GT ISZERO PUSH2 0x2D79 JUMPI PUSH1 0x0 DUP2 DUP2 MSTORE PUSH1 0x20 DUP2 KECCAK256 PUSH1 0x20 PUSH1 0x1F DUP7 ADD DIV DUP2 ADD PUSH1 0x20 DUP7 LT ISZERO PUSH2 0x2D56 JUMPI POP DUP1 JUMPDEST PUSH1 0x20 PUSH1 0x1F DUP7 ADD DIV DUP3 ADD SWAP2 POP JUMPDEST DUP2 DUP2 LT ISZERO PUSH2 0x2D75 JUMPI DUP3 DUP2 SSTORE PUSH1 0x1 ADD PUSH2 0x2D62 JUMP JUMPDEST POP POP POP JUMPDEST POP POP POP JUMP JUMPDEST DUP2 MLOAD PUSH8 0xFFFFFFFFFFFFFFFF DUP2 GT ISZERO PUSH2 0x2D98 JUMPI PUSH2 0x2D98 PUSH2 0x283F JUMP JUMPDEST PUSH2 0x2DAC DUP2 PUSH2 0x2DA6 DUP5 SLOAD PUSH2 0x2BC8 JUMP JUMPDEST DUP5 PUSH2 0x2D2F JUMP JUMPDEST PUSH1 0x20 DUP1 PUSH1 0x1F DUP4 GT PUSH1 0x1 DUP2 EQ PUSH2 0x2DE5 JUMPI PUSH1 0x0 DUP5 ISZERO PUSH2 0x2DC9 JUMPI POP DUP6 DUP4 ADD MLOAD JUMPDEST PUSH1 0x2 DUP1 DUP7 MUL PUSH1 0x8 DUP8 MUL SWAP1 SWAP2 EXP PUSH1 0x0 NOT DIV NOT DUP3 AND OR DUP7 SSTORE POP PUSH2 0x2D75 JUMP JUMPDEST PUSH1 0x0 DUP6 DUP2 MSTORE PUSH1 0x20 DUP2 KECCAK256 PUSH1 0x1F NOT DUP7 AND SWAP2 JUMPDEST DUP3 DUP2 LT ISZERO PUSH2 0x2E14 JUMPI DUP9 DUP7 ADD MLOAD DUP3 SSTORE SWAP5 DUP5 ADD SWAP5 PUSH1 0x1 SWAP1 SWAP2 ADD SWAP1 DUP5 ADD PUSH2 0x2DF5 JUMP JUMPDEST POP DUP6 DUP3 LT ISZERO PUSH2 0x2E34 JUMPI DUP8 DUP6 ADD MLOAD PUSH1 0x8 PUSH1 0x1F DUP9 AND MUL PUSH1 0x2 EXP PUSH1 0x0 NOT DIV NOT AND DUP2 SSTORE JUMPDEST POP POP POP POP POP PUSH1 0x2 MUL PUSH1 0x1 ADD SWAP1 SSTORE POP JUMP JUMPDEST DUP2 DUP2 SUB DUP2 DUP2 GT ISZERO PUSH2 0x5A5 JUMPI PUSH2 0x5A5 PUSH2 0x2B83 JUMP JUMPDEST DUP2 DUP2 SUB PUSH2 0x2E62 JUMPI POP POP JUMP JUMPDEST PUSH2 0x2E6C DUP3 SLOAD PUSH2 0x2BC8 JUMP JUMPDEST PUSH8 0xFFFFFFFFFFFFFFFF DUP2 GT ISZERO PUSH2 0x2E84 JUMPI PUSH2 0x2E84 PUSH2 0x283F JUMP JUMPDEST PUSH2 0x2E92 DUP2 PUSH2 0x2DA6 DUP5 SLOAD PUSH2 0x2BC8 JUMP JUMPDEST PUSH1 0x0 PUSH1 0x1F DUP3 GT PUSH1 0x1 DUP2 EQ PUSH2 0x2ECA JUMPI PUSH1 0x0 DUP4 ISZERO PUSH2 0x2EAE JUMPI POP DUP5 DUP3 ADD SLOAD JUMPDEST PUSH1 0x2 DUP1 DUP6 MUL PUSH1 0x8 DUP7 MUL SWAP1 SWAP2 EXP PUSH1 0x0 NOT DIV NOT DUP3 AND OR DUP6 SSTORE POP PUSH2 0x2F31 JUMP JUMPDEST PUSH1 0x0 DUP6 DUP2 MSTORE PUSH1 0x20 SWAP1 KECCAK256 PUSH1 0x1F NOT DUP5 AND SWAP1 PUSH1 0x0 DUP7 DUP2 MSTORE PUSH1 0x20 SWAP1 KECCAK256 DUP5 JUMPDEST DUP4 DUP2 LT ISZERO PUSH2 0x2F04 JUMPI DUP3 DUP7 ADD SLOAD DUP3 SSTORE PUSH1 0x1 SWAP6 DUP7 ADD SWAP6 SWAP1 SWAP2 ADD SWAP1 PUSH1 0x20 ADD PUSH2 0x2EE4 JUMP JUMPDEST POP DUP6 DUP4 LT ISZERO PUSH2 0x2F24 JUMPI DUP2 DUP6 ADD SLOAD PUSH1 0x8 PUSH1 0x1F DUP9 AND MUL PUSH1 0x2 EXP PUSH1 0x0 NOT DIV NOT AND DUP2 SSTORE JUMPDEST POP POP POP PUSH1 0x1 PUSH1 0x2 DUP5 MUL ADD DUP5 SSTORE JUMPDEST POP POP POP POP POP JUMP INVALID LOG2 PUSH5 0x6970667358 0x22 SLT KECCAK256 0xDD PUSH23 0x9FC4AAEBEC864CD1D8529354227A8E1702C54F35DE7719 0xDE 0x5E 0xEA CALLER SWAP2 0xAB 0xB1 PUSH5 0x736F6C6343 STOP ADDMOD EQ STOP CALLER "
				},
				"gasEstimates": {
					"creation": {
						"codeDepositCost": "2428400",
						"executionCost": "24443",
						"totalCost": "2452843"
					},
					"external": {
						"Cancel(address,uint256)": "22124",
						"addAdmin(address)": "22251",
						"addCourse(uint256,uint256,string)": "infinite",
						"addTeacher(address)": "21158",
						"allowance(address,address)": "infinite",
						"approve(address,uint256)": "20777",
						"approveCreditTransfer(address,uint256)": "22106",
						"countCourseIdOccurrences(address)": "792",
						"courseExists(uint256)": "600",
						"courseLists(uint256)": "813",
						"courserInfo(uint256)": "infinite",
						"creditTransferRequests(address,uint256)": "infinite",
						"executeCreditTransfer(address,uint256)": "infinite",
						"getAllCourseID()": "infinite",
						"getAllrequestCreditTransfer()": "infinite",
						"getCourseInfo(uint256)": "infinite",
						"getCreditTransfersOfStudent(address)": "infinite",
						"getCreditsOfStudent()": "infinite",
						"getStudentCreditByMechanism(address)": "infinite",
						"isAdmin(address)": "761",
						"modifyCredit(address,uint256,uint256)": "infinite",
						"owner()": "595",
						"recordCredit(address,uint256,uint256,string)": "infinite",
						"removeAdmin(address)": "22211",
						"removeTeacher(address)": "21597",
						"renounceOwnership()": "22562",
						"requestCreditTransfer(uint256,string)": "infinite",
						"studentCourseIds(address,uint256)": "1064",
						"studentCredits(address,uint256)": "infinite",
						"studentLists(uint256)": "1023",
						"teachers(address)": "759",
						"transferOwnership(address)": "22988"
					}
				},
				"methodIdentifiers": {
					"Cancel(address,uint256)": "27f83af9",
					"addAdmin(address)": "70480275",
					"addCourse(uint256,uint256,string)": "dcc63a16",
					"addTeacher(address)": "3bc6e309",
					"allowance(address,address)": "dd62ed3e",
					"approve(address,uint256)": "095ea7b3",
					"approveCreditTransfer(address,uint256)": "6b105c81",
					"countCourseIdOccurrences(address)": "041c2ee0",
					"courseExists(uint256)": "5407b304",
					"courseLists(uint256)": "e2ed5a4e",
					"courserInfo(uint256)": "b264a4a5",
					"creditTransferRequests(address,uint256)": "4a5ad49e",
					"executeCreditTransfer(address,uint256)": "dba8c55f",
					"getAllCourseID()": "68fdbd70",
					"getAllrequestCreditTransfer()": "1145d39a",
					"getCourseInfo(uint256)": "981059ee",
					"getCreditTransfersOfStudent(address)": "a59742df",
					"getCreditsOfStudent()": "416d6499",
					"getStudentCreditByMechanism(address)": "659cc07b",
					"isAdmin(address)": "24d7806c",
					"modifyCredit(address,uint256,uint256)": "b44e7d09",
					"owner()": "8da5cb5b",
					"recordCredit(address,uint256,uint256,string)": "5ba75156",
					"removeAdmin(address)": "1785f53c",
					"removeTeacher(address)": "52ff6846",
					"renounceOwnership()": "715018a6",
					"requestCreditTransfer(uint256,string)": "75e7c425",
					"studentCourseIds(address,uint256)": "0740c8cf",
					"studentCredits(address,uint256)": "f2012286",
					"studentLists(uint256)": "261ca633",
					"teachers(address)": "f0a47f78",
					"transferOwnership(address)": "f2fde38b"
				}
			},
			"storageLayout": {
				"storage": [
					{
						"astId": 3,
						"contract": "credits.sol:Creditcertification",
						"label": "_owner",
						"offset": 0,
						"slot": "0",
						"type": "t_address"
					},
					{
						"astId": 7,
						"contract": "credits.sol:Creditcertification",
						"label": "isAdmin",
						"offset": 0,
						"slot": "1",
						"type": "t_mapping(t_address,t_bool)"
					},
					{
						"astId": 209,
						"contract": "credits.sol:Creditcertification",
						"label": "courserInfo",
						"offset": 0,
						"slot": "2",
						"type": "t_mapping(t_uint256,t_struct(CourserInfo)204_storage)"
					},
					{
						"astId": 216,
						"contract": "credits.sol:Creditcertification",
						"label": "studentCredits",
						"offset": 0,
						"slot": "3",
						"type": "t_mapping(t_address,t_mapping(t_uint256,t_struct(Credit)182_storage))"
					},
					{
						"astId": 221,
						"contract": "credits.sol:Creditcertification",
						"label": "studentCourseIds",
						"offset": 0,
						"slot": "4",
						"type": "t_mapping(t_address,t_array(t_uint256)dyn_storage)"
					},
					{
						"astId": 225,
						"contract": "credits.sol:Creditcertification",
						"label": "teachers",
						"offset": 0,
						"slot": "5",
						"type": "t_mapping(t_address,t_bool)"
					},
					{
						"astId": 229,
						"contract": "credits.sol:Creditcertification",
						"label": "courseExists",
						"offset": 0,
						"slot": "6",
						"type": "t_mapping(t_uint256,t_bool)"
					},
					{
						"astId": 232,
						"contract": "credits.sol:Creditcertification",
						"label": "courseLists",
						"offset": 0,
						"slot": "7",
						"type": "t_array(t_uint256)dyn_storage"
					},
					{
						"astId": 238,
						"contract": "credits.sol:Creditcertification",
						"label": "allowance",
						"offset": 0,
						"slot": "8",
						"type": "t_mapping(t_address,t_mapping(t_address,t_uint256))"
					},
					{
						"astId": 244,
						"contract": "credits.sol:Creditcertification",
						"label": "creditTransferRequests",
						"offset": 0,
						"slot": "9",
						"type": "t_mapping(t_address,t_array(t_struct(CreditTransfer)195_storage)dyn_storage)"
					},
					{
						"astId": 247,
						"contract": "credits.sol:Creditcertification",
						"label": "studentLists",
						"offset": 0,
						"slot": "10",
						"type": "t_array(t_address)dyn_storage"
					}
				],
				"types": {
					"t_address": {
						"encoding": "inplace",
						"label": "address",
						"numberOfBytes": "20"
					},
					"t_array(t_address)dyn_storage": {
						"base": "t_address",
						"encoding": "dynamic_array",
						"label": "address[]",
						"numberOfBytes": "32"
					},
					"t_array(t_struct(CreditTransfer)195_storage)dyn_storage": {
						"base": "t_struct(CreditTransfer)195_storage",
						"encoding": "dynamic_array",
						"label": "struct Creditcertification.CreditTransfer[]",
						"numberOfBytes": "32"
					},
					"t_array(t_uint256)dyn_storage": {
						"base": "t_uint256",
						"encoding": "dynamic_array",
						"label": "uint256[]",
						"numberOfBytes": "32"
					},
					"t_bool": {
						"encoding": "inplace",
						"label": "bool",
						"numberOfBytes": "1"
					},
					"t_mapping(t_address,t_array(t_struct(CreditTransfer)195_storage)dyn_storage)": {
						"encoding": "mapping",
						"key": "t_address",
						"label": "mapping(address => struct Creditcertification.CreditTransfer[])",
						"numberOfBytes": "32",
						"value": "t_array(t_struct(CreditTransfer)195_storage)dyn_storage"
					},
					"t_mapping(t_address,t_array(t_uint256)dyn_storage)": {
						"encoding": "mapping",
						"key": "t_address",
						"label": "mapping(address => uint256[])",
						"numberOfBytes": "32",
						"value": "t_array(t_uint256)dyn_storage"
					},
					"t_mapping(t_address,t_bool)": {
						"encoding": "mapping",
						"key": "t_address",
						"label": "mapping(address => bool)",
						"numberOfBytes": "32",
						"value": "t_bool"
					},
					"t_mapping(t_address,t_mapping(t_address,t_uint256))": {
						"encoding": "mapping",
						"key": "t_address",
						"label": "mapping(address => mapping(address => uint256))",
						"numberOfBytes": "32",
						"value": "t_mapping(t_address,t_uint256)"
					},
					"t_mapping(t_address,t_mapping(t_uint256,t_struct(Credit)182_storage))": {
						"encoding": "mapping",
						"key": "t_address",
						"label": "mapping(address => mapping(uint256 => struct Creditcertification.Credit))",
						"numberOfBytes": "32",
						"value": "t_mapping(t_uint256,t_struct(Credit)182_storage)"
					},
					"t_mapping(t_address,t_uint256)": {
						"encoding": "mapping",
						"key": "t_address",
						"label": "mapping(address => uint256)",
						"numberOfBytes": "32",
						"value": "t_uint256"
					},
					"t_mapping(t_uint256,t_bool)": {
						"encoding": "mapping",
						"key": "t_uint256",
						"label": "mapping(uint256 => bool)",
						"numberOfBytes": "32",
						"value": "t_bool"
					},
					"t_mapping(t_uint256,t_struct(CourserInfo)204_storage)": {
						"encoding": "mapping",
						"key": "t_uint256",
						"label": "mapping(uint256 => struct Creditcertification.CourserInfo)",
						"numberOfBytes": "32",
						"value": "t_struct(CourserInfo)204_storage"
					},
					"t_mapping(t_uint256,t_struct(Credit)182_storage)": {
						"encoding": "mapping",
						"key": "t_uint256",
						"label": "mapping(uint256 => struct Creditcertification.Credit)",
						"numberOfBytes": "32",
						"value": "t_struct(Credit)182_storage"
					},
					"t_string_storage": {
						"encoding": "bytes",
						"label": "string",
						"numberOfBytes": "32"
					},
					"t_struct(CourserInfo)204_storage": {
						"encoding": "inplace",
						"label": "struct Creditcertification.CourserInfo",
						"members": [
							{
								"astId": 197,
								"contract": "credits.sol:Creditcertification",
								"label": "courserId",
								"offset": 0,
								"slot": "0",
								"type": "t_uint256"
							},
							{
								"astId": 199,
								"contract": "credits.sol:Creditcertification",
								"label": "courserName",
								"offset": 0,
								"slot": "1",
								"type": "t_string_storage"
							},
							{
								"astId": 201,
								"contract": "credits.sol:Creditcertification",
								"label": "credits",
								"offset": 0,
								"slot": "2",
								"type": "t_uint256"
							},
							{
								"astId": 203,
								"contract": "credits.sol:Creditcertification",
								"label": "createTime",
								"offset": 0,
								"slot": "3",
								"type": "t_uint256"
							}
						],
						"numberOfBytes": "128"
					},
					"t_struct(Credit)182_storage": {
						"encoding": "inplace",
						"label": "struct Creditcertification.Credit",
						"members": [
							{
								"astId": 163,
								"contract": "credits.sol:Creditcertification",
								"label": "courserId",
								"offset": 0,
								"slot": "0",
								"type": "t_uint256"
							},
							{
								"astId": 165,
								"contract": "credits.sol:Creditcertification",
								"label": "credits",
								"offset": 0,
								"slot": "1",
								"type": "t_uint256"
							},
							{
								"astId": 167,
								"contract": "credits.sol:Creditcertification",
								"label": "score",
								"offset": 0,
								"slot": "2",
								"type": "t_uint256"
							},
							{
								"astId": 169,
								"contract": "credits.sol:Creditcertification",
								"label": "issueDate",
								"offset": 0,
								"slot": "3",
								"type": "t_uint256"
							},
							{
								"astId": 171,
								"contract": "credits.sol:Creditcertification",
								"label": "isModified",
								"offset": 0,
								"slot": "4",
								"type": "t_bool"
							},
							{
								"astId": 173,
								"contract": "credits.sol:Creditcertification",
								"label": "modifyNum",
								"offset": 0,
								"slot": "5",
								"type": "t_uint256"
							},
							{
								"astId": 175,
								"contract": "credits.sol:Creditcertification",
								"label": "isRevoked",
								"offset": 0,
								"slot": "6",
								"type": "t_bool"
							},
							{
								"astId": 177,
								"contract": "credits.sol:Creditcertification",
								"label": "issuingInstitution",
								"offset": 0,
								"slot": "7",
								"type": "t_string_storage"
							},
							{
								"astId": 179,
								"contract": "credits.sol:Creditcertification",
								"label": "isTransferred",
								"offset": 0,
								"slot": "8",
								"type": "t_bool"
							},
							{
								"astId": 181,
								"contract": "credits.sol:Creditcertification",
								"label": "targetInstitution",
								"offset": 0,
								"slot": "9",
								"type": "t_string_storage"
							}
						],
						"numberOfBytes": "320"
					},
					"t_struct(CreditTransfer)195_storage": {
						"encoding": "inplace",
						"label": "struct Creditcertification.CreditTransfer",
						"members": [
							{
								"astId": 184,
								"contract": "credits.sol:Creditcertification",
								"label": "studentAddr",
								"offset": 0,
								"slot": "0",
								"type": "t_address"
							},
							{
								"astId": 186,
								"contract": "credits.sol:Creditcertification",
								"label": "courseId",
								"offset": 0,
								"slot": "1",
								"type": "t_uint256"
							},
							{
								"astId": 188,
								"contract": "credits.sol:Creditcertification",
								"label": "targetInstitution",
								"offset": 0,
								"slot": "2",
								"type": "t_string_storage"
							},
							{
								"astId": 190,
								"contract": "credits.sol:Creditcertification",
								"label": "isApproved",
								"offset": 0,
								"slot": "3",
								"type": "t_bool"
							},
							{
								"astId": 192,
								"contract": "credits.sol:Creditcertification",
								"label": "isExecuted",
								"offset": 1,
								"slot": "3",
								"type": "t_bool"
							},
							{
								"astId": 194,
								"contract": "credits.sol:Creditcertification",
								"label": "index",
								"offset": 0,
								"slot": "4",
								"type": "t_uint256"
							}
						],
						"numberOfBytes": "160"
					},
					"t_uint256": {
						"encoding": "inplace",
						"label": "uint256",
						"numberOfBytes": "32"
					}
				}
			},
			"userdoc": {
				"kind": "user",
				"methods": {},
				"version": 1
			}
		}
	}
}