{
	"credits2.sol": {
		"Creditcertification": {
			"abi": [
				{
					"anonymous": false,
					"inputs": [
						{
							"indexed": true,
							"internalType": "address",
							"name": "newAdmin",
							"type": "address"
						}
					],
					"name": "AdminAdded",
					"type": "event"
				},
				{
					"anonymous": false,
					"inputs": [
						{
							"indexed": true,
							"internalType": "address",
							"name": "admin",
							"type": "address"
						}
					],
					"name": "AdminRemoved",
					"type": "event"
				},
				{
					"anonymous": false,
					"inputs": [
						{
							"indexed": true,
							"internalType": "address",
							"name": "previousOwner",
							"type": "address"
						},
						{
							"indexed": true,
							"internalType": "address",
							"name": "newOwner",
							"type": "address"
						}
					],
					"name": "OwnershipTransferred",
					"type": "event"
				},
				{
					"inputs": [
						{
							"internalType": "address",
							"name": "student",
							"type": "address"
						},
						{
							"internalType": "uint256",
							"name": "courseId",
							"type": "uint256"
						}
					],
					"name": "Cancel",
					"outputs": [],
					"stateMutability": "nonpayable",
					"type": "function"
				},
				{
					"inputs": [
						{
							"internalType": "address",
							"name": "_newAdmin",
							"type": "address"
						}
					],
					"name": "addAdmin",
					"outputs": [],
					"stateMutability": "nonpayable",
					"type": "function"
				},
				{
					"inputs": [
						{
							"internalType": "uint256",
							"name": "courseId",
							"type": "uint256"
						},
						{
							"internalType": "uint256",
							"name": "credits",
							"type": "uint256"
						},
						{
							"internalType": "string",
							"name": "courseName",
							"type": "string"
						}
					],
					"name": "addCourse",
					"outputs": [],
					"stateMutability": "nonpayable",
					"type": "function"
				},
				{
					"inputs": [
						{
							"internalType": "address",
							"name": "teacher",
							"type": "address"
						}
					],
					"name": "addTeacher",
					"outputs": [],
					"stateMutability": "nonpayable",
					"type": "function"
				},
				{
					"inputs": [
						{
							"internalType": "address",
							"name": "",
							"type": "address"
						},
						{
							"internalType": "address",
							"name": "",
							"type": "address"
						}
					],
					"name": "allowance",
					"outputs": [
						{
							"internalType": "uint256",
							"name": "",
							"type": "uint256"
						}
					],
					"stateMutability": "view",
					"type": "function"
				},
				{
					"inputs": [
						{
							"internalType": "address",
							"name": "spender",
							"type": "address"
						},
						{
							"internalType": "uint256",
							"name": "num",
							"type": "uint256"
						}
					],
					"name": "approve",
					"outputs": [
						{
							"internalType": "bool",
							"name": "",
							"type": "bool"
						}
					],
					"stateMutability": "nonpayable",
					"type": "function"
				},
				{
					"inputs": [
						{
							"internalType": "address",
							"name": "student",
							"type": "address"
						},
						{
							"internalType": "uint256",
							"name": "index",
							"type": "uint256"
						}
					],
					"name": "approveCreditTransfer",
					"outputs": [],
					"stateMutability": "nonpayable",
					"type": "function"
				},
				{
					"inputs": [
						{
							"internalType": "uint256",
							"name": "",
							"type": "uint256"
						}
					],
					"name": "courseExists",
					"outputs": [
						{
							"internalType": "bool",
							"name": "",
							"type": "bool"
						}
					],
					"stateMutability": "view",
					"type": "function"
				},
				{
					"inputs": [
						{
							"internalType": "uint256",
							"name": "",
							"type": "uint256"
						}
					],
					"name": "courseLists",
					"outputs": [
						{
							"internalType": "uint256",
							"name": "",
							"type": "uint256"
						}
					],
					"stateMutability": "view",
					"type": "function"
				},
				{
					"inputs": [
						{
							"internalType": "uint256",
							"name": "",
							"type": "uint256"
						}
					],
					"name": "courserInfo",
					"outputs": [
						{
							"internalType": "uint256",
							"name": "courserId",
							"type": "uint256"
						},
						{
							"internalType": "string",
							"name": "courserName",
							"type": "string"
						},
						{
							"internalType": "uint256",
							"name": "credits",
							"type": "uint256"
						},
						{
							"internalType": "uint256",
							"name": "createTime",
							"type": "uint256"
						}
					],
					"stateMutability": "view",
					"type": "function"
				},
				{
					"inputs": [
						{
							"internalType": "address",
							"name": "",
							"type": "address"
						},
						{
							"internalType": "uint256",
							"name": "",
							"type": "uint256"
						}
					],
					"name": "creditTransferRequests",
					"outputs": [
						{
							"internalType": "uint256",
							"name": "courseId",
							"type": "uint256"
						},
						{
							"internalType": "string",
							"name": "targetInstitution",
							"type": "string"
						},
						{
							"internalType": "bool",
							"name": "isApproved",
							"type": "bool"
						},
						{
							"internalType": "bool",
							"name": "isExecuted",
							"type": "bool"
						}
					],
					"stateMutability": "view",
					"type": "function"
				},
				{
					"inputs": [
						{
							"internalType": "address",
							"name": "student",
							"type": "address"
						},
						{
							"internalType": "uint256",
							"name": "index",
							"type": "uint256"
						}
					],
					"name": "executeCreditTransfer",
					"outputs": [],
					"stateMutability": "nonpayable",
					"type": "function"
				},
				{
					"inputs": [],
					"name": "getAllCourseID",
					"outputs": [
						{
							"internalType": "uint256[]",
							"name": "",
							"type": "uint256[]"
						}
					],
					"stateMutability": "view",
					"type": "function"
				},
				{
					"inputs": [
						{
							"internalType": "uint256",
							"name": "courseId",
							"type": "uint256"
						}
					],
					"name": "getCourseInfo",
					"outputs": [
						{
							"components": [
								{
									"internalType": "uint256",
									"name": "courserId",
									"type": "uint256"
								},
								{
									"internalType": "string",
									"name": "courserName",
									"type": "string"
								},
								{
									"internalType": "uint256",
									"name": "credits",
									"type": "uint256"
								},
								{
									"internalType": "uint256",
									"name": "createTime",
									"type": "uint256"
								}
							],
							"internalType": "struct Creditcertification.CourserInfo",
							"name": "",
							"type": "tuple"
						}
					],
					"stateMutability": "nonpayable",
					"type": "function"
				},
				{
					"inputs": [
						{
							"internalType": "address",
							"name": "student",
							"type": "address"
						}
					],
					"name": "getCreditTransfersOfStudent",
					"outputs": [
						{
							"components": [
								{
									"internalType": "uint256",
									"name": "courseId",
									"type": "uint256"
								},
								{
									"internalType": "string",
									"name": "targetInstitution",
									"type": "string"
								},
								{
									"internalType": "bool",
									"name": "isApproved",
									"type": "bool"
								},
								{
									"internalType": "bool",
									"name": "isExecuted",
									"type": "bool"
								}
							],
							"internalType": "struct Creditcertification.CreditTransfer[]",
							"name": "",
							"type": "tuple[]"
						}
					],
					"stateMutability": "view",
					"type": "function"
				},
				{
					"inputs": [],
					"name": "getCreditsOfStudent",
					"outputs": [
						{
							"components": [
								{
									"internalType": "uint256",
									"name": "courserId",
									"type": "uint256"
								},
								{
									"internalType": "uint256",
									"name": "credits",
									"type": "uint256"
								},
								{
									"internalType": "uint256",
									"name": "score",
									"type": "uint256"
								},
								{
									"internalType": "uint256",
									"name": "issueDate",
									"type": "uint256"
								},
								{
									"internalType": "bool",
									"name": "isModified",
									"type": "bool"
								},
								{
									"internalType": "uint256",
									"name": "modifyNum",
									"type": "uint256"
								},
								{
									"internalType": "bool",
									"name": "isRevoked",
									"type": "bool"
								},
								{
									"internalType": "string",
									"name": "issuingInstitution",
									"type": "string"
								},
								{
									"internalType": "bool",
									"name": "isTransferred",
									"type": "bool"
								},
								{
									"internalType": "string",
									"name": "targetInstitution",
									"type": "string"
								}
							],
							"internalType": "struct Creditcertification.Credit[]",
							"name": "creditList",
							"type": "tuple[]"
						}
					],
					"stateMutability": "view",
					"type": "function"
				},
				{
					"inputs": [
						{
							"internalType": "address",
							"name": "student",
							"type": "address"
						}
					],
					"name": "getStudentCreditByMechanism",
					"outputs": [
						{
							"components": [
								{
									"internalType": "uint256",
									"name": "courserId",
									"type": "uint256"
								},
								{
									"internalType": "uint256",
									"name": "credits",
									"type": "uint256"
								},
								{
									"internalType": "uint256",
									"name": "score",
									"type": "uint256"
								},
								{
									"internalType": "uint256",
									"name": "issueDate",
									"type": "uint256"
								},
								{
									"internalType": "bool",
									"name": "isModified",
									"type": "bool"
								},
								{
									"internalType": "uint256",
									"name": "modifyNum",
									"type": "uint256"
								},
								{
									"internalType": "bool",
									"name": "isRevoked",
									"type": "bool"
								},
								{
									"internalType": "string",
									"name": "issuingInstitution",
									"type": "string"
								},
								{
									"internalType": "bool",
									"name": "isTransferred",
									"type": "bool"
								},
								{
									"internalType": "string",
									"name": "targetInstitution",
									"type": "string"
								}
							],
							"internalType": "struct Creditcertification.Credit[]",
							"name": "creditList",
							"type": "tuple[]"
						}
					],
					"stateMutability": "nonpayable",
					"type": "function"
				},
				{
					"inputs": [
						{
							"internalType": "address",
							"name": "",
							"type": "address"
						}
					],
					"name": "isAdmin",
					"outputs": [
						{
							"internalType": "bool",
							"name": "",
							"type": "bool"
						}
					],
					"stateMutability": "view",
					"type": "function"
				},
				{
					"inputs": [
						{
							"internalType": "address",
							"name": "student",
							"type": "address"
						},
						{
							"internalType": "uint256",
							"name": "courseId",
							"type": "uint256"
						},
						{
							"internalType": "uint256",
							"name": "newScore",
							"type": "uint256"
						}
					],
					"name": "modifyCredit",
					"outputs": [],
					"stateMutability": "nonpayable",
					"type": "function"
				},
				{
					"inputs": [],
					"name": "owner",
					"outputs": [
						{
							"internalType": "address",
							"name": "",
							"type": "address"
						}
					],
					"stateMutability": "view",
					"type": "function"
				},
				{
					"inputs": [
						{
							"internalType": "address",
							"name": "student",
							"type": "address"
						},
						{
							"internalType": "uint256",
							"name": "courserId",
							"type": "uint256"
						},
						{
							"internalType": "uint256",
							"name": "score",
							"type": "uint256"
						},
						{
							"internalType": "string",
							"name": "issuingInstitution",
							"type": "string"
						}
					],
					"name": "recordCredit",
					"outputs": [],
					"stateMutability": "nonpayable",
					"type": "function"
				},
				{
					"inputs": [
						{
							"internalType": "address",
							"name": "_admin",
							"type": "address"
						}
					],
					"name": "removeAdmin",
					"outputs": [],
					"stateMutability": "nonpayable",
					"type": "function"
				},
				{
					"inputs": [
						{
							"internalType": "address",
							"name": "teacher",
							"type": "address"
						}
					],
					"name": "removeTeacher",
					"outputs": [],
					"stateMutability": "nonpayable",
					"type": "function"
				},
				{
					"inputs": [],
					"name": "renounceOwnership",
					"outputs": [],
					"stateMutability": "nonpayable",
					"type": "function"
				},
				{
					"inputs": [
						{
							"internalType": "uint256",
							"name": "courseId",
							"type": "uint256"
						},
						{
							"internalType": "string",
							"name": "targetInstitution",
							"type": "string"
						}
					],
					"name": "requestCreditTransfer",
					"outputs": [],
					"stateMutability": "nonpayable",
					"type": "function"
				},
				{
					"inputs": [
						{
							"internalType": "address",
							"name": "",
							"type": "address"
						},
						{
							"internalType": "uint256",
							"name": "",
							"type": "uint256"
						}
					],
					"name": "requestOfStudent",
					"outputs": [
						{
							"internalType": "uint256",
							"name": "",
							"type": "uint256"
						}
					],
					"stateMutability": "view",
					"type": "function"
				},
				{
					"inputs": [
						{
							"internalType": "address",
							"name": "",
							"type": "address"
						},
						{
							"internalType": "uint256",
							"name": "",
							"type": "uint256"
						}
					],
					"name": "studentCourseIds",
					"outputs": [
						{
							"internalType": "uint256",
							"name": "",
							"type": "uint256"
						}
					],
					"stateMutability": "view",
					"type": "function"
				},
				{
					"inputs": [
						{
							"internalType": "address",
							"name": "",
							"type": "address"
						},
						{
							"internalType": "uint256",
							"name": "",
							"type": "uint256"
						}
					],
					"name": "studentCredits",
					"outputs": [
						{
							"internalType": "uint256",
							"name": "courserId",
							"type": "uint256"
						},
						{
							"internalType": "uint256",
							"name": "credits",
							"type": "uint256"
						},
						{
							"internalType": "uint256",
							"name": "score",
							"type": "uint256"
						},
						{
							"internalType": "uint256",
							"name": "issueDate",
							"type": "uint256"
						},
						{
							"internalType": "bool",
							"name": "isModified",
							"type": "bool"
						},
						{
							"internalType": "uint256",
							"name": "modifyNum",
							"type": "uint256"
						},
						{
							"internalType": "bool",
							"name": "isRevoked",
							"type": "bool"
						},
						{
							"internalType": "string",
							"name": "issuingInstitution",
							"type": "string"
						},
						{
							"internalType": "bool",
							"name": "isTransferred",
							"type": "bool"
						},
						{
							"internalType": "string",
							"name": "targetInstitution",
							"type": "string"
						}
					],
					"stateMutability": "view",
					"type": "function"
				},
				{
					"inputs": [
						{
							"internalType": "address",
							"name": "",
							"type": "address"
						}
					],
					"name": "teachers",
					"outputs": [
						{
							"internalType": "bool",
							"name": "",
							"type": "bool"
						}
					],
					"stateMutability": "view",
					"type": "function"
				},
				{
					"inputs": [
						{
							"internalType": "address",
							"name": "newOwner",
							"type": "address"
						}
					],
					"name": "transferOwnership",
					"outputs": [],
					"stateMutability": "nonpayable",
					"type": "function"
				}
			],
			"devdoc": {
				"kind": "dev",
				"methods": {},
				"version": 1
			},
			"evm": {
				"assembly": "    /* \"credits2.sol\":1498:9934  contract Creditcertification is Ownable{... */\n  mstore(0x40, 0x80)\n  callvalue\n  dup1\n  iszero\n  tag_1\n  jumpi\n  0x00\n  dup1\n  revert\ntag_1:\n  pop\n    /* \"credits2.sol\":415:432  address msgSender */\n  0x00\n    /* \"credits2.sol\":456:474  _owner = msgSender */\n  dup1\n  sload\n  not(sub(exp(0x02, 0xa0), 0x01))\n  and\n    /* \"credits2.sol\":435:445  msg.sender */\n  caller\n    /* \"credits2.sol\":456:474  _owner = msgSender */\n  swap1\n  dup2\n  or\n  dup3\n  sstore\n    /* \"credits2.sol\":490:533  OwnershipTransferred(address(0), msgSender) */\n  mload(0x40)\n    /* \"credits2.sol\":435:445  msg.sender */\n  swap1\n  swap2\n  dup3\n  swap2\n    /* \"credits2.sol\":490:533  OwnershipTransferred(address(0), msgSender) */\n  0x8be0079c531659141344cd1fd0a4f28419497f9722a3daafe3b4186f6b6457e0\n  swap1\n    /* \"credits2.sol\":415:432  address msgSender */\n  dup3\n  swap1\n    /* \"credits2.sol\":490:533  OwnershipTransferred(address(0), msgSender) */\n  log3\n    /* \"credits2.sol\":404:541  {... */\n  pop\n    /* \"credits2.sol\":1498:9934  contract Creditcertification is Ownable{... */\n  dataSize(sub_0)\n  dup1\n  dataOffset(sub_0)\n  0x00\n  codecopy\n  0x00\n  return\nstop\n\nsub_0: assembly {\n        /* \"credits2.sol\":1498:9934  contract Creditcertification is Ownable{... */\n      mstore(0x40, 0x80)\n      callvalue\n      dup1\n      iszero\n      tag_1\n      jumpi\n      0x00\n      dup1\n      revert\n    tag_1:\n      pop\n      jumpi(tag_2, lt(calldatasize, 0x04))\n      calldataload(0x00)\n      0x0100000000000000000000000000000000000000000000000000000000\n      swap1\n      div\n      dup1\n      0x715018a6\n      gt\n      tag_33\n      jumpi\n      dup1\n      0xbcab36f7\n      gt\n      tag_34\n      jumpi\n      dup1\n      0xe2ed5a4e\n      gt\n      tag_35\n      jumpi\n      dup1\n      0xe2ed5a4e\n      eq\n      tag_29\n      jumpi\n      dup1\n      0xf0a47f78\n      eq\n      tag_30\n      jumpi\n      dup1\n      0xf2012286\n      eq\n      tag_31\n      jumpi\n      dup1\n      0xf2fde38b\n      eq\n      tag_32\n      jumpi\n      0x00\n      dup1\n      revert\n    tag_35:\n      dup1\n      0xbcab36f7\n      eq\n      tag_25\n      jumpi\n      dup1\n      0xdba8c55f\n      eq\n      tag_26\n      jumpi\n      dup1\n      0xdcc63a16\n      eq\n      tag_27\n      jumpi\n      dup1\n      0xdd62ed3e\n      eq\n      tag_28\n      jumpi\n      0x00\n      dup1\n      revert\n    tag_34:\n      dup1\n      0x981059ee\n      gt\n      tag_36\n      jumpi\n      dup1\n      0x981059ee\n      eq\n      tag_21\n      jumpi\n      dup1\n      0xa59742df\n      eq\n      tag_22\n      jumpi\n      dup1\n      0xb264a4a5\n      eq\n      tag_23\n      jumpi\n      dup1\n      0xb44e7d09\n      eq\n      tag_24\n      jumpi\n      0x00\n      dup1\n      revert\n    tag_36:\n      dup1\n      0x715018a6\n      eq\n      tag_18\n      jumpi\n      dup1\n      0x75e7c425\n      eq\n      tag_19\n      jumpi\n      dup1\n      0x8da5cb5b\n      eq\n      tag_20\n      jumpi\n      0x00\n      dup1\n      revert\n    tag_33:\n      dup1\n      0x4a5ad49e\n      gt\n      tag_37\n      jumpi\n      dup1\n      0x659cc07b\n      gt\n      tag_38\n      jumpi\n      dup1\n      0x659cc07b\n      eq\n      tag_14\n      jumpi\n      dup1\n      0x68fdbd70\n      eq\n      tag_15\n      jumpi\n      dup1\n      0x6b105c81\n      eq\n      tag_16\n      jumpi\n      dup1\n      0x70480275\n      eq\n      tag_17\n      jumpi\n      0x00\n      dup1\n      revert\n    tag_38:\n      dup1\n      0x4a5ad49e\n      eq\n      tag_10\n      jumpi\n      dup1\n      0x52ff6846\n      eq\n      tag_11\n      jumpi\n      dup1\n      0x5407b304\n      eq\n      tag_12\n      jumpi\n      dup1\n      0x5ba75156\n      eq\n      tag_13\n      jumpi\n      0x00\n      dup1\n      revert\n    tag_37:\n      dup1\n      0x24d7806c\n      gt\n      tag_39\n      jumpi\n      dup1\n      0x24d7806c\n      eq\n      tag_6\n      jumpi\n      dup1\n      0x27f83af9\n      eq\n      tag_7\n      jumpi\n      dup1\n      0x3bc6e309\n      eq\n      tag_8\n      jumpi\n      dup1\n      0x416d6499\n      eq\n      tag_9\n      jumpi\n      0x00\n      dup1\n      revert\n    tag_39:\n      dup1\n      0x0740c8cf\n      eq\n      tag_3\n      jumpi\n      dup1\n      0x095ea7b3\n      eq\n      tag_4\n      jumpi\n      dup1\n      0x1785f53c\n      eq\n      tag_5\n      jumpi\n    tag_2:\n      0x00\n      dup1\n      revert\n        /* \"credits2.sol\":2925:2975  mapping(address => uint[]) public studentCourseIds */\n    tag_3:\n      tag_40\n      tag_41\n      calldatasize\n      0x04\n      tag_42\n      jump\t// in\n    tag_41:\n      tag_43\n      jump\t// in\n    tag_40:\n      mload(0x40)\n        /* \"#utility.yul\":620:645   */\n      swap1\n      dup2\n      mstore\n        /* \"#utility.yul\":608:610   */\n      0x20\n        /* \"#utility.yul\":593:611   */\n      add\n        /* \"credits2.sol\":2925:2975  mapping(address => uint[]) public studentCourseIds */\n    tag_44:\n      mload(0x40)\n      dup1\n      swap2\n      sub\n      swap1\n      return\n        /* \"credits2.sol\":5985:6128  function approve(address spender,uint256 num )external returns(bool){... */\n    tag_4:\n      tag_46\n      tag_47\n      calldatasize\n      0x04\n      tag_42\n      jump\t// in\n    tag_47:\n      tag_48\n      jump\t// in\n    tag_46:\n      mload(0x40)\n        /* \"#utility.yul\":917:931   */\n      swap1\n      iszero\n        /* \"#utility.yul\":910:932   */\n      iszero\n        /* \"#utility.yul\":892:933   */\n      dup2\n      mstore\n        /* \"#utility.yul\":880:882   */\n      0x20\n        /* \"#utility.yul\":865:883   */\n      add\n        /* \"credits2.sol\":5985:6128  function approve(address spender,uint256 num )external returns(bool){... */\n      tag_44\n        /* \"#utility.yul\":752:939   */\n      jump\n        /* \"credits2.sol\":776:909  function removeAdmin(address _admin) onlyOwner public  {... */\n    tag_5:\n      tag_51\n      tag_52\n      calldatasize\n      0x04\n      tag_53\n      jump\t// in\n    tag_52:\n      tag_54\n      jump\t// in\n    tag_51:\n      stop\n        /* \"credits2.sol\":126:165  mapping(address => bool) public isAdmin */\n    tag_6:\n      tag_46\n      tag_56\n      calldatasize\n      0x04\n      tag_53\n      jump\t// in\n    tag_56:\n      mstore(0x20, 0x01)\n      0x00\n      swap1\n      dup2\n      mstore\n      0x40\n      swap1\n      keccak256\n      sload\n      0xff\n      and\n      dup2\n      jump\n        /* \"credits2.sol\":7680:8051  function Cancel(address student,uint256 courseId)external  onlyAdmin{... */\n    tag_7:\n      tag_51\n      tag_60\n      calldatasize\n      0x04\n      tag_42\n      jump\t// in\n    tag_60:\n      tag_61\n      jump\t// in\n        /* \"credits2.sol\":4153:4307  function addTeacher(address teacher)external onlyAdmin{... */\n    tag_8:\n      tag_51\n      tag_63\n      calldatasize\n      0x04\n      tag_53\n      jump\t// in\n    tag_63:\n      tag_64\n      jump\t// in\n        /* \"credits2.sol\":5505:5918  function getCreditsOfStudent() external view returns(Credit[] memory creditList) {... */\n    tag_9:\n      tag_65\n      tag_66\n      jump\t// in\n    tag_65:\n      mload(0x40)\n      tag_44\n      swap2\n      swap1\n      tag_68\n      jump\t// in\n        /* \"credits2.sol\":3292:3358  mapping(address => CreditTransfer[]) public creditTransferRequests */\n    tag_10:\n      tag_69\n      tag_70\n      calldatasize\n      0x04\n      tag_42\n      jump\t// in\n    tag_70:\n      tag_71\n      jump\t// in\n    tag_69:\n      mload(0x40)\n      tag_44\n      swap5\n      swap4\n      swap3\n      swap2\n      swap1\n      tag_73\n      jump\t// in\n        /* \"credits2.sol\":4335:4562  function removeTeacher(address teacher)external onlyAdmin{... */\n    tag_11:\n      tag_51\n      tag_75\n      calldatasize\n      0x04\n      tag_53\n      jump\t// in\n    tag_75:\n      tag_76\n      jump\t// in\n        /* \"credits2.sol\":3052:3096  mapping(uint256 => bool) public courseExists */\n    tag_12:\n      tag_46\n      tag_78\n      calldatasize\n      0x04\n      tag_79\n      jump\t// in\n    tag_78:\n      mstore(0x20, 0x07)\n      0x00\n      swap1\n      dup2\n      mstore\n      0x40\n      swap1\n      keccak256\n      sload\n      0xff\n      and\n      dup2\n      jump\n        /* \"credits2.sol\":4608:5320  function recordCredit(address student,uint256 courserId,uint256 score,string memory issuingInstitution)public onlyTeacher{... */\n    tag_13:\n      tag_51\n      tag_83\n      calldatasize\n      0x04\n      tag_84\n      jump\t// in\n    tag_83:\n      tag_85\n      jump\t// in\n        /* \"credits2.sol\":6183:6727  function getStudentCreditByMechanism(address student)external  returns(Credit[]memory creditList){... */\n    tag_14:\n      tag_65\n      tag_87\n      calldatasize\n      0x04\n      tag_53\n      jump\t// in\n    tag_87:\n      tag_88\n      jump\t// in\n        /* \"credits2.sol\":5358:5456  function getAllCourseID()external view returns(uint[] memory){... */\n    tag_15:\n      tag_90\n      tag_91\n      jump\t// in\n    tag_90:\n      mload(0x40)\n      tag_44\n      swap2\n      swap1\n      tag_93\n      jump\t// in\n        /* \"credits2.sol\":8736:8989  function approveCreditTransfer(address student, uint index) external onlyAdmin {... */\n    tag_16:\n      tag_51\n      tag_95\n      calldatasize\n      0x04\n      tag_42\n      jump\t// in\n    tag_95:\n      tag_96\n      jump\t// in\n        /* \"credits2.sol\":636:768  function addAdmin(address _newAdmin)onlyOwner public {... */\n    tag_17:\n      tag_51\n      tag_98\n      calldatasize\n      0x04\n      tag_53\n      jump\t// in\n    tag_98:\n      tag_99\n      jump\t// in\n        /* \"credits2.sol\":1121:1269  function renounceOwnership() public virtual onlyOwner {... */\n    tag_18:\n      tag_51\n      tag_101\n      jump\t// in\n        /* \"credits2.sol\":8097:8664  function requestCreditTransfer(uint256 courseId, string memory targetInstitution) external {... */\n    tag_19:\n      tag_51\n      tag_103\n      calldatasize\n      0x04\n      tag_104\n      jump\t// in\n    tag_103:\n      tag_105\n      jump\t// in\n        /* \"credits2.sol\":549:628  function owner() public view returns (address) {... */\n    tag_20:\n        /* \"credits2.sol\":587:594  address */\n      0x00\n        /* \"credits2.sol\":614:620  _owner */\n      sload\n        /* \"credits2.sol\":549:628  function owner() public view returns (address) {... */\n      mload(0x40)\n      sub(exp(0x02, 0xa0), 0x01)\n        /* \"credits2.sol\":614:620  _owner */\n      swap1\n      swap2\n      and\n        /* \"#utility.yul\":6838:6912   */\n      dup2\n      mstore\n        /* \"#utility.yul\":6826:6828   */\n      0x20\n        /* \"#utility.yul\":6811:6829   */\n      add\n        /* \"credits2.sol\":549:628  function owner() public view returns (address) {... */\n      tag_44\n        /* \"#utility.yul\":6692:6918   */\n      jump\n        /* \"credits2.sol\":3931:4121  function getCourseInfo(uint256 courseId)external returns(CourserInfo memory){... */\n    tag_21:\n      tag_110\n      tag_111\n      calldatasize\n      0x04\n      tag_79\n      jump\t// in\n    tag_111:\n      tag_112\n      jump\t// in\n    tag_110:\n      mload(0x40)\n      tag_44\n      swap2\n      swap1\n      tag_114\n      jump\t// in\n        /* \"credits2.sol\":9695:9923  function getCreditTransfersOfStudent(address student) external  view returns (CreditTransfer[] memory) {... */\n    tag_22:\n      tag_115\n      tag_116\n      calldatasize\n      0x04\n      tag_53\n      jump\t// in\n    tag_116:\n      tag_117\n      jump\t// in\n    tag_115:\n      mload(0x40)\n      tag_44\n      swap2\n      swap1\n      tag_119\n      jump\t// in\n        /* \"credits2.sol\":2579:2627  mapping (uint256=>CourserInfo)public courserInfo */\n    tag_23:\n      tag_120\n      tag_121\n      calldatasize\n      0x04\n      tag_79\n      jump\t// in\n    tag_121:\n      tag_122\n      jump\t// in\n    tag_120:\n      mload(0x40)\n      tag_44\n      swap5\n      swap4\n      swap3\n      swap2\n      swap1\n      tag_124\n      jump\t// in\n        /* \"credits2.sol\":6777:7621  function modifyCredit(address student, uint256 courseId,  uint256 newScore) external  onlyTeacher {... */\n    tag_24:\n      tag_51\n      tag_126\n      calldatasize\n      0x04\n      tag_127\n      jump\t// in\n    tag_126:\n      tag_128\n      jump\t// in\n        /* \"credits2.sol\":2831:2878  mapping(address=>uint[])public requestOfStudent */\n    tag_25:\n      tag_40\n      tag_130\n      calldatasize\n      0x04\n      tag_42\n      jump\t// in\n    tag_130:\n      tag_131\n      jump\t// in\n        /* \"credits2.sol\":9037:9655  function executeCreditTransfer(address student, uint index) external onlyAdmin{... */\n    tag_26:\n      tag_51\n      tag_134\n      calldatasize\n      0x04\n      tag_42\n      jump\t// in\n    tag_134:\n      tag_135\n      jump\t// in\n        /* \"credits2.sol\":3497:3897  function addCourse(uint256 courseId,uint256 credits,string memory courseName)external onlyAdmin{... */\n    tag_27:\n      tag_51\n      tag_137\n      calldatasize\n      0x04\n      tag_138\n      jump\t// in\n    tag_137:\n      tag_139\n      jump\t// in\n        /* \"credits2.sol\":3177:3236  mapping(address=>mapping(address=>uint256))public allowance */\n    tag_28:\n      tag_40\n      tag_141\n      calldatasize\n      0x04\n      tag_142\n      jump\t// in\n    tag_141:\n      0x09\n      0x20\n      swap1\n      dup2\n      mstore\n      0x00\n      swap3\n      dup4\n      mstore\n      0x40\n      dup1\n      dup5\n      keccak256\n      swap1\n      swap2\n      mstore\n      swap1\n      dup3\n      mstore\n      swap1\n      keccak256\n      sload\n      dup2\n      jump\n        /* \"credits2.sol\":3105:3133  uint256[]public  courseLists */\n    tag_29:\n      tag_40\n      tag_146\n      calldatasize\n      0x04\n      tag_79\n      jump\t// in\n    tag_146:\n      tag_147\n      jump\t// in\n        /* \"credits2.sol\":3006:3043  mapping(address=>bool)public teachers */\n    tag_30:\n      tag_46\n      tag_150\n      calldatasize\n      0x04\n      tag_53\n      jump\t// in\n    tag_150:\n      mstore(0x20, 0x06)\n      0x00\n      swap1\n      dup2\n      mstore\n      0x40\n      swap1\n      keccak256\n      sload\n      0xff\n      and\n      dup2\n      jump\n        /* \"credits2.sol\":2683:2748  mapping(address => mapping(uint => Credit)) public studentCredits */\n    tag_31:\n      tag_153\n      tag_154\n      calldatasize\n      0x04\n      tag_42\n      jump\t// in\n    tag_154:\n      tag_155\n      jump\t// in\n    tag_153:\n      mload(0x40)\n      tag_44\n      swap11\n      swap10\n      swap9\n      swap8\n      swap7\n      swap6\n      swap5\n      swap4\n      swap3\n      swap2\n      swap1\n      tag_157\n      jump\t// in\n        /* \"credits2.sol\":1277:1491  function transferOwnership(address newOwner) public virtual onlyOwner {... */\n    tag_32:\n      tag_51\n      tag_159\n      calldatasize\n      0x04\n      tag_53\n      jump\t// in\n    tag_159:\n      tag_160\n      jump\t// in\n        /* \"credits2.sol\":2925:2975  mapping(address => uint[]) public studentCourseIds */\n    tag_43:\n      mstore(0x20, 0x05)\n      dup2\n      0x00\n      mstore\n      keccak256(0x00, 0x40)\n      dup2\n      dup2\n      sload\n      dup2\n      lt\n      tag_161\n      jumpi\n      0x00\n      dup1\n      revert\n    tag_161:\n      swap1\n      0x00\n      mstore\n      keccak256(0x00, 0x20)\n      add\n      0x00\n      swap2\n      pop\n      swap2\n      pop\n      pop\n      sload\n      dup2\n      jump\t// out\n        /* \"credits2.sol\":5985:6128  function approve(address spender,uint256 num )external returns(bool){... */\n    tag_48:\n        /* \"credits2.sol\":6074:6084  msg.sender */\n      caller\n        /* \"credits2.sol\":6048:6052  bool */\n      0x00\n        /* \"credits2.sol\":6064:6085  allowance[msg.sender] */\n      swap1\n      dup2\n      mstore\n        /* \"credits2.sol\":6064:6073  allowance */\n      0x09\n        /* \"credits2.sol\":6064:6085  allowance[msg.sender] */\n      0x20\n      swap1\n      dup2\n      mstore\n      0x40\n      dup1\n      dup4\n      keccak256\n      sub(exp(0x02, 0xa0), 0x01)\n        /* \"credits2.sol\":6064:6094  allowance[msg.sender][spender] */\n      dup7\n      and\n      dup5\n      mstore\n      swap1\n      swap2\n      mstore\n      swap1\n      keccak256\n        /* \"credits2.sol\":6064:6098  allowance[msg.sender][spender]=num */\n      dup2\n      swap1\n      sstore\n        /* \"credits2.sol\":6116:6120  true */\n      0x01\n        /* \"credits2.sol\":5985:6128  function approve(address spender,uint256 num )external returns(bool){... */\n    tag_163:\n      swap3\n      swap2\n      pop\n      pop\n      jump\t// out\n        /* \"credits2.sol\":776:909  function removeAdmin(address _admin) onlyOwner public  {... */\n    tag_54:\n        /* \"credits2.sol\":957:963  _owner */\n      and(sub(exp(0x02, 0xa0), 0x01), sload(0x00))\n        /* \"credits2.sol\":967:977  msg.sender */\n      caller\n        /* \"credits2.sol\":957:977  _owner == msg.sender */\n      eq\n        /* \"credits2.sol\":949:988  require(_owner == msg.sender, \"!owner\") */\n      tag_165\n      jumpi\n      mload(0x40)\n      mul(0x461bcd, exp(0x02, 0xe5))\n      dup2\n      mstore\n      0x04\n      add\n      tag_166\n      swap1\n      tag_167\n      jump\t// in\n    tag_166:\n      mload(0x40)\n      dup1\n      swap2\n      sub\n      swap1\n      revert\n    tag_165:\n      sub(exp(0x02, 0xa0), 0x01)\n        /* \"credits2.sol\":842:857  isAdmin[_admin] */\n      dup2\n      and\n        /* \"credits2.sol\":860:865  false */\n      0x00\n        /* \"credits2.sol\":842:857  isAdmin[_admin] */\n      dup2\n      dup2\n      mstore\n        /* \"credits2.sol\":842:849  isAdmin */\n      0x01\n        /* \"credits2.sol\":842:857  isAdmin[_admin] */\n      0x20\n      mstore\n      0x40\n      dup1\n      dup3\n      keccak256\n        /* \"credits2.sol\":842:865  isAdmin[_admin] = false */\n      dup1\n      sload\n      not(0xff)\n      and\n      swap1\n      sstore\n        /* \"credits2.sol\":881:901  AdminRemoved(_admin) */\n      mload\n      0xa3b62bc36326052d97ea62d63c3d60308ed4c3ea8ac079dd8499f1e9c4f80c0f\n      swap2\n        /* \"credits2.sol\":860:865  false */\n      swap1\n        /* \"credits2.sol\":881:901  AdminRemoved(_admin) */\n      log2\n        /* \"credits2.sol\":776:909  function removeAdmin(address _admin) onlyOwner public  {... */\n      pop\n      jump\t// out\n        /* \"credits2.sol\":7680:8051  function Cancel(address student,uint256 courseId)external  onlyAdmin{... */\n    tag_61:\n        /* \"credits2.sol\":1065:1075  msg.sender */\n      caller\n        /* \"credits2.sol\":1057:1076  isAdmin[msg.sender] */\n      0x00\n      swap1\n      dup2\n      mstore\n        /* \"credits2.sol\":1057:1064  isAdmin */\n      0x01\n        /* \"credits2.sol\":1057:1076  isAdmin[msg.sender] */\n      0x20\n      mstore\n      0x40\n      swap1\n      keccak256\n      sload\n      0xff\n      and\n        /* \"credits2.sol\":1049:1093  require(isAdmin[msg.sender], \"Not an admin\") */\n      tag_170\n      jumpi\n      mload(0x40)\n      mul(0x461bcd, exp(0x02, 0xe5))\n      dup2\n      mstore\n      0x04\n      add\n      tag_166\n      swap1\n      tag_172\n      jump\t// in\n    tag_170:\n      sub(exp(0x02, 0xa0), 0x01)\n        /* \"credits2.sol\":7767:7790  studentCredits[student] */\n      dup3\n      and\n      0x00\n      swap1\n      dup2\n      mstore\n        /* \"credits2.sol\":7767:7781  studentCredits */\n      0x03\n        /* \"credits2.sol\":7767:7790  studentCredits[student] */\n      0x20\n      dup2\n      dup2\n      mstore\n      0x40\n      dup1\n      dup5\n      keccak256\n        /* \"credits2.sol\":7767:7800  studentCredits[student][courseId] */\n      dup6\n      dup6\n      mstore\n      swap1\n      swap2\n      mstore\n      dup3\n      keccak256\n        /* \"credits2.sol\":7767:7810  studentCredits[student][courseId].issueDate */\n      add\n      sload\n        /* \"credits2.sol\":7767:7815  studentCredits[student][courseId].issueDate != 0 */\n      swap1\n      sub\n        /* \"credits2.sol\":7759:7841  require(studentCredits[student][courseId].issueDate != 0, \"Credit does not exist\") */\n      tag_174\n      jumpi\n      mload(0x40)\n      mul(0x461bcd, exp(0x02, 0xe5))\n      dup2\n      mstore\n      0x04\n      add\n      tag_166\n      swap1\n      tag_176\n      jump\t// in\n    tag_174:\n      sub(exp(0x02, 0xa0), 0x01)\n        /* \"credits2.sol\":7912:7935  studentCredits[student] */\n      dup3\n      and\n      0x00\n      swap1\n      dup2\n      mstore\n        /* \"credits2.sol\":7912:7926  studentCredits */\n      0x03\n        /* \"credits2.sol\":7912:7935  studentCredits[student] */\n      0x20\n      swap1\n      dup2\n      mstore\n      0x40\n      dup1\n      dup4\n      keccak256\n        /* \"credits2.sol\":7912:7945  studentCredits[student][courseId] */\n      dup5\n      dup5\n      mstore\n      swap1\n      swap2\n      mstore\n      swap1\n      keccak256\n        /* \"credits2.sol\":7912:7955  studentCredits[student][courseId].isRevoked */\n      0x06\n      add\n      sload\n      0xff\n      and\n        /* \"credits2.sol\":7911:7955  !studentCredits[student][courseId].isRevoked */\n      iszero\n        /* \"credits2.sol\":7903:7982  require(!studentCredits[student][courseId].isRevoked, \"Credit already revoked\") */\n      tag_180\n      jumpi\n      mload(0x40)\n      mul(0x461bcd, exp(0x02, 0xe5))\n      dup2\n      mstore\n      0x04\n      add\n      tag_166\n      swap1\n      tag_182\n      jump\t// in\n    tag_180:\n      sub(exp(0x02, 0xa0), 0x01)\n        /* \"credits2.sol\":7993:8016  studentCredits[student] */\n      swap1\n      swap2\n      and\n      0x00\n      swap1\n      dup2\n      mstore\n        /* \"credits2.sol\":7993:8007  studentCredits */\n      0x03\n        /* \"credits2.sol\":7993:8016  studentCredits[student] */\n      0x20\n      swap1\n      dup2\n      mstore\n      0x40\n      dup1\n      dup4\n      keccak256\n        /* \"credits2.sol\":7993:8026  studentCredits[student][courseId] */\n      swap4\n      dup4\n      mstore\n      swap3\n      swap1\n      mstore\n      keccak256\n        /* \"credits2.sol\":7993:8036  studentCredits[student][courseId].isRevoked */\n      0x06\n      add\n        /* \"credits2.sol\":7993:8043  studentCredits[student][courseId].isRevoked = true */\n      dup1\n      sload\n      not(0xff)\n      and\n        /* \"credits2.sol\":8039:8043  true */\n      0x01\n        /* \"credits2.sol\":7993:8043  studentCredits[student][courseId].isRevoked = true */\n      or\n      swap1\n      sstore\n        /* \"credits2.sol\":7680:8051  function Cancel(address student,uint256 courseId)external  onlyAdmin{... */\n      jump\t// out\n        /* \"credits2.sol\":4153:4307  function addTeacher(address teacher)external onlyAdmin{... */\n    tag_64:\n        /* \"credits2.sol\":1065:1075  msg.sender */\n      caller\n        /* \"credits2.sol\":1057:1076  isAdmin[msg.sender] */\n      0x00\n      swap1\n      dup2\n      mstore\n        /* \"credits2.sol\":1057:1064  isAdmin */\n      0x01\n        /* \"credits2.sol\":1057:1076  isAdmin[msg.sender] */\n      0x20\n      mstore\n      0x40\n      swap1\n      keccak256\n      sload\n      0xff\n      and\n        /* \"credits2.sol\":1049:1093  require(isAdmin[msg.sender], \"Not an admin\") */\n      tag_184\n      jumpi\n      mload(0x40)\n      mul(0x461bcd, exp(0x02, 0xe5))\n      dup2\n      mstore\n      0x04\n      add\n      tag_166\n      swap1\n      tag_172\n      jump\t// in\n    tag_184:\n      sub(exp(0x02, 0xa0), 0x01)\n        /* \"credits2.sol\":4226:4245  teacher!=address(0) */\n      dup2\n      and\n        /* \"credits2.sol\":4218:4264  require(teacher!=address(0),\"Invalid address\") */\n      tag_187\n      jumpi\n      mload(0x40)\n      mul(0x461bcd, exp(0x02, 0xe5))\n      dup2\n      mstore\n      0x04\n      add\n      tag_166\n      swap1\n      tag_189\n      jump\t// in\n    tag_187:\n      sub(exp(0x02, 0xa0), 0x01)\n        /* \"credits2.sol\":4277:4294  teachers[teacher] */\n      and\n      0x00\n      swap1\n      dup2\n      mstore\n        /* \"credits2.sol\":4277:4285  teachers */\n      0x06\n        /* \"credits2.sol\":4277:4294  teachers[teacher] */\n      0x20\n      mstore\n      0x40\n      swap1\n      keccak256\n        /* \"credits2.sol\":4277:4299  teachers[teacher]=true */\n      dup1\n      sload\n      not(0xff)\n      and\n        /* \"credits2.sol\":4295:4299  true */\n      0x01\n        /* \"credits2.sol\":4277:4299  teachers[teacher]=true */\n      or\n      swap1\n      sstore\n        /* \"credits2.sol\":4153:4307  function addTeacher(address teacher)external onlyAdmin{... */\n      jump\t// out\n        /* \"credits2.sol\":5505:5918  function getCreditsOfStudent() external view returns(Credit[] memory creditList) {... */\n    tag_66:\n        /* \"credits2.sol\":5628:5638  msg.sender */\n      caller\n        /* \"credits2.sol\":5597:5608  uint length */\n      0x00\n        /* \"credits2.sol\":5611:5639  studentCourseIds[msg.sender] */\n      swap1\n      dup2\n      mstore\n        /* \"credits2.sol\":5611:5627  studentCourseIds */\n      0x05\n        /* \"credits2.sol\":5611:5639  studentCourseIds[msg.sender] */\n      0x20\n      mstore\n      0x40\n      swap1\n      keccak256\n        /* \"credits2.sol\":5611:5646  studentCourseIds[msg.sender].length */\n      sload\n        /* \"credits2.sol\":5558:5584  Credit[] memory creditList */\n      0x60\n      swap1\n        /* \"credits2.sol\":5611:5646  studentCourseIds[msg.sender].length */\n      dup1\n        /* \"credits2.sol\":5670:5690  new Credit[](length) */\n      0xffffffffffffffff\n      dup2\n      gt\n      iszero\n      tag_192\n      jumpi\n      tag_192\n      tag_193\n      jump\t// in\n    tag_192:\n      mload(0x40)\n      swap1\n      dup1\n      dup3\n      mstore\n      dup1\n      0x20\n      mul\n      0x20\n      add\n      dup3\n      add\n      0x40\n      mstore\n      dup1\n      iszero\n      tag_194\n      jumpi\n      dup2\n      0x20\n      add\n    tag_195:\n      tag_196\n      tag_197\n      jump\t// in\n    tag_196:\n      dup2\n      mstore\n      0x20\n      add\n      swap1\n      0x01\n      swap1\n      sub\n      swap1\n      dup2\n      tag_195\n      jumpi\n      swap1\n      pop\n    tag_194:\n      pop\n        /* \"credits2.sol\":5657:5690  creditList = new Credit[](length) */\n      swap2\n      pop\n        /* \"credits2.sol\":5707:5713  uint i */\n      0x00\n        /* \"credits2.sol\":5703:5881  for(uint i = 0; i < length; i++) {... */\n    tag_198:\n        /* \"credits2.sol\":5723:5729  length */\n      dup2\n        /* \"credits2.sol\":5719:5720  i */\n      dup2\n        /* \"credits2.sol\":5719:5729  i < length */\n      lt\n        /* \"credits2.sol\":5703:5881  for(uint i = 0; i < length; i++) {... */\n      iszero\n      tag_199\n      jumpi\n        /* \"credits2.sol\":5786:5796  msg.sender */\n      caller\n        /* \"credits2.sol\":5753:5766  uint courseId */\n      0x00\n        /* \"credits2.sol\":5769:5797  studentCourseIds[msg.sender] */\n      swap1\n      dup2\n      mstore\n        /* \"credits2.sol\":5769:5785  studentCourseIds */\n      0x05\n        /* \"credits2.sol\":5769:5797  studentCourseIds[msg.sender] */\n      0x20\n      mstore\n      0x40\n      dup2\n      keccak256\n        /* \"credits2.sol\":5769:5800  studentCourseIds[msg.sender][i] */\n      dup1\n      sload\n        /* \"credits2.sol\":5798:5799  i */\n      dup4\n      swap1\n        /* \"credits2.sol\":5769:5800  studentCourseIds[msg.sender][i] */\n      dup2\n      lt\n      tag_202\n      jumpi\n      tag_202\n      tag_203\n      jump\t// in\n    tag_202:\n      0x00\n      swap2\n      dup3\n      mstore\n      0x20\n      dup1\n      dup4\n      keccak256\n      swap1\n      swap2\n      add\n      sload\n        /* \"credits2.sol\":5848:5858  msg.sender */\n      caller\n        /* \"credits2.sol\":5833:5859  studentCredits[msg.sender] */\n      dup4\n      mstore\n        /* \"credits2.sol\":5833:5847  studentCredits */\n      0x03\n        /* \"credits2.sol\":5833:5859  studentCredits[msg.sender] */\n      dup1\n      dup4\n      mstore\n      0x40\n      dup1\n      dup6\n      keccak256\n        /* \"credits2.sol\":5833:5869  studentCredits[msg.sender][courseId] */\n      dup4\n      dup7\n      mstore\n      dup5\n      mstore\n      swap4\n      dup5\n      swap1\n      keccak256\n        /* \"credits2.sol\":5817:5869  creditList[i] = studentCredits[msg.sender][courseId] */\n      dup5\n      mload\n      0x0140\n      dup2\n      add\n      dup7\n      mstore\n      dup2\n      sload\n      dup2\n      mstore\n      0x01\n      dup3\n      add\n      sload\n      swap5\n      dup2\n      add\n      swap5\n      swap1\n      swap5\n      mstore\n      0x02\n      dup2\n      add\n      sload\n      swap5\n      dup5\n      add\n      swap5\n      swap1\n      swap5\n      mstore\n      dup4\n      add\n      sload\n      0x60\n      dup4\n      add\n      mstore\n      0x04\n      dup4\n      add\n      sload\n      0xff\n      swap1\n      dup2\n      and\n      iszero\n      iszero\n      0x80\n      dup5\n      add\n      mstore\n      0x05\n      dup5\n      add\n      sload\n      0xa0\n      dup5\n      add\n      mstore\n      0x06\n      dup5\n      add\n      sload\n      and\n      iszero\n      iszero\n      0xc0\n      dup4\n      add\n      mstore\n      0x07\n      dup4\n      add\n      dup1\n      sload\n        /* \"credits2.sol\":5769:5800  studentCourseIds[msg.sender][i] */\n      swap2\n      swap5\n      pop\n        /* \"credits2.sol\":5817:5869  creditList[i] = studentCredits[msg.sender][courseId] */\n      swap2\n      swap3\n        /* \"credits2.sol\":5833:5869  studentCredits[msg.sender][courseId] */\n      swap2\n        /* \"credits2.sol\":5817:5869  creditList[i] = studentCredits[msg.sender][courseId] */\n      0xe0\n      dup5\n      add\n      swap2\n      tag_205\n      swap1\n      tag_206\n      jump\t// in\n    tag_205:\n      dup1\n      0x1f\n      add\n      0x20\n      dup1\n      swap2\n      div\n      mul\n      0x20\n      add\n      mload(0x40)\n      swap1\n      dup2\n      add\n      0x40\n      mstore\n      dup1\n      swap3\n      swap2\n      swap1\n      dup2\n      dup2\n      mstore\n      0x20\n      add\n      dup3\n      dup1\n      sload\n      tag_207\n      swap1\n      tag_206\n      jump\t// in\n    tag_207:\n      dup1\n      iszero\n      tag_208\n      jumpi\n      dup1\n      0x1f\n      lt\n      tag_209\n      jumpi\n      0x0100\n      dup1\n      dup4\n      sload\n      div\n      mul\n      dup4\n      mstore\n      swap2\n      0x20\n      add\n      swap2\n      jump(tag_208)\n    tag_209:\n      dup3\n      add\n      swap2\n      swap1\n      0x00\n      mstore\n      keccak256(0x00, 0x20)\n      swap1\n    tag_210:\n      dup2\n      sload\n      dup2\n      mstore\n      swap1\n      0x01\n      add\n      swap1\n      0x20\n      add\n      dup1\n      dup4\n      gt\n      tag_210\n      jumpi\n      dup3\n      swap1\n      sub\n      0x1f\n      and\n      dup3\n      add\n      swap2\n    tag_208:\n      pop\n      pop\n      pop\n      swap2\n      dup4\n      mstore\n      pop\n      pop\n      0x08\n      dup3\n      add\n      sload\n      0xff\n      and\n      iszero\n      iszero\n      0x20\n      dup3\n      add\n      mstore\n      0x09\n      dup3\n      add\n      dup1\n      sload\n      0x40\n      swap1\n      swap3\n      add\n      swap2\n      tag_211\n      swap1\n      tag_206\n      jump\t// in\n    tag_211:\n      dup1\n      0x1f\n      add\n      0x20\n      dup1\n      swap2\n      div\n      mul\n      0x20\n      add\n      mload(0x40)\n      swap1\n      dup2\n      add\n      0x40\n      mstore\n      dup1\n      swap3\n      swap2\n      swap1\n      dup2\n      dup2\n      mstore\n      0x20\n      add\n      dup3\n      dup1\n      sload\n      tag_212\n      swap1\n      tag_206\n      jump\t// in\n    tag_212:\n      dup1\n      iszero\n      tag_213\n      jumpi\n      dup1\n      0x1f\n      lt\n      tag_214\n      jumpi\n      0x0100\n      dup1\n      dup4\n      sload\n      div\n      mul\n      dup4\n      mstore\n      swap2\n      0x20\n      add\n      swap2\n      jump(tag_213)\n    tag_214:\n      dup3\n      add\n      swap2\n      swap1\n      0x00\n      mstore\n      keccak256(0x00, 0x20)\n      swap1\n    tag_215:\n      dup2\n      sload\n      dup2\n      mstore\n      swap1\n      0x01\n      add\n      swap1\n      0x20\n      add\n      dup1\n      dup4\n      gt\n      tag_215\n      jumpi\n      dup3\n      swap1\n      sub\n      0x1f\n      and\n      dup3\n      add\n      swap2\n    tag_213:\n      pop\n      pop\n      pop\n      pop\n      pop\n      dup2\n      mstore\n      pop\n      pop\n        /* \"credits2.sol\":5817:5827  creditList */\n      dup5\n        /* \"credits2.sol\":5828:5829  i */\n      dup4\n        /* \"credits2.sol\":5817:5830  creditList[i] */\n      dup2\n      mload\n      dup2\n      lt\n      tag_217\n      jumpi\n      tag_217\n      tag_203\n      jump\t// in\n    tag_217:\n      0x20\n      mul\n      0x20\n      add\n      add\n        /* \"credits2.sol\":5817:5869  creditList[i] = studentCredits[msg.sender][courseId] */\n      dup2\n      swap1\n      mstore\n      pop\n        /* \"credits2.sol\":5736:5881  {... */\n      pop\n        /* \"credits2.sol\":5731:5734  i++ */\n      dup1\n      dup1\n      tag_218\n      swap1\n      tag_219\n      jump\t// in\n    tag_218:\n      swap2\n      pop\n      pop\n        /* \"credits2.sol\":5703:5881  for(uint i = 0; i < length; i++) {... */\n      jump(tag_198)\n    tag_199:\n      pop\n        /* \"credits2.sol\":5893:5910  return creditList */\n      pop\n        /* \"credits2.sol\":5505:5918  function getCreditsOfStudent() external view returns(Credit[] memory creditList) {... */\n      swap1\n      jump\t// out\n        /* \"credits2.sol\":3292:3358  mapping(address => CreditTransfer[]) public creditTransferRequests */\n    tag_71:\n      mstore(0x20, 0x0a)\n      dup2\n      0x00\n      mstore\n      keccak256(0x00, 0x40)\n      dup2\n      dup2\n      sload\n      dup2\n      lt\n      tag_220\n      jumpi\n      0x00\n      dup1\n      revert\n    tag_220:\n      swap1\n      0x00\n      mstore\n      keccak256(0x00, 0x20)\n      swap1\n      0x03\n      mul\n      add\n      0x00\n      swap2\n      pop\n      swap2\n      pop\n      pop\n      dup1\n      0x00\n      add\n      sload\n      swap1\n      dup1\n      0x01\n      add\n      dup1\n      sload\n      tag_222\n      swap1\n      tag_206\n      jump\t// in\n    tag_222:\n      dup1\n      0x1f\n      add\n      0x20\n      dup1\n      swap2\n      div\n      mul\n      0x20\n      add\n      mload(0x40)\n      swap1\n      dup2\n      add\n      0x40\n      mstore\n      dup1\n      swap3\n      swap2\n      swap1\n      dup2\n      dup2\n      mstore\n      0x20\n      add\n      dup3\n      dup1\n      sload\n      tag_223\n      swap1\n      tag_206\n      jump\t// in\n    tag_223:\n      dup1\n      iszero\n      tag_224\n      jumpi\n      dup1\n      0x1f\n      lt\n      tag_225\n      jumpi\n      0x0100\n      dup1\n      dup4\n      sload\n      div\n      mul\n      dup4\n      mstore\n      swap2\n      0x20\n      add\n      swap2\n      jump(tag_224)\n    tag_225:\n      dup3\n      add\n      swap2\n      swap1\n      0x00\n      mstore\n      keccak256(0x00, 0x20)\n      swap1\n    tag_226:\n      dup2\n      sload\n      dup2\n      mstore\n      swap1\n      0x01\n      add\n      swap1\n      0x20\n      add\n      dup1\n      dup4\n      gt\n      tag_226\n      jumpi\n      dup3\n      swap1\n      sub\n      0x1f\n      and\n      dup3\n      add\n      swap2\n    tag_224:\n      pop\n      pop\n      pop\n      0x02\n      swap1\n      swap4\n      add\n      sload\n      swap2\n      swap3\n      pop\n      pop\n      0xff\n      dup1\n      dup3\n      and\n      swap2\n      0x0100\n      swap1\n      div\n      and\n      dup5\n      jump\t// out\n        /* \"credits2.sol\":4335:4562  function removeTeacher(address teacher)external onlyAdmin{... */\n    tag_76:\n        /* \"credits2.sol\":1065:1075  msg.sender */\n      caller\n        /* \"credits2.sol\":1057:1076  isAdmin[msg.sender] */\n      0x00\n      swap1\n      dup2\n      mstore\n        /* \"credits2.sol\":1057:1064  isAdmin */\n      0x01\n        /* \"credits2.sol\":1057:1076  isAdmin[msg.sender] */\n      0x20\n      mstore\n      0x40\n      swap1\n      keccak256\n      sload\n      0xff\n      and\n        /* \"credits2.sol\":1049:1093  require(isAdmin[msg.sender], \"Not an admin\") */\n      tag_228\n      jumpi\n      mload(0x40)\n      mul(0x461bcd, exp(0x02, 0xe5))\n      dup2\n      mstore\n      0x04\n      add\n      tag_166\n      swap1\n      tag_172\n      jump\t// in\n    tag_228:\n      sub(exp(0x02, 0xa0), 0x01)\n        /* \"credits2.sol\":4411:4430  teacher!=address(0) */\n      dup2\n      and\n        /* \"credits2.sol\":4403:4449  require(teacher!=address(0),\"Invalid address\") */\n      tag_231\n      jumpi\n      mload(0x40)\n      mul(0x461bcd, exp(0x02, 0xe5))\n      dup2\n      mstore\n      0x04\n      add\n      tag_166\n      swap1\n      tag_189\n      jump\t// in\n    tag_231:\n      sub(exp(0x02, 0xa0), 0x01)\n        /* \"credits2.sol\":4468:4485  teachers[teacher] */\n      dup2\n      and\n      0x00\n      swap1\n      dup2\n      mstore\n        /* \"credits2.sol\":4468:4476  teachers */\n      0x06\n        /* \"credits2.sol\":4468:4485  teachers[teacher] */\n      0x20\n      mstore\n      0x40\n      swap1\n      keccak256\n      sload\n      0xff\n      and\n        /* \"credits2.sol\":4468:4491  teachers[teacher]==true */\n      iszero\n      iszero\n        /* \"credits2.sol\":4468:4485  teachers[teacher] */\n      0x01\n        /* \"credits2.sol\":4468:4491  teachers[teacher]==true */\n      eq\n        /* \"credits2.sol\":4460:4520  require(teachers[teacher]==true,\"address are not a teacher\") */\n      tag_233\n      jumpi\n      mload(0x40)\n      mul(0x461bcd, exp(0x02, 0xe5))\n      dup2\n      mstore\n        /* \"#utility.yul\":14495:14497   */\n      0x20\n        /* \"credits2.sol\":4460:4520  require(teachers[teacher]==true,\"address are not a teacher\") */\n      0x04\n      dup3\n      add\n        /* \"#utility.yul\":14477:14498   */\n      mstore\n        /* \"#utility.yul\":14534:14536   */\n      0x19\n        /* \"#utility.yul\":14514:14532   */\n      0x24\n      dup3\n      add\n        /* \"#utility.yul\":14507:14537   */\n      mstore\n        /* \"#utility.yul\":14573:14600   */\n      0x6164647265737320617265206e6f742061207465616368657200000000000000\n        /* \"#utility.yul\":14553:14571   */\n      0x44\n      dup3\n      add\n        /* \"#utility.yul\":14546:14601   */\n      mstore\n        /* \"#utility.yul\":14618:14636   */\n      0x64\n      add\n        /* \"credits2.sol\":4460:4520  require(teachers[teacher]==true,\"address are not a teacher\") */\n      tag_166\n        /* \"#utility.yul\":14293:14642   */\n      jump\n        /* \"credits2.sol\":4460:4520  require(teachers[teacher]==true,\"address are not a teacher\") */\n    tag_233:\n      sub(exp(0x02, 0xa0), 0x01)\n        /* \"credits2.sol\":4531:4548  teachers[teacher] */\n      and\n        /* \"credits2.sol\":4549:4554  false */\n      0x00\n        /* \"credits2.sol\":4531:4548  teachers[teacher] */\n      swap1\n      dup2\n      mstore\n        /* \"credits2.sol\":4531:4539  teachers */\n      0x06\n        /* \"credits2.sol\":4531:4548  teachers[teacher] */\n      0x20\n      mstore\n      0x40\n      swap1\n      keccak256\n        /* \"credits2.sol\":4531:4554  teachers[teacher]=false */\n      dup1\n      sload\n      not(0xff)\n      and\n      swap1\n      sstore\n        /* \"credits2.sol\":4335:4562  function removeTeacher(address teacher)external onlyAdmin{... */\n      jump\t// out\n        /* \"credits2.sol\":4608:5320  function recordCredit(address student,uint256 courserId,uint256 score,string memory issuingInstitution)public onlyTeacher{... */\n    tag_85:\n        /* \"credits2.sol\":3420:3430  msg.sender */\n      caller\n        /* \"credits2.sol\":3411:3431  teachers[msg.sender] */\n      0x00\n      swap1\n      dup2\n      mstore\n        /* \"credits2.sol\":3411:3419  teachers */\n      0x06\n        /* \"credits2.sol\":3411:3431  teachers[msg.sender] */\n      0x20\n      mstore\n      0x40\n      swap1\n      keccak256\n      sload\n      0xff\n      and\n        /* \"credits2.sol\":3403:3449  require(teachers[msg.sender], \"Not a teacher\") */\n      tag_237\n      jumpi\n      mload(0x40)\n      mul(0x461bcd, exp(0x02, 0xe5))\n      dup2\n      mstore\n        /* \"#utility.yul\":14849:14851   */\n      0x20\n        /* \"credits2.sol\":3403:3449  require(teachers[msg.sender], \"Not a teacher\") */\n      0x04\n      dup3\n      add\n        /* \"#utility.yul\":14831:14852   */\n      mstore\n        /* \"#utility.yul\":14888:14890   */\n      0x0d\n        /* \"#utility.yul\":14868:14886   */\n      0x24\n      dup3\n      add\n        /* \"#utility.yul\":14861:14891   */\n      mstore\n        /* \"#utility.yul\":14927:14942   */\n      0x4e6f742061207465616368657200000000000000000000000000000000000000\n        /* \"#utility.yul\":14907:14925   */\n      0x44\n      dup3\n      add\n        /* \"#utility.yul\":14900:14943   */\n      mstore\n        /* \"#utility.yul\":14960:14978   */\n      0x64\n      add\n        /* \"credits2.sol\":3403:3449  require(teachers[msg.sender], \"Not a teacher\") */\n      tag_166\n        /* \"#utility.yul\":14647:14984   */\n      jump\n        /* \"credits2.sol\":3403:3449  require(teachers[msg.sender], \"Not a teacher\") */\n    tag_237:\n      sub(exp(0x02, 0xa0), 0x01)\n        /* \"credits2.sol\":4748:4767  student!=address(0) */\n      dup5\n      and\n        /* \"credits2.sol\":4740:4786  require(student!=address(0),\"Invalid address\") */\n      tag_241\n      jumpi\n      mload(0x40)\n      mul(0x461bcd, exp(0x02, 0xe5))\n      dup2\n      mstore\n      0x04\n      add\n      tag_166\n      swap1\n      tag_189\n      jump\t// in\n    tag_241:\n        /* \"credits2.sol\":4912:4935  courseExists[courserId] */\n      0x00\n      dup4\n      dup2\n      mstore\n        /* \"credits2.sol\":4912:4924  courseExists */\n      0x07\n        /* \"credits2.sol\":4912:4935  courseExists[courserId] */\n      0x20\n      mstore\n      0x40\n      swap1\n      keccak256\n      sload\n      0xff\n      and\n        /* \"credits2.sol\":4912:4941  courseExists[courserId]==true */\n      iszero\n      iszero\n        /* \"credits2.sol\":4912:4935  courseExists[courserId] */\n      0x01\n        /* \"credits2.sol\":4912:4941  courseExists[courserId]==true */\n      eq\n        /* \"credits2.sol\":4904:4960  require(courseExists[courserId]==true,\"course not exit\") */\n      tag_245\n      jumpi\n      mload(0x40)\n      mul(0x461bcd, exp(0x02, 0xe5))\n      dup2\n      mstore\n        /* \"#utility.yul\":15191:15193   */\n      0x20\n        /* \"credits2.sol\":4904:4960  require(courseExists[courserId]==true,\"course not exit\") */\n      0x04\n      dup3\n      add\n        /* \"#utility.yul\":15173:15194   */\n      mstore\n        /* \"#utility.yul\":15230:15232   */\n      0x0f\n        /* \"#utility.yul\":15210:15228   */\n      0x24\n      dup3\n      add\n        /* \"#utility.yul\":15203:15233   */\n      mstore\n        /* \"#utility.yul\":15269:15286   */\n      0x636f75727365206e6f7420657869740000000000000000000000000000000000\n        /* \"#utility.yul\":15249:15267   */\n      0x44\n      dup3\n      add\n        /* \"#utility.yul\":15242:15287   */\n      mstore\n        /* \"#utility.yul\":15304:15322   */\n      0x64\n      add\n        /* \"credits2.sol\":4904:4960  require(courseExists[courserId]==true,\"course not exit\") */\n      tag_166\n        /* \"#utility.yul\":14989:15328   */\n      jump\n        /* \"credits2.sol\":4904:4960  require(courseExists[courserId]==true,\"course not exit\") */\n    tag_245:\n        /* \"credits2.sol\":4973:4994  uint currentTimestamp */\n      0x00\n        /* \"credits2.sol\":5040:5062  courserInfo[courserId] */\n      dup4\n      dup2\n      mstore\n        /* \"credits2.sol\":5040:5051  courserInfo */\n      0x02\n        /* \"credits2.sol\":5040:5062  courserInfo[courserId] */\n      0x20\n      dup2\n      swap1\n      mstore\n      0x40\n      dup3\n      keccak256\n        /* \"credits2.sol\":5040:5070  courserInfo[courserId].credits */\n      add\n      sload\n        /* \"credits2.sol\":4997:5012  block.timestamp */\n      timestamp\n      swap2\n        /* \"credits2.sol\":5099:5114  score*newredits */\n      tag_248\n        /* \"credits2.sol\":5040:5070  courserInfo[courserId].credits */\n      dup3\n        /* \"credits2.sol\":5099:5104  score */\n      dup7\n        /* \"credits2.sol\":5099:5114  score*newredits */\n      tag_249\n      jump\t// in\n    tag_248:\n        /* \"credits2.sol\":5083:5114  uint endCredits=score*newredits */\n      swap1\n      pop\n        /* \"credits2.sol\":5162:5258  Credit(courserId, endCredits, score, currentTimestamp,false,0,false,issuingInstitution,false,\"\") */\n      mload(0x40)\n      dup1\n      0x0140\n      add\n      0x40\n      mstore\n      dup1\n        /* \"credits2.sol\":5169:5178  courserId */\n      dup8\n        /* \"credits2.sol\":5162:5258  Credit(courserId, endCredits, score, currentTimestamp,false,0,false,issuingInstitution,false,\"\") */\n      dup2\n      mstore\n      0x20\n      add\n        /* \"credits2.sol\":5180:5190  endCredits */\n      dup3\n        /* \"credits2.sol\":5162:5258  Credit(courserId, endCredits, score, currentTimestamp,false,0,false,issuingInstitution,false,\"\") */\n      dup2\n      mstore\n      0x20\n      add\n        /* \"credits2.sol\":5192:5197  score */\n      dup7\n        /* \"credits2.sol\":5162:5258  Credit(courserId, endCredits, score, currentTimestamp,false,0,false,issuingInstitution,false,\"\") */\n      dup2\n      mstore\n      0x20\n      add\n        /* \"credits2.sol\":5199:5215  currentTimestamp */\n      dup5\n        /* \"credits2.sol\":5162:5258  Credit(courserId, endCredits, score, currentTimestamp,false,0,false,issuingInstitution,false,\"\") */\n      dup2\n      mstore\n      0x20\n      add\n        /* \"credits2.sol\":5216:5221  false */\n      0x00\n        /* \"credits2.sol\":5162:5258  Credit(courserId, endCredits, score, currentTimestamp,false,0,false,issuingInstitution,false,\"\") */\n      iszero\n      iszero\n      dup2\n      mstore\n      0x20\n      add\n        /* \"credits2.sol\":5222:5223  0 */\n      0x00\n        /* \"credits2.sol\":5162:5258  Credit(courserId, endCredits, score, currentTimestamp,false,0,false,issuingInstitution,false,\"\") */\n      dup2\n      mstore\n      0x20\n      add\n        /* \"credits2.sol\":5224:5229  false */\n      0x00\n        /* \"credits2.sol\":5162:5258  Credit(courserId, endCredits, score, currentTimestamp,false,0,false,issuingInstitution,false,\"\") */\n      iszero\n      iszero\n      dup2\n      mstore\n      0x20\n      add\n        /* \"credits2.sol\":5230:5248  issuingInstitution */\n      dup6\n        /* \"credits2.sol\":5162:5258  Credit(courserId, endCredits, score, currentTimestamp,false,0,false,issuingInstitution,false,\"\") */\n      dup2\n      mstore\n      0x20\n      add\n        /* \"credits2.sol\":5249:5254  false */\n      0x00\n        /* \"credits2.sol\":5162:5258  Credit(courserId, endCredits, score, currentTimestamp,false,0,false,issuingInstitution,false,\"\") */\n      iszero\n      iszero\n      dup2\n      mstore\n      0x20\n      add\n      mload(0x40)\n      dup1\n      0x20\n      add\n      0x40\n      mstore\n      dup1\n      0x00\n      dup2\n      mstore\n      pop\n      dup2\n      mstore\n      pop\n        /* \"credits2.sol\":5127:5141  studentCredits */\n      0x03\n        /* \"credits2.sol\":5127:5150  studentCredits[student] */\n      0x00\n        /* \"credits2.sol\":5142:5149  student */\n      dup10\n      sub(exp(0x02, 0xa0), 0x01)\n        /* \"credits2.sol\":5127:5150  studentCredits[student] */\n      and\n      sub(exp(0x02, 0xa0), 0x01)\n      and\n      dup2\n      mstore\n      0x20\n      add\n      swap1\n      dup2\n      mstore\n      0x20\n      add\n      0x00\n      keccak256\n        /* \"credits2.sol\":5127:5161  studentCredits[student][courserId] */\n      0x00\n        /* \"credits2.sol\":5151:5160  courserId */\n      dup9\n        /* \"credits2.sol\":5127:5161  studentCredits[student][courserId] */\n      dup2\n      mstore\n      0x20\n      add\n      swap1\n      dup2\n      mstore\n      0x20\n      add\n      0x00\n      keccak256\n        /* \"credits2.sol\":5127:5258  studentCredits[student][courserId]=Credit(courserId, endCredits, score, currentTimestamp,false,0,false,issuingInstitution,false,\"\") */\n      0x00\n      dup3\n      add\n      mload\n      dup2\n      0x00\n      add\n      sstore\n      0x20\n      dup3\n      add\n      mload\n      dup2\n      0x01\n      add\n      sstore\n      0x40\n      dup3\n      add\n      mload\n      dup2\n      0x02\n      add\n      sstore\n      0x60\n      dup3\n      add\n      mload\n      dup2\n      0x03\n      add\n      sstore\n      0x80\n      dup3\n      add\n      mload\n      dup2\n      0x04\n      add\n      exp(0x0100, 0x00)\n      dup2\n      sload\n      dup2\n      0xff\n      mul\n      not\n      and\n      swap1\n      dup4\n      iszero\n      iszero\n      mul\n      or\n      swap1\n      sstore\n      pop\n      0xa0\n      dup3\n      add\n      mload\n      dup2\n      0x05\n      add\n      sstore\n      0xc0\n      dup3\n      add\n      mload\n      dup2\n      0x06\n      add\n      exp(0x0100, 0x00)\n      dup2\n      sload\n      dup2\n      0xff\n      mul\n      not\n      and\n      swap1\n      dup4\n      iszero\n      iszero\n      mul\n      or\n      swap1\n      sstore\n      pop\n      0xe0\n      dup3\n      add\n      mload\n      dup2\n      0x07\n      add\n      swap1\n      dup2\n      tag_250\n      swap2\n      swap1\n      tag_251\n      jump\t// in\n    tag_250:\n      pop\n      0x0100\n      dup3\n      add\n      mload\n      0x08\n      dup3\n      add\n      dup1\n      sload\n      not(0xff)\n      and\n      swap2\n      iszero\n      iszero\n      swap2\n      swap1\n      swap2\n      or\n      swap1\n      sstore\n      0x0120\n      dup3\n      add\n      mload\n      0x09\n      dup3\n      add\n      swap1\n      tag_252\n      swap1\n      dup3\n      tag_251\n      jump\t// in\n    tag_252:\n      pop\n      pop\n      pop\n      sub(exp(0x02, 0xa0), 0x01)\n        /* \"credits2.sol\":5271:5296  studentCourseIds[student] */\n      swap1\n      swap7\n      and\n      0x00\n      swap1\n      dup2\n      mstore\n        /* \"credits2.sol\":5271:5287  studentCourseIds */\n      0x05\n        /* \"credits2.sol\":5271:5296  studentCourseIds[student] */\n      0x20\n      swap1\n      dup2\n      mstore\n      0x40\n      dup3\n      keccak256\n        /* \"credits2.sol\":5271:5312  studentCourseIds[student].push(courserId) */\n      dup1\n      sload\n      0x01\n      dup2\n      add\n      dup3\n      sstore\n      swap1\n      dup4\n      mstore\n      swap2\n      keccak256\n      add\n      swap5\n      swap1\n      swap5\n      sstore\n      pop\n      pop\n      pop\n      pop\n      pop\n        /* \"credits2.sol\":4608:5320  function recordCredit(address student,uint256 courserId,uint256 score,string memory issuingInstitution)public onlyTeacher{... */\n      jump\t// out\n        /* \"credits2.sol\":6183:6727  function getStudentCreditByMechanism(address student)external  returns(Credit[]memory creditList){... */\n    tag_88:\n      sub(exp(0x02, 0xa0), 0x01)\n        /* \"credits2.sol\":6299:6317  allowance[student] */\n      dup2\n      and\n        /* \"credits2.sol\":6330:6331  0 */\n      0x00\n        /* \"credits2.sol\":6299:6317  allowance[student] */\n      swap1\n      dup2\n      mstore\n        /* \"credits2.sol\":6299:6308  allowance */\n      0x09\n        /* \"credits2.sol\":6299:6317  allowance[student] */\n      0x20\n      swap1\n      dup2\n      mstore\n      0x40\n      dup1\n      dup4\n      keccak256\n        /* \"credits2.sol\":6318:6328  msg.sender */\n      caller\n        /* \"credits2.sol\":6299:6329  allowance[student][msg.sender] */\n      dup5\n      mstore\n      swap1\n      swap2\n      mstore\n      swap1\n      keccak256\n      sload\n        /* \"credits2.sol\":6254:6279  Credit[]memory creditList */\n      0x60\n      swap1\n        /* \"credits2.sol\":6291:6356  require(allowance[student][msg.sender]>0,\"you do not be allowed\") */\n      tag_255\n      jumpi\n      mload(0x40)\n      mul(0x461bcd, exp(0x02, 0xe5))\n      dup2\n      mstore\n        /* \"#utility.yul\":17933:17935   */\n      0x20\n        /* \"credits2.sol\":6291:6356  require(allowance[student][msg.sender]>0,\"you do not be allowed\") */\n      0x04\n      dup3\n      add\n        /* \"#utility.yul\":17915:17936   */\n      mstore\n        /* \"#utility.yul\":17972:17974   */\n      0x15\n        /* \"#utility.yul\":17952:17970   */\n      0x24\n      dup3\n      add\n        /* \"#utility.yul\":17945:17975   */\n      mstore\n        /* \"#utility.yul\":18011:18034   */\n      0x796f7520646f206e6f7420626520616c6c6f7765640000000000000000000000\n        /* \"#utility.yul\":17991:18009   */\n      0x44\n      dup3\n      add\n        /* \"#utility.yul\":17984:18035   */\n      mstore\n        /* \"#utility.yul\":18052:18070   */\n      0x64\n      add\n        /* \"credits2.sol\":6291:6356  require(allowance[student][msg.sender]>0,\"you do not be allowed\") */\n      tag_166\n        /* \"#utility.yul\":17731:18076   */\n      jump\n        /* \"credits2.sol\":6291:6356  require(allowance[student][msg.sender]>0,\"you do not be allowed\") */\n    tag_255:\n      sub(exp(0x02, 0xa0), 0x01)\n        /* \"credits2.sol\":6381:6406  studentCourseIds[student] */\n      dup3\n      and\n        /* \"credits2.sol\":6367:6378  uint length */\n      0x00\n        /* \"credits2.sol\":6381:6406  studentCourseIds[student] */\n      swap1\n      dup2\n      mstore\n        /* \"credits2.sol\":6381:6397  studentCourseIds */\n      0x05\n        /* \"credits2.sol\":6381:6406  studentCourseIds[student] */\n      0x20\n      mstore\n      0x40\n      swap1\n      keccak256\n        /* \"credits2.sol\":6381:6413  studentCourseIds[student].length */\n      sload\n      dup1\n        /* \"credits2.sol\":6437:6457  new Credit[](length) */\n      0xffffffffffffffff\n      dup2\n      gt\n      iszero\n      tag_259\n      jumpi\n      tag_259\n      tag_193\n      jump\t// in\n    tag_259:\n      mload(0x40)\n      swap1\n      dup1\n      dup3\n      mstore\n      dup1\n      0x20\n      mul\n      0x20\n      add\n      dup3\n      add\n      0x40\n      mstore\n      dup1\n      iszero\n      tag_260\n      jumpi\n      dup2\n      0x20\n      add\n    tag_261:\n      tag_262\n      tag_197\n      jump\t// in\n    tag_262:\n      dup2\n      mstore\n      0x20\n      add\n      swap1\n      0x01\n      swap1\n      sub\n      swap1\n      dup2\n      tag_261\n      jumpi\n      swap1\n      pop\n    tag_260:\n      pop\n        /* \"credits2.sol\":6424:6457  creditList = new Credit[](length) */\n      swap2\n      pop\n        /* \"credits2.sol\":6474:6480  uint i */\n      0x00\n        /* \"credits2.sol\":6470:6642  for(uint i = 0; i < length; i++) {... */\n    tag_263:\n        /* \"credits2.sol\":6490:6496  length */\n      dup2\n        /* \"credits2.sol\":6486:6487  i */\n      dup2\n        /* \"credits2.sol\":6486:6496  i < length */\n      lt\n        /* \"credits2.sol\":6470:6642  for(uint i = 0; i < length; i++) {... */\n      iszero\n      tag_264\n      jumpi\n      sub(exp(0x02, 0xa0), 0x01)\n        /* \"credits2.sol\":6536:6561  studentCourseIds[student] */\n      dup5\n      and\n        /* \"credits2.sol\":6520:6533  uint courseId */\n      0x00\n        /* \"credits2.sol\":6536:6561  studentCourseIds[student] */\n      swap1\n      dup2\n      mstore\n        /* \"credits2.sol\":6536:6552  studentCourseIds */\n      0x05\n        /* \"credits2.sol\":6536:6561  studentCourseIds[student] */\n      0x20\n      mstore\n      0x40\n      dup2\n      keccak256\n        /* \"credits2.sol\":6536:6564  studentCourseIds[student][i] */\n      dup1\n      sload\n        /* \"credits2.sol\":6562:6563  i */\n      dup4\n      swap1\n        /* \"credits2.sol\":6536:6564  studentCourseIds[student][i] */\n      dup2\n      lt\n      tag_267\n      jumpi\n      tag_267\n      tag_203\n      jump\t// in\n    tag_267:\n      0x00\n      swap2\n      dup3\n      mstore\n      0x20\n      dup1\n      dup4\n      keccak256\n      swap1\n      swap2\n      add\n      sload\n      sub(exp(0x02, 0xa0), 0x01)\n        /* \"credits2.sol\":6597:6620  studentCredits[student] */\n      dup9\n      and\n      dup4\n      mstore\n        /* \"credits2.sol\":6597:6611  studentCredits */\n      0x03\n        /* \"credits2.sol\":6597:6620  studentCredits[student] */\n      dup1\n      dup4\n      mstore\n      0x40\n      dup1\n      dup6\n      keccak256\n        /* \"credits2.sol\":6597:6630  studentCredits[student][courseId] */\n      dup4\n      dup7\n      mstore\n      dup5\n      mstore\n      swap4\n      dup5\n      swap1\n      keccak256\n        /* \"credits2.sol\":6581:6630  creditList[i] = studentCredits[student][courseId] */\n      dup5\n      mload\n      0x0140\n      dup2\n      add\n      dup7\n      mstore\n      dup2\n      sload\n      dup2\n      mstore\n      0x01\n      dup3\n      add\n      sload\n      swap5\n      dup2\n      add\n      swap5\n      swap1\n      swap5\n      mstore\n      0x02\n      dup2\n      add\n      sload\n      swap5\n      dup5\n      add\n      swap5\n      swap1\n      swap5\n      mstore\n      dup4\n      add\n      sload\n      0x60\n      dup4\n      add\n      mstore\n      0x04\n      dup4\n      add\n      sload\n      0xff\n      swap1\n      dup2\n      and\n      iszero\n      iszero\n      0x80\n      dup5\n      add\n      mstore\n      0x05\n      dup5\n      add\n      sload\n      0xa0\n      dup5\n      add\n      mstore\n      0x06\n      dup5\n      add\n      sload\n      and\n      iszero\n      iszero\n      0xc0\n      dup4\n      add\n      mstore\n      0x07\n      dup4\n      add\n      dup1\n      sload\n        /* \"credits2.sol\":6536:6564  studentCourseIds[student][i] */\n      swap2\n      swap5\n      pop\n        /* \"credits2.sol\":6581:6630  creditList[i] = studentCredits[student][courseId] */\n      swap2\n      swap3\n        /* \"credits2.sol\":6597:6630  studentCredits[student][courseId] */\n      swap2\n        /* \"credits2.sol\":6581:6630  creditList[i] = studentCredits[student][courseId] */\n      0xe0\n      dup5\n      add\n      swap2\n      tag_269\n      swap1\n      tag_206\n      jump\t// in\n    tag_269:\n      dup1\n      0x1f\n      add\n      0x20\n      dup1\n      swap2\n      div\n      mul\n      0x20\n      add\n      mload(0x40)\n      swap1\n      dup2\n      add\n      0x40\n      mstore\n      dup1\n      swap3\n      swap2\n      swap1\n      dup2\n      dup2\n      mstore\n      0x20\n      add\n      dup3\n      dup1\n      sload\n      tag_270\n      swap1\n      tag_206\n      jump\t// in\n    tag_270:\n      dup1\n      iszero\n      tag_271\n      jumpi\n      dup1\n      0x1f\n      lt\n      tag_272\n      jumpi\n      0x0100\n      dup1\n      dup4\n      sload\n      div\n      mul\n      dup4\n      mstore\n      swap2\n      0x20\n      add\n      swap2\n      jump(tag_271)\n    tag_272:\n      dup3\n      add\n      swap2\n      swap1\n      0x00\n      mstore\n      keccak256(0x00, 0x20)\n      swap1\n    tag_273:\n      dup2\n      sload\n      dup2\n      mstore\n      swap1\n      0x01\n      add\n      swap1\n      0x20\n      add\n      dup1\n      dup4\n      gt\n      tag_273\n      jumpi\n      dup3\n      swap1\n      sub\n      0x1f\n      and\n      dup3\n      add\n      swap2\n    tag_271:\n      pop\n      pop\n      pop\n      swap2\n      dup4\n      mstore\n      pop\n      pop\n      0x08\n      dup3\n      add\n      sload\n      0xff\n      and\n      iszero\n      iszero\n      0x20\n      dup3\n      add\n      mstore\n      0x09\n      dup3\n      add\n      dup1\n      sload\n      0x40\n      swap1\n      swap3\n      add\n      swap2\n      tag_274\n      swap1\n      tag_206\n      jump\t// in\n    tag_274:\n      dup1\n      0x1f\n      add\n      0x20\n      dup1\n      swap2\n      div\n      mul\n      0x20\n      add\n      mload(0x40)\n      swap1\n      dup2\n      add\n      0x40\n      mstore\n      dup1\n      swap3\n      swap2\n      swap1\n      dup2\n      dup2\n      mstore\n      0x20\n      add\n      dup3\n      dup1\n      sload\n      tag_275\n      swap1\n      tag_206\n      jump\t// in\n    tag_275:\n      dup1\n      iszero\n      tag_276\n      jumpi\n      dup1\n      0x1f\n      lt\n      tag_277\n      jumpi\n      0x0100\n      dup1\n      dup4\n      sload\n      div\n      mul\n      dup4\n      mstore\n      swap2\n      0x20\n      add\n      swap2\n      jump(tag_276)\n    tag_277:\n      dup3\n      add\n      swap2\n      swap1\n      0x00\n      mstore\n      keccak256(0x00, 0x20)\n      swap1\n    tag_278:\n      dup2\n      sload\n      dup2\n      mstore\n      swap1\n      0x01\n      add\n      swap1\n      0x20\n      add\n      dup1\n      dup4\n      gt\n      tag_278\n      jumpi\n      dup3\n      swap1\n      sub\n      0x1f\n      and\n      dup3\n      add\n      swap2\n    tag_276:\n      pop\n      pop\n      pop\n      pop\n      pop\n      dup2\n      mstore\n      pop\n      pop\n        /* \"credits2.sol\":6581:6591  creditList */\n      dup5\n        /* \"credits2.sol\":6592:6593  i */\n      dup4\n        /* \"credits2.sol\":6581:6594  creditList[i] */\n      dup2\n      mload\n      dup2\n      lt\n      tag_280\n      jumpi\n      tag_280\n      tag_203\n      jump\t// in\n    tag_280:\n      0x20\n      mul\n      0x20\n      add\n      add\n        /* \"credits2.sol\":6581:6630  creditList[i] = studentCredits[student][courseId] */\n      dup2\n      swap1\n      mstore\n      pop\n        /* \"credits2.sol\":6503:6642  {... */\n      pop\n        /* \"credits2.sol\":6498:6501  i++ */\n      dup1\n      dup1\n      tag_281\n      swap1\n      tag_219\n      jump\t// in\n    tag_281:\n      swap2\n      pop\n      pop\n        /* \"credits2.sol\":6470:6642  for(uint i = 0; i < length; i++) {... */\n      jump(tag_263)\n    tag_264:\n      pop\n      sub(exp(0x02, 0xa0), 0x01)\n        /* \"credits2.sol\":6654:6672  allowance[student] */\n      dup4\n      and\n      0x00\n      swap1\n      dup2\n      mstore\n        /* \"credits2.sol\":6654:6663  allowance */\n      0x09\n        /* \"credits2.sol\":6654:6672  allowance[student] */\n      0x20\n      swap1\n      dup2\n      mstore\n      0x40\n      dup1\n      dup4\n      keccak256\n        /* \"credits2.sol\":6673:6683  msg.sender */\n      caller\n        /* \"credits2.sol\":6654:6684  allowance[student][msg.sender] */\n      dup5\n      mstore\n      swap1\n      swap2\n      mstore\n      dup2\n      keccak256\n        /* \"credits2.sol\":6654:6687  allowance[student][msg.sender]-=1 */\n      dup1\n      sload\n        /* \"credits2.sol\":6686:6687  1 */\n      0x01\n      swap3\n        /* \"credits2.sol\":6654:6672  allowance[student] */\n      swap1\n        /* \"credits2.sol\":6654:6687  allowance[student][msg.sender]-=1 */\n      tag_282\n      swap1\n        /* \"credits2.sol\":6686:6687  1 */\n      dup5\n      swap1\n        /* \"credits2.sol\":6654:6687  allowance[student][msg.sender]-=1 */\n      tag_283\n      jump\t// in\n    tag_282:\n      swap1\n      swap2\n      sstore\n      pop\n        /* \"credits2.sol\":6183:6727  function getStudentCreditByMechanism(address student)external  returns(Credit[]memory creditList){... */\n      swap2\n      swap4\n      swap3\n      pop\n      pop\n      pop\n      jump\t// out\n        /* \"credits2.sol\":5358:5456  function getAllCourseID()external view returns(uint[] memory){... */\n    tag_91:\n        /* \"credits2.sol\":5405:5418  uint[] memory */\n      0x60\n        /* \"credits2.sol\":5437:5448  courseLists */\n      0x08\n        /* \"credits2.sol\":5430:5448  return courseLists */\n      dup1\n      sload\n      dup1\n      0x20\n      mul\n      0x20\n      add\n      mload(0x40)\n      swap1\n      dup2\n      add\n      0x40\n      mstore\n      dup1\n      swap3\n      swap2\n      swap1\n      dup2\n      dup2\n      mstore\n      0x20\n      add\n      dup3\n      dup1\n      sload\n      dup1\n      iszero\n      tag_285\n      jumpi\n      0x20\n      mul\n      dup3\n      add\n      swap2\n      swap1\n      0x00\n      mstore\n      keccak256(0x00, 0x20)\n      swap1\n    tag_286:\n      dup2\n      sload\n      dup2\n      mstore\n      0x20\n      add\n      swap1\n      0x01\n      add\n      swap1\n      dup1\n      dup4\n      gt\n      tag_286\n      jumpi\n    tag_285:\n      pop\n      pop\n      pop\n      pop\n      pop\n      swap1\n      pop\n        /* \"credits2.sol\":5358:5456  function getAllCourseID()external view returns(uint[] memory){... */\n      swap1\n      jump\t// out\n        /* \"credits2.sol\":8736:8989  function approveCreditTransfer(address student, uint index) external onlyAdmin {... */\n    tag_96:\n        /* \"credits2.sol\":1065:1075  msg.sender */\n      caller\n        /* \"credits2.sol\":1057:1076  isAdmin[msg.sender] */\n      0x00\n      swap1\n      dup2\n      mstore\n        /* \"credits2.sol\":1057:1064  isAdmin */\n      0x01\n        /* \"credits2.sol\":1057:1076  isAdmin[msg.sender] */\n      0x20\n      mstore\n      0x40\n      swap1\n      keccak256\n      sload\n      0xff\n      and\n        /* \"credits2.sol\":1049:1093  require(isAdmin[msg.sender], \"Not an admin\") */\n      tag_288\n      jumpi\n      mload(0x40)\n      mul(0x461bcd, exp(0x02, 0xe5))\n      dup2\n      mstore\n      0x04\n      add\n      tag_166\n      swap1\n      tag_172\n      jump\t// in\n    tag_288:\n      sub(exp(0x02, 0xa0), 0x01)\n        /* \"credits2.sol\":8837:8868  creditTransferRequests[student] */\n      dup3\n      and\n      0x00\n      swap1\n      dup2\n      mstore\n        /* \"credits2.sol\":8837:8859  creditTransferRequests */\n      0x0a\n        /* \"credits2.sol\":8837:8868  creditTransferRequests[student] */\n      0x20\n      mstore\n      0x40\n      swap1\n      keccak256\n        /* \"credits2.sol\":8837:8875  creditTransferRequests[student][index] */\n      dup1\n      sload\n        /* \"credits2.sol\":8869:8874  index */\n      dup3\n      swap1\n        /* \"credits2.sol\":8837:8875  creditTransferRequests[student][index] */\n      dup2\n      lt\n      tag_292\n      jumpi\n      tag_292\n      tag_203\n      jump\t// in\n    tag_292:\n      0x00\n      swap2\n      dup3\n      mstore\n      0x20\n      swap1\n      swap2\n      keccak256\n        /* \"credits2.sol\":8837:8886  creditTransferRequests[student][index].isApproved */\n      0x02\n        /* \"credits2.sol\":8837:8875  creditTransferRequests[student][index] */\n      0x03\n      swap1\n      swap3\n      mul\n      add\n        /* \"credits2.sol\":8837:8886  creditTransferRequests[student][index].isApproved */\n      add\n      sload\n      0xff\n      and\n        /* \"credits2.sol\":8836:8886  !creditTransferRequests[student][index].isApproved */\n      iszero\n        /* \"credits2.sol\":8828:8916  require(!creditTransferRequests[student][index].isApproved, \"Transfer already approved\") */\n      tag_294\n      jumpi\n      mload(0x40)\n      mul(0x461bcd, exp(0x02, 0xe5))\n      dup2\n      mstore\n        /* \"#utility.yul\":18416:18418   */\n      0x20\n        /* \"credits2.sol\":8828:8916  require(!creditTransferRequests[student][index].isApproved, \"Transfer already approved\") */\n      0x04\n      dup3\n      add\n        /* \"#utility.yul\":18398:18419   */\n      mstore\n        /* \"#utility.yul\":18455:18457   */\n      0x19\n        /* \"#utility.yul\":18435:18453   */\n      0x24\n      dup3\n      add\n        /* \"#utility.yul\":18428:18458   */\n      mstore\n        /* \"#utility.yul\":18494:18521   */\n      0x5472616e7366657220616c726561647920617070726f76656400000000000000\n        /* \"#utility.yul\":18474:18492   */\n      0x44\n      dup3\n      add\n        /* \"#utility.yul\":18467:18522   */\n      mstore\n        /* \"#utility.yul\":18539:18557   */\n      0x64\n      add\n        /* \"credits2.sol\":8828:8916  require(!creditTransferRequests[student][index].isApproved, \"Transfer already approved\") */\n      tag_166\n        /* \"#utility.yul\":18214:18563   */\n      jump\n        /* \"credits2.sol\":8828:8916  require(!creditTransferRequests[student][index].isApproved, \"Transfer already approved\") */\n    tag_294:\n      sub(exp(0x02, 0xa0), 0x01)\n        /* \"credits2.sol\":8929:8960  creditTransferRequests[student] */\n      dup3\n      and\n      0x00\n      swap1\n      dup2\n      mstore\n        /* \"credits2.sol\":8929:8951  creditTransferRequests */\n      0x0a\n        /* \"credits2.sol\":8929:8960  creditTransferRequests[student] */\n      0x20\n      mstore\n      0x40\n      swap1\n      keccak256\n        /* \"credits2.sol\":8929:8967  creditTransferRequests[student][index] */\n      dup1\n      sload\n        /* \"credits2.sol\":8981:8985  true */\n      0x01\n      swap2\n        /* \"credits2.sol\":8929:8960  creditTransferRequests[student] */\n      swap1\n        /* \"credits2.sol\":8961:8966  index */\n      dup4\n      swap1\n        /* \"credits2.sol\":8929:8967  creditTransferRequests[student][index] */\n      dup2\n      lt\n      tag_298\n      jumpi\n      tag_298\n      tag_203\n      jump\t// in\n    tag_298:\n      0x00\n      swap2\n      dup3\n      mstore\n      0x20\n      swap1\n      swap2\n      keccak256\n      0x03\n      swap1\n      swap2\n      mul\n      add\n        /* \"credits2.sol\":8929:8978  creditTransferRequests[student][index].isApproved */\n      0x02\n      add\n        /* \"credits2.sol\":8929:8985  creditTransferRequests[student][index].isApproved = true */\n      dup1\n      sload\n      not(0xff)\n      and\n      swap2\n      iszero\n      iszero\n      swap2\n      swap1\n      swap2\n      or\n      swap1\n      sstore\n      pop\n      pop\n        /* \"credits2.sol\":8736:8989  function approveCreditTransfer(address student, uint index) external onlyAdmin {... */\n      jump\t// out\n        /* \"credits2.sol\":636:768  function addAdmin(address _newAdmin)onlyOwner public {... */\n    tag_99:\n        /* \"credits2.sol\":957:963  _owner */\n      and(sub(exp(0x02, 0xa0), 0x01), sload(0x00))\n        /* \"credits2.sol\":967:977  msg.sender */\n      caller\n        /* \"credits2.sol\":957:977  _owner == msg.sender */\n      eq\n        /* \"credits2.sol\":949:988  require(_owner == msg.sender, \"!owner\") */\n      tag_301\n      jumpi\n      mload(0x40)\n      mul(0x461bcd, exp(0x02, 0xe5))\n      dup2\n      mstore\n      0x04\n      add\n      tag_166\n      swap1\n      tag_167\n      jump\t// in\n    tag_301:\n      sub(exp(0x02, 0xa0), 0x01)\n        /* \"credits2.sol\":700:718  isAdmin[_newAdmin] */\n      dup2\n      and\n      0x00\n      dup2\n      dup2\n      mstore\n        /* \"credits2.sol\":719:723  true */\n      0x01\n        /* \"credits2.sol\":700:718  isAdmin[_newAdmin] */\n      0x20\n      dup2\n      swap1\n      mstore\n      0x40\n      dup1\n      dup4\n      keccak256\n        /* \"credits2.sol\":700:723  isAdmin[_newAdmin]=true */\n      dup1\n      sload\n      not(0xff)\n      and\n      swap1\n      swap3\n      or\n      swap1\n      swap2\n      sstore\n        /* \"credits2.sol\":739:760  AdminAdded(_newAdmin) */\n      mload\n      0x44d6d25963f097ad14f29f06854a01f575648a1ef82f30e562ccd3889717e339\n      swap2\n        /* \"credits2.sol\":700:718  isAdmin[_newAdmin] */\n      swap1\n        /* \"credits2.sol\":739:760  AdminAdded(_newAdmin) */\n      log2\n        /* \"credits2.sol\":636:768  function addAdmin(address _newAdmin)onlyOwner public {... */\n      pop\n      jump\t// out\n        /* \"credits2.sol\":1121:1269  function renounceOwnership() public virtual onlyOwner {... */\n    tag_101:\n        /* \"credits2.sol\":957:963  _owner */\n      and(sub(exp(0x02, 0xa0), 0x01), sload(0x00))\n        /* \"credits2.sol\":967:977  msg.sender */\n      caller\n        /* \"credits2.sol\":957:977  _owner == msg.sender */\n      eq\n        /* \"credits2.sol\":949:988  require(_owner == msg.sender, \"!owner\") */\n      tag_305\n      jumpi\n      mload(0x40)\n      mul(0x461bcd, exp(0x02, 0xe5))\n      dup2\n      mstore\n      0x04\n      add\n      tag_166\n      swap1\n      tag_167\n      jump\t// in\n    tag_305:\n        /* \"credits2.sol\":1228:1229  0 */\n      0x00\n        /* \"credits2.sol\":1212:1218  _owner */\n      dup1\n      sload\n        /* \"credits2.sol\":1191:1231  OwnershipTransferred(_owner, address(0)) */\n      mload(0x40)\n      sub(exp(0x02, 0xa0), 0x01)\n        /* \"credits2.sol\":1212:1218  _owner */\n      swap1\n      swap2\n      and\n      swap1\n        /* \"credits2.sol\":1191:1231  OwnershipTransferred(_owner, address(0)) */\n      0x8be0079c531659141344cd1fd0a4f28419497f9722a3daafe3b4186f6b6457e0\n      swap1\n        /* \"credits2.sol\":1228:1229  0 */\n      dup4\n      swap1\n        /* \"credits2.sol\":1191:1231  OwnershipTransferred(_owner, address(0)) */\n      log3\n        /* \"credits2.sol\":1259:1260  0 */\n      0x00\n        /* \"credits2.sol\":1242:1261  _owner = address(0) */\n      dup1\n      sload\n      not(0xffffffffffffffffffffffffffffffffffffffff)\n      and\n      swap1\n      sstore\n        /* \"credits2.sol\":1121:1269  function renounceOwnership() public virtual onlyOwner {... */\n      jump\t// out\n        /* \"credits2.sol\":8097:8664  function requestCreditTransfer(uint256 courseId, string memory targetInstitution) external {... */\n    tag_105:\n        /* \"credits2.sol\":8222:8232  msg.sender */\n      caller\n        /* \"credits2.sol\":8207:8233  studentCredits[msg.sender] */\n      0x00\n      swap1\n      dup2\n      mstore\n        /* \"credits2.sol\":8207:8221  studentCredits */\n      0x03\n        /* \"credits2.sol\":8207:8233  studentCredits[msg.sender] */\n      0x20\n      dup2\n      dup2\n      mstore\n      0x40\n      dup1\n      dup5\n      keccak256\n        /* \"credits2.sol\":8207:8243  studentCredits[msg.sender][courseId] */\n      dup7\n      dup6\n      mstore\n      swap1\n      swap2\n      mstore\n      dup3\n      keccak256\n        /* \"credits2.sol\":8207:8253  studentCredits[msg.sender][courseId].issueDate */\n      add\n      sload\n        /* \"credits2.sol\":8207:8258  studentCredits[msg.sender][courseId].issueDate != 0 */\n      swap1\n      sub\n        /* \"credits2.sol\":8199:8284  require(studentCredits[msg.sender][courseId].issueDate != 0, \"Credit does not exist\") */\n      tag_309\n      jumpi\n      mload(0x40)\n      mul(0x461bcd, exp(0x02, 0xe5))\n      dup2\n      mstore\n      0x04\n      add\n      tag_166\n      swap1\n      tag_176\n      jump\t// in\n    tag_309:\n        /* \"credits2.sol\":8319:8329  msg.sender */\n      caller\n        /* \"credits2.sol\":8304:8330  studentCredits[msg.sender] */\n      0x00\n      swap1\n      dup2\n      mstore\n        /* \"credits2.sol\":8304:8318  studentCredits */\n      0x03\n        /* \"credits2.sol\":8304:8330  studentCredits[msg.sender] */\n      0x20\n      swap1\n      dup2\n      mstore\n      0x40\n      dup1\n      dup4\n      keccak256\n        /* \"credits2.sol\":8304:8340  studentCredits[msg.sender][courseId] */\n      dup6\n      dup5\n      mstore\n      swap1\n      swap2\n      mstore\n      swap1\n      keccak256\n        /* \"credits2.sol\":8304:8350  studentCredits[msg.sender][courseId].isRevoked */\n      0x06\n      add\n      sload\n      0xff\n      and\n        /* \"credits2.sol\":8303:8350  !studentCredits[msg.sender][courseId].isRevoked */\n      iszero\n        /* \"credits2.sol\":8295:8377  require(!studentCredits[msg.sender][courseId].isRevoked, \"Credit already revoked\") */\n      tag_311\n      jumpi\n      mload(0x40)\n      mul(0x461bcd, exp(0x02, 0xe5))\n      dup2\n      mstore\n      0x04\n      add\n      tag_166\n      swap1\n      tag_182\n      jump\t// in\n    tag_311:\n        /* \"credits2.sol\":8413:8423  msg.sender */\n      caller\n        /* \"credits2.sol\":8390:8424  creditTransferRequests[msg.sender] */\n      0x00\n      swap1\n      dup2\n      mstore\n        /* \"credits2.sol\":8390:8412  creditTransferRequests */\n      0x0a\n        /* \"credits2.sol\":8390:8424  creditTransferRequests[msg.sender] */\n      0x20\n      swap1\n      dup2\n      mstore\n      0x40\n      dup1\n      dup4\n      keccak256\n        /* \"credits2.sol\":8430:8605  CreditTransfer({... */\n      dup2\n      mload\n      0x80\n      dup2\n      add\n      dup4\n      mstore\n      dup7\n      dup2\n      mstore\n      dup1\n      dup5\n      add\n      dup7\n      dup2\n      mstore\n      swap3\n      dup2\n      add\n      dup6\n      swap1\n      mstore\n      0x60\n      dup2\n      add\n      dup6\n      swap1\n      mstore\n        /* \"credits2.sol\":8390:8606  creditTransferRequests[msg.sender].push(CreditTransfer({... */\n      dup2\n      sload\n        /* \"credits2.sol\":8430:8605  CreditTransfer({... */\n      0x01\n        /* \"credits2.sol\":8390:8606  creditTransferRequests[msg.sender].push(CreditTransfer({... */\n      dup2\n      dup2\n      add\n      dup5\n      sstore\n      swap3\n      dup7\n      mstore\n      swap4\n      swap1\n      swap5\n      keccak256\n      dup5\n      mload\n      0x03\n      swap1\n      swap5\n      mul\n      add\n      swap3\n      dup4\n      sstore\n      swap1\n      mload\n      swap1\n      dup3\n      add\n      swap1\n      tag_314\n      swap1\n      dup3\n      tag_251\n      jump\t// in\n    tag_314:\n      pop\n      0x40\n      dup3\n      dup2\n      add\n      mload\n      0x02\n      swap1\n      swap3\n      add\n      dup1\n      sload\n      0x60\n      swap1\n      swap5\n      add\n      mload\n      iszero\n      iszero\n      0x0100\n      mul\n      not(0xff00)\n      swap4\n      iszero\n      iszero\n      swap4\n      swap1\n      swap4\n      and\n      not(0xffff)\n      swap1\n      swap5\n      and\n      swap4\n      swap1\n      swap4\n      or\n      swap2\n      swap1\n      swap2\n      or\n      swap1\n      swap2\n      sstore\n        /* \"credits2.sol\":8634:8644  msg.sender */\n      caller\n        /* \"credits2.sol\":8390:8606  creditTransferRequests[msg.sender].push(CreditTransfer({... */\n      0x00\n        /* \"credits2.sol\":8617:8645  requestOfStudent[msg.sender] */\n      swap1\n      dup2\n      mstore\n        /* \"credits2.sol\":8617:8633  requestOfStudent */\n      0x04\n        /* \"credits2.sol\":8617:8645  requestOfStudent[msg.sender] */\n      0x20\n      swap1\n      dup2\n      mstore\n      swap2\n      dup2\n      keccak256\n        /* \"credits2.sol\":8617:8660  requestOfStudent[msg.sender].push(courseId) */\n      dup1\n      sload\n        /* \"credits2.sol\":8390:8606  creditTransferRequests[msg.sender].push(CreditTransfer({... */\n      0x01\n        /* \"credits2.sol\":8617:8660  requestOfStudent[msg.sender].push(courseId) */\n      dup2\n      add\n      dup3\n      sstore\n      swap1\n      dup3\n      mstore\n      swap2\n      swap1\n      keccak256\n      add\n      swap2\n      swap1\n      swap2\n      sstore\n      pop\n        /* \"credits2.sol\":8097:8664  function requestCreditTransfer(uint256 courseId, string memory targetInstitution) external {... */\n      jump\t// out\n        /* \"credits2.sol\":3931:4121  function getCourseInfo(uint256 courseId)external returns(CourserInfo memory){... */\n    tag_112:\n        /* \"credits2.sol\":3988:4006  CourserInfo memory */\n      tag_317\n      mload(0x40)\n      dup1\n      0x80\n      add\n      0x40\n      mstore\n      dup1\n      0x00\n      dup2\n      mstore\n      0x20\n      add\n      0x60\n      dup2\n      mstore\n      0x20\n      add\n      0x00\n      dup2\n      mstore\n      0x20\n      add\n      0x00\n      dup2\n      mstore\n      pop\n      swap1\n      jump\n    tag_317:\n        /* \"credits2.sol\":4026:4048  courseExists[courseId] */\n      0x00\n      dup3\n      dup2\n      mstore\n        /* \"credits2.sol\":4026:4038  courseExists */\n      0x07\n        /* \"credits2.sol\":4026:4048  courseExists[courseId] */\n      0x20\n      mstore\n      0x40\n      swap1\n      keccak256\n        /* \"credits2.sol\":4026:4053  courseExists[courseId]=true */\n      dup1\n      sload\n      not(0xff)\n      and\n        /* \"credits2.sol\":4049:4053  true */\n      0x01\n        /* \"credits2.sol\":4026:4053  courseExists[courseId]=true */\n      or\n      swap1\n      sstore\n        /* \"credits2.sol\":4092:4103  courserInfo */\n      0x02\n        /* \"credits2.sol\":4092:4113  courserInfo[courseId] */\n      0x00\n        /* \"credits2.sol\":4104:4112  courseId */\n      dup4\n        /* \"credits2.sol\":4092:4113  courserInfo[courseId] */\n      dup2\n      mstore\n      0x20\n      add\n      swap1\n      dup2\n      mstore\n      0x20\n      add\n      0x00\n      keccak256\n        /* \"credits2.sol\":4085:4113  return courserInfo[courseId] */\n      mload(0x40)\n      dup1\n      0x80\n      add\n      0x40\n      mstore\n      swap1\n      dup2\n      0x00\n      dup3\n      add\n      sload\n      dup2\n      mstore\n      0x20\n      add\n      0x01\n      dup3\n      add\n      dup1\n      sload\n      tag_323\n      swap1\n      tag_206\n      jump\t// in\n    tag_323:\n      dup1\n      0x1f\n      add\n      0x20\n      dup1\n      swap2\n      div\n      mul\n      0x20\n      add\n      mload(0x40)\n      swap1\n      dup2\n      add\n      0x40\n      mstore\n      dup1\n      swap3\n      swap2\n      swap1\n      dup2\n      dup2\n      mstore\n      0x20\n      add\n      dup3\n      dup1\n      sload\n      tag_324\n      swap1\n      tag_206\n      jump\t// in\n    tag_324:\n      dup1\n      iszero\n      tag_325\n      jumpi\n      dup1\n      0x1f\n      lt\n      tag_326\n      jumpi\n      0x0100\n      dup1\n      dup4\n      sload\n      div\n      mul\n      dup4\n      mstore\n      swap2\n      0x20\n      add\n      swap2\n      jump(tag_325)\n    tag_326:\n      dup3\n      add\n      swap2\n      swap1\n      0x00\n      mstore\n      keccak256(0x00, 0x20)\n      swap1\n    tag_327:\n      dup2\n      sload\n      dup2\n      mstore\n      swap1\n      0x01\n      add\n      swap1\n      0x20\n      add\n      dup1\n      dup4\n      gt\n      tag_327\n      jumpi\n      dup3\n      swap1\n      sub\n      0x1f\n      and\n      dup3\n      add\n      swap2\n    tag_325:\n      pop\n      pop\n      pop\n      pop\n      pop\n      dup2\n      mstore\n      0x20\n      add\n      0x02\n      dup3\n      add\n      sload\n      dup2\n      mstore\n      0x20\n      add\n      0x03\n      dup3\n      add\n      sload\n      dup2\n      mstore\n      pop\n      pop\n      swap1\n      pop\n        /* \"credits2.sol\":3931:4121  function getCourseInfo(uint256 courseId)external returns(CourserInfo memory){... */\n      swap2\n      swap1\n      pop\n      jump\t// out\n        /* \"credits2.sol\":9695:9923  function getCreditTransfersOfStudent(address student) external  view returns (CreditTransfer[] memory) {... */\n    tag_117:\n        /* \"credits2.sol\":9773:9796  CreditTransfer[] memory */\n      0x60\n      sub(exp(0x02, 0xa0), 0x01)\n        /* \"credits2.sol\":9819:9840  student != address(0) */\n      dup3\n      and\n        /* \"credits2.sol\":9811:9868  require(student != address(0), \"Invalid student address\") */\n      tag_329\n      jumpi\n      mload(0x40)\n      mul(0x461bcd, exp(0x02, 0xe5))\n      dup2\n      mstore\n        /* \"#utility.yul\":19116:19118   */\n      0x20\n        /* \"credits2.sol\":9811:9868  require(student != address(0), \"Invalid student address\") */\n      0x04\n      dup3\n      add\n        /* \"#utility.yul\":19098:19119   */\n      mstore\n        /* \"#utility.yul\":19155:19157   */\n      0x17\n        /* \"#utility.yul\":19135:19153   */\n      0x24\n      dup3\n      add\n        /* \"#utility.yul\":19128:19158   */\n      mstore\n        /* \"#utility.yul\":19194:19219   */\n      0x496e76616c69642073747564656e742061646472657373000000000000000000\n        /* \"#utility.yul\":19174:19192   */\n      0x44\n      dup3\n      add\n        /* \"#utility.yul\":19167:19220   */\n      mstore\n        /* \"#utility.yul\":19237:19255   */\n      0x64\n      add\n        /* \"credits2.sol\":9811:9868  require(student != address(0), \"Invalid student address\") */\n      tag_166\n        /* \"#utility.yul\":18914:19261   */\n      jump\n        /* \"credits2.sol\":9811:9868  require(student != address(0), \"Invalid student address\") */\n    tag_329:\n      sub(exp(0x02, 0xa0), 0x01)\n        /* \"credits2.sol\":9888:9919  creditTransferRequests[student] */\n      dup3\n      and\n      0x00\n      swap1\n      dup2\n      mstore\n        /* \"credits2.sol\":9888:9910  creditTransferRequests */\n      0x0a\n        /* \"credits2.sol\":9888:9919  creditTransferRequests[student] */\n      0x20\n      swap1\n      dup2\n      mstore\n      0x40\n      dup1\n      dup4\n      keccak256\n        /* \"credits2.sol\":9881:9919  return creditTransferRequests[student] */\n      dup1\n      sload\n      dup3\n      mload\n      dup2\n      dup6\n      mul\n      dup2\n      add\n      dup6\n      add\n      swap1\n      swap4\n      mstore\n      dup1\n      dup4\n      mstore\n      swap2\n      swap4\n        /* \"credits2.sol\":9888:9919  creditTransferRequests[student] */\n      swap1\n      swap3\n        /* \"credits2.sol\":9881:9919  return creditTransferRequests[student] */\n      dup5\n      add\n    tag_332:\n      dup3\n      dup3\n      lt\n      iszero\n      tag_333\n      jumpi\n      dup4\n      dup3\n      swap1\n      0x00\n      mstore\n      keccak256(0x00, 0x20)\n      swap1\n      0x03\n      mul\n      add\n      mload(0x40)\n      dup1\n      0x80\n      add\n      0x40\n      mstore\n      swap1\n      dup2\n      0x00\n      dup3\n      add\n      sload\n      dup2\n      mstore\n      0x20\n      add\n      0x01\n      dup3\n      add\n      dup1\n      sload\n      tag_335\n      swap1\n      tag_206\n      jump\t// in\n    tag_335:\n      dup1\n      0x1f\n      add\n      0x20\n      dup1\n      swap2\n      div\n      mul\n      0x20\n      add\n      mload(0x40)\n      swap1\n      dup2\n      add\n      0x40\n      mstore\n      dup1\n      swap3\n      swap2\n      swap1\n      dup2\n      dup2\n      mstore\n      0x20\n      add\n      dup3\n      dup1\n      sload\n      tag_336\n      swap1\n      tag_206\n      jump\t// in\n    tag_336:\n      dup1\n      iszero\n      tag_337\n      jumpi\n      dup1\n      0x1f\n      lt\n      tag_338\n      jumpi\n      0x0100\n      dup1\n      dup4\n      sload\n      div\n      mul\n      dup4\n      mstore\n      swap2\n      0x20\n      add\n      swap2\n      jump(tag_337)\n    tag_338:\n      dup3\n      add\n      swap2\n      swap1\n      0x00\n      mstore\n      keccak256(0x00, 0x20)\n      swap1\n    tag_339:\n      dup2\n      sload\n      dup2\n      mstore\n      swap1\n      0x01\n      add\n      swap1\n      0x20\n      add\n      dup1\n      dup4\n      gt\n      tag_339\n      jumpi\n      dup3\n      swap1\n      sub\n      0x1f\n      and\n      dup3\n      add\n      swap2\n    tag_337:\n      pop\n      pop\n      pop\n      swap2\n      dup4\n      mstore\n      pop\n      pop\n      0x02\n      swap2\n      swap1\n      swap2\n      add\n      sload\n      0xff\n      dup1\n      dup3\n      and\n      iszero\n      iszero\n      0x20\n      dup1\n      dup6\n      add\n      swap2\n      swap1\n      swap2\n      mstore\n      0x0100\n      swap1\n      swap3\n      div\n      and\n      iszero\n      iszero\n      0x40\n      swap1\n      swap3\n      add\n      swap2\n      swap1\n      swap2\n      mstore\n      swap1\n      dup3\n      mstore\n      0x01\n      swap3\n      swap1\n      swap3\n      add\n      swap2\n      add\n      jump(tag_332)\n    tag_333:\n      pop\n      pop\n      pop\n      pop\n      swap1\n      pop\n        /* \"credits2.sol\":9695:9923  function getCreditTransfersOfStudent(address student) external  view returns (CreditTransfer[] memory) {... */\n      swap2\n      swap1\n      pop\n      jump\t// out\n        /* \"credits2.sol\":2579:2627  mapping (uint256=>CourserInfo)public courserInfo */\n    tag_122:\n      mstore(0x20, 0x02)\n      0x00\n      swap1\n      dup2\n      mstore\n      0x40\n      swap1\n      keccak256\n      dup1\n      sload\n      0x01\n      dup3\n      add\n      dup1\n      sload\n      swap2\n      swap3\n      swap2\n      tag_340\n      swap1\n      tag_206\n      jump\t// in\n    tag_340:\n      dup1\n      0x1f\n      add\n      0x20\n      dup1\n      swap2\n      div\n      mul\n      0x20\n      add\n      mload(0x40)\n      swap1\n      dup2\n      add\n      0x40\n      mstore\n      dup1\n      swap3\n      swap2\n      swap1\n      dup2\n      dup2\n      mstore\n      0x20\n      add\n      dup3\n      dup1\n      sload\n      tag_341\n      swap1\n      tag_206\n      jump\t// in\n    tag_341:\n      dup1\n      iszero\n      tag_342\n      jumpi\n      dup1\n      0x1f\n      lt\n      tag_343\n      jumpi\n      0x0100\n      dup1\n      dup4\n      sload\n      div\n      mul\n      dup4\n      mstore\n      swap2\n      0x20\n      add\n      swap2\n      jump(tag_342)\n    tag_343:\n      dup3\n      add\n      swap2\n      swap1\n      0x00\n      mstore\n      keccak256(0x00, 0x20)\n      swap1\n    tag_344:\n      dup2\n      sload\n      dup2\n      mstore\n      swap1\n      0x01\n      add\n      swap1\n      0x20\n      add\n      dup1\n      dup4\n      gt\n      tag_344\n      jumpi\n      dup3\n      swap1\n      sub\n      0x1f\n      and\n      dup3\n      add\n      swap2\n    tag_342:\n      pop\n      pop\n      pop\n      pop\n      pop\n      swap1\n      dup1\n      0x02\n      add\n      sload\n      swap1\n      dup1\n      0x03\n      add\n      sload\n      swap1\n      pop\n      dup5\n      jump\t// out\n        /* \"credits2.sol\":6777:7621  function modifyCredit(address student, uint256 courseId,  uint256 newScore) external  onlyTeacher {... */\n    tag_128:\n        /* \"credits2.sol\":3420:3430  msg.sender */\n      caller\n        /* \"credits2.sol\":3411:3431  teachers[msg.sender] */\n      0x00\n      swap1\n      dup2\n      mstore\n        /* \"credits2.sol\":3411:3419  teachers */\n      0x06\n        /* \"credits2.sol\":3411:3431  teachers[msg.sender] */\n      0x20\n      mstore\n      0x40\n      swap1\n      keccak256\n      sload\n      0xff\n      and\n        /* \"credits2.sol\":3403:3449  require(teachers[msg.sender], \"Not a teacher\") */\n      tag_346\n      jumpi\n      mload(0x40)\n      mul(0x461bcd, exp(0x02, 0xe5))\n      dup2\n      mstore\n        /* \"#utility.yul\":14849:14851   */\n      0x20\n        /* \"credits2.sol\":3403:3449  require(teachers[msg.sender], \"Not a teacher\") */\n      0x04\n      dup3\n      add\n        /* \"#utility.yul\":14831:14852   */\n      mstore\n        /* \"#utility.yul\":14888:14890   */\n      0x0d\n        /* \"#utility.yul\":14868:14886   */\n      0x24\n      dup3\n      add\n        /* \"#utility.yul\":14861:14891   */\n      mstore\n        /* \"#utility.yul\":14927:14942   */\n      0x4e6f742061207465616368657200000000000000000000000000000000000000\n        /* \"#utility.yul\":14907:14925   */\n      0x44\n      dup3\n      add\n        /* \"#utility.yul\":14900:14943   */\n      mstore\n        /* \"#utility.yul\":14960:14978   */\n      0x64\n      add\n        /* \"credits2.sol\":3403:3449  require(teachers[msg.sender], \"Not a teacher\") */\n      tag_166\n        /* \"#utility.yul\":14647:14984   */\n      jump\n        /* \"credits2.sol\":3403:3449  require(teachers[msg.sender], \"Not a teacher\") */\n    tag_346:\n      sub(exp(0x02, 0xa0), 0x01)\n        /* \"credits2.sol\":6894:6917  studentCredits[student] */\n      dup4\n      and\n      0x00\n      swap1\n      dup2\n      mstore\n        /* \"credits2.sol\":6894:6908  studentCredits */\n      0x03\n        /* \"credits2.sol\":6894:6917  studentCredits[student] */\n      0x20\n      dup2\n      dup2\n      mstore\n      0x40\n      dup1\n      dup5\n      keccak256\n        /* \"credits2.sol\":6894:6927  studentCredits[student][courseId] */\n      dup7\n      dup6\n      mstore\n      swap1\n      swap2\n      mstore\n      dup3\n      keccak256\n        /* \"credits2.sol\":6894:6937  studentCredits[student][courseId].issueDate */\n      add\n      sload\n        /* \"credits2.sol\":6894:6942  studentCredits[student][courseId].issueDate != 0 */\n      swap1\n      sub\n        /* \"credits2.sol\":6886:6968  require(studentCredits[student][courseId].issueDate != 0, \"Credit does not exist\") */\n      tag_349\n      jumpi\n      mload(0x40)\n      mul(0x461bcd, exp(0x02, 0xe5))\n      dup2\n      mstore\n      0x04\n      add\n      tag_166\n      swap1\n      tag_176\n      jump\t// in\n    tag_349:\n      sub(exp(0x02, 0xa0), 0x01)\n        /* \"credits2.sol\":6989:7008  student!=address(0) */\n      dup4\n      and\n        /* \"credits2.sol\":6981:7027  require(student!=address(0),\"Invalid address\") */\n      tag_351\n      jumpi\n      mload(0x40)\n      mul(0x461bcd, exp(0x02, 0xe5))\n      dup2\n      mstore\n      0x04\n      add\n      tag_166\n      swap1\n      tag_189\n      jump\t// in\n    tag_351:\n      sub(exp(0x02, 0xa0), 0x01)\n        /* \"credits2.sol\":7106:7129  studentCredits[student] */\n      dup4\n      and\n      0x00\n      swap1\n      dup2\n      mstore\n        /* \"credits2.sol\":7106:7120  studentCredits */\n      0x03\n        /* \"credits2.sol\":7106:7129  studentCredits[student] */\n      0x20\n      swap1\n      dup2\n      mstore\n      0x40\n      dup1\n      dup4\n      keccak256\n        /* \"credits2.sol\":7106:7139  studentCredits[student][courseId] */\n      dup6\n      dup5\n      mstore\n      swap1\n      swap2\n      mstore\n      swap1\n      keccak256\n        /* \"credits2.sol\":7106:7149  studentCredits[student][courseId].isRevoked */\n      0x06\n      add\n      sload\n      0xff\n      and\n        /* \"credits2.sol\":7105:7149  !studentCredits[student][courseId].isRevoked */\n      iszero\n        /* \"credits2.sol\":7097:7176  require(!studentCredits[student][courseId].isRevoked, \"Credit already revoked\") */\n      tag_355\n      jumpi\n      mload(0x40)\n      mul(0x461bcd, exp(0x02, 0xe5))\n      dup2\n      mstore\n      0x04\n      add\n      tag_166\n      swap1\n      tag_182\n      jump\t// in\n    tag_355:\n      sub(exp(0x02, 0xa0), 0x01)\n        /* \"credits2.sol\":7201:7224  studentCredits[student] */\n      dup4\n      and\n        /* \"credits2.sol\":7189:7200  uint256 num */\n      0x00\n        /* \"credits2.sol\":7201:7224  studentCredits[student] */\n      swap1\n      dup2\n      mstore\n        /* \"credits2.sol\":7201:7215  studentCredits */\n      0x03\n        /* \"credits2.sol\":7201:7224  studentCredits[student] */\n      0x20\n      swap1\n      dup2\n      mstore\n      0x40\n      dup1\n      dup4\n      keccak256\n        /* \"credits2.sol\":7201:7234  studentCredits[student][courseId] */\n      dup6\n      dup5\n      mstore\n      swap1\n      swap2\n      mstore\n      dup2\n      keccak256\n        /* \"credits2.sol\":7201:7244  studentCredits[student][courseId].modifyNum */\n      0x05\n      add\n      sload\n        /* \"credits2.sol\":7201:7246  studentCredits[student][courseId].modifyNum+1 */\n      tag_357\n      swap1\n        /* \"credits2.sol\":7245:7246  1 */\n      0x01\n        /* \"credits2.sol\":7201:7246  studentCredits[student][courseId].modifyNum+1 */\n      tag_358\n      jump\t// in\n    tag_357:\n        /* \"credits2.sol\":7257:7275  uint256 newCredits */\n      0x00\n        /* \"credits2.sol\":7285:7306  courserInfo[courseId] */\n      dup5\n      dup2\n      mstore\n        /* \"credits2.sol\":7285:7296  courserInfo */\n      0x02\n        /* \"credits2.sol\":7285:7306  courserInfo[courseId] */\n      0x20\n      dup2\n      swap1\n      mstore\n      0x40\n      dup3\n      keccak256\n        /* \"credits2.sol\":7285:7314  courserInfo[courseId].credits */\n      add\n      sload\n        /* \"credits2.sol\":7189:7246  uint256 num=studentCredits[student][courseId].modifyNum+1 */\n      swap2\n      swap3\n      pop\n        /* \"credits2.sol\":7257:7275  uint256 newCredits */\n      swap1\n        /* \"credits2.sol\":7276:7314  newScore*courserInfo[courseId].credits */\n      tag_359\n      swap1\n        /* \"credits2.sol\":7276:7284  newScore */\n      dup5\n        /* \"credits2.sol\":7276:7314  newScore*courserInfo[courseId].credits */\n      tag_249\n      jump\t// in\n    tag_359:\n      sub(exp(0x02, 0xa0), 0x01)\n        /* \"credits2.sol\":7384:7407  studentCredits[student] */\n      swap6\n      swap1\n      swap6\n      and\n      0x00\n      swap1\n      dup2\n      mstore\n        /* \"credits2.sol\":7384:7398  studentCredits */\n      0x03\n        /* \"credits2.sol\":7384:7407  studentCredits[student] */\n      0x20\n      swap1\n      dup2\n      mstore\n      0x40\n      dup1\n      dup4\n      keccak256\n        /* \"credits2.sol\":7384:7417  studentCredits[student][courseId] */\n      swap7\n      dup4\n      mstore\n      swap6\n      swap1\n      mstore\n      swap4\n      swap1\n      swap4\n      keccak256\n        /* \"credits2.sol\":7384:7425  studentCredits[student][courseId].credits */\n      0x01\n      dup1\n      dup3\n      add\n        /* \"credits2.sol\":7384:7436  studentCredits[student][courseId].credits=newCredits */\n      swap6\n      swap1\n      swap6\n      sstore\n        /* \"credits2.sol\":7447:7490  studentCredits[student][courseId].modifyNum */\n      0x05\n      dup2\n      add\n        /* \"credits2.sol\":7447:7494  studentCredits[student][courseId].modifyNum=num */\n      swap2\n      swap1\n      swap2\n      sstore\n        /* \"credits2.sol\":7505:7544  studentCredits[student][courseId].score */\n      0x02\n      dup2\n      add\n        /* \"credits2.sol\":7505:7553  studentCredits[student][courseId].score=newScore */\n      swap2\n      swap1\n      swap2\n      sstore\n        /* \"credits2.sol\":7564:7608  studentCredits[student][courseId].isModified */\n      0x04\n      add\n        /* \"credits2.sol\":7564:7613  studentCredits[student][courseId].isModified=true */\n      dup1\n      sload\n      not(0xff)\n      and\n      swap1\n      swap3\n      or\n      swap1\n      swap2\n      sstore\n      pop\n        /* \"credits2.sol\":6777:7621  function modifyCredit(address student, uint256 courseId,  uint256 newScore) external  onlyTeacher {... */\n      jump\t// out\n        /* \"credits2.sol\":2831:2878  mapping(address=>uint[])public requestOfStudent */\n    tag_131:\n      mstore(0x20, 0x04)\n      dup2\n      0x00\n      mstore\n      keccak256(0x00, 0x40)\n      dup2\n      dup2\n      sload\n      dup2\n      lt\n      tag_161\n      jumpi\n      0x00\n      dup1\n      revert\n        /* \"credits2.sol\":9037:9655  function executeCreditTransfer(address student, uint index) external onlyAdmin{... */\n    tag_135:\n        /* \"credits2.sol\":1065:1075  msg.sender */\n      caller\n        /* \"credits2.sol\":1057:1076  isAdmin[msg.sender] */\n      0x00\n      swap1\n      dup2\n      mstore\n        /* \"credits2.sol\":1057:1064  isAdmin */\n      0x01\n        /* \"credits2.sol\":1057:1076  isAdmin[msg.sender] */\n      0x20\n      mstore\n      0x40\n      swap1\n      keccak256\n      sload\n      0xff\n      and\n        /* \"credits2.sol\":1049:1093  require(isAdmin[msg.sender], \"Not an admin\") */\n      tag_363\n      jumpi\n      mload(0x40)\n      mul(0x461bcd, exp(0x02, 0xe5))\n      dup2\n      mstore\n      0x04\n      add\n      tag_166\n      swap1\n      tag_172\n      jump\t// in\n    tag_363:\n      sub(exp(0x02, 0xa0), 0x01)\n        /* \"credits2.sol\":9134:9165  creditTransferRequests[student] */\n      dup3\n      and\n      0x00\n      swap1\n      dup2\n      mstore\n        /* \"credits2.sol\":9134:9156  creditTransferRequests */\n      0x0a\n        /* \"credits2.sol\":9134:9165  creditTransferRequests[student] */\n      0x20\n      mstore\n      0x40\n      swap1\n      keccak256\n        /* \"credits2.sol\":9134:9172  creditTransferRequests[student][index] */\n      dup1\n      sload\n        /* \"credits2.sol\":9166:9171  index */\n      dup3\n      swap1\n        /* \"credits2.sol\":9134:9172  creditTransferRequests[student][index] */\n      dup2\n      lt\n      tag_367\n      jumpi\n      tag_367\n      tag_203\n      jump\t// in\n    tag_367:\n      0x00\n      swap2\n      dup3\n      mstore\n      0x20\n      swap1\n      swap2\n      keccak256\n        /* \"credits2.sol\":9134:9183  creditTransferRequests[student][index].isApproved */\n      0x02\n        /* \"credits2.sol\":9134:9172  creditTransferRequests[student][index] */\n      0x03\n      swap1\n      swap3\n      mul\n      add\n        /* \"credits2.sol\":9134:9183  creditTransferRequests[student][index].isApproved */\n      add\n      sload\n      0xff\n      and\n        /* \"credits2.sol\":9126:9209  require(creditTransferRequests[student][index].isApproved, \"Transfer not approved\") */\n      tag_369\n      jumpi\n      mload(0x40)\n      mul(0x461bcd, exp(0x02, 0xe5))\n      dup2\n      mstore\n        /* \"#utility.yul\":19598:19600   */\n      0x20\n        /* \"credits2.sol\":9126:9209  require(creditTransferRequests[student][index].isApproved, \"Transfer not approved\") */\n      0x04\n      dup3\n      add\n        /* \"#utility.yul\":19580:19601   */\n      mstore\n        /* \"#utility.yul\":19637:19639   */\n      0x15\n        /* \"#utility.yul\":19617:19635   */\n      0x24\n      dup3\n      add\n        /* \"#utility.yul\":19610:19640   */\n      mstore\n        /* \"#utility.yul\":19676:19699   */\n      0x5472616e73666572206e6f7420617070726f7665640000000000000000000000\n        /* \"#utility.yul\":19656:19674   */\n      0x44\n      dup3\n      add\n        /* \"#utility.yul\":19649:19700   */\n      mstore\n        /* \"#utility.yul\":19717:19735   */\n      0x64\n      add\n        /* \"credits2.sol\":9126:9209  require(creditTransferRequests[student][index].isApproved, \"Transfer not approved\") */\n      tag_166\n        /* \"#utility.yul\":19396:19741   */\n      jump\n        /* \"credits2.sol\":9126:9209  require(creditTransferRequests[student][index].isApproved, \"Transfer not approved\") */\n    tag_369:\n      sub(exp(0x02, 0xa0), 0x01)\n        /* \"credits2.sol\":9231:9262  creditTransferRequests[student] */\n      dup3\n      and\n      0x00\n      swap1\n      dup2\n      mstore\n        /* \"credits2.sol\":9231:9253  creditTransferRequests */\n      0x0a\n        /* \"credits2.sol\":9231:9262  creditTransferRequests[student] */\n      0x20\n      mstore\n      0x40\n      swap1\n      keccak256\n        /* \"credits2.sol\":9231:9269  creditTransferRequests[student][index] */\n      dup1\n      sload\n        /* \"credits2.sol\":9263:9268  index */\n      dup3\n      swap1\n        /* \"credits2.sol\":9231:9269  creditTransferRequests[student][index] */\n      dup2\n      lt\n      tag_373\n      jumpi\n      tag_373\n      tag_203\n      jump\t// in\n    tag_373:\n      swap1\n      0x00\n      mstore\n      keccak256(0x00, 0x20)\n      swap1\n      0x03\n      mul\n      add\n        /* \"credits2.sol\":9231:9280  creditTransferRequests[student][index].isExecuted */\n      0x02\n      add\n      0x01\n      swap1\n      sload\n      swap1\n      0x0100\n      exp\n      swap1\n      div\n      0xff\n      and\n        /* \"credits2.sol\":9230:9280  !creditTransferRequests[student][index].isExecuted */\n      iszero\n        /* \"credits2.sol\":9222:9310  require(!creditTransferRequests[student][index].isExecuted, \"Transfer already executed\") */\n      tag_375\n      jumpi\n      mload(0x40)\n      mul(0x461bcd, exp(0x02, 0xe5))\n      dup2\n      mstore\n        /* \"#utility.yul\":19948:19950   */\n      0x20\n        /* \"credits2.sol\":9222:9310  require(!creditTransferRequests[student][index].isExecuted, \"Transfer already executed\") */\n      0x04\n      dup3\n      add\n        /* \"#utility.yul\":19930:19951   */\n      mstore\n        /* \"#utility.yul\":19987:19989   */\n      0x19\n        /* \"#utility.yul\":19967:19985   */\n      0x24\n      dup3\n      add\n        /* \"#utility.yul\":19960:19990   */\n      mstore\n        /* \"#utility.yul\":20026:20053   */\n      0x5472616e7366657220616c726561647920657865637574656400000000000000\n        /* \"#utility.yul\":20006:20024   */\n      0x44\n      dup3\n      add\n        /* \"#utility.yul\":19999:20054   */\n      mstore\n        /* \"#utility.yul\":20071:20089   */\n      0x64\n      add\n        /* \"credits2.sol\":9222:9310  require(!creditTransferRequests[student][index].isExecuted, \"Transfer already executed\") */\n      tag_166\n        /* \"#utility.yul\":19746:20095   */\n      jump\n        /* \"credits2.sol\":9222:9310  require(!creditTransferRequests[student][index].isExecuted, \"Transfer already executed\") */\n    tag_375:\n      sub(exp(0x02, 0xa0), 0x01)\n        /* \"credits2.sol\":9414:9445  creditTransferRequests[student] */\n      dup3\n      and\n      0x00\n      swap1\n      dup2\n      mstore\n        /* \"credits2.sol\":9414:9436  creditTransferRequests */\n      0x0a\n        /* \"credits2.sol\":9414:9445  creditTransferRequests[student] */\n      0x20\n      mstore\n      0x40\n      swap1\n      keccak256\n        /* \"credits2.sol\":9414:9452  creditTransferRequests[student][index] */\n      dup1\n      sload\n        /* \"credits2.sol\":9446:9451  index */\n      dup3\n      swap1\n        /* \"credits2.sol\":9414:9452  creditTransferRequests[student][index] */\n      dup2\n      lt\n      tag_379\n      jumpi\n      tag_379\n      tag_203\n      jump\t// in\n    tag_379:\n      0x00\n      swap2\n      dup3\n      mstore\n      0x20\n      dup1\n      dup4\n      keccak256\n      sub(exp(0x02, 0xa0), 0x01)\n        /* \"credits2.sol\":9323:9346  studentCredits[student] */\n      dup7\n      and\n      dup5\n      mstore\n        /* \"credits2.sol\":9414:9452  creditTransferRequests[student][index] */\n      0x03\n        /* \"credits2.sol\":9323:9346  studentCredits[student] */\n      dup1\n      dup4\n      mstore\n      0x40\n      dup1\n      dup7\n      keccak256\n        /* \"credits2.sol\":9347:9369  creditTransferRequests */\n      0x0a\n        /* \"credits2.sol\":9347:9378  creditTransferRequests[student] */\n      swap1\n      swap5\n      mstore\n      dup6\n      keccak256\n        /* \"credits2.sol\":9347:9385  creditTransferRequests[student][index] */\n      dup1\n      sload\n        /* \"credits2.sol\":9414:9470  creditTransferRequests[student][index].targetInstitution */\n      0x01\n        /* \"credits2.sol\":9414:9452  creditTransferRequests[student][index] */\n      swap3\n      swap1\n      swap6\n      mul\n      swap1\n      swap3\n      add\n        /* \"credits2.sol\":9414:9470  creditTransferRequests[student][index].targetInstitution */\n      add\n      swap4\n        /* \"credits2.sol\":9323:9346  studentCredits[student] */\n      swap2\n      swap3\n        /* \"credits2.sol\":9379:9384  index */\n      dup6\n      swap1\n        /* \"credits2.sol\":9347:9385  creditTransferRequests[student][index] */\n      dup2\n      lt\n      tag_382\n      jumpi\n      tag_382\n      tag_203\n      jump\t// in\n    tag_382:\n      swap1\n      0x00\n      mstore\n      keccak256(0x00, 0x20)\n      swap1\n      0x03\n      mul\n      add\n        /* \"credits2.sol\":9347:9394  creditTransferRequests[student][index].courseId */\n      0x00\n      add\n      sload\n        /* \"credits2.sol\":9323:9395  studentCredits[student][creditTransferRequests[student][index].courseId] */\n      dup2\n      mstore\n      0x20\n      add\n      swap1\n      dup2\n      mstore\n      0x20\n      add\n      0x00\n      keccak256\n        /* \"credits2.sol\":9323:9413  studentCredits[student][creditTransferRequests[student][index].courseId].targetInstitution */\n      0x09\n      add\n        /* \"credits2.sol\":9323:9470  studentCredits[student][creditTransferRequests[student][index].courseId].targetInstitution=creditTransferRequests[student][index].targetInstitution */\n      swap1\n      dup2\n      tag_384\n      swap2\n      swap1\n      tag_385\n      jump\t// in\n    tag_384:\n      pop\n      sub(exp(0x02, 0xa0), 0x01)\n        /* \"credits2.sol\":9491:9522  creditTransferRequests[student] */\n      dup3\n      and\n      0x00\n      swap1\n      dup2\n      mstore\n        /* \"credits2.sol\":9491:9513  creditTransferRequests */\n      0x0a\n        /* \"credits2.sol\":9491:9522  creditTransferRequests[student] */\n      0x20\n      mstore\n      0x40\n      swap1\n      keccak256\n        /* \"credits2.sol\":9491:9529  creditTransferRequests[student][index] */\n      dup1\n      sload\n        /* \"credits2.sol\":9543:9547  true */\n      0x01\n      swap2\n        /* \"credits2.sol\":9491:9522  creditTransferRequests[student] */\n      swap1\n        /* \"credits2.sol\":9523:9528  index */\n      dup4\n      swap1\n        /* \"credits2.sol\":9491:9529  creditTransferRequests[student][index] */\n      dup2\n      lt\n      tag_387\n      jumpi\n      tag_387\n      tag_203\n      jump\t// in\n    tag_387:\n      0x00\n      swap2\n      dup3\n      mstore\n      0x20\n      dup1\n      dup4\n      keccak256\n      0x03\n      swap3\n      dup4\n      mul\n      add\n        /* \"credits2.sol\":9491:9540  creditTransferRequests[student][index].isExecuted */\n      0x02\n      add\n        /* \"credits2.sol\":9491:9547  creditTransferRequests[student][index].isExecuted = true */\n      dup1\n      sload\n      not(0xff00)\n      and\n      0x0100\n      swap6\n      iszero\n      iszero\n      swap6\n      swap1\n      swap6\n      mul\n      swap5\n      swap1\n      swap5\n      or\n      swap1\n      swap4\n      sstore\n      sub(exp(0x02, 0xa0), 0x01)\n        /* \"credits2.sol\":9560:9583  studentCredits[student] */\n      dup6\n      and\n      dup3\n      mstore\n      dup3\n      mstore\n      0x40\n      dup1\n      dup3\n      keccak256\n        /* \"credits2.sol\":9584:9606  creditTransferRequests */\n      0x0a\n        /* \"credits2.sol\":9584:9615  creditTransferRequests[student] */\n      swap1\n      swap4\n      mstore\n      dup2\n      keccak256\n        /* \"credits2.sol\":9584:9622  creditTransferRequests[student][index] */\n      dup1\n      sload\n      0x01\n      swap4\n        /* \"credits2.sol\":9560:9583  studentCredits[student] */\n      swap3\n        /* \"credits2.sol\":9491:9529  creditTransferRequests[student][index] */\n      swap2\n        /* \"credits2.sol\":9584:9615  creditTransferRequests[student] */\n      swap1\n        /* \"credits2.sol\":9616:9621  index */\n      dup6\n      swap1\n        /* \"credits2.sol\":9584:9622  creditTransferRequests[student][index] */\n      dup2\n      lt\n      tag_390\n      jumpi\n      tag_390\n      tag_203\n      jump\t// in\n    tag_390:\n      swap1\n      0x00\n      mstore\n      keccak256(0x00, 0x20)\n      swap1\n      0x03\n      mul\n      add\n        /* \"credits2.sol\":9584:9631  creditTransferRequests[student][index].courseId */\n      0x00\n      add\n      sload\n        /* \"credits2.sol\":9560:9632  studentCredits[student][creditTransferRequests[student][index].courseId] */\n      dup2\n      mstore\n      0x20\n      add\n      swap1\n      dup2\n      mstore\n      0x20\n      add\n      0x00\n      keccak256\n        /* \"credits2.sol\":9560:9646  studentCredits[student][creditTransferRequests[student][index].courseId].isTransferred */\n      0x08\n      add\n      0x00\n        /* \"credits2.sol\":9560:9651  studentCredits[student][creditTransferRequests[student][index].courseId].isTransferred=true */\n      0x0100\n      exp\n      dup2\n      sload\n      dup2\n      0xff\n      mul\n      not\n      and\n      swap1\n      dup4\n      iszero\n      iszero\n      mul\n      or\n      swap1\n      sstore\n      pop\n        /* \"credits2.sol\":9037:9655  function executeCreditTransfer(address student, uint index) external onlyAdmin{... */\n      pop\n      pop\n      jump\t// out\n        /* \"credits2.sol\":3497:3897  function addCourse(uint256 courseId,uint256 credits,string memory courseName)external onlyAdmin{... */\n    tag_139:\n        /* \"credits2.sol\":1065:1075  msg.sender */\n      caller\n        /* \"credits2.sol\":1057:1076  isAdmin[msg.sender] */\n      0x00\n      swap1\n      dup2\n      mstore\n        /* \"credits2.sol\":1057:1064  isAdmin */\n      0x01\n        /* \"credits2.sol\":1057:1076  isAdmin[msg.sender] */\n      0x20\n      mstore\n      0x40\n      swap1\n      keccak256\n      sload\n      0xff\n      and\n        /* \"credits2.sol\":1049:1093  require(isAdmin[msg.sender], \"Not an admin\") */\n      tag_393\n      jumpi\n      mload(0x40)\n      mul(0x461bcd, exp(0x02, 0xe5))\n      dup2\n      mstore\n      0x04\n      add\n      tag_166\n      swap1\n      tag_172\n      jump\t// in\n    tag_393:\n        /* \"credits2.sol\":3612:3634  courseExists[courseId] */\n      0x00\n      dup4\n      dup2\n      mstore\n        /* \"credits2.sol\":3612:3624  courseExists */\n      0x07\n        /* \"credits2.sol\":3612:3634  courseExists[courseId] */\n      0x20\n      mstore\n      0x40\n      swap1\n      keccak256\n      sload\n      0xff\n      and\n        /* \"credits2.sol\":3611:3634  !courseExists[courseId] */\n      iszero\n        /* \"credits2.sol\":3603:3659  require(!courseExists[courseId],\"Course already exists\") */\n      tag_396\n      jumpi\n      mload(0x40)\n      mul(0x461bcd, exp(0x02, 0xe5))\n      dup2\n      mstore\n        /* \"#utility.yul\":21749:21751   */\n      0x20\n        /* \"credits2.sol\":3603:3659  require(!courseExists[courseId],\"Course already exists\") */\n      0x04\n      dup3\n      add\n        /* \"#utility.yul\":21731:21752   */\n      mstore\n        /* \"#utility.yul\":21788:21790   */\n      0x15\n        /* \"#utility.yul\":21768:21786   */\n      0x24\n      dup3\n      add\n        /* \"#utility.yul\":21761:21791   */\n      mstore\n        /* \"#utility.yul\":21827:21850   */\n      0x436f7572736520616c7265616479206578697374730000000000000000000000\n        /* \"#utility.yul\":21807:21825   */\n      0x44\n      dup3\n      add\n        /* \"#utility.yul\":21800:21851   */\n      mstore\n        /* \"#utility.yul\":21868:21886   */\n      0x64\n      add\n        /* \"credits2.sol\":3603:3659  require(!courseExists[courseId],\"Course already exists\") */\n      tag_166\n        /* \"#utility.yul\":21547:21892   */\n      jump\n        /* \"credits2.sol\":3603:3659  require(!courseExists[courseId],\"Course already exists\") */\n    tag_396:\n        /* \"credits2.sol\":3670:3692  courseExists[courseId] */\n      0x00\n      dup4\n      dup2\n      mstore\n        /* \"credits2.sol\":3670:3682  courseExists */\n      0x07\n        /* \"credits2.sol\":3670:3692  courseExists[courseId] */\n      0x20\n      swap1\n      dup2\n      mstore\n      0x40\n      dup1\n      dup4\n      keccak256\n        /* \"credits2.sol\":3670:3697  courseExists[courseId]=true */\n      dup1\n      sload\n      not(0xff)\n      and\n        /* \"credits2.sol\":3693:3697  true */\n      0x01\n        /* \"credits2.sol\":3670:3697  courseExists[courseId]=true */\n      swap1\n      dup2\n      or\n      swap1\n      swap2\n      sstore\n        /* \"credits2.sol\":3708:3719  courseLists */\n      0x08\n        /* \"credits2.sol\":3708:3734  courseLists.push(courseId) */\n      dup1\n      sload\n      dup1\n      dup4\n      add\n      swap1\n      swap2\n      sstore\n      0xf3f7a9fe364faab93b216da50a3214154f22a0a2b415b23a84c8169e8b636ee3\n      add\n      dup8\n      swap1\n      sstore\n        /* \"credits2.sol\":3767:3889  CourserInfo(... */\n      dup2\n      mload\n      0x80\n      dup2\n      add\n      dup4\n      mstore\n      dup8\n      dup2\n      mstore\n      dup1\n      dup5\n      add\n      dup7\n      dup2\n      mstore\n      dup2\n      dup5\n      add\n      dup9\n      swap1\n      mstore\n        /* \"credits2.sol\":3863:3878  block.timestamp */\n      timestamp\n        /* \"credits2.sol\":3767:3889  CourserInfo(... */\n      0x60\n      dup4\n      add\n      mstore\n        /* \"credits2.sol\":3745:3766  courserInfo[courseId] */\n      dup9\n      dup7\n      mstore\n        /* \"credits2.sol\":3745:3756  courserInfo */\n      0x02\n        /* \"credits2.sol\":3745:3766  courserInfo[courseId] */\n      swap1\n      swap5\n      mstore\n      swap2\n      swap1\n      swap4\n      keccak256\n        /* \"credits2.sol\":3745:3889  courserInfo[courseId]=CourserInfo(... */\n      dup2\n      mload\n      dup2\n      sstore\n      swap2\n      mload\n        /* \"credits2.sol\":3767:3889  CourserInfo(... */\n      swap1\n      swap3\n        /* \"credits2.sol\":3745:3889  courserInfo[courseId]=CourserInfo(... */\n      dup3\n      add\n      swap1\n      tag_400\n      swap1\n      dup3\n      tag_251\n      jump\t// in\n    tag_400:\n      pop\n      0x40\n      dup3\n      add\n      mload\n      0x02\n      dup3\n      add\n      sstore\n      0x60\n      swap1\n      swap2\n      add\n      mload\n      0x03\n      swap1\n      swap2\n      add\n      sstore\n      pop\n      pop\n      pop\n        /* \"credits2.sol\":3497:3897  function addCourse(uint256 courseId,uint256 credits,string memory courseName)external onlyAdmin{... */\n      jump\t// out\n        /* \"credits2.sol\":3105:3133  uint256[]public  courseLists */\n    tag_147:\n      0x08\n      dup2\n      dup2\n      sload\n      dup2\n      lt\n      tag_401\n      jumpi\n      0x00\n      dup1\n      revert\n    tag_401:\n      0x00\n      swap2\n      dup3\n      mstore\n      0x20\n      swap1\n      swap2\n      keccak256\n      add\n      sload\n      swap1\n      pop\n      dup2\n      jump\t// out\n        /* \"credits2.sol\":2683:2748  mapping(address => mapping(uint => Credit)) public studentCredits */\n    tag_155:\n      0x03\n      0x20\n      dup2\n      dup2\n      mstore\n      0x00\n      swap4\n      dup5\n      mstore\n      0x40\n      dup1\n      dup6\n      keccak256\n      swap1\n      swap2\n      mstore\n      swap2\n      dup4\n      mstore\n      swap2\n      keccak256\n      dup1\n      sload\n      0x01\n      dup3\n      add\n      sload\n      0x02\n      dup4\n      add\n      sload\n      swap4\n      dup4\n      add\n      sload\n      0x04\n      dup5\n      add\n      sload\n      0x05\n      dup6\n      add\n      sload\n      0x06\n      dup7\n      add\n      sload\n      0x07\n      dup8\n      add\n      dup1\n      sload\n      swap7\n      swap9\n      swap6\n      swap8\n      swap6\n      swap7\n      swap5\n      swap6\n      0xff\n      swap5\n      dup6\n      and\n      swap6\n      swap4\n      swap5\n      swap1\n      swap3\n      and\n      swap3\n      tag_403\n      swap1\n      tag_206\n      jump\t// in\n    tag_403:\n      dup1\n      0x1f\n      add\n      0x20\n      dup1\n      swap2\n      div\n      mul\n      0x20\n      add\n      mload(0x40)\n      swap1\n      dup2\n      add\n      0x40\n      mstore\n      dup1\n      swap3\n      swap2\n      swap1\n      dup2\n      dup2\n      mstore\n      0x20\n      add\n      dup3\n      dup1\n      sload\n      tag_404\n      swap1\n      tag_206\n      jump\t// in\n    tag_404:\n      dup1\n      iszero\n      tag_405\n      jumpi\n      dup1\n      0x1f\n      lt\n      tag_406\n      jumpi\n      0x0100\n      dup1\n      dup4\n      sload\n      div\n      mul\n      dup4\n      mstore\n      swap2\n      0x20\n      add\n      swap2\n      jump(tag_405)\n    tag_406:\n      dup3\n      add\n      swap2\n      swap1\n      0x00\n      mstore\n      keccak256(0x00, 0x20)\n      swap1\n    tag_407:\n      dup2\n      sload\n      dup2\n      mstore\n      swap1\n      0x01\n      add\n      swap1\n      0x20\n      add\n      dup1\n      dup4\n      gt\n      tag_407\n      jumpi\n      dup3\n      swap1\n      sub\n      0x1f\n      and\n      dup3\n      add\n      swap2\n    tag_405:\n      pop\n      pop\n      pop\n      0x08\n      dup5\n      add\n      sload\n      0x09\n      dup6\n      add\n      dup1\n      sload\n      swap5\n      swap6\n      0xff\n      swap1\n      swap3\n      and\n      swap5\n      swap2\n      swap4\n      pop\n      swap2\n      pop\n      tag_408\n      swap1\n      tag_206\n      jump\t// in\n    tag_408:\n      dup1\n      0x1f\n      add\n      0x20\n      dup1\n      swap2\n      div\n      mul\n      0x20\n      add\n      mload(0x40)\n      swap1\n      dup2\n      add\n      0x40\n      mstore\n      dup1\n      swap3\n      swap2\n      swap1\n      dup2\n      dup2\n      mstore\n      0x20\n      add\n      dup3\n      dup1\n      sload\n      tag_409\n      swap1\n      tag_206\n      jump\t// in\n    tag_409:\n      dup1\n      iszero\n      tag_410\n      jumpi\n      dup1\n      0x1f\n      lt\n      tag_411\n      jumpi\n      0x0100\n      dup1\n      dup4\n      sload\n      div\n      mul\n      dup4\n      mstore\n      swap2\n      0x20\n      add\n      swap2\n      jump(tag_410)\n    tag_411:\n      dup3\n      add\n      swap2\n      swap1\n      0x00\n      mstore\n      keccak256(0x00, 0x20)\n      swap1\n    tag_412:\n      dup2\n      sload\n      dup2\n      mstore\n      swap1\n      0x01\n      add\n      swap1\n      0x20\n      add\n      dup1\n      dup4\n      gt\n      tag_412\n      jumpi\n      dup3\n      swap1\n      sub\n      0x1f\n      and\n      dup3\n      add\n      swap2\n    tag_410:\n      pop\n      pop\n      pop\n      pop\n      pop\n      swap1\n      pop\n      dup11\n      jump\t// out\n        /* \"credits2.sol\":1277:1491  function transferOwnership(address newOwner) public virtual onlyOwner {... */\n    tag_160:\n        /* \"credits2.sol\":957:963  _owner */\n      and(sub(exp(0x02, 0xa0), 0x01), sload(0x00))\n        /* \"credits2.sol\":967:977  msg.sender */\n      caller\n        /* \"credits2.sol\":957:977  _owner == msg.sender */\n      eq\n        /* \"credits2.sol\":949:988  require(_owner == msg.sender, \"!owner\") */\n      tag_414\n      jumpi\n      mload(0x40)\n      mul(0x461bcd, exp(0x02, 0xe5))\n      dup2\n      mstore\n      0x04\n      add\n      tag_166\n      swap1\n      tag_167\n      jump\t// in\n    tag_414:\n      sub(exp(0x02, 0xa0), 0x01)\n        /* \"credits2.sol\":1366:1388  newOwner != address(0) */\n      dup2\n      and\n        /* \"credits2.sol\":1358:1401  require(newOwner != address(0), \"new is 0\") */\n      tag_417\n      jumpi\n      mload(0x40)\n      mul(0x461bcd, exp(0x02, 0xe5))\n      dup2\n      mstore\n        /* \"#utility.yul\":22099:22101   */\n      0x20\n        /* \"credits2.sol\":1358:1401  require(newOwner != address(0), \"new is 0\") */\n      0x04\n      dup3\n      add\n        /* \"#utility.yul\":22081:22102   */\n      mstore\n        /* \"#utility.yul\":22138:22139   */\n      0x08\n        /* \"#utility.yul\":22118:22136   */\n      0x24\n      dup3\n      add\n        /* \"#utility.yul\":22111:22140   */\n      mstore\n        /* \"#utility.yul\":22176:22186   */\n      0x6e65772069732030000000000000000000000000000000000000000000000000\n        /* \"#utility.yul\":22156:22174   */\n      0x44\n      dup3\n      add\n        /* \"#utility.yul\":22149:22187   */\n      mstore\n        /* \"#utility.yul\":22204:22222   */\n      0x64\n      add\n        /* \"credits2.sol\":1358:1401  require(newOwner != address(0), \"new is 0\") */\n      tag_166\n        /* \"#utility.yul\":21897:22228   */\n      jump\n        /* \"credits2.sol\":1358:1401  require(newOwner != address(0), \"new is 0\") */\n    tag_417:\n        /* \"credits2.sol\":1438:1444  _owner */\n      0x00\n      dup1\n      sload\n        /* \"credits2.sol\":1417:1455  OwnershipTransferred(_owner, newOwner) */\n      mload(0x40)\n      sub(exp(0x02, 0xa0), 0x01)\n      dup1\n      dup6\n      and\n      swap4\n        /* \"credits2.sol\":1438:1444  _owner */\n      swap3\n      and\n      swap2\n        /* \"credits2.sol\":1417:1455  OwnershipTransferred(_owner, newOwner) */\n      0x8be0079c531659141344cd1fd0a4f28419497f9722a3daafe3b4186f6b6457e0\n      swap2\n      log3\n        /* \"credits2.sol\":1466:1472  _owner */\n      0x00\n        /* \"credits2.sol\":1466:1483  _owner = newOwner */\n      dup1\n      sload\n      not(0xffffffffffffffffffffffffffffffffffffffff)\n      and\n      sub(exp(0x02, 0xa0), 0x01)\n      swap3\n      swap1\n      swap3\n      and\n      swap2\n      swap1\n      swap2\n      or\n      swap1\n      sstore\n        /* \"credits2.sol\":1277:1491  function transferOwnership(address newOwner) public virtual onlyOwner {... */\n      jump\t// out\n    tag_197:\n      mload(0x40)\n      dup1\n      0x0140\n      add\n      0x40\n      mstore\n      dup1\n      0x00\n      dup2\n      mstore\n      0x20\n      add\n      0x00\n      dup2\n      mstore\n      0x20\n      add\n      0x00\n      dup2\n      mstore\n      0x20\n      add\n      0x00\n      dup2\n      mstore\n      0x20\n      add\n      iszero(iszero(0x00))\n      dup2\n      mstore\n      0x20\n      add\n      0x00\n      dup2\n      mstore\n      0x20\n      add\n      iszero(iszero(0x00))\n      dup2\n      mstore\n      0x20\n      add\n      0x60\n      dup2\n      mstore\n      0x20\n      add\n      iszero(iszero(0x00))\n      dup2\n      mstore\n      0x20\n      add\n      0x60\n      dup2\n      mstore\n      pop\n      swap1\n      jump\t// out\n        /* \"#utility.yul\":14:210   */\n    tag_420:\n        /* \"#utility.yul\":82:102   */\n      dup1\n      calldataload\n      sub(exp(0x02, 0xa0), 0x01)\n        /* \"#utility.yul\":131:185   */\n      dup2\n      and\n        /* \"#utility.yul\":121:186   */\n      dup2\n      eq\n        /* \"#utility.yul\":111:204   */\n      tag_430\n      jumpi\n        /* \"#utility.yul\":200:201   */\n      0x00\n        /* \"#utility.yul\":197:198   */\n      dup1\n        /* \"#utility.yul\":190:202   */\n      revert\n        /* \"#utility.yul\":111:204   */\n    tag_430:\n        /* \"#utility.yul\":14:210   */\n      swap2\n      swap1\n      pop\n      jump\t// out\n        /* \"#utility.yul\":215:469   */\n    tag_42:\n        /* \"#utility.yul\":283:289   */\n      0x00\n        /* \"#utility.yul\":291:297   */\n      dup1\n        /* \"#utility.yul\":344:346   */\n      0x40\n        /* \"#utility.yul\":332:341   */\n      dup4\n        /* \"#utility.yul\":323:330   */\n      dup6\n        /* \"#utility.yul\":319:342   */\n      sub\n        /* \"#utility.yul\":315:347   */\n      slt\n        /* \"#utility.yul\":312:364   */\n      iszero\n      tag_432\n      jumpi\n        /* \"#utility.yul\":360:361   */\n      0x00\n        /* \"#utility.yul\":357:358   */\n      dup1\n        /* \"#utility.yul\":350:362   */\n      revert\n        /* \"#utility.yul\":312:364   */\n    tag_432:\n        /* \"#utility.yul\":383:412   */\n      tag_433\n        /* \"#utility.yul\":402:411   */\n      dup4\n        /* \"#utility.yul\":383:412   */\n      tag_420\n      jump\t// in\n    tag_433:\n        /* \"#utility.yul\":373:412   */\n      swap5\n        /* \"#utility.yul\":459:461   */\n      0x20\n        /* \"#utility.yul\":444:462   */\n      swap4\n      swap1\n      swap4\n      add\n        /* \"#utility.yul\":431:463   */\n      calldataload\n      swap4\n      pop\n      pop\n      pop\n        /* \"#utility.yul\":215:469   */\n      jump\t// out\n        /* \"#utility.yul\":944:1130   */\n    tag_53:\n        /* \"#utility.yul\":1003:1009   */\n      0x00\n        /* \"#utility.yul\":1056:1058   */\n      0x20\n        /* \"#utility.yul\":1044:1053   */\n      dup3\n        /* \"#utility.yul\":1035:1042   */\n      dup5\n        /* \"#utility.yul\":1031:1054   */\n      sub\n        /* \"#utility.yul\":1027:1059   */\n      slt\n        /* \"#utility.yul\":1024:1076   */\n      iszero\n      tag_438\n      jumpi\n        /* \"#utility.yul\":1072:1073   */\n      0x00\n        /* \"#utility.yul\":1069:1070   */\n      dup1\n        /* \"#utility.yul\":1062:1074   */\n      revert\n        /* \"#utility.yul\":1024:1076   */\n    tag_438:\n        /* \"#utility.yul\":1095:1124   */\n      tag_439\n        /* \"#utility.yul\":1114:1123   */\n      dup3\n        /* \"#utility.yul\":1095:1124   */\n      tag_420\n      jump\t// in\n    tag_439:\n        /* \"#utility.yul\":1085:1124   */\n      swap4\n        /* \"#utility.yul\":944:1130   */\n      swap3\n      pop\n      pop\n      pop\n      jump\t// out\n        /* \"#utility.yul\":1135:1558   */\n    tag_422:\n        /* \"#utility.yul\":1177:1180   */\n      0x00\n        /* \"#utility.yul\":1215:1220   */\n      dup2\n        /* \"#utility.yul\":1209:1221   */\n      mload\n        /* \"#utility.yul\":1242:1248   */\n      dup1\n        /* \"#utility.yul\":1237:1240   */\n      dup5\n        /* \"#utility.yul\":1230:1249   */\n      mstore\n        /* \"#utility.yul\":1267:1268   */\n      0x00\n        /* \"#utility.yul\":1277:1439   */\n    tag_441:\n        /* \"#utility.yul\":1291:1297   */\n      dup2\n        /* \"#utility.yul\":1288:1289   */\n      dup2\n        /* \"#utility.yul\":1285:1298   */\n      lt\n        /* \"#utility.yul\":1277:1439   */\n      iszero\n      tag_443\n      jumpi\n        /* \"#utility.yul\":1353:1357   */\n      0x20\n        /* \"#utility.yul\":1409:1422   */\n      dup2\n      dup6\n      add\n        /* \"#utility.yul\":1405:1427   */\n      dup2\n      add\n        /* \"#utility.yul\":1399:1428   */\n      mload\n        /* \"#utility.yul\":1381:1392   */\n      dup7\n      dup4\n      add\n        /* \"#utility.yul\":1377:1397   */\n      dup3\n      add\n        /* \"#utility.yul\":1370:1429   */\n      mstore\n        /* \"#utility.yul\":1306:1318   */\n      add\n        /* \"#utility.yul\":1277:1439   */\n      jump(tag_441)\n    tag_443:\n        /* \"#utility.yul\":1281:1284   */\n      pop\n        /* \"#utility.yul\":1484:1485   */\n      0x00\n        /* \"#utility.yul\":1477:1481   */\n      0x20\n        /* \"#utility.yul\":1468:1474   */\n      dup3\n        /* \"#utility.yul\":1463:1466   */\n      dup7\n        /* \"#utility.yul\":1459:1475   */\n      add\n        /* \"#utility.yul\":1455:1482   */\n      add\n        /* \"#utility.yul\":1448:1486   */\n      mstore\n        /* \"#utility.yul\":1547:1551   */\n      0x20\n        /* \"#utility.yul\":1540:1542   */\n      0x1f\n        /* \"#utility.yul\":1536:1543   */\n      not\n        /* \"#utility.yul\":1531:1533   */\n      0x1f\n        /* \"#utility.yul\":1523:1529   */\n      dup4\n        /* \"#utility.yul\":1519:1534   */\n      add\n        /* \"#utility.yul\":1515:1544   */\n      and\n        /* \"#utility.yul\":1510:1513   */\n      dup6\n        /* \"#utility.yul\":1506:1545   */\n      add\n        /* \"#utility.yul\":1502:1552   */\n      add\n        /* \"#utility.yul\":1495:1552   */\n      swap2\n      pop\n      pop\n        /* \"#utility.yul\":1135:1558   */\n      swap3\n      swap2\n      pop\n      pop\n      jump\t// out\n        /* \"#utility.yul\":1563:3559   */\n    tag_68:\n        /* \"#utility.yul\":1780:1782   */\n      0x20\n        /* \"#utility.yul\":1832:1853   */\n      dup1\n      dup3\n      mstore\n        /* \"#utility.yul\":1902:1915   */\n      dup3\n      mload\n        /* \"#utility.yul\":1805:1823   */\n      dup3\n      dup3\n      add\n        /* \"#utility.yul\":1924:1946   */\n      dup2\n      swap1\n      mstore\n        /* \"#utility.yul\":1751:1755   */\n      0x00\n      swap2\n        /* \"#utility.yul\":1780:1782   */\n      swap1\n        /* \"#utility.yul\":1965:1967   */\n      0x40\n      swap1\n        /* \"#utility.yul\":1983:2001   */\n      dup2\n      dup6\n      add\n      swap1\n        /* \"#utility.yul\":2043:2058   */\n      dup1\n      dup5\n      mul\n        /* \"#utility.yul\":2028:2059   */\n      dup7\n      add\n        /* \"#utility.yul\":2024:2064   */\n      dup4\n      add\n        /* \"#utility.yul\":2087:2102   */\n      dup8\n      dup6\n      add\n        /* \"#utility.yul\":1751:1755   */\n      dup7\n        /* \"#utility.yul\":2130:3530   */\n    tag_445:\n        /* \"#utility.yul\":2144:2150   */\n      dup4\n        /* \"#utility.yul\":2141:2142   */\n      dup2\n        /* \"#utility.yul\":2138:2151   */\n      lt\n        /* \"#utility.yul\":2130:3530   */\n      iszero\n      tag_447\n      jumpi\n      not(0x3f)\n        /* \"#utility.yul\":2209:2231   */\n      dup10\n      dup5\n      sub\n        /* \"#utility.yul\":2205:2241   */\n      add\n        /* \"#utility.yul\":2193:2242   */\n      dup6\n      mstore\n        /* \"#utility.yul\":2265:2278   */\n      dup2\n      mload\n        /* \"#utility.yul\":2335:2344   */\n      dup1\n      mload\n        /* \"#utility.yul\":2320:2345   */\n      dup5\n      mstore\n        /* \"#utility.yul\":2388:2399   */\n      dup8\n      dup2\n      add\n        /* \"#utility.yul\":2382:2400   */\n      mload\n        /* \"#utility.yul\":2365:2380   */\n      dup9\n      dup6\n      add\n        /* \"#utility.yul\":2358:2401   */\n      mstore\n        /* \"#utility.yul\":2444:2455   */\n      dup7\n      dup2\n      add\n        /* \"#utility.yul\":2438:2456   */\n      mload\n        /* \"#utility.yul\":2421:2436   */\n      dup8\n      dup6\n      add\n        /* \"#utility.yul\":2414:2457   */\n      mstore\n        /* \"#utility.yul\":2480:2484   */\n      0x60\n        /* \"#utility.yul\":2527:2538   */\n      dup1\n      dup3\n      add\n        /* \"#utility.yul\":2521:2539   */\n      mload\n        /* \"#utility.yul\":2504:2519   */\n      swap1\n      dup6\n      add\n        /* \"#utility.yul\":2497:2540   */\n      mstore\n        /* \"#utility.yul\":2563:2567   */\n      0x80\n        /* \"#utility.yul\":2606:2617   */\n      dup1\n      dup3\n      add\n        /* \"#utility.yul\":2600:2618   */\n      mload\n        /* \"#utility.yul\":726:739   */\n      iszero\n        /* \"#utility.yul\":719:740   */\n      iszero\n        /* \"#utility.yul\":2661:2676   */\n      swap1\n      dup6\n      add\n        /* \"#utility.yul\":707:741   */\n      mstore\n        /* \"#utility.yul\":2700:2704   */\n      0xa0\n        /* \"#utility.yul\":2747:2758   */\n      dup1\n      dup3\n      add\n        /* \"#utility.yul\":2741:2759   */\n      mload\n        /* \"#utility.yul\":2724:2739   */\n      swap1\n      dup6\n      add\n        /* \"#utility.yul\":2717:2760   */\n      mstore\n        /* \"#utility.yul\":2783:2787   */\n      0xc0\n        /* \"#utility.yul\":2828:2839   */\n      dup1\n      dup3\n      add\n        /* \"#utility.yul\":2822:2840   */\n      mload\n        /* \"#utility.yul\":726:739   */\n      iszero\n        /* \"#utility.yul\":719:740   */\n      iszero\n        /* \"#utility.yul\":2885:2900   */\n      swap1\n      dup6\n      add\n        /* \"#utility.yul\":707:741   */\n      mstore\n        /* \"#utility.yul\":2924:2928   */\n      0xe0\n        /* \"#utility.yul\":2969:2980   */\n      dup1\n      dup3\n      add\n        /* \"#utility.yul\":2963:2981   */\n      mload\n        /* \"#utility.yul\":2301:2307   */\n      0x0140\n        /* \"#utility.yul\":3001:3016   */\n      dup3\n      dup8\n      add\n        /* \"#utility.yul\":2994:3021   */\n      dup2\n      swap1\n      mstore\n        /* \"#utility.yul\":2301:2307   */\n      swap2\n        /* \"#utility.yul\":2924:2928   */\n      swap1\n        /* \"#utility.yul\":3048:3098   */\n      tag_450\n        /* \"#utility.yul\":3082:3097   */\n      dup4\n      dup9\n      add\n        /* \"#utility.yul\":2963:2981   */\n      dup3\n        /* \"#utility.yul\":3048:3098   */\n      tag_422\n      jump\t// in\n    tag_450:\n        /* \"#utility.yul\":3034:3098   */\n      swap3\n      pop\n      pop\n      pop\n        /* \"#utility.yul\":3122:3128   */\n      0x0100\n        /* \"#utility.yul\":3177:3180   */\n      dup1\n        /* \"#utility.yul\":3173:3175   */\n      dup4\n        /* \"#utility.yul\":3169:3181   */\n      add\n        /* \"#utility.yul\":3163:3182   */\n      mload\n        /* \"#utility.yul\":3195:3244   */\n      tag_451\n        /* \"#utility.yul\":3239:3242   */\n      dup3\n        /* \"#utility.yul\":3231:3237   */\n      dup9\n        /* \"#utility.yul\":3227:3243   */\n      add\n        /* \"#utility.yul\":3211:3225   */\n      dup3\n        /* \"#utility.yul\":726:739   */\n      iszero\n        /* \"#utility.yul\":719:740   */\n      iszero\n        /* \"#utility.yul\":707:741   */\n      swap1\n      mstore\n        /* \"#utility.yul\":656:747   */\n      jump\n        /* \"#utility.yul\":3195:3244   */\n    tag_451:\n      pop\n      pop\n        /* \"#utility.yul\":3268:3274   */\n      0x0120\n        /* \"#utility.yul\":3323:3326   */\n      dup1\n        /* \"#utility.yul\":3319:3321   */\n      dup4\n        /* \"#utility.yul\":3315:3327   */\n      add\n        /* \"#utility.yul\":3309:3328   */\n      mload\n        /* \"#utility.yul\":3287:3328   */\n      swap3\n      pop\n        /* \"#utility.yul\":3378:3384   */\n      dup6\n        /* \"#utility.yul\":3370:3376   */\n      dup3\n        /* \"#utility.yul\":3366:3385   */\n      sub\n        /* \"#utility.yul\":3360:3363   */\n      dup2\n        /* \"#utility.yul\":3352:3358   */\n      dup8\n        /* \"#utility.yul\":3348:3364   */\n      add\n        /* \"#utility.yul\":3341:3386   */\n      mstore\n      pop\n        /* \"#utility.yul\":3409:3450   */\n      tag_452\n        /* \"#utility.yul\":3443:3449   */\n      dup2\n        /* \"#utility.yul\":3427:3441   */\n      dup4\n        /* \"#utility.yul\":3409:3450   */\n      tag_422\n      jump\t// in\n    tag_452:\n        /* \"#utility.yul\":3508:3520   */\n      swap7\n      dup10\n      add\n      swap7\n        /* \"#utility.yul\":3399:3450   */\n      swap5\n      pop\n      pop\n      pop\n        /* \"#utility.yul\":3473:3488   */\n      swap1\n      dup7\n      add\n      swap1\n        /* \"#utility.yul\":2166:2167   */\n      0x01\n        /* \"#utility.yul\":2159:2168   */\n      add\n        /* \"#utility.yul\":2130:3530   */\n      jump(tag_445)\n    tag_447:\n      pop\n        /* \"#utility.yul\":3547:3553   */\n      swap1\n      swap9\n        /* \"#utility.yul\":1563:3559   */\n      swap8\n      pop\n      pop\n      pop\n      pop\n      pop\n      pop\n      pop\n      pop\n      jump\t// out\n        /* \"#utility.yul\":3564:4019   */\n    tag_73:\n        /* \"#utility.yul\":3785:3791   */\n      dup5\n        /* \"#utility.yul\":3774:3783   */\n      dup2\n        /* \"#utility.yul\":3767:3792   */\n      mstore\n        /* \"#utility.yul\":3828:3831   */\n      0x80\n        /* \"#utility.yul\":3823:3825   */\n      0x20\n        /* \"#utility.yul\":3812:3821   */\n      dup3\n        /* \"#utility.yul\":3808:3826   */\n      add\n        /* \"#utility.yul\":3801:3832   */\n      mstore\n        /* \"#utility.yul\":3748:3752   */\n      0x00\n        /* \"#utility.yul\":3849:3895   */\n      tag_454\n        /* \"#utility.yul\":3890:3893   */\n      0x80\n        /* \"#utility.yul\":3879:3888   */\n      dup4\n        /* \"#utility.yul\":3875:3894   */\n      add\n        /* \"#utility.yul\":3867:3873   */\n      dup7\n        /* \"#utility.yul\":3849:3895   */\n      tag_422\n      jump\t// in\n    tag_454:\n        /* \"#utility.yul\":3938:3952   */\n      swap4\n      iszero\n        /* \"#utility.yul\":3931:3953   */\n      iszero\n        /* \"#utility.yul\":3926:3928   */\n      0x40\n        /* \"#utility.yul\":3911:3929   */\n      dup4\n      add\n        /* \"#utility.yul\":3904:3954   */\n      mstore\n      pop\n        /* \"#utility.yul\":3997:4011   */\n      swap1\n      iszero\n        /* \"#utility.yul\":3990:4012   */\n      iszero\n        /* \"#utility.yul\":3985:3987   */\n      0x60\n        /* \"#utility.yul\":3970:3988   */\n      swap1\n      swap2\n      add\n        /* \"#utility.yul\":3963:4013   */\n      mstore\n        /* \"#utility.yul\":3841:3895   */\n      swap3\n        /* \"#utility.yul\":3564:4019   */\n      swap2\n      pop\n      pop\n      jump\t// out\n        /* \"#utility.yul\":4024:4204   */\n    tag_79:\n        /* \"#utility.yul\":4083:4089   */\n      0x00\n        /* \"#utility.yul\":4136:4138   */\n      0x20\n        /* \"#utility.yul\":4124:4133   */\n      dup3\n        /* \"#utility.yul\":4115:4122   */\n      dup5\n        /* \"#utility.yul\":4111:4134   */\n      sub\n        /* \"#utility.yul\":4107:4139   */\n      slt\n        /* \"#utility.yul\":4104:4156   */\n      iszero\n      tag_456\n      jumpi\n        /* \"#utility.yul\":4152:4153   */\n      0x00\n        /* \"#utility.yul\":4149:4150   */\n      dup1\n        /* \"#utility.yul\":4142:4154   */\n      revert\n        /* \"#utility.yul\":4104:4156   */\n    tag_456:\n      pop\n        /* \"#utility.yul\":4175:4198   */\n      calldataload\n      swap2\n        /* \"#utility.yul\":4024:4204   */\n      swap1\n      pop\n      jump\t// out\n        /* \"#utility.yul\":4209:4393   */\n    tag_193:\n      mul(0x4e487b71, exp(0x02, 0xe0))\n        /* \"#utility.yul\":4258:4259   */\n      0x00\n        /* \"#utility.yul\":4251:4339   */\n      mstore\n        /* \"#utility.yul\":4358:4362   */\n      0x41\n        /* \"#utility.yul\":4355:4356   */\n      0x04\n        /* \"#utility.yul\":4348:4363   */\n      mstore\n        /* \"#utility.yul\":4382:4386   */\n      0x24\n        /* \"#utility.yul\":4379:4380   */\n      0x00\n        /* \"#utility.yul\":4372:4387   */\n      revert\n        /* \"#utility.yul\":4398:5117   */\n    tag_423:\n        /* \"#utility.yul\":4441:4446   */\n      0x00\n        /* \"#utility.yul\":4494:4497   */\n      dup3\n        /* \"#utility.yul\":4487:4491   */\n      0x1f\n        /* \"#utility.yul\":4479:4485   */\n      dup4\n        /* \"#utility.yul\":4475:4492   */\n      add\n        /* \"#utility.yul\":4471:4498   */\n      slt\n        /* \"#utility.yul\":4461:4516   */\n      tag_459\n      jumpi\n        /* \"#utility.yul\":4512:4513   */\n      0x00\n        /* \"#utility.yul\":4509:4510   */\n      dup1\n        /* \"#utility.yul\":4502:4514   */\n      revert\n        /* \"#utility.yul\":4461:4516   */\n    tag_459:\n        /* \"#utility.yul\":4548:4554   */\n      dup2\n        /* \"#utility.yul\":4535:4555   */\n      calldataload\n        /* \"#utility.yul\":4574:4592   */\n      0xffffffffffffffff\n        /* \"#utility.yul\":4611:4613   */\n      dup1\n        /* \"#utility.yul\":4607:4609   */\n      dup3\n        /* \"#utility.yul\":4604:4614   */\n      gt\n        /* \"#utility.yul\":4601:4637   */\n      iszero\n      tag_461\n      jumpi\n        /* \"#utility.yul\":4617:4635   */\n      tag_461\n      tag_193\n      jump\t// in\n    tag_461:\n        /* \"#utility.yul\":4692:4694   */\n      0x40\n        /* \"#utility.yul\":4686:4695   */\n      mload\n        /* \"#utility.yul\":4660:4662   */\n      0x1f\n        /* \"#utility.yul\":4746:4759   */\n      dup4\n      add\n      not(0x1f)\n        /* \"#utility.yul\":4742:4764   */\n      swap1\n      dup2\n      and\n        /* \"#utility.yul\":4766:4768   */\n      0x3f\n        /* \"#utility.yul\":4738:4769   */\n      add\n        /* \"#utility.yul\":4734:4774   */\n      and\n        /* \"#utility.yul\":4722:4775   */\n      dup2\n      add\n      swap1\n        /* \"#utility.yul\":4790:4808   */\n      dup3\n      dup3\n      gt\n        /* \"#utility.yul\":4810:4832   */\n      dup2\n      dup4\n      lt\n        /* \"#utility.yul\":4787:4833   */\n      or\n        /* \"#utility.yul\":4784:4856   */\n      iszero\n      tag_463\n      jumpi\n        /* \"#utility.yul\":4836:4854   */\n      tag_463\n      tag_193\n      jump\t// in\n    tag_463:\n        /* \"#utility.yul\":4876:4886   */\n      dup2\n        /* \"#utility.yul\":4872:4874   */\n      0x40\n        /* \"#utility.yul\":4865:4887   */\n      mstore\n        /* \"#utility.yul\":4911:4913   */\n      dup4\n        /* \"#utility.yul\":4903:4909   */\n      dup2\n        /* \"#utility.yul\":4896:4914   */\n      mstore\n        /* \"#utility.yul\":4957:4960   */\n      dup7\n        /* \"#utility.yul\":4950:4954   */\n      0x20\n        /* \"#utility.yul\":4945:4947   */\n      dup6\n        /* \"#utility.yul\":4937:4943   */\n      dup9\n        /* \"#utility.yul\":4933:4948   */\n      add\n        /* \"#utility.yul\":4929:4955   */\n      add\n        /* \"#utility.yul\":4926:4961   */\n      gt\n        /* \"#utility.yul\":4923:4978   */\n      iszero\n      tag_464\n      jumpi\n        /* \"#utility.yul\":4974:4975   */\n      0x00\n        /* \"#utility.yul\":4971:4972   */\n      dup1\n        /* \"#utility.yul\":4964:4976   */\n      revert\n        /* \"#utility.yul\":4923:4978   */\n    tag_464:\n        /* \"#utility.yul\":5038:5040   */\n      dup4\n        /* \"#utility.yul\":5031:5035   */\n      0x20\n        /* \"#utility.yul\":5023:5029   */\n      dup8\n        /* \"#utility.yul\":5019:5036   */\n      add\n        /* \"#utility.yul\":5012:5016   */\n      0x20\n        /* \"#utility.yul\":5004:5010   */\n      dup4\n        /* \"#utility.yul\":5000:5017   */\n      add\n        /* \"#utility.yul\":4987:5041   */\n      calldatacopy\n        /* \"#utility.yul\":5085:5086   */\n      0x00\n        /* \"#utility.yul\":5078:5082   */\n      0x20\n        /* \"#utility.yul\":5073:5075   */\n      dup6\n        /* \"#utility.yul\":5065:5071   */\n      dup4\n        /* \"#utility.yul\":5061:5076   */\n      add\n        /* \"#utility.yul\":5057:5083   */\n      add\n        /* \"#utility.yul\":5050:5087   */\n      mstore\n        /* \"#utility.yul\":5105:5111   */\n      dup1\n        /* \"#utility.yul\":5096:5111   */\n      swap5\n      pop\n      pop\n      pop\n      pop\n      pop\n        /* \"#utility.yul\":4398:5117   */\n      swap3\n      swap2\n      pop\n      pop\n      jump\t// out\n        /* \"#utility.yul\":5122:5655   */\n    tag_84:\n        /* \"#utility.yul\":5218:5224   */\n      0x00\n        /* \"#utility.yul\":5226:5232   */\n      dup1\n        /* \"#utility.yul\":5234:5240   */\n      0x00\n        /* \"#utility.yul\":5242:5248   */\n      dup1\n        /* \"#utility.yul\":5295:5298   */\n      0x80\n        /* \"#utility.yul\":5283:5292   */\n      dup6\n        /* \"#utility.yul\":5274:5281   */\n      dup8\n        /* \"#utility.yul\":5270:5293   */\n      sub\n        /* \"#utility.yul\":5266:5299   */\n      slt\n        /* \"#utility.yul\":5263:5316   */\n      iszero\n      tag_466\n      jumpi\n        /* \"#utility.yul\":5312:5313   */\n      0x00\n        /* \"#utility.yul\":5309:5310   */\n      dup1\n        /* \"#utility.yul\":5302:5314   */\n      revert\n        /* \"#utility.yul\":5263:5316   */\n    tag_466:\n        /* \"#utility.yul\":5335:5364   */\n      tag_467\n        /* \"#utility.yul\":5354:5363   */\n      dup6\n        /* \"#utility.yul\":5335:5364   */\n      tag_420\n      jump\t// in\n    tag_467:\n        /* \"#utility.yul\":5325:5364   */\n      swap4\n      pop\n        /* \"#utility.yul\":5411:5413   */\n      0x20\n        /* \"#utility.yul\":5400:5409   */\n      dup6\n        /* \"#utility.yul\":5396:5414   */\n      add\n        /* \"#utility.yul\":5383:5415   */\n      calldataload\n        /* \"#utility.yul\":5373:5415   */\n      swap3\n      pop\n        /* \"#utility.yul\":5462:5464   */\n      0x40\n        /* \"#utility.yul\":5451:5460   */\n      dup6\n        /* \"#utility.yul\":5447:5465   */\n      add\n        /* \"#utility.yul\":5434:5466   */\n      calldataload\n        /* \"#utility.yul\":5424:5466   */\n      swap2\n      pop\n        /* \"#utility.yul\":5517:5519   */\n      0x60\n        /* \"#utility.yul\":5506:5515   */\n      dup6\n        /* \"#utility.yul\":5502:5520   */\n      add\n        /* \"#utility.yul\":5489:5521   */\n      calldataload\n        /* \"#utility.yul\":5544:5562   */\n      0xffffffffffffffff\n        /* \"#utility.yul\":5536:5542   */\n      dup2\n        /* \"#utility.yul\":5533:5563   */\n      gt\n        /* \"#utility.yul\":5530:5580   */\n      iszero\n      tag_468\n      jumpi\n        /* \"#utility.yul\":5576:5577   */\n      0x00\n        /* \"#utility.yul\":5573:5574   */\n      dup1\n        /* \"#utility.yul\":5566:5578   */\n      revert\n        /* \"#utility.yul\":5530:5580   */\n    tag_468:\n        /* \"#utility.yul\":5599:5649   */\n      tag_469\n        /* \"#utility.yul\":5641:5648   */\n      dup8\n        /* \"#utility.yul\":5632:5638   */\n      dup3\n        /* \"#utility.yul\":5621:5630   */\n      dup9\n        /* \"#utility.yul\":5617:5639   */\n      add\n        /* \"#utility.yul\":5599:5649   */\n      tag_423\n      jump\t// in\n    tag_469:\n        /* \"#utility.yul\":5589:5649   */\n      swap2\n      pop\n      pop\n        /* \"#utility.yul\":5122:5655   */\n      swap3\n      swap6\n      swap2\n      swap5\n      pop\n      swap3\n      pop\n      jump\t// out\n        /* \"#utility.yul\":5660:6292   */\n    tag_93:\n        /* \"#utility.yul\":5831:5833   */\n      0x20\n        /* \"#utility.yul\":5883:5904   */\n      dup1\n      dup3\n      mstore\n        /* \"#utility.yul\":5953:5966   */\n      dup3\n      mload\n        /* \"#utility.yul\":5856:5874   */\n      dup3\n      dup3\n      add\n        /* \"#utility.yul\":5975:5997   */\n      dup2\n      swap1\n      mstore\n        /* \"#utility.yul\":5802:5806   */\n      0x00\n      swap2\n        /* \"#utility.yul\":5831:5833   */\n      swap1\n        /* \"#utility.yul\":6054:6069   */\n      dup5\n      dup3\n      add\n      swap1\n        /* \"#utility.yul\":6028:6030   */\n      0x40\n        /* \"#utility.yul\":6013:6031   */\n      dup6\n      add\n      swap1\n        /* \"#utility.yul\":5802:5806   */\n      dup5\n        /* \"#utility.yul\":6097:6266   */\n    tag_471:\n        /* \"#utility.yul\":6111:6117   */\n      dup2\n        /* \"#utility.yul\":6108:6109   */\n      dup2\n        /* \"#utility.yul\":6105:6118   */\n      lt\n        /* \"#utility.yul\":6097:6266   */\n      iszero\n      tag_473\n      jumpi\n        /* \"#utility.yul\":6172:6185   */\n      dup4\n      mload\n        /* \"#utility.yul\":6160:6186   */\n      dup4\n      mstore\n        /* \"#utility.yul\":6241:6256   */\n      swap3\n      dup5\n      add\n      swap3\n        /* \"#utility.yul\":6206:6218   */\n      swap2\n      dup5\n      add\n      swap2\n        /* \"#utility.yul\":6133:6134   */\n      0x01\n        /* \"#utility.yul\":6126:6135   */\n      add\n        /* \"#utility.yul\":6097:6266   */\n      jump(tag_471)\n    tag_473:\n      pop\n        /* \"#utility.yul\":6283:6286   */\n      swap1\n      swap7\n        /* \"#utility.yul\":5660:6292   */\n      swap6\n      pop\n      pop\n      pop\n      pop\n      pop\n      pop\n      jump\t// out\n        /* \"#utility.yul\":6297:6687   */\n    tag_104:\n        /* \"#utility.yul\":6375:6381   */\n      0x00\n        /* \"#utility.yul\":6383:6389   */\n      dup1\n        /* \"#utility.yul\":6436:6438   */\n      0x40\n        /* \"#utility.yul\":6424:6433   */\n      dup4\n        /* \"#utility.yul\":6415:6422   */\n      dup6\n        /* \"#utility.yul\":6411:6434   */\n      sub\n        /* \"#utility.yul\":6407:6439   */\n      slt\n        /* \"#utility.yul\":6404:6456   */\n      iszero\n      tag_475\n      jumpi\n        /* \"#utility.yul\":6452:6453   */\n      0x00\n        /* \"#utility.yul\":6449:6450   */\n      dup1\n        /* \"#utility.yul\":6442:6454   */\n      revert\n        /* \"#utility.yul\":6404:6456   */\n    tag_475:\n        /* \"#utility.yul\":6488:6497   */\n      dup3\n        /* \"#utility.yul\":6475:6498   */\n      calldataload\n        /* \"#utility.yul\":6465:6498   */\n      swap2\n      pop\n        /* \"#utility.yul\":6549:6551   */\n      0x20\n        /* \"#utility.yul\":6538:6547   */\n      dup4\n        /* \"#utility.yul\":6534:6552   */\n      add\n        /* \"#utility.yul\":6521:6553   */\n      calldataload\n        /* \"#utility.yul\":6576:6594   */\n      0xffffffffffffffff\n        /* \"#utility.yul\":6568:6574   */\n      dup2\n        /* \"#utility.yul\":6565:6595   */\n      gt\n        /* \"#utility.yul\":6562:6612   */\n      iszero\n      tag_476\n      jumpi\n        /* \"#utility.yul\":6608:6609   */\n      0x00\n        /* \"#utility.yul\":6605:6606   */\n      dup1\n        /* \"#utility.yul\":6598:6610   */\n      revert\n        /* \"#utility.yul\":6562:6612   */\n    tag_476:\n        /* \"#utility.yul\":6631:6681   */\n      tag_477\n        /* \"#utility.yul\":6673:6680   */\n      dup6\n        /* \"#utility.yul\":6664:6670   */\n      dup3\n        /* \"#utility.yul\":6653:6662   */\n      dup7\n        /* \"#utility.yul\":6649:6671   */\n      add\n        /* \"#utility.yul\":6631:6681   */\n      tag_423\n      jump\t// in\n    tag_477:\n        /* \"#utility.yul\":6621:6681   */\n      swap2\n      pop\n      pop\n        /* \"#utility.yul\":6297:6687   */\n      swap3\n      pop\n      swap3\n      swap1\n      pop\n      jump\t// out\n        /* \"#utility.yul\":6923:7477   */\n    tag_114:\n        /* \"#utility.yul\":7108:7110   */\n      0x20\n        /* \"#utility.yul\":7097:7106   */\n      dup2\n        /* \"#utility.yul\":7090:7111   */\n      mstore\n        /* \"#utility.yul\":7153:7159   */\n      dup2\n        /* \"#utility.yul\":7147:7160   */\n      mload\n        /* \"#utility.yul\":7142:7144   */\n      0x20\n        /* \"#utility.yul\":7131:7140   */\n      dup3\n        /* \"#utility.yul\":7127:7145   */\n      add\n        /* \"#utility.yul\":7120:7161   */\n      mstore\n        /* \"#utility.yul\":7071:7075   */\n      0x00\n        /* \"#utility.yul\":7208:7210   */\n      0x20\n        /* \"#utility.yul\":7200:7206   */\n      dup4\n        /* \"#utility.yul\":7196:7211   */\n      add\n        /* \"#utility.yul\":7190:7212   */\n      mload\n        /* \"#utility.yul\":7248:7252   */\n      0x80\n        /* \"#utility.yul\":7243:7245   */\n      0x40\n        /* \"#utility.yul\":7232:7241   */\n      dup5\n        /* \"#utility.yul\":7228:7246   */\n      add\n        /* \"#utility.yul\":7221:7253   */\n      mstore\n        /* \"#utility.yul\":7276:7328   */\n      tag_480\n        /* \"#utility.yul\":7323:7326   */\n      0xa0\n        /* \"#utility.yul\":7312:7321   */\n      dup5\n        /* \"#utility.yul\":7308:7327   */\n      add\n        /* \"#utility.yul\":7294:7306   */\n      dup3\n        /* \"#utility.yul\":7276:7328   */\n      tag_422\n      jump\t// in\n    tag_480:\n        /* \"#utility.yul\":7262:7328   */\n      swap1\n      pop\n        /* \"#utility.yul\":7382:7384   */\n      0x40\n        /* \"#utility.yul\":7374:7380   */\n      dup5\n        /* \"#utility.yul\":7370:7385   */\n      add\n        /* \"#utility.yul\":7364:7386   */\n      mload\n        /* \"#utility.yul\":7359:7361   */\n      0x60\n        /* \"#utility.yul\":7348:7357   */\n      dup5\n        /* \"#utility.yul\":7344:7362   */\n      add\n        /* \"#utility.yul\":7337:7387   */\n      mstore\n        /* \"#utility.yul\":7443:7445   */\n      0x60\n        /* \"#utility.yul\":7435:7441   */\n      dup5\n        /* \"#utility.yul\":7431:7446   */\n      add\n        /* \"#utility.yul\":7425:7447   */\n      mload\n        /* \"#utility.yul\":7418:7422   */\n      0x80\n        /* \"#utility.yul\":7407:7416   */\n      dup5\n        /* \"#utility.yul\":7403:7423   */\n      add\n        /* \"#utility.yul\":7396:7448   */\n      mstore\n        /* \"#utility.yul\":7465:7471   */\n      dup1\n        /* \"#utility.yul\":7457:7471   */\n      swap2\n      pop\n      pop\n        /* \"#utility.yul\":6923:7477   */\n      swap3\n      swap2\n      pop\n      pop\n      jump\t// out\n        /* \"#utility.yul\":7482:8753   */\n    tag_119:\n        /* \"#utility.yul\":7715:7717   */\n      0x20\n        /* \"#utility.yul\":7767:7788   */\n      dup1\n      dup3\n      mstore\n        /* \"#utility.yul\":7837:7850   */\n      dup3\n      mload\n        /* \"#utility.yul\":7740:7758   */\n      dup3\n      dup3\n      add\n        /* \"#utility.yul\":7859:7881   */\n      dup2\n      swap1\n      mstore\n        /* \"#utility.yul\":7686:7690   */\n      0x00\n      swap2\n        /* \"#utility.yul\":7715:7717   */\n      swap1\n        /* \"#utility.yul\":7900:7902   */\n      0x40\n      swap1\n        /* \"#utility.yul\":7918:7936   */\n      dup2\n      dup6\n      add\n      swap1\n        /* \"#utility.yul\":7978:7993   */\n      dup1\n      dup5\n      mul\n        /* \"#utility.yul\":7963:7994   */\n      dup7\n      add\n        /* \"#utility.yul\":7959:7999   */\n      dup4\n      add\n        /* \"#utility.yul\":8022:8037   */\n      dup8\n      dup6\n      add\n        /* \"#utility.yul\":7686:7690   */\n      dup7\n        /* \"#utility.yul\":8065:8724   */\n    tag_482:\n        /* \"#utility.yul\":8079:8085   */\n      dup4\n        /* \"#utility.yul\":8076:8077   */\n      dup2\n        /* \"#utility.yul\":8073:8086   */\n      lt\n        /* \"#utility.yul\":8065:8724   */\n      iszero\n      tag_447\n      jumpi\n        /* \"#utility.yul\":8172:8174   */\n      0x3f\n        /* \"#utility.yul\":8168:8175   */\n      not\n        /* \"#utility.yul\":8156:8165   */\n      dup10\n        /* \"#utility.yul\":8148:8154   */\n      dup5\n        /* \"#utility.yul\":8144:8166   */\n      sub\n        /* \"#utility.yul\":8140:8176   */\n      add\n        /* \"#utility.yul\":8135:8138   */\n      dup6\n        /* \"#utility.yul\":8128:8177   */\n      mstore\n        /* \"#utility.yul\":8206:8212   */\n      dup2\n        /* \"#utility.yul\":8200:8213   */\n      mload\n        /* \"#utility.yul\":8236:8240   */\n      0x80\n        /* \"#utility.yul\":8274:8276   */\n      dup2\n        /* \"#utility.yul\":8268:8277   */\n      mload\n        /* \"#utility.yul\":8260:8266   */\n      dup6\n        /* \"#utility.yul\":8253:8278   */\n      mstore\n        /* \"#utility.yul\":8325:8327   */\n      dup9\n        /* \"#utility.yul\":8321:8323   */\n      dup3\n        /* \"#utility.yul\":8317:8328   */\n      add\n        /* \"#utility.yul\":8311:8329   */\n      mload\n        /* \"#utility.yul\":8366:8368   */\n      dup2\n        /* \"#utility.yul\":8361:8363   */\n      dup11\n        /* \"#utility.yul\":8353:8359   */\n      dup8\n        /* \"#utility.yul\":8349:8364   */\n      add\n        /* \"#utility.yul\":8342:8369   */\n      mstore\n        /* \"#utility.yul\":8396:8444   */\n      tag_485\n        /* \"#utility.yul\":8440:8442   */\n      dup3\n        /* \"#utility.yul\":8432:8438   */\n      dup8\n        /* \"#utility.yul\":8428:8443   */\n      add\n        /* \"#utility.yul\":8414:8426   */\n      dup3\n        /* \"#utility.yul\":8396:8444   */\n      tag_422\n      jump\t// in\n    tag_485:\n        /* \"#utility.yul\":8501:8512   */\n      dup4\n      dup11\n      add\n        /* \"#utility.yul\":8495:8513   */\n      mload\n        /* \"#utility.yul\":8488:8514   */\n      iszero\n        /* \"#utility.yul\":8481:8515   */\n      iszero\n        /* \"#utility.yul\":8464:8479   */\n      dup8\n      dup12\n      add\n        /* \"#utility.yul\":8457:8516   */\n      mstore\n        /* \"#utility.yul\":8539:8543   */\n      0x60\n        /* \"#utility.yul\":8600:8611   */\n      swap4\n      dup5\n      add\n        /* \"#utility.yul\":8594:8612   */\n      mload\n        /* \"#utility.yul\":8587:8613   */\n      iszero\n        /* \"#utility.yul\":8580:8614   */\n      iszero\n        /* \"#utility.yul\":8563:8578   */\n      swap4\n      swap1\n      swap7\n      add\n        /* \"#utility.yul\":8556:8615   */\n      swap3\n      swap1\n      swap3\n      mstore\n      pop\n      pop\n        /* \"#utility.yul\":8702:8714   */\n      swap4\n      dup7\n      add\n      swap4\n        /* \"#utility.yul\":8667:8682   */\n      swap1\n      dup7\n      add\n      swap1\n        /* \"#utility.yul\":8101:8102   */\n      0x01\n        /* \"#utility.yul\":8094:8103   */\n      add\n        /* \"#utility.yul\":8065:8724   */\n      jump(tag_482)\n        /* \"#utility.yul\":8758:9193   */\n    tag_124:\n        /* \"#utility.yul\":8991:8997   */\n      dup5\n        /* \"#utility.yul\":8980:8989   */\n      dup2\n        /* \"#utility.yul\":8973:8998   */\n      mstore\n        /* \"#utility.yul\":9034:9037   */\n      0x80\n        /* \"#utility.yul\":9029:9031   */\n      0x20\n        /* \"#utility.yul\":9018:9027   */\n      dup3\n        /* \"#utility.yul\":9014:9032   */\n      add\n        /* \"#utility.yul\":9007:9038   */\n      mstore\n        /* \"#utility.yul\":8954:8958   */\n      0x00\n        /* \"#utility.yul\":9055:9101   */\n      tag_487\n        /* \"#utility.yul\":9096:9099   */\n      0x80\n        /* \"#utility.yul\":9085:9094   */\n      dup4\n        /* \"#utility.yul\":9081:9100   */\n      add\n        /* \"#utility.yul\":9073:9079   */\n      dup7\n        /* \"#utility.yul\":9055:9101   */\n      tag_422\n      jump\t// in\n    tag_487:\n        /* \"#utility.yul\":9132:9134   */\n      0x40\n        /* \"#utility.yul\":9117:9135   */\n      dup4\n      add\n        /* \"#utility.yul\":9110:9144   */\n      swap5\n      swap1\n      swap5\n      mstore\n      pop\n        /* \"#utility.yul\":9175:9177   */\n      0x60\n        /* \"#utility.yul\":9160:9178   */\n      add\n        /* \"#utility.yul\":9153:9187   */\n      mstore\n        /* \"#utility.yul\":9047:9101   */\n      swap3\n        /* \"#utility.yul\":8758:9193   */\n      swap2\n      pop\n      pop\n      jump\t// out\n        /* \"#utility.yul\":9198:9520   */\n    tag_127:\n        /* \"#utility.yul\":9275:9281   */\n      0x00\n        /* \"#utility.yul\":9283:9289   */\n      dup1\n        /* \"#utility.yul\":9291:9297   */\n      0x00\n        /* \"#utility.yul\":9344:9346   */\n      0x60\n        /* \"#utility.yul\":9332:9341   */\n      dup5\n        /* \"#utility.yul\":9323:9330   */\n      dup7\n        /* \"#utility.yul\":9319:9342   */\n      sub\n        /* \"#utility.yul\":9315:9347   */\n      slt\n        /* \"#utility.yul\":9312:9364   */\n      iszero\n      tag_489\n      jumpi\n        /* \"#utility.yul\":9360:9361   */\n      0x00\n        /* \"#utility.yul\":9357:9358   */\n      dup1\n        /* \"#utility.yul\":9350:9362   */\n      revert\n        /* \"#utility.yul\":9312:9364   */\n    tag_489:\n        /* \"#utility.yul\":9383:9412   */\n      tag_490\n        /* \"#utility.yul\":9402:9411   */\n      dup5\n        /* \"#utility.yul\":9383:9412   */\n      tag_420\n      jump\t// in\n    tag_490:\n        /* \"#utility.yul\":9373:9412   */\n      swap6\n        /* \"#utility.yul\":9459:9461   */\n      0x20\n        /* \"#utility.yul\":9444:9462   */\n      dup6\n      add\n        /* \"#utility.yul\":9431:9463   */\n      calldataload\n      swap6\n      pop\n        /* \"#utility.yul\":9510:9512   */\n      0x40\n        /* \"#utility.yul\":9495:9513   */\n      swap1\n      swap5\n      add\n        /* \"#utility.yul\":9482:9514   */\n      calldataload\n      swap4\n        /* \"#utility.yul\":9198:9520   */\n      swap3\n      pop\n      pop\n      pop\n      jump\t// out\n        /* \"#utility.yul\":9525:9983   */\n    tag_138:\n        /* \"#utility.yul\":9612:9618   */\n      0x00\n        /* \"#utility.yul\":9620:9626   */\n      dup1\n        /* \"#utility.yul\":9628:9634   */\n      0x00\n        /* \"#utility.yul\":9681:9683   */\n      0x60\n        /* \"#utility.yul\":9669:9678   */\n      dup5\n        /* \"#utility.yul\":9660:9667   */\n      dup7\n        /* \"#utility.yul\":9656:9679   */\n      sub\n        /* \"#utility.yul\":9652:9684   */\n      slt\n        /* \"#utility.yul\":9649:9701   */\n      iszero\n      tag_492\n      jumpi\n        /* \"#utility.yul\":9697:9698   */\n      0x00\n        /* \"#utility.yul\":9694:9695   */\n      dup1\n        /* \"#utility.yul\":9687:9699   */\n      revert\n        /* \"#utility.yul\":9649:9701   */\n    tag_492:\n        /* \"#utility.yul\":9733:9742   */\n      dup4\n        /* \"#utility.yul\":9720:9743   */\n      calldataload\n        /* \"#utility.yul\":9710:9743   */\n      swap3\n      pop\n        /* \"#utility.yul\":9790:9792   */\n      0x20\n        /* \"#utility.yul\":9779:9788   */\n      dup5\n        /* \"#utility.yul\":9775:9793   */\n      add\n        /* \"#utility.yul\":9762:9794   */\n      calldataload\n        /* \"#utility.yul\":9752:9794   */\n      swap2\n      pop\n        /* \"#utility.yul\":9845:9847   */\n      0x40\n        /* \"#utility.yul\":9834:9843   */\n      dup5\n        /* \"#utility.yul\":9830:9848   */\n      add\n        /* \"#utility.yul\":9817:9849   */\n      calldataload\n        /* \"#utility.yul\":9872:9890   */\n      0xffffffffffffffff\n        /* \"#utility.yul\":9864:9870   */\n      dup2\n        /* \"#utility.yul\":9861:9891   */\n      gt\n        /* \"#utility.yul\":9858:9908   */\n      iszero\n      tag_493\n      jumpi\n        /* \"#utility.yul\":9904:9905   */\n      0x00\n        /* \"#utility.yul\":9901:9902   */\n      dup1\n        /* \"#utility.yul\":9894:9906   */\n      revert\n        /* \"#utility.yul\":9858:9908   */\n    tag_493:\n        /* \"#utility.yul\":9927:9977   */\n      tag_494\n        /* \"#utility.yul\":9969:9976   */\n      dup7\n        /* \"#utility.yul\":9960:9966   */\n      dup3\n        /* \"#utility.yul\":9949:9958   */\n      dup8\n        /* \"#utility.yul\":9945:9967   */\n      add\n        /* \"#utility.yul\":9927:9977   */\n      tag_423\n      jump\t// in\n    tag_494:\n        /* \"#utility.yul\":9917:9977   */\n      swap2\n      pop\n      pop\n        /* \"#utility.yul\":9525:9983   */\n      swap3\n      pop\n      swap3\n      pop\n      swap3\n      jump\t// out\n        /* \"#utility.yul\":9988:10248   */\n    tag_142:\n        /* \"#utility.yul\":10056:10062   */\n      0x00\n        /* \"#utility.yul\":10064:10070   */\n      dup1\n        /* \"#utility.yul\":10117:10119   */\n      0x40\n        /* \"#utility.yul\":10105:10114   */\n      dup4\n        /* \"#utility.yul\":10096:10103   */\n      dup6\n        /* \"#utility.yul\":10092:10115   */\n      sub\n        /* \"#utility.yul\":10088:10120   */\n      slt\n        /* \"#utility.yul\":10085:10137   */\n      iszero\n      tag_496\n      jumpi\n        /* \"#utility.yul\":10133:10134   */\n      0x00\n        /* \"#utility.yul\":10130:10131   */\n      dup1\n        /* \"#utility.yul\":10123:10135   */\n      revert\n        /* \"#utility.yul\":10085:10137   */\n    tag_496:\n        /* \"#utility.yul\":10156:10185   */\n      tag_497\n        /* \"#utility.yul\":10175:10184   */\n      dup4\n        /* \"#utility.yul\":10156:10185   */\n      tag_420\n      jump\t// in\n    tag_497:\n        /* \"#utility.yul\":10146:10185   */\n      swap2\n      pop\n        /* \"#utility.yul\":10204:10242   */\n      tag_498\n        /* \"#utility.yul\":10238:10240   */\n      0x20\n        /* \"#utility.yul\":10227:10236   */\n      dup5\n        /* \"#utility.yul\":10223:10241   */\n      add\n        /* \"#utility.yul\":10204:10242   */\n      tag_420\n      jump\t// in\n    tag_498:\n        /* \"#utility.yul\":10194:10242   */\n      swap1\n      pop\n        /* \"#utility.yul\":9988:10248   */\n      swap3\n      pop\n      swap3\n      swap1\n      pop\n      jump\t// out\n        /* \"#utility.yul\":10253:11262   */\n    tag_157:\n        /* \"#utility.yul\":10619:10623   */\n      0x00\n        /* \"#utility.yul\":10648:10651   */\n      0x0140\n        /* \"#utility.yul\":10678:10684   */\n      dup13\n        /* \"#utility.yul\":10667:10676   */\n      dup4\n        /* \"#utility.yul\":10660:10685   */\n      mstore\n        /* \"#utility.yul\":10721:10727   */\n      dup12\n        /* \"#utility.yul\":10716:10718   */\n      0x20\n        /* \"#utility.yul\":10705:10714   */\n      dup5\n        /* \"#utility.yul\":10701:10719   */\n      add\n        /* \"#utility.yul\":10694:10728   */\n      mstore\n        /* \"#utility.yul\":10764:10770   */\n      dup11\n        /* \"#utility.yul\":10759:10761   */\n      0x40\n        /* \"#utility.yul\":10748:10757   */\n      dup5\n        /* \"#utility.yul\":10744:10762   */\n      add\n        /* \"#utility.yul\":10737:10771   */\n      mstore\n        /* \"#utility.yul\":10807:10813   */\n      dup10\n        /* \"#utility.yul\":10802:10804   */\n      0x60\n        /* \"#utility.yul\":10791:10800   */\n      dup5\n        /* \"#utility.yul\":10787:10805   */\n      add\n        /* \"#utility.yul\":10780:10814   */\n      mstore\n        /* \"#utility.yul\":10865:10871   */\n      dup9\n        /* \"#utility.yul\":10858:10872   */\n      iszero\n        /* \"#utility.yul\":10851:10873   */\n      iszero\n        /* \"#utility.yul\":10845:10848   */\n      0x80\n        /* \"#utility.yul\":10834:10843   */\n      dup5\n        /* \"#utility.yul\":10830:10849   */\n      add\n        /* \"#utility.yul\":10823:10874   */\n      mstore\n        /* \"#utility.yul\":10911:10917   */\n      dup8\n        /* \"#utility.yul\":10905:10908   */\n      0xa0\n        /* \"#utility.yul\":10894:10903   */\n      dup5\n        /* \"#utility.yul\":10890:10909   */\n      add\n        /* \"#utility.yul\":10883:10918   */\n      mstore\n        /* \"#utility.yul\":10969:10975   */\n      dup7\n        /* \"#utility.yul\":10962:10976   */\n      iszero\n        /* \"#utility.yul\":10955:10977   */\n      iszero\n        /* \"#utility.yul\":10949:10952   */\n      0xc0\n        /* \"#utility.yul\":10938:10947   */\n      dup5\n        /* \"#utility.yul\":10934:10953   */\n      add\n        /* \"#utility.yul\":10927:10978   */\n      mstore\n        /* \"#utility.yul\":11015:11017   */\n      dup1\n        /* \"#utility.yul\":11009:11012   */\n      0xe0\n        /* \"#utility.yul\":10998:11007   */\n      dup5\n        /* \"#utility.yul\":10994:11013   */\n      add\n        /* \"#utility.yul\":10987:11018   */\n      mstore\n        /* \"#utility.yul\":11041:11086   */\n      tag_500\n        /* \"#utility.yul\":11082:11084   */\n      dup2\n        /* \"#utility.yul\":11071:11080   */\n      dup5\n        /* \"#utility.yul\":11067:11085   */\n      add\n        /* \"#utility.yul\":11059:11065   */\n      dup8\n        /* \"#utility.yul\":11041:11086   */\n      tag_422\n      jump\t// in\n    tag_500:\n        /* \"#utility.yul\":11027:11086   */\n      swap1\n      pop\n        /* \"#utility.yul\":11137:11143   */\n      dup5\n        /* \"#utility.yul\":11130:11144   */\n      iszero\n        /* \"#utility.yul\":11123:11145   */\n      iszero\n        /* \"#utility.yul\":11117:11120   */\n      0x0100\n        /* \"#utility.yul\":11106:11115   */\n      dup5\n        /* \"#utility.yul\":11102:11121   */\n      add\n        /* \"#utility.yul\":11095:11146   */\n      mstore\n        /* \"#utility.yul\":11195:11204   */\n      dup3\n        /* \"#utility.yul\":11187:11193   */\n      dup2\n        /* \"#utility.yul\":11183:11205   */\n      sub\n        /* \"#utility.yul\":11177:11180   */\n      0x0120\n        /* \"#utility.yul\":11166:11175   */\n      dup5\n        /* \"#utility.yul\":11162:11181   */\n      add\n        /* \"#utility.yul\":11155:11206   */\n      mstore\n        /* \"#utility.yul\":11223:11256   */\n      tag_501\n        /* \"#utility.yul\":11249:11255   */\n      dup2\n        /* \"#utility.yul\":11241:11247   */\n      dup6\n        /* \"#utility.yul\":11223:11256   */\n      tag_422\n      jump\t// in\n    tag_501:\n        /* \"#utility.yul\":11215:11256   */\n      swap14\n        /* \"#utility.yul\":10253:11262   */\n      swap13\n      pop\n      pop\n      pop\n      pop\n      pop\n      pop\n      pop\n      pop\n      pop\n      pop\n      pop\n      pop\n      pop\n      jump\t// out\n        /* \"#utility.yul\":11267:11596   */\n    tag_167:\n        /* \"#utility.yul\":11469:11471   */\n      0x20\n        /* \"#utility.yul\":11451:11472   */\n      dup1\n      dup3\n      mstore\n        /* \"#utility.yul\":11508:11509   */\n      0x06\n        /* \"#utility.yul\":11488:11506   */\n      swap1\n      dup3\n      add\n        /* \"#utility.yul\":11481:11510   */\n      mstore\n        /* \"#utility.yul\":11546:11554   */\n      0x216f776e65720000000000000000000000000000000000000000000000000000\n        /* \"#utility.yul\":11541:11543   */\n      0x40\n        /* \"#utility.yul\":11526:11544   */\n      dup3\n      add\n        /* \"#utility.yul\":11519:11555   */\n      mstore\n        /* \"#utility.yul\":11587:11589   */\n      0x60\n        /* \"#utility.yul\":11572:11590   */\n      add\n      swap1\n        /* \"#utility.yul\":11267:11596   */\n      jump\t// out\n        /* \"#utility.yul\":11601:11937   */\n    tag_172:\n        /* \"#utility.yul\":11803:11805   */\n      0x20\n        /* \"#utility.yul\":11785:11806   */\n      dup1\n      dup3\n      mstore\n        /* \"#utility.yul\":11842:11844   */\n      0x0c\n        /* \"#utility.yul\":11822:11840   */\n      swap1\n      dup3\n      add\n        /* \"#utility.yul\":11815:11845   */\n      mstore\n        /* \"#utility.yul\":11881:11895   */\n      0x4e6f7420616e2061646d696e0000000000000000000000000000000000000000\n        /* \"#utility.yul\":11876:11878   */\n      0x40\n        /* \"#utility.yul\":11861:11879   */\n      dup3\n      add\n        /* \"#utility.yul\":11854:11896   */\n      mstore\n        /* \"#utility.yul\":11928:11930   */\n      0x60\n        /* \"#utility.yul\":11913:11931   */\n      add\n      swap1\n        /* \"#utility.yul\":11601:11937   */\n      jump\t// out\n        /* \"#utility.yul\":11942:12287   */\n    tag_176:\n        /* \"#utility.yul\":12144:12146   */\n      0x20\n        /* \"#utility.yul\":12126:12147   */\n      dup1\n      dup3\n      mstore\n        /* \"#utility.yul\":12183:12185   */\n      0x15\n        /* \"#utility.yul\":12163:12181   */\n      swap1\n      dup3\n      add\n        /* \"#utility.yul\":12156:12186   */\n      mstore\n        /* \"#utility.yul\":12222:12245   */\n      0x43726564697420646f6573206e6f742065786973740000000000000000000000\n        /* \"#utility.yul\":12217:12219   */\n      0x40\n        /* \"#utility.yul\":12202:12220   */\n      dup3\n      add\n        /* \"#utility.yul\":12195:12246   */\n      mstore\n        /* \"#utility.yul\":12278:12280   */\n      0x60\n        /* \"#utility.yul\":12263:12281   */\n      add\n      swap1\n        /* \"#utility.yul\":11942:12287   */\n      jump\t// out\n        /* \"#utility.yul\":12638:12984   */\n    tag_182:\n        /* \"#utility.yul\":12840:12842   */\n      0x20\n        /* \"#utility.yul\":12822:12843   */\n      dup1\n      dup3\n      mstore\n        /* \"#utility.yul\":12879:12881   */\n      0x16\n        /* \"#utility.yul\":12859:12877   */\n      swap1\n      dup3\n      add\n        /* \"#utility.yul\":12852:12882   */\n      mstore\n        /* \"#utility.yul\":12918:12942   */\n      0x43726564697420616c7265616479207265766f6b656400000000000000000000\n        /* \"#utility.yul\":12913:12915   */\n      0x40\n        /* \"#utility.yul\":12898:12916   */\n      dup3\n      add\n        /* \"#utility.yul\":12891:12943   */\n      mstore\n        /* \"#utility.yul\":12975:12977   */\n      0x60\n        /* \"#utility.yul\":12960:12978   */\n      add\n      swap1\n        /* \"#utility.yul\":12638:12984   */\n      jump\t// out\n        /* \"#utility.yul\":12989:13328   */\n    tag_189:\n        /* \"#utility.yul\":13191:13193   */\n      0x20\n        /* \"#utility.yul\":13173:13194   */\n      dup1\n      dup3\n      mstore\n        /* \"#utility.yul\":13230:13232   */\n      0x0f\n        /* \"#utility.yul\":13210:13228   */\n      swap1\n      dup3\n      add\n        /* \"#utility.yul\":13203:13233   */\n      mstore\n        /* \"#utility.yul\":13269:13286   */\n      0x496e76616c696420616464726573730000000000000000000000000000000000\n        /* \"#utility.yul\":13264:13266   */\n      0x40\n        /* \"#utility.yul\":13249:13267   */\n      dup3\n      add\n        /* \"#utility.yul\":13242:13287   */\n      mstore\n        /* \"#utility.yul\":13319:13321   */\n      0x60\n        /* \"#utility.yul\":13304:13322   */\n      add\n      swap1\n        /* \"#utility.yul\":12989:13328   */\n      jump\t// out\n        /* \"#utility.yul\":13333:13517   */\n    tag_203:\n      mul(0x4e487b71, exp(0x02, 0xe0))\n        /* \"#utility.yul\":13382:13383   */\n      0x00\n        /* \"#utility.yul\":13375:13463   */\n      mstore\n        /* \"#utility.yul\":13482:13486   */\n      0x32\n        /* \"#utility.yul\":13479:13480   */\n      0x04\n        /* \"#utility.yul\":13472:13487   */\n      mstore\n        /* \"#utility.yul\":13506:13510   */\n      0x24\n        /* \"#utility.yul\":13503:13504   */\n      0x00\n        /* \"#utility.yul\":13496:13511   */\n      revert\n        /* \"#utility.yul\":13522:13959   */\n    tag_206:\n        /* \"#utility.yul\":13607:13608   */\n      0x02\n        /* \"#utility.yul\":13597:13609   */\n      dup2\n      div\n        /* \"#utility.yul\":13654:13655   */\n      0x01\n        /* \"#utility.yul\":13644:13656   */\n      dup3\n      and\n      dup1\n        /* \"#utility.yul\":13665:13726   */\n      tag_510\n      jumpi\n        /* \"#utility.yul\":13719:13723   */\n      0x7f\n        /* \"#utility.yul\":13711:13717   */\n      dup3\n        /* \"#utility.yul\":13707:13724   */\n      and\n        /* \"#utility.yul\":13697:13724   */\n      swap2\n      pop\n        /* \"#utility.yul\":13665:13726   */\n    tag_510:\n        /* \"#utility.yul\":13772:13774   */\n      0x20\n        /* \"#utility.yul\":13764:13770   */\n      dup3\n        /* \"#utility.yul\":13761:13775   */\n      lt\n        /* \"#utility.yul\":13741:13759   */\n      dup2\n        /* \"#utility.yul\":13738:13776   */\n      sub\n        /* \"#utility.yul\":13735:13953   */\n      tag_511\n      jumpi\n      mul(0x4e487b71, exp(0x02, 0xe0))\n        /* \"#utility.yul\":13806:13807   */\n      0x00\n        /* \"#utility.yul\":13799:13887   */\n      mstore\n        /* \"#utility.yul\":13910:13914   */\n      0x22\n        /* \"#utility.yul\":13907:13908   */\n      0x04\n        /* \"#utility.yul\":13900:13915   */\n      mstore\n        /* \"#utility.yul\":13938:13942   */\n      0x24\n        /* \"#utility.yul\":13935:13936   */\n      0x00\n        /* \"#utility.yul\":13928:13943   */\n      revert\n        /* \"#utility.yul\":13735:13953   */\n    tag_511:\n      pop\n        /* \"#utility.yul\":13522:13959   */\n      swap2\n      swap1\n      pop\n      jump\t// out\n        /* \"#utility.yul\":13964:14148   */\n    tag_424:\n      mul(0x4e487b71, exp(0x02, 0xe0))\n        /* \"#utility.yul\":14013:14014   */\n      0x00\n        /* \"#utility.yul\":14006:14094   */\n      mstore\n        /* \"#utility.yul\":14113:14117   */\n      0x11\n        /* \"#utility.yul\":14110:14111   */\n      0x04\n        /* \"#utility.yul\":14103:14118   */\n      mstore\n        /* \"#utility.yul\":14137:14141   */\n      0x24\n        /* \"#utility.yul\":14134:14135   */\n      0x00\n        /* \"#utility.yul\":14127:14142   */\n      revert\n        /* \"#utility.yul\":14153:14288   */\n    tag_219:\n        /* \"#utility.yul\":14192:14195   */\n      0x00\n        /* \"#utility.yul\":14213:14230   */\n      0x01\n      dup3\n      add\n        /* \"#utility.yul\":14210:14253   */\n      tag_515\n      jumpi\n        /* \"#utility.yul\":14233:14251   */\n      tag_515\n      tag_424\n      jump\t// in\n    tag_515:\n      pop\n        /* \"#utility.yul\":14280:14281   */\n      0x01\n        /* \"#utility.yul\":14269:14282   */\n      add\n      swap1\n        /* \"#utility.yul\":14153:14288   */\n      jump\t// out\n        /* \"#utility.yul\":15333:15501   */\n    tag_249:\n        /* \"#utility.yul\":15406:15415   */\n      dup1\n      dup3\n      mul\n        /* \"#utility.yul\":15437:15446   */\n      dup2\n      iszero\n        /* \"#utility.yul\":15454:15469   */\n      dup3\n      dup3\n      div\n        /* \"#utility.yul\":15448:15470   */\n      dup5\n      eq\n        /* \"#utility.yul\":15434:15471   */\n      or\n        /* \"#utility.yul\":15424:15495   */\n      tag_163\n      jumpi\n        /* \"#utility.yul\":15475:15493   */\n      tag_163\n      tag_424\n      jump\t// in\n        /* \"#utility.yul\":15632:16183   */\n    tag_426:\n        /* \"#utility.yul\":15734:15736   */\n      0x1f\n        /* \"#utility.yul\":15729:15732   */\n      dup3\n        /* \"#utility.yul\":15726:15737   */\n      gt\n        /* \"#utility.yul\":15723:16177   */\n      iszero\n      tag_524\n      jumpi\n        /* \"#utility.yul\":15770:15771   */\n      0x00\n        /* \"#utility.yul\":15795:15800   */\n      dup2\n        /* \"#utility.yul\":15791:15793   */\n      dup2\n        /* \"#utility.yul\":15784:15801   */\n      mstore\n        /* \"#utility.yul\":15840:15844   */\n      0x20\n        /* \"#utility.yul\":15836:15838   */\n      dup2\n        /* \"#utility.yul\":15826:15845   */\n      keccak256\n        /* \"#utility.yul\":15912:15916   */\n      0x20\n        /* \"#utility.yul\":15907:15909   */\n      0x1f\n        /* \"#utility.yul\":15895:15905   */\n      dup7\n        /* \"#utility.yul\":15891:15910   */\n      add\n        /* \"#utility.yul\":15887:15917   */\n      div\n        /* \"#utility.yul\":15881:15885   */\n      dup2\n        /* \"#utility.yul\":15877:15918   */\n      add\n        /* \"#utility.yul\":15949:15953   */\n      0x20\n        /* \"#utility.yul\":15937:15947   */\n      dup7\n        /* \"#utility.yul\":15934:15954   */\n      lt\n        /* \"#utility.yul\":15931:15978   */\n      iszero\n      tag_525\n      jumpi\n      pop\n        /* \"#utility.yul\":15972:15976   */\n      dup1\n        /* \"#utility.yul\":15931:15978   */\n    tag_525:\n        /* \"#utility.yul\":16029:16033   */\n      0x20\n        /* \"#utility.yul\":16024:16026   */\n      0x1f\n        /* \"#utility.yul\":16019:16022   */\n      dup7\n        /* \"#utility.yul\":16015:16027   */\n      add\n        /* \"#utility.yul\":16011:16034   */\n      div\n        /* \"#utility.yul\":16005:16009   */\n      dup3\n        /* \"#utility.yul\":16001:16035   */\n      add\n        /* \"#utility.yul\":15991:16035   */\n      swap2\n      pop\n        /* \"#utility.yul\":16085:16167   */\n    tag_526:\n        /* \"#utility.yul\":16103:16105   */\n      dup2\n        /* \"#utility.yul\":16096:16101   */\n      dup2\n        /* \"#utility.yul\":16093:16106   */\n      lt\n        /* \"#utility.yul\":16085:16167   */\n      iszero\n      tag_528\n      jumpi\n        /* \"#utility.yul\":16148:16165   */\n      dup3\n      dup2\n      sstore\n        /* \"#utility.yul\":16129:16130   */\n      0x01\n        /* \"#utility.yul\":16118:16131   */\n      add\n        /* \"#utility.yul\":16085:16167   */\n      jump(tag_526)\n    tag_528:\n        /* \"#utility.yul\":16089:16092   */\n      pop\n      pop\n      pop\n        /* \"#utility.yul\":15723:16177   */\n    tag_524:\n        /* \"#utility.yul\":15632:16183   */\n      pop\n      pop\n      pop\n      jump\t// out\n        /* \"#utility.yul\":16367:17726   */\n    tag_251:\n        /* \"#utility.yul\":16493:16496   */\n      dup2\n        /* \"#utility.yul\":16487:16497   */\n      mload\n        /* \"#utility.yul\":16520:16538   */\n      0xffffffffffffffff\n        /* \"#utility.yul\":16512:16518   */\n      dup2\n        /* \"#utility.yul\":16509:16539   */\n      gt\n        /* \"#utility.yul\":16506:16562   */\n      iszero\n      tag_532\n      jumpi\n        /* \"#utility.yul\":16542:16560   */\n      tag_532\n      tag_193\n      jump\t// in\n    tag_532:\n        /* \"#utility.yul\":16571:16668   */\n      tag_533\n        /* \"#utility.yul\":16661:16667   */\n      dup2\n        /* \"#utility.yul\":16621:16659   */\n      tag_534\n        /* \"#utility.yul\":16653:16657   */\n      dup5\n        /* \"#utility.yul\":16647:16658   */\n      sload\n        /* \"#utility.yul\":16621:16659   */\n      tag_206\n      jump\t// in\n    tag_534:\n        /* \"#utility.yul\":16615:16619   */\n      dup5\n        /* \"#utility.yul\":16571:16668   */\n      tag_426\n      jump\t// in\n    tag_533:\n        /* \"#utility.yul\":16723:16727   */\n      0x20\n      dup1\n        /* \"#utility.yul\":16787:16789   */\n      0x1f\n        /* \"#utility.yul\":16776:16790   */\n      dup4\n      gt\n        /* \"#utility.yul\":16804:16805   */\n      0x01\n        /* \"#utility.yul\":16799:17469   */\n      dup2\n      eq\n      tag_536\n      jumpi\n        /* \"#utility.yul\":17513:17514   */\n      0x00\n        /* \"#utility.yul\":17530:17536   */\n      dup5\n        /* \"#utility.yul\":17527:17616   */\n      iszero\n      tag_537\n      jumpi\n      pop\n        /* \"#utility.yul\":17582:17601   */\n      dup6\n      dup4\n      add\n        /* \"#utility.yul\":17576:17602   */\n      mload\n        /* \"#utility.yul\":17527:17616   */\n    tag_537:\n        /* \"#utility.yul\":16348:16349   */\n      0x02\n        /* \"#utility.yul\":16344:16355   */\n      dup1\n      dup7\n      mul\n        /* \"#utility.yul\":16331:16332   */\n      0x08\n        /* \"#utility.yul\":16327:16338   */\n      dup8\n      mul\n        /* \"#utility.yul\":16320:16339   */\n      swap1\n      swap2\n      exp\n      not(0x00)\n        /* \"#utility.yul\":16308:16340   */\n      div\n        /* \"#utility.yul\":16304:16341   */\n      not\n        /* \"#utility.yul\":16294:16342   */\n      dup3\n      and\n        /* \"#utility.yul\":16291:16356   */\n      or\n        /* \"#utility.yul\":17636:17640   */\n      dup7\n        /* \"#utility.yul\":17629:17710   */\n      sstore\n      pop\n        /* \"#utility.yul\":16769:17720   */\n      jump(tag_528)\n        /* \"#utility.yul\":16799:17469   */\n    tag_536:\n        /* \"#utility.yul\":15579:15580   */\n      0x00\n        /* \"#utility.yul\":15572:15586   */\n      dup6\n      dup2\n      mstore\n        /* \"#utility.yul\":15616:15620   */\n      0x20\n        /* \"#utility.yul\":15603:15621   */\n      dup2\n      keccak256\n      not(0x1f)\n        /* \"#utility.yul\":16835:16855   */\n      dup7\n      and\n      swap2\n        /* \"#utility.yul\":16953:17189   */\n    tag_540:\n        /* \"#utility.yul\":16967:16974   */\n      dup3\n        /* \"#utility.yul\":16964:16965   */\n      dup2\n        /* \"#utility.yul\":16961:16975   */\n      lt\n        /* \"#utility.yul\":16953:17189   */\n      iszero\n      tag_542\n      jumpi\n        /* \"#utility.yul\":17056:17075   */\n      dup9\n      dup7\n      add\n        /* \"#utility.yul\":17050:17076   */\n      mload\n        /* \"#utility.yul\":17035:17077   */\n      dup3\n      sstore\n        /* \"#utility.yul\":17148:17175   */\n      swap5\n      dup5\n      add\n      swap5\n        /* \"#utility.yul\":17116:17117   */\n      0x01\n        /* \"#utility.yul\":17104:17118   */\n      swap1\n      swap2\n      add\n      swap1\n        /* \"#utility.yul\":16983:17002   */\n      dup5\n      add\n        /* \"#utility.yul\":16953:17189   */\n      jump(tag_540)\n    tag_542:\n        /* \"#utility.yul\":16957:16960   */\n      pop\n        /* \"#utility.yul\":17217:17223   */\n      dup6\n        /* \"#utility.yul\":17208:17215   */\n      dup3\n        /* \"#utility.yul\":17205:17224   */\n      lt\n        /* \"#utility.yul\":17202:17410   */\n      iszero\n      tag_543\n      jumpi\n        /* \"#utility.yul\":17278:17297   */\n      dup8\n      dup6\n      add\n        /* \"#utility.yul\":17272:17298   */\n      mload\n        /* \"#utility.yul\":17372:17373   */\n      0x08\n        /* \"#utility.yul\":17387:17389   */\n      0x1f\n        /* \"#utility.yul\":17375:17390   */\n      dup9\n      and\n        /* \"#utility.yul\":17368:17391   */\n      mul\n        /* \"#utility.yul\":17365:17366   */\n      0x02\n        /* \"#utility.yul\":17361:17392   */\n      exp\n      not(0x00)\n        /* \"#utility.yul\":17349:17393   */\n      div\n        /* \"#utility.yul\":17345:17394   */\n      not\n        /* \"#utility.yul\":17330:17395   */\n      and\n        /* \"#utility.yul\":17315:17396   */\n      dup2\n      sstore\n        /* \"#utility.yul\":17202:17410   */\n    tag_543:\n      pop\n      pop\n      pop\n      pop\n      pop\n        /* \"#utility.yul\":17452:17453   */\n      0x02\n        /* \"#utility.yul\":17440:17454   */\n      mul\n        /* \"#utility.yul\":17456:17457   */\n      0x01\n        /* \"#utility.yul\":17436:17458   */\n      add\n        /* \"#utility.yul\":17423:17459   */\n      swap1\n      sstore\n      pop\n        /* \"#utility.yul\":16367:17726   */\n      jump\t// out\n        /* \"#utility.yul\":18081:18209   */\n    tag_283:\n        /* \"#utility.yul\":18148:18157   */\n      dup2\n      dup2\n      sub\n        /* \"#utility.yul\":18169:18180   */\n      dup2\n      dup2\n      gt\n        /* \"#utility.yul\":18166:18203   */\n      iszero\n      tag_163\n      jumpi\n        /* \"#utility.yul\":18183:18201   */\n      tag_163\n      tag_424\n      jump\t// in\n        /* \"#utility.yul\":19266:19391   */\n    tag_358:\n        /* \"#utility.yul\":19331:19340   */\n      dup1\n      dup3\n      add\n        /* \"#utility.yul\":19352:19362   */\n      dup1\n      dup3\n      gt\n        /* \"#utility.yul\":19349:19385   */\n      iszero\n      tag_163\n      jumpi\n        /* \"#utility.yul\":19365:19383   */\n      tag_163\n      tag_424\n      jump\t// in\n        /* \"#utility.yul\":20100:21542   */\n    tag_385:\n        /* \"#utility.yul\":20219:20222   */\n      dup2\n        /* \"#utility.yul\":20213:20217   */\n      dup2\n        /* \"#utility.yul\":20210:20223   */\n      sub\n        /* \"#utility.yul\":20207:20233   */\n      tag_557\n      jumpi\n        /* \"#utility.yul\":20226:20231   */\n      pop\n      pop\n        /* \"#utility.yul\":20100:21542   */\n      jump\t// out\n        /* \"#utility.yul\":20207:20233   */\n    tag_557:\n        /* \"#utility.yul\":20256:20293   */\n      tag_558\n        /* \"#utility.yul\":20288:20291   */\n      dup3\n        /* \"#utility.yul\":20282:20292   */\n      sload\n        /* \"#utility.yul\":20256:20293   */\n      tag_206\n      jump\t// in\n    tag_558:\n        /* \"#utility.yul\":20316:20334   */\n      0xffffffffffffffff\n        /* \"#utility.yul\":20308:20314   */\n      dup2\n        /* \"#utility.yul\":20305:20335   */\n      gt\n        /* \"#utility.yul\":20302:20358   */\n      iszero\n      tag_560\n      jumpi\n        /* \"#utility.yul\":20338:20356   */\n      tag_560\n      tag_193\n      jump\t// in\n    tag_560:\n        /* \"#utility.yul\":20367:20464   */\n      tag_561\n        /* \"#utility.yul\":20457:20463   */\n      dup2\n        /* \"#utility.yul\":20417:20455   */\n      tag_534\n        /* \"#utility.yul\":20449:20453   */\n      dup5\n        /* \"#utility.yul\":20443:20454   */\n      sload\n        /* \"#utility.yul\":20417:20455   */\n      tag_206\n      jump\t// in\n        /* \"#utility.yul\":20367:20464   */\n    tag_561:\n        /* \"#utility.yul\":20490:20491   */\n      0x00\n        /* \"#utility.yul\":20518:20520   */\n      0x1f\n        /* \"#utility.yul\":20510:20516   */\n      dup3\n        /* \"#utility.yul\":20507:20521   */\n      gt\n        /* \"#utility.yul\":20535:20536   */\n      0x01\n        /* \"#utility.yul\":20530:21285   */\n      dup2\n      eq\n      tag_564\n      jumpi\n        /* \"#utility.yul\":21329:21330   */\n      0x00\n        /* \"#utility.yul\":21346:21352   */\n      dup4\n        /* \"#utility.yul\":21343:21432   */\n      iszero\n      tag_565\n      jumpi\n      pop\n        /* \"#utility.yul\":21398:21417   */\n      dup5\n      dup3\n      add\n        /* \"#utility.yul\":21392:21418   */\n      sload\n        /* \"#utility.yul\":21343:21432   */\n    tag_565:\n        /* \"#utility.yul\":16348:16349   */\n      0x02\n        /* \"#utility.yul\":16344:16355   */\n      dup1\n      dup6\n      mul\n        /* \"#utility.yul\":16331:16332   */\n      0x08\n        /* \"#utility.yul\":16327:16338   */\n      dup7\n      mul\n        /* \"#utility.yul\":16320:16339   */\n      swap1\n      swap2\n      exp\n      not(0x00)\n        /* \"#utility.yul\":16308:16340   */\n      div\n        /* \"#utility.yul\":16304:16341   */\n      not\n        /* \"#utility.yul\":16294:16342   */\n      dup3\n      and\n        /* \"#utility.yul\":16291:16356   */\n      or\n        /* \"#utility.yul\":21452:21456   */\n      dup6\n        /* \"#utility.yul\":21445:21526   */\n      sstore\n      pop\n        /* \"#utility.yul\":20500:21536   */\n      jump(tag_563)\n        /* \"#utility.yul\":20530:21285   */\n    tag_564:\n        /* \"#utility.yul\":15579:15580   */\n      0x00\n        /* \"#utility.yul\":15572:15586   */\n      dup6\n      dup2\n      mstore\n        /* \"#utility.yul\":15616:15620   */\n      0x20\n        /* \"#utility.yul\":15603:15621   */\n      swap1\n      keccak256\n      not(0x1f)\n        /* \"#utility.yul\":20566:20586   */\n      dup5\n      and\n      swap1\n        /* \"#utility.yul\":15579:15580   */\n      0x00\n        /* \"#utility.yul\":15572:15586   */\n      dup7\n      dup2\n      mstore\n        /* \"#utility.yul\":15616:15620   */\n      0x20\n        /* \"#utility.yul\":15603:15621   */\n      swap1\n      keccak256\n        /* \"#utility.yul\":20730:20739   */\n      dup5\n        /* \"#utility.yul\":20752:21003   */\n    tag_569:\n        /* \"#utility.yul\":20766:20773   */\n      dup4\n        /* \"#utility.yul\":20763:20764   */\n      dup2\n        /* \"#utility.yul\":20760:20774   */\n      lt\n        /* \"#utility.yul\":20752:21003   */\n      iszero\n      tag_571\n      jumpi\n        /* \"#utility.yul\":20848:20869   */\n      dup3\n      dup7\n      add\n        /* \"#utility.yul\":20842:20870   */\n      sload\n        /* \"#utility.yul\":20827:20871   */\n      dup3\n      sstore\n        /* \"#utility.yul\":20898:20899   */\n      0x01\n        /* \"#utility.yul\":20971:20989   */\n      swap6\n      dup7\n      add\n      swap6\n        /* \"#utility.yul\":20926:20941   */\n      swap1\n      swap2\n      add\n      swap1\n        /* \"#utility.yul\":20789:20793   */\n      0x20\n        /* \"#utility.yul\":20782:20794   */\n      add\n        /* \"#utility.yul\":20752:21003   */\n      jump(tag_569)\n    tag_571:\n        /* \"#utility.yul\":20756:20759   */\n      pop\n        /* \"#utility.yul\":21031:21037   */\n      dup6\n        /* \"#utility.yul\":21022:21029   */\n      dup4\n        /* \"#utility.yul\":21019:21038   */\n      lt\n        /* \"#utility.yul\":21016:21226   */\n      iszero\n      tag_572\n      jumpi\n        /* \"#utility.yul\":21092:21113   */\n      dup2\n      dup6\n      add\n        /* \"#utility.yul\":21086:21114   */\n      sload\n        /* \"#utility.yul\":21188:21189   */\n      0x08\n        /* \"#utility.yul\":21203:21205   */\n      0x1f\n        /* \"#utility.yul\":21191:21206   */\n      dup9\n      and\n        /* \"#utility.yul\":21184:21207   */\n      mul\n        /* \"#utility.yul\":21181:21182   */\n      0x02\n        /* \"#utility.yul\":21177:21208   */\n      exp\n      not(0x00)\n        /* \"#utility.yul\":21165:21209   */\n      div\n        /* \"#utility.yul\":21161:21210   */\n      not\n        /* \"#utility.yul\":21146:21211   */\n      and\n        /* \"#utility.yul\":21131:21212   */\n      dup2\n      sstore\n        /* \"#utility.yul\":21016:21226   */\n    tag_572:\n      pop\n      pop\n      pop\n        /* \"#utility.yul\":21272:21273   */\n      0x01\n        /* \"#utility.yul\":21268:21269   */\n      0x02\n        /* \"#utility.yul\":21260:21266   */\n      dup5\n        /* \"#utility.yul\":21256:21270   */\n      mul\n        /* \"#utility.yul\":21252:21274   */\n      add\n        /* \"#utility.yul\":21246:21250   */\n      dup5\n        /* \"#utility.yul\":21239:21275   */\n      sstore\n        /* \"#utility.yul\":20500:21536   */\n    tag_563:\n      pop\n      pop\n      pop\n        /* \"#utility.yul\":20100:21542   */\n      pop\n      pop\n      jump\t// out\n\n    auxdata: 0xa26469706673582212209a55426682dc57d3abe3bfe055436dfbbe0368ff52f5e971e20c9ad1104d332464736f6c63430008140033\n}\n",
				"bytecode": {
					"linkReferences": {},
					"object": "608060405234801561001057600080fd5b5060008054600160a060020a031916339081178255604051909182917f8be0079c531659141344cd1fd0a4f28419497f9722a3daafe3b4186f6b6457e0908290a350612ac0806100616000396000f3fe608060405234801561001057600080fd5b50600436106101f7576000357c010000000000000000000000000000000000000000000000000000000090048063715018a611610121578063bcab36f7116100bf578063e2ed5a4e1161008e578063e2ed5a4e14610482578063f0a47f7814610495578063f2012286146104b8578063f2fde38b146104e157600080fd5b8063bcab36f71461041e578063dba8c55f14610431578063dcc63a1614610444578063dd62ed3e1461045757600080fd5b8063981059ee116100fb578063981059ee146103a8578063a59742df146103c8578063b264a4a5146103e8578063b44e7d091461040b57600080fd5b8063715018a61461037257806375e7c4251461037a5780638da5cb5b1461038d57600080fd5b80634a5ad49e11610199578063659cc07b11610168578063659cc07b1461032457806368fdbd70146103375780636b105c811461034c578063704802751461035f57600080fd5b80634a5ad49e146102b857806352ff6846146102db5780635407b304146102ee5780635ba751561461031157600080fd5b806324d7806c116101d557806324d7806c1461025a57806327f83af91461027d5780633bc6e30914610290578063416d6499146102a357600080fd5b80630740c8cf146101fc578063095ea7b3146102225780631785f53c14610245575b600080fd5b61020f61020a36600461214c565b6104f4565b6040519081526020015b60405180910390f35b61023561023036600461214c565b610525565b6040519015158152602001610219565b610258610253366004612176565b610554565b005b610235610268366004612176565b60016020526000908152604090205460ff1681565b61025861028b36600461214c565b6105d3565b61025861029e366004612176565b6106c8565b6102ab610747565b60405161021991906121de565b6102cb6102c636600461214c565b6109cb565b60405161021994939291906122c9565b6102586102e9366004612176565b610aa6565b6102356102fc3660046122fa565b60076020526000908152604090205460ff1681565b61025861031f3660046123b9565b610b92565b6102ab610332366004612176565b610e25565b61033f611173565b604051610219919061241a565b61025861035a36600461214c565b6111cb565b61025861036d366004612176565b6112e2565b61025861135e565b61025861038836600461245e565b6113e2565b600054604051600160a060020a039091168152602001610219565b6103bb6103b63660046122fa565b611518565b60405161021991906124a5565b6103db6103d6366004612176565b611631565b60405161021991906124eb565b6103fb6103f63660046122fa565b6117c1565b6040516102199493929190612569565b610258610419366004612595565b611872565b61020f61042c36600461214c565b611a31565b61025861043f36600461214c565b611a4d565b6102586104523660046125c8565b611d11565b61020f610465366004612618565b600960209081526000928352604080842090915290825290205481565b61020f6104903660046122fa565b611e4d565b6102356104a3366004612176565b60066020526000908152604090205460ff1681565b6104cb6104c636600461214c565b611e6e565b6040516102199a9998979695949392919061264b565b6102586104ef366004612176565b611fe9565b6005602052816000526040600020818154811061051057600080fd5b90600052602060002001600091509150505481565b336000908152600960209081526040808320600160a060020a0386168452909152902081905560015b92915050565b600054600160a060020a0316331461058a5760405160e560020a62461bcd028152600401610581906126bc565b60405180910390fd5b600160a060020a038116600081815260016020526040808220805460ff19169055517fa3b62bc36326052d97ea62d63c3d60308ed4c3ea8ac079dd8499f1e9c4f80c0f9190a250565b3360009081526001602052604090205460ff166106055760405160e560020a62461bcd028152600401610581906126f3565b600160a060020a038216600090815260036020818152604080842085855290915282200154900361064b5760405160e560020a62461bcd0281526004016105819061272a565b600160a060020a038216600090815260036020908152604080832084845290915290206006015460ff16156106955760405160e560020a62461bcd02815260040161058190612761565b600160a060020a03909116600090815260036020908152604080832093835292905220600601805460ff19166001179055565b3360009081526001602052604090205460ff166106fa5760405160e560020a62461bcd028152600401610581906126f3565b600160a060020a0381166107235760405160e560020a62461bcd02815260040161058190612798565b600160a060020a03166000908152600660205260409020805460ff19166001179055565b336000908152600560205260409020546060908067ffffffffffffffff81111561077357610773612313565b6040519080825280602002602001820160405280156107ac57816020015b6107996120d7565b8152602001906001900390816107915790505b50915060005b818110156109c6573360009081526005602052604081208054839081106107db576107db6127cf565b600091825260208083209091015433835260038083526040808520838652845293849020845161014081018652815481526001820154948101949094526002810154948401949094528301546060830152600483015460ff90811615156080840152600584015460a0840152600684015416151560c083015260078301805491945091929160e084019161086e906127e8565b80601f016020809104026020016040519081016040528092919081815260200182805461089a906127e8565b80156108e75780601f106108bc576101008083540402835291602001916108e7565b820191906000526020600020905b8154815290600101906020018083116108ca57829003601f168201915b5050509183525050600882015460ff1615156020820152600982018054604090920191610913906127e8565b80601f016020809104026020016040519081016040528092919081815260200182805461093f906127e8565b801561098c5780601f106109615761010080835404028352916020019161098c565b820191906000526020600020905b81548152906001019060200180831161096f57829003601f168201915b5050505050815250508483815181106109a7576109a76127cf565b60200260200101819052505080806109be9061283e565b9150506107b2565b505090565b600a60205281600052604060002081815481106109e757600080fd5b906000526020600020906003020160009150915050806000015490806001018054610a11906127e8565b80601f0160208091040260200160405190810160405280929190818152602001828054610a3d906127e8565b8015610a8a5780601f10610a5f57610100808354040283529160200191610a8a565b820191906000526020600020905b815481529060010190602001808311610a6d57829003601f168201915b5050506002909301549192505060ff8082169161010090041684565b3360009081526001602052604090205460ff16610ad85760405160e560020a62461bcd028152600401610581906126f3565b600160a060020a038116610b015760405160e560020a62461bcd02815260040161058190612798565b600160a060020a03811660009081526006602052604090205460ff161515600114610b715760405160e560020a62461bcd02815260206004820152601960248201527f6164647265737320617265206e6f7420612074656163686572000000000000006044820152606401610581565b600160a060020a03166000908152600660205260409020805460ff19169055565b3360009081526006602052604090205460ff16610bf45760405160e560020a62461bcd02815260206004820152600d60248201527f4e6f7420612074656163686572000000000000000000000000000000000000006044820152606401610581565b600160a060020a038416610c1d5760405160e560020a62461bcd02815260040161058190612798565b60008381526007602052604090205460ff161515600114610c835760405160e560020a62461bcd02815260206004820152600f60248201527f636f75727365206e6f74206578697400000000000000000000000000000000006044820152606401610581565b6000838152600260208190526040822001544291610ca18286612857565b905060405180610140016040528087815260200182815260200186815260200184815260200160001515815260200160008152602001600015158152602001858152602001600015158152602001604051806020016040528060008152508152506003600089600160a060020a0316600160a060020a0316815260200190815260200160002060008881526020019081526020016000206000820151816000015560208201518160010155604082015181600201556060820151816003015560808201518160040160006101000a81548160ff02191690831515021790555060a0820151816005015560c08201518160060160006101000a81548160ff02191690831515021790555060e0820151816007019081610dbf91906128bd565b5061010082015160088201805460ff19169115159190911790556101208201516009820190610dee90826128bd565b505050600160a060020a03909616600090815260056020908152604082208054600181018255908352912001949094555050505050565b600160a060020a0381166000908152600960209081526040808320338452909152902054606090610e9b5760405160e560020a62461bcd02815260206004820152601560248201527f796f7520646f206e6f7420626520616c6c6f77656400000000000000000000006044820152606401610581565b600160a060020a0382166000908152600560205260409020548067ffffffffffffffff811115610ecd57610ecd612313565b604051908082528060200260200182016040528015610f0657816020015b610ef36120d7565b815260200190600190039081610eeb5790505b50915060005b8181101561113257600160a060020a0384166000908152600560205260408120805483908110610f3e57610f3e6127cf565b6000918252602080832090910154600160a060020a038816835260038083526040808520838652845293849020845161014081018652815481526001820154948101949094526002810154948401949094528301546060830152600483015460ff90811615156080840152600584015460a0840152600684015416151560c083015260078301805491945091929160e0840191610fda906127e8565b80601f0160208091040260200160405190810160405280929190818152602001828054611006906127e8565b80156110535780601f1061102857610100808354040283529160200191611053565b820191906000526020600020905b81548152906001019060200180831161103657829003601f168201915b5050509183525050600882015460ff161515602082015260098201805460409092019161107f906127e8565b80601f01602080910402602001604051908101604052809291908181526020018280546110ab906127e8565b80156110f85780601f106110cd576101008083540402835291602001916110f8565b820191906000526020600020905b8154815290600101906020018083116110db57829003601f168201915b505050505081525050848381518110611113576111136127cf565b602002602001018190525050808061112a9061283e565b915050610f0c565b50600160a060020a03831660009081526009602090815260408083203384529091528120805460019290611167908490612983565b90915550919392505050565b606060088054806020026020016040519081016040528092919081815260200182805480156111c157602002820191906000526020600020905b8154815260200190600101908083116111ad575b5050505050905090565b3360009081526001602052604090205460ff166111fd5760405160e560020a62461bcd028152600401610581906126f3565b600160a060020a0382166000908152600a60205260409020805482908110611227576112276127cf565b600091825260209091206002600390920201015460ff161561128e5760405160e560020a62461bcd02815260206004820152601960248201527f5472616e7366657220616c726561647920617070726f766564000000000000006044820152606401610581565b600160a060020a0382166000908152600a60205260409020805460019190839081106112bc576112bc6127cf565b60009182526020909120600390910201600201805460ff19169115159190911790555050565b600054600160a060020a0316331461130f5760405160e560020a62461bcd028152600401610581906126bc565b600160a060020a0381166000818152600160208190526040808320805460ff1916909217909155517f44d6d25963f097ad14f29f06854a01f575648a1ef82f30e562ccd3889717e3399190a250565b600054600160a060020a0316331461138b5760405160e560020a62461bcd028152600401610581906126bc565b60008054604051600160a060020a03909116907f8be0079c531659141344cd1fd0a4f28419497f9722a3daafe3b4186f6b6457e0908390a36000805473ffffffffffffffffffffffffffffffffffffffff19169055565b33600090815260036020818152604080842086855290915282200154900361141f5760405160e560020a62461bcd0281526004016105819061272a565b33600090815260036020908152604080832085845290915290206006015460ff16156114605760405160e560020a62461bcd02815260040161058190612761565b336000908152600a602090815260408083208151608081018352868152808401868152928101859052606081018590528154600181810184559286529390942084516003909402019283559051908201906114bb90826128bd565b506040828101516002909201805460609094015115156101000261ff00199315159390931661ffff199094169390931791909117909155336000908152600460209081529181208054600181018255908252919020019190915550565b6115436040518060800160405280600081526020016060815260200160008152602001600081525090565b6000828152600760205260409020805460ff191660011790556002600083815260200190815260200160002060405180608001604052908160008201548152602001600182018054611594906127e8565b80601f01602080910402602001604051908101604052809291908181526020018280546115c0906127e8565b801561160d5780601f106115e25761010080835404028352916020019161160d565b820191906000526020600020905b8154815290600101906020018083116115f057829003601f168201915b50505050508152602001600282015481526020016003820154815250509050919050565b6060600160a060020a03821661168c5760405160e560020a62461bcd02815260206004820152601760248201527f496e76616c69642073747564656e7420616464726573730000000000000000006044820152606401610581565b600160a060020a0382166000908152600a6020908152604080832080548251818502810185019093528083529193909284015b828210156117b65783829060005260206000209060030201604051806080016040529081600082015481526020016001820180546116fc906127e8565b80601f0160208091040260200160405190810160405280929190818152602001828054611728906127e8565b80156117755780601f1061174a57610100808354040283529160200191611775565b820191906000526020600020905b81548152906001019060200180831161175857829003601f168201915b50505091835250506002919091015460ff808216151560208085019190915261010090920416151560409092019190915290825260019290920191016116bf565b505050509050919050565b600260205260009081526040902080546001820180549192916117e3906127e8565b80601f016020809104026020016040519081016040528092919081815260200182805461180f906127e8565b801561185c5780601f106118315761010080835404028352916020019161185c565b820191906000526020600020905b81548152906001019060200180831161183f57829003601f168201915b5050505050908060020154908060030154905084565b3360009081526006602052604090205460ff166118d45760405160e560020a62461bcd02815260206004820152600d60248201527f4e6f7420612074656163686572000000000000000000000000000000000000006044820152606401610581565b600160a060020a038316600090815260036020818152604080842086855290915282200154900361191a5760405160e560020a62461bcd0281526004016105819061272a565b600160a060020a0383166119435760405160e560020a62461bcd02815260040161058190612798565b600160a060020a038316600090815260036020908152604080832085845290915290206006015460ff161561198d5760405160e560020a62461bcd02815260040161058190612761565b600160a060020a03831660009081526003602090815260408083208584529091528120600501546119bf906001612996565b600084815260026020819052604082200154919250906119df9084612857565b600160a060020a039590951660009081526003602090815260408083209683529590529390932060018082019590955560058101919091556002810191909155600401805460ff191690921790915550565b6004602052816000526040600020818154811061051057600080fd5b3360009081526001602052604090205460ff16611a7f5760405160e560020a62461bcd028152600401610581906126f3565b600160a060020a0382166000908152600a60205260409020805482908110611aa957611aa96127cf565b600091825260209091206002600390920201015460ff16611b0f5760405160e560020a62461bcd02815260206004820152601560248201527f5472616e73666572206e6f7420617070726f76656400000000000000000000006044820152606401610581565b600160a060020a0382166000908152600a60205260409020805482908110611b3957611b396127cf565b906000526020600020906003020160020160019054906101000a900460ff1615611ba85760405160e560020a62461bcd02815260206004820152601960248201527f5472616e7366657220616c7265616479206578656375746564000000000000006044820152606401610581565b600160a060020a0382166000908152600a60205260409020805482908110611bd257611bd26127cf565b60009182526020808320600160a060020a038616845260038083526040808620600a909452852080546001929095029092010193919285908110611c1857611c186127cf565b90600052602060002090600302016000015481526020019081526020016000206009019081611c4791906129a9565b50600160a060020a0382166000908152600a6020526040902080546001919083908110611c7657611c766127cf565b60009182526020808320600392830201600201805461ff0019166101009515159590950294909417909355600160a060020a038516825282526040808220600a9093528120805460019392919085908110611cd357611cd36127cf565b906000526020600020906003020160000154815260200190815260200160002060080160006101000a81548160ff0219169083151502179055505050565b3360009081526001602052604090205460ff16611d435760405160e560020a62461bcd028152600401610581906126f3565b60008381526007602052604090205460ff1615611da55760405160e560020a62461bcd02815260206004820152601560248201527f436f7572736520616c72656164792065786973747300000000000000000000006044820152606401610581565b6000838152600760209081526040808320805460ff19166001908117909155600880548083019091557ff3f7a9fe364faab93b216da50a3214154f22a0a2b415b23a84c8169e8b636ee30187905581516080810183528781528084018681528184018890524260608301528886526002909452919093208151815591519092820190611e3190826128bd565b5060408201516002820155606090910151600390910155505050565b60088181548110611e5d57600080fd5b600091825260209091200154905081565b6003602081815260009384526040808520909152918352912080546001820154600283015493830154600484015460058501546006860154600787018054969895979596949560ff94851695939490921692611ec9906127e8565b80601f0160208091040260200160405190810160405280929190818152602001828054611ef5906127e8565b8015611f425780601f10611f1757610100808354040283529160200191611f42565b820191906000526020600020905b815481529060010190602001808311611f2557829003601f168201915b5050506008840154600985018054949560ff909216949193509150611f66906127e8565b80601f0160208091040260200160405190810160405280929190818152602001828054611f92906127e8565b8015611fdf5780601f10611fb457610100808354040283529160200191611fdf565b820191906000526020600020905b815481529060010190602001808311611fc257829003601f168201915b505050505090508a565b600054600160a060020a031633146120165760405160e560020a62461bcd028152600401610581906126bc565b600160a060020a03811661206f5760405160e560020a62461bcd02815260206004820152600860248201527f6e657720697320300000000000000000000000000000000000000000000000006044820152606401610581565b60008054604051600160a060020a03808516939216917f8be0079c531659141344cd1fd0a4f28419497f9722a3daafe3b4186f6b6457e091a36000805473ffffffffffffffffffffffffffffffffffffffff1916600160a060020a0392909216919091179055565b604051806101400160405280600081526020016000815260200160008152602001600081526020016000151581526020016000815260200160001515815260200160608152602001600015158152602001606081525090565b8035600160a060020a038116811461214757600080fd5b919050565b6000806040838503121561215f57600080fd5b61216883612130565b946020939093013593505050565b60006020828403121561218857600080fd5b61219182612130565b9392505050565b6000815180845260005b818110156121be576020818501810151868301820152016121a2565b506000602082860101526020601f19601f83011685010191505092915050565b60208082528251828201819052600091906040908185019080840286018301878501865b838110156122bb57603f19898403018552815180518452878101518885015286810151878501526060808201519085015260808082015115159085015260a0808201519085015260c08082015115159085015260e080820151610140828701819052919061227283880182612198565b925050506101008083015161228a8288018215159052565b505061012080830151925085820381870152506122a78183612198565b968901969450505090860190600101612202565b509098975050505050505050565b8481526080602082015260006122e26080830186612198565b93151560408301525090151560609091015292915050565b60006020828403121561230c57600080fd5b5035919050565b60e060020a634e487b7102600052604160045260246000fd5b600082601f83011261233d57600080fd5b813567ffffffffffffffff8082111561235857612358612313565b604051601f8301601f19908116603f0116810190828211818310171561238057612380612313565b8160405283815286602085880101111561239957600080fd5b836020870160208301376000602085830101528094505050505092915050565b600080600080608085870312156123cf57600080fd5b6123d885612130565b93506020850135925060408501359150606085013567ffffffffffffffff81111561240257600080fd5b61240e8782880161232c565b91505092959194509250565b6020808252825182820181905260009190848201906040850190845b8181101561245257835183529284019291840191600101612436565b50909695505050505050565b6000806040838503121561247157600080fd5b82359150602083013567ffffffffffffffff81111561248f57600080fd5b61249b8582860161232c565b9150509250929050565b602081528151602082015260006020830151608060408401526124cb60a0840182612198565b905060408401516060840152606084015160808401528091505092915050565b60208082528251828201819052600091906040908185019080840286018301878501865b838110156122bb57603f19898403018552815160808151855288820151818a87015261253d82870182612198565b838a01511515878b0152606093840151151593909601929092525050938601939086019060010161250f565b8481526080602082015260006125826080830186612198565b6040830194909452506060015292915050565b6000806000606084860312156125aa57600080fd5b6125b384612130565b95602085013595506040909401359392505050565b6000806000606084860312156125dd57600080fd5b8335925060208401359150604084013567ffffffffffffffff81111561260257600080fd5b61260e8682870161232c565b9150509250925092565b6000806040838503121561262b57600080fd5b61263483612130565b915061264260208401612130565b90509250929050565b60006101408c83528b60208401528a604084015289606084015288151560808401528760a084015286151560c08401528060e084015261268d81840187612198565b90508415156101008401528281036101208401526126ab8185612198565b9d9c50505050505050505050505050565b60208082526006908201527f216f776e65720000000000000000000000000000000000000000000000000000604082015260600190565b6020808252600c908201527f4e6f7420616e2061646d696e0000000000000000000000000000000000000000604082015260600190565b60208082526015908201527f43726564697420646f6573206e6f742065786973740000000000000000000000604082015260600190565b60208082526016908201527f43726564697420616c7265616479207265766f6b656400000000000000000000604082015260600190565b6020808252600f908201527f496e76616c696420616464726573730000000000000000000000000000000000604082015260600190565b60e060020a634e487b7102600052603260045260246000fd5b6002810460018216806127fc57607f821691505b60208210810361281f5760e060020a634e487b7102600052602260045260246000fd5b50919050565b60e060020a634e487b7102600052601160045260246000fd5b60006001820161285057612850612825565b5060010190565b808202811582820484141761054e5761054e612825565b601f8211156128b8576000818152602081206020601f860104810160208610156128955750805b6020601f860104820191505b818110156128b4578281556001016128a1565b5050505b505050565b815167ffffffffffffffff8111156128d7576128d7612313565b6128eb816128e584546127e8565b8461286e565b602080601f83116001811461292457600084156129085750858301515b60028086026008870290910a60001904198216178655506128b4565b600085815260208120601f198616915b8281101561295357888601518255948401946001909101908401612934565b508582101561297357878501516008601f88160260020a60001904191681555b5050505050600202600101905550565b8181038181111561054e5761054e612825565b8082018082111561054e5761054e612825565b8181036129b4575050565b6129be82546127e8565b67ffffffffffffffff8111156129d6576129d6612313565b6129e4816128e584546127e8565b6000601f821160018114612a1c5760008315612a005750848201545b60028085026008860290910a6000190419821617855550612a83565b600085815260209020601f19841690600086815260209020845b83811015612a565782860154825560019586019590910190602001612a36565b5085831015612a7657818501546008601f88160260020a60001904191681555b5050506001600284020184555b505050505056fea26469706673582212209a55426682dc57d3abe3bfe055436dfbbe0368ff52f5e971e20c9ad1104d332464736f6c63430008140033",
					"opcodes": "PUSH1 0x80 PUSH1 0x40 MSTORE CALLVALUE DUP1 ISZERO PUSH2 0x10 JUMPI PUSH1 0x0 DUP1 REVERT JUMPDEST POP PUSH1 0x0 DUP1 SLOAD PUSH1 0x1 PUSH1 0xA0 PUSH1 0x2 EXP SUB NOT AND CALLER SWAP1 DUP2 OR DUP3 SSTORE PUSH1 0x40 MLOAD SWAP1 SWAP2 DUP3 SWAP2 PUSH32 0x8BE0079C531659141344CD1FD0A4F28419497F9722A3DAAFE3B4186F6B6457E0 SWAP1 DUP3 SWAP1 LOG3 POP PUSH2 0x2AC0 DUP1 PUSH2 0x61 PUSH1 0x0 CODECOPY PUSH1 0x0 RETURN INVALID PUSH1 0x80 PUSH1 0x40 MSTORE CALLVALUE DUP1 ISZERO PUSH2 0x10 JUMPI PUSH1 0x0 DUP1 REVERT JUMPDEST POP PUSH1 0x4 CALLDATASIZE LT PUSH2 0x1F7 JUMPI PUSH1 0x0 CALLDATALOAD PUSH29 0x100000000000000000000000000000000000000000000000000000000 SWAP1 DIV DUP1 PUSH4 0x715018A6 GT PUSH2 0x121 JUMPI DUP1 PUSH4 0xBCAB36F7 GT PUSH2 0xBF JUMPI DUP1 PUSH4 0xE2ED5A4E GT PUSH2 0x8E JUMPI DUP1 PUSH4 0xE2ED5A4E EQ PUSH2 0x482 JUMPI DUP1 PUSH4 0xF0A47F78 EQ PUSH2 0x495 JUMPI DUP1 PUSH4 0xF2012286 EQ PUSH2 0x4B8 JUMPI DUP1 PUSH4 0xF2FDE38B EQ PUSH2 0x4E1 JUMPI PUSH1 0x0 DUP1 REVERT JUMPDEST DUP1 PUSH4 0xBCAB36F7 EQ PUSH2 0x41E JUMPI DUP1 PUSH4 0xDBA8C55F EQ PUSH2 0x431 JUMPI DUP1 PUSH4 0xDCC63A16 EQ PUSH2 0x444 JUMPI DUP1 PUSH4 0xDD62ED3E EQ PUSH2 0x457 JUMPI PUSH1 0x0 DUP1 REVERT JUMPDEST DUP1 PUSH4 0x981059EE GT PUSH2 0xFB JUMPI DUP1 PUSH4 0x981059EE EQ PUSH2 0x3A8 JUMPI DUP1 PUSH4 0xA59742DF EQ PUSH2 0x3C8 JUMPI DUP1 PUSH4 0xB264A4A5 EQ PUSH2 0x3E8 JUMPI DUP1 PUSH4 0xB44E7D09 EQ PUSH2 0x40B JUMPI PUSH1 0x0 DUP1 REVERT JUMPDEST DUP1 PUSH4 0x715018A6 EQ PUSH2 0x372 JUMPI DUP1 PUSH4 0x75E7C425 EQ PUSH2 0x37A JUMPI DUP1 PUSH4 0x8DA5CB5B EQ PUSH2 0x38D JUMPI PUSH1 0x0 DUP1 REVERT JUMPDEST DUP1 PUSH4 0x4A5AD49E GT PUSH2 0x199 JUMPI DUP1 PUSH4 0x659CC07B GT PUSH2 0x168 JUMPI DUP1 PUSH4 0x659CC07B EQ PUSH2 0x324 JUMPI DUP1 PUSH4 0x68FDBD70 EQ PUSH2 0x337 JUMPI DUP1 PUSH4 0x6B105C81 EQ PUSH2 0x34C JUMPI DUP1 PUSH4 0x70480275 EQ PUSH2 0x35F JUMPI PUSH1 0x0 DUP1 REVERT JUMPDEST DUP1 PUSH4 0x4A5AD49E EQ PUSH2 0x2B8 JUMPI DUP1 PUSH4 0x52FF6846 EQ PUSH2 0x2DB JUMPI DUP1 PUSH4 0x5407B304 EQ PUSH2 0x2EE JUMPI DUP1 PUSH4 0x5BA75156 EQ PUSH2 0x311 JUMPI PUSH1 0x0 DUP1 REVERT JUMPDEST DUP1 PUSH4 0x24D7806C GT PUSH2 0x1D5 JUMPI DUP1 PUSH4 0x24D7806C EQ PUSH2 0x25A JUMPI DUP1 PUSH4 0x27F83AF9 EQ PUSH2 0x27D JUMPI DUP1 PUSH4 0x3BC6E309 EQ PUSH2 0x290 JUMPI DUP1 PUSH4 0x416D6499 EQ PUSH2 0x2A3 JUMPI PUSH1 0x0 DUP1 REVERT JUMPDEST DUP1 PUSH4 0x740C8CF EQ PUSH2 0x1FC JUMPI DUP1 PUSH4 0x95EA7B3 EQ PUSH2 0x222 JUMPI DUP1 PUSH4 0x1785F53C EQ PUSH2 0x245 JUMPI JUMPDEST PUSH1 0x0 DUP1 REVERT JUMPDEST PUSH2 0x20F PUSH2 0x20A CALLDATASIZE PUSH1 0x4 PUSH2 0x214C JUMP JUMPDEST PUSH2 0x4F4 JUMP JUMPDEST PUSH1 0x40 MLOAD SWAP1 DUP2 MSTORE PUSH1 0x20 ADD JUMPDEST PUSH1 0x40 MLOAD DUP1 SWAP2 SUB SWAP1 RETURN JUMPDEST PUSH2 0x235 PUSH2 0x230 CALLDATASIZE PUSH1 0x4 PUSH2 0x214C JUMP JUMPDEST PUSH2 0x525 JUMP JUMPDEST PUSH1 0x40 MLOAD SWAP1 ISZERO ISZERO DUP2 MSTORE PUSH1 0x20 ADD PUSH2 0x219 JUMP JUMPDEST PUSH2 0x258 PUSH2 0x253 CALLDATASIZE PUSH1 0x4 PUSH2 0x2176 JUMP JUMPDEST PUSH2 0x554 JUMP JUMPDEST STOP JUMPDEST PUSH2 0x235 PUSH2 0x268 CALLDATASIZE PUSH1 0x4 PUSH2 0x2176 JUMP JUMPDEST PUSH1 0x1 PUSH1 0x20 MSTORE PUSH1 0x0 SWAP1 DUP2 MSTORE PUSH1 0x40 SWAP1 KECCAK256 SLOAD PUSH1 0xFF AND DUP2 JUMP JUMPDEST PUSH2 0x258 PUSH2 0x28B CALLDATASIZE PUSH1 0x4 PUSH2 0x214C JUMP JUMPDEST PUSH2 0x5D3 JUMP JUMPDEST PUSH2 0x258 PUSH2 0x29E CALLDATASIZE PUSH1 0x4 PUSH2 0x2176 JUMP JUMPDEST PUSH2 0x6C8 JUMP JUMPDEST PUSH2 0x2AB PUSH2 0x747 JUMP JUMPDEST PUSH1 0x40 MLOAD PUSH2 0x219 SWAP2 SWAP1 PUSH2 0x21DE JUMP JUMPDEST PUSH2 0x2CB PUSH2 0x2C6 CALLDATASIZE PUSH1 0x4 PUSH2 0x214C JUMP JUMPDEST PUSH2 0x9CB JUMP JUMPDEST PUSH1 0x40 MLOAD PUSH2 0x219 SWAP5 SWAP4 SWAP3 SWAP2 SWAP1 PUSH2 0x22C9 JUMP JUMPDEST PUSH2 0x258 PUSH2 0x2E9 CALLDATASIZE PUSH1 0x4 PUSH2 0x2176 JUMP JUMPDEST PUSH2 0xAA6 JUMP JUMPDEST PUSH2 0x235 PUSH2 0x2FC CALLDATASIZE PUSH1 0x4 PUSH2 0x22FA JUMP JUMPDEST PUSH1 0x7 PUSH1 0x20 MSTORE PUSH1 0x0 SWAP1 DUP2 MSTORE PUSH1 0x40 SWAP1 KECCAK256 SLOAD PUSH1 0xFF AND DUP2 JUMP JUMPDEST PUSH2 0x258 PUSH2 0x31F CALLDATASIZE PUSH1 0x4 PUSH2 0x23B9 JUMP JUMPDEST PUSH2 0xB92 JUMP JUMPDEST PUSH2 0x2AB PUSH2 0x332 CALLDATASIZE PUSH1 0x4 PUSH2 0x2176 JUMP JUMPDEST PUSH2 0xE25 JUMP JUMPDEST PUSH2 0x33F PUSH2 0x1173 JUMP JUMPDEST PUSH1 0x40 MLOAD PUSH2 0x219 SWAP2 SWAP1 PUSH2 0x241A JUMP JUMPDEST PUSH2 0x258 PUSH2 0x35A CALLDATASIZE PUSH1 0x4 PUSH2 0x214C JUMP JUMPDEST PUSH2 0x11CB JUMP JUMPDEST PUSH2 0x258 PUSH2 0x36D CALLDATASIZE PUSH1 0x4 PUSH2 0x2176 JUMP JUMPDEST PUSH2 0x12E2 JUMP JUMPDEST PUSH2 0x258 PUSH2 0x135E JUMP JUMPDEST PUSH2 0x258 PUSH2 0x388 CALLDATASIZE PUSH1 0x4 PUSH2 0x245E JUMP JUMPDEST PUSH2 0x13E2 JUMP JUMPDEST PUSH1 0x0 SLOAD PUSH1 0x40 MLOAD PUSH1 0x1 PUSH1 0xA0 PUSH1 0x2 EXP SUB SWAP1 SWAP2 AND DUP2 MSTORE PUSH1 0x20 ADD PUSH2 0x219 JUMP JUMPDEST PUSH2 0x3BB PUSH2 0x3B6 CALLDATASIZE PUSH1 0x4 PUSH2 0x22FA JUMP JUMPDEST PUSH2 0x1518 JUMP JUMPDEST PUSH1 0x40 MLOAD PUSH2 0x219 SWAP2 SWAP1 PUSH2 0x24A5 JUMP JUMPDEST PUSH2 0x3DB PUSH2 0x3D6 CALLDATASIZE PUSH1 0x4 PUSH2 0x2176 JUMP JUMPDEST PUSH2 0x1631 JUMP JUMPDEST PUSH1 0x40 MLOAD PUSH2 0x219 SWAP2 SWAP1 PUSH2 0x24EB JUMP JUMPDEST PUSH2 0x3FB PUSH2 0x3F6 CALLDATASIZE PUSH1 0x4 PUSH2 0x22FA JUMP JUMPDEST PUSH2 0x17C1 JUMP JUMPDEST PUSH1 0x40 MLOAD PUSH2 0x219 SWAP5 SWAP4 SWAP3 SWAP2 SWAP1 PUSH2 0x2569 JUMP JUMPDEST PUSH2 0x258 PUSH2 0x419 CALLDATASIZE PUSH1 0x4 PUSH2 0x2595 JUMP JUMPDEST PUSH2 0x1872 JUMP JUMPDEST PUSH2 0x20F PUSH2 0x42C CALLDATASIZE PUSH1 0x4 PUSH2 0x214C JUMP JUMPDEST PUSH2 0x1A31 JUMP JUMPDEST PUSH2 0x258 PUSH2 0x43F CALLDATASIZE PUSH1 0x4 PUSH2 0x214C JUMP JUMPDEST PUSH2 0x1A4D JUMP JUMPDEST PUSH2 0x258 PUSH2 0x452 CALLDATASIZE PUSH1 0x4 PUSH2 0x25C8 JUMP JUMPDEST PUSH2 0x1D11 JUMP JUMPDEST PUSH2 0x20F PUSH2 0x465 CALLDATASIZE PUSH1 0x4 PUSH2 0x2618 JUMP JUMPDEST PUSH1 0x9 PUSH1 0x20 SWAP1 DUP2 MSTORE PUSH1 0x0 SWAP3 DUP4 MSTORE PUSH1 0x40 DUP1 DUP5 KECCAK256 SWAP1 SWAP2 MSTORE SWAP1 DUP3 MSTORE SWAP1 KECCAK256 SLOAD DUP2 JUMP JUMPDEST PUSH2 0x20F PUSH2 0x490 CALLDATASIZE PUSH1 0x4 PUSH2 0x22FA JUMP JUMPDEST PUSH2 0x1E4D JUMP JUMPDEST PUSH2 0x235 PUSH2 0x4A3 CALLDATASIZE PUSH1 0x4 PUSH2 0x2176 JUMP JUMPDEST PUSH1 0x6 PUSH1 0x20 MSTORE PUSH1 0x0 SWAP1 DUP2 MSTORE PUSH1 0x40 SWAP1 KECCAK256 SLOAD PUSH1 0xFF AND DUP2 JUMP JUMPDEST PUSH2 0x4CB PUSH2 0x4C6 CALLDATASIZE PUSH1 0x4 PUSH2 0x214C JUMP JUMPDEST PUSH2 0x1E6E JUMP JUMPDEST PUSH1 0x40 MLOAD PUSH2 0x219 SWAP11 SWAP10 SWAP9 SWAP8 SWAP7 SWAP6 SWAP5 SWAP4 SWAP3 SWAP2 SWAP1 PUSH2 0x264B JUMP JUMPDEST PUSH2 0x258 PUSH2 0x4EF CALLDATASIZE PUSH1 0x4 PUSH2 0x2176 JUMP JUMPDEST PUSH2 0x1FE9 JUMP JUMPDEST PUSH1 0x5 PUSH1 0x20 MSTORE DUP2 PUSH1 0x0 MSTORE PUSH1 0x40 PUSH1 0x0 KECCAK256 DUP2 DUP2 SLOAD DUP2 LT PUSH2 0x510 JUMPI PUSH1 0x0 DUP1 REVERT JUMPDEST SWAP1 PUSH1 0x0 MSTORE PUSH1 0x20 PUSH1 0x0 KECCAK256 ADD PUSH1 0x0 SWAP2 POP SWAP2 POP POP SLOAD DUP2 JUMP JUMPDEST CALLER PUSH1 0x0 SWAP1 DUP2 MSTORE PUSH1 0x9 PUSH1 0x20 SWAP1 DUP2 MSTORE PUSH1 0x40 DUP1 DUP4 KECCAK256 PUSH1 0x1 PUSH1 0xA0 PUSH1 0x2 EXP SUB DUP7 AND DUP5 MSTORE SWAP1 SWAP2 MSTORE SWAP1 KECCAK256 DUP2 SWAP1 SSTORE PUSH1 0x1 JUMPDEST SWAP3 SWAP2 POP POP JUMP JUMPDEST PUSH1 0x0 SLOAD PUSH1 0x1 PUSH1 0xA0 PUSH1 0x2 EXP SUB AND CALLER EQ PUSH2 0x58A JUMPI PUSH1 0x40 MLOAD PUSH1 0xE5 PUSH1 0x2 EXP PUSH3 0x461BCD MUL DUP2 MSTORE PUSH1 0x4 ADD PUSH2 0x581 SWAP1 PUSH2 0x26BC JUMP JUMPDEST PUSH1 0x40 MLOAD DUP1 SWAP2 SUB SWAP1 REVERT JUMPDEST PUSH1 0x1 PUSH1 0xA0 PUSH1 0x2 EXP SUB DUP2 AND PUSH1 0x0 DUP2 DUP2 MSTORE PUSH1 0x1 PUSH1 0x20 MSTORE PUSH1 0x40 DUP1 DUP3 KECCAK256 DUP1 SLOAD PUSH1 0xFF NOT AND SWAP1 SSTORE MLOAD PUSH32 0xA3B62BC36326052D97EA62D63C3D60308ED4C3EA8AC079DD8499F1E9C4F80C0F SWAP2 SWAP1 LOG2 POP JUMP JUMPDEST CALLER PUSH1 0x0 SWAP1 DUP2 MSTORE PUSH1 0x1 PUSH1 0x20 MSTORE PUSH1 0x40 SWAP1 KECCAK256 SLOAD PUSH1 0xFF AND PUSH2 0x605 JUMPI PUSH1 0x40 MLOAD PUSH1 0xE5 PUSH1 0x2 EXP PUSH3 0x461BCD MUL DUP2 MSTORE PUSH1 0x4 ADD PUSH2 0x581 SWAP1 PUSH2 0x26F3 JUMP JUMPDEST PUSH1 0x1 PUSH1 0xA0 PUSH1 0x2 EXP SUB DUP3 AND PUSH1 0x0 SWAP1 DUP2 MSTORE PUSH1 0x3 PUSH1 0x20 DUP2 DUP2 MSTORE PUSH1 0x40 DUP1 DUP5 KECCAK256 DUP6 DUP6 MSTORE SWAP1 SWAP2 MSTORE DUP3 KECCAK256 ADD SLOAD SWAP1 SUB PUSH2 0x64B JUMPI PUSH1 0x40 MLOAD PUSH1 0xE5 PUSH1 0x2 EXP PUSH3 0x461BCD MUL DUP2 MSTORE PUSH1 0x4 ADD PUSH2 0x581 SWAP1 PUSH2 0x272A JUMP JUMPDEST PUSH1 0x1 PUSH1 0xA0 PUSH1 0x2 EXP SUB DUP3 AND PUSH1 0x0 SWAP1 DUP2 MSTORE PUSH1 0x3 PUSH1 0x20 SWAP1 DUP2 MSTORE PUSH1 0x40 DUP1 DUP4 KECCAK256 DUP5 DUP5 MSTORE SWAP1 SWAP2 MSTORE SWAP1 KECCAK256 PUSH1 0x6 ADD SLOAD PUSH1 0xFF AND ISZERO PUSH2 0x695 JUMPI PUSH1 0x40 MLOAD PUSH1 0xE5 PUSH1 0x2 EXP PUSH3 0x461BCD MUL DUP2 MSTORE PUSH1 0x4 ADD PUSH2 0x581 SWAP1 PUSH2 0x2761 JUMP JUMPDEST PUSH1 0x1 PUSH1 0xA0 PUSH1 0x2 EXP SUB SWAP1 SWAP2 AND PUSH1 0x0 SWAP1 DUP2 MSTORE PUSH1 0x3 PUSH1 0x20 SWAP1 DUP2 MSTORE PUSH1 0x40 DUP1 DUP4 KECCAK256 SWAP4 DUP4 MSTORE SWAP3 SWAP1 MSTORE KECCAK256 PUSH1 0x6 ADD DUP1 SLOAD PUSH1 0xFF NOT AND PUSH1 0x1 OR SWAP1 SSTORE JUMP JUMPDEST CALLER PUSH1 0x0 SWAP1 DUP2 MSTORE PUSH1 0x1 PUSH1 0x20 MSTORE PUSH1 0x40 SWAP1 KECCAK256 SLOAD PUSH1 0xFF AND PUSH2 0x6FA JUMPI PUSH1 0x40 MLOAD PUSH1 0xE5 PUSH1 0x2 EXP PUSH3 0x461BCD MUL DUP2 MSTORE PUSH1 0x4 ADD PUSH2 0x581 SWAP1 PUSH2 0x26F3 JUMP JUMPDEST PUSH1 0x1 PUSH1 0xA0 PUSH1 0x2 EXP SUB DUP2 AND PUSH2 0x723 JUMPI PUSH1 0x40 MLOAD PUSH1 0xE5 PUSH1 0x2 EXP PUSH3 0x461BCD MUL DUP2 MSTORE PUSH1 0x4 ADD PUSH2 0x581 SWAP1 PUSH2 0x2798 JUMP JUMPDEST PUSH1 0x1 PUSH1 0xA0 PUSH1 0x2 EXP SUB AND PUSH1 0x0 SWAP1 DUP2 MSTORE PUSH1 0x6 PUSH1 0x20 MSTORE PUSH1 0x40 SWAP1 KECCAK256 DUP1 SLOAD PUSH1 0xFF NOT AND PUSH1 0x1 OR SWAP1 SSTORE JUMP JUMPDEST CALLER PUSH1 0x0 SWAP1 DUP2 MSTORE PUSH1 0x5 PUSH1 0x20 MSTORE PUSH1 0x40 SWAP1 KECCAK256 SLOAD PUSH1 0x60 SWAP1 DUP1 PUSH8 0xFFFFFFFFFFFFFFFF DUP2 GT ISZERO PUSH2 0x773 JUMPI PUSH2 0x773 PUSH2 0x2313 JUMP JUMPDEST PUSH1 0x40 MLOAD SWAP1 DUP1 DUP3 MSTORE DUP1 PUSH1 0x20 MUL PUSH1 0x20 ADD DUP3 ADD PUSH1 0x40 MSTORE DUP1 ISZERO PUSH2 0x7AC JUMPI DUP2 PUSH1 0x20 ADD JUMPDEST PUSH2 0x799 PUSH2 0x20D7 JUMP JUMPDEST DUP2 MSTORE PUSH1 0x20 ADD SWAP1 PUSH1 0x1 SWAP1 SUB SWAP1 DUP2 PUSH2 0x791 JUMPI SWAP1 POP JUMPDEST POP SWAP2 POP PUSH1 0x0 JUMPDEST DUP2 DUP2 LT ISZERO PUSH2 0x9C6 JUMPI CALLER PUSH1 0x0 SWAP1 DUP2 MSTORE PUSH1 0x5 PUSH1 0x20 MSTORE PUSH1 0x40 DUP2 KECCAK256 DUP1 SLOAD DUP4 SWAP1 DUP2 LT PUSH2 0x7DB JUMPI PUSH2 0x7DB PUSH2 0x27CF JUMP JUMPDEST PUSH1 0x0 SWAP2 DUP3 MSTORE PUSH1 0x20 DUP1 DUP4 KECCAK256 SWAP1 SWAP2 ADD SLOAD CALLER DUP4 MSTORE PUSH1 0x3 DUP1 DUP4 MSTORE PUSH1 0x40 DUP1 DUP6 KECCAK256 DUP4 DUP7 MSTORE DUP5 MSTORE SWAP4 DUP5 SWAP1 KECCAK256 DUP5 MLOAD PUSH2 0x140 DUP2 ADD DUP7 MSTORE DUP2 SLOAD DUP2 MSTORE PUSH1 0x1 DUP3 ADD SLOAD SWAP5 DUP2 ADD SWAP5 SWAP1 SWAP5 MSTORE PUSH1 0x2 DUP2 ADD SLOAD SWAP5 DUP5 ADD SWAP5 SWAP1 SWAP5 MSTORE DUP4 ADD SLOAD PUSH1 0x60 DUP4 ADD MSTORE PUSH1 0x4 DUP4 ADD SLOAD PUSH1 0xFF SWAP1 DUP2 AND ISZERO ISZERO PUSH1 0x80 DUP5 ADD MSTORE PUSH1 0x5 DUP5 ADD SLOAD PUSH1 0xA0 DUP5 ADD MSTORE PUSH1 0x6 DUP5 ADD SLOAD AND ISZERO ISZERO PUSH1 0xC0 DUP4 ADD MSTORE PUSH1 0x7 DUP4 ADD DUP1 SLOAD SWAP2 SWAP5 POP SWAP2 SWAP3 SWAP2 PUSH1 0xE0 DUP5 ADD SWAP2 PUSH2 0x86E SWAP1 PUSH2 0x27E8 JUMP JUMPDEST DUP1 PUSH1 0x1F ADD PUSH1 0x20 DUP1 SWAP2 DIV MUL PUSH1 0x20 ADD PUSH1 0x40 MLOAD SWAP1 DUP2 ADD PUSH1 0x40 MSTORE DUP1 SWAP3 SWAP2 SWAP1 DUP2 DUP2 MSTORE PUSH1 0x20 ADD DUP3 DUP1 SLOAD PUSH2 0x89A SWAP1 PUSH2 0x27E8 JUMP JUMPDEST DUP1 ISZERO PUSH2 0x8E7 JUMPI DUP1 PUSH1 0x1F LT PUSH2 0x8BC JUMPI PUSH2 0x100 DUP1 DUP4 SLOAD DIV MUL DUP4 MSTORE SWAP2 PUSH1 0x20 ADD SWAP2 PUSH2 0x8E7 JUMP JUMPDEST DUP3 ADD SWAP2 SWAP1 PUSH1 0x0 MSTORE PUSH1 0x20 PUSH1 0x0 KECCAK256 SWAP1 JUMPDEST DUP2 SLOAD DUP2 MSTORE SWAP1 PUSH1 0x1 ADD SWAP1 PUSH1 0x20 ADD DUP1 DUP4 GT PUSH2 0x8CA JUMPI DUP3 SWAP1 SUB PUSH1 0x1F AND DUP3 ADD SWAP2 JUMPDEST POP POP POP SWAP2 DUP4 MSTORE POP POP PUSH1 0x8 DUP3 ADD SLOAD PUSH1 0xFF AND ISZERO ISZERO PUSH1 0x20 DUP3 ADD MSTORE PUSH1 0x9 DUP3 ADD DUP1 SLOAD PUSH1 0x40 SWAP1 SWAP3 ADD SWAP2 PUSH2 0x913 SWAP1 PUSH2 0x27E8 JUMP JUMPDEST DUP1 PUSH1 0x1F ADD PUSH1 0x20 DUP1 SWAP2 DIV MUL PUSH1 0x20 ADD PUSH1 0x40 MLOAD SWAP1 DUP2 ADD PUSH1 0x40 MSTORE DUP1 SWAP3 SWAP2 SWAP1 DUP2 DUP2 MSTORE PUSH1 0x20 ADD DUP3 DUP1 SLOAD PUSH2 0x93F SWAP1 PUSH2 0x27E8 JUMP JUMPDEST DUP1 ISZERO PUSH2 0x98C JUMPI DUP1 PUSH1 0x1F LT PUSH2 0x961 JUMPI PUSH2 0x100 DUP1 DUP4 SLOAD DIV MUL DUP4 MSTORE SWAP2 PUSH1 0x20 ADD SWAP2 PUSH2 0x98C JUMP JUMPDEST DUP3 ADD SWAP2 SWAP1 PUSH1 0x0 MSTORE PUSH1 0x20 PUSH1 0x0 KECCAK256 SWAP1 JUMPDEST DUP2 SLOAD DUP2 MSTORE SWAP1 PUSH1 0x1 ADD SWAP1 PUSH1 0x20 ADD DUP1 DUP4 GT PUSH2 0x96F JUMPI DUP3 SWAP1 SUB PUSH1 0x1F AND DUP3 ADD SWAP2 JUMPDEST POP POP POP POP POP DUP2 MSTORE POP POP DUP5 DUP4 DUP2 MLOAD DUP2 LT PUSH2 0x9A7 JUMPI PUSH2 0x9A7 PUSH2 0x27CF JUMP JUMPDEST PUSH1 0x20 MUL PUSH1 0x20 ADD ADD DUP2 SWAP1 MSTORE POP POP DUP1 DUP1 PUSH2 0x9BE SWAP1 PUSH2 0x283E JUMP JUMPDEST SWAP2 POP POP PUSH2 0x7B2 JUMP JUMPDEST POP POP SWAP1 JUMP JUMPDEST PUSH1 0xA PUSH1 0x20 MSTORE DUP2 PUSH1 0x0 MSTORE PUSH1 0x40 PUSH1 0x0 KECCAK256 DUP2 DUP2 SLOAD DUP2 LT PUSH2 0x9E7 JUMPI PUSH1 0x0 DUP1 REVERT JUMPDEST SWAP1 PUSH1 0x0 MSTORE PUSH1 0x20 PUSH1 0x0 KECCAK256 SWAP1 PUSH1 0x3 MUL ADD PUSH1 0x0 SWAP2 POP SWAP2 POP POP DUP1 PUSH1 0x0 ADD SLOAD SWAP1 DUP1 PUSH1 0x1 ADD DUP1 SLOAD PUSH2 0xA11 SWAP1 PUSH2 0x27E8 JUMP JUMPDEST DUP1 PUSH1 0x1F ADD PUSH1 0x20 DUP1 SWAP2 DIV MUL PUSH1 0x20 ADD PUSH1 0x40 MLOAD SWAP1 DUP2 ADD PUSH1 0x40 MSTORE DUP1 SWAP3 SWAP2 SWAP1 DUP2 DUP2 MSTORE PUSH1 0x20 ADD DUP3 DUP1 SLOAD PUSH2 0xA3D SWAP1 PUSH2 0x27E8 JUMP JUMPDEST DUP1 ISZERO PUSH2 0xA8A JUMPI DUP1 PUSH1 0x1F LT PUSH2 0xA5F JUMPI PUSH2 0x100 DUP1 DUP4 SLOAD DIV MUL DUP4 MSTORE SWAP2 PUSH1 0x20 ADD SWAP2 PUSH2 0xA8A JUMP JUMPDEST DUP3 ADD SWAP2 SWAP1 PUSH1 0x0 MSTORE PUSH1 0x20 PUSH1 0x0 KECCAK256 SWAP1 JUMPDEST DUP2 SLOAD DUP2 MSTORE SWAP1 PUSH1 0x1 ADD SWAP1 PUSH1 0x20 ADD DUP1 DUP4 GT PUSH2 0xA6D JUMPI DUP3 SWAP1 SUB PUSH1 0x1F AND DUP3 ADD SWAP2 JUMPDEST POP POP POP PUSH1 0x2 SWAP1 SWAP4 ADD SLOAD SWAP2 SWAP3 POP POP PUSH1 0xFF DUP1 DUP3 AND SWAP2 PUSH2 0x100 SWAP1 DIV AND DUP5 JUMP JUMPDEST CALLER PUSH1 0x0 SWAP1 DUP2 MSTORE PUSH1 0x1 PUSH1 0x20 MSTORE PUSH1 0x40 SWAP1 KECCAK256 SLOAD PUSH1 0xFF AND PUSH2 0xAD8 JUMPI PUSH1 0x40 MLOAD PUSH1 0xE5 PUSH1 0x2 EXP PUSH3 0x461BCD MUL DUP2 MSTORE PUSH1 0x4 ADD PUSH2 0x581 SWAP1 PUSH2 0x26F3 JUMP JUMPDEST PUSH1 0x1 PUSH1 0xA0 PUSH1 0x2 EXP SUB DUP2 AND PUSH2 0xB01 JUMPI PUSH1 0x40 MLOAD PUSH1 0xE5 PUSH1 0x2 EXP PUSH3 0x461BCD MUL DUP2 MSTORE PUSH1 0x4 ADD PUSH2 0x581 SWAP1 PUSH2 0x2798 JUMP JUMPDEST PUSH1 0x1 PUSH1 0xA0 PUSH1 0x2 EXP SUB DUP2 AND PUSH1 0x0 SWAP1 DUP2 MSTORE PUSH1 0x6 PUSH1 0x20 MSTORE PUSH1 0x40 SWAP1 KECCAK256 SLOAD PUSH1 0xFF AND ISZERO ISZERO PUSH1 0x1 EQ PUSH2 0xB71 JUMPI PUSH1 0x40 MLOAD PUSH1 0xE5 PUSH1 0x2 EXP PUSH3 0x461BCD MUL DUP2 MSTORE PUSH1 0x20 PUSH1 0x4 DUP3 ADD MSTORE PUSH1 0x19 PUSH1 0x24 DUP3 ADD MSTORE PUSH32 0x6164647265737320617265206E6F742061207465616368657200000000000000 PUSH1 0x44 DUP3 ADD MSTORE PUSH1 0x64 ADD PUSH2 0x581 JUMP JUMPDEST PUSH1 0x1 PUSH1 0xA0 PUSH1 0x2 EXP SUB AND PUSH1 0x0 SWAP1 DUP2 MSTORE PUSH1 0x6 PUSH1 0x20 MSTORE PUSH1 0x40 SWAP1 KECCAK256 DUP1 SLOAD PUSH1 0xFF NOT AND SWAP1 SSTORE JUMP JUMPDEST CALLER PUSH1 0x0 SWAP1 DUP2 MSTORE PUSH1 0x6 PUSH1 0x20 MSTORE PUSH1 0x40 SWAP1 KECCAK256 SLOAD PUSH1 0xFF AND PUSH2 0xBF4 JUMPI PUSH1 0x40 MLOAD PUSH1 0xE5 PUSH1 0x2 EXP PUSH3 0x461BCD MUL DUP2 MSTORE PUSH1 0x20 PUSH1 0x4 DUP3 ADD MSTORE PUSH1 0xD PUSH1 0x24 DUP3 ADD MSTORE PUSH32 0x4E6F742061207465616368657200000000000000000000000000000000000000 PUSH1 0x44 DUP3 ADD MSTORE PUSH1 0x64 ADD PUSH2 0x581 JUMP JUMPDEST PUSH1 0x1 PUSH1 0xA0 PUSH1 0x2 EXP SUB DUP5 AND PUSH2 0xC1D JUMPI PUSH1 0x40 MLOAD PUSH1 0xE5 PUSH1 0x2 EXP PUSH3 0x461BCD MUL DUP2 MSTORE PUSH1 0x4 ADD PUSH2 0x581 SWAP1 PUSH2 0x2798 JUMP JUMPDEST PUSH1 0x0 DUP4 DUP2 MSTORE PUSH1 0x7 PUSH1 0x20 MSTORE PUSH1 0x40 SWAP1 KECCAK256 SLOAD PUSH1 0xFF AND ISZERO ISZERO PUSH1 0x1 EQ PUSH2 0xC83 JUMPI PUSH1 0x40 MLOAD PUSH1 0xE5 PUSH1 0x2 EXP PUSH3 0x461BCD MUL DUP2 MSTORE PUSH1 0x20 PUSH1 0x4 DUP3 ADD MSTORE PUSH1 0xF PUSH1 0x24 DUP3 ADD MSTORE PUSH32 0x636F75727365206E6F7420657869740000000000000000000000000000000000 PUSH1 0x44 DUP3 ADD MSTORE PUSH1 0x64 ADD PUSH2 0x581 JUMP JUMPDEST PUSH1 0x0 DUP4 DUP2 MSTORE PUSH1 0x2 PUSH1 0x20 DUP2 SWAP1 MSTORE PUSH1 0x40 DUP3 KECCAK256 ADD SLOAD TIMESTAMP SWAP2 PUSH2 0xCA1 DUP3 DUP7 PUSH2 0x2857 JUMP JUMPDEST SWAP1 POP PUSH1 0x40 MLOAD DUP1 PUSH2 0x140 ADD PUSH1 0x40 MSTORE DUP1 DUP8 DUP2 MSTORE PUSH1 0x20 ADD DUP3 DUP2 MSTORE PUSH1 0x20 ADD DUP7 DUP2 MSTORE PUSH1 0x20 ADD DUP5 DUP2 MSTORE PUSH1 0x20 ADD PUSH1 0x0 ISZERO ISZERO DUP2 MSTORE PUSH1 0x20 ADD PUSH1 0x0 DUP2 MSTORE PUSH1 0x20 ADD PUSH1 0x0 ISZERO ISZERO DUP2 MSTORE PUSH1 0x20 ADD DUP6 DUP2 MSTORE PUSH1 0x20 ADD PUSH1 0x0 ISZERO ISZERO DUP2 MSTORE PUSH1 0x20 ADD PUSH1 0x40 MLOAD DUP1 PUSH1 0x20 ADD PUSH1 0x40 MSTORE DUP1 PUSH1 0x0 DUP2 MSTORE POP DUP2 MSTORE POP PUSH1 0x3 PUSH1 0x0 DUP10 PUSH1 0x1 PUSH1 0xA0 PUSH1 0x2 EXP SUB AND PUSH1 0x1 PUSH1 0xA0 PUSH1 0x2 EXP SUB AND DUP2 MSTORE PUSH1 0x20 ADD SWAP1 DUP2 MSTORE PUSH1 0x20 ADD PUSH1 0x0 KECCAK256 PUSH1 0x0 DUP9 DUP2 MSTORE PUSH1 0x20 ADD SWAP1 DUP2 MSTORE PUSH1 0x20 ADD PUSH1 0x0 KECCAK256 PUSH1 0x0 DUP3 ADD MLOAD DUP2 PUSH1 0x0 ADD SSTORE PUSH1 0x20 DUP3 ADD MLOAD DUP2 PUSH1 0x1 ADD SSTORE PUSH1 0x40 DUP3 ADD MLOAD DUP2 PUSH1 0x2 ADD SSTORE PUSH1 0x60 DUP3 ADD MLOAD DUP2 PUSH1 0x3 ADD SSTORE PUSH1 0x80 DUP3 ADD MLOAD DUP2 PUSH1 0x4 ADD PUSH1 0x0 PUSH2 0x100 EXP DUP2 SLOAD DUP2 PUSH1 0xFF MUL NOT AND SWAP1 DUP4 ISZERO ISZERO MUL OR SWAP1 SSTORE POP PUSH1 0xA0 DUP3 ADD MLOAD DUP2 PUSH1 0x5 ADD SSTORE PUSH1 0xC0 DUP3 ADD MLOAD DUP2 PUSH1 0x6 ADD PUSH1 0x0 PUSH2 0x100 EXP DUP2 SLOAD DUP2 PUSH1 0xFF MUL NOT AND SWAP1 DUP4 ISZERO ISZERO MUL OR SWAP1 SSTORE POP PUSH1 0xE0 DUP3 ADD MLOAD DUP2 PUSH1 0x7 ADD SWAP1 DUP2 PUSH2 0xDBF SWAP2 SWAP1 PUSH2 0x28BD JUMP JUMPDEST POP PUSH2 0x100 DUP3 ADD MLOAD PUSH1 0x8 DUP3 ADD DUP1 SLOAD PUSH1 0xFF NOT AND SWAP2 ISZERO ISZERO SWAP2 SWAP1 SWAP2 OR SWAP1 SSTORE PUSH2 0x120 DUP3 ADD MLOAD PUSH1 0x9 DUP3 ADD SWAP1 PUSH2 0xDEE SWAP1 DUP3 PUSH2 0x28BD JUMP JUMPDEST POP POP POP PUSH1 0x1 PUSH1 0xA0 PUSH1 0x2 EXP SUB SWAP1 SWAP7 AND PUSH1 0x0 SWAP1 DUP2 MSTORE PUSH1 0x5 PUSH1 0x20 SWAP1 DUP2 MSTORE PUSH1 0x40 DUP3 KECCAK256 DUP1 SLOAD PUSH1 0x1 DUP2 ADD DUP3 SSTORE SWAP1 DUP4 MSTORE SWAP2 KECCAK256 ADD SWAP5 SWAP1 SWAP5 SSTORE POP POP POP POP POP JUMP JUMPDEST PUSH1 0x1 PUSH1 0xA0 PUSH1 0x2 EXP SUB DUP2 AND PUSH1 0x0 SWAP1 DUP2 MSTORE PUSH1 0x9 PUSH1 0x20 SWAP1 DUP2 MSTORE PUSH1 0x40 DUP1 DUP4 KECCAK256 CALLER DUP5 MSTORE SWAP1 SWAP2 MSTORE SWAP1 KECCAK256 SLOAD PUSH1 0x60 SWAP1 PUSH2 0xE9B JUMPI PUSH1 0x40 MLOAD PUSH1 0xE5 PUSH1 0x2 EXP PUSH3 0x461BCD MUL DUP2 MSTORE PUSH1 0x20 PUSH1 0x4 DUP3 ADD MSTORE PUSH1 0x15 PUSH1 0x24 DUP3 ADD MSTORE PUSH32 0x796F7520646F206E6F7420626520616C6C6F7765640000000000000000000000 PUSH1 0x44 DUP3 ADD MSTORE PUSH1 0x64 ADD PUSH2 0x581 JUMP JUMPDEST PUSH1 0x1 PUSH1 0xA0 PUSH1 0x2 EXP SUB DUP3 AND PUSH1 0x0 SWAP1 DUP2 MSTORE PUSH1 0x5 PUSH1 0x20 MSTORE PUSH1 0x40 SWAP1 KECCAK256 SLOAD DUP1 PUSH8 0xFFFFFFFFFFFFFFFF DUP2 GT ISZERO PUSH2 0xECD JUMPI PUSH2 0xECD PUSH2 0x2313 JUMP JUMPDEST PUSH1 0x40 MLOAD SWAP1 DUP1 DUP3 MSTORE DUP1 PUSH1 0x20 MUL PUSH1 0x20 ADD DUP3 ADD PUSH1 0x40 MSTORE DUP1 ISZERO PUSH2 0xF06 JUMPI DUP2 PUSH1 0x20 ADD JUMPDEST PUSH2 0xEF3 PUSH2 0x20D7 JUMP JUMPDEST DUP2 MSTORE PUSH1 0x20 ADD SWAP1 PUSH1 0x1 SWAP1 SUB SWAP1 DUP2 PUSH2 0xEEB JUMPI SWAP1 POP JUMPDEST POP SWAP2 POP PUSH1 0x0 JUMPDEST DUP2 DUP2 LT ISZERO PUSH2 0x1132 JUMPI PUSH1 0x1 PUSH1 0xA0 PUSH1 0x2 EXP SUB DUP5 AND PUSH1 0x0 SWAP1 DUP2 MSTORE PUSH1 0x5 PUSH1 0x20 MSTORE PUSH1 0x40 DUP2 KECCAK256 DUP1 SLOAD DUP4 SWAP1 DUP2 LT PUSH2 0xF3E JUMPI PUSH2 0xF3E PUSH2 0x27CF JUMP JUMPDEST PUSH1 0x0 SWAP2 DUP3 MSTORE PUSH1 0x20 DUP1 DUP4 KECCAK256 SWAP1 SWAP2 ADD SLOAD PUSH1 0x1 PUSH1 0xA0 PUSH1 0x2 EXP SUB DUP9 AND DUP4 MSTORE PUSH1 0x3 DUP1 DUP4 MSTORE PUSH1 0x40 DUP1 DUP6 KECCAK256 DUP4 DUP7 MSTORE DUP5 MSTORE SWAP4 DUP5 SWAP1 KECCAK256 DUP5 MLOAD PUSH2 0x140 DUP2 ADD DUP7 MSTORE DUP2 SLOAD DUP2 MSTORE PUSH1 0x1 DUP3 ADD SLOAD SWAP5 DUP2 ADD SWAP5 SWAP1 SWAP5 MSTORE PUSH1 0x2 DUP2 ADD SLOAD SWAP5 DUP5 ADD SWAP5 SWAP1 SWAP5 MSTORE DUP4 ADD SLOAD PUSH1 0x60 DUP4 ADD MSTORE PUSH1 0x4 DUP4 ADD SLOAD PUSH1 0xFF SWAP1 DUP2 AND ISZERO ISZERO PUSH1 0x80 DUP5 ADD MSTORE PUSH1 0x5 DUP5 ADD SLOAD PUSH1 0xA0 DUP5 ADD MSTORE PUSH1 0x6 DUP5 ADD SLOAD AND ISZERO ISZERO PUSH1 0xC0 DUP4 ADD MSTORE PUSH1 0x7 DUP4 ADD DUP1 SLOAD SWAP2 SWAP5 POP SWAP2 SWAP3 SWAP2 PUSH1 0xE0 DUP5 ADD SWAP2 PUSH2 0xFDA SWAP1 PUSH2 0x27E8 JUMP JUMPDEST DUP1 PUSH1 0x1F ADD PUSH1 0x20 DUP1 SWAP2 DIV MUL PUSH1 0x20 ADD PUSH1 0x40 MLOAD SWAP1 DUP2 ADD PUSH1 0x40 MSTORE DUP1 SWAP3 SWAP2 SWAP1 DUP2 DUP2 MSTORE PUSH1 0x20 ADD DUP3 DUP1 SLOAD PUSH2 0x1006 SWAP1 PUSH2 0x27E8 JUMP JUMPDEST DUP1 ISZERO PUSH2 0x1053 JUMPI DUP1 PUSH1 0x1F LT PUSH2 0x1028 JUMPI PUSH2 0x100 DUP1 DUP4 SLOAD DIV MUL DUP4 MSTORE SWAP2 PUSH1 0x20 ADD SWAP2 PUSH2 0x1053 JUMP JUMPDEST DUP3 ADD SWAP2 SWAP1 PUSH1 0x0 MSTORE PUSH1 0x20 PUSH1 0x0 KECCAK256 SWAP1 JUMPDEST DUP2 SLOAD DUP2 MSTORE SWAP1 PUSH1 0x1 ADD SWAP1 PUSH1 0x20 ADD DUP1 DUP4 GT PUSH2 0x1036 JUMPI DUP3 SWAP1 SUB PUSH1 0x1F AND DUP3 ADD SWAP2 JUMPDEST POP POP POP SWAP2 DUP4 MSTORE POP POP PUSH1 0x8 DUP3 ADD SLOAD PUSH1 0xFF AND ISZERO ISZERO PUSH1 0x20 DUP3 ADD MSTORE PUSH1 0x9 DUP3 ADD DUP1 SLOAD PUSH1 0x40 SWAP1 SWAP3 ADD SWAP2 PUSH2 0x107F SWAP1 PUSH2 0x27E8 JUMP JUMPDEST DUP1 PUSH1 0x1F ADD PUSH1 0x20 DUP1 SWAP2 DIV MUL PUSH1 0x20 ADD PUSH1 0x40 MLOAD SWAP1 DUP2 ADD PUSH1 0x40 MSTORE DUP1 SWAP3 SWAP2 SWAP1 DUP2 DUP2 MSTORE PUSH1 0x20 ADD DUP3 DUP1 SLOAD PUSH2 0x10AB SWAP1 PUSH2 0x27E8 JUMP JUMPDEST DUP1 ISZERO PUSH2 0x10F8 JUMPI DUP1 PUSH1 0x1F LT PUSH2 0x10CD JUMPI PUSH2 0x100 DUP1 DUP4 SLOAD DIV MUL DUP4 MSTORE SWAP2 PUSH1 0x20 ADD SWAP2 PUSH2 0x10F8 JUMP JUMPDEST DUP3 ADD SWAP2 SWAP1 PUSH1 0x0 MSTORE PUSH1 0x20 PUSH1 0x0 KECCAK256 SWAP1 JUMPDEST DUP2 SLOAD DUP2 MSTORE SWAP1 PUSH1 0x1 ADD SWAP1 PUSH1 0x20 ADD DUP1 DUP4 GT PUSH2 0x10DB JUMPI DUP3 SWAP1 SUB PUSH1 0x1F AND DUP3 ADD SWAP2 JUMPDEST POP POP POP POP POP DUP2 MSTORE POP POP DUP5 DUP4 DUP2 MLOAD DUP2 LT PUSH2 0x1113 JUMPI PUSH2 0x1113 PUSH2 0x27CF JUMP JUMPDEST PUSH1 0x20 MUL PUSH1 0x20 ADD ADD DUP2 SWAP1 MSTORE POP POP DUP1 DUP1 PUSH2 0x112A SWAP1 PUSH2 0x283E JUMP JUMPDEST SWAP2 POP POP PUSH2 0xF0C JUMP JUMPDEST POP PUSH1 0x1 PUSH1 0xA0 PUSH1 0x2 EXP SUB DUP4 AND PUSH1 0x0 SWAP1 DUP2 MSTORE PUSH1 0x9 PUSH1 0x20 SWAP1 DUP2 MSTORE PUSH1 0x40 DUP1 DUP4 KECCAK256 CALLER DUP5 MSTORE SWAP1 SWAP2 MSTORE DUP2 KECCAK256 DUP1 SLOAD PUSH1 0x1 SWAP3 SWAP1 PUSH2 0x1167 SWAP1 DUP5 SWAP1 PUSH2 0x2983 JUMP JUMPDEST SWAP1 SWAP2 SSTORE POP SWAP2 SWAP4 SWAP3 POP POP POP JUMP JUMPDEST PUSH1 0x60 PUSH1 0x8 DUP1 SLOAD DUP1 PUSH1 0x20 MUL PUSH1 0x20 ADD PUSH1 0x40 MLOAD SWAP1 DUP2 ADD PUSH1 0x40 MSTORE DUP1 SWAP3 SWAP2 SWAP1 DUP2 DUP2 MSTORE PUSH1 0x20 ADD DUP3 DUP1 SLOAD DUP1 ISZERO PUSH2 0x11C1 JUMPI PUSH1 0x20 MUL DUP3 ADD SWAP2 SWAP1 PUSH1 0x0 MSTORE PUSH1 0x20 PUSH1 0x0 KECCAK256 SWAP1 JUMPDEST DUP2 SLOAD DUP2 MSTORE PUSH1 0x20 ADD SWAP1 PUSH1 0x1 ADD SWAP1 DUP1 DUP4 GT PUSH2 0x11AD JUMPI JUMPDEST POP POP POP POP POP SWAP1 POP SWAP1 JUMP JUMPDEST CALLER PUSH1 0x0 SWAP1 DUP2 MSTORE PUSH1 0x1 PUSH1 0x20 MSTORE PUSH1 0x40 SWAP1 KECCAK256 SLOAD PUSH1 0xFF AND PUSH2 0x11FD JUMPI PUSH1 0x40 MLOAD PUSH1 0xE5 PUSH1 0x2 EXP PUSH3 0x461BCD MUL DUP2 MSTORE PUSH1 0x4 ADD PUSH2 0x581 SWAP1 PUSH2 0x26F3 JUMP JUMPDEST PUSH1 0x1 PUSH1 0xA0 PUSH1 0x2 EXP SUB DUP3 AND PUSH1 0x0 SWAP1 DUP2 MSTORE PUSH1 0xA PUSH1 0x20 MSTORE PUSH1 0x40 SWAP1 KECCAK256 DUP1 SLOAD DUP3 SWAP1 DUP2 LT PUSH2 0x1227 JUMPI PUSH2 0x1227 PUSH2 0x27CF JUMP JUMPDEST PUSH1 0x0 SWAP2 DUP3 MSTORE PUSH1 0x20 SWAP1 SWAP2 KECCAK256 PUSH1 0x2 PUSH1 0x3 SWAP1 SWAP3 MUL ADD ADD SLOAD PUSH1 0xFF AND ISZERO PUSH2 0x128E JUMPI PUSH1 0x40 MLOAD PUSH1 0xE5 PUSH1 0x2 EXP PUSH3 0x461BCD MUL DUP2 MSTORE PUSH1 0x20 PUSH1 0x4 DUP3 ADD MSTORE PUSH1 0x19 PUSH1 0x24 DUP3 ADD MSTORE PUSH32 0x5472616E7366657220616C726561647920617070726F76656400000000000000 PUSH1 0x44 DUP3 ADD MSTORE PUSH1 0x64 ADD PUSH2 0x581 JUMP JUMPDEST PUSH1 0x1 PUSH1 0xA0 PUSH1 0x2 EXP SUB DUP3 AND PUSH1 0x0 SWAP1 DUP2 MSTORE PUSH1 0xA PUSH1 0x20 MSTORE PUSH1 0x40 SWAP1 KECCAK256 DUP1 SLOAD PUSH1 0x1 SWAP2 SWAP1 DUP4 SWAP1 DUP2 LT PUSH2 0x12BC JUMPI PUSH2 0x12BC PUSH2 0x27CF JUMP JUMPDEST PUSH1 0x0 SWAP2 DUP3 MSTORE PUSH1 0x20 SWAP1 SWAP2 KECCAK256 PUSH1 0x3 SWAP1 SWAP2 MUL ADD PUSH1 0x2 ADD DUP1 SLOAD PUSH1 0xFF NOT AND SWAP2 ISZERO ISZERO SWAP2 SWAP1 SWAP2 OR SWAP1 SSTORE POP POP JUMP JUMPDEST PUSH1 0x0 SLOAD PUSH1 0x1 PUSH1 0xA0 PUSH1 0x2 EXP SUB AND CALLER EQ PUSH2 0x130F JUMPI PUSH1 0x40 MLOAD PUSH1 0xE5 PUSH1 0x2 EXP PUSH3 0x461BCD MUL DUP2 MSTORE PUSH1 0x4 ADD PUSH2 0x581 SWAP1 PUSH2 0x26BC JUMP JUMPDEST PUSH1 0x1 PUSH1 0xA0 PUSH1 0x2 EXP SUB DUP2 AND PUSH1 0x0 DUP2 DUP2 MSTORE PUSH1 0x1 PUSH1 0x20 DUP2 SWAP1 MSTORE PUSH1 0x40 DUP1 DUP4 KECCAK256 DUP1 SLOAD PUSH1 0xFF NOT AND SWAP1 SWAP3 OR SWAP1 SWAP2 SSTORE MLOAD PUSH32 0x44D6D25963F097AD14F29F06854A01F575648A1EF82F30E562CCD3889717E339 SWAP2 SWAP1 LOG2 POP JUMP JUMPDEST PUSH1 0x0 SLOAD PUSH1 0x1 PUSH1 0xA0 PUSH1 0x2 EXP SUB AND CALLER EQ PUSH2 0x138B JUMPI PUSH1 0x40 MLOAD PUSH1 0xE5 PUSH1 0x2 EXP PUSH3 0x461BCD MUL DUP2 MSTORE PUSH1 0x4 ADD PUSH2 0x581 SWAP1 PUSH2 0x26BC JUMP JUMPDEST PUSH1 0x0 DUP1 SLOAD PUSH1 0x40 MLOAD PUSH1 0x1 PUSH1 0xA0 PUSH1 0x2 EXP SUB SWAP1 SWAP2 AND SWAP1 PUSH32 0x8BE0079C531659141344CD1FD0A4F28419497F9722A3DAAFE3B4186F6B6457E0 SWAP1 DUP4 SWAP1 LOG3 PUSH1 0x0 DUP1 SLOAD PUSH20 0xFFFFFFFFFFFFFFFFFFFFFFFFFFFFFFFFFFFFFFFF NOT AND SWAP1 SSTORE JUMP JUMPDEST CALLER PUSH1 0x0 SWAP1 DUP2 MSTORE PUSH1 0x3 PUSH1 0x20 DUP2 DUP2 MSTORE PUSH1 0x40 DUP1 DUP5 KECCAK256 DUP7 DUP6 MSTORE SWAP1 SWAP2 MSTORE DUP3 KECCAK256 ADD SLOAD SWAP1 SUB PUSH2 0x141F JUMPI PUSH1 0x40 MLOAD PUSH1 0xE5 PUSH1 0x2 EXP PUSH3 0x461BCD MUL DUP2 MSTORE PUSH1 0x4 ADD PUSH2 0x581 SWAP1 PUSH2 0x272A JUMP JUMPDEST CALLER PUSH1 0x0 SWAP1 DUP2 MSTORE PUSH1 0x3 PUSH1 0x20 SWAP1 DUP2 MSTORE PUSH1 0x40 DUP1 DUP4 KECCAK256 DUP6 DUP5 MSTORE SWAP1 SWAP2 MSTORE SWAP1 KECCAK256 PUSH1 0x6 ADD SLOAD PUSH1 0xFF AND ISZERO PUSH2 0x1460 JUMPI PUSH1 0x40 MLOAD PUSH1 0xE5 PUSH1 0x2 EXP PUSH3 0x461BCD MUL DUP2 MSTORE PUSH1 0x4 ADD PUSH2 0x581 SWAP1 PUSH2 0x2761 JUMP JUMPDEST CALLER PUSH1 0x0 SWAP1 DUP2 MSTORE PUSH1 0xA PUSH1 0x20 SWAP1 DUP2 MSTORE PUSH1 0x40 DUP1 DUP4 KECCAK256 DUP2 MLOAD PUSH1 0x80 DUP2 ADD DUP4 MSTORE DUP7 DUP2 MSTORE DUP1 DUP5 ADD DUP7 DUP2 MSTORE SWAP3 DUP2 ADD DUP6 SWAP1 MSTORE PUSH1 0x60 DUP2 ADD DUP6 SWAP1 MSTORE DUP2 SLOAD PUSH1 0x1 DUP2 DUP2 ADD DUP5 SSTORE SWAP3 DUP7 MSTORE SWAP4 SWAP1 SWAP5 KECCAK256 DUP5 MLOAD PUSH1 0x3 SWAP1 SWAP5 MUL ADD SWAP3 DUP4 SSTORE SWAP1 MLOAD SWAP1 DUP3 ADD SWAP1 PUSH2 0x14BB SWAP1 DUP3 PUSH2 0x28BD JUMP JUMPDEST POP PUSH1 0x40 DUP3 DUP2 ADD MLOAD PUSH1 0x2 SWAP1 SWAP3 ADD DUP1 SLOAD PUSH1 0x60 SWAP1 SWAP5 ADD MLOAD ISZERO ISZERO PUSH2 0x100 MUL PUSH2 0xFF00 NOT SWAP4 ISZERO ISZERO SWAP4 SWAP1 SWAP4 AND PUSH2 0xFFFF NOT SWAP1 SWAP5 AND SWAP4 SWAP1 SWAP4 OR SWAP2 SWAP1 SWAP2 OR SWAP1 SWAP2 SSTORE CALLER PUSH1 0x0 SWAP1 DUP2 MSTORE PUSH1 0x4 PUSH1 0x20 SWAP1 DUP2 MSTORE SWAP2 DUP2 KECCAK256 DUP1 SLOAD PUSH1 0x1 DUP2 ADD DUP3 SSTORE SWAP1 DUP3 MSTORE SWAP2 SWAP1 KECCAK256 ADD SWAP2 SWAP1 SWAP2 SSTORE POP JUMP JUMPDEST PUSH2 0x1543 PUSH1 0x40 MLOAD DUP1 PUSH1 0x80 ADD PUSH1 0x40 MSTORE DUP1 PUSH1 0x0 DUP2 MSTORE PUSH1 0x20 ADD PUSH1 0x60 DUP2 MSTORE PUSH1 0x20 ADD PUSH1 0x0 DUP2 MSTORE PUSH1 0x20 ADD PUSH1 0x0 DUP2 MSTORE POP SWAP1 JUMP JUMPDEST PUSH1 0x0 DUP3 DUP2 MSTORE PUSH1 0x7 PUSH1 0x20 MSTORE PUSH1 0x40 SWAP1 KECCAK256 DUP1 SLOAD PUSH1 0xFF NOT AND PUSH1 0x1 OR SWAP1 SSTORE PUSH1 0x2 PUSH1 0x0 DUP4 DUP2 MSTORE PUSH1 0x20 ADD SWAP1 DUP2 MSTORE PUSH1 0x20 ADD PUSH1 0x0 KECCAK256 PUSH1 0x40 MLOAD DUP1 PUSH1 0x80 ADD PUSH1 0x40 MSTORE SWAP1 DUP2 PUSH1 0x0 DUP3 ADD SLOAD DUP2 MSTORE PUSH1 0x20 ADD PUSH1 0x1 DUP3 ADD DUP1 SLOAD PUSH2 0x1594 SWAP1 PUSH2 0x27E8 JUMP JUMPDEST DUP1 PUSH1 0x1F ADD PUSH1 0x20 DUP1 SWAP2 DIV MUL PUSH1 0x20 ADD PUSH1 0x40 MLOAD SWAP1 DUP2 ADD PUSH1 0x40 MSTORE DUP1 SWAP3 SWAP2 SWAP1 DUP2 DUP2 MSTORE PUSH1 0x20 ADD DUP3 DUP1 SLOAD PUSH2 0x15C0 SWAP1 PUSH2 0x27E8 JUMP JUMPDEST DUP1 ISZERO PUSH2 0x160D JUMPI DUP1 PUSH1 0x1F LT PUSH2 0x15E2 JUMPI PUSH2 0x100 DUP1 DUP4 SLOAD DIV MUL DUP4 MSTORE SWAP2 PUSH1 0x20 ADD SWAP2 PUSH2 0x160D JUMP JUMPDEST DUP3 ADD SWAP2 SWAP1 PUSH1 0x0 MSTORE PUSH1 0x20 PUSH1 0x0 KECCAK256 SWAP1 JUMPDEST DUP2 SLOAD DUP2 MSTORE SWAP1 PUSH1 0x1 ADD SWAP1 PUSH1 0x20 ADD DUP1 DUP4 GT PUSH2 0x15F0 JUMPI DUP3 SWAP1 SUB PUSH1 0x1F AND DUP3 ADD SWAP2 JUMPDEST POP POP POP POP POP DUP2 MSTORE PUSH1 0x20 ADD PUSH1 0x2 DUP3 ADD SLOAD DUP2 MSTORE PUSH1 0x20 ADD PUSH1 0x3 DUP3 ADD SLOAD DUP2 MSTORE POP POP SWAP1 POP SWAP2 SWAP1 POP JUMP JUMPDEST PUSH1 0x60 PUSH1 0x1 PUSH1 0xA0 PUSH1 0x2 EXP SUB DUP3 AND PUSH2 0x168C JUMPI PUSH1 0x40 MLOAD PUSH1 0xE5 PUSH1 0x2 EXP PUSH3 0x461BCD MUL DUP2 MSTORE PUSH1 0x20 PUSH1 0x4 DUP3 ADD MSTORE PUSH1 0x17 PUSH1 0x24 DUP3 ADD MSTORE PUSH32 0x496E76616C69642073747564656E742061646472657373000000000000000000 PUSH1 0x44 DUP3 ADD MSTORE PUSH1 0x64 ADD PUSH2 0x581 JUMP JUMPDEST PUSH1 0x1 PUSH1 0xA0 PUSH1 0x2 EXP SUB DUP3 AND PUSH1 0x0 SWAP1 DUP2 MSTORE PUSH1 0xA PUSH1 0x20 SWAP1 DUP2 MSTORE PUSH1 0x40 DUP1 DUP4 KECCAK256 DUP1 SLOAD DUP3 MLOAD DUP2 DUP6 MUL DUP2 ADD DUP6 ADD SWAP1 SWAP4 MSTORE DUP1 DUP4 MSTORE SWAP2 SWAP4 SWAP1 SWAP3 DUP5 ADD JUMPDEST DUP3 DUP3 LT ISZERO PUSH2 0x17B6 JUMPI DUP4 DUP3 SWAP1 PUSH1 0x0 MSTORE PUSH1 0x20 PUSH1 0x0 KECCAK256 SWAP1 PUSH1 0x3 MUL ADD PUSH1 0x40 MLOAD DUP1 PUSH1 0x80 ADD PUSH1 0x40 MSTORE SWAP1 DUP2 PUSH1 0x0 DUP3 ADD SLOAD DUP2 MSTORE PUSH1 0x20 ADD PUSH1 0x1 DUP3 ADD DUP1 SLOAD PUSH2 0x16FC SWAP1 PUSH2 0x27E8 JUMP JUMPDEST DUP1 PUSH1 0x1F ADD PUSH1 0x20 DUP1 SWAP2 DIV MUL PUSH1 0x20 ADD PUSH1 0x40 MLOAD SWAP1 DUP2 ADD PUSH1 0x40 MSTORE DUP1 SWAP3 SWAP2 SWAP1 DUP2 DUP2 MSTORE PUSH1 0x20 ADD DUP3 DUP1 SLOAD PUSH2 0x1728 SWAP1 PUSH2 0x27E8 JUMP JUMPDEST DUP1 ISZERO PUSH2 0x1775 JUMPI DUP1 PUSH1 0x1F LT PUSH2 0x174A JUMPI PUSH2 0x100 DUP1 DUP4 SLOAD DIV MUL DUP4 MSTORE SWAP2 PUSH1 0x20 ADD SWAP2 PUSH2 0x1775 JUMP JUMPDEST DUP3 ADD SWAP2 SWAP1 PUSH1 0x0 MSTORE PUSH1 0x20 PUSH1 0x0 KECCAK256 SWAP1 JUMPDEST DUP2 SLOAD DUP2 MSTORE SWAP1 PUSH1 0x1 ADD SWAP1 PUSH1 0x20 ADD DUP1 DUP4 GT PUSH2 0x1758 JUMPI DUP3 SWAP1 SUB PUSH1 0x1F AND DUP3 ADD SWAP2 JUMPDEST POP POP POP SWAP2 DUP4 MSTORE POP POP PUSH1 0x2 SWAP2 SWAP1 SWAP2 ADD SLOAD PUSH1 0xFF DUP1 DUP3 AND ISZERO ISZERO PUSH1 0x20 DUP1 DUP6 ADD SWAP2 SWAP1 SWAP2 MSTORE PUSH2 0x100 SWAP1 SWAP3 DIV AND ISZERO ISZERO PUSH1 0x40 SWAP1 SWAP3 ADD SWAP2 SWAP1 SWAP2 MSTORE SWAP1 DUP3 MSTORE PUSH1 0x1 SWAP3 SWAP1 SWAP3 ADD SWAP2 ADD PUSH2 0x16BF JUMP JUMPDEST POP POP POP POP SWAP1 POP SWAP2 SWAP1 POP JUMP JUMPDEST PUSH1 0x2 PUSH1 0x20 MSTORE PUSH1 0x0 SWAP1 DUP2 MSTORE PUSH1 0x40 SWAP1 KECCAK256 DUP1 SLOAD PUSH1 0x1 DUP3 ADD DUP1 SLOAD SWAP2 SWAP3 SWAP2 PUSH2 0x17E3 SWAP1 PUSH2 0x27E8 JUMP JUMPDEST DUP1 PUSH1 0x1F ADD PUSH1 0x20 DUP1 SWAP2 DIV MUL PUSH1 0x20 ADD PUSH1 0x40 MLOAD SWAP1 DUP2 ADD PUSH1 0x40 MSTORE DUP1 SWAP3 SWAP2 SWAP1 DUP2 DUP2 MSTORE PUSH1 0x20 ADD DUP3 DUP1 SLOAD PUSH2 0x180F SWAP1 PUSH2 0x27E8 JUMP JUMPDEST DUP1 ISZERO PUSH2 0x185C JUMPI DUP1 PUSH1 0x1F LT PUSH2 0x1831 JUMPI PUSH2 0x100 DUP1 DUP4 SLOAD DIV MUL DUP4 MSTORE SWAP2 PUSH1 0x20 ADD SWAP2 PUSH2 0x185C JUMP JUMPDEST DUP3 ADD SWAP2 SWAP1 PUSH1 0x0 MSTORE PUSH1 0x20 PUSH1 0x0 KECCAK256 SWAP1 JUMPDEST DUP2 SLOAD DUP2 MSTORE SWAP1 PUSH1 0x1 ADD SWAP1 PUSH1 0x20 ADD DUP1 DUP4 GT PUSH2 0x183F JUMPI DUP3 SWAP1 SUB PUSH1 0x1F AND DUP3 ADD SWAP2 JUMPDEST POP POP POP POP POP SWAP1 DUP1 PUSH1 0x2 ADD SLOAD SWAP1 DUP1 PUSH1 0x3 ADD SLOAD SWAP1 POP DUP5 JUMP JUMPDEST CALLER PUSH1 0x0 SWAP1 DUP2 MSTORE PUSH1 0x6 PUSH1 0x20 MSTORE PUSH1 0x40 SWAP1 KECCAK256 SLOAD PUSH1 0xFF AND PUSH2 0x18D4 JUMPI PUSH1 0x40 MLOAD PUSH1 0xE5 PUSH1 0x2 EXP PUSH3 0x461BCD MUL DUP2 MSTORE PUSH1 0x20 PUSH1 0x4 DUP3 ADD MSTORE PUSH1 0xD PUSH1 0x24 DUP3 ADD MSTORE PUSH32 0x4E6F742061207465616368657200000000000000000000000000000000000000 PUSH1 0x44 DUP3 ADD MSTORE PUSH1 0x64 ADD PUSH2 0x581 JUMP JUMPDEST PUSH1 0x1 PUSH1 0xA0 PUSH1 0x2 EXP SUB DUP4 AND PUSH1 0x0 SWAP1 DUP2 MSTORE PUSH1 0x3 PUSH1 0x20 DUP2 DUP2 MSTORE PUSH1 0x40 DUP1 DUP5 KECCAK256 DUP7 DUP6 MSTORE SWAP1 SWAP2 MSTORE DUP3 KECCAK256 ADD SLOAD SWAP1 SUB PUSH2 0x191A JUMPI PUSH1 0x40 MLOAD PUSH1 0xE5 PUSH1 0x2 EXP PUSH3 0x461BCD MUL DUP2 MSTORE PUSH1 0x4 ADD PUSH2 0x581 SWAP1 PUSH2 0x272A JUMP JUMPDEST PUSH1 0x1 PUSH1 0xA0 PUSH1 0x2 EXP SUB DUP4 AND PUSH2 0x1943 JUMPI PUSH1 0x40 MLOAD PUSH1 0xE5 PUSH1 0x2 EXP PUSH3 0x461BCD MUL DUP2 MSTORE PUSH1 0x4 ADD PUSH2 0x581 SWAP1 PUSH2 0x2798 JUMP JUMPDEST PUSH1 0x1 PUSH1 0xA0 PUSH1 0x2 EXP SUB DUP4 AND PUSH1 0x0 SWAP1 DUP2 MSTORE PUSH1 0x3 PUSH1 0x20 SWAP1 DUP2 MSTORE PUSH1 0x40 DUP1 DUP4 KECCAK256 DUP6 DUP5 MSTORE SWAP1 SWAP2 MSTORE SWAP1 KECCAK256 PUSH1 0x6 ADD SLOAD PUSH1 0xFF AND ISZERO PUSH2 0x198D JUMPI PUSH1 0x40 MLOAD PUSH1 0xE5 PUSH1 0x2 EXP PUSH3 0x461BCD MUL DUP2 MSTORE PUSH1 0x4 ADD PUSH2 0x581 SWAP1 PUSH2 0x2761 JUMP JUMPDEST PUSH1 0x1 PUSH1 0xA0 PUSH1 0x2 EXP SUB DUP4 AND PUSH1 0x0 SWAP1 DUP2 MSTORE PUSH1 0x3 PUSH1 0x20 SWAP1 DUP2 MSTORE PUSH1 0x40 DUP1 DUP4 KECCAK256 DUP6 DUP5 MSTORE SWAP1 SWAP2 MSTORE DUP2 KECCAK256 PUSH1 0x5 ADD SLOAD PUSH2 0x19BF SWAP1 PUSH1 0x1 PUSH2 0x2996 JUMP JUMPDEST PUSH1 0x0 DUP5 DUP2 MSTORE PUSH1 0x2 PUSH1 0x20 DUP2 SWAP1 MSTORE PUSH1 0x40 DUP3 KECCAK256 ADD SLOAD SWAP2 SWAP3 POP SWAP1 PUSH2 0x19DF SWAP1 DUP5 PUSH2 0x2857 JUMP JUMPDEST PUSH1 0x1 PUSH1 0xA0 PUSH1 0x2 EXP SUB SWAP6 SWAP1 SWAP6 AND PUSH1 0x0 SWAP1 DUP2 MSTORE PUSH1 0x3 PUSH1 0x20 SWAP1 DUP2 MSTORE PUSH1 0x40 DUP1 DUP4 KECCAK256 SWAP7 DUP4 MSTORE SWAP6 SWAP1 MSTORE SWAP4 SWAP1 SWAP4 KECCAK256 PUSH1 0x1 DUP1 DUP3 ADD SWAP6 SWAP1 SWAP6 SSTORE PUSH1 0x5 DUP2 ADD SWAP2 SWAP1 SWAP2 SSTORE PUSH1 0x2 DUP2 ADD SWAP2 SWAP1 SWAP2 SSTORE PUSH1 0x4 ADD DUP1 SLOAD PUSH1 0xFF NOT AND SWAP1 SWAP3 OR SWAP1 SWAP2 SSTORE POP JUMP JUMPDEST PUSH1 0x4 PUSH1 0x20 MSTORE DUP2 PUSH1 0x0 MSTORE PUSH1 0x40 PUSH1 0x0 KECCAK256 DUP2 DUP2 SLOAD DUP2 LT PUSH2 0x510 JUMPI PUSH1 0x0 DUP1 REVERT JUMPDEST CALLER PUSH1 0x0 SWAP1 DUP2 MSTORE PUSH1 0x1 PUSH1 0x20 MSTORE PUSH1 0x40 SWAP1 KECCAK256 SLOAD PUSH1 0xFF AND PUSH2 0x1A7F JUMPI PUSH1 0x40 MLOAD PUSH1 0xE5 PUSH1 0x2 EXP PUSH3 0x461BCD MUL DUP2 MSTORE PUSH1 0x4 ADD PUSH2 0x581 SWAP1 PUSH2 0x26F3 JUMP JUMPDEST PUSH1 0x1 PUSH1 0xA0 PUSH1 0x2 EXP SUB DUP3 AND PUSH1 0x0 SWAP1 DUP2 MSTORE PUSH1 0xA PUSH1 0x20 MSTORE PUSH1 0x40 SWAP1 KECCAK256 DUP1 SLOAD DUP3 SWAP1 DUP2 LT PUSH2 0x1AA9 JUMPI PUSH2 0x1AA9 PUSH2 0x27CF JUMP JUMPDEST PUSH1 0x0 SWAP2 DUP3 MSTORE PUSH1 0x20 SWAP1 SWAP2 KECCAK256 PUSH1 0x2 PUSH1 0x3 SWAP1 SWAP3 MUL ADD ADD SLOAD PUSH1 0xFF AND PUSH2 0x1B0F JUMPI PUSH1 0x40 MLOAD PUSH1 0xE5 PUSH1 0x2 EXP PUSH3 0x461BCD MUL DUP2 MSTORE PUSH1 0x20 PUSH1 0x4 DUP3 ADD MSTORE PUSH1 0x15 PUSH1 0x24 DUP3 ADD MSTORE PUSH32 0x5472616E73666572206E6F7420617070726F7665640000000000000000000000 PUSH1 0x44 DUP3 ADD MSTORE PUSH1 0x64 ADD PUSH2 0x581 JUMP JUMPDEST PUSH1 0x1 PUSH1 0xA0 PUSH1 0x2 EXP SUB DUP3 AND PUSH1 0x0 SWAP1 DUP2 MSTORE PUSH1 0xA PUSH1 0x20 MSTORE PUSH1 0x40 SWAP1 KECCAK256 DUP1 SLOAD DUP3 SWAP1 DUP2 LT PUSH2 0x1B39 JUMPI PUSH2 0x1B39 PUSH2 0x27CF JUMP JUMPDEST SWAP1 PUSH1 0x0 MSTORE PUSH1 0x20 PUSH1 0x0 KECCAK256 SWAP1 PUSH1 0x3 MUL ADD PUSH1 0x2 ADD PUSH1 0x1 SWAP1 SLOAD SWAP1 PUSH2 0x100 EXP SWAP1 DIV PUSH1 0xFF AND ISZERO PUSH2 0x1BA8 JUMPI PUSH1 0x40 MLOAD PUSH1 0xE5 PUSH1 0x2 EXP PUSH3 0x461BCD MUL DUP2 MSTORE PUSH1 0x20 PUSH1 0x4 DUP3 ADD MSTORE PUSH1 0x19 PUSH1 0x24 DUP3 ADD MSTORE PUSH32 0x5472616E7366657220616C726561647920657865637574656400000000000000 PUSH1 0x44 DUP3 ADD MSTORE PUSH1 0x64 ADD PUSH2 0x581 JUMP JUMPDEST PUSH1 0x1 PUSH1 0xA0 PUSH1 0x2 EXP SUB DUP3 AND PUSH1 0x0 SWAP1 DUP2 MSTORE PUSH1 0xA PUSH1 0x20 MSTORE PUSH1 0x40 SWAP1 KECCAK256 DUP1 SLOAD DUP3 SWAP1 DUP2 LT PUSH2 0x1BD2 JUMPI PUSH2 0x1BD2 PUSH2 0x27CF JUMP JUMPDEST PUSH1 0x0 SWAP2 DUP3 MSTORE PUSH1 0x20 DUP1 DUP4 KECCAK256 PUSH1 0x1 PUSH1 0xA0 PUSH1 0x2 EXP SUB DUP7 AND DUP5 MSTORE PUSH1 0x3 DUP1 DUP4 MSTORE PUSH1 0x40 DUP1 DUP7 KECCAK256 PUSH1 0xA SWAP1 SWAP5 MSTORE DUP6 KECCAK256 DUP1 SLOAD PUSH1 0x1 SWAP3 SWAP1 SWAP6 MUL SWAP1 SWAP3 ADD ADD SWAP4 SWAP2 SWAP3 DUP6 SWAP1 DUP2 LT PUSH2 0x1C18 JUMPI PUSH2 0x1C18 PUSH2 0x27CF JUMP JUMPDEST SWAP1 PUSH1 0x0 MSTORE PUSH1 0x20 PUSH1 0x0 KECCAK256 SWAP1 PUSH1 0x3 MUL ADD PUSH1 0x0 ADD SLOAD DUP2 MSTORE PUSH1 0x20 ADD SWAP1 DUP2 MSTORE PUSH1 0x20 ADD PUSH1 0x0 KECCAK256 PUSH1 0x9 ADD SWAP1 DUP2 PUSH2 0x1C47 SWAP2 SWAP1 PUSH2 0x29A9 JUMP JUMPDEST POP PUSH1 0x1 PUSH1 0xA0 PUSH1 0x2 EXP SUB DUP3 AND PUSH1 0x0 SWAP1 DUP2 MSTORE PUSH1 0xA PUSH1 0x20 MSTORE PUSH1 0x40 SWAP1 KECCAK256 DUP1 SLOAD PUSH1 0x1 SWAP2 SWAP1 DUP4 SWAP1 DUP2 LT PUSH2 0x1C76 JUMPI PUSH2 0x1C76 PUSH2 0x27CF JUMP JUMPDEST PUSH1 0x0 SWAP2 DUP3 MSTORE PUSH1 0x20 DUP1 DUP4 KECCAK256 PUSH1 0x3 SWAP3 DUP4 MUL ADD PUSH1 0x2 ADD DUP1 SLOAD PUSH2 0xFF00 NOT AND PUSH2 0x100 SWAP6 ISZERO ISZERO SWAP6 SWAP1 SWAP6 MUL SWAP5 SWAP1 SWAP5 OR SWAP1 SWAP4 SSTORE PUSH1 0x1 PUSH1 0xA0 PUSH1 0x2 EXP SUB DUP6 AND DUP3 MSTORE DUP3 MSTORE PUSH1 0x40 DUP1 DUP3 KECCAK256 PUSH1 0xA SWAP1 SWAP4 MSTORE DUP2 KECCAK256 DUP1 SLOAD PUSH1 0x1 SWAP4 SWAP3 SWAP2 SWAP1 DUP6 SWAP1 DUP2 LT PUSH2 0x1CD3 JUMPI PUSH2 0x1CD3 PUSH2 0x27CF JUMP JUMPDEST SWAP1 PUSH1 0x0 MSTORE PUSH1 0x20 PUSH1 0x0 KECCAK256 SWAP1 PUSH1 0x3 MUL ADD PUSH1 0x0 ADD SLOAD DUP2 MSTORE PUSH1 0x20 ADD SWAP1 DUP2 MSTORE PUSH1 0x20 ADD PUSH1 0x0 KECCAK256 PUSH1 0x8 ADD PUSH1 0x0 PUSH2 0x100 EXP DUP2 SLOAD DUP2 PUSH1 0xFF MUL NOT AND SWAP1 DUP4 ISZERO ISZERO MUL OR SWAP1 SSTORE POP POP POP JUMP JUMPDEST CALLER PUSH1 0x0 SWAP1 DUP2 MSTORE PUSH1 0x1 PUSH1 0x20 MSTORE PUSH1 0x40 SWAP1 KECCAK256 SLOAD PUSH1 0xFF AND PUSH2 0x1D43 JUMPI PUSH1 0x40 MLOAD PUSH1 0xE5 PUSH1 0x2 EXP PUSH3 0x461BCD MUL DUP2 MSTORE PUSH1 0x4 ADD PUSH2 0x581 SWAP1 PUSH2 0x26F3 JUMP JUMPDEST PUSH1 0x0 DUP4 DUP2 MSTORE PUSH1 0x7 PUSH1 0x20 MSTORE PUSH1 0x40 SWAP1 KECCAK256 SLOAD PUSH1 0xFF AND ISZERO PUSH2 0x1DA5 JUMPI PUSH1 0x40 MLOAD PUSH1 0xE5 PUSH1 0x2 EXP PUSH3 0x461BCD MUL DUP2 MSTORE PUSH1 0x20 PUSH1 0x4 DUP3 ADD MSTORE PUSH1 0x15 PUSH1 0x24 DUP3 ADD MSTORE PUSH32 0x436F7572736520616C7265616479206578697374730000000000000000000000 PUSH1 0x44 DUP3 ADD MSTORE PUSH1 0x64 ADD PUSH2 0x581 JUMP JUMPDEST PUSH1 0x0 DUP4 DUP2 MSTORE PUSH1 0x7 PUSH1 0x20 SWAP1 DUP2 MSTORE PUSH1 0x40 DUP1 DUP4 KECCAK256 DUP1 SLOAD PUSH1 0xFF NOT AND PUSH1 0x1 SWAP1 DUP2 OR SWAP1 SWAP2 SSTORE PUSH1 0x8 DUP1 SLOAD DUP1 DUP4 ADD SWAP1 SWAP2 SSTORE PUSH32 0xF3F7A9FE364FAAB93B216DA50A3214154F22A0A2B415B23A84C8169E8B636EE3 ADD DUP8 SWAP1 SSTORE DUP2 MLOAD PUSH1 0x80 DUP2 ADD DUP4 MSTORE DUP8 DUP2 MSTORE DUP1 DUP5 ADD DUP7 DUP2 MSTORE DUP2 DUP5 ADD DUP9 SWAP1 MSTORE TIMESTAMP PUSH1 0x60 DUP4 ADD MSTORE DUP9 DUP7 MSTORE PUSH1 0x2 SWAP1 SWAP5 MSTORE SWAP2 SWAP1 SWAP4 KECCAK256 DUP2 MLOAD DUP2 SSTORE SWAP2 MLOAD SWAP1 SWAP3 DUP3 ADD SWAP1 PUSH2 0x1E31 SWAP1 DUP3 PUSH2 0x28BD JUMP JUMPDEST POP PUSH1 0x40 DUP3 ADD MLOAD PUSH1 0x2 DUP3 ADD SSTORE PUSH1 0x60 SWAP1 SWAP2 ADD MLOAD PUSH1 0x3 SWAP1 SWAP2 ADD SSTORE POP POP POP JUMP JUMPDEST PUSH1 0x8 DUP2 DUP2 SLOAD DUP2 LT PUSH2 0x1E5D JUMPI PUSH1 0x0 DUP1 REVERT JUMPDEST PUSH1 0x0 SWAP2 DUP3 MSTORE PUSH1 0x20 SWAP1 SWAP2 KECCAK256 ADD SLOAD SWAP1 POP DUP2 JUMP JUMPDEST PUSH1 0x3 PUSH1 0x20 DUP2 DUP2 MSTORE PUSH1 0x0 SWAP4 DUP5 MSTORE PUSH1 0x40 DUP1 DUP6 KECCAK256 SWAP1 SWAP2 MSTORE SWAP2 DUP4 MSTORE SWAP2 KECCAK256 DUP1 SLOAD PUSH1 0x1 DUP3 ADD SLOAD PUSH1 0x2 DUP4 ADD SLOAD SWAP4 DUP4 ADD SLOAD PUSH1 0x4 DUP5 ADD SLOAD PUSH1 0x5 DUP6 ADD SLOAD PUSH1 0x6 DUP7 ADD SLOAD PUSH1 0x7 DUP8 ADD DUP1 SLOAD SWAP7 SWAP9 SWAP6 SWAP8 SWAP6 SWAP7 SWAP5 SWAP6 PUSH1 0xFF SWAP5 DUP6 AND SWAP6 SWAP4 SWAP5 SWAP1 SWAP3 AND SWAP3 PUSH2 0x1EC9 SWAP1 PUSH2 0x27E8 JUMP JUMPDEST DUP1 PUSH1 0x1F ADD PUSH1 0x20 DUP1 SWAP2 DIV MUL PUSH1 0x20 ADD PUSH1 0x40 MLOAD SWAP1 DUP2 ADD PUSH1 0x40 MSTORE DUP1 SWAP3 SWAP2 SWAP1 DUP2 DUP2 MSTORE PUSH1 0x20 ADD DUP3 DUP1 SLOAD PUSH2 0x1EF5 SWAP1 PUSH2 0x27E8 JUMP JUMPDEST DUP1 ISZERO PUSH2 0x1F42 JUMPI DUP1 PUSH1 0x1F LT PUSH2 0x1F17 JUMPI PUSH2 0x100 DUP1 DUP4 SLOAD DIV MUL DUP4 MSTORE SWAP2 PUSH1 0x20 ADD SWAP2 PUSH2 0x1F42 JUMP JUMPDEST DUP3 ADD SWAP2 SWAP1 PUSH1 0x0 MSTORE PUSH1 0x20 PUSH1 0x0 KECCAK256 SWAP1 JUMPDEST DUP2 SLOAD DUP2 MSTORE SWAP1 PUSH1 0x1 ADD SWAP1 PUSH1 0x20 ADD DUP1 DUP4 GT PUSH2 0x1F25 JUMPI DUP3 SWAP1 SUB PUSH1 0x1F AND DUP3 ADD SWAP2 JUMPDEST POP POP POP PUSH1 0x8 DUP5 ADD SLOAD PUSH1 0x9 DUP6 ADD DUP1 SLOAD SWAP5 SWAP6 PUSH1 0xFF SWAP1 SWAP3 AND SWAP5 SWAP2 SWAP4 POP SWAP2 POP PUSH2 0x1F66 SWAP1 PUSH2 0x27E8 JUMP JUMPDEST DUP1 PUSH1 0x1F ADD PUSH1 0x20 DUP1 SWAP2 DIV MUL PUSH1 0x20 ADD PUSH1 0x40 MLOAD SWAP1 DUP2 ADD PUSH1 0x40 MSTORE DUP1 SWAP3 SWAP2 SWAP1 DUP2 DUP2 MSTORE PUSH1 0x20 ADD DUP3 DUP1 SLOAD PUSH2 0x1F92 SWAP1 PUSH2 0x27E8 JUMP JUMPDEST DUP1 ISZERO PUSH2 0x1FDF JUMPI DUP1 PUSH1 0x1F LT PUSH2 0x1FB4 JUMPI PUSH2 0x100 DUP1 DUP4 SLOAD DIV MUL DUP4 MSTORE SWAP2 PUSH1 0x20 ADD SWAP2 PUSH2 0x1FDF JUMP JUMPDEST DUP3 ADD SWAP2 SWAP1 PUSH1 0x0 MSTORE PUSH1 0x20 PUSH1 0x0 KECCAK256 SWAP1 JUMPDEST DUP2 SLOAD DUP2 MSTORE SWAP1 PUSH1 0x1 ADD SWAP1 PUSH1 0x20 ADD DUP1 DUP4 GT PUSH2 0x1FC2 JUMPI DUP3 SWAP1 SUB PUSH1 0x1F AND DUP3 ADD SWAP2 JUMPDEST POP POP POP POP POP SWAP1 POP DUP11 JUMP JUMPDEST PUSH1 0x0 SLOAD PUSH1 0x1 PUSH1 0xA0 PUSH1 0x2 EXP SUB AND CALLER EQ PUSH2 0x2016 JUMPI PUSH1 0x40 MLOAD PUSH1 0xE5 PUSH1 0x2 EXP PUSH3 0x461BCD MUL DUP2 MSTORE PUSH1 0x4 ADD PUSH2 0x581 SWAP1 PUSH2 0x26BC JUMP JUMPDEST PUSH1 0x1 PUSH1 0xA0 PUSH1 0x2 EXP SUB DUP2 AND PUSH2 0x206F JUMPI PUSH1 0x40 MLOAD PUSH1 0xE5 PUSH1 0x2 EXP PUSH3 0x461BCD MUL DUP2 MSTORE PUSH1 0x20 PUSH1 0x4 DUP3 ADD MSTORE PUSH1 0x8 PUSH1 0x24 DUP3 ADD MSTORE PUSH32 0x6E65772069732030000000000000000000000000000000000000000000000000 PUSH1 0x44 DUP3 ADD MSTORE PUSH1 0x64 ADD PUSH2 0x581 JUMP JUMPDEST PUSH1 0x0 DUP1 SLOAD PUSH1 0x40 MLOAD PUSH1 0x1 PUSH1 0xA0 PUSH1 0x2 EXP SUB DUP1 DUP6 AND SWAP4 SWAP3 AND SWAP2 PUSH32 0x8BE0079C531659141344CD1FD0A4F28419497F9722A3DAAFE3B4186F6B6457E0 SWAP2 LOG3 PUSH1 0x0 DUP1 SLOAD PUSH20 0xFFFFFFFFFFFFFFFFFFFFFFFFFFFFFFFFFFFFFFFF NOT AND PUSH1 0x1 PUSH1 0xA0 PUSH1 0x2 EXP SUB SWAP3 SWAP1 SWAP3 AND SWAP2 SWAP1 SWAP2 OR SWAP1 SSTORE JUMP JUMPDEST PUSH1 0x40 MLOAD DUP1 PUSH2 0x140 ADD PUSH1 0x40 MSTORE DUP1 PUSH1 0x0 DUP2 MSTORE PUSH1 0x20 ADD PUSH1 0x0 DUP2 MSTORE PUSH1 0x20 ADD PUSH1 0x0 DUP2 MSTORE PUSH1 0x20 ADD PUSH1 0x0 DUP2 MSTORE PUSH1 0x20 ADD PUSH1 0x0 ISZERO ISZERO DUP2 MSTORE PUSH1 0x20 ADD PUSH1 0x0 DUP2 MSTORE PUSH1 0x20 ADD PUSH1 0x0 ISZERO ISZERO DUP2 MSTORE PUSH1 0x20 ADD PUSH1 0x60 DUP2 MSTORE PUSH1 0x20 ADD PUSH1 0x0 ISZERO ISZERO DUP2 MSTORE PUSH1 0x20 ADD PUSH1 0x60 DUP2 MSTORE POP SWAP1 JUMP JUMPDEST DUP1 CALLDATALOAD PUSH1 0x1 PUSH1 0xA0 PUSH1 0x2 EXP SUB DUP2 AND DUP2 EQ PUSH2 0x2147 JUMPI PUSH1 0x0 DUP1 REVERT JUMPDEST SWAP2 SWAP1 POP JUMP JUMPDEST PUSH1 0x0 DUP1 PUSH1 0x40 DUP4 DUP6 SUB SLT ISZERO PUSH2 0x215F JUMPI PUSH1 0x0 DUP1 REVERT JUMPDEST PUSH2 0x2168 DUP4 PUSH2 0x2130 JUMP JUMPDEST SWAP5 PUSH1 0x20 SWAP4 SWAP1 SWAP4 ADD CALLDATALOAD SWAP4 POP POP POP JUMP JUMPDEST PUSH1 0x0 PUSH1 0x20 DUP3 DUP5 SUB SLT ISZERO PUSH2 0x2188 JUMPI PUSH1 0x0 DUP1 REVERT JUMPDEST PUSH2 0x2191 DUP3 PUSH2 0x2130 JUMP JUMPDEST SWAP4 SWAP3 POP POP POP JUMP JUMPDEST PUSH1 0x0 DUP2 MLOAD DUP1 DUP5 MSTORE PUSH1 0x0 JUMPDEST DUP2 DUP2 LT ISZERO PUSH2 0x21BE JUMPI PUSH1 0x20 DUP2 DUP6 ADD DUP2 ADD MLOAD DUP7 DUP4 ADD DUP3 ADD MSTORE ADD PUSH2 0x21A2 JUMP JUMPDEST POP PUSH1 0x0 PUSH1 0x20 DUP3 DUP7 ADD ADD MSTORE PUSH1 0x20 PUSH1 0x1F NOT PUSH1 0x1F DUP4 ADD AND DUP6 ADD ADD SWAP2 POP POP SWAP3 SWAP2 POP POP JUMP JUMPDEST PUSH1 0x20 DUP1 DUP3 MSTORE DUP3 MLOAD DUP3 DUP3 ADD DUP2 SWAP1 MSTORE PUSH1 0x0 SWAP2 SWAP1 PUSH1 0x40 SWAP1 DUP2 DUP6 ADD SWAP1 DUP1 DUP5 MUL DUP7 ADD DUP4 ADD DUP8 DUP6 ADD DUP7 JUMPDEST DUP4 DUP2 LT ISZERO PUSH2 0x22BB JUMPI PUSH1 0x3F NOT DUP10 DUP5 SUB ADD DUP6 MSTORE DUP2 MLOAD DUP1 MLOAD DUP5 MSTORE DUP8 DUP2 ADD MLOAD DUP9 DUP6 ADD MSTORE DUP7 DUP2 ADD MLOAD DUP8 DUP6 ADD MSTORE PUSH1 0x60 DUP1 DUP3 ADD MLOAD SWAP1 DUP6 ADD MSTORE PUSH1 0x80 DUP1 DUP3 ADD MLOAD ISZERO ISZERO SWAP1 DUP6 ADD MSTORE PUSH1 0xA0 DUP1 DUP3 ADD MLOAD SWAP1 DUP6 ADD MSTORE PUSH1 0xC0 DUP1 DUP3 ADD MLOAD ISZERO ISZERO SWAP1 DUP6 ADD MSTORE PUSH1 0xE0 DUP1 DUP3 ADD MLOAD PUSH2 0x140 DUP3 DUP8 ADD DUP2 SWAP1 MSTORE SWAP2 SWAP1 PUSH2 0x2272 DUP4 DUP9 ADD DUP3 PUSH2 0x2198 JUMP JUMPDEST SWAP3 POP POP POP PUSH2 0x100 DUP1 DUP4 ADD MLOAD PUSH2 0x228A DUP3 DUP9 ADD DUP3 ISZERO ISZERO SWAP1 MSTORE JUMP JUMPDEST POP POP PUSH2 0x120 DUP1 DUP4 ADD MLOAD SWAP3 POP DUP6 DUP3 SUB DUP2 DUP8 ADD MSTORE POP PUSH2 0x22A7 DUP2 DUP4 PUSH2 0x2198 JUMP JUMPDEST SWAP7 DUP10 ADD SWAP7 SWAP5 POP POP POP SWAP1 DUP7 ADD SWAP1 PUSH1 0x1 ADD PUSH2 0x2202 JUMP JUMPDEST POP SWAP1 SWAP9 SWAP8 POP POP POP POP POP POP POP POP JUMP JUMPDEST DUP5 DUP2 MSTORE PUSH1 0x80 PUSH1 0x20 DUP3 ADD MSTORE PUSH1 0x0 PUSH2 0x22E2 PUSH1 0x80 DUP4 ADD DUP7 PUSH2 0x2198 JUMP JUMPDEST SWAP4 ISZERO ISZERO PUSH1 0x40 DUP4 ADD MSTORE POP SWAP1 ISZERO ISZERO PUSH1 0x60 SWAP1 SWAP2 ADD MSTORE SWAP3 SWAP2 POP POP JUMP JUMPDEST PUSH1 0x0 PUSH1 0x20 DUP3 DUP5 SUB SLT ISZERO PUSH2 0x230C JUMPI PUSH1 0x0 DUP1 REVERT JUMPDEST POP CALLDATALOAD SWAP2 SWAP1 POP JUMP JUMPDEST PUSH1 0xE0 PUSH1 0x2 EXP PUSH4 0x4E487B71 MUL PUSH1 0x0 MSTORE PUSH1 0x41 PUSH1 0x4 MSTORE PUSH1 0x24 PUSH1 0x0 REVERT JUMPDEST PUSH1 0x0 DUP3 PUSH1 0x1F DUP4 ADD SLT PUSH2 0x233D JUMPI PUSH1 0x0 DUP1 REVERT JUMPDEST DUP2 CALLDATALOAD PUSH8 0xFFFFFFFFFFFFFFFF DUP1 DUP3 GT ISZERO PUSH2 0x2358 JUMPI PUSH2 0x2358 PUSH2 0x2313 JUMP JUMPDEST PUSH1 0x40 MLOAD PUSH1 0x1F DUP4 ADD PUSH1 0x1F NOT SWAP1 DUP2 AND PUSH1 0x3F ADD AND DUP2 ADD SWAP1 DUP3 DUP3 GT DUP2 DUP4 LT OR ISZERO PUSH2 0x2380 JUMPI PUSH2 0x2380 PUSH2 0x2313 JUMP JUMPDEST DUP2 PUSH1 0x40 MSTORE DUP4 DUP2 MSTORE DUP7 PUSH1 0x20 DUP6 DUP9 ADD ADD GT ISZERO PUSH2 0x2399 JUMPI PUSH1 0x0 DUP1 REVERT JUMPDEST DUP4 PUSH1 0x20 DUP8 ADD PUSH1 0x20 DUP4 ADD CALLDATACOPY PUSH1 0x0 PUSH1 0x20 DUP6 DUP4 ADD ADD MSTORE DUP1 SWAP5 POP POP POP POP POP SWAP3 SWAP2 POP POP JUMP JUMPDEST PUSH1 0x0 DUP1 PUSH1 0x0 DUP1 PUSH1 0x80 DUP6 DUP8 SUB SLT ISZERO PUSH2 0x23CF JUMPI PUSH1 0x0 DUP1 REVERT JUMPDEST PUSH2 0x23D8 DUP6 PUSH2 0x2130 JUMP JUMPDEST SWAP4 POP PUSH1 0x20 DUP6 ADD CALLDATALOAD SWAP3 POP PUSH1 0x40 DUP6 ADD CALLDATALOAD SWAP2 POP PUSH1 0x60 DUP6 ADD CALLDATALOAD PUSH8 0xFFFFFFFFFFFFFFFF DUP2 GT ISZERO PUSH2 0x2402 JUMPI PUSH1 0x0 DUP1 REVERT JUMPDEST PUSH2 0x240E DUP8 DUP3 DUP9 ADD PUSH2 0x232C JUMP JUMPDEST SWAP2 POP POP SWAP3 SWAP6 SWAP2 SWAP5 POP SWAP3 POP JUMP JUMPDEST PUSH1 0x20 DUP1 DUP3 MSTORE DUP3 MLOAD DUP3 DUP3 ADD DUP2 SWAP1 MSTORE PUSH1 0x0 SWAP2 SWAP1 DUP5 DUP3 ADD SWAP1 PUSH1 0x40 DUP6 ADD SWAP1 DUP5 JUMPDEST DUP2 DUP2 LT ISZERO PUSH2 0x2452 JUMPI DUP4 MLOAD DUP4 MSTORE SWAP3 DUP5 ADD SWAP3 SWAP2 DUP5 ADD SWAP2 PUSH1 0x1 ADD PUSH2 0x2436 JUMP JUMPDEST POP SWAP1 SWAP7 SWAP6 POP POP POP POP POP POP JUMP JUMPDEST PUSH1 0x0 DUP1 PUSH1 0x40 DUP4 DUP6 SUB SLT ISZERO PUSH2 0x2471 JUMPI PUSH1 0x0 DUP1 REVERT JUMPDEST DUP3 CALLDATALOAD SWAP2 POP PUSH1 0x20 DUP4 ADD CALLDATALOAD PUSH8 0xFFFFFFFFFFFFFFFF DUP2 GT ISZERO PUSH2 0x248F JUMPI PUSH1 0x0 DUP1 REVERT JUMPDEST PUSH2 0x249B DUP6 DUP3 DUP7 ADD PUSH2 0x232C JUMP JUMPDEST SWAP2 POP POP SWAP3 POP SWAP3 SWAP1 POP JUMP JUMPDEST PUSH1 0x20 DUP2 MSTORE DUP2 MLOAD PUSH1 0x20 DUP3 ADD MSTORE PUSH1 0x0 PUSH1 0x20 DUP4 ADD MLOAD PUSH1 0x80 PUSH1 0x40 DUP5 ADD MSTORE PUSH2 0x24CB PUSH1 0xA0 DUP5 ADD DUP3 PUSH2 0x2198 JUMP JUMPDEST SWAP1 POP PUSH1 0x40 DUP5 ADD MLOAD PUSH1 0x60 DUP5 ADD MSTORE PUSH1 0x60 DUP5 ADD MLOAD PUSH1 0x80 DUP5 ADD MSTORE DUP1 SWAP2 POP POP SWAP3 SWAP2 POP POP JUMP JUMPDEST PUSH1 0x20 DUP1 DUP3 MSTORE DUP3 MLOAD DUP3 DUP3 ADD DUP2 SWAP1 MSTORE PUSH1 0x0 SWAP2 SWAP1 PUSH1 0x40 SWAP1 DUP2 DUP6 ADD SWAP1 DUP1 DUP5 MUL DUP7 ADD DUP4 ADD DUP8 DUP6 ADD DUP7 JUMPDEST DUP4 DUP2 LT ISZERO PUSH2 0x22BB JUMPI PUSH1 0x3F NOT DUP10 DUP5 SUB ADD DUP6 MSTORE DUP2 MLOAD PUSH1 0x80 DUP2 MLOAD DUP6 MSTORE DUP9 DUP3 ADD MLOAD DUP2 DUP11 DUP8 ADD MSTORE PUSH2 0x253D DUP3 DUP8 ADD DUP3 PUSH2 0x2198 JUMP JUMPDEST DUP4 DUP11 ADD MLOAD ISZERO ISZERO DUP8 DUP12 ADD MSTORE PUSH1 0x60 SWAP4 DUP5 ADD MLOAD ISZERO ISZERO SWAP4 SWAP1 SWAP7 ADD SWAP3 SWAP1 SWAP3 MSTORE POP POP SWAP4 DUP7 ADD SWAP4 SWAP1 DUP7 ADD SWAP1 PUSH1 0x1 ADD PUSH2 0x250F JUMP JUMPDEST DUP5 DUP2 MSTORE PUSH1 0x80 PUSH1 0x20 DUP3 ADD MSTORE PUSH1 0x0 PUSH2 0x2582 PUSH1 0x80 DUP4 ADD DUP7 PUSH2 0x2198 JUMP JUMPDEST PUSH1 0x40 DUP4 ADD SWAP5 SWAP1 SWAP5 MSTORE POP PUSH1 0x60 ADD MSTORE SWAP3 SWAP2 POP POP JUMP JUMPDEST PUSH1 0x0 DUP1 PUSH1 0x0 PUSH1 0x60 DUP5 DUP7 SUB SLT ISZERO PUSH2 0x25AA JUMPI PUSH1 0x0 DUP1 REVERT JUMPDEST PUSH2 0x25B3 DUP5 PUSH2 0x2130 JUMP JUMPDEST SWAP6 PUSH1 0x20 DUP6 ADD CALLDATALOAD SWAP6 POP PUSH1 0x40 SWAP1 SWAP5 ADD CALLDATALOAD SWAP4 SWAP3 POP POP POP JUMP JUMPDEST PUSH1 0x0 DUP1 PUSH1 0x0 PUSH1 0x60 DUP5 DUP7 SUB SLT ISZERO PUSH2 0x25DD JUMPI PUSH1 0x0 DUP1 REVERT JUMPDEST DUP4 CALLDATALOAD SWAP3 POP PUSH1 0x20 DUP5 ADD CALLDATALOAD SWAP2 POP PUSH1 0x40 DUP5 ADD CALLDATALOAD PUSH8 0xFFFFFFFFFFFFFFFF DUP2 GT ISZERO PUSH2 0x2602 JUMPI PUSH1 0x0 DUP1 REVERT JUMPDEST PUSH2 0x260E DUP7 DUP3 DUP8 ADD PUSH2 0x232C JUMP JUMPDEST SWAP2 POP POP SWAP3 POP SWAP3 POP SWAP3 JUMP JUMPDEST PUSH1 0x0 DUP1 PUSH1 0x40 DUP4 DUP6 SUB SLT ISZERO PUSH2 0x262B JUMPI PUSH1 0x0 DUP1 REVERT JUMPDEST PUSH2 0x2634 DUP4 PUSH2 0x2130 JUMP JUMPDEST SWAP2 POP PUSH2 0x2642 PUSH1 0x20 DUP5 ADD PUSH2 0x2130 JUMP JUMPDEST SWAP1 POP SWAP3 POP SWAP3 SWAP1 POP JUMP JUMPDEST PUSH1 0x0 PUSH2 0x140 DUP13 DUP4 MSTORE DUP12 PUSH1 0x20 DUP5 ADD MSTORE DUP11 PUSH1 0x40 DUP5 ADD MSTORE DUP10 PUSH1 0x60 DUP5 ADD MSTORE DUP9 ISZERO ISZERO PUSH1 0x80 DUP5 ADD MSTORE DUP8 PUSH1 0xA0 DUP5 ADD MSTORE DUP7 ISZERO ISZERO PUSH1 0xC0 DUP5 ADD MSTORE DUP1 PUSH1 0xE0 DUP5 ADD MSTORE PUSH2 0x268D DUP2 DUP5 ADD DUP8 PUSH2 0x2198 JUMP JUMPDEST SWAP1 POP DUP5 ISZERO ISZERO PUSH2 0x100 DUP5 ADD MSTORE DUP3 DUP2 SUB PUSH2 0x120 DUP5 ADD MSTORE PUSH2 0x26AB DUP2 DUP6 PUSH2 0x2198 JUMP JUMPDEST SWAP14 SWAP13 POP POP POP POP POP POP POP POP POP POP POP POP POP JUMP JUMPDEST PUSH1 0x20 DUP1 DUP3 MSTORE PUSH1 0x6 SWAP1 DUP3 ADD MSTORE PUSH32 0x216F776E65720000000000000000000000000000000000000000000000000000 PUSH1 0x40 DUP3 ADD MSTORE PUSH1 0x60 ADD SWAP1 JUMP JUMPDEST PUSH1 0x20 DUP1 DUP3 MSTORE PUSH1 0xC SWAP1 DUP3 ADD MSTORE PUSH32 0x4E6F7420616E2061646D696E0000000000000000000000000000000000000000 PUSH1 0x40 DUP3 ADD MSTORE PUSH1 0x60 ADD SWAP1 JUMP JUMPDEST PUSH1 0x20 DUP1 DUP3 MSTORE PUSH1 0x15 SWAP1 DUP3 ADD MSTORE PUSH32 0x43726564697420646F6573206E6F742065786973740000000000000000000000 PUSH1 0x40 DUP3 ADD MSTORE PUSH1 0x60 ADD SWAP1 JUMP JUMPDEST PUSH1 0x20 DUP1 DUP3 MSTORE PUSH1 0x16 SWAP1 DUP3 ADD MSTORE PUSH32 0x43726564697420616C7265616479207265766F6B656400000000000000000000 PUSH1 0x40 DUP3 ADD MSTORE PUSH1 0x60 ADD SWAP1 JUMP JUMPDEST PUSH1 0x20 DUP1 DUP3 MSTORE PUSH1 0xF SWAP1 DUP3 ADD MSTORE PUSH32 0x496E76616C696420616464726573730000000000000000000000000000000000 PUSH1 0x40 DUP3 ADD MSTORE PUSH1 0x60 ADD SWAP1 JUMP JUMPDEST PUSH1 0xE0 PUSH1 0x2 EXP PUSH4 0x4E487B71 MUL PUSH1 0x0 MSTORE PUSH1 0x32 PUSH1 0x4 MSTORE PUSH1 0x24 PUSH1 0x0 REVERT JUMPDEST PUSH1 0x2 DUP2 DIV PUSH1 0x1 DUP3 AND DUP1 PUSH2 0x27FC JUMPI PUSH1 0x7F DUP3 AND SWAP2 POP JUMPDEST PUSH1 0x20 DUP3 LT DUP2 SUB PUSH2 0x281F JUMPI PUSH1 0xE0 PUSH1 0x2 EXP PUSH4 0x4E487B71 MUL PUSH1 0x0 MSTORE PUSH1 0x22 PUSH1 0x4 MSTORE PUSH1 0x24 PUSH1 0x0 REVERT JUMPDEST POP SWAP2 SWAP1 POP JUMP JUMPDEST PUSH1 0xE0 PUSH1 0x2 EXP PUSH4 0x4E487B71 MUL PUSH1 0x0 MSTORE PUSH1 0x11 PUSH1 0x4 MSTORE PUSH1 0x24 PUSH1 0x0 REVERT JUMPDEST PUSH1 0x0 PUSH1 0x1 DUP3 ADD PUSH2 0x2850 JUMPI PUSH2 0x2850 PUSH2 0x2825 JUMP JUMPDEST POP PUSH1 0x1 ADD SWAP1 JUMP JUMPDEST DUP1 DUP3 MUL DUP2 ISZERO DUP3 DUP3 DIV DUP5 EQ OR PUSH2 0x54E JUMPI PUSH2 0x54E PUSH2 0x2825 JUMP JUMPDEST PUSH1 0x1F DUP3 GT ISZERO PUSH2 0x28B8 JUMPI PUSH1 0x0 DUP2 DUP2 MSTORE PUSH1 0x20 DUP2 KECCAK256 PUSH1 0x20 PUSH1 0x1F DUP7 ADD DIV DUP2 ADD PUSH1 0x20 DUP7 LT ISZERO PUSH2 0x2895 JUMPI POP DUP1 JUMPDEST PUSH1 0x20 PUSH1 0x1F DUP7 ADD DIV DUP3 ADD SWAP2 POP JUMPDEST DUP2 DUP2 LT ISZERO PUSH2 0x28B4 JUMPI DUP3 DUP2 SSTORE PUSH1 0x1 ADD PUSH2 0x28A1 JUMP JUMPDEST POP POP POP JUMPDEST POP POP POP JUMP JUMPDEST DUP2 MLOAD PUSH8 0xFFFFFFFFFFFFFFFF DUP2 GT ISZERO PUSH2 0x28D7 JUMPI PUSH2 0x28D7 PUSH2 0x2313 JUMP JUMPDEST PUSH2 0x28EB DUP2 PUSH2 0x28E5 DUP5 SLOAD PUSH2 0x27E8 JUMP JUMPDEST DUP5 PUSH2 0x286E JUMP JUMPDEST PUSH1 0x20 DUP1 PUSH1 0x1F DUP4 GT PUSH1 0x1 DUP2 EQ PUSH2 0x2924 JUMPI PUSH1 0x0 DUP5 ISZERO PUSH2 0x2908 JUMPI POP DUP6 DUP4 ADD MLOAD JUMPDEST PUSH1 0x2 DUP1 DUP7 MUL PUSH1 0x8 DUP8 MUL SWAP1 SWAP2 EXP PUSH1 0x0 NOT DIV NOT DUP3 AND OR DUP7 SSTORE POP PUSH2 0x28B4 JUMP JUMPDEST PUSH1 0x0 DUP6 DUP2 MSTORE PUSH1 0x20 DUP2 KECCAK256 PUSH1 0x1F NOT DUP7 AND SWAP2 JUMPDEST DUP3 DUP2 LT ISZERO PUSH2 0x2953 JUMPI DUP9 DUP7 ADD MLOAD DUP3 SSTORE SWAP5 DUP5 ADD SWAP5 PUSH1 0x1 SWAP1 SWAP2 ADD SWAP1 DUP5 ADD PUSH2 0x2934 JUMP JUMPDEST POP DUP6 DUP3 LT ISZERO PUSH2 0x2973 JUMPI DUP8 DUP6 ADD MLOAD PUSH1 0x8 PUSH1 0x1F DUP9 AND MUL PUSH1 0x2 EXP PUSH1 0x0 NOT DIV NOT AND DUP2 SSTORE JUMPDEST POP POP POP POP POP PUSH1 0x2 MUL PUSH1 0x1 ADD SWAP1 SSTORE POP JUMP JUMPDEST DUP2 DUP2 SUB DUP2 DUP2 GT ISZERO PUSH2 0x54E JUMPI PUSH2 0x54E PUSH2 0x2825 JUMP JUMPDEST DUP1 DUP3 ADD DUP1 DUP3 GT ISZERO PUSH2 0x54E JUMPI PUSH2 0x54E PUSH2 0x2825 JUMP JUMPDEST DUP2 DUP2 SUB PUSH2 0x29B4 JUMPI POP POP JUMP JUMPDEST PUSH2 0x29BE DUP3 SLOAD PUSH2 0x27E8 JUMP JUMPDEST PUSH8 0xFFFFFFFFFFFFFFFF DUP2 GT ISZERO PUSH2 0x29D6 JUMPI PUSH2 0x29D6 PUSH2 0x2313 JUMP JUMPDEST PUSH2 0x29E4 DUP2 PUSH2 0x28E5 DUP5 SLOAD PUSH2 0x27E8 JUMP JUMPDEST PUSH1 0x0 PUSH1 0x1F DUP3 GT PUSH1 0x1 DUP2 EQ PUSH2 0x2A1C JUMPI PUSH1 0x0 DUP4 ISZERO PUSH2 0x2A00 JUMPI POP DUP5 DUP3 ADD SLOAD JUMPDEST PUSH1 0x2 DUP1 DUP6 MUL PUSH1 0x8 DUP7 MUL SWAP1 SWAP2 EXP PUSH1 0x0 NOT DIV NOT DUP3 AND OR DUP6 SSTORE POP PUSH2 0x2A83 JUMP JUMPDEST PUSH1 0x0 DUP6 DUP2 MSTORE PUSH1 0x20 SWAP1 KECCAK256 PUSH1 0x1F NOT DUP5 AND SWAP1 PUSH1 0x0 DUP7 DUP2 MSTORE PUSH1 0x20 SWAP1 KECCAK256 DUP5 JUMPDEST DUP4 DUP2 LT ISZERO PUSH2 0x2A56 JUMPI DUP3 DUP7 ADD SLOAD DUP3 SSTORE PUSH1 0x1 SWAP6 DUP7 ADD SWAP6 SWAP1 SWAP2 ADD SWAP1 PUSH1 0x20 ADD PUSH2 0x2A36 JUMP JUMPDEST POP DUP6 DUP4 LT ISZERO PUSH2 0x2A76 JUMPI DUP2 DUP6 ADD SLOAD PUSH1 0x8 PUSH1 0x1F DUP9 AND MUL PUSH1 0x2 EXP PUSH1 0x0 NOT DIV NOT AND DUP2 SSTORE JUMPDEST POP POP POP PUSH1 0x1 PUSH1 0x2 DUP5 MUL ADD DUP5 SSTORE JUMPDEST POP POP POP POP POP JUMP INVALID LOG2 PUSH5 0x6970667358 0x22 SLT KECCAK256 SWAP11 SSTORE TIMESTAMP PUSH7 0x82DC57D3ABE3BF 0xE0 SSTORE NUMBER PUSH14 0xFBBE0368FF52F5E971E20C9AD110 0x4D CALLER 0x24 PUSH5 0x736F6C6343 STOP ADDMOD EQ STOP CALLER "
				},
				"gasEstimates": {
					"creation": {
						"codeDepositCost": "2188800",
						"executionCost": "24161",
						"totalCost": "2212961"
					},
					"external": {
						"Cancel(address,uint256)": "22080",
						"addAdmin(address)": "22294",
						"addCourse(uint256,uint256,string)": "infinite",
						"addTeacher(address)": "21202",
						"allowance(address,address)": "infinite",
						"approve(address,uint256)": "20755",
						"approveCreditTransfer(address,uint256)": "22149",
						"courseExists(uint256)": "645",
						"courseLists(uint256)": "813",
						"courserInfo(uint256)": "infinite",
						"creditTransferRequests(address,uint256)": "infinite",
						"executeCreditTransfer(address,uint256)": "infinite",
						"getAllCourseID()": "infinite",
						"getCourseInfo(uint256)": "infinite",
						"getCreditTransfersOfStudent(address)": "infinite",
						"getCreditsOfStudent()": "infinite",
						"getStudentCreditByMechanism(address)": "infinite",
						"isAdmin(address)": "739",
						"modifyCredit(address,uint256,uint256)": "infinite",
						"owner()": "553",
						"recordCredit(address,uint256,uint256,string)": "infinite",
						"removeAdmin(address)": "22256",
						"removeTeacher(address)": "21553",
						"renounceOwnership()": "22518",
						"requestCreditTransfer(uint256,string)": "infinite",
						"requestOfStudent(address,uint256)": "1040",
						"studentCourseIds(address,uint256)": "1042",
						"studentCredits(address,uint256)": "infinite",
						"teachers(address)": "759",
						"transferOwnership(address)": "22988"
					}
				},
				"methodIdentifiers": {
					"Cancel(address,uint256)": "27f83af9",
					"addAdmin(address)": "70480275",
					"addCourse(uint256,uint256,string)": "dcc63a16",
					"addTeacher(address)": "3bc6e309",
					"allowance(address,address)": "dd62ed3e",
					"approve(address,uint256)": "095ea7b3",
					"approveCreditTransfer(address,uint256)": "6b105c81",
					"courseExists(uint256)": "5407b304",
					"courseLists(uint256)": "e2ed5a4e",
					"courserInfo(uint256)": "b264a4a5",
					"creditTransferRequests(address,uint256)": "4a5ad49e",
					"executeCreditTransfer(address,uint256)": "dba8c55f",
					"getAllCourseID()": "68fdbd70",
					"getCourseInfo(uint256)": "981059ee",
					"getCreditTransfersOfStudent(address)": "a59742df",
					"getCreditsOfStudent()": "416d6499",
					"getStudentCreditByMechanism(address)": "659cc07b",
					"isAdmin(address)": "24d7806c",
					"modifyCredit(address,uint256,uint256)": "b44e7d09",
					"owner()": "8da5cb5b",
					"recordCredit(address,uint256,uint256,string)": "5ba75156",
					"removeAdmin(address)": "1785f53c",
					"removeTeacher(address)": "52ff6846",
					"renounceOwnership()": "715018a6",
					"requestCreditTransfer(uint256,string)": "75e7c425",
					"requestOfStudent(address,uint256)": "bcab36f7",
					"studentCourseIds(address,uint256)": "0740c8cf",
					"studentCredits(address,uint256)": "f2012286",
					"teachers(address)": "f0a47f78",
					"transferOwnership(address)": "f2fde38b"
				}
			},
			"storageLayout": {
				"storage": [
					{
						"astId": 3,
						"contract": "credits2.sol:Creditcertification",
						"label": "_owner",
						"offset": 0,
						"slot": "0",
						"type": "t_address"
					},
					{
						"astId": 7,
						"contract": "credits2.sol:Creditcertification",
						"label": "isAdmin",
						"offset": 0,
						"slot": "1",
						"type": "t_mapping(t_address,t_bool)"
					},
					{
						"astId": 205,
						"contract": "credits2.sol:Creditcertification",
						"label": "courserInfo",
						"offset": 0,
						"slot": "2",
						"type": "t_mapping(t_uint256,t_struct(CourserInfo)200_storage)"
					},
					{
						"astId": 212,
						"contract": "credits2.sol:Creditcertification",
						"label": "studentCredits",
						"offset": 0,
						"slot": "3",
						"type": "t_mapping(t_address,t_mapping(t_uint256,t_struct(Credit)182_storage))"
					},
					{
						"astId": 217,
						"contract": "credits2.sol:Creditcertification",
						"label": "requestOfStudent",
						"offset": 0,
						"slot": "4",
						"type": "t_mapping(t_address,t_array(t_uint256)dyn_storage)"
					},
					{
						"astId": 222,
						"contract": "credits2.sol:Creditcertification",
						"label": "studentCourseIds",
						"offset": 0,
						"slot": "5",
						"type": "t_mapping(t_address,t_array(t_uint256)dyn_storage)"
					},
					{
						"astId": 226,
						"contract": "credits2.sol:Creditcertification",
						"label": "teachers",
						"offset": 0,
						"slot": "6",
						"type": "t_mapping(t_address,t_bool)"
					},
					{
						"astId": 230,
						"contract": "credits2.sol:Creditcertification",
						"label": "courseExists",
						"offset": 0,
						"slot": "7",
						"type": "t_mapping(t_uint256,t_bool)"
					},
					{
						"astId": 233,
						"contract": "credits2.sol:Creditcertification",
						"label": "courseLists",
						"offset": 0,
						"slot": "8",
						"type": "t_array(t_uint256)dyn_storage"
					},
					{
						"astId": 239,
						"contract": "credits2.sol:Creditcertification",
						"label": "allowance",
						"offset": 0,
						"slot": "9",
						"type": "t_mapping(t_address,t_mapping(t_address,t_uint256))"
					},
					{
						"astId": 245,
						"contract": "credits2.sol:Creditcertification",
						"label": "creditTransferRequests",
						"offset": 0,
						"slot": "10",
						"type": "t_mapping(t_address,t_array(t_struct(CreditTransfer)191_storage)dyn_storage)"
					}
				],
				"types": {
					"t_address": {
						"encoding": "inplace",
						"label": "address",
						"numberOfBytes": "20"
					},
					"t_array(t_struct(CreditTransfer)191_storage)dyn_storage": {
						"base": "t_struct(CreditTransfer)191_storage",
						"encoding": "dynamic_array",
						"label": "struct Creditcertification.CreditTransfer[]",
						"numberOfBytes": "32"
					},
					"t_array(t_uint256)dyn_storage": {
						"base": "t_uint256",
						"encoding": "dynamic_array",
						"label": "uint256[]",
						"numberOfBytes": "32"
					},
					"t_bool": {
						"encoding": "inplace",
						"label": "bool",
						"numberOfBytes": "1"
					},
					"t_mapping(t_address,t_array(t_struct(CreditTransfer)191_storage)dyn_storage)": {
						"encoding": "mapping",
						"key": "t_address",
						"label": "mapping(address => struct Creditcertification.CreditTransfer[])",
						"numberOfBytes": "32",
						"value": "t_array(t_struct(CreditTransfer)191_storage)dyn_storage"
					},
					"t_mapping(t_address,t_array(t_uint256)dyn_storage)": {
						"encoding": "mapping",
						"key": "t_address",
						"label": "mapping(address => uint256[])",
						"numberOfBytes": "32",
						"value": "t_array(t_uint256)dyn_storage"
					},
					"t_mapping(t_address,t_bool)": {
						"encoding": "mapping",
						"key": "t_address",
						"label": "mapping(address => bool)",
						"numberOfBytes": "32",
						"value": "t_bool"
					},
					"t_mapping(t_address,t_mapping(t_address,t_uint256))": {
						"encoding": "mapping",
						"key": "t_address",
						"label": "mapping(address => mapping(address => uint256))",
						"numberOfBytes": "32",
						"value": "t_mapping(t_address,t_uint256)"
					},
					"t_mapping(t_address,t_mapping(t_uint256,t_struct(Credit)182_storage))": {
						"encoding": "mapping",
						"key": "t_address",
						"label": "mapping(address => mapping(uint256 => struct Creditcertification.Credit))",
						"numberOfBytes": "32",
						"value": "t_mapping(t_uint256,t_struct(Credit)182_storage)"
					},
					"t_mapping(t_address,t_uint256)": {
						"encoding": "mapping",
						"key": "t_address",
						"label": "mapping(address => uint256)",
						"numberOfBytes": "32",
						"value": "t_uint256"
					},
					"t_mapping(t_uint256,t_bool)": {
						"encoding": "mapping",
						"key": "t_uint256",
						"label": "mapping(uint256 => bool)",
						"numberOfBytes": "32",
						"value": "t_bool"
					},
					"t_mapping(t_uint256,t_struct(CourserInfo)200_storage)": {
						"encoding": "mapping",
						"key": "t_uint256",
						"label": "mapping(uint256 => struct Creditcertification.CourserInfo)",
						"numberOfBytes": "32",
						"value": "t_struct(CourserInfo)200_storage"
					},
					"t_mapping(t_uint256,t_struct(Credit)182_storage)": {
						"encoding": "mapping",
						"key": "t_uint256",
						"label": "mapping(uint256 => struct Creditcertification.Credit)",
						"numberOfBytes": "32",
						"value": "t_struct(Credit)182_storage"
					},
					"t_string_storage": {
						"encoding": "bytes",
						"label": "string",
						"numberOfBytes": "32"
					},
					"t_struct(CourserInfo)200_storage": {
						"encoding": "inplace",
						"label": "struct Creditcertification.CourserInfo",
						"members": [
							{
								"astId": 193,
								"contract": "credits2.sol:Creditcertification",
								"label": "courserId",
								"offset": 0,
								"slot": "0",
								"type": "t_uint256"
							},
							{
								"astId": 195,
								"contract": "credits2.sol:Creditcertification",
								"label": "courserName",
								"offset": 0,
								"slot": "1",
								"type": "t_string_storage"
							},
							{
								"astId": 197,
								"contract": "credits2.sol:Creditcertification",
								"label": "credits",
								"offset": 0,
								"slot": "2",
								"type": "t_uint256"
							},
							{
								"astId": 199,
								"contract": "credits2.sol:Creditcertification",
								"label": "createTime",
								"offset": 0,
								"slot": "3",
								"type": "t_uint256"
							}
						],
						"numberOfBytes": "128"
					},
					"t_struct(Credit)182_storage": {
						"encoding": "inplace",
						"label": "struct Creditcertification.Credit",
						"members": [
							{
								"astId": 163,
								"contract": "credits2.sol:Creditcertification",
								"label": "courserId",
								"offset": 0,
								"slot": "0",
								"type": "t_uint256"
							},
							{
								"astId": 165,
								"contract": "credits2.sol:Creditcertification",
								"label": "credits",
								"offset": 0,
								"slot": "1",
								"type": "t_uint256"
							},
							{
								"astId": 167,
								"contract": "credits2.sol:Creditcertification",
								"label": "score",
								"offset": 0,
								"slot": "2",
								"type": "t_uint256"
							},
							{
								"astId": 169,
								"contract": "credits2.sol:Creditcertification",
								"label": "issueDate",
								"offset": 0,
								"slot": "3",
								"type": "t_uint256"
							},
							{
								"astId": 171,
								"contract": "credits2.sol:Creditcertification",
								"label": "isModified",
								"offset": 0,
								"slot": "4",
								"type": "t_bool"
							},
							{
								"astId": 173,
								"contract": "credits2.sol:Creditcertification",
								"label": "modifyNum",
								"offset": 0,
								"slot": "5",
								"type": "t_uint256"
							},
							{
								"astId": 175,
								"contract": "credits2.sol:Creditcertification",
								"label": "isRevoked",
								"offset": 0,
								"slot": "6",
								"type": "t_bool"
							},
							{
								"astId": 177,
								"contract": "credits2.sol:Creditcertification",
								"label": "issuingInstitution",
								"offset": 0,
								"slot": "7",
								"type": "t_string_storage"
							},
							{
								"astId": 179,
								"contract": "credits2.sol:Creditcertification",
								"label": "isTransferred",
								"offset": 0,
								"slot": "8",
								"type": "t_bool"
							},
							{
								"astId": 181,
								"contract": "credits2.sol:Creditcertification",
								"label": "targetInstitution",
								"offset": 0,
								"slot": "9",
								"type": "t_string_storage"
							}
						],
						"numberOfBytes": "320"
					},
					"t_struct(CreditTransfer)191_storage": {
						"encoding": "inplace",
						"label": "struct Creditcertification.CreditTransfer",
						"members": [
							{
								"astId": 184,
								"contract": "credits2.sol:Creditcertification",
								"label": "courseId",
								"offset": 0,
								"slot": "0",
								"type": "t_uint256"
							},
							{
								"astId": 186,
								"contract": "credits2.sol:Creditcertification",
								"label": "targetInstitution",
								"offset": 0,
								"slot": "1",
								"type": "t_string_storage"
							},
							{
								"astId": 188,
								"contract": "credits2.sol:Creditcertification",
								"label": "isApproved",
								"offset": 0,
								"slot": "2",
								"type": "t_bool"
							},
							{
								"astId": 190,
								"contract": "credits2.sol:Creditcertification",
								"label": "isExecuted",
								"offset": 1,
								"slot": "2",
								"type": "t_bool"
							}
						],
						"numberOfBytes": "96"
					},
					"t_uint256": {
						"encoding": "inplace",
						"label": "uint256",
						"numberOfBytes": "32"
					}
				}
			},
			"userdoc": {
				"kind": "user",
				"methods": {},
				"version": 1
			}
		}
	}
}