{
	"credits.sol": {
		"Creditcertification": {
			"abi": [
				{
					"anonymous": false,
					"inputs": [
						{
							"indexed": true,
							"internalType": "address",
							"name": "newAdmin",
							"type": "address"
						}
					],
					"name": "AdminAdded",
					"type": "event"
				},
				{
					"anonymous": false,
					"inputs": [
						{
							"indexed": true,
							"internalType": "address",
							"name": "admin",
							"type": "address"
						}
					],
					"name": "AdminRemoved",
					"type": "event"
				},
				{
					"anonymous": false,
					"inputs": [
						{
							"indexed": true,
							"internalType": "address",
							"name": "previousOwner",
							"type": "address"
						},
						{
							"indexed": true,
							"internalType": "address",
							"name": "newOwner",
							"type": "address"
						}
					],
					"name": "OwnershipTransferred",
					"type": "event"
				},
				{
					"inputs": [
						{
							"internalType": "address",
							"name": "student",
							"type": "address"
						},
						{
							"internalType": "uint256",
							"name": "courseId",
							"type": "uint256"
						}
					],
					"name": "Cancel",
					"outputs": [],
					"stateMutability": "nonpayable",
					"type": "function"
				},
				{
					"inputs": [
						{
							"internalType": "address",
							"name": "_newAdmin",
							"type": "address"
						}
					],
					"name": "addAdmin",
					"outputs": [],
					"stateMutability": "nonpayable",
					"type": "function"
				},
				{
					"inputs": [
						{
							"internalType": "uint256",
							"name": "courseId",
							"type": "uint256"
						},
						{
							"internalType": "uint256",
							"name": "credits",
							"type": "uint256"
						},
						{
							"internalType": "string",
							"name": "courseName",
							"type": "string"
						}
					],
					"name": "addCourse",
					"outputs": [],
					"stateMutability": "nonpayable",
					"type": "function"
				},
				{
					"inputs": [
						{
							"internalType": "address",
							"name": "teacher",
							"type": "address"
						}
					],
					"name": "addTeacher",
					"outputs": [],
					"stateMutability": "nonpayable",
					"type": "function"
				},
				{
					"inputs": [
						{
							"internalType": "address",
							"name": "",
							"type": "address"
						},
						{
							"internalType": "address",
							"name": "",
							"type": "address"
						}
					],
					"name": "allowance",
					"outputs": [
						{
							"internalType": "uint256",
							"name": "",
							"type": "uint256"
						}
					],
					"stateMutability": "view",
					"type": "function"
				},
				{
					"inputs": [
						{
							"internalType": "address",
							"name": "spender",
							"type": "address"
						},
						{
							"internalType": "uint256",
							"name": "num",
							"type": "uint256"
						}
					],
					"name": "approve",
					"outputs": [
						{
							"internalType": "bool",
							"name": "",
							"type": "bool"
						}
					],
					"stateMutability": "nonpayable",
					"type": "function"
				},
				{
					"inputs": [
						{
							"internalType": "address",
							"name": "student",
							"type": "address"
						},
						{
							"internalType": "uint256",
							"name": "index",
							"type": "uint256"
						}
					],
					"name": "approveCreditTransfer",
					"outputs": [],
					"stateMutability": "nonpayable",
					"type": "function"
				},
				{
					"inputs": [
						{
							"internalType": "uint256",
							"name": "",
							"type": "uint256"
						}
					],
					"name": "courseExists",
					"outputs": [
						{
							"internalType": "bool",
							"name": "",
							"type": "bool"
						}
					],
					"stateMutability": "view",
					"type": "function"
				},
				{
					"inputs": [
						{
							"internalType": "uint256",
							"name": "",
							"type": "uint256"
						}
					],
					"name": "courseLists",
					"outputs": [
						{
							"internalType": "uint256",
							"name": "",
							"type": "uint256"
						}
					],
					"stateMutability": "view",
					"type": "function"
				},
				{
					"inputs": [
						{
							"internalType": "uint256",
							"name": "",
							"type": "uint256"
						}
					],
					"name": "courserInfo",
					"outputs": [
						{
							"internalType": "uint256",
							"name": "courserId",
							"type": "uint256"
						},
						{
							"internalType": "string",
							"name": "courserName",
							"type": "string"
						},
						{
							"internalType": "uint256",
							"name": "credits",
							"type": "uint256"
						},
						{
							"internalType": "uint256",
							"name": "createTime",
							"type": "uint256"
						}
					],
					"stateMutability": "view",
					"type": "function"
				},
				{
					"inputs": [
						{
							"internalType": "address",
							"name": "",
							"type": "address"
						},
						{
							"internalType": "uint256",
							"name": "",
							"type": "uint256"
						}
					],
					"name": "creditTransferRequests",
					"outputs": [
						{
							"internalType": "uint256",
							"name": "courseId",
							"type": "uint256"
						},
						{
							"internalType": "string",
							"name": "targetInstitution",
							"type": "string"
						},
						{
							"internalType": "bool",
							"name": "isApproved",
							"type": "bool"
						},
						{
							"internalType": "bool",
							"name": "isExecuted",
							"type": "bool"
						}
					],
					"stateMutability": "view",
					"type": "function"
				},
				{
					"inputs": [
						{
							"internalType": "address",
							"name": "student",
							"type": "address"
						},
						{
							"internalType": "uint256",
							"name": "index",
							"type": "uint256"
						}
					],
					"name": "executeCreditTransfer",
					"outputs": [],
					"stateMutability": "nonpayable",
					"type": "function"
				},
				{
					"inputs": [],
					"name": "getAllCourseID",
					"outputs": [
						{
							"internalType": "uint256[]",
							"name": "",
							"type": "uint256[]"
						}
					],
					"stateMutability": "view",
					"type": "function"
				},
				{
					"inputs": [
						{
							"internalType": "uint256",
							"name": "courseId",
							"type": "uint256"
						}
					],
					"name": "getCourseInfo",
					"outputs": [
						{
							"components": [
								{
									"internalType": "uint256",
									"name": "courserId",
									"type": "uint256"
								},
								{
									"internalType": "string",
									"name": "courserName",
									"type": "string"
								},
								{
									"internalType": "uint256",
									"name": "credits",
									"type": "uint256"
								},
								{
									"internalType": "uint256",
									"name": "createTime",
									"type": "uint256"
								}
							],
							"internalType": "struct Creditcertification.CourserInfo",
							"name": "",
							"type": "tuple"
						}
					],
					"stateMutability": "nonpayable",
					"type": "function"
				},
				{
					"inputs": [
						{
							"internalType": "address",
							"name": "student",
							"type": "address"
						}
					],
					"name": "getCreditTransfersOfStudent",
					"outputs": [
						{
							"components": [
								{
									"internalType": "uint256",
									"name": "courseId",
									"type": "uint256"
								},
								{
									"internalType": "string",
									"name": "targetInstitution",
									"type": "string"
								},
								{
									"internalType": "bool",
									"name": "isApproved",
									"type": "bool"
								},
								{
									"internalType": "bool",
									"name": "isExecuted",
									"type": "bool"
								}
							],
							"internalType": "struct Creditcertification.CreditTransfer[]",
							"name": "",
							"type": "tuple[]"
						}
					],
					"stateMutability": "view",
					"type": "function"
				},
				{
					"inputs": [],
					"name": "getCreditsOfStudent",
					"outputs": [
						{
							"components": [
								{
									"internalType": "uint256",
									"name": "courserId",
									"type": "uint256"
								},
								{
									"internalType": "uint256",
									"name": "credits",
									"type": "uint256"
								},
								{
									"internalType": "uint256",
									"name": "score",
									"type": "uint256"
								},
								{
									"internalType": "uint256",
									"name": "issueDate",
									"type": "uint256"
								},
								{
									"internalType": "bool",
									"name": "isModified",
									"type": "bool"
								},
								{
									"internalType": "uint256",
									"name": "modifyNum",
									"type": "uint256"
								},
								{
									"internalType": "bool",
									"name": "isRevoked",
									"type": "bool"
								},
								{
									"internalType": "string",
									"name": "issuingInstitution",
									"type": "string"
								},
								{
									"internalType": "bool",
									"name": "isTransferred",
									"type": "bool"
								},
								{
									"internalType": "string",
									"name": "targetInstitution",
									"type": "string"
								}
							],
							"internalType": "struct Creditcertification.Credit[]",
							"name": "creditList",
							"type": "tuple[]"
						}
					],
					"stateMutability": "view",
					"type": "function"
				},
				{
					"inputs": [
						{
							"internalType": "address",
							"name": "student",
							"type": "address"
						}
					],
					"name": "getStudentCreditByMechanism",
					"outputs": [
						{
							"components": [
								{
									"internalType": "uint256",
									"name": "courserId",
									"type": "uint256"
								},
								{
									"internalType": "uint256",
									"name": "credits",
									"type": "uint256"
								},
								{
									"internalType": "uint256",
									"name": "score",
									"type": "uint256"
								},
								{
									"internalType": "uint256",
									"name": "issueDate",
									"type": "uint256"
								},
								{
									"internalType": "bool",
									"name": "isModified",
									"type": "bool"
								},
								{
									"internalType": "uint256",
									"name": "modifyNum",
									"type": "uint256"
								},
								{
									"internalType": "bool",
									"name": "isRevoked",
									"type": "bool"
								},
								{
									"internalType": "string",
									"name": "issuingInstitution",
									"type": "string"
								},
								{
									"internalType": "bool",
									"name": "isTransferred",
									"type": "bool"
								},
								{
									"internalType": "string",
									"name": "targetInstitution",
									"type": "string"
								}
							],
							"internalType": "struct Creditcertification.Credit[]",
							"name": "creditList",
							"type": "tuple[]"
						}
					],
					"stateMutability": "nonpayable",
					"type": "function"
				},
				{
					"inputs": [
						{
							"internalType": "address",
							"name": "",
							"type": "address"
						}
					],
					"name": "isAdmin",
					"outputs": [
						{
							"internalType": "bool",
							"name": "",
							"type": "bool"
						}
					],
					"stateMutability": "view",
					"type": "function"
				},
				{
					"inputs": [
						{
							"internalType": "address",
							"name": "student",
							"type": "address"
						},
						{
							"internalType": "uint256",
							"name": "courseId",
							"type": "uint256"
						},
						{
							"internalType": "uint256",
							"name": "newCredits",
							"type": "uint256"
						},
						{
							"internalType": "uint256",
							"name": "newScore",
							"type": "uint256"
						}
					],
					"name": "modifyCredit",
					"outputs": [],
					"stateMutability": "nonpayable",
					"type": "function"
				},
				{
					"inputs": [],
					"name": "owner",
					"outputs": [
						{
							"internalType": "address",
							"name": "",
							"type": "address"
						}
					],
					"stateMutability": "view",
					"type": "function"
				},
				{
					"inputs": [
						{
							"internalType": "address",
							"name": "student",
							"type": "address"
						},
						{
							"internalType": "uint256",
							"name": "courserId",
							"type": "uint256"
						},
						{
							"internalType": "uint256",
							"name": "credits",
							"type": "uint256"
						},
						{
							"internalType": "uint256",
							"name": "score",
							"type": "uint256"
						},
						{
							"internalType": "string",
							"name": "issuingInstitution",
							"type": "string"
						}
					],
					"name": "recordCredit",
					"outputs": [],
					"stateMutability": "nonpayable",
					"type": "function"
				},
				{
					"inputs": [
						{
							"internalType": "address",
							"name": "_admin",
							"type": "address"
						}
					],
					"name": "removeAdmin",
					"outputs": [],
					"stateMutability": "nonpayable",
					"type": "function"
				},
				{
					"inputs": [
						{
							"internalType": "address",
							"name": "teacher",
							"type": "address"
						}
					],
					"name": "removeTeacher",
					"outputs": [],
					"stateMutability": "nonpayable",
					"type": "function"
				},
				{
					"inputs": [],
					"name": "renounceOwnership",
					"outputs": [],
					"stateMutability": "nonpayable",
					"type": "function"
				},
				{
					"inputs": [
						{
							"internalType": "uint256",
							"name": "courseId",
							"type": "uint256"
						},
						{
							"internalType": "string",
							"name": "targetInstitution",
							"type": "string"
						}
					],
					"name": "requestCreditTransfer",
					"outputs": [],
					"stateMutability": "nonpayable",
					"type": "function"
				},
				{
					"inputs": [
						{
							"internalType": "address",
							"name": "",
							"type": "address"
						},
						{
							"internalType": "uint256",
							"name": "",
							"type": "uint256"
						}
					],
					"name": "studentCourseIds",
					"outputs": [
						{
							"internalType": "uint256",
							"name": "",
							"type": "uint256"
						}
					],
					"stateMutability": "view",
					"type": "function"
				},
				{
					"inputs": [
						{
							"internalType": "address",
							"name": "",
							"type": "address"
						},
						{
							"internalType": "uint256",
							"name": "",
							"type": "uint256"
						}
					],
					"name": "studentCredits",
					"outputs": [
						{
							"internalType": "uint256",
							"name": "courserId",
							"type": "uint256"
						},
						{
							"internalType": "uint256",
							"name": "credits",
							"type": "uint256"
						},
						{
							"internalType": "uint256",
							"name": "score",
							"type": "uint256"
						},
						{
							"internalType": "uint256",
							"name": "issueDate",
							"type": "uint256"
						},
						{
							"internalType": "bool",
							"name": "isModified",
							"type": "bool"
						},
						{
							"internalType": "uint256",
							"name": "modifyNum",
							"type": "uint256"
						},
						{
							"internalType": "bool",
							"name": "isRevoked",
							"type": "bool"
						},
						{
							"internalType": "string",
							"name": "issuingInstitution",
							"type": "string"
						},
						{
							"internalType": "bool",
							"name": "isTransferred",
							"type": "bool"
						},
						{
							"internalType": "string",
							"name": "targetInstitution",
							"type": "string"
						}
					],
					"stateMutability": "view",
					"type": "function"
				},
				{
					"inputs": [
						{
							"internalType": "address",
							"name": "",
							"type": "address"
						}
					],
					"name": "teachers",
					"outputs": [
						{
							"internalType": "bool",
							"name": "",
							"type": "bool"
						}
					],
					"stateMutability": "view",
					"type": "function"
				},
				{
					"inputs": [
						{
							"internalType": "address",
							"name": "newOwner",
							"type": "address"
						}
					],
					"name": "transferOwnership",
					"outputs": [],
					"stateMutability": "nonpayable",
					"type": "function"
				}
			],
			"devdoc": {
				"kind": "dev",
				"methods": {},
				"version": 1
			},
			"evm": {
				"assembly": "    /* \"credits.sol\":1498:9651  contract Creditcertification is Ownable{... */\n  mstore(0x40, 0x80)\n  callvalue\n  dup1\n  iszero\n  tag_1\n  jumpi\n  0x00\n  dup1\n  revert\ntag_1:\n  pop\n    /* \"credits.sol\":415:432  address msgSender */\n  0x00\n    /* \"credits.sol\":456:474  _owner = msgSender */\n  dup1\n  sload\n  not(sub(exp(0x02, 0xa0), 0x01))\n  and\n    /* \"credits.sol\":435:445  msg.sender */\n  caller\n    /* \"credits.sol\":456:474  _owner = msgSender */\n  swap1\n  dup2\n  or\n  dup3\n  sstore\n    /* \"credits.sol\":490:533  OwnershipTransferred(address(0), msgSender) */\n  mload(0x40)\n    /* \"credits.sol\":435:445  msg.sender */\n  swap1\n  swap2\n  dup3\n  swap2\n    /* \"credits.sol\":490:533  OwnershipTransferred(address(0), msgSender) */\n  0x8be0079c531659141344cd1fd0a4f28419497f9722a3daafe3b4186f6b6457e0\n  swap1\n    /* \"credits.sol\":415:432  address msgSender */\n  dup3\n  swap1\n    /* \"credits.sol\":490:533  OwnershipTransferred(address(0), msgSender) */\n  log3\n    /* \"credits.sol\":404:541  {... */\n  pop\n    /* \"credits.sol\":1498:9651  contract Creditcertification is Ownable{... */\n  dataSize(sub_0)\n  dup1\n  dataOffset(sub_0)\n  0x00\n  codecopy\n  0x00\n  return\nstop\n\nsub_0: assembly {\n        /* \"credits.sol\":1498:9651  contract Creditcertification is Ownable{... */\n      mstore(0x40, 0x80)\n      callvalue\n      dup1\n      iszero\n      tag_1\n      jumpi\n      0x00\n      dup1\n      revert\n    tag_1:\n      pop\n      jumpi(tag_2, lt(calldatasize, 0x04))\n      calldataload(0x00)\n      0x0100000000000000000000000000000000000000000000000000000000\n      swap1\n      div\n      dup1\n      0x70480275\n      gt\n      tag_32\n      jumpi\n      dup1\n      0xdba8c55f\n      gt\n      tag_33\n      jumpi\n      dup1\n      0xeaf12fd1\n      gt\n      tag_34\n      jumpi\n      dup1\n      0xeaf12fd1\n      eq\n      tag_28\n      jumpi\n      dup1\n      0xf0a47f78\n      eq\n      tag_29\n      jumpi\n      dup1\n      0xf2012286\n      eq\n      tag_30\n      jumpi\n      dup1\n      0xf2fde38b\n      eq\n      tag_31\n      jumpi\n      0x00\n      dup1\n      revert\n    tag_34:\n      dup1\n      0xdba8c55f\n      eq\n      tag_24\n      jumpi\n      dup1\n      0xdcc63a16\n      eq\n      tag_25\n      jumpi\n      dup1\n      0xdd62ed3e\n      eq\n      tag_26\n      jumpi\n      dup1\n      0xe2ed5a4e\n      eq\n      tag_27\n      jumpi\n      0x00\n      dup1\n      revert\n    tag_33:\n      dup1\n      0x8da5cb5b\n      gt\n      tag_35\n      jumpi\n      dup1\n      0x8da5cb5b\n      eq\n      tag_20\n      jumpi\n      dup1\n      0x981059ee\n      eq\n      tag_21\n      jumpi\n      dup1\n      0xa59742df\n      eq\n      tag_22\n      jumpi\n      dup1\n      0xb264a4a5\n      eq\n      tag_23\n      jumpi\n      0x00\n      dup1\n      revert\n    tag_35:\n      dup1\n      0x70480275\n      eq\n      tag_17\n      jumpi\n      dup1\n      0x715018a6\n      eq\n      tag_18\n      jumpi\n      dup1\n      0x75e7c425\n      eq\n      tag_19\n      jumpi\n      0x00\n      dup1\n      revert\n    tag_32:\n      dup1\n      0x4a5ad49e\n      gt\n      tag_36\n      jumpi\n      dup1\n      0x5407b304\n      gt\n      tag_37\n      jumpi\n      dup1\n      0x5407b304\n      eq\n      tag_13\n      jumpi\n      dup1\n      0x659cc07b\n      eq\n      tag_14\n      jumpi\n      dup1\n      0x68fdbd70\n      eq\n      tag_15\n      jumpi\n      dup1\n      0x6b105c81\n      eq\n      tag_16\n      jumpi\n      0x00\n      dup1\n      revert\n    tag_37:\n      dup1\n      0x4a5ad49e\n      eq\n      tag_10\n      jumpi\n      dup1\n      0x52ff6846\n      eq\n      tag_11\n      jumpi\n      dup1\n      0x53f856c2\n      eq\n      tag_12\n      jumpi\n      0x00\n      dup1\n      revert\n    tag_36:\n      dup1\n      0x24d7806c\n      gt\n      tag_38\n      jumpi\n      dup1\n      0x24d7806c\n      eq\n      tag_6\n      jumpi\n      dup1\n      0x27f83af9\n      eq\n      tag_7\n      jumpi\n      dup1\n      0x3bc6e309\n      eq\n      tag_8\n      jumpi\n      dup1\n      0x416d6499\n      eq\n      tag_9\n      jumpi\n      0x00\n      dup1\n      revert\n    tag_38:\n      dup1\n      0x0740c8cf\n      eq\n      tag_3\n      jumpi\n      dup1\n      0x095ea7b3\n      eq\n      tag_4\n      jumpi\n      dup1\n      0x1785f53c\n      eq\n      tag_5\n      jumpi\n    tag_2:\n      0x00\n      dup1\n      revert\n        /* \"credits.sol\":2795:2845  mapping(address => uint[]) public studentCourseIds */\n    tag_3:\n      tag_39\n      tag_40\n      calldatasize\n      0x04\n      tag_41\n      jump\t// in\n    tag_40:\n      tag_42\n      jump\t// in\n    tag_39:\n      mload(0x40)\n        /* \"#utility.yul\":620:645   */\n      swap1\n      dup2\n      mstore\n        /* \"#utility.yul\":608:610   */\n      0x20\n        /* \"#utility.yul\":593:611   */\n      add\n        /* \"credits.sol\":2795:2845  mapping(address => uint[]) public studentCourseIds */\n    tag_43:\n      mload(0x40)\n      dup1\n      swap2\n      sub\n      swap1\n      return\n        /* \"credits.sol\":5763:5906  function approve(address spender,uint256 num )external returns(bool){... */\n    tag_4:\n      tag_45\n      tag_46\n      calldatasize\n      0x04\n      tag_41\n      jump\t// in\n    tag_46:\n      tag_47\n      jump\t// in\n    tag_45:\n      mload(0x40)\n        /* \"#utility.yul\":917:931   */\n      swap1\n      iszero\n        /* \"#utility.yul\":910:932   */\n      iszero\n        /* \"#utility.yul\":892:933   */\n      dup2\n      mstore\n        /* \"#utility.yul\":880:882   */\n      0x20\n        /* \"#utility.yul\":865:883   */\n      add\n        /* \"credits.sol\":5763:5906  function approve(address spender,uint256 num )external returns(bool){... */\n      tag_43\n        /* \"#utility.yul\":752:939   */\n      jump\n        /* \"credits.sol\":776:909  function removeAdmin(address _admin) onlyOwner public  {... */\n    tag_5:\n      tag_50\n      tag_51\n      calldatasize\n      0x04\n      tag_52\n      jump\t// in\n    tag_51:\n      tag_53\n      jump\t// in\n    tag_50:\n      stop\n        /* \"credits.sol\":126:165  mapping(address => bool) public isAdmin */\n    tag_6:\n      tag_45\n      tag_55\n      calldatasize\n      0x04\n      tag_52\n      jump\t// in\n    tag_55:\n      mstore(0x20, 0x01)\n      0x00\n      swap1\n      dup2\n      mstore\n      0x40\n      swap1\n      keccak256\n      sload\n      0xff\n      and\n      dup2\n      jump\n        /* \"credits.sol\":7455:7826  function Cancel(address student,uint256 courseId)external  onlyAdmin{... */\n    tag_7:\n      tag_50\n      tag_59\n      calldatasize\n      0x04\n      tag_41\n      jump\t// in\n    tag_59:\n      tag_60\n      jump\t// in\n        /* \"credits.sol\":4023:4177  function addTeacher(address teacher)external onlyAdmin{... */\n    tag_8:\n      tag_50\n      tag_62\n      calldatasize\n      0x04\n      tag_52\n      jump\t// in\n    tag_62:\n      tag_63\n      jump\t// in\n        /* \"credits.sol\":5283:5696  function getCreditsOfStudent() external view returns(Credit[] memory creditList) {... */\n    tag_9:\n      tag_64\n      tag_65\n      jump\t// in\n    tag_64:\n      mload(0x40)\n      tag_43\n      swap2\n      swap1\n      tag_67\n      jump\t// in\n        /* \"credits.sol\":3162:3228  mapping(address => CreditTransfer[]) public creditTransferRequests */\n    tag_10:\n      tag_68\n      tag_69\n      calldatasize\n      0x04\n      tag_41\n      jump\t// in\n    tag_69:\n      tag_70\n      jump\t// in\n    tag_68:\n      mload(0x40)\n      tag_43\n      swap5\n      swap4\n      swap3\n      swap2\n      swap1\n      tag_72\n      jump\t// in\n        /* \"credits.sol\":4205:4432  function removeTeacher(address teacher)external onlyAdmin{... */\n    tag_11:\n      tag_50\n      tag_74\n      calldatasize\n      0x04\n      tag_52\n      jump\t// in\n    tag_74:\n      tag_75\n      jump\t// in\n        /* \"credits.sol\":4478:5098  function recordCredit(address student,uint256 courserId,uint256 credits,uint256 score,string memory issuingInstitution)public onlyTeacher{... */\n    tag_12:\n      tag_50\n      tag_77\n      calldatasize\n      0x04\n      tag_78\n      jump\t// in\n    tag_77:\n      tag_79\n      jump\t// in\n        /* \"credits.sol\":2922:2966  mapping(uint256 => bool) public courseExists */\n    tag_13:\n      tag_45\n      tag_81\n      calldatasize\n      0x04\n      tag_82\n      jump\t// in\n    tag_81:\n      mstore(0x20, 0x06)\n      0x00\n      swap1\n      dup2\n      mstore\n      0x40\n      swap1\n      keccak256\n      sload\n      0xff\n      and\n      dup2\n      jump\n        /* \"credits.sol\":5961:6505  function getStudentCreditByMechanism(address student)external  returns(Credit[]memory creditList){... */\n    tag_14:\n      tag_64\n      tag_86\n      calldatasize\n      0x04\n      tag_52\n      jump\t// in\n    tag_86:\n      tag_87\n      jump\t// in\n        /* \"credits.sol\":5136:5234  function getAllCourseID()external view returns(uint[] memory){... */\n    tag_15:\n      tag_89\n      tag_90\n      jump\t// in\n    tag_89:\n      mload(0x40)\n      tag_43\n      swap2\n      swap1\n      tag_92\n      jump\t// in\n        /* \"credits.sol\":8457:8710  function approveCreditTransfer(address student, uint index) external onlyAdmin {... */\n    tag_16:\n      tag_50\n      tag_94\n      calldatasize\n      0x04\n      tag_41\n      jump\t// in\n    tag_94:\n      tag_95\n      jump\t// in\n        /* \"credits.sol\":636:768  function addAdmin(address _newAdmin)onlyOwner public {... */\n    tag_17:\n      tag_50\n      tag_97\n      calldatasize\n      0x04\n      tag_52\n      jump\t// in\n    tag_97:\n      tag_98\n      jump\t// in\n        /* \"credits.sol\":1121:1269  function renounceOwnership() public virtual onlyOwner {... */\n    tag_18:\n      tag_50\n      tag_100\n      jump\t// in\n        /* \"credits.sol\":7872:8385  function requestCreditTransfer(uint256 courseId, string memory targetInstitution) external {... */\n    tag_19:\n      tag_50\n      tag_102\n      calldatasize\n      0x04\n      tag_103\n      jump\t// in\n    tag_102:\n      tag_104\n      jump\t// in\n        /* \"credits.sol\":549:628  function owner() public view returns (address) {... */\n    tag_20:\n        /* \"credits.sol\":587:594  address */\n      0x00\n        /* \"credits.sol\":614:620  _owner */\n      sload\n        /* \"credits.sol\":549:628  function owner() public view returns (address) {... */\n      mload(0x40)\n      sub(exp(0x02, 0xa0), 0x01)\n        /* \"credits.sol\":614:620  _owner */\n      swap1\n      swap2\n      and\n        /* \"#utility.yul\":6907:6981   */\n      dup2\n      mstore\n        /* \"#utility.yul\":6895:6897   */\n      0x20\n        /* \"#utility.yul\":6880:6898   */\n      add\n        /* \"credits.sol\":549:628  function owner() public view returns (address) {... */\n      tag_43\n        /* \"#utility.yul\":6761:6987   */\n      jump\n        /* \"credits.sol\":3801:3991  function getCourseInfo(uint256 courseId)external returns(CourserInfo memory){... */\n    tag_21:\n      tag_109\n      tag_110\n      calldatasize\n      0x04\n      tag_82\n      jump\t// in\n    tag_110:\n      tag_111\n      jump\t// in\n    tag_109:\n      mload(0x40)\n      tag_43\n      swap2\n      swap1\n      tag_113\n      jump\t// in\n        /* \"credits.sol\":9416:9644  function getCreditTransfersOfStudent(address student) external  view returns (CreditTransfer[] memory) {... */\n    tag_22:\n      tag_114\n      tag_115\n      calldatasize\n      0x04\n      tag_52\n      jump\t// in\n    tag_115:\n      tag_116\n      jump\t// in\n    tag_114:\n      mload(0x40)\n      tag_43\n      swap2\n      swap1\n      tag_118\n      jump\t// in\n        /* \"credits.sol\":2579:2627  mapping (uint256=>CourserInfo)public courserInfo */\n    tag_23:\n      tag_119\n      tag_120\n      calldatasize\n      0x04\n      tag_82\n      jump\t// in\n    tag_120:\n      tag_121\n      jump\t// in\n    tag_119:\n      mload(0x40)\n      tag_43\n      swap5\n      swap4\n      swap3\n      swap2\n      swap1\n      tag_123\n      jump\t// in\n        /* \"credits.sol\":8758:9376  function executeCreditTransfer(address student, uint index) external onlyAdmin{... */\n    tag_24:\n      tag_50\n      tag_125\n      calldatasize\n      0x04\n      tag_41\n      jump\t// in\n    tag_125:\n      tag_126\n      jump\t// in\n        /* \"credits.sol\":3367:3767  function addCourse(uint256 courseId,uint256 credits,string memory courseName)external onlyAdmin{... */\n    tag_25:\n      tag_50\n      tag_128\n      calldatasize\n      0x04\n      tag_129\n      jump\t// in\n    tag_128:\n      tag_130\n      jump\t// in\n        /* \"credits.sol\":3047:3106  mapping(address=>mapping(address=>uint256))public allowance */\n    tag_26:\n      tag_39\n      tag_132\n      calldatasize\n      0x04\n      tag_133\n      jump\t// in\n    tag_132:\n      0x08\n      0x20\n      swap1\n      dup2\n      mstore\n      0x00\n      swap3\n      dup4\n      mstore\n      0x40\n      dup1\n      dup5\n      keccak256\n      swap1\n      swap2\n      mstore\n      swap1\n      dup3\n      mstore\n      swap1\n      keccak256\n      sload\n      dup2\n      jump\n        /* \"credits.sol\":2975:3003  uint256[]public  courseLists */\n    tag_27:\n      tag_39\n      tag_137\n      calldatasize\n      0x04\n      tag_82\n      jump\t// in\n    tag_137:\n      tag_138\n      jump\t// in\n        /* \"credits.sol\":6555:7396  function modifyCredit(address student, uint256 courseId, uint256 newCredits, uint256 newScore) external  onlyTeacher {... */\n    tag_28:\n      tag_50\n      tag_141\n      calldatasize\n      0x04\n      tag_142\n      jump\t// in\n    tag_141:\n      tag_143\n      jump\t// in\n        /* \"credits.sol\":2876:2913  mapping(address=>bool)public teachers */\n    tag_29:\n      tag_45\n      tag_145\n      calldatasize\n      0x04\n      tag_52\n      jump\t// in\n    tag_145:\n      mstore(0x20, 0x05)\n      0x00\n      swap1\n      dup2\n      mstore\n      0x40\n      swap1\n      keccak256\n      sload\n      0xff\n      and\n      dup2\n      jump\n        /* \"credits.sol\":2683:2748  mapping(address => mapping(uint => Credit)) public studentCredits */\n    tag_30:\n      tag_148\n      tag_149\n      calldatasize\n      0x04\n      tag_41\n      jump\t// in\n    tag_149:\n      tag_150\n      jump\t// in\n    tag_148:\n      mload(0x40)\n      tag_43\n      swap11\n      swap10\n      swap9\n      swap8\n      swap7\n      swap6\n      swap5\n      swap4\n      swap3\n      swap2\n      swap1\n      tag_152\n      jump\t// in\n        /* \"credits.sol\":1277:1491  function transferOwnership(address newOwner) public virtual onlyOwner {... */\n    tag_31:\n      tag_50\n      tag_154\n      calldatasize\n      0x04\n      tag_52\n      jump\t// in\n    tag_154:\n      tag_155\n      jump\t// in\n        /* \"credits.sol\":2795:2845  mapping(address => uint[]) public studentCourseIds */\n    tag_42:\n      mstore(0x20, 0x04)\n      dup2\n      0x00\n      mstore\n      keccak256(0x00, 0x40)\n      dup2\n      dup2\n      sload\n      dup2\n      lt\n      tag_156\n      jumpi\n      0x00\n      dup1\n      revert\n    tag_156:\n      swap1\n      0x00\n      mstore\n      keccak256(0x00, 0x20)\n      add\n      0x00\n      swap2\n      pop\n      swap2\n      pop\n      pop\n      sload\n      dup2\n      jump\t// out\n        /* \"credits.sol\":5763:5906  function approve(address spender,uint256 num )external returns(bool){... */\n    tag_47:\n        /* \"credits.sol\":5852:5862  msg.sender */\n      caller\n        /* \"credits.sol\":5826:5830  bool */\n      0x00\n        /* \"credits.sol\":5842:5863  allowance[msg.sender] */\n      swap1\n      dup2\n      mstore\n        /* \"credits.sol\":5842:5851  allowance */\n      0x08\n        /* \"credits.sol\":5842:5863  allowance[msg.sender] */\n      0x20\n      swap1\n      dup2\n      mstore\n      0x40\n      dup1\n      dup4\n      keccak256\n      sub(exp(0x02, 0xa0), 0x01)\n        /* \"credits.sol\":5842:5872  allowance[msg.sender][spender] */\n      dup7\n      and\n      dup5\n      mstore\n      swap1\n      swap2\n      mstore\n      swap1\n      keccak256\n        /* \"credits.sol\":5842:5876  allowance[msg.sender][spender]=num */\n      dup2\n      swap1\n      sstore\n        /* \"credits.sol\":5894:5898  true */\n      0x01\n        /* \"credits.sol\":5763:5906  function approve(address spender,uint256 num )external returns(bool){... */\n    tag_158:\n      swap3\n      swap2\n      pop\n      pop\n      jump\t// out\n        /* \"credits.sol\":776:909  function removeAdmin(address _admin) onlyOwner public  {... */\n    tag_53:\n        /* \"credits.sol\":957:963  _owner */\n      and(sub(exp(0x02, 0xa0), 0x01), sload(0x00))\n        /* \"credits.sol\":967:977  msg.sender */\n      caller\n        /* \"credits.sol\":957:977  _owner == msg.sender */\n      eq\n        /* \"credits.sol\":949:988  require(_owner == msg.sender, \"!owner\") */\n      tag_160\n      jumpi\n      mload(0x40)\n      mul(0x461bcd, exp(0x02, 0xe5))\n      dup2\n      mstore\n      0x04\n      add\n      tag_161\n      swap1\n      tag_162\n      jump\t// in\n    tag_161:\n      mload(0x40)\n      dup1\n      swap2\n      sub\n      swap1\n      revert\n    tag_160:\n      sub(exp(0x02, 0xa0), 0x01)\n        /* \"credits.sol\":842:857  isAdmin[_admin] */\n      dup2\n      and\n        /* \"credits.sol\":860:865  false */\n      0x00\n        /* \"credits.sol\":842:857  isAdmin[_admin] */\n      dup2\n      dup2\n      mstore\n        /* \"credits.sol\":842:849  isAdmin */\n      0x01\n        /* \"credits.sol\":842:857  isAdmin[_admin] */\n      0x20\n      mstore\n      0x40\n      dup1\n      dup3\n      keccak256\n        /* \"credits.sol\":842:865  isAdmin[_admin] = false */\n      dup1\n      sload\n      not(0xff)\n      and\n      swap1\n      sstore\n        /* \"credits.sol\":881:901  AdminRemoved(_admin) */\n      mload\n      0xa3b62bc36326052d97ea62d63c3d60308ed4c3ea8ac079dd8499f1e9c4f80c0f\n      swap2\n        /* \"credits.sol\":860:865  false */\n      swap1\n        /* \"credits.sol\":881:901  AdminRemoved(_admin) */\n      log2\n        /* \"credits.sol\":776:909  function removeAdmin(address _admin) onlyOwner public  {... */\n      pop\n      jump\t// out\n        /* \"credits.sol\":7455:7826  function Cancel(address student,uint256 courseId)external  onlyAdmin{... */\n    tag_60:\n        /* \"credits.sol\":1065:1075  msg.sender */\n      caller\n        /* \"credits.sol\":1057:1076  isAdmin[msg.sender] */\n      0x00\n      swap1\n      dup2\n      mstore\n        /* \"credits.sol\":1057:1064  isAdmin */\n      0x01\n        /* \"credits.sol\":1057:1076  isAdmin[msg.sender] */\n      0x20\n      mstore\n      0x40\n      swap1\n      keccak256\n      sload\n      0xff\n      and\n        /* \"credits.sol\":1049:1093  require(isAdmin[msg.sender], \"Not an admin\") */\n      tag_165\n      jumpi\n      mload(0x40)\n      mul(0x461bcd, exp(0x02, 0xe5))\n      dup2\n      mstore\n      0x04\n      add\n      tag_161\n      swap1\n      tag_167\n      jump\t// in\n    tag_165:\n      sub(exp(0x02, 0xa0), 0x01)\n        /* \"credits.sol\":7542:7565  studentCredits[student] */\n      dup3\n      and\n      0x00\n      swap1\n      dup2\n      mstore\n        /* \"credits.sol\":7542:7556  studentCredits */\n      0x03\n        /* \"credits.sol\":7542:7565  studentCredits[student] */\n      0x20\n      dup2\n      dup2\n      mstore\n      0x40\n      dup1\n      dup5\n      keccak256\n        /* \"credits.sol\":7542:7575  studentCredits[student][courseId] */\n      dup6\n      dup6\n      mstore\n      swap1\n      swap2\n      mstore\n      dup3\n      keccak256\n        /* \"credits.sol\":7542:7585  studentCredits[student][courseId].issueDate */\n      add\n      sload\n        /* \"credits.sol\":7542:7590  studentCredits[student][courseId].issueDate != 0 */\n      swap1\n      sub\n        /* \"credits.sol\":7534:7616  require(studentCredits[student][courseId].issueDate != 0, \"Credit does not exist\") */\n      tag_169\n      jumpi\n      mload(0x40)\n      mul(0x461bcd, exp(0x02, 0xe5))\n      dup2\n      mstore\n      0x04\n      add\n      tag_161\n      swap1\n      tag_171\n      jump\t// in\n    tag_169:\n      sub(exp(0x02, 0xa0), 0x01)\n        /* \"credits.sol\":7687:7710  studentCredits[student] */\n      dup3\n      and\n      0x00\n      swap1\n      dup2\n      mstore\n        /* \"credits.sol\":7687:7701  studentCredits */\n      0x03\n        /* \"credits.sol\":7687:7710  studentCredits[student] */\n      0x20\n      swap1\n      dup2\n      mstore\n      0x40\n      dup1\n      dup4\n      keccak256\n        /* \"credits.sol\":7687:7720  studentCredits[student][courseId] */\n      dup5\n      dup5\n      mstore\n      swap1\n      swap2\n      mstore\n      swap1\n      keccak256\n        /* \"credits.sol\":7687:7730  studentCredits[student][courseId].isRevoked */\n      0x06\n      add\n      sload\n      0xff\n      and\n        /* \"credits.sol\":7686:7730  !studentCredits[student][courseId].isRevoked */\n      iszero\n        /* \"credits.sol\":7678:7757  require(!studentCredits[student][courseId].isRevoked, \"Credit already revoked\") */\n      tag_175\n      jumpi\n      mload(0x40)\n      mul(0x461bcd, exp(0x02, 0xe5))\n      dup2\n      mstore\n      0x04\n      add\n      tag_161\n      swap1\n      tag_177\n      jump\t// in\n    tag_175:\n      sub(exp(0x02, 0xa0), 0x01)\n        /* \"credits.sol\":7768:7791  studentCredits[student] */\n      swap1\n      swap2\n      and\n      0x00\n      swap1\n      dup2\n      mstore\n        /* \"credits.sol\":7768:7782  studentCredits */\n      0x03\n        /* \"credits.sol\":7768:7791  studentCredits[student] */\n      0x20\n      swap1\n      dup2\n      mstore\n      0x40\n      dup1\n      dup4\n      keccak256\n        /* \"credits.sol\":7768:7801  studentCredits[student][courseId] */\n      swap4\n      dup4\n      mstore\n      swap3\n      swap1\n      mstore\n      keccak256\n        /* \"credits.sol\":7768:7811  studentCredits[student][courseId].isRevoked */\n      0x06\n      add\n        /* \"credits.sol\":7768:7818  studentCredits[student][courseId].isRevoked = true */\n      dup1\n      sload\n      not(0xff)\n      and\n        /* \"credits.sol\":7814:7818  true */\n      0x01\n        /* \"credits.sol\":7768:7818  studentCredits[student][courseId].isRevoked = true */\n      or\n      swap1\n      sstore\n        /* \"credits.sol\":7455:7826  function Cancel(address student,uint256 courseId)external  onlyAdmin{... */\n      jump\t// out\n        /* \"credits.sol\":4023:4177  function addTeacher(address teacher)external onlyAdmin{... */\n    tag_63:\n        /* \"credits.sol\":1065:1075  msg.sender */\n      caller\n        /* \"credits.sol\":1057:1076  isAdmin[msg.sender] */\n      0x00\n      swap1\n      dup2\n      mstore\n        /* \"credits.sol\":1057:1064  isAdmin */\n      0x01\n        /* \"credits.sol\":1057:1076  isAdmin[msg.sender] */\n      0x20\n      mstore\n      0x40\n      swap1\n      keccak256\n      sload\n      0xff\n      and\n        /* \"credits.sol\":1049:1093  require(isAdmin[msg.sender], \"Not an admin\") */\n      tag_179\n      jumpi\n      mload(0x40)\n      mul(0x461bcd, exp(0x02, 0xe5))\n      dup2\n      mstore\n      0x04\n      add\n      tag_161\n      swap1\n      tag_167\n      jump\t// in\n    tag_179:\n      sub(exp(0x02, 0xa0), 0x01)\n        /* \"credits.sol\":4096:4115  teacher!=address(0) */\n      dup2\n      and\n        /* \"credits.sol\":4088:4134  require(teacher!=address(0),\"Invalid address\") */\n      tag_182\n      jumpi\n      mload(0x40)\n      mul(0x461bcd, exp(0x02, 0xe5))\n      dup2\n      mstore\n      0x04\n      add\n      tag_161\n      swap1\n      tag_184\n      jump\t// in\n    tag_182:\n      sub(exp(0x02, 0xa0), 0x01)\n        /* \"credits.sol\":4147:4164  teachers[teacher] */\n      and\n      0x00\n      swap1\n      dup2\n      mstore\n        /* \"credits.sol\":4147:4155  teachers */\n      0x05\n        /* \"credits.sol\":4147:4164  teachers[teacher] */\n      0x20\n      mstore\n      0x40\n      swap1\n      keccak256\n        /* \"credits.sol\":4147:4169  teachers[teacher]=true */\n      dup1\n      sload\n      not(0xff)\n      and\n        /* \"credits.sol\":4165:4169  true */\n      0x01\n        /* \"credits.sol\":4147:4169  teachers[teacher]=true */\n      or\n      swap1\n      sstore\n        /* \"credits.sol\":4023:4177  function addTeacher(address teacher)external onlyAdmin{... */\n      jump\t// out\n        /* \"credits.sol\":5283:5696  function getCreditsOfStudent() external view returns(Credit[] memory creditList) {... */\n    tag_65:\n        /* \"credits.sol\":5406:5416  msg.sender */\n      caller\n        /* \"credits.sol\":5375:5386  uint length */\n      0x00\n        /* \"credits.sol\":5389:5417  studentCourseIds[msg.sender] */\n      swap1\n      dup2\n      mstore\n        /* \"credits.sol\":5389:5405  studentCourseIds */\n      0x04\n        /* \"credits.sol\":5389:5417  studentCourseIds[msg.sender] */\n      0x20\n      mstore\n      0x40\n      swap1\n      keccak256\n        /* \"credits.sol\":5389:5424  studentCourseIds[msg.sender].length */\n      sload\n        /* \"credits.sol\":5336:5362  Credit[] memory creditList */\n      0x60\n      swap1\n        /* \"credits.sol\":5389:5424  studentCourseIds[msg.sender].length */\n      dup1\n        /* \"credits.sol\":5448:5468  new Credit[](length) */\n      0xffffffffffffffff\n      dup2\n      gt\n      iszero\n      tag_187\n      jumpi\n      tag_187\n      tag_188\n      jump\t// in\n    tag_187:\n      mload(0x40)\n      swap1\n      dup1\n      dup3\n      mstore\n      dup1\n      0x20\n      mul\n      0x20\n      add\n      dup3\n      add\n      0x40\n      mstore\n      dup1\n      iszero\n      tag_189\n      jumpi\n      dup2\n      0x20\n      add\n    tag_190:\n      tag_191\n      tag_192\n      jump\t// in\n    tag_191:\n      dup2\n      mstore\n      0x20\n      add\n      swap1\n      0x01\n      swap1\n      sub\n      swap1\n      dup2\n      tag_190\n      jumpi\n      swap1\n      pop\n    tag_189:\n      pop\n        /* \"credits.sol\":5435:5468  creditList = new Credit[](length) */\n      swap2\n      pop\n        /* \"credits.sol\":5485:5491  uint i */\n      0x00\n        /* \"credits.sol\":5481:5659  for(uint i = 0; i < length; i++) {... */\n    tag_193:\n        /* \"credits.sol\":5501:5507  length */\n      dup2\n        /* \"credits.sol\":5497:5498  i */\n      dup2\n        /* \"credits.sol\":5497:5507  i < length */\n      lt\n        /* \"credits.sol\":5481:5659  for(uint i = 0; i < length; i++) {... */\n      iszero\n      tag_194\n      jumpi\n        /* \"credits.sol\":5564:5574  msg.sender */\n      caller\n        /* \"credits.sol\":5531:5544  uint courseId */\n      0x00\n        /* \"credits.sol\":5547:5575  studentCourseIds[msg.sender] */\n      swap1\n      dup2\n      mstore\n        /* \"credits.sol\":5547:5563  studentCourseIds */\n      0x04\n        /* \"credits.sol\":5547:5575  studentCourseIds[msg.sender] */\n      0x20\n      mstore\n      0x40\n      dup2\n      keccak256\n        /* \"credits.sol\":5547:5578  studentCourseIds[msg.sender][i] */\n      dup1\n      sload\n        /* \"credits.sol\":5576:5577  i */\n      dup4\n      swap1\n        /* \"credits.sol\":5547:5578  studentCourseIds[msg.sender][i] */\n      dup2\n      lt\n      tag_197\n      jumpi\n      tag_197\n      tag_198\n      jump\t// in\n    tag_197:\n      0x00\n      swap2\n      dup3\n      mstore\n      0x20\n      dup1\n      dup4\n      keccak256\n      swap1\n      swap2\n      add\n      sload\n        /* \"credits.sol\":5626:5636  msg.sender */\n      caller\n        /* \"credits.sol\":5611:5637  studentCredits[msg.sender] */\n      dup4\n      mstore\n        /* \"credits.sol\":5611:5625  studentCredits */\n      0x03\n        /* \"credits.sol\":5611:5637  studentCredits[msg.sender] */\n      dup1\n      dup4\n      mstore\n      0x40\n      dup1\n      dup6\n      keccak256\n        /* \"credits.sol\":5611:5647  studentCredits[msg.sender][courseId] */\n      dup4\n      dup7\n      mstore\n      dup5\n      mstore\n      swap4\n      dup5\n      swap1\n      keccak256\n        /* \"credits.sol\":5595:5647  creditList[i] = studentCredits[msg.sender][courseId] */\n      dup5\n      mload\n      0x0140\n      dup2\n      add\n      dup7\n      mstore\n      dup2\n      sload\n      dup2\n      mstore\n      0x01\n      dup3\n      add\n      sload\n      swap5\n      dup2\n      add\n      swap5\n      swap1\n      swap5\n      mstore\n      0x02\n      dup2\n      add\n      sload\n      swap5\n      dup5\n      add\n      swap5\n      swap1\n      swap5\n      mstore\n      dup4\n      add\n      sload\n      0x60\n      dup4\n      add\n      mstore\n      0x04\n      dup4\n      add\n      sload\n      0xff\n      swap1\n      dup2\n      and\n      iszero\n      iszero\n      0x80\n      dup5\n      add\n      mstore\n      0x05\n      dup5\n      add\n      sload\n      0xa0\n      dup5\n      add\n      mstore\n      0x06\n      dup5\n      add\n      sload\n      and\n      iszero\n      iszero\n      0xc0\n      dup4\n      add\n      mstore\n      0x07\n      dup4\n      add\n      dup1\n      sload\n        /* \"credits.sol\":5547:5578  studentCourseIds[msg.sender][i] */\n      swap2\n      swap5\n      pop\n        /* \"credits.sol\":5595:5647  creditList[i] = studentCredits[msg.sender][courseId] */\n      swap2\n      swap3\n        /* \"credits.sol\":5611:5647  studentCredits[msg.sender][courseId] */\n      swap2\n        /* \"credits.sol\":5595:5647  creditList[i] = studentCredits[msg.sender][courseId] */\n      0xe0\n      dup5\n      add\n      swap2\n      tag_200\n      swap1\n      tag_201\n      jump\t// in\n    tag_200:\n      dup1\n      0x1f\n      add\n      0x20\n      dup1\n      swap2\n      div\n      mul\n      0x20\n      add\n      mload(0x40)\n      swap1\n      dup2\n      add\n      0x40\n      mstore\n      dup1\n      swap3\n      swap2\n      swap1\n      dup2\n      dup2\n      mstore\n      0x20\n      add\n      dup3\n      dup1\n      sload\n      tag_202\n      swap1\n      tag_201\n      jump\t// in\n    tag_202:\n      dup1\n      iszero\n      tag_203\n      jumpi\n      dup1\n      0x1f\n      lt\n      tag_204\n      jumpi\n      0x0100\n      dup1\n      dup4\n      sload\n      div\n      mul\n      dup4\n      mstore\n      swap2\n      0x20\n      add\n      swap2\n      jump(tag_203)\n    tag_204:\n      dup3\n      add\n      swap2\n      swap1\n      0x00\n      mstore\n      keccak256(0x00, 0x20)\n      swap1\n    tag_205:\n      dup2\n      sload\n      dup2\n      mstore\n      swap1\n      0x01\n      add\n      swap1\n      0x20\n      add\n      dup1\n      dup4\n      gt\n      tag_205\n      jumpi\n      dup3\n      swap1\n      sub\n      0x1f\n      and\n      dup3\n      add\n      swap2\n    tag_203:\n      pop\n      pop\n      pop\n      swap2\n      dup4\n      mstore\n      pop\n      pop\n      0x08\n      dup3\n      add\n      sload\n      0xff\n      and\n      iszero\n      iszero\n      0x20\n      dup3\n      add\n      mstore\n      0x09\n      dup3\n      add\n      dup1\n      sload\n      0x40\n      swap1\n      swap3\n      add\n      swap2\n      tag_206\n      swap1\n      tag_201\n      jump\t// in\n    tag_206:\n      dup1\n      0x1f\n      add\n      0x20\n      dup1\n      swap2\n      div\n      mul\n      0x20\n      add\n      mload(0x40)\n      swap1\n      dup2\n      add\n      0x40\n      mstore\n      dup1\n      swap3\n      swap2\n      swap1\n      dup2\n      dup2\n      mstore\n      0x20\n      add\n      dup3\n      dup1\n      sload\n      tag_207\n      swap1\n      tag_201\n      jump\t// in\n    tag_207:\n      dup1\n      iszero\n      tag_208\n      jumpi\n      dup1\n      0x1f\n      lt\n      tag_209\n      jumpi\n      0x0100\n      dup1\n      dup4\n      sload\n      div\n      mul\n      dup4\n      mstore\n      swap2\n      0x20\n      add\n      swap2\n      jump(tag_208)\n    tag_209:\n      dup3\n      add\n      swap2\n      swap1\n      0x00\n      mstore\n      keccak256(0x00, 0x20)\n      swap1\n    tag_210:\n      dup2\n      sload\n      dup2\n      mstore\n      swap1\n      0x01\n      add\n      swap1\n      0x20\n      add\n      dup1\n      dup4\n      gt\n      tag_210\n      jumpi\n      dup3\n      swap1\n      sub\n      0x1f\n      and\n      dup3\n      add\n      swap2\n    tag_208:\n      pop\n      pop\n      pop\n      pop\n      pop\n      dup2\n      mstore\n      pop\n      pop\n        /* \"credits.sol\":5595:5605  creditList */\n      dup5\n        /* \"credits.sol\":5606:5607  i */\n      dup4\n        /* \"credits.sol\":5595:5608  creditList[i] */\n      dup2\n      mload\n      dup2\n      lt\n      tag_212\n      jumpi\n      tag_212\n      tag_198\n      jump\t// in\n    tag_212:\n      0x20\n      mul\n      0x20\n      add\n      add\n        /* \"credits.sol\":5595:5647  creditList[i] = studentCredits[msg.sender][courseId] */\n      dup2\n      swap1\n      mstore\n      pop\n        /* \"credits.sol\":5514:5659  {... */\n      pop\n        /* \"credits.sol\":5509:5512  i++ */\n      dup1\n      dup1\n      tag_213\n      swap1\n      tag_214\n      jump\t// in\n    tag_213:\n      swap2\n      pop\n      pop\n        /* \"credits.sol\":5481:5659  for(uint i = 0; i < length; i++) {... */\n      jump(tag_193)\n    tag_194:\n      pop\n        /* \"credits.sol\":5671:5688  return creditList */\n      pop\n        /* \"credits.sol\":5283:5696  function getCreditsOfStudent() external view returns(Credit[] memory creditList) {... */\n      swap1\n      jump\t// out\n        /* \"credits.sol\":3162:3228  mapping(address => CreditTransfer[]) public creditTransferRequests */\n    tag_70:\n      mstore(0x20, 0x09)\n      dup2\n      0x00\n      mstore\n      keccak256(0x00, 0x40)\n      dup2\n      dup2\n      sload\n      dup2\n      lt\n      tag_215\n      jumpi\n      0x00\n      dup1\n      revert\n    tag_215:\n      swap1\n      0x00\n      mstore\n      keccak256(0x00, 0x20)\n      swap1\n      0x03\n      mul\n      add\n      0x00\n      swap2\n      pop\n      swap2\n      pop\n      pop\n      dup1\n      0x00\n      add\n      sload\n      swap1\n      dup1\n      0x01\n      add\n      dup1\n      sload\n      tag_217\n      swap1\n      tag_201\n      jump\t// in\n    tag_217:\n      dup1\n      0x1f\n      add\n      0x20\n      dup1\n      swap2\n      div\n      mul\n      0x20\n      add\n      mload(0x40)\n      swap1\n      dup2\n      add\n      0x40\n      mstore\n      dup1\n      swap3\n      swap2\n      swap1\n      dup2\n      dup2\n      mstore\n      0x20\n      add\n      dup3\n      dup1\n      sload\n      tag_218\n      swap1\n      tag_201\n      jump\t// in\n    tag_218:\n      dup1\n      iszero\n      tag_219\n      jumpi\n      dup1\n      0x1f\n      lt\n      tag_220\n      jumpi\n      0x0100\n      dup1\n      dup4\n      sload\n      div\n      mul\n      dup4\n      mstore\n      swap2\n      0x20\n      add\n      swap2\n      jump(tag_219)\n    tag_220:\n      dup3\n      add\n      swap2\n      swap1\n      0x00\n      mstore\n      keccak256(0x00, 0x20)\n      swap1\n    tag_221:\n      dup2\n      sload\n      dup2\n      mstore\n      swap1\n      0x01\n      add\n      swap1\n      0x20\n      add\n      dup1\n      dup4\n      gt\n      tag_221\n      jumpi\n      dup3\n      swap1\n      sub\n      0x1f\n      and\n      dup3\n      add\n      swap2\n    tag_219:\n      pop\n      pop\n      pop\n      0x02\n      swap1\n      swap4\n      add\n      sload\n      swap2\n      swap3\n      pop\n      pop\n      0xff\n      dup1\n      dup3\n      and\n      swap2\n      0x0100\n      swap1\n      div\n      and\n      dup5\n      jump\t// out\n        /* \"credits.sol\":4205:4432  function removeTeacher(address teacher)external onlyAdmin{... */\n    tag_75:\n        /* \"credits.sol\":1065:1075  msg.sender */\n      caller\n        /* \"credits.sol\":1057:1076  isAdmin[msg.sender] */\n      0x00\n      swap1\n      dup2\n      mstore\n        /* \"credits.sol\":1057:1064  isAdmin */\n      0x01\n        /* \"credits.sol\":1057:1076  isAdmin[msg.sender] */\n      0x20\n      mstore\n      0x40\n      swap1\n      keccak256\n      sload\n      0xff\n      and\n        /* \"credits.sol\":1049:1093  require(isAdmin[msg.sender], \"Not an admin\") */\n      tag_223\n      jumpi\n      mload(0x40)\n      mul(0x461bcd, exp(0x02, 0xe5))\n      dup2\n      mstore\n      0x04\n      add\n      tag_161\n      swap1\n      tag_167\n      jump\t// in\n    tag_223:\n      sub(exp(0x02, 0xa0), 0x01)\n        /* \"credits.sol\":4281:4300  teacher!=address(0) */\n      dup2\n      and\n        /* \"credits.sol\":4273:4319  require(teacher!=address(0),\"Invalid address\") */\n      tag_226\n      jumpi\n      mload(0x40)\n      mul(0x461bcd, exp(0x02, 0xe5))\n      dup2\n      mstore\n      0x04\n      add\n      tag_161\n      swap1\n      tag_184\n      jump\t// in\n    tag_226:\n      sub(exp(0x02, 0xa0), 0x01)\n        /* \"credits.sol\":4338:4355  teachers[teacher] */\n      dup2\n      and\n      0x00\n      swap1\n      dup2\n      mstore\n        /* \"credits.sol\":4338:4346  teachers */\n      0x05\n        /* \"credits.sol\":4338:4355  teachers[teacher] */\n      0x20\n      mstore\n      0x40\n      swap1\n      keccak256\n      sload\n      0xff\n      and\n        /* \"credits.sol\":4338:4361  teachers[teacher]==true */\n      iszero\n      iszero\n        /* \"credits.sol\":4338:4355  teachers[teacher] */\n      0x01\n        /* \"credits.sol\":4338:4361  teachers[teacher]==true */\n      eq\n        /* \"credits.sol\":4330:4390  require(teachers[teacher]==true,\"address are not a teacher\") */\n      tag_228\n      jumpi\n      mload(0x40)\n      mul(0x461bcd, exp(0x02, 0xe5))\n      dup2\n      mstore\n        /* \"#utility.yul\":14633:14635   */\n      0x20\n        /* \"credits.sol\":4330:4390  require(teachers[teacher]==true,\"address are not a teacher\") */\n      0x04\n      dup3\n      add\n        /* \"#utility.yul\":14615:14636   */\n      mstore\n        /* \"#utility.yul\":14672:14674   */\n      0x19\n        /* \"#utility.yul\":14652:14670   */\n      0x24\n      dup3\n      add\n        /* \"#utility.yul\":14645:14675   */\n      mstore\n        /* \"#utility.yul\":14711:14738   */\n      0x6164647265737320617265206e6f742061207465616368657200000000000000\n        /* \"#utility.yul\":14691:14709   */\n      0x44\n      dup3\n      add\n        /* \"#utility.yul\":14684:14739   */\n      mstore\n        /* \"#utility.yul\":14756:14774   */\n      0x64\n      add\n        /* \"credits.sol\":4330:4390  require(teachers[teacher]==true,\"address are not a teacher\") */\n      tag_161\n        /* \"#utility.yul\":14431:14780   */\n      jump\n        /* \"credits.sol\":4330:4390  require(teachers[teacher]==true,\"address are not a teacher\") */\n    tag_228:\n      sub(exp(0x02, 0xa0), 0x01)\n        /* \"credits.sol\":4401:4418  teachers[teacher] */\n      and\n        /* \"credits.sol\":4419:4424  false */\n      0x00\n        /* \"credits.sol\":4401:4418  teachers[teacher] */\n      swap1\n      dup2\n      mstore\n        /* \"credits.sol\":4401:4409  teachers */\n      0x05\n        /* \"credits.sol\":4401:4418  teachers[teacher] */\n      0x20\n      mstore\n      0x40\n      swap1\n      keccak256\n        /* \"credits.sol\":4401:4424  teachers[teacher]=false */\n      dup1\n      sload\n      not(0xff)\n      and\n      swap1\n      sstore\n        /* \"credits.sol\":4205:4432  function removeTeacher(address teacher)external onlyAdmin{... */\n      jump\t// out\n        /* \"credits.sol\":4478:5098  function recordCredit(address student,uint256 courserId,uint256 credits,uint256 score,string memory issuingInstitution)public onlyTeacher{... */\n    tag_79:\n        /* \"credits.sol\":3290:3300  msg.sender */\n      caller\n        /* \"credits.sol\":3281:3301  teachers[msg.sender] */\n      0x00\n      swap1\n      dup2\n      mstore\n        /* \"credits.sol\":3281:3289  teachers */\n      0x05\n        /* \"credits.sol\":3281:3301  teachers[msg.sender] */\n      0x20\n      mstore\n      0x40\n      swap1\n      keccak256\n      sload\n      0xff\n      and\n        /* \"credits.sol\":3273:3319  require(teachers[msg.sender], \"Not a teacher\") */\n      tag_232\n      jumpi\n      mload(0x40)\n      mul(0x461bcd, exp(0x02, 0xe5))\n      dup2\n      mstore\n        /* \"#utility.yul\":14987:14989   */\n      0x20\n        /* \"credits.sol\":3273:3319  require(teachers[msg.sender], \"Not a teacher\") */\n      0x04\n      dup3\n      add\n        /* \"#utility.yul\":14969:14990   */\n      mstore\n        /* \"#utility.yul\":15026:15028   */\n      0x0d\n        /* \"#utility.yul\":15006:15024   */\n      0x24\n      dup3\n      add\n        /* \"#utility.yul\":14999:15029   */\n      mstore\n        /* \"#utility.yul\":15065:15080   */\n      0x4e6f742061207465616368657200000000000000000000000000000000000000\n        /* \"#utility.yul\":15045:15063   */\n      0x44\n      dup3\n      add\n        /* \"#utility.yul\":15038:15081   */\n      mstore\n        /* \"#utility.yul\":15098:15116   */\n      0x64\n      add\n        /* \"credits.sol\":3273:3319  require(teachers[msg.sender], \"Not a teacher\") */\n      tag_161\n        /* \"#utility.yul\":14785:15122   */\n      jump\n        /* \"credits.sol\":3273:3319  require(teachers[msg.sender], \"Not a teacher\") */\n    tag_232:\n      sub(exp(0x02, 0xa0), 0x01)\n        /* \"credits.sol\":4634:4653  student!=address(0) */\n      dup6\n      and\n        /* \"credits.sol\":4626:4672  require(student!=address(0),\"Invalid address\") */\n      tag_236\n      jumpi\n      mload(0x40)\n      mul(0x461bcd, exp(0x02, 0xe5))\n      dup2\n      mstore\n      0x04\n      add\n      tag_161\n      swap1\n      tag_184\n      jump\t// in\n    tag_236:\n        /* \"credits.sol\":4755:4756  0 */\n      0x00\n        /* \"credits.sol\":4747:4754  credits */\n      dup4\n        /* \"credits.sol\":4747:4756  credits>0 */\n      gt\n        /* \"credits.sol\":4739:4775  require(credits>0,\"Invalid credits\") */\n      tag_240\n      jumpi\n      mload(0x40)\n      mul(0x461bcd, exp(0x02, 0xe5))\n      dup2\n      mstore\n        /* \"#utility.yul\":15329:15331   */\n      0x20\n        /* \"credits.sol\":4739:4775  require(credits>0,\"Invalid credits\") */\n      0x04\n      dup3\n      add\n        /* \"#utility.yul\":15311:15332   */\n      mstore\n        /* \"#utility.yul\":15368:15370   */\n      0x0f\n        /* \"#utility.yul\":15348:15366   */\n      0x24\n      dup3\n      add\n        /* \"#utility.yul\":15341:15371   */\n      mstore\n        /* \"#utility.yul\":15407:15424   */\n      0x496e76616c696420637265646974730000000000000000000000000000000000\n        /* \"#utility.yul\":15387:15405   */\n      0x44\n      dup3\n      add\n        /* \"#utility.yul\":15380:15425   */\n      mstore\n        /* \"#utility.yul\":15442:15460   */\n      0x64\n      add\n        /* \"credits.sol\":4739:4775  require(credits>0,\"Invalid credits\") */\n      tag_161\n        /* \"#utility.yul\":15127:15466   */\n      jump\n        /* \"credits.sol\":4739:4775  require(credits>0,\"Invalid credits\") */\n    tag_240:\n        /* \"credits.sol\":4796:4819  courseExists[courserId] */\n      0x00\n      dup5\n      dup2\n      mstore\n        /* \"credits.sol\":4796:4808  courseExists */\n      0x06\n        /* \"credits.sol\":4796:4819  courseExists[courserId] */\n      0x20\n      mstore\n      0x40\n      swap1\n      keccak256\n      sload\n      0xff\n      and\n        /* \"credits.sol\":4796:4825  courseExists[courserId]==true */\n      iszero\n      iszero\n        /* \"credits.sol\":4796:4819  courseExists[courserId] */\n      0x01\n        /* \"credits.sol\":4796:4825  courseExists[courserId]==true */\n      eq\n        /* \"credits.sol\":4788:4844  require(courseExists[courserId]==true,\"course not exit\") */\n      tag_243\n      jumpi\n      mload(0x40)\n      mul(0x461bcd, exp(0x02, 0xe5))\n      dup2\n      mstore\n        /* \"#utility.yul\":15673:15675   */\n      0x20\n        /* \"credits.sol\":4788:4844  require(courseExists[courserId]==true,\"course not exit\") */\n      0x04\n      dup3\n      add\n        /* \"#utility.yul\":15655:15676   */\n      mstore\n        /* \"#utility.yul\":15712:15714   */\n      0x0f\n        /* \"#utility.yul\":15692:15710   */\n      0x24\n      dup3\n      add\n        /* \"#utility.yul\":15685:15715   */\n      mstore\n        /* \"#utility.yul\":15751:15768   */\n      0x636f75727365206e6f7420657869740000000000000000000000000000000000\n        /* \"#utility.yul\":15731:15749   */\n      0x44\n      dup3\n      add\n        /* \"#utility.yul\":15724:15769   */\n      mstore\n        /* \"#utility.yul\":15786:15804   */\n      0x64\n      add\n        /* \"credits.sol\":4788:4844  require(courseExists[courserId]==true,\"course not exit\") */\n      tag_161\n        /* \"#utility.yul\":15471:15810   */\n      jump\n        /* \"credits.sol\":4788:4844  require(courseExists[courserId]==true,\"course not exit\") */\n    tag_243:\n        /* \"credits.sol\":4857:4878  uint currentTimestamp */\n      0x00\n        /* \"credits.sol\":4881:4896  block.timestamp */\n      timestamp\n        /* \"credits.sol\":4857:4896  uint currentTimestamp = block.timestamp */\n      swap1\n      pop\n        /* \"credits.sol\":4944:5036  Credit(courserId, credits, score, currentTimestamp,true,0,false,issuingInstitution,false,\"\") */\n      mload(0x40)\n      dup1\n      0x0140\n      add\n      0x40\n      mstore\n      dup1\n        /* \"credits.sol\":4951:4960  courserId */\n      dup7\n        /* \"credits.sol\":4944:5036  Credit(courserId, credits, score, currentTimestamp,true,0,false,issuingInstitution,false,\"\") */\n      dup2\n      mstore\n      0x20\n      add\n        /* \"credits.sol\":4962:4969  credits */\n      dup6\n        /* \"credits.sol\":4944:5036  Credit(courserId, credits, score, currentTimestamp,true,0,false,issuingInstitution,false,\"\") */\n      dup2\n      mstore\n      0x20\n      add\n        /* \"credits.sol\":4971:4976  score */\n      dup5\n        /* \"credits.sol\":4944:5036  Credit(courserId, credits, score, currentTimestamp,true,0,false,issuingInstitution,false,\"\") */\n      dup2\n      mstore\n      0x20\n      add\n        /* \"credits.sol\":4978:4994  currentTimestamp */\n      dup3\n        /* \"credits.sol\":4944:5036  Credit(courserId, credits, score, currentTimestamp,true,0,false,issuingInstitution,false,\"\") */\n      dup2\n      mstore\n      0x20\n      add\n        /* \"credits.sol\":4995:4999  true */\n      0x01\n        /* \"credits.sol\":4944:5036  Credit(courserId, credits, score, currentTimestamp,true,0,false,issuingInstitution,false,\"\") */\n      iszero\n      iszero\n      dup2\n      mstore\n      0x20\n      add\n        /* \"credits.sol\":5000:5001  0 */\n      0x00\n        /* \"credits.sol\":4944:5036  Credit(courserId, credits, score, currentTimestamp,true,0,false,issuingInstitution,false,\"\") */\n      dup2\n      mstore\n      0x20\n      add\n        /* \"credits.sol\":5002:5007  false */\n      0x00\n        /* \"credits.sol\":4944:5036  Credit(courserId, credits, score, currentTimestamp,true,0,false,issuingInstitution,false,\"\") */\n      iszero\n      iszero\n      dup2\n      mstore\n      0x20\n      add\n        /* \"credits.sol\":5008:5026  issuingInstitution */\n      dup4\n        /* \"credits.sol\":4944:5036  Credit(courserId, credits, score, currentTimestamp,true,0,false,issuingInstitution,false,\"\") */\n      dup2\n      mstore\n      0x20\n      add\n        /* \"credits.sol\":5027:5032  false */\n      0x00\n        /* \"credits.sol\":4944:5036  Credit(courserId, credits, score, currentTimestamp,true,0,false,issuingInstitution,false,\"\") */\n      iszero\n      iszero\n      dup2\n      mstore\n      0x20\n      add\n      mload(0x40)\n      dup1\n      0x20\n      add\n      0x40\n      mstore\n      dup1\n      0x00\n      dup2\n      mstore\n      pop\n      dup2\n      mstore\n      pop\n        /* \"credits.sol\":4909:4923  studentCredits */\n      0x03\n        /* \"credits.sol\":4909:4932  studentCredits[student] */\n      0x00\n        /* \"credits.sol\":4924:4931  student */\n      dup9\n      sub(exp(0x02, 0xa0), 0x01)\n        /* \"credits.sol\":4909:4932  studentCredits[student] */\n      and\n      sub(exp(0x02, 0xa0), 0x01)\n      and\n      dup2\n      mstore\n      0x20\n      add\n      swap1\n      dup2\n      mstore\n      0x20\n      add\n      0x00\n      keccak256\n        /* \"credits.sol\":4909:4943  studentCredits[student][courserId] */\n      0x00\n        /* \"credits.sol\":4933:4942  courserId */\n      dup8\n        /* \"credits.sol\":4909:4943  studentCredits[student][courserId] */\n      dup2\n      mstore\n      0x20\n      add\n      swap1\n      dup2\n      mstore\n      0x20\n      add\n      0x00\n      keccak256\n        /* \"credits.sol\":4909:5036  studentCredits[student][courserId]=Credit(courserId, credits, score, currentTimestamp,true,0,false,issuingInstitution,false,\"\") */\n      0x00\n      dup3\n      add\n      mload\n      dup2\n      0x00\n      add\n      sstore\n      0x20\n      dup3\n      add\n      mload\n      dup2\n      0x01\n      add\n      sstore\n      0x40\n      dup3\n      add\n      mload\n      dup2\n      0x02\n      add\n      sstore\n      0x60\n      dup3\n      add\n      mload\n      dup2\n      0x03\n      add\n      sstore\n      0x80\n      dup3\n      add\n      mload\n      dup2\n      0x04\n      add\n      exp(0x0100, 0x00)\n      dup2\n      sload\n      dup2\n      0xff\n      mul\n      not\n      and\n      swap1\n      dup4\n      iszero\n      iszero\n      mul\n      or\n      swap1\n      sstore\n      pop\n      0xa0\n      dup3\n      add\n      mload\n      dup2\n      0x05\n      add\n      sstore\n      0xc0\n      dup3\n      add\n      mload\n      dup2\n      0x06\n      add\n      exp(0x0100, 0x00)\n      dup2\n      sload\n      dup2\n      0xff\n      mul\n      not\n      and\n      swap1\n      dup4\n      iszero\n      iszero\n      mul\n      or\n      swap1\n      sstore\n      pop\n      0xe0\n      dup3\n      add\n      mload\n      dup2\n      0x07\n      add\n      swap1\n      dup2\n      tag_246\n      swap2\n      swap1\n      tag_247\n      jump\t// in\n    tag_246:\n      pop\n      0x0100\n      dup3\n      add\n      mload\n      0x08\n      dup3\n      add\n      dup1\n      sload\n      not(0xff)\n      and\n      swap2\n      iszero\n      iszero\n      swap2\n      swap1\n      swap2\n      or\n      swap1\n      sstore\n      0x0120\n      dup3\n      add\n      mload\n      0x09\n      dup3\n      add\n      swap1\n      tag_248\n      swap1\n      dup3\n      tag_247\n      jump\t// in\n    tag_248:\n      pop\n      pop\n      pop\n      sub(exp(0x02, 0xa0), 0x01)\n        /* \"credits.sol\":5049:5074  studentCourseIds[student] */\n      swap1\n      swap6\n      and\n      0x00\n      swap1\n      dup2\n      mstore\n        /* \"credits.sol\":5049:5065  studentCourseIds */\n      0x04\n        /* \"credits.sol\":5049:5074  studentCourseIds[student] */\n      0x20\n      swap1\n      dup2\n      mstore\n      0x40\n      dup3\n      keccak256\n        /* \"credits.sol\":5049:5090  studentCourseIds[student].push(courserId) */\n      dup1\n      sload\n      0x01\n      dup2\n      add\n      dup3\n      sstore\n      swap1\n      dup4\n      mstore\n      swap2\n      keccak256\n      add\n      swap4\n      swap1\n      swap4\n      sstore\n      pop\n      pop\n      pop\n      pop\n        /* \"credits.sol\":4478:5098  function recordCredit(address student,uint256 courserId,uint256 credits,uint256 score,string memory issuingInstitution)public onlyTeacher{... */\n      jump\t// out\n        /* \"credits.sol\":5961:6505  function getStudentCreditByMechanism(address student)external  returns(Credit[]memory creditList){... */\n    tag_87:\n      sub(exp(0x02, 0xa0), 0x01)\n        /* \"credits.sol\":6077:6095  allowance[student] */\n      dup2\n      and\n        /* \"credits.sol\":6108:6109  0 */\n      0x00\n        /* \"credits.sol\":6077:6095  allowance[student] */\n      swap1\n      dup2\n      mstore\n        /* \"credits.sol\":6077:6086  allowance */\n      0x08\n        /* \"credits.sol\":6077:6095  allowance[student] */\n      0x20\n      swap1\n      dup2\n      mstore\n      0x40\n      dup1\n      dup4\n      keccak256\n        /* \"credits.sol\":6096:6106  msg.sender */\n      caller\n        /* \"credits.sol\":6077:6107  allowance[student][msg.sender] */\n      dup5\n      mstore\n      swap1\n      swap2\n      mstore\n      swap1\n      keccak256\n      sload\n        /* \"credits.sol\":6032:6057  Credit[]memory creditList */\n      0x60\n      swap1\n        /* \"credits.sol\":6069:6134  require(allowance[student][msg.sender]>0,\"you do not be allowed\") */\n      tag_251\n      jumpi\n      mload(0x40)\n      mul(0x461bcd, exp(0x02, 0xe5))\n      dup2\n      mstore\n        /* \"#utility.yul\":18242:18244   */\n      0x20\n        /* \"credits.sol\":6069:6134  require(allowance[student][msg.sender]>0,\"you do not be allowed\") */\n      0x04\n      dup3\n      add\n        /* \"#utility.yul\":18224:18245   */\n      mstore\n        /* \"#utility.yul\":18281:18283   */\n      0x15\n        /* \"#utility.yul\":18261:18279   */\n      0x24\n      dup3\n      add\n        /* \"#utility.yul\":18254:18284   */\n      mstore\n        /* \"#utility.yul\":18320:18343   */\n      0x796f7520646f206e6f7420626520616c6c6f7765640000000000000000000000\n        /* \"#utility.yul\":18300:18318   */\n      0x44\n      dup3\n      add\n        /* \"#utility.yul\":18293:18344   */\n      mstore\n        /* \"#utility.yul\":18361:18379   */\n      0x64\n      add\n        /* \"credits.sol\":6069:6134  require(allowance[student][msg.sender]>0,\"you do not be allowed\") */\n      tag_161\n        /* \"#utility.yul\":18040:18385   */\n      jump\n        /* \"credits.sol\":6069:6134  require(allowance[student][msg.sender]>0,\"you do not be allowed\") */\n    tag_251:\n      sub(exp(0x02, 0xa0), 0x01)\n        /* \"credits.sol\":6159:6184  studentCourseIds[student] */\n      dup3\n      and\n        /* \"credits.sol\":6145:6156  uint length */\n      0x00\n        /* \"credits.sol\":6159:6184  studentCourseIds[student] */\n      swap1\n      dup2\n      mstore\n        /* \"credits.sol\":6159:6175  studentCourseIds */\n      0x04\n        /* \"credits.sol\":6159:6184  studentCourseIds[student] */\n      0x20\n      mstore\n      0x40\n      swap1\n      keccak256\n        /* \"credits.sol\":6159:6191  studentCourseIds[student].length */\n      sload\n      dup1\n        /* \"credits.sol\":6215:6235  new Credit[](length) */\n      0xffffffffffffffff\n      dup2\n      gt\n      iszero\n      tag_255\n      jumpi\n      tag_255\n      tag_188\n      jump\t// in\n    tag_255:\n      mload(0x40)\n      swap1\n      dup1\n      dup3\n      mstore\n      dup1\n      0x20\n      mul\n      0x20\n      add\n      dup3\n      add\n      0x40\n      mstore\n      dup1\n      iszero\n      tag_256\n      jumpi\n      dup2\n      0x20\n      add\n    tag_257:\n      tag_258\n      tag_192\n      jump\t// in\n    tag_258:\n      dup2\n      mstore\n      0x20\n      add\n      swap1\n      0x01\n      swap1\n      sub\n      swap1\n      dup2\n      tag_257\n      jumpi\n      swap1\n      pop\n    tag_256:\n      pop\n        /* \"credits.sol\":6202:6235  creditList = new Credit[](length) */\n      swap2\n      pop\n        /* \"credits.sol\":6252:6258  uint i */\n      0x00\n        /* \"credits.sol\":6248:6420  for(uint i = 0; i < length; i++) {... */\n    tag_259:\n        /* \"credits.sol\":6268:6274  length */\n      dup2\n        /* \"credits.sol\":6264:6265  i */\n      dup2\n        /* \"credits.sol\":6264:6274  i < length */\n      lt\n        /* \"credits.sol\":6248:6420  for(uint i = 0; i < length; i++) {... */\n      iszero\n      tag_260\n      jumpi\n      sub(exp(0x02, 0xa0), 0x01)\n        /* \"credits.sol\":6314:6339  studentCourseIds[student] */\n      dup5\n      and\n        /* \"credits.sol\":6298:6311  uint courseId */\n      0x00\n        /* \"credits.sol\":6314:6339  studentCourseIds[student] */\n      swap1\n      dup2\n      mstore\n        /* \"credits.sol\":6314:6330  studentCourseIds */\n      0x04\n        /* \"credits.sol\":6314:6339  studentCourseIds[student] */\n      0x20\n      mstore\n      0x40\n      dup2\n      keccak256\n        /* \"credits.sol\":6314:6342  studentCourseIds[student][i] */\n      dup1\n      sload\n        /* \"credits.sol\":6340:6341  i */\n      dup4\n      swap1\n        /* \"credits.sol\":6314:6342  studentCourseIds[student][i] */\n      dup2\n      lt\n      tag_263\n      jumpi\n      tag_263\n      tag_198\n      jump\t// in\n    tag_263:\n      0x00\n      swap2\n      dup3\n      mstore\n      0x20\n      dup1\n      dup4\n      keccak256\n      swap1\n      swap2\n      add\n      sload\n      sub(exp(0x02, 0xa0), 0x01)\n        /* \"credits.sol\":6375:6398  studentCredits[student] */\n      dup9\n      and\n      dup4\n      mstore\n        /* \"credits.sol\":6375:6389  studentCredits */\n      0x03\n        /* \"credits.sol\":6375:6398  studentCredits[student] */\n      dup1\n      dup4\n      mstore\n      0x40\n      dup1\n      dup6\n      keccak256\n        /* \"credits.sol\":6375:6408  studentCredits[student][courseId] */\n      dup4\n      dup7\n      mstore\n      dup5\n      mstore\n      swap4\n      dup5\n      swap1\n      keccak256\n        /* \"credits.sol\":6359:6408  creditList[i] = studentCredits[student][courseId] */\n      dup5\n      mload\n      0x0140\n      dup2\n      add\n      dup7\n      mstore\n      dup2\n      sload\n      dup2\n      mstore\n      0x01\n      dup3\n      add\n      sload\n      swap5\n      dup2\n      add\n      swap5\n      swap1\n      swap5\n      mstore\n      0x02\n      dup2\n      add\n      sload\n      swap5\n      dup5\n      add\n      swap5\n      swap1\n      swap5\n      mstore\n      dup4\n      add\n      sload\n      0x60\n      dup4\n      add\n      mstore\n      0x04\n      dup4\n      add\n      sload\n      0xff\n      swap1\n      dup2\n      and\n      iszero\n      iszero\n      0x80\n      dup5\n      add\n      mstore\n      0x05\n      dup5\n      add\n      sload\n      0xa0\n      dup5\n      add\n      mstore\n      0x06\n      dup5\n      add\n      sload\n      and\n      iszero\n      iszero\n      0xc0\n      dup4\n      add\n      mstore\n      0x07\n      dup4\n      add\n      dup1\n      sload\n        /* \"credits.sol\":6314:6342  studentCourseIds[student][i] */\n      swap2\n      swap5\n      pop\n        /* \"credits.sol\":6359:6408  creditList[i] = studentCredits[student][courseId] */\n      swap2\n      swap3\n        /* \"credits.sol\":6375:6408  studentCredits[student][courseId] */\n      swap2\n        /* \"credits.sol\":6359:6408  creditList[i] = studentCredits[student][courseId] */\n      0xe0\n      dup5\n      add\n      swap2\n      tag_265\n      swap1\n      tag_201\n      jump\t// in\n    tag_265:\n      dup1\n      0x1f\n      add\n      0x20\n      dup1\n      swap2\n      div\n      mul\n      0x20\n      add\n      mload(0x40)\n      swap1\n      dup2\n      add\n      0x40\n      mstore\n      dup1\n      swap3\n      swap2\n      swap1\n      dup2\n      dup2\n      mstore\n      0x20\n      add\n      dup3\n      dup1\n      sload\n      tag_266\n      swap1\n      tag_201\n      jump\t// in\n    tag_266:\n      dup1\n      iszero\n      tag_267\n      jumpi\n      dup1\n      0x1f\n      lt\n      tag_268\n      jumpi\n      0x0100\n      dup1\n      dup4\n      sload\n      div\n      mul\n      dup4\n      mstore\n      swap2\n      0x20\n      add\n      swap2\n      jump(tag_267)\n    tag_268:\n      dup3\n      add\n      swap2\n      swap1\n      0x00\n      mstore\n      keccak256(0x00, 0x20)\n      swap1\n    tag_269:\n      dup2\n      sload\n      dup2\n      mstore\n      swap1\n      0x01\n      add\n      swap1\n      0x20\n      add\n      dup1\n      dup4\n      gt\n      tag_269\n      jumpi\n      dup3\n      swap1\n      sub\n      0x1f\n      and\n      dup3\n      add\n      swap2\n    tag_267:\n      pop\n      pop\n      pop\n      swap2\n      dup4\n      mstore\n      pop\n      pop\n      0x08\n      dup3\n      add\n      sload\n      0xff\n      and\n      iszero\n      iszero\n      0x20\n      dup3\n      add\n      mstore\n      0x09\n      dup3\n      add\n      dup1\n      sload\n      0x40\n      swap1\n      swap3\n      add\n      swap2\n      tag_270\n      swap1\n      tag_201\n      jump\t// in\n    tag_270:\n      dup1\n      0x1f\n      add\n      0x20\n      dup1\n      swap2\n      div\n      mul\n      0x20\n      add\n      mload(0x40)\n      swap1\n      dup2\n      add\n      0x40\n      mstore\n      dup1\n      swap3\n      swap2\n      swap1\n      dup2\n      dup2\n      mstore\n      0x20\n      add\n      dup3\n      dup1\n      sload\n      tag_271\n      swap1\n      tag_201\n      jump\t// in\n    tag_271:\n      dup1\n      iszero\n      tag_272\n      jumpi\n      dup1\n      0x1f\n      lt\n      tag_273\n      jumpi\n      0x0100\n      dup1\n      dup4\n      sload\n      div\n      mul\n      dup4\n      mstore\n      swap2\n      0x20\n      add\n      swap2\n      jump(tag_272)\n    tag_273:\n      dup3\n      add\n      swap2\n      swap1\n      0x00\n      mstore\n      keccak256(0x00, 0x20)\n      swap1\n    tag_274:\n      dup2\n      sload\n      dup2\n      mstore\n      swap1\n      0x01\n      add\n      swap1\n      0x20\n      add\n      dup1\n      dup4\n      gt\n      tag_274\n      jumpi\n      dup3\n      swap1\n      sub\n      0x1f\n      and\n      dup3\n      add\n      swap2\n    tag_272:\n      pop\n      pop\n      pop\n      pop\n      pop\n      dup2\n      mstore\n      pop\n      pop\n        /* \"credits.sol\":6359:6369  creditList */\n      dup5\n        /* \"credits.sol\":6370:6371  i */\n      dup4\n        /* \"credits.sol\":6359:6372  creditList[i] */\n      dup2\n      mload\n      dup2\n      lt\n      tag_276\n      jumpi\n      tag_276\n      tag_198\n      jump\t// in\n    tag_276:\n      0x20\n      mul\n      0x20\n      add\n      add\n        /* \"credits.sol\":6359:6408  creditList[i] = studentCredits[student][courseId] */\n      dup2\n      swap1\n      mstore\n      pop\n        /* \"credits.sol\":6281:6420  {... */\n      pop\n        /* \"credits.sol\":6276:6279  i++ */\n      dup1\n      dup1\n      tag_277\n      swap1\n      tag_214\n      jump\t// in\n    tag_277:\n      swap2\n      pop\n      pop\n        /* \"credits.sol\":6248:6420  for(uint i = 0; i < length; i++) {... */\n      jump(tag_259)\n    tag_260:\n      pop\n      sub(exp(0x02, 0xa0), 0x01)\n        /* \"credits.sol\":6432:6450  allowance[student] */\n      dup4\n      and\n      0x00\n      swap1\n      dup2\n      mstore\n        /* \"credits.sol\":6432:6441  allowance */\n      0x08\n        /* \"credits.sol\":6432:6450  allowance[student] */\n      0x20\n      swap1\n      dup2\n      mstore\n      0x40\n      dup1\n      dup4\n      keccak256\n        /* \"credits.sol\":6451:6461  msg.sender */\n      caller\n        /* \"credits.sol\":6432:6462  allowance[student][msg.sender] */\n      dup5\n      mstore\n      swap1\n      swap2\n      mstore\n      dup2\n      keccak256\n        /* \"credits.sol\":6432:6465  allowance[student][msg.sender]-=1 */\n      dup1\n      sload\n        /* \"credits.sol\":6464:6465  1 */\n      0x01\n      swap3\n        /* \"credits.sol\":6432:6450  allowance[student] */\n      swap1\n        /* \"credits.sol\":6432:6465  allowance[student][msg.sender]-=1 */\n      tag_278\n      swap1\n        /* \"credits.sol\":6464:6465  1 */\n      dup5\n      swap1\n        /* \"credits.sol\":6432:6465  allowance[student][msg.sender]-=1 */\n      tag_279\n      jump\t// in\n    tag_278:\n      swap1\n      swap2\n      sstore\n      pop\n        /* \"credits.sol\":5961:6505  function getStudentCreditByMechanism(address student)external  returns(Credit[]memory creditList){... */\n      swap2\n      swap4\n      swap3\n      pop\n      pop\n      pop\n      jump\t// out\n        /* \"credits.sol\":5136:5234  function getAllCourseID()external view returns(uint[] memory){... */\n    tag_90:\n        /* \"credits.sol\":5183:5196  uint[] memory */\n      0x60\n        /* \"credits.sol\":5215:5226  courseLists */\n      0x07\n        /* \"credits.sol\":5208:5226  return courseLists */\n      dup1\n      sload\n      dup1\n      0x20\n      mul\n      0x20\n      add\n      mload(0x40)\n      swap1\n      dup2\n      add\n      0x40\n      mstore\n      dup1\n      swap3\n      swap2\n      swap1\n      dup2\n      dup2\n      mstore\n      0x20\n      add\n      dup3\n      dup1\n      sload\n      dup1\n      iszero\n      tag_281\n      jumpi\n      0x20\n      mul\n      dup3\n      add\n      swap2\n      swap1\n      0x00\n      mstore\n      keccak256(0x00, 0x20)\n      swap1\n    tag_282:\n      dup2\n      sload\n      dup2\n      mstore\n      0x20\n      add\n      swap1\n      0x01\n      add\n      swap1\n      dup1\n      dup4\n      gt\n      tag_282\n      jumpi\n    tag_281:\n      pop\n      pop\n      pop\n      pop\n      pop\n      swap1\n      pop\n        /* \"credits.sol\":5136:5234  function getAllCourseID()external view returns(uint[] memory){... */\n      swap1\n      jump\t// out\n        /* \"credits.sol\":8457:8710  function approveCreditTransfer(address student, uint index) external onlyAdmin {... */\n    tag_95:\n        /* \"credits.sol\":1065:1075  msg.sender */\n      caller\n        /* \"credits.sol\":1057:1076  isAdmin[msg.sender] */\n      0x00\n      swap1\n      dup2\n      mstore\n        /* \"credits.sol\":1057:1064  isAdmin */\n      0x01\n        /* \"credits.sol\":1057:1076  isAdmin[msg.sender] */\n      0x20\n      mstore\n      0x40\n      swap1\n      keccak256\n      sload\n      0xff\n      and\n        /* \"credits.sol\":1049:1093  require(isAdmin[msg.sender], \"Not an admin\") */\n      tag_284\n      jumpi\n      mload(0x40)\n      mul(0x461bcd, exp(0x02, 0xe5))\n      dup2\n      mstore\n      0x04\n      add\n      tag_161\n      swap1\n      tag_167\n      jump\t// in\n    tag_284:\n      sub(exp(0x02, 0xa0), 0x01)\n        /* \"credits.sol\":8558:8589  creditTransferRequests[student] */\n      dup3\n      and\n      0x00\n      swap1\n      dup2\n      mstore\n        /* \"credits.sol\":8558:8580  creditTransferRequests */\n      0x09\n        /* \"credits.sol\":8558:8589  creditTransferRequests[student] */\n      0x20\n      mstore\n      0x40\n      swap1\n      keccak256\n        /* \"credits.sol\":8558:8596  creditTransferRequests[student][index] */\n      dup1\n      sload\n        /* \"credits.sol\":8590:8595  index */\n      dup3\n      swap1\n        /* \"credits.sol\":8558:8596  creditTransferRequests[student][index] */\n      dup2\n      lt\n      tag_288\n      jumpi\n      tag_288\n      tag_198\n      jump\t// in\n    tag_288:\n      0x00\n      swap2\n      dup3\n      mstore\n      0x20\n      swap1\n      swap2\n      keccak256\n        /* \"credits.sol\":8558:8607  creditTransferRequests[student][index].isApproved */\n      0x02\n        /* \"credits.sol\":8558:8596  creditTransferRequests[student][index] */\n      0x03\n      swap1\n      swap3\n      mul\n      add\n        /* \"credits.sol\":8558:8607  creditTransferRequests[student][index].isApproved */\n      add\n      sload\n      0xff\n      and\n        /* \"credits.sol\":8557:8607  !creditTransferRequests[student][index].isApproved */\n      iszero\n        /* \"credits.sol\":8549:8637  require(!creditTransferRequests[student][index].isApproved, \"Transfer already approved\") */\n      tag_290\n      jumpi\n      mload(0x40)\n      mul(0x461bcd, exp(0x02, 0xe5))\n      dup2\n      mstore\n        /* \"#utility.yul\":18725:18727   */\n      0x20\n        /* \"credits.sol\":8549:8637  require(!creditTransferRequests[student][index].isApproved, \"Transfer already approved\") */\n      0x04\n      dup3\n      add\n        /* \"#utility.yul\":18707:18728   */\n      mstore\n        /* \"#utility.yul\":18764:18766   */\n      0x19\n        /* \"#utility.yul\":18744:18762   */\n      0x24\n      dup3\n      add\n        /* \"#utility.yul\":18737:18767   */\n      mstore\n        /* \"#utility.yul\":18803:18830   */\n      0x5472616e7366657220616c726561647920617070726f76656400000000000000\n        /* \"#utility.yul\":18783:18801   */\n      0x44\n      dup3\n      add\n        /* \"#utility.yul\":18776:18831   */\n      mstore\n        /* \"#utility.yul\":18848:18866   */\n      0x64\n      add\n        /* \"credits.sol\":8549:8637  require(!creditTransferRequests[student][index].isApproved, \"Transfer already approved\") */\n      tag_161\n        /* \"#utility.yul\":18523:18872   */\n      jump\n        /* \"credits.sol\":8549:8637  require(!creditTransferRequests[student][index].isApproved, \"Transfer already approved\") */\n    tag_290:\n      sub(exp(0x02, 0xa0), 0x01)\n        /* \"credits.sol\":8650:8681  creditTransferRequests[student] */\n      dup3\n      and\n      0x00\n      swap1\n      dup2\n      mstore\n        /* \"credits.sol\":8650:8672  creditTransferRequests */\n      0x09\n        /* \"credits.sol\":8650:8681  creditTransferRequests[student] */\n      0x20\n      mstore\n      0x40\n      swap1\n      keccak256\n        /* \"credits.sol\":8650:8688  creditTransferRequests[student][index] */\n      dup1\n      sload\n        /* \"credits.sol\":8702:8706  true */\n      0x01\n      swap2\n        /* \"credits.sol\":8650:8681  creditTransferRequests[student] */\n      swap1\n        /* \"credits.sol\":8682:8687  index */\n      dup4\n      swap1\n        /* \"credits.sol\":8650:8688  creditTransferRequests[student][index] */\n      dup2\n      lt\n      tag_294\n      jumpi\n      tag_294\n      tag_198\n      jump\t// in\n    tag_294:\n      0x00\n      swap2\n      dup3\n      mstore\n      0x20\n      swap1\n      swap2\n      keccak256\n      0x03\n      swap1\n      swap2\n      mul\n      add\n        /* \"credits.sol\":8650:8699  creditTransferRequests[student][index].isApproved */\n      0x02\n      add\n        /* \"credits.sol\":8650:8706  creditTransferRequests[student][index].isApproved = true */\n      dup1\n      sload\n      not(0xff)\n      and\n      swap2\n      iszero\n      iszero\n      swap2\n      swap1\n      swap2\n      or\n      swap1\n      sstore\n      pop\n      pop\n        /* \"credits.sol\":8457:8710  function approveCreditTransfer(address student, uint index) external onlyAdmin {... */\n      jump\t// out\n        /* \"credits.sol\":636:768  function addAdmin(address _newAdmin)onlyOwner public {... */\n    tag_98:\n        /* \"credits.sol\":957:963  _owner */\n      and(sub(exp(0x02, 0xa0), 0x01), sload(0x00))\n        /* \"credits.sol\":967:977  msg.sender */\n      caller\n        /* \"credits.sol\":957:977  _owner == msg.sender */\n      eq\n        /* \"credits.sol\":949:988  require(_owner == msg.sender, \"!owner\") */\n      tag_297\n      jumpi\n      mload(0x40)\n      mul(0x461bcd, exp(0x02, 0xe5))\n      dup2\n      mstore\n      0x04\n      add\n      tag_161\n      swap1\n      tag_162\n      jump\t// in\n    tag_297:\n      sub(exp(0x02, 0xa0), 0x01)\n        /* \"credits.sol\":700:718  isAdmin[_newAdmin] */\n      dup2\n      and\n      0x00\n      dup2\n      dup2\n      mstore\n        /* \"credits.sol\":719:723  true */\n      0x01\n        /* \"credits.sol\":700:718  isAdmin[_newAdmin] */\n      0x20\n      dup2\n      swap1\n      mstore\n      0x40\n      dup1\n      dup4\n      keccak256\n        /* \"credits.sol\":700:723  isAdmin[_newAdmin]=true */\n      dup1\n      sload\n      not(0xff)\n      and\n      swap1\n      swap3\n      or\n      swap1\n      swap2\n      sstore\n        /* \"credits.sol\":739:760  AdminAdded(_newAdmin) */\n      mload\n      0x44d6d25963f097ad14f29f06854a01f575648a1ef82f30e562ccd3889717e339\n      swap2\n        /* \"credits.sol\":700:718  isAdmin[_newAdmin] */\n      swap1\n        /* \"credits.sol\":739:760  AdminAdded(_newAdmin) */\n      log2\n        /* \"credits.sol\":636:768  function addAdmin(address _newAdmin)onlyOwner public {... */\n      pop\n      jump\t// out\n        /* \"credits.sol\":1121:1269  function renounceOwnership() public virtual onlyOwner {... */\n    tag_100:\n        /* \"credits.sol\":957:963  _owner */\n      and(sub(exp(0x02, 0xa0), 0x01), sload(0x00))\n        /* \"credits.sol\":967:977  msg.sender */\n      caller\n        /* \"credits.sol\":957:977  _owner == msg.sender */\n      eq\n        /* \"credits.sol\":949:988  require(_owner == msg.sender, \"!owner\") */\n      tag_301\n      jumpi\n      mload(0x40)\n      mul(0x461bcd, exp(0x02, 0xe5))\n      dup2\n      mstore\n      0x04\n      add\n      tag_161\n      swap1\n      tag_162\n      jump\t// in\n    tag_301:\n        /* \"credits.sol\":1228:1229  0 */\n      0x00\n        /* \"credits.sol\":1212:1218  _owner */\n      dup1\n      sload\n        /* \"credits.sol\":1191:1231  OwnershipTransferred(_owner, address(0)) */\n      mload(0x40)\n      sub(exp(0x02, 0xa0), 0x01)\n        /* \"credits.sol\":1212:1218  _owner */\n      swap1\n      swap2\n      and\n      swap1\n        /* \"credits.sol\":1191:1231  OwnershipTransferred(_owner, address(0)) */\n      0x8be0079c531659141344cd1fd0a4f28419497f9722a3daafe3b4186f6b6457e0\n      swap1\n        /* \"credits.sol\":1228:1229  0 */\n      dup4\n      swap1\n        /* \"credits.sol\":1191:1231  OwnershipTransferred(_owner, address(0)) */\n      log3\n        /* \"credits.sol\":1259:1260  0 */\n      0x00\n        /* \"credits.sol\":1242:1261  _owner = address(0) */\n      dup1\n      sload\n      not(0xffffffffffffffffffffffffffffffffffffffff)\n      and\n      swap1\n      sstore\n        /* \"credits.sol\":1121:1269  function renounceOwnership() public virtual onlyOwner {... */\n      jump\t// out\n        /* \"credits.sol\":7872:8385  function requestCreditTransfer(uint256 courseId, string memory targetInstitution) external {... */\n    tag_104:\n        /* \"credits.sol\":7997:8007  msg.sender */\n      caller\n        /* \"credits.sol\":7982:8008  studentCredits[msg.sender] */\n      0x00\n      swap1\n      dup2\n      mstore\n        /* \"credits.sol\":7982:7996  studentCredits */\n      0x03\n        /* \"credits.sol\":7982:8008  studentCredits[msg.sender] */\n      0x20\n      dup2\n      dup2\n      mstore\n      0x40\n      dup1\n      dup5\n      keccak256\n        /* \"credits.sol\":7982:8018  studentCredits[msg.sender][courseId] */\n      dup7\n      dup6\n      mstore\n      swap1\n      swap2\n      mstore\n      dup3\n      keccak256\n        /* \"credits.sol\":7982:8028  studentCredits[msg.sender][courseId].issueDate */\n      add\n      sload\n        /* \"credits.sol\":7982:8033  studentCredits[msg.sender][courseId].issueDate != 0 */\n      swap1\n      sub\n        /* \"credits.sol\":7974:8059  require(studentCredits[msg.sender][courseId].issueDate != 0, \"Credit does not exist\") */\n      tag_305\n      jumpi\n      mload(0x40)\n      mul(0x461bcd, exp(0x02, 0xe5))\n      dup2\n      mstore\n      0x04\n      add\n      tag_161\n      swap1\n      tag_171\n      jump\t// in\n    tag_305:\n        /* \"credits.sol\":8094:8104  msg.sender */\n      caller\n        /* \"credits.sol\":8079:8105  studentCredits[msg.sender] */\n      0x00\n      swap1\n      dup2\n      mstore\n        /* \"credits.sol\":8079:8093  studentCredits */\n      0x03\n        /* \"credits.sol\":8079:8105  studentCredits[msg.sender] */\n      0x20\n      swap1\n      dup2\n      mstore\n      0x40\n      dup1\n      dup4\n      keccak256\n        /* \"credits.sol\":8079:8115  studentCredits[msg.sender][courseId] */\n      dup6\n      dup5\n      mstore\n      swap1\n      swap2\n      mstore\n      swap1\n      keccak256\n        /* \"credits.sol\":8079:8125  studentCredits[msg.sender][courseId].isRevoked */\n      0x06\n      add\n      sload\n      0xff\n      and\n        /* \"credits.sol\":8078:8125  !studentCredits[msg.sender][courseId].isRevoked */\n      iszero\n        /* \"credits.sol\":8070:8152  require(!studentCredits[msg.sender][courseId].isRevoked, \"Credit already revoked\") */\n      tag_307\n      jumpi\n      mload(0x40)\n      mul(0x461bcd, exp(0x02, 0xe5))\n      dup2\n      mstore\n      0x04\n      add\n      tag_161\n      swap1\n      tag_177\n      jump\t// in\n    tag_307:\n        /* \"credits.sol\":8188:8198  msg.sender */\n      caller\n        /* \"credits.sol\":8165:8199  creditTransferRequests[msg.sender] */\n      0x00\n      swap1\n      dup2\n      mstore\n        /* \"credits.sol\":8165:8187  creditTransferRequests */\n      0x09\n        /* \"credits.sol\":8165:8199  creditTransferRequests[msg.sender] */\n      0x20\n      swap1\n      dup2\n      mstore\n      0x40\n      dup1\n      dup4\n      keccak256\n        /* \"credits.sol\":8205:8380  CreditTransfer({... */\n      dup2\n      mload\n      0x80\n      dup2\n      add\n      dup4\n      mstore\n      dup7\n      dup2\n      mstore\n      dup1\n      dup5\n      add\n      dup7\n      dup2\n      mstore\n      swap3\n      dup2\n      add\n      dup6\n      swap1\n      mstore\n      0x60\n      dup2\n      add\n      dup6\n      swap1\n      mstore\n        /* \"credits.sol\":8165:8381  creditTransferRequests[msg.sender].push(CreditTransfer({... */\n      dup2\n      sload\n        /* \"credits.sol\":8205:8380  CreditTransfer({... */\n      0x01\n        /* \"credits.sol\":8165:8381  creditTransferRequests[msg.sender].push(CreditTransfer({... */\n      dup2\n      dup2\n      add\n      dup5\n      sstore\n      swap3\n      dup7\n      mstore\n      swap4\n      swap1\n      swap5\n      keccak256\n      dup5\n      mload\n      0x03\n      swap1\n      swap5\n      mul\n      add\n      swap3\n      dup4\n      sstore\n      swap1\n      mload\n      swap1\n      dup3\n      add\n      swap1\n      tag_310\n      swap1\n      dup3\n      tag_247\n      jump\t// in\n    tag_310:\n      pop\n      0x40\n      dup3\n      add\n      mload\n      0x02\n      swap1\n      swap2\n      add\n      dup1\n      sload\n      0x60\n      swap1\n      swap4\n      add\n      mload\n      iszero\n      iszero\n      0x0100\n      mul\n      not(0xff00)\n      swap3\n      iszero\n      iszero\n      swap3\n      swap1\n      swap3\n      and\n      not(0xffff)\n      swap1\n      swap4\n      and\n      swap3\n      swap1\n      swap3\n      or\n      or\n      swap1\n      sstore\n      pop\n      pop\n        /* \"credits.sol\":7872:8385  function requestCreditTransfer(uint256 courseId, string memory targetInstitution) external {... */\n      jump\t// out\n        /* \"credits.sol\":3801:3991  function getCourseInfo(uint256 courseId)external returns(CourserInfo memory){... */\n    tag_111:\n        /* \"credits.sol\":3858:3876  CourserInfo memory */\n      tag_312\n      mload(0x40)\n      dup1\n      0x80\n      add\n      0x40\n      mstore\n      dup1\n      0x00\n      dup2\n      mstore\n      0x20\n      add\n      0x60\n      dup2\n      mstore\n      0x20\n      add\n      0x00\n      dup2\n      mstore\n      0x20\n      add\n      0x00\n      dup2\n      mstore\n      pop\n      swap1\n      jump\n    tag_312:\n        /* \"credits.sol\":3896:3918  courseExists[courseId] */\n      0x00\n      dup3\n      dup2\n      mstore\n        /* \"credits.sol\":3896:3908  courseExists */\n      0x06\n        /* \"credits.sol\":3896:3918  courseExists[courseId] */\n      0x20\n      mstore\n      0x40\n      swap1\n      keccak256\n        /* \"credits.sol\":3896:3923  courseExists[courseId]=true */\n      dup1\n      sload\n      not(0xff)\n      and\n        /* \"credits.sol\":3919:3923  true */\n      0x01\n        /* \"credits.sol\":3896:3923  courseExists[courseId]=true */\n      or\n      swap1\n      sstore\n        /* \"credits.sol\":3962:3973  courserInfo */\n      0x02\n        /* \"credits.sol\":3962:3983  courserInfo[courseId] */\n      0x00\n        /* \"credits.sol\":3974:3982  courseId */\n      dup4\n        /* \"credits.sol\":3962:3983  courserInfo[courseId] */\n      dup2\n      mstore\n      0x20\n      add\n      swap1\n      dup2\n      mstore\n      0x20\n      add\n      0x00\n      keccak256\n        /* \"credits.sol\":3955:3983  return courserInfo[courseId] */\n      mload(0x40)\n      dup1\n      0x80\n      add\n      0x40\n      mstore\n      swap1\n      dup2\n      0x00\n      dup3\n      add\n      sload\n      dup2\n      mstore\n      0x20\n      add\n      0x01\n      dup3\n      add\n      dup1\n      sload\n      tag_318\n      swap1\n      tag_201\n      jump\t// in\n    tag_318:\n      dup1\n      0x1f\n      add\n      0x20\n      dup1\n      swap2\n      div\n      mul\n      0x20\n      add\n      mload(0x40)\n      swap1\n      dup2\n      add\n      0x40\n      mstore\n      dup1\n      swap3\n      swap2\n      swap1\n      dup2\n      dup2\n      mstore\n      0x20\n      add\n      dup3\n      dup1\n      sload\n      tag_319\n      swap1\n      tag_201\n      jump\t// in\n    tag_319:\n      dup1\n      iszero\n      tag_320\n      jumpi\n      dup1\n      0x1f\n      lt\n      tag_321\n      jumpi\n      0x0100\n      dup1\n      dup4\n      sload\n      div\n      mul\n      dup4\n      mstore\n      swap2\n      0x20\n      add\n      swap2\n      jump(tag_320)\n    tag_321:\n      dup3\n      add\n      swap2\n      swap1\n      0x00\n      mstore\n      keccak256(0x00, 0x20)\n      swap1\n    tag_322:\n      dup2\n      sload\n      dup2\n      mstore\n      swap1\n      0x01\n      add\n      swap1\n      0x20\n      add\n      dup1\n      dup4\n      gt\n      tag_322\n      jumpi\n      dup3\n      swap1\n      sub\n      0x1f\n      and\n      dup3\n      add\n      swap2\n    tag_320:\n      pop\n      pop\n      pop\n      pop\n      pop\n      dup2\n      mstore\n      0x20\n      add\n      0x02\n      dup3\n      add\n      sload\n      dup2\n      mstore\n      0x20\n      add\n      0x03\n      dup3\n      add\n      sload\n      dup2\n      mstore\n      pop\n      pop\n      swap1\n      pop\n        /* \"credits.sol\":3801:3991  function getCourseInfo(uint256 courseId)external returns(CourserInfo memory){... */\n      swap2\n      swap1\n      pop\n      jump\t// out\n        /* \"credits.sol\":9416:9644  function getCreditTransfersOfStudent(address student) external  view returns (CreditTransfer[] memory) {... */\n    tag_116:\n        /* \"credits.sol\":9494:9517  CreditTransfer[] memory */\n      0x60\n      sub(exp(0x02, 0xa0), 0x01)\n        /* \"credits.sol\":9540:9561  student != address(0) */\n      dup3\n      and\n        /* \"credits.sol\":9532:9589  require(student != address(0), \"Invalid student address\") */\n      tag_324\n      jumpi\n      mload(0x40)\n      mul(0x461bcd, exp(0x02, 0xe5))\n      dup2\n      mstore\n        /* \"#utility.yul\":19425:19427   */\n      0x20\n        /* \"credits.sol\":9532:9589  require(student != address(0), \"Invalid student address\") */\n      0x04\n      dup3\n      add\n        /* \"#utility.yul\":19407:19428   */\n      mstore\n        /* \"#utility.yul\":19464:19466   */\n      0x17\n        /* \"#utility.yul\":19444:19462   */\n      0x24\n      dup3\n      add\n        /* \"#utility.yul\":19437:19467   */\n      mstore\n        /* \"#utility.yul\":19503:19528   */\n      0x496e76616c69642073747564656e742061646472657373000000000000000000\n        /* \"#utility.yul\":19483:19501   */\n      0x44\n      dup3\n      add\n        /* \"#utility.yul\":19476:19529   */\n      mstore\n        /* \"#utility.yul\":19546:19564   */\n      0x64\n      add\n        /* \"credits.sol\":9532:9589  require(student != address(0), \"Invalid student address\") */\n      tag_161\n        /* \"#utility.yul\":19223:19570   */\n      jump\n        /* \"credits.sol\":9532:9589  require(student != address(0), \"Invalid student address\") */\n    tag_324:\n      sub(exp(0x02, 0xa0), 0x01)\n        /* \"credits.sol\":9609:9640  creditTransferRequests[student] */\n      dup3\n      and\n      0x00\n      swap1\n      dup2\n      mstore\n        /* \"credits.sol\":9609:9631  creditTransferRequests */\n      0x09\n        /* \"credits.sol\":9609:9640  creditTransferRequests[student] */\n      0x20\n      swap1\n      dup2\n      mstore\n      0x40\n      dup1\n      dup4\n      keccak256\n        /* \"credits.sol\":9602:9640  return creditTransferRequests[student] */\n      dup1\n      sload\n      dup3\n      mload\n      dup2\n      dup6\n      mul\n      dup2\n      add\n      dup6\n      add\n      swap1\n      swap4\n      mstore\n      dup1\n      dup4\n      mstore\n      swap2\n      swap4\n        /* \"credits.sol\":9609:9640  creditTransferRequests[student] */\n      swap1\n      swap3\n        /* \"credits.sol\":9602:9640  return creditTransferRequests[student] */\n      dup5\n      add\n    tag_327:\n      dup3\n      dup3\n      lt\n      iszero\n      tag_328\n      jumpi\n      dup4\n      dup3\n      swap1\n      0x00\n      mstore\n      keccak256(0x00, 0x20)\n      swap1\n      0x03\n      mul\n      add\n      mload(0x40)\n      dup1\n      0x80\n      add\n      0x40\n      mstore\n      swap1\n      dup2\n      0x00\n      dup3\n      add\n      sload\n      dup2\n      mstore\n      0x20\n      add\n      0x01\n      dup3\n      add\n      dup1\n      sload\n      tag_330\n      swap1\n      tag_201\n      jump\t// in\n    tag_330:\n      dup1\n      0x1f\n      add\n      0x20\n      dup1\n      swap2\n      div\n      mul\n      0x20\n      add\n      mload(0x40)\n      swap1\n      dup2\n      add\n      0x40\n      mstore\n      dup1\n      swap3\n      swap2\n      swap1\n      dup2\n      dup2\n      mstore\n      0x20\n      add\n      dup3\n      dup1\n      sload\n      tag_331\n      swap1\n      tag_201\n      jump\t// in\n    tag_331:\n      dup1\n      iszero\n      tag_332\n      jumpi\n      dup1\n      0x1f\n      lt\n      tag_333\n      jumpi\n      0x0100\n      dup1\n      dup4\n      sload\n      div\n      mul\n      dup4\n      mstore\n      swap2\n      0x20\n      add\n      swap2\n      jump(tag_332)\n    tag_333:\n      dup3\n      add\n      swap2\n      swap1\n      0x00\n      mstore\n      keccak256(0x00, 0x20)\n      swap1\n    tag_334:\n      dup2\n      sload\n      dup2\n      mstore\n      swap1\n      0x01\n      add\n      swap1\n      0x20\n      add\n      dup1\n      dup4\n      gt\n      tag_334\n      jumpi\n      dup3\n      swap1\n      sub\n      0x1f\n      and\n      dup3\n      add\n      swap2\n    tag_332:\n      pop\n      pop\n      pop\n      swap2\n      dup4\n      mstore\n      pop\n      pop\n      0x02\n      swap2\n      swap1\n      swap2\n      add\n      sload\n      0xff\n      dup1\n      dup3\n      and\n      iszero\n      iszero\n      0x20\n      dup1\n      dup6\n      add\n      swap2\n      swap1\n      swap2\n      mstore\n      0x0100\n      swap1\n      swap3\n      div\n      and\n      iszero\n      iszero\n      0x40\n      swap1\n      swap3\n      add\n      swap2\n      swap1\n      swap2\n      mstore\n      swap1\n      dup3\n      mstore\n      0x01\n      swap3\n      swap1\n      swap3\n      add\n      swap2\n      add\n      jump(tag_327)\n    tag_328:\n      pop\n      pop\n      pop\n      pop\n      swap1\n      pop\n        /* \"credits.sol\":9416:9644  function getCreditTransfersOfStudent(address student) external  view returns (CreditTransfer[] memory) {... */\n      swap2\n      swap1\n      pop\n      jump\t// out\n        /* \"credits.sol\":2579:2627  mapping (uint256=>CourserInfo)public courserInfo */\n    tag_121:\n      mstore(0x20, 0x02)\n      0x00\n      swap1\n      dup2\n      mstore\n      0x40\n      swap1\n      keccak256\n      dup1\n      sload\n      0x01\n      dup3\n      add\n      dup1\n      sload\n      swap2\n      swap3\n      swap2\n      tag_335\n      swap1\n      tag_201\n      jump\t// in\n    tag_335:\n      dup1\n      0x1f\n      add\n      0x20\n      dup1\n      swap2\n      div\n      mul\n      0x20\n      add\n      mload(0x40)\n      swap1\n      dup2\n      add\n      0x40\n      mstore\n      dup1\n      swap3\n      swap2\n      swap1\n      dup2\n      dup2\n      mstore\n      0x20\n      add\n      dup3\n      dup1\n      sload\n      tag_336\n      swap1\n      tag_201\n      jump\t// in\n    tag_336:\n      dup1\n      iszero\n      tag_337\n      jumpi\n      dup1\n      0x1f\n      lt\n      tag_338\n      jumpi\n      0x0100\n      dup1\n      dup4\n      sload\n      div\n      mul\n      dup4\n      mstore\n      swap2\n      0x20\n      add\n      swap2\n      jump(tag_337)\n    tag_338:\n      dup3\n      add\n      swap2\n      swap1\n      0x00\n      mstore\n      keccak256(0x00, 0x20)\n      swap1\n    tag_339:\n      dup2\n      sload\n      dup2\n      mstore\n      swap1\n      0x01\n      add\n      swap1\n      0x20\n      add\n      dup1\n      dup4\n      gt\n      tag_339\n      jumpi\n      dup3\n      swap1\n      sub\n      0x1f\n      and\n      dup3\n      add\n      swap2\n    tag_337:\n      pop\n      pop\n      pop\n      pop\n      pop\n      swap1\n      dup1\n      0x02\n      add\n      sload\n      swap1\n      dup1\n      0x03\n      add\n      sload\n      swap1\n      pop\n      dup5\n      jump\t// out\n        /* \"credits.sol\":8758:9376  function executeCreditTransfer(address student, uint index) external onlyAdmin{... */\n    tag_126:\n        /* \"credits.sol\":1065:1075  msg.sender */\n      caller\n        /* \"credits.sol\":1057:1076  isAdmin[msg.sender] */\n      0x00\n      swap1\n      dup2\n      mstore\n        /* \"credits.sol\":1057:1064  isAdmin */\n      0x01\n        /* \"credits.sol\":1057:1076  isAdmin[msg.sender] */\n      0x20\n      mstore\n      0x40\n      swap1\n      keccak256\n      sload\n      0xff\n      and\n        /* \"credits.sol\":1049:1093  require(isAdmin[msg.sender], \"Not an admin\") */\n      tag_341\n      jumpi\n      mload(0x40)\n      mul(0x461bcd, exp(0x02, 0xe5))\n      dup2\n      mstore\n      0x04\n      add\n      tag_161\n      swap1\n      tag_167\n      jump\t// in\n    tag_341:\n      sub(exp(0x02, 0xa0), 0x01)\n        /* \"credits.sol\":8855:8886  creditTransferRequests[student] */\n      dup3\n      and\n      0x00\n      swap1\n      dup2\n      mstore\n        /* \"credits.sol\":8855:8877  creditTransferRequests */\n      0x09\n        /* \"credits.sol\":8855:8886  creditTransferRequests[student] */\n      0x20\n      mstore\n      0x40\n      swap1\n      keccak256\n        /* \"credits.sol\":8855:8893  creditTransferRequests[student][index] */\n      dup1\n      sload\n        /* \"credits.sol\":8887:8892  index */\n      dup3\n      swap1\n        /* \"credits.sol\":8855:8893  creditTransferRequests[student][index] */\n      dup2\n      lt\n      tag_345\n      jumpi\n      tag_345\n      tag_198\n      jump\t// in\n    tag_345:\n      0x00\n      swap2\n      dup3\n      mstore\n      0x20\n      swap1\n      swap2\n      keccak256\n        /* \"credits.sol\":8855:8904  creditTransferRequests[student][index].isApproved */\n      0x02\n        /* \"credits.sol\":8855:8893  creditTransferRequests[student][index] */\n      0x03\n      swap1\n      swap3\n      mul\n      add\n        /* \"credits.sol\":8855:8904  creditTransferRequests[student][index].isApproved */\n      add\n      sload\n      0xff\n      and\n        /* \"credits.sol\":8847:8930  require(creditTransferRequests[student][index].isApproved, \"Transfer not approved\") */\n      tag_347\n      jumpi\n      mload(0x40)\n      mul(0x461bcd, exp(0x02, 0xe5))\n      dup2\n      mstore\n        /* \"#utility.yul\":19777:19779   */\n      0x20\n        /* \"credits.sol\":8847:8930  require(creditTransferRequests[student][index].isApproved, \"Transfer not approved\") */\n      0x04\n      dup3\n      add\n        /* \"#utility.yul\":19759:19780   */\n      mstore\n        /* \"#utility.yul\":19816:19818   */\n      0x15\n        /* \"#utility.yul\":19796:19814   */\n      0x24\n      dup3\n      add\n        /* \"#utility.yul\":19789:19819   */\n      mstore\n        /* \"#utility.yul\":19855:19878   */\n      0x5472616e73666572206e6f7420617070726f7665640000000000000000000000\n        /* \"#utility.yul\":19835:19853   */\n      0x44\n      dup3\n      add\n        /* \"#utility.yul\":19828:19879   */\n      mstore\n        /* \"#utility.yul\":19896:19914   */\n      0x64\n      add\n        /* \"credits.sol\":8847:8930  require(creditTransferRequests[student][index].isApproved, \"Transfer not approved\") */\n      tag_161\n        /* \"#utility.yul\":19575:19920   */\n      jump\n        /* \"credits.sol\":8847:8930  require(creditTransferRequests[student][index].isApproved, \"Transfer not approved\") */\n    tag_347:\n      sub(exp(0x02, 0xa0), 0x01)\n        /* \"credits.sol\":8952:8983  creditTransferRequests[student] */\n      dup3\n      and\n      0x00\n      swap1\n      dup2\n      mstore\n        /* \"credits.sol\":8952:8974  creditTransferRequests */\n      0x09\n        /* \"credits.sol\":8952:8983  creditTransferRequests[student] */\n      0x20\n      mstore\n      0x40\n      swap1\n      keccak256\n        /* \"credits.sol\":8952:8990  creditTransferRequests[student][index] */\n      dup1\n      sload\n        /* \"credits.sol\":8984:8989  index */\n      dup3\n      swap1\n        /* \"credits.sol\":8952:8990  creditTransferRequests[student][index] */\n      dup2\n      lt\n      tag_351\n      jumpi\n      tag_351\n      tag_198\n      jump\t// in\n    tag_351:\n      swap1\n      0x00\n      mstore\n      keccak256(0x00, 0x20)\n      swap1\n      0x03\n      mul\n      add\n        /* \"credits.sol\":8952:9001  creditTransferRequests[student][index].isExecuted */\n      0x02\n      add\n      0x01\n      swap1\n      sload\n      swap1\n      0x0100\n      exp\n      swap1\n      div\n      0xff\n      and\n        /* \"credits.sol\":8951:9001  !creditTransferRequests[student][index].isExecuted */\n      iszero\n        /* \"credits.sol\":8943:9031  require(!creditTransferRequests[student][index].isExecuted, \"Transfer already executed\") */\n      tag_353\n      jumpi\n      mload(0x40)\n      mul(0x461bcd, exp(0x02, 0xe5))\n      dup2\n      mstore\n        /* \"#utility.yul\":20127:20129   */\n      0x20\n        /* \"credits.sol\":8943:9031  require(!creditTransferRequests[student][index].isExecuted, \"Transfer already executed\") */\n      0x04\n      dup3\n      add\n        /* \"#utility.yul\":20109:20130   */\n      mstore\n        /* \"#utility.yul\":20166:20168   */\n      0x19\n        /* \"#utility.yul\":20146:20164   */\n      0x24\n      dup3\n      add\n        /* \"#utility.yul\":20139:20169   */\n      mstore\n        /* \"#utility.yul\":20205:20232   */\n      0x5472616e7366657220616c726561647920657865637574656400000000000000\n        /* \"#utility.yul\":20185:20203   */\n      0x44\n      dup3\n      add\n        /* \"#utility.yul\":20178:20233   */\n      mstore\n        /* \"#utility.yul\":20250:20268   */\n      0x64\n      add\n        /* \"credits.sol\":8943:9031  require(!creditTransferRequests[student][index].isExecuted, \"Transfer already executed\") */\n      tag_161\n        /* \"#utility.yul\":19925:20274   */\n      jump\n        /* \"credits.sol\":8943:9031  require(!creditTransferRequests[student][index].isExecuted, \"Transfer already executed\") */\n    tag_353:\n      sub(exp(0x02, 0xa0), 0x01)\n        /* \"credits.sol\":9135:9166  creditTransferRequests[student] */\n      dup3\n      and\n      0x00\n      swap1\n      dup2\n      mstore\n        /* \"credits.sol\":9135:9157  creditTransferRequests */\n      0x09\n        /* \"credits.sol\":9135:9166  creditTransferRequests[student] */\n      0x20\n      mstore\n      0x40\n      swap1\n      keccak256\n        /* \"credits.sol\":9135:9173  creditTransferRequests[student][index] */\n      dup1\n      sload\n        /* \"credits.sol\":9167:9172  index */\n      dup3\n      swap1\n        /* \"credits.sol\":9135:9173  creditTransferRequests[student][index] */\n      dup2\n      lt\n      tag_357\n      jumpi\n      tag_357\n      tag_198\n      jump\t// in\n    tag_357:\n      0x00\n      swap2\n      dup3\n      mstore\n      0x20\n      dup1\n      dup4\n      keccak256\n      sub(exp(0x02, 0xa0), 0x01)\n        /* \"credits.sol\":9044:9067  studentCredits[student] */\n      dup7\n      and\n      dup5\n      mstore\n        /* \"credits.sol\":9135:9173  creditTransferRequests[student][index] */\n      0x03\n        /* \"credits.sol\":9044:9067  studentCredits[student] */\n      dup1\n      dup4\n      mstore\n      0x40\n      dup1\n      dup7\n      keccak256\n        /* \"credits.sol\":9068:9090  creditTransferRequests */\n      0x09\n        /* \"credits.sol\":9068:9099  creditTransferRequests[student] */\n      swap1\n      swap5\n      mstore\n      dup6\n      keccak256\n        /* \"credits.sol\":9068:9106  creditTransferRequests[student][index] */\n      dup1\n      sload\n        /* \"credits.sol\":9135:9191  creditTransferRequests[student][index].targetInstitution */\n      0x01\n        /* \"credits.sol\":9135:9173  creditTransferRequests[student][index] */\n      swap3\n      swap1\n      swap6\n      mul\n      swap1\n      swap3\n      add\n        /* \"credits.sol\":9135:9191  creditTransferRequests[student][index].targetInstitution */\n      add\n      swap4\n        /* \"credits.sol\":9044:9067  studentCredits[student] */\n      swap2\n      swap3\n        /* \"credits.sol\":9100:9105  index */\n      dup6\n      swap1\n        /* \"credits.sol\":9068:9106  creditTransferRequests[student][index] */\n      dup2\n      lt\n      tag_360\n      jumpi\n      tag_360\n      tag_198\n      jump\t// in\n    tag_360:\n      swap1\n      0x00\n      mstore\n      keccak256(0x00, 0x20)\n      swap1\n      0x03\n      mul\n      add\n        /* \"credits.sol\":9068:9115  creditTransferRequests[student][index].courseId */\n      0x00\n      add\n      sload\n        /* \"credits.sol\":9044:9116  studentCredits[student][creditTransferRequests[student][index].courseId] */\n      dup2\n      mstore\n      0x20\n      add\n      swap1\n      dup2\n      mstore\n      0x20\n      add\n      0x00\n      keccak256\n        /* \"credits.sol\":9044:9134  studentCredits[student][creditTransferRequests[student][index].courseId].targetInstitution */\n      0x09\n      add\n        /* \"credits.sol\":9044:9191  studentCredits[student][creditTransferRequests[student][index].courseId].targetInstitution=creditTransferRequests[student][index].targetInstitution */\n      swap1\n      dup2\n      tag_362\n      swap2\n      swap1\n      tag_363\n      jump\t// in\n    tag_362:\n      pop\n      sub(exp(0x02, 0xa0), 0x01)\n        /* \"credits.sol\":9212:9243  creditTransferRequests[student] */\n      dup3\n      and\n      0x00\n      swap1\n      dup2\n      mstore\n        /* \"credits.sol\":9212:9234  creditTransferRequests */\n      0x09\n        /* \"credits.sol\":9212:9243  creditTransferRequests[student] */\n      0x20\n      mstore\n      0x40\n      swap1\n      keccak256\n        /* \"credits.sol\":9212:9250  creditTransferRequests[student][index] */\n      dup1\n      sload\n        /* \"credits.sol\":9264:9268  true */\n      0x01\n      swap2\n        /* \"credits.sol\":9212:9243  creditTransferRequests[student] */\n      swap1\n        /* \"credits.sol\":9244:9249  index */\n      dup4\n      swap1\n        /* \"credits.sol\":9212:9250  creditTransferRequests[student][index] */\n      dup2\n      lt\n      tag_365\n      jumpi\n      tag_365\n      tag_198\n      jump\t// in\n    tag_365:\n      0x00\n      swap2\n      dup3\n      mstore\n      0x20\n      dup1\n      dup4\n      keccak256\n      0x03\n      swap3\n      dup4\n      mul\n      add\n        /* \"credits.sol\":9212:9261  creditTransferRequests[student][index].isExecuted */\n      0x02\n      add\n        /* \"credits.sol\":9212:9268  creditTransferRequests[student][index].isExecuted = true */\n      dup1\n      sload\n      not(0xff00)\n      and\n      0x0100\n      swap6\n      iszero\n      iszero\n      swap6\n      swap1\n      swap6\n      mul\n      swap5\n      swap1\n      swap5\n      or\n      swap1\n      swap4\n      sstore\n      sub(exp(0x02, 0xa0), 0x01)\n        /* \"credits.sol\":9281:9304  studentCredits[student] */\n      dup6\n      and\n      dup3\n      mstore\n      dup3\n      mstore\n      0x40\n      dup1\n      dup3\n      keccak256\n        /* \"credits.sol\":9305:9327  creditTransferRequests */\n      0x09\n        /* \"credits.sol\":9305:9336  creditTransferRequests[student] */\n      swap1\n      swap4\n      mstore\n      dup2\n      keccak256\n        /* \"credits.sol\":9305:9343  creditTransferRequests[student][index] */\n      dup1\n      sload\n      0x01\n      swap4\n        /* \"credits.sol\":9281:9304  studentCredits[student] */\n      swap3\n        /* \"credits.sol\":9212:9250  creditTransferRequests[student][index] */\n      swap2\n        /* \"credits.sol\":9305:9336  creditTransferRequests[student] */\n      swap1\n        /* \"credits.sol\":9337:9342  index */\n      dup6\n      swap1\n        /* \"credits.sol\":9305:9343  creditTransferRequests[student][index] */\n      dup2\n      lt\n      tag_368\n      jumpi\n      tag_368\n      tag_198\n      jump\t// in\n    tag_368:\n      swap1\n      0x00\n      mstore\n      keccak256(0x00, 0x20)\n      swap1\n      0x03\n      mul\n      add\n        /* \"credits.sol\":9305:9352  creditTransferRequests[student][index].courseId */\n      0x00\n      add\n      sload\n        /* \"credits.sol\":9281:9353  studentCredits[student][creditTransferRequests[student][index].courseId] */\n      dup2\n      mstore\n      0x20\n      add\n      swap1\n      dup2\n      mstore\n      0x20\n      add\n      0x00\n      keccak256\n        /* \"credits.sol\":9281:9367  studentCredits[student][creditTransferRequests[student][index].courseId].isTransferred */\n      0x08\n      add\n      0x00\n        /* \"credits.sol\":9281:9372  studentCredits[student][creditTransferRequests[student][index].courseId].isTransferred=true */\n      0x0100\n      exp\n      dup2\n      sload\n      dup2\n      0xff\n      mul\n      not\n      and\n      swap1\n      dup4\n      iszero\n      iszero\n      mul\n      or\n      swap1\n      sstore\n      pop\n        /* \"credits.sol\":8758:9376  function executeCreditTransfer(address student, uint index) external onlyAdmin{... */\n      pop\n      pop\n      jump\t// out\n        /* \"credits.sol\":3367:3767  function addCourse(uint256 courseId,uint256 credits,string memory courseName)external onlyAdmin{... */\n    tag_130:\n        /* \"credits.sol\":1065:1075  msg.sender */\n      caller\n        /* \"credits.sol\":1057:1076  isAdmin[msg.sender] */\n      0x00\n      swap1\n      dup2\n      mstore\n        /* \"credits.sol\":1057:1064  isAdmin */\n      0x01\n        /* \"credits.sol\":1057:1076  isAdmin[msg.sender] */\n      0x20\n      mstore\n      0x40\n      swap1\n      keccak256\n      sload\n      0xff\n      and\n        /* \"credits.sol\":1049:1093  require(isAdmin[msg.sender], \"Not an admin\") */\n      tag_371\n      jumpi\n      mload(0x40)\n      mul(0x461bcd, exp(0x02, 0xe5))\n      dup2\n      mstore\n      0x04\n      add\n      tag_161\n      swap1\n      tag_167\n      jump\t// in\n    tag_371:\n        /* \"credits.sol\":3482:3504  courseExists[courseId] */\n      0x00\n      dup4\n      dup2\n      mstore\n        /* \"credits.sol\":3482:3494  courseExists */\n      0x06\n        /* \"credits.sol\":3482:3504  courseExists[courseId] */\n      0x20\n      mstore\n      0x40\n      swap1\n      keccak256\n      sload\n      0xff\n      and\n        /* \"credits.sol\":3481:3504  !courseExists[courseId] */\n      iszero\n        /* \"credits.sol\":3473:3529  require(!courseExists[courseId],\"Course already exists\") */\n      tag_374\n      jumpi\n      mload(0x40)\n      mul(0x461bcd, exp(0x02, 0xe5))\n      dup2\n      mstore\n        /* \"#utility.yul\":21928:21930   */\n      0x20\n        /* \"credits.sol\":3473:3529  require(!courseExists[courseId],\"Course already exists\") */\n      0x04\n      dup3\n      add\n        /* \"#utility.yul\":21910:21931   */\n      mstore\n        /* \"#utility.yul\":21967:21969   */\n      0x15\n        /* \"#utility.yul\":21947:21965   */\n      0x24\n      dup3\n      add\n        /* \"#utility.yul\":21940:21970   */\n      mstore\n        /* \"#utility.yul\":22006:22029   */\n      0x436f7572736520616c7265616479206578697374730000000000000000000000\n        /* \"#utility.yul\":21986:22004   */\n      0x44\n      dup3\n      add\n        /* \"#utility.yul\":21979:22030   */\n      mstore\n        /* \"#utility.yul\":22047:22065   */\n      0x64\n      add\n        /* \"credits.sol\":3473:3529  require(!courseExists[courseId],\"Course already exists\") */\n      tag_161\n        /* \"#utility.yul\":21726:22071   */\n      jump\n        /* \"credits.sol\":3473:3529  require(!courseExists[courseId],\"Course already exists\") */\n    tag_374:\n        /* \"credits.sol\":3540:3562  courseExists[courseId] */\n      0x00\n      dup4\n      dup2\n      mstore\n        /* \"credits.sol\":3540:3552  courseExists */\n      0x06\n        /* \"credits.sol\":3540:3562  courseExists[courseId] */\n      0x20\n      swap1\n      dup2\n      mstore\n      0x40\n      dup1\n      dup4\n      keccak256\n        /* \"credits.sol\":3540:3567  courseExists[courseId]=true */\n      dup1\n      sload\n      not(0xff)\n      and\n        /* \"credits.sol\":3563:3567  true */\n      0x01\n        /* \"credits.sol\":3540:3567  courseExists[courseId]=true */\n      swap1\n      dup2\n      or\n      swap1\n      swap2\n      sstore\n        /* \"credits.sol\":3578:3589  courseLists */\n      0x07\n        /* \"credits.sol\":3578:3604  courseLists.push(courseId) */\n      dup1\n      sload\n      dup1\n      dup4\n      add\n      swap1\n      swap2\n      sstore\n      0xa66cc928b5edb82af9bd49922954155ab7b0942694bea4ce44661d9a8736c688\n      add\n      dup8\n      swap1\n      sstore\n        /* \"credits.sol\":3637:3759  CourserInfo(... */\n      dup2\n      mload\n      0x80\n      dup2\n      add\n      dup4\n      mstore\n      dup8\n      dup2\n      mstore\n      dup1\n      dup5\n      add\n      dup7\n      dup2\n      mstore\n      dup2\n      dup5\n      add\n      dup9\n      swap1\n      mstore\n        /* \"credits.sol\":3733:3748  block.timestamp */\n      timestamp\n        /* \"credits.sol\":3637:3759  CourserInfo(... */\n      0x60\n      dup4\n      add\n      mstore\n        /* \"credits.sol\":3615:3636  courserInfo[courseId] */\n      dup9\n      dup7\n      mstore\n        /* \"credits.sol\":3615:3626  courserInfo */\n      0x02\n        /* \"credits.sol\":3615:3636  courserInfo[courseId] */\n      swap1\n      swap5\n      mstore\n      swap2\n      swap1\n      swap4\n      keccak256\n        /* \"credits.sol\":3615:3759  courserInfo[courseId]=CourserInfo(... */\n      dup2\n      mload\n      dup2\n      sstore\n      swap2\n      mload\n        /* \"credits.sol\":3637:3759  CourserInfo(... */\n      swap1\n      swap3\n        /* \"credits.sol\":3615:3759  courserInfo[courseId]=CourserInfo(... */\n      dup3\n      add\n      swap1\n      tag_378\n      swap1\n      dup3\n      tag_247\n      jump\t// in\n    tag_378:\n      pop\n      0x40\n      dup3\n      add\n      mload\n      0x02\n      dup3\n      add\n      sstore\n      0x60\n      swap1\n      swap2\n      add\n      mload\n      0x03\n      swap1\n      swap2\n      add\n      sstore\n      pop\n      pop\n      pop\n        /* \"credits.sol\":3367:3767  function addCourse(uint256 courseId,uint256 credits,string memory courseName)external onlyAdmin{... */\n      jump\t// out\n        /* \"credits.sol\":2975:3003  uint256[]public  courseLists */\n    tag_138:\n      0x07\n      dup2\n      dup2\n      sload\n      dup2\n      lt\n      tag_379\n      jumpi\n      0x00\n      dup1\n      revert\n    tag_379:\n      0x00\n      swap2\n      dup3\n      mstore\n      0x20\n      swap1\n      swap2\n      keccak256\n      add\n      sload\n      swap1\n      pop\n      dup2\n      jump\t// out\n        /* \"credits.sol\":6555:7396  function modifyCredit(address student, uint256 courseId, uint256 newCredits, uint256 newScore) external  onlyTeacher {... */\n    tag_143:\n        /* \"credits.sol\":3290:3300  msg.sender */\n      caller\n        /* \"credits.sol\":3281:3301  teachers[msg.sender] */\n      0x00\n      swap1\n      dup2\n      mstore\n        /* \"credits.sol\":3281:3289  teachers */\n      0x05\n        /* \"credits.sol\":3281:3301  teachers[msg.sender] */\n      0x20\n      mstore\n      0x40\n      swap1\n      keccak256\n      sload\n      0xff\n      and\n        /* \"credits.sol\":3273:3319  require(teachers[msg.sender], \"Not a teacher\") */\n      tag_382\n      jumpi\n      mload(0x40)\n      mul(0x461bcd, exp(0x02, 0xe5))\n      dup2\n      mstore\n        /* \"#utility.yul\":14987:14989   */\n      0x20\n        /* \"credits.sol\":3273:3319  require(teachers[msg.sender], \"Not a teacher\") */\n      0x04\n      dup3\n      add\n        /* \"#utility.yul\":14969:14990   */\n      mstore\n        /* \"#utility.yul\":15026:15028   */\n      0x0d\n        /* \"#utility.yul\":15006:15024   */\n      0x24\n      dup3\n      add\n        /* \"#utility.yul\":14999:15029   */\n      mstore\n        /* \"#utility.yul\":15065:15080   */\n      0x4e6f742061207465616368657200000000000000000000000000000000000000\n        /* \"#utility.yul\":15045:15063   */\n      0x44\n      dup3\n      add\n        /* \"#utility.yul\":15038:15081   */\n      mstore\n        /* \"#utility.yul\":15098:15116   */\n      0x64\n      add\n        /* \"credits.sol\":3273:3319  require(teachers[msg.sender], \"Not a teacher\") */\n      tag_161\n        /* \"#utility.yul\":14785:15122   */\n      jump\n        /* \"credits.sol\":3273:3319  require(teachers[msg.sender], \"Not a teacher\") */\n    tag_382:\n      sub(exp(0x02, 0xa0), 0x01)\n        /* \"credits.sol\":6691:6714  studentCredits[student] */\n      dup5\n      and\n      0x00\n      swap1\n      dup2\n      mstore\n        /* \"credits.sol\":6691:6705  studentCredits */\n      0x03\n        /* \"credits.sol\":6691:6714  studentCredits[student] */\n      0x20\n      dup2\n      dup2\n      mstore\n      0x40\n      dup1\n      dup5\n      keccak256\n        /* \"credits.sol\":6691:6724  studentCredits[student][courseId] */\n      dup8\n      dup6\n      mstore\n      swap1\n      swap2\n      mstore\n      dup3\n      keccak256\n        /* \"credits.sol\":6691:6734  studentCredits[student][courseId].issueDate */\n      add\n      sload\n        /* \"credits.sol\":6691:6739  studentCredits[student][courseId].issueDate != 0 */\n      swap1\n      sub\n        /* \"credits.sol\":6683:6765  require(studentCredits[student][courseId].issueDate != 0, \"Credit does not exist\") */\n      tag_385\n      jumpi\n      mload(0x40)\n      mul(0x461bcd, exp(0x02, 0xe5))\n      dup2\n      mstore\n      0x04\n      add\n      tag_161\n      swap1\n      tag_171\n      jump\t// in\n    tag_385:\n      sub(exp(0x02, 0xa0), 0x01)\n        /* \"credits.sol\":6786:6805  student!=address(0) */\n      dup5\n      and\n        /* \"credits.sol\":6778:6824  require(student!=address(0),\"Invalid address\") */\n      tag_387\n      jumpi\n      mload(0x40)\n      mul(0x461bcd, exp(0x02, 0xe5))\n      dup2\n      mstore\n      0x04\n      add\n      tag_161\n      swap1\n      tag_184\n      jump\t// in\n    tag_387:\n        /* \"credits.sol\":6909:6910  0 */\n      0x00\n        /* \"credits.sol\":6898:6908  newCredits */\n      dup3\n        /* \"credits.sol\":6898:6910  newCredits>0 */\n      gt\n        /* \"credits.sol\":6890:6929  require(newCredits>0,\"Invalid credits\") */\n      tag_391\n      jumpi\n      mload(0x40)\n      mul(0x461bcd, exp(0x02, 0xe5))\n      dup2\n      mstore\n        /* \"#utility.yul\":15329:15331   */\n      0x20\n        /* \"credits.sol\":6890:6929  require(newCredits>0,\"Invalid credits\") */\n      0x04\n      dup3\n      add\n        /* \"#utility.yul\":15311:15332   */\n      mstore\n        /* \"#utility.yul\":15368:15370   */\n      0x0f\n        /* \"#utility.yul\":15348:15366   */\n      0x24\n      dup3\n      add\n        /* \"#utility.yul\":15341:15371   */\n      mstore\n        /* \"#utility.yul\":15407:15424   */\n      0x496e76616c696420637265646974730000000000000000000000000000000000\n        /* \"#utility.yul\":15387:15405   */\n      0x44\n      dup3\n      add\n        /* \"#utility.yul\":15380:15425   */\n      mstore\n        /* \"#utility.yul\":15442:15460   */\n      0x64\n      add\n        /* \"credits.sol\":6890:6929  require(newCredits>0,\"Invalid credits\") */\n      tag_161\n        /* \"#utility.yul\":15127:15466   */\n      jump\n        /* \"credits.sol\":6890:6929  require(newCredits>0,\"Invalid credits\") */\n    tag_391:\n      sub(exp(0x02, 0xa0), 0x01)\n        /* \"credits.sol\":6951:6974  studentCredits[student] */\n      dup5\n      and\n      0x00\n      swap1\n      dup2\n      mstore\n        /* \"credits.sol\":6951:6965  studentCredits */\n      0x03\n        /* \"credits.sol\":6951:6974  studentCredits[student] */\n      0x20\n      swap1\n      dup2\n      mstore\n      0x40\n      dup1\n      dup4\n      keccak256\n        /* \"credits.sol\":6951:6984  studentCredits[student][courseId] */\n      dup7\n      dup5\n      mstore\n      swap1\n      swap2\n      mstore\n      swap1\n      keccak256\n        /* \"credits.sol\":6951:6994  studentCredits[student][courseId].isRevoked */\n      0x06\n      add\n      sload\n      0xff\n      and\n        /* \"credits.sol\":6950:6994  !studentCredits[student][courseId].isRevoked */\n      iszero\n        /* \"credits.sol\":6942:7021  require(!studentCredits[student][courseId].isRevoked, \"Credit already revoked\") */\n      tag_393\n      jumpi\n      mload(0x40)\n      mul(0x461bcd, exp(0x02, 0xe5))\n      dup2\n      mstore\n      0x04\n      add\n      tag_161\n      swap1\n      tag_177\n      jump\t// in\n    tag_393:\n      sub(exp(0x02, 0xa0), 0x01)\n        /* \"credits.sol\":7046:7069  studentCredits[student] */\n      swap4\n      swap1\n      swap4\n      and\n        /* \"credits.sol\":7034:7045  uint256 num */\n      0x00\n        /* \"credits.sol\":7046:7069  studentCredits[student] */\n      swap1\n      dup2\n      mstore\n        /* \"credits.sol\":7046:7060  studentCredits */\n      0x03\n        /* \"credits.sol\":7046:7069  studentCredits[student] */\n      0x20\n      swap1\n      dup2\n      mstore\n      0x40\n      dup1\n      dup4\n      keccak256\n        /* \"credits.sol\":7046:7079  studentCredits[student][courseId] */\n      swap5\n      dup4\n      mstore\n      swap4\n      swap1\n      mstore\n      swap2\n      swap1\n      swap2\n      keccak256\n        /* \"credits.sol\":7159:7200  studentCredits[student][courseId].credits */\n      0x01\n      dup1\n      dup3\n      add\n        /* \"credits.sol\":7159:7211  studentCredits[student][courseId].credits=newCredits */\n      swap3\n      swap1\n      swap3\n      sstore\n        /* \"credits.sol\":7280:7319  studentCredits[student][courseId].score */\n      0x02\n      dup2\n      add\n        /* \"credits.sol\":7280:7328  studentCredits[student][courseId].score=newScore */\n      swap3\n      swap1\n      swap3\n      sstore\n      0x04\n        /* \"credits.sol\":7339:7383  studentCredits[student][courseId].isModified */\n      swap1\n      swap2\n      add\n        /* \"credits.sol\":7339:7388  studentCredits[student][courseId].isModified=true */\n      dup1\n      sload\n      not(0xff)\n      and\n      swap1\n      swap2\n      or\n      swap1\n      sstore\n        /* \"credits.sol\":6555:7396  function modifyCredit(address student, uint256 courseId, uint256 newCredits, uint256 newScore) external  onlyTeacher {... */\n      jump\t// out\n        /* \"credits.sol\":2683:2748  mapping(address => mapping(uint => Credit)) public studentCredits */\n    tag_150:\n      0x03\n      0x20\n      dup2\n      dup2\n      mstore\n      0x00\n      swap4\n      dup5\n      mstore\n      0x40\n      dup1\n      dup6\n      keccak256\n      swap1\n      swap2\n      mstore\n      swap2\n      dup4\n      mstore\n      swap2\n      keccak256\n      dup1\n      sload\n      0x01\n      dup3\n      add\n      sload\n      0x02\n      dup4\n      add\n      sload\n      swap4\n      dup4\n      add\n      sload\n      0x04\n      dup5\n      add\n      sload\n      0x05\n      dup6\n      add\n      sload\n      0x06\n      dup7\n      add\n      sload\n      0x07\n      dup8\n      add\n      dup1\n      sload\n      swap7\n      swap9\n      swap6\n      swap8\n      swap6\n      swap7\n      swap5\n      swap6\n      0xff\n      swap5\n      dup6\n      and\n      swap6\n      swap4\n      swap5\n      swap1\n      swap3\n      and\n      swap3\n      tag_395\n      swap1\n      tag_201\n      jump\t// in\n    tag_395:\n      dup1\n      0x1f\n      add\n      0x20\n      dup1\n      swap2\n      div\n      mul\n      0x20\n      add\n      mload(0x40)\n      swap1\n      dup2\n      add\n      0x40\n      mstore\n      dup1\n      swap3\n      swap2\n      swap1\n      dup2\n      dup2\n      mstore\n      0x20\n      add\n      dup3\n      dup1\n      sload\n      tag_396\n      swap1\n      tag_201\n      jump\t// in\n    tag_396:\n      dup1\n      iszero\n      tag_397\n      jumpi\n      dup1\n      0x1f\n      lt\n      tag_398\n      jumpi\n      0x0100\n      dup1\n      dup4\n      sload\n      div\n      mul\n      dup4\n      mstore\n      swap2\n      0x20\n      add\n      swap2\n      jump(tag_397)\n    tag_398:\n      dup3\n      add\n      swap2\n      swap1\n      0x00\n      mstore\n      keccak256(0x00, 0x20)\n      swap1\n    tag_399:\n      dup2\n      sload\n      dup2\n      mstore\n      swap1\n      0x01\n      add\n      swap1\n      0x20\n      add\n      dup1\n      dup4\n      gt\n      tag_399\n      jumpi\n      dup3\n      swap1\n      sub\n      0x1f\n      and\n      dup3\n      add\n      swap2\n    tag_397:\n      pop\n      pop\n      pop\n      0x08\n      dup5\n      add\n      sload\n      0x09\n      dup6\n      add\n      dup1\n      sload\n      swap5\n      swap6\n      0xff\n      swap1\n      swap3\n      and\n      swap5\n      swap2\n      swap4\n      pop\n      swap2\n      pop\n      tag_400\n      swap1\n      tag_201\n      jump\t// in\n    tag_400:\n      dup1\n      0x1f\n      add\n      0x20\n      dup1\n      swap2\n      div\n      mul\n      0x20\n      add\n      mload(0x40)\n      swap1\n      dup2\n      add\n      0x40\n      mstore\n      dup1\n      swap3\n      swap2\n      swap1\n      dup2\n      dup2\n      mstore\n      0x20\n      add\n      dup3\n      dup1\n      sload\n      tag_401\n      swap1\n      tag_201\n      jump\t// in\n    tag_401:\n      dup1\n      iszero\n      tag_402\n      jumpi\n      dup1\n      0x1f\n      lt\n      tag_403\n      jumpi\n      0x0100\n      dup1\n      dup4\n      sload\n      div\n      mul\n      dup4\n      mstore\n      swap2\n      0x20\n      add\n      swap2\n      jump(tag_402)\n    tag_403:\n      dup3\n      add\n      swap2\n      swap1\n      0x00\n      mstore\n      keccak256(0x00, 0x20)\n      swap1\n    tag_404:\n      dup2\n      sload\n      dup2\n      mstore\n      swap1\n      0x01\n      add\n      swap1\n      0x20\n      add\n      dup1\n      dup4\n      gt\n      tag_404\n      jumpi\n      dup3\n      swap1\n      sub\n      0x1f\n      and\n      dup3\n      add\n      swap2\n    tag_402:\n      pop\n      pop\n      pop\n      pop\n      pop\n      swap1\n      pop\n      dup11\n      jump\t// out\n        /* \"credits.sol\":1277:1491  function transferOwnership(address newOwner) public virtual onlyOwner {... */\n    tag_155:\n        /* \"credits.sol\":957:963  _owner */\n      and(sub(exp(0x02, 0xa0), 0x01), sload(0x00))\n        /* \"credits.sol\":967:977  msg.sender */\n      caller\n        /* \"credits.sol\":957:977  _owner == msg.sender */\n      eq\n        /* \"credits.sol\":949:988  require(_owner == msg.sender, \"!owner\") */\n      tag_406\n      jumpi\n      mload(0x40)\n      mul(0x461bcd, exp(0x02, 0xe5))\n      dup2\n      mstore\n      0x04\n      add\n      tag_161\n      swap1\n      tag_162\n      jump\t// in\n    tag_406:\n      sub(exp(0x02, 0xa0), 0x01)\n        /* \"credits.sol\":1366:1388  newOwner != address(0) */\n      dup2\n      and\n        /* \"credits.sol\":1358:1401  require(newOwner != address(0), \"new is 0\") */\n      tag_409\n      jumpi\n      mload(0x40)\n      mul(0x461bcd, exp(0x02, 0xe5))\n      dup2\n      mstore\n        /* \"#utility.yul\":22278:22280   */\n      0x20\n        /* \"credits.sol\":1358:1401  require(newOwner != address(0), \"new is 0\") */\n      0x04\n      dup3\n      add\n        /* \"#utility.yul\":22260:22281   */\n      mstore\n        /* \"#utility.yul\":22317:22318   */\n      0x08\n        /* \"#utility.yul\":22297:22315   */\n      0x24\n      dup3\n      add\n        /* \"#utility.yul\":22290:22319   */\n      mstore\n        /* \"#utility.yul\":22355:22365   */\n      0x6e65772069732030000000000000000000000000000000000000000000000000\n        /* \"#utility.yul\":22335:22353   */\n      0x44\n      dup3\n      add\n        /* \"#utility.yul\":22328:22366   */\n      mstore\n        /* \"#utility.yul\":22383:22401   */\n      0x64\n      add\n        /* \"credits.sol\":1358:1401  require(newOwner != address(0), \"new is 0\") */\n      tag_161\n        /* \"#utility.yul\":22076:22407   */\n      jump\n        /* \"credits.sol\":1358:1401  require(newOwner != address(0), \"new is 0\") */\n    tag_409:\n        /* \"credits.sol\":1438:1444  _owner */\n      0x00\n      dup1\n      sload\n        /* \"credits.sol\":1417:1455  OwnershipTransferred(_owner, newOwner) */\n      mload(0x40)\n      sub(exp(0x02, 0xa0), 0x01)\n      dup1\n      dup6\n      and\n      swap4\n        /* \"credits.sol\":1438:1444  _owner */\n      swap3\n      and\n      swap2\n        /* \"credits.sol\":1417:1455  OwnershipTransferred(_owner, newOwner) */\n      0x8be0079c531659141344cd1fd0a4f28419497f9722a3daafe3b4186f6b6457e0\n      swap2\n      log3\n        /* \"credits.sol\":1466:1472  _owner */\n      0x00\n        /* \"credits.sol\":1466:1483  _owner = newOwner */\n      dup1\n      sload\n      not(0xffffffffffffffffffffffffffffffffffffffff)\n      and\n      sub(exp(0x02, 0xa0), 0x01)\n      swap3\n      swap1\n      swap3\n      and\n      swap2\n      swap1\n      swap2\n      or\n      swap1\n      sstore\n        /* \"credits.sol\":1277:1491  function transferOwnership(address newOwner) public virtual onlyOwner {... */\n      jump\t// out\n    tag_192:\n      mload(0x40)\n      dup1\n      0x0140\n      add\n      0x40\n      mstore\n      dup1\n      0x00\n      dup2\n      mstore\n      0x20\n      add\n      0x00\n      dup2\n      mstore\n      0x20\n      add\n      0x00\n      dup2\n      mstore\n      0x20\n      add\n      0x00\n      dup2\n      mstore\n      0x20\n      add\n      iszero(iszero(0x00))\n      dup2\n      mstore\n      0x20\n      add\n      0x00\n      dup2\n      mstore\n      0x20\n      add\n      iszero(iszero(0x00))\n      dup2\n      mstore\n      0x20\n      add\n      0x60\n      dup2\n      mstore\n      0x20\n      add\n      iszero(iszero(0x00))\n      dup2\n      mstore\n      0x20\n      add\n      0x60\n      dup2\n      mstore\n      pop\n      swap1\n      jump\t// out\n        /* \"#utility.yul\":14:210   */\n    tag_412:\n        /* \"#utility.yul\":82:102   */\n      dup1\n      calldataload\n      sub(exp(0x02, 0xa0), 0x01)\n        /* \"#utility.yul\":131:185   */\n      dup2\n      and\n        /* \"#utility.yul\":121:186   */\n      dup2\n      eq\n        /* \"#utility.yul\":111:204   */\n      tag_422\n      jumpi\n        /* \"#utility.yul\":200:201   */\n      0x00\n        /* \"#utility.yul\":197:198   */\n      dup1\n        /* \"#utility.yul\":190:202   */\n      revert\n        /* \"#utility.yul\":111:204   */\n    tag_422:\n        /* \"#utility.yul\":14:210   */\n      swap2\n      swap1\n      pop\n      jump\t// out\n        /* \"#utility.yul\":215:469   */\n    tag_41:\n        /* \"#utility.yul\":283:289   */\n      0x00\n        /* \"#utility.yul\":291:297   */\n      dup1\n        /* \"#utility.yul\":344:346   */\n      0x40\n        /* \"#utility.yul\":332:341   */\n      dup4\n        /* \"#utility.yul\":323:330   */\n      dup6\n        /* \"#utility.yul\":319:342   */\n      sub\n        /* \"#utility.yul\":315:347   */\n      slt\n        /* \"#utility.yul\":312:364   */\n      iszero\n      tag_424\n      jumpi\n        /* \"#utility.yul\":360:361   */\n      0x00\n        /* \"#utility.yul\":357:358   */\n      dup1\n        /* \"#utility.yul\":350:362   */\n      revert\n        /* \"#utility.yul\":312:364   */\n    tag_424:\n        /* \"#utility.yul\":383:412   */\n      tag_425\n        /* \"#utility.yul\":402:411   */\n      dup4\n        /* \"#utility.yul\":383:412   */\n      tag_412\n      jump\t// in\n    tag_425:\n        /* \"#utility.yul\":373:412   */\n      swap5\n        /* \"#utility.yul\":459:461   */\n      0x20\n        /* \"#utility.yul\":444:462   */\n      swap4\n      swap1\n      swap4\n      add\n        /* \"#utility.yul\":431:463   */\n      calldataload\n      swap4\n      pop\n      pop\n      pop\n        /* \"#utility.yul\":215:469   */\n      jump\t// out\n        /* \"#utility.yul\":944:1130   */\n    tag_52:\n        /* \"#utility.yul\":1003:1009   */\n      0x00\n        /* \"#utility.yul\":1056:1058   */\n      0x20\n        /* \"#utility.yul\":1044:1053   */\n      dup3\n        /* \"#utility.yul\":1035:1042   */\n      dup5\n        /* \"#utility.yul\":1031:1054   */\n      sub\n        /* \"#utility.yul\":1027:1059   */\n      slt\n        /* \"#utility.yul\":1024:1076   */\n      iszero\n      tag_430\n      jumpi\n        /* \"#utility.yul\":1072:1073   */\n      0x00\n        /* \"#utility.yul\":1069:1070   */\n      dup1\n        /* \"#utility.yul\":1062:1074   */\n      revert\n        /* \"#utility.yul\":1024:1076   */\n    tag_430:\n        /* \"#utility.yul\":1095:1124   */\n      tag_431\n        /* \"#utility.yul\":1114:1123   */\n      dup3\n        /* \"#utility.yul\":1095:1124   */\n      tag_412\n      jump\t// in\n    tag_431:\n        /* \"#utility.yul\":1085:1124   */\n      swap4\n        /* \"#utility.yul\":944:1130   */\n      swap3\n      pop\n      pop\n      pop\n      jump\t// out\n        /* \"#utility.yul\":1135:1558   */\n    tag_414:\n        /* \"#utility.yul\":1177:1180   */\n      0x00\n        /* \"#utility.yul\":1215:1220   */\n      dup2\n        /* \"#utility.yul\":1209:1221   */\n      mload\n        /* \"#utility.yul\":1242:1248   */\n      dup1\n        /* \"#utility.yul\":1237:1240   */\n      dup5\n        /* \"#utility.yul\":1230:1249   */\n      mstore\n        /* \"#utility.yul\":1267:1268   */\n      0x00\n        /* \"#utility.yul\":1277:1439   */\n    tag_433:\n        /* \"#utility.yul\":1291:1297   */\n      dup2\n        /* \"#utility.yul\":1288:1289   */\n      dup2\n        /* \"#utility.yul\":1285:1298   */\n      lt\n        /* \"#utility.yul\":1277:1439   */\n      iszero\n      tag_435\n      jumpi\n        /* \"#utility.yul\":1353:1357   */\n      0x20\n        /* \"#utility.yul\":1409:1422   */\n      dup2\n      dup6\n      add\n        /* \"#utility.yul\":1405:1427   */\n      dup2\n      add\n        /* \"#utility.yul\":1399:1428   */\n      mload\n        /* \"#utility.yul\":1381:1392   */\n      dup7\n      dup4\n      add\n        /* \"#utility.yul\":1377:1397   */\n      dup3\n      add\n        /* \"#utility.yul\":1370:1429   */\n      mstore\n        /* \"#utility.yul\":1306:1318   */\n      add\n        /* \"#utility.yul\":1277:1439   */\n      jump(tag_433)\n    tag_435:\n        /* \"#utility.yul\":1281:1284   */\n      pop\n        /* \"#utility.yul\":1484:1485   */\n      0x00\n        /* \"#utility.yul\":1477:1481   */\n      0x20\n        /* \"#utility.yul\":1468:1474   */\n      dup3\n        /* \"#utility.yul\":1463:1466   */\n      dup7\n        /* \"#utility.yul\":1459:1475   */\n      add\n        /* \"#utility.yul\":1455:1482   */\n      add\n        /* \"#utility.yul\":1448:1486   */\n      mstore\n        /* \"#utility.yul\":1547:1551   */\n      0x20\n        /* \"#utility.yul\":1540:1542   */\n      0x1f\n        /* \"#utility.yul\":1536:1543   */\n      not\n        /* \"#utility.yul\":1531:1533   */\n      0x1f\n        /* \"#utility.yul\":1523:1529   */\n      dup4\n        /* \"#utility.yul\":1519:1534   */\n      add\n        /* \"#utility.yul\":1515:1544   */\n      and\n        /* \"#utility.yul\":1510:1513   */\n      dup6\n        /* \"#utility.yul\":1506:1545   */\n      add\n        /* \"#utility.yul\":1502:1552   */\n      add\n        /* \"#utility.yul\":1495:1552   */\n      swap2\n      pop\n      pop\n        /* \"#utility.yul\":1135:1558   */\n      swap3\n      swap2\n      pop\n      pop\n      jump\t// out\n        /* \"#utility.yul\":1563:3559   */\n    tag_67:\n        /* \"#utility.yul\":1780:1782   */\n      0x20\n        /* \"#utility.yul\":1832:1853   */\n      dup1\n      dup3\n      mstore\n        /* \"#utility.yul\":1902:1915   */\n      dup3\n      mload\n        /* \"#utility.yul\":1805:1823   */\n      dup3\n      dup3\n      add\n        /* \"#utility.yul\":1924:1946   */\n      dup2\n      swap1\n      mstore\n        /* \"#utility.yul\":1751:1755   */\n      0x00\n      swap2\n        /* \"#utility.yul\":1780:1782   */\n      swap1\n        /* \"#utility.yul\":1965:1967   */\n      0x40\n      swap1\n        /* \"#utility.yul\":1983:2001   */\n      dup2\n      dup6\n      add\n      swap1\n        /* \"#utility.yul\":2043:2058   */\n      dup1\n      dup5\n      mul\n        /* \"#utility.yul\":2028:2059   */\n      dup7\n      add\n        /* \"#utility.yul\":2024:2064   */\n      dup4\n      add\n        /* \"#utility.yul\":2087:2102   */\n      dup8\n      dup6\n      add\n        /* \"#utility.yul\":1751:1755   */\n      dup7\n        /* \"#utility.yul\":2130:3530   */\n    tag_437:\n        /* \"#utility.yul\":2144:2150   */\n      dup4\n        /* \"#utility.yul\":2141:2142   */\n      dup2\n        /* \"#utility.yul\":2138:2151   */\n      lt\n        /* \"#utility.yul\":2130:3530   */\n      iszero\n      tag_439\n      jumpi\n      not(0x3f)\n        /* \"#utility.yul\":2209:2231   */\n      dup10\n      dup5\n      sub\n        /* \"#utility.yul\":2205:2241   */\n      add\n        /* \"#utility.yul\":2193:2242   */\n      dup6\n      mstore\n        /* \"#utility.yul\":2265:2278   */\n      dup2\n      mload\n        /* \"#utility.yul\":2335:2344   */\n      dup1\n      mload\n        /* \"#utility.yul\":2320:2345   */\n      dup5\n      mstore\n        /* \"#utility.yul\":2388:2399   */\n      dup8\n      dup2\n      add\n        /* \"#utility.yul\":2382:2400   */\n      mload\n        /* \"#utility.yul\":2365:2380   */\n      dup9\n      dup6\n      add\n        /* \"#utility.yul\":2358:2401   */\n      mstore\n        /* \"#utility.yul\":2444:2455   */\n      dup7\n      dup2\n      add\n        /* \"#utility.yul\":2438:2456   */\n      mload\n        /* \"#utility.yul\":2421:2436   */\n      dup8\n      dup6\n      add\n        /* \"#utility.yul\":2414:2457   */\n      mstore\n        /* \"#utility.yul\":2480:2484   */\n      0x60\n        /* \"#utility.yul\":2527:2538   */\n      dup1\n      dup3\n      add\n        /* \"#utility.yul\":2521:2539   */\n      mload\n        /* \"#utility.yul\":2504:2519   */\n      swap1\n      dup6\n      add\n        /* \"#utility.yul\":2497:2540   */\n      mstore\n        /* \"#utility.yul\":2563:2567   */\n      0x80\n        /* \"#utility.yul\":2606:2617   */\n      dup1\n      dup3\n      add\n        /* \"#utility.yul\":2600:2618   */\n      mload\n        /* \"#utility.yul\":726:739   */\n      iszero\n        /* \"#utility.yul\":719:740   */\n      iszero\n        /* \"#utility.yul\":2661:2676   */\n      swap1\n      dup6\n      add\n        /* \"#utility.yul\":707:741   */\n      mstore\n        /* \"#utility.yul\":2700:2704   */\n      0xa0\n        /* \"#utility.yul\":2747:2758   */\n      dup1\n      dup3\n      add\n        /* \"#utility.yul\":2741:2759   */\n      mload\n        /* \"#utility.yul\":2724:2739   */\n      swap1\n      dup6\n      add\n        /* \"#utility.yul\":2717:2760   */\n      mstore\n        /* \"#utility.yul\":2783:2787   */\n      0xc0\n        /* \"#utility.yul\":2828:2839   */\n      dup1\n      dup3\n      add\n        /* \"#utility.yul\":2822:2840   */\n      mload\n        /* \"#utility.yul\":726:739   */\n      iszero\n        /* \"#utility.yul\":719:740   */\n      iszero\n        /* \"#utility.yul\":2885:2900   */\n      swap1\n      dup6\n      add\n        /* \"#utility.yul\":707:741   */\n      mstore\n        /* \"#utility.yul\":2924:2928   */\n      0xe0\n        /* \"#utility.yul\":2969:2980   */\n      dup1\n      dup3\n      add\n        /* \"#utility.yul\":2963:2981   */\n      mload\n        /* \"#utility.yul\":2301:2307   */\n      0x0140\n        /* \"#utility.yul\":3001:3016   */\n      dup3\n      dup8\n      add\n        /* \"#utility.yul\":2994:3021   */\n      dup2\n      swap1\n      mstore\n        /* \"#utility.yul\":2301:2307   */\n      swap2\n        /* \"#utility.yul\":2924:2928   */\n      swap1\n        /* \"#utility.yul\":3048:3098   */\n      tag_442\n        /* \"#utility.yul\":3082:3097   */\n      dup4\n      dup9\n      add\n        /* \"#utility.yul\":2963:2981   */\n      dup3\n        /* \"#utility.yul\":3048:3098   */\n      tag_414\n      jump\t// in\n    tag_442:\n        /* \"#utility.yul\":3034:3098   */\n      swap3\n      pop\n      pop\n      pop\n        /* \"#utility.yul\":3122:3128   */\n      0x0100\n        /* \"#utility.yul\":3177:3180   */\n      dup1\n        /* \"#utility.yul\":3173:3175   */\n      dup4\n        /* \"#utility.yul\":3169:3181   */\n      add\n        /* \"#utility.yul\":3163:3182   */\n      mload\n        /* \"#utility.yul\":3195:3244   */\n      tag_443\n        /* \"#utility.yul\":3239:3242   */\n      dup3\n        /* \"#utility.yul\":3231:3237   */\n      dup9\n        /* \"#utility.yul\":3227:3243   */\n      add\n        /* \"#utility.yul\":3211:3225   */\n      dup3\n        /* \"#utility.yul\":726:739   */\n      iszero\n        /* \"#utility.yul\":719:740   */\n      iszero\n        /* \"#utility.yul\":707:741   */\n      swap1\n      mstore\n        /* \"#utility.yul\":656:747   */\n      jump\n        /* \"#utility.yul\":3195:3244   */\n    tag_443:\n      pop\n      pop\n        /* \"#utility.yul\":3268:3274   */\n      0x0120\n        /* \"#utility.yul\":3323:3326   */\n      dup1\n        /* \"#utility.yul\":3319:3321   */\n      dup4\n        /* \"#utility.yul\":3315:3327   */\n      add\n        /* \"#utility.yul\":3309:3328   */\n      mload\n        /* \"#utility.yul\":3287:3328   */\n      swap3\n      pop\n        /* \"#utility.yul\":3378:3384   */\n      dup6\n        /* \"#utility.yul\":3370:3376   */\n      dup3\n        /* \"#utility.yul\":3366:3385   */\n      sub\n        /* \"#utility.yul\":3360:3363   */\n      dup2\n        /* \"#utility.yul\":3352:3358   */\n      dup8\n        /* \"#utility.yul\":3348:3364   */\n      add\n        /* \"#utility.yul\":3341:3386   */\n      mstore\n      pop\n        /* \"#utility.yul\":3409:3450   */\n      tag_444\n        /* \"#utility.yul\":3443:3449   */\n      dup2\n        /* \"#utility.yul\":3427:3441   */\n      dup4\n        /* \"#utility.yul\":3409:3450   */\n      tag_414\n      jump\t// in\n    tag_444:\n        /* \"#utility.yul\":3508:3520   */\n      swap7\n      dup10\n      add\n      swap7\n        /* \"#utility.yul\":3399:3450   */\n      swap5\n      pop\n      pop\n      pop\n        /* \"#utility.yul\":3473:3488   */\n      swap1\n      dup7\n      add\n      swap1\n        /* \"#utility.yul\":2166:2167   */\n      0x01\n        /* \"#utility.yul\":2159:2168   */\n      add\n        /* \"#utility.yul\":2130:3530   */\n      jump(tag_437)\n    tag_439:\n      pop\n        /* \"#utility.yul\":3547:3553   */\n      swap1\n      swap9\n        /* \"#utility.yul\":1563:3559   */\n      swap8\n      pop\n      pop\n      pop\n      pop\n      pop\n      pop\n      pop\n      pop\n      jump\t// out\n        /* \"#utility.yul\":3564:4019   */\n    tag_72:\n        /* \"#utility.yul\":3785:3791   */\n      dup5\n        /* \"#utility.yul\":3774:3783   */\n      dup2\n        /* \"#utility.yul\":3767:3792   */\n      mstore\n        /* \"#utility.yul\":3828:3831   */\n      0x80\n        /* \"#utility.yul\":3823:3825   */\n      0x20\n        /* \"#utility.yul\":3812:3821   */\n      dup3\n        /* \"#utility.yul\":3808:3826   */\n      add\n        /* \"#utility.yul\":3801:3832   */\n      mstore\n        /* \"#utility.yul\":3748:3752   */\n      0x00\n        /* \"#utility.yul\":3849:3895   */\n      tag_446\n        /* \"#utility.yul\":3890:3893   */\n      0x80\n        /* \"#utility.yul\":3879:3888   */\n      dup4\n        /* \"#utility.yul\":3875:3894   */\n      add\n        /* \"#utility.yul\":3867:3873   */\n      dup7\n        /* \"#utility.yul\":3849:3895   */\n      tag_414\n      jump\t// in\n    tag_446:\n        /* \"#utility.yul\":3938:3952   */\n      swap4\n      iszero\n        /* \"#utility.yul\":3931:3953   */\n      iszero\n        /* \"#utility.yul\":3926:3928   */\n      0x40\n        /* \"#utility.yul\":3911:3929   */\n      dup4\n      add\n        /* \"#utility.yul\":3904:3954   */\n      mstore\n      pop\n        /* \"#utility.yul\":3997:4011   */\n      swap1\n      iszero\n        /* \"#utility.yul\":3990:4012   */\n      iszero\n        /* \"#utility.yul\":3985:3987   */\n      0x60\n        /* \"#utility.yul\":3970:3988   */\n      swap1\n      swap2\n      add\n        /* \"#utility.yul\":3963:4013   */\n      mstore\n        /* \"#utility.yul\":3841:3895   */\n      swap3\n        /* \"#utility.yul\":3564:4019   */\n      swap2\n      pop\n      pop\n      jump\t// out\n        /* \"#utility.yul\":4024:4208   */\n    tag_188:\n      mul(0x4e487b71, exp(0x02, 0xe0))\n        /* \"#utility.yul\":4073:4074   */\n      0x00\n        /* \"#utility.yul\":4066:4154   */\n      mstore\n        /* \"#utility.yul\":4173:4177   */\n      0x41\n        /* \"#utility.yul\":4170:4171   */\n      0x04\n        /* \"#utility.yul\":4163:4178   */\n      mstore\n        /* \"#utility.yul\":4197:4201   */\n      0x24\n        /* \"#utility.yul\":4194:4195   */\n      0x00\n        /* \"#utility.yul\":4187:4202   */\n      revert\n        /* \"#utility.yul\":4213:4932   */\n    tag_415:\n        /* \"#utility.yul\":4256:4261   */\n      0x00\n        /* \"#utility.yul\":4309:4312   */\n      dup3\n        /* \"#utility.yul\":4302:4306   */\n      0x1f\n        /* \"#utility.yul\":4294:4300   */\n      dup4\n        /* \"#utility.yul\":4290:4307   */\n      add\n        /* \"#utility.yul\":4286:4313   */\n      slt\n        /* \"#utility.yul\":4276:4331   */\n      tag_449\n      jumpi\n        /* \"#utility.yul\":4327:4328   */\n      0x00\n        /* \"#utility.yul\":4324:4325   */\n      dup1\n        /* \"#utility.yul\":4317:4329   */\n      revert\n        /* \"#utility.yul\":4276:4331   */\n    tag_449:\n        /* \"#utility.yul\":4363:4369   */\n      dup2\n        /* \"#utility.yul\":4350:4370   */\n      calldataload\n        /* \"#utility.yul\":4389:4407   */\n      0xffffffffffffffff\n        /* \"#utility.yul\":4426:4428   */\n      dup1\n        /* \"#utility.yul\":4422:4424   */\n      dup3\n        /* \"#utility.yul\":4419:4429   */\n      gt\n        /* \"#utility.yul\":4416:4452   */\n      iszero\n      tag_451\n      jumpi\n        /* \"#utility.yul\":4432:4450   */\n      tag_451\n      tag_188\n      jump\t// in\n    tag_451:\n        /* \"#utility.yul\":4507:4509   */\n      0x40\n        /* \"#utility.yul\":4501:4510   */\n      mload\n        /* \"#utility.yul\":4475:4477   */\n      0x1f\n        /* \"#utility.yul\":4561:4574   */\n      dup4\n      add\n      not(0x1f)\n        /* \"#utility.yul\":4557:4579   */\n      swap1\n      dup2\n      and\n        /* \"#utility.yul\":4581:4583   */\n      0x3f\n        /* \"#utility.yul\":4553:4584   */\n      add\n        /* \"#utility.yul\":4549:4589   */\n      and\n        /* \"#utility.yul\":4537:4590   */\n      dup2\n      add\n      swap1\n        /* \"#utility.yul\":4605:4623   */\n      dup3\n      dup3\n      gt\n        /* \"#utility.yul\":4625:4647   */\n      dup2\n      dup4\n      lt\n        /* \"#utility.yul\":4602:4648   */\n      or\n        /* \"#utility.yul\":4599:4671   */\n      iszero\n      tag_453\n      jumpi\n        /* \"#utility.yul\":4651:4669   */\n      tag_453\n      tag_188\n      jump\t// in\n    tag_453:\n        /* \"#utility.yul\":4691:4701   */\n      dup2\n        /* \"#utility.yul\":4687:4689   */\n      0x40\n        /* \"#utility.yul\":4680:4702   */\n      mstore\n        /* \"#utility.yul\":4726:4728   */\n      dup4\n        /* \"#utility.yul\":4718:4724   */\n      dup2\n        /* \"#utility.yul\":4711:4729   */\n      mstore\n        /* \"#utility.yul\":4772:4775   */\n      dup7\n        /* \"#utility.yul\":4765:4769   */\n      0x20\n        /* \"#utility.yul\":4760:4762   */\n      dup6\n        /* \"#utility.yul\":4752:4758   */\n      dup9\n        /* \"#utility.yul\":4748:4763   */\n      add\n        /* \"#utility.yul\":4744:4770   */\n      add\n        /* \"#utility.yul\":4741:4776   */\n      gt\n        /* \"#utility.yul\":4738:4793   */\n      iszero\n      tag_454\n      jumpi\n        /* \"#utility.yul\":4789:4790   */\n      0x00\n        /* \"#utility.yul\":4786:4787   */\n      dup1\n        /* \"#utility.yul\":4779:4791   */\n      revert\n        /* \"#utility.yul\":4738:4793   */\n    tag_454:\n        /* \"#utility.yul\":4853:4855   */\n      dup4\n        /* \"#utility.yul\":4846:4850   */\n      0x20\n        /* \"#utility.yul\":4838:4844   */\n      dup8\n        /* \"#utility.yul\":4834:4851   */\n      add\n        /* \"#utility.yul\":4827:4831   */\n      0x20\n        /* \"#utility.yul\":4819:4825   */\n      dup4\n        /* \"#utility.yul\":4815:4832   */\n      add\n        /* \"#utility.yul\":4802:4856   */\n      calldatacopy\n        /* \"#utility.yul\":4900:4901   */\n      0x00\n        /* \"#utility.yul\":4893:4897   */\n      0x20\n        /* \"#utility.yul\":4888:4890   */\n      dup6\n        /* \"#utility.yul\":4880:4886   */\n      dup4\n        /* \"#utility.yul\":4876:4891   */\n      add\n        /* \"#utility.yul\":4872:4898   */\n      add\n        /* \"#utility.yul\":4865:4902   */\n      mstore\n        /* \"#utility.yul\":4920:4926   */\n      dup1\n        /* \"#utility.yul\":4911:4926   */\n      swap5\n      pop\n      pop\n      pop\n      pop\n      pop\n        /* \"#utility.yul\":4213:4932   */\n      swap3\n      swap2\n      pop\n      pop\n      jump\t// out\n        /* \"#utility.yul\":4937:5539   */\n    tag_78:\n        /* \"#utility.yul\":5042:5048   */\n      0x00\n        /* \"#utility.yul\":5050:5056   */\n      dup1\n        /* \"#utility.yul\":5058:5064   */\n      0x00\n        /* \"#utility.yul\":5066:5072   */\n      dup1\n        /* \"#utility.yul\":5074:5080   */\n      0x00\n        /* \"#utility.yul\":5127:5130   */\n      0xa0\n        /* \"#utility.yul\":5115:5124   */\n      dup7\n        /* \"#utility.yul\":5106:5113   */\n      dup9\n        /* \"#utility.yul\":5102:5125   */\n      sub\n        /* \"#utility.yul\":5098:5131   */\n      slt\n        /* \"#utility.yul\":5095:5148   */\n      iszero\n      tag_456\n      jumpi\n        /* \"#utility.yul\":5144:5145   */\n      0x00\n        /* \"#utility.yul\":5141:5142   */\n      dup1\n        /* \"#utility.yul\":5134:5146   */\n      revert\n        /* \"#utility.yul\":5095:5148   */\n    tag_456:\n        /* \"#utility.yul\":5167:5196   */\n      tag_457\n        /* \"#utility.yul\":5186:5195   */\n      dup7\n        /* \"#utility.yul\":5167:5196   */\n      tag_412\n      jump\t// in\n    tag_457:\n        /* \"#utility.yul\":5157:5196   */\n      swap5\n      pop\n        /* \"#utility.yul\":5243:5245   */\n      0x20\n        /* \"#utility.yul\":5232:5241   */\n      dup7\n        /* \"#utility.yul\":5228:5246   */\n      add\n        /* \"#utility.yul\":5215:5247   */\n      calldataload\n        /* \"#utility.yul\":5205:5247   */\n      swap4\n      pop\n        /* \"#utility.yul\":5294:5296   */\n      0x40\n        /* \"#utility.yul\":5283:5292   */\n      dup7\n        /* \"#utility.yul\":5279:5297   */\n      add\n        /* \"#utility.yul\":5266:5298   */\n      calldataload\n        /* \"#utility.yul\":5256:5298   */\n      swap3\n      pop\n        /* \"#utility.yul\":5345:5347   */\n      0x60\n        /* \"#utility.yul\":5334:5343   */\n      dup7\n        /* \"#utility.yul\":5330:5348   */\n      add\n        /* \"#utility.yul\":5317:5349   */\n      calldataload\n        /* \"#utility.yul\":5307:5349   */\n      swap2\n      pop\n        /* \"#utility.yul\":5400:5403   */\n      0x80\n        /* \"#utility.yul\":5389:5398   */\n      dup7\n        /* \"#utility.yul\":5385:5404   */\n      add\n        /* \"#utility.yul\":5372:5405   */\n      calldataload\n        /* \"#utility.yul\":5428:5446   */\n      0xffffffffffffffff\n        /* \"#utility.yul\":5420:5426   */\n      dup2\n        /* \"#utility.yul\":5417:5447   */\n      gt\n        /* \"#utility.yul\":5414:5464   */\n      iszero\n      tag_458\n      jumpi\n        /* \"#utility.yul\":5460:5461   */\n      0x00\n        /* \"#utility.yul\":5457:5458   */\n      dup1\n        /* \"#utility.yul\":5450:5462   */\n      revert\n        /* \"#utility.yul\":5414:5464   */\n    tag_458:\n        /* \"#utility.yul\":5483:5533   */\n      tag_459\n        /* \"#utility.yul\":5525:5532   */\n      dup9\n        /* \"#utility.yul\":5516:5522   */\n      dup3\n        /* \"#utility.yul\":5505:5514   */\n      dup10\n        /* \"#utility.yul\":5501:5523   */\n      add\n        /* \"#utility.yul\":5483:5533   */\n      tag_415\n      jump\t// in\n    tag_459:\n        /* \"#utility.yul\":5473:5533   */\n      swap2\n      pop\n      pop\n        /* \"#utility.yul\":4937:5539   */\n      swap3\n      swap6\n      pop\n      swap3\n      swap6\n      swap1\n      swap4\n      pop\n      jump\t// out\n        /* \"#utility.yul\":5544:5724   */\n    tag_82:\n        /* \"#utility.yul\":5603:5609   */\n      0x00\n        /* \"#utility.yul\":5656:5658   */\n      0x20\n        /* \"#utility.yul\":5644:5653   */\n      dup3\n        /* \"#utility.yul\":5635:5642   */\n      dup5\n        /* \"#utility.yul\":5631:5654   */\n      sub\n        /* \"#utility.yul\":5627:5659   */\n      slt\n        /* \"#utility.yul\":5624:5676   */\n      iszero\n      tag_461\n      jumpi\n        /* \"#utility.yul\":5672:5673   */\n      0x00\n        /* \"#utility.yul\":5669:5670   */\n      dup1\n        /* \"#utility.yul\":5662:5674   */\n      revert\n        /* \"#utility.yul\":5624:5676   */\n    tag_461:\n      pop\n        /* \"#utility.yul\":5695:5718   */\n      calldataload\n      swap2\n        /* \"#utility.yul\":5544:5724   */\n      swap1\n      pop\n      jump\t// out\n        /* \"#utility.yul\":5729:6361   */\n    tag_92:\n        /* \"#utility.yul\":5900:5902   */\n      0x20\n        /* \"#utility.yul\":5952:5973   */\n      dup1\n      dup3\n      mstore\n        /* \"#utility.yul\":6022:6035   */\n      dup3\n      mload\n        /* \"#utility.yul\":5925:5943   */\n      dup3\n      dup3\n      add\n        /* \"#utility.yul\":6044:6066   */\n      dup2\n      swap1\n      mstore\n        /* \"#utility.yul\":5871:5875   */\n      0x00\n      swap2\n        /* \"#utility.yul\":5900:5902   */\n      swap1\n        /* \"#utility.yul\":6123:6138   */\n      dup5\n      dup3\n      add\n      swap1\n        /* \"#utility.yul\":6097:6099   */\n      0x40\n        /* \"#utility.yul\":6082:6100   */\n      dup6\n      add\n      swap1\n        /* \"#utility.yul\":5871:5875   */\n      dup5\n        /* \"#utility.yul\":6166:6335   */\n    tag_463:\n        /* \"#utility.yul\":6180:6186   */\n      dup2\n        /* \"#utility.yul\":6177:6178   */\n      dup2\n        /* \"#utility.yul\":6174:6187   */\n      lt\n        /* \"#utility.yul\":6166:6335   */\n      iszero\n      tag_465\n      jumpi\n        /* \"#utility.yul\":6241:6254   */\n      dup4\n      mload\n        /* \"#utility.yul\":6229:6255   */\n      dup4\n      mstore\n        /* \"#utility.yul\":6310:6325   */\n      swap3\n      dup5\n      add\n      swap3\n        /* \"#utility.yul\":6275:6287   */\n      swap2\n      dup5\n      add\n      swap2\n        /* \"#utility.yul\":6202:6203   */\n      0x01\n        /* \"#utility.yul\":6195:6204   */\n      add\n        /* \"#utility.yul\":6166:6335   */\n      jump(tag_463)\n    tag_465:\n      pop\n        /* \"#utility.yul\":6352:6355   */\n      swap1\n      swap7\n        /* \"#utility.yul\":5729:6361   */\n      swap6\n      pop\n      pop\n      pop\n      pop\n      pop\n      pop\n      jump\t// out\n        /* \"#utility.yul\":6366:6756   */\n    tag_103:\n        /* \"#utility.yul\":6444:6450   */\n      0x00\n        /* \"#utility.yul\":6452:6458   */\n      dup1\n        /* \"#utility.yul\":6505:6507   */\n      0x40\n        /* \"#utility.yul\":6493:6502   */\n      dup4\n        /* \"#utility.yul\":6484:6491   */\n      dup6\n        /* \"#utility.yul\":6480:6503   */\n      sub\n        /* \"#utility.yul\":6476:6508   */\n      slt\n        /* \"#utility.yul\":6473:6525   */\n      iszero\n      tag_467\n      jumpi\n        /* \"#utility.yul\":6521:6522   */\n      0x00\n        /* \"#utility.yul\":6518:6519   */\n      dup1\n        /* \"#utility.yul\":6511:6523   */\n      revert\n        /* \"#utility.yul\":6473:6525   */\n    tag_467:\n        /* \"#utility.yul\":6557:6566   */\n      dup3\n        /* \"#utility.yul\":6544:6567   */\n      calldataload\n        /* \"#utility.yul\":6534:6567   */\n      swap2\n      pop\n        /* \"#utility.yul\":6618:6620   */\n      0x20\n        /* \"#utility.yul\":6607:6616   */\n      dup4\n        /* \"#utility.yul\":6603:6621   */\n      add\n        /* \"#utility.yul\":6590:6622   */\n      calldataload\n        /* \"#utility.yul\":6645:6663   */\n      0xffffffffffffffff\n        /* \"#utility.yul\":6637:6643   */\n      dup2\n        /* \"#utility.yul\":6634:6664   */\n      gt\n        /* \"#utility.yul\":6631:6681   */\n      iszero\n      tag_468\n      jumpi\n        /* \"#utility.yul\":6677:6678   */\n      0x00\n        /* \"#utility.yul\":6674:6675   */\n      dup1\n        /* \"#utility.yul\":6667:6679   */\n      revert\n        /* \"#utility.yul\":6631:6681   */\n    tag_468:\n        /* \"#utility.yul\":6700:6750   */\n      tag_469\n        /* \"#utility.yul\":6742:6749   */\n      dup6\n        /* \"#utility.yul\":6733:6739   */\n      dup3\n        /* \"#utility.yul\":6722:6731   */\n      dup7\n        /* \"#utility.yul\":6718:6740   */\n      add\n        /* \"#utility.yul\":6700:6750   */\n      tag_415\n      jump\t// in\n    tag_469:\n        /* \"#utility.yul\":6690:6750   */\n      swap2\n      pop\n      pop\n        /* \"#utility.yul\":6366:6756   */\n      swap3\n      pop\n      swap3\n      swap1\n      pop\n      jump\t// out\n        /* \"#utility.yul\":6992:7546   */\n    tag_113:\n        /* \"#utility.yul\":7177:7179   */\n      0x20\n        /* \"#utility.yul\":7166:7175   */\n      dup2\n        /* \"#utility.yul\":7159:7180   */\n      mstore\n        /* \"#utility.yul\":7222:7228   */\n      dup2\n        /* \"#utility.yul\":7216:7229   */\n      mload\n        /* \"#utility.yul\":7211:7213   */\n      0x20\n        /* \"#utility.yul\":7200:7209   */\n      dup3\n        /* \"#utility.yul\":7196:7214   */\n      add\n        /* \"#utility.yul\":7189:7230   */\n      mstore\n        /* \"#utility.yul\":7140:7144   */\n      0x00\n        /* \"#utility.yul\":7277:7279   */\n      0x20\n        /* \"#utility.yul\":7269:7275   */\n      dup4\n        /* \"#utility.yul\":7265:7280   */\n      add\n        /* \"#utility.yul\":7259:7281   */\n      mload\n        /* \"#utility.yul\":7317:7321   */\n      0x80\n        /* \"#utility.yul\":7312:7314   */\n      0x40\n        /* \"#utility.yul\":7301:7310   */\n      dup5\n        /* \"#utility.yul\":7297:7315   */\n      add\n        /* \"#utility.yul\":7290:7322   */\n      mstore\n        /* \"#utility.yul\":7345:7397   */\n      tag_472\n        /* \"#utility.yul\":7392:7395   */\n      0xa0\n        /* \"#utility.yul\":7381:7390   */\n      dup5\n        /* \"#utility.yul\":7377:7396   */\n      add\n        /* \"#utility.yul\":7363:7375   */\n      dup3\n        /* \"#utility.yul\":7345:7397   */\n      tag_414\n      jump\t// in\n    tag_472:\n        /* \"#utility.yul\":7331:7397   */\n      swap1\n      pop\n        /* \"#utility.yul\":7451:7453   */\n      0x40\n        /* \"#utility.yul\":7443:7449   */\n      dup5\n        /* \"#utility.yul\":7439:7454   */\n      add\n        /* \"#utility.yul\":7433:7455   */\n      mload\n        /* \"#utility.yul\":7428:7430   */\n      0x60\n        /* \"#utility.yul\":7417:7426   */\n      dup5\n        /* \"#utility.yul\":7413:7431   */\n      add\n        /* \"#utility.yul\":7406:7456   */\n      mstore\n        /* \"#utility.yul\":7512:7514   */\n      0x60\n        /* \"#utility.yul\":7504:7510   */\n      dup5\n        /* \"#utility.yul\":7500:7515   */\n      add\n        /* \"#utility.yul\":7494:7516   */\n      mload\n        /* \"#utility.yul\":7487:7491   */\n      0x80\n        /* \"#utility.yul\":7476:7485   */\n      dup5\n        /* \"#utility.yul\":7472:7492   */\n      add\n        /* \"#utility.yul\":7465:7517   */\n      mstore\n        /* \"#utility.yul\":7534:7540   */\n      dup1\n        /* \"#utility.yul\":7526:7540   */\n      swap2\n      pop\n      pop\n        /* \"#utility.yul\":6992:7546   */\n      swap3\n      swap2\n      pop\n      pop\n      jump\t// out\n        /* \"#utility.yul\":7551:8822   */\n    tag_118:\n        /* \"#utility.yul\":7784:7786   */\n      0x20\n        /* \"#utility.yul\":7836:7857   */\n      dup1\n      dup3\n      mstore\n        /* \"#utility.yul\":7906:7919   */\n      dup3\n      mload\n        /* \"#utility.yul\":7809:7827   */\n      dup3\n      dup3\n      add\n        /* \"#utility.yul\":7928:7950   */\n      dup2\n      swap1\n      mstore\n        /* \"#utility.yul\":7755:7759   */\n      0x00\n      swap2\n        /* \"#utility.yul\":7784:7786   */\n      swap1\n        /* \"#utility.yul\":7969:7971   */\n      0x40\n      swap1\n        /* \"#utility.yul\":7987:8005   */\n      dup2\n      dup6\n      add\n      swap1\n        /* \"#utility.yul\":8047:8062   */\n      dup1\n      dup5\n      mul\n        /* \"#utility.yul\":8032:8063   */\n      dup7\n      add\n        /* \"#utility.yul\":8028:8068   */\n      dup4\n      add\n        /* \"#utility.yul\":8091:8106   */\n      dup8\n      dup6\n      add\n        /* \"#utility.yul\":7755:7759   */\n      dup7\n        /* \"#utility.yul\":8134:8793   */\n    tag_474:\n        /* \"#utility.yul\":8148:8154   */\n      dup4\n        /* \"#utility.yul\":8145:8146   */\n      dup2\n        /* \"#utility.yul\":8142:8155   */\n      lt\n        /* \"#utility.yul\":8134:8793   */\n      iszero\n      tag_439\n      jumpi\n        /* \"#utility.yul\":8241:8243   */\n      0x3f\n        /* \"#utility.yul\":8237:8244   */\n      not\n        /* \"#utility.yul\":8225:8234   */\n      dup10\n        /* \"#utility.yul\":8217:8223   */\n      dup5\n        /* \"#utility.yul\":8213:8235   */\n      sub\n        /* \"#utility.yul\":8209:8245   */\n      add\n        /* \"#utility.yul\":8204:8207   */\n      dup6\n        /* \"#utility.yul\":8197:8246   */\n      mstore\n        /* \"#utility.yul\":8275:8281   */\n      dup2\n        /* \"#utility.yul\":8269:8282   */\n      mload\n        /* \"#utility.yul\":8305:8309   */\n      0x80\n        /* \"#utility.yul\":8343:8345   */\n      dup2\n        /* \"#utility.yul\":8337:8346   */\n      mload\n        /* \"#utility.yul\":8329:8335   */\n      dup6\n        /* \"#utility.yul\":8322:8347   */\n      mstore\n        /* \"#utility.yul\":8394:8396   */\n      dup9\n        /* \"#utility.yul\":8390:8392   */\n      dup3\n        /* \"#utility.yul\":8386:8397   */\n      add\n        /* \"#utility.yul\":8380:8398   */\n      mload\n        /* \"#utility.yul\":8435:8437   */\n      dup2\n        /* \"#utility.yul\":8430:8432   */\n      dup11\n        /* \"#utility.yul\":8422:8428   */\n      dup8\n        /* \"#utility.yul\":8418:8433   */\n      add\n        /* \"#utility.yul\":8411:8438   */\n      mstore\n        /* \"#utility.yul\":8465:8513   */\n      tag_477\n        /* \"#utility.yul\":8509:8511   */\n      dup3\n        /* \"#utility.yul\":8501:8507   */\n      dup8\n        /* \"#utility.yul\":8497:8512   */\n      add\n        /* \"#utility.yul\":8483:8495   */\n      dup3\n        /* \"#utility.yul\":8465:8513   */\n      tag_414\n      jump\t// in\n    tag_477:\n        /* \"#utility.yul\":8570:8581   */\n      dup4\n      dup11\n      add\n        /* \"#utility.yul\":8564:8582   */\n      mload\n        /* \"#utility.yul\":8557:8583   */\n      iszero\n        /* \"#utility.yul\":8550:8584   */\n      iszero\n        /* \"#utility.yul\":8533:8548   */\n      dup8\n      dup12\n      add\n        /* \"#utility.yul\":8526:8585   */\n      mstore\n        /* \"#utility.yul\":8608:8612   */\n      0x60\n        /* \"#utility.yul\":8669:8680   */\n      swap4\n      dup5\n      add\n        /* \"#utility.yul\":8663:8681   */\n      mload\n        /* \"#utility.yul\":8656:8682   */\n      iszero\n        /* \"#utility.yul\":8649:8683   */\n      iszero\n        /* \"#utility.yul\":8632:8647   */\n      swap4\n      swap1\n      swap7\n      add\n        /* \"#utility.yul\":8625:8684   */\n      swap3\n      swap1\n      swap3\n      mstore\n      pop\n      pop\n        /* \"#utility.yul\":8771:8783   */\n      swap4\n      dup7\n      add\n      swap4\n        /* \"#utility.yul\":8736:8751   */\n      swap1\n      dup7\n      add\n      swap1\n        /* \"#utility.yul\":8170:8171   */\n      0x01\n        /* \"#utility.yul\":8163:8172   */\n      add\n        /* \"#utility.yul\":8134:8793   */\n      jump(tag_474)\n        /* \"#utility.yul\":8827:9262   */\n    tag_123:\n        /* \"#utility.yul\":9060:9066   */\n      dup5\n        /* \"#utility.yul\":9049:9058   */\n      dup2\n        /* \"#utility.yul\":9042:9067   */\n      mstore\n        /* \"#utility.yul\":9103:9106   */\n      0x80\n        /* \"#utility.yul\":9098:9100   */\n      0x20\n        /* \"#utility.yul\":9087:9096   */\n      dup3\n        /* \"#utility.yul\":9083:9101   */\n      add\n        /* \"#utility.yul\":9076:9107   */\n      mstore\n        /* \"#utility.yul\":9023:9027   */\n      0x00\n        /* \"#utility.yul\":9124:9170   */\n      tag_479\n        /* \"#utility.yul\":9165:9168   */\n      0x80\n        /* \"#utility.yul\":9154:9163   */\n      dup4\n        /* \"#utility.yul\":9150:9169   */\n      add\n        /* \"#utility.yul\":9142:9148   */\n      dup7\n        /* \"#utility.yul\":9124:9170   */\n      tag_414\n      jump\t// in\n    tag_479:\n        /* \"#utility.yul\":9201:9203   */\n      0x40\n        /* \"#utility.yul\":9186:9204   */\n      dup4\n      add\n        /* \"#utility.yul\":9179:9213   */\n      swap5\n      swap1\n      swap5\n      mstore\n      pop\n        /* \"#utility.yul\":9244:9246   */\n      0x60\n        /* \"#utility.yul\":9229:9247   */\n      add\n        /* \"#utility.yul\":9222:9256   */\n      mstore\n        /* \"#utility.yul\":9116:9170   */\n      swap3\n        /* \"#utility.yul\":8827:9262   */\n      swap2\n      pop\n      pop\n      jump\t// out\n        /* \"#utility.yul\":9267:9725   */\n    tag_129:\n        /* \"#utility.yul\":9354:9360   */\n      0x00\n        /* \"#utility.yul\":9362:9368   */\n      dup1\n        /* \"#utility.yul\":9370:9376   */\n      0x00\n        /* \"#utility.yul\":9423:9425   */\n      0x60\n        /* \"#utility.yul\":9411:9420   */\n      dup5\n        /* \"#utility.yul\":9402:9409   */\n      dup7\n        /* \"#utility.yul\":9398:9421   */\n      sub\n        /* \"#utility.yul\":9394:9426   */\n      slt\n        /* \"#utility.yul\":9391:9443   */\n      iszero\n      tag_481\n      jumpi\n        /* \"#utility.yul\":9439:9440   */\n      0x00\n        /* \"#utility.yul\":9436:9437   */\n      dup1\n        /* \"#utility.yul\":9429:9441   */\n      revert\n        /* \"#utility.yul\":9391:9443   */\n    tag_481:\n        /* \"#utility.yul\":9475:9484   */\n      dup4\n        /* \"#utility.yul\":9462:9485   */\n      calldataload\n        /* \"#utility.yul\":9452:9485   */\n      swap3\n      pop\n        /* \"#utility.yul\":9532:9534   */\n      0x20\n        /* \"#utility.yul\":9521:9530   */\n      dup5\n        /* \"#utility.yul\":9517:9535   */\n      add\n        /* \"#utility.yul\":9504:9536   */\n      calldataload\n        /* \"#utility.yul\":9494:9536   */\n      swap2\n      pop\n        /* \"#utility.yul\":9587:9589   */\n      0x40\n        /* \"#utility.yul\":9576:9585   */\n      dup5\n        /* \"#utility.yul\":9572:9590   */\n      add\n        /* \"#utility.yul\":9559:9591   */\n      calldataload\n        /* \"#utility.yul\":9614:9632   */\n      0xffffffffffffffff\n        /* \"#utility.yul\":9606:9612   */\n      dup2\n        /* \"#utility.yul\":9603:9633   */\n      gt\n        /* \"#utility.yul\":9600:9650   */\n      iszero\n      tag_482\n      jumpi\n        /* \"#utility.yul\":9646:9647   */\n      0x00\n        /* \"#utility.yul\":9643:9644   */\n      dup1\n        /* \"#utility.yul\":9636:9648   */\n      revert\n        /* \"#utility.yul\":9600:9650   */\n    tag_482:\n        /* \"#utility.yul\":9669:9719   */\n      tag_483\n        /* \"#utility.yul\":9711:9718   */\n      dup7\n        /* \"#utility.yul\":9702:9708   */\n      dup3\n        /* \"#utility.yul\":9691:9700   */\n      dup8\n        /* \"#utility.yul\":9687:9709   */\n      add\n        /* \"#utility.yul\":9669:9719   */\n      tag_415\n      jump\t// in\n    tag_483:\n        /* \"#utility.yul\":9659:9719   */\n      swap2\n      pop\n      pop\n        /* \"#utility.yul\":9267:9725   */\n      swap3\n      pop\n      swap3\n      pop\n      swap3\n      jump\t// out\n        /* \"#utility.yul\":9730:9990   */\n    tag_133:\n        /* \"#utility.yul\":9798:9804   */\n      0x00\n        /* \"#utility.yul\":9806:9812   */\n      dup1\n        /* \"#utility.yul\":9859:9861   */\n      0x40\n        /* \"#utility.yul\":9847:9856   */\n      dup4\n        /* \"#utility.yul\":9838:9845   */\n      dup6\n        /* \"#utility.yul\":9834:9857   */\n      sub\n        /* \"#utility.yul\":9830:9862   */\n      slt\n        /* \"#utility.yul\":9827:9879   */\n      iszero\n      tag_485\n      jumpi\n        /* \"#utility.yul\":9875:9876   */\n      0x00\n        /* \"#utility.yul\":9872:9873   */\n      dup1\n        /* \"#utility.yul\":9865:9877   */\n      revert\n        /* \"#utility.yul\":9827:9879   */\n    tag_485:\n        /* \"#utility.yul\":9898:9927   */\n      tag_486\n        /* \"#utility.yul\":9917:9926   */\n      dup4\n        /* \"#utility.yul\":9898:9927   */\n      tag_412\n      jump\t// in\n    tag_486:\n        /* \"#utility.yul\":9888:9927   */\n      swap2\n      pop\n        /* \"#utility.yul\":9946:9984   */\n      tag_487\n        /* \"#utility.yul\":9980:9982   */\n      0x20\n        /* \"#utility.yul\":9969:9978   */\n      dup5\n        /* \"#utility.yul\":9965:9983   */\n      add\n        /* \"#utility.yul\":9946:9984   */\n      tag_412\n      jump\t// in\n    tag_487:\n        /* \"#utility.yul\":9936:9984   */\n      swap1\n      pop\n        /* \"#utility.yul\":9730:9990   */\n      swap3\n      pop\n      swap3\n      swap1\n      pop\n      jump\t// out\n        /* \"#utility.yul\":9995:10386   */\n    tag_142:\n        /* \"#utility.yul\":10081:10087   */\n      0x00\n        /* \"#utility.yul\":10089:10095   */\n      dup1\n        /* \"#utility.yul\":10097:10103   */\n      0x00\n        /* \"#utility.yul\":10105:10111   */\n      dup1\n        /* \"#utility.yul\":10158:10161   */\n      0x80\n        /* \"#utility.yul\":10146:10155   */\n      dup6\n        /* \"#utility.yul\":10137:10144   */\n      dup8\n        /* \"#utility.yul\":10133:10156   */\n      sub\n        /* \"#utility.yul\":10129:10162   */\n      slt\n        /* \"#utility.yul\":10126:10179   */\n      iszero\n      tag_489\n      jumpi\n        /* \"#utility.yul\":10175:10176   */\n      0x00\n        /* \"#utility.yul\":10172:10173   */\n      dup1\n        /* \"#utility.yul\":10165:10177   */\n      revert\n        /* \"#utility.yul\":10126:10179   */\n    tag_489:\n        /* \"#utility.yul\":10198:10227   */\n      tag_490\n        /* \"#utility.yul\":10217:10226   */\n      dup6\n        /* \"#utility.yul\":10198:10227   */\n      tag_412\n      jump\t// in\n    tag_490:\n        /* \"#utility.yul\":10188:10227   */\n      swap7\n        /* \"#utility.yul\":10274:10276   */\n      0x20\n        /* \"#utility.yul\":10259:10277   */\n      dup7\n      add\n        /* \"#utility.yul\":10246:10278   */\n      calldataload\n      swap7\n      pop\n        /* \"#utility.yul\":10325:10327   */\n      0x40\n        /* \"#utility.yul\":10310:10328   */\n      dup7\n      add\n        /* \"#utility.yul\":10297:10329   */\n      calldataload\n      swap6\n        /* \"#utility.yul\":10376:10378   */\n      0x60\n        /* \"#utility.yul\":10361:10379   */\n      add\n        /* \"#utility.yul\":10348:10380   */\n      calldataload\n      swap5\n      pop\n        /* \"#utility.yul\":9995:10386   */\n      swap3\n      pop\n      pop\n      pop\n      jump\t// out\n        /* \"#utility.yul\":10391:11400   */\n    tag_152:\n        /* \"#utility.yul\":10757:10761   */\n      0x00\n        /* \"#utility.yul\":10786:10789   */\n      0x0140\n        /* \"#utility.yul\":10816:10822   */\n      dup13\n        /* \"#utility.yul\":10805:10814   */\n      dup4\n        /* \"#utility.yul\":10798:10823   */\n      mstore\n        /* \"#utility.yul\":10859:10865   */\n      dup12\n        /* \"#utility.yul\":10854:10856   */\n      0x20\n        /* \"#utility.yul\":10843:10852   */\n      dup5\n        /* \"#utility.yul\":10839:10857   */\n      add\n        /* \"#utility.yul\":10832:10866   */\n      mstore\n        /* \"#utility.yul\":10902:10908   */\n      dup11\n        /* \"#utility.yul\":10897:10899   */\n      0x40\n        /* \"#utility.yul\":10886:10895   */\n      dup5\n        /* \"#utility.yul\":10882:10900   */\n      add\n        /* \"#utility.yul\":10875:10909   */\n      mstore\n        /* \"#utility.yul\":10945:10951   */\n      dup10\n        /* \"#utility.yul\":10940:10942   */\n      0x60\n        /* \"#utility.yul\":10929:10938   */\n      dup5\n        /* \"#utility.yul\":10925:10943   */\n      add\n        /* \"#utility.yul\":10918:10952   */\n      mstore\n        /* \"#utility.yul\":11003:11009   */\n      dup9\n        /* \"#utility.yul\":10996:11010   */\n      iszero\n        /* \"#utility.yul\":10989:11011   */\n      iszero\n        /* \"#utility.yul\":10983:10986   */\n      0x80\n        /* \"#utility.yul\":10972:10981   */\n      dup5\n        /* \"#utility.yul\":10968:10987   */\n      add\n        /* \"#utility.yul\":10961:11012   */\n      mstore\n        /* \"#utility.yul\":11049:11055   */\n      dup8\n        /* \"#utility.yul\":11043:11046   */\n      0xa0\n        /* \"#utility.yul\":11032:11041   */\n      dup5\n        /* \"#utility.yul\":11028:11047   */\n      add\n        /* \"#utility.yul\":11021:11056   */\n      mstore\n        /* \"#utility.yul\":11107:11113   */\n      dup7\n        /* \"#utility.yul\":11100:11114   */\n      iszero\n        /* \"#utility.yul\":11093:11115   */\n      iszero\n        /* \"#utility.yul\":11087:11090   */\n      0xc0\n        /* \"#utility.yul\":11076:11085   */\n      dup5\n        /* \"#utility.yul\":11072:11091   */\n      add\n        /* \"#utility.yul\":11065:11116   */\n      mstore\n        /* \"#utility.yul\":11153:11155   */\n      dup1\n        /* \"#utility.yul\":11147:11150   */\n      0xe0\n        /* \"#utility.yul\":11136:11145   */\n      dup5\n        /* \"#utility.yul\":11132:11151   */\n      add\n        /* \"#utility.yul\":11125:11156   */\n      mstore\n        /* \"#utility.yul\":11179:11224   */\n      tag_492\n        /* \"#utility.yul\":11220:11222   */\n      dup2\n        /* \"#utility.yul\":11209:11218   */\n      dup5\n        /* \"#utility.yul\":11205:11223   */\n      add\n        /* \"#utility.yul\":11197:11203   */\n      dup8\n        /* \"#utility.yul\":11179:11224   */\n      tag_414\n      jump\t// in\n    tag_492:\n        /* \"#utility.yul\":11165:11224   */\n      swap1\n      pop\n        /* \"#utility.yul\":11275:11281   */\n      dup5\n        /* \"#utility.yul\":11268:11282   */\n      iszero\n        /* \"#utility.yul\":11261:11283   */\n      iszero\n        /* \"#utility.yul\":11255:11258   */\n      0x0100\n        /* \"#utility.yul\":11244:11253   */\n      dup5\n        /* \"#utility.yul\":11240:11259   */\n      add\n        /* \"#utility.yul\":11233:11284   */\n      mstore\n        /* \"#utility.yul\":11333:11342   */\n      dup3\n        /* \"#utility.yul\":11325:11331   */\n      dup2\n        /* \"#utility.yul\":11321:11343   */\n      sub\n        /* \"#utility.yul\":11315:11318   */\n      0x0120\n        /* \"#utility.yul\":11304:11313   */\n      dup5\n        /* \"#utility.yul\":11300:11319   */\n      add\n        /* \"#utility.yul\":11293:11344   */\n      mstore\n        /* \"#utility.yul\":11361:11394   */\n      tag_493\n        /* \"#utility.yul\":11387:11393   */\n      dup2\n        /* \"#utility.yul\":11379:11385   */\n      dup6\n        /* \"#utility.yul\":11361:11394   */\n      tag_414\n      jump\t// in\n    tag_493:\n        /* \"#utility.yul\":11353:11394   */\n      swap14\n        /* \"#utility.yul\":10391:11400   */\n      swap13\n      pop\n      pop\n      pop\n      pop\n      pop\n      pop\n      pop\n      pop\n      pop\n      pop\n      pop\n      pop\n      pop\n      jump\t// out\n        /* \"#utility.yul\":11405:11734   */\n    tag_162:\n        /* \"#utility.yul\":11607:11609   */\n      0x20\n        /* \"#utility.yul\":11589:11610   */\n      dup1\n      dup3\n      mstore\n        /* \"#utility.yul\":11646:11647   */\n      0x06\n        /* \"#utility.yul\":11626:11644   */\n      swap1\n      dup3\n      add\n        /* \"#utility.yul\":11619:11648   */\n      mstore\n        /* \"#utility.yul\":11684:11692   */\n      0x216f776e65720000000000000000000000000000000000000000000000000000\n        /* \"#utility.yul\":11679:11681   */\n      0x40\n        /* \"#utility.yul\":11664:11682   */\n      dup3\n      add\n        /* \"#utility.yul\":11657:11693   */\n      mstore\n        /* \"#utility.yul\":11725:11727   */\n      0x60\n        /* \"#utility.yul\":11710:11728   */\n      add\n      swap1\n        /* \"#utility.yul\":11405:11734   */\n      jump\t// out\n        /* \"#utility.yul\":11739:12075   */\n    tag_167:\n        /* \"#utility.yul\":11941:11943   */\n      0x20\n        /* \"#utility.yul\":11923:11944   */\n      dup1\n      dup3\n      mstore\n        /* \"#utility.yul\":11980:11982   */\n      0x0c\n        /* \"#utility.yul\":11960:11978   */\n      swap1\n      dup3\n      add\n        /* \"#utility.yul\":11953:11983   */\n      mstore\n        /* \"#utility.yul\":12019:12033   */\n      0x4e6f7420616e2061646d696e0000000000000000000000000000000000000000\n        /* \"#utility.yul\":12014:12016   */\n      0x40\n        /* \"#utility.yul\":11999:12017   */\n      dup3\n      add\n        /* \"#utility.yul\":11992:12034   */\n      mstore\n        /* \"#utility.yul\":12066:12068   */\n      0x60\n        /* \"#utility.yul\":12051:12069   */\n      add\n      swap1\n        /* \"#utility.yul\":11739:12075   */\n      jump\t// out\n        /* \"#utility.yul\":12080:12425   */\n    tag_171:\n        /* \"#utility.yul\":12282:12284   */\n      0x20\n        /* \"#utility.yul\":12264:12285   */\n      dup1\n      dup3\n      mstore\n        /* \"#utility.yul\":12321:12323   */\n      0x15\n        /* \"#utility.yul\":12301:12319   */\n      swap1\n      dup3\n      add\n        /* \"#utility.yul\":12294:12324   */\n      mstore\n        /* \"#utility.yul\":12360:12383   */\n      0x43726564697420646f6573206e6f742065786973740000000000000000000000\n        /* \"#utility.yul\":12355:12357   */\n      0x40\n        /* \"#utility.yul\":12340:12358   */\n      dup3\n      add\n        /* \"#utility.yul\":12333:12384   */\n      mstore\n        /* \"#utility.yul\":12416:12418   */\n      0x60\n        /* \"#utility.yul\":12401:12419   */\n      add\n      swap1\n        /* \"#utility.yul\":12080:12425   */\n      jump\t// out\n        /* \"#utility.yul\":12776:13122   */\n    tag_177:\n        /* \"#utility.yul\":12978:12980   */\n      0x20\n        /* \"#utility.yul\":12960:12981   */\n      dup1\n      dup3\n      mstore\n        /* \"#utility.yul\":13017:13019   */\n      0x16\n        /* \"#utility.yul\":12997:13015   */\n      swap1\n      dup3\n      add\n        /* \"#utility.yul\":12990:13020   */\n      mstore\n        /* \"#utility.yul\":13056:13080   */\n      0x43726564697420616c7265616479207265766f6b656400000000000000000000\n        /* \"#utility.yul\":13051:13053   */\n      0x40\n        /* \"#utility.yul\":13036:13054   */\n      dup3\n      add\n        /* \"#utility.yul\":13029:13081   */\n      mstore\n        /* \"#utility.yul\":13113:13115   */\n      0x60\n        /* \"#utility.yul\":13098:13116   */\n      add\n      swap1\n        /* \"#utility.yul\":12776:13122   */\n      jump\t// out\n        /* \"#utility.yul\":13127:13466   */\n    tag_184:\n        /* \"#utility.yul\":13329:13331   */\n      0x20\n        /* \"#utility.yul\":13311:13332   */\n      dup1\n      dup3\n      mstore\n        /* \"#utility.yul\":13368:13370   */\n      0x0f\n        /* \"#utility.yul\":13348:13366   */\n      swap1\n      dup3\n      add\n        /* \"#utility.yul\":13341:13371   */\n      mstore\n        /* \"#utility.yul\":13407:13424   */\n      0x496e76616c696420616464726573730000000000000000000000000000000000\n        /* \"#utility.yul\":13402:13404   */\n      0x40\n        /* \"#utility.yul\":13387:13405   */\n      dup3\n      add\n        /* \"#utility.yul\":13380:13425   */\n      mstore\n        /* \"#utility.yul\":13457:13459   */\n      0x60\n        /* \"#utility.yul\":13442:13460   */\n      add\n      swap1\n        /* \"#utility.yul\":13127:13466   */\n      jump\t// out\n        /* \"#utility.yul\":13471:13655   */\n    tag_198:\n      mul(0x4e487b71, exp(0x02, 0xe0))\n        /* \"#utility.yul\":13520:13521   */\n      0x00\n        /* \"#utility.yul\":13513:13601   */\n      mstore\n        /* \"#utility.yul\":13620:13624   */\n      0x32\n        /* \"#utility.yul\":13617:13618   */\n      0x04\n        /* \"#utility.yul\":13610:13625   */\n      mstore\n        /* \"#utility.yul\":13644:13648   */\n      0x24\n        /* \"#utility.yul\":13641:13642   */\n      0x00\n        /* \"#utility.yul\":13634:13649   */\n      revert\n        /* \"#utility.yul\":13660:14097   */\n    tag_201:\n        /* \"#utility.yul\":13745:13746   */\n      0x02\n        /* \"#utility.yul\":13735:13747   */\n      dup2\n      div\n        /* \"#utility.yul\":13792:13793   */\n      0x01\n        /* \"#utility.yul\":13782:13794   */\n      dup3\n      and\n      dup1\n        /* \"#utility.yul\":13803:13864   */\n      tag_502\n      jumpi\n        /* \"#utility.yul\":13857:13861   */\n      0x7f\n        /* \"#utility.yul\":13849:13855   */\n      dup3\n        /* \"#utility.yul\":13845:13862   */\n      and\n        /* \"#utility.yul\":13835:13862   */\n      swap2\n      pop\n        /* \"#utility.yul\":13803:13864   */\n    tag_502:\n        /* \"#utility.yul\":13910:13912   */\n      0x20\n        /* \"#utility.yul\":13902:13908   */\n      dup3\n        /* \"#utility.yul\":13899:13913   */\n      lt\n        /* \"#utility.yul\":13879:13897   */\n      dup2\n        /* \"#utility.yul\":13876:13914   */\n      sub\n        /* \"#utility.yul\":13873:14091   */\n      tag_503\n      jumpi\n      mul(0x4e487b71, exp(0x02, 0xe0))\n        /* \"#utility.yul\":13944:13945   */\n      0x00\n        /* \"#utility.yul\":13937:14025   */\n      mstore\n        /* \"#utility.yul\":14048:14052   */\n      0x22\n        /* \"#utility.yul\":14045:14046   */\n      0x04\n        /* \"#utility.yul\":14038:14053   */\n      mstore\n        /* \"#utility.yul\":14076:14080   */\n      0x24\n        /* \"#utility.yul\":14073:14074   */\n      0x00\n        /* \"#utility.yul\":14066:14081   */\n      revert\n        /* \"#utility.yul\":13873:14091   */\n    tag_503:\n      pop\n        /* \"#utility.yul\":13660:14097   */\n      swap2\n      swap1\n      pop\n      jump\t// out\n        /* \"#utility.yul\":14102:14286   */\n    tag_416:\n      mul(0x4e487b71, exp(0x02, 0xe0))\n        /* \"#utility.yul\":14151:14152   */\n      0x00\n        /* \"#utility.yul\":14144:14232   */\n      mstore\n        /* \"#utility.yul\":14251:14255   */\n      0x11\n        /* \"#utility.yul\":14248:14249   */\n      0x04\n        /* \"#utility.yul\":14241:14256   */\n      mstore\n        /* \"#utility.yul\":14275:14279   */\n      0x24\n        /* \"#utility.yul\":14272:14273   */\n      0x00\n        /* \"#utility.yul\":14265:14280   */\n      revert\n        /* \"#utility.yul\":14291:14426   */\n    tag_214:\n        /* \"#utility.yul\":14330:14333   */\n      0x00\n        /* \"#utility.yul\":14351:14368   */\n      0x01\n      dup3\n      add\n        /* \"#utility.yul\":14348:14391   */\n      tag_507\n      jumpi\n        /* \"#utility.yul\":14371:14389   */\n      tag_507\n      tag_416\n      jump\t// in\n    tag_507:\n      pop\n        /* \"#utility.yul\":14418:14419   */\n      0x01\n        /* \"#utility.yul\":14407:14420   */\n      add\n      swap1\n        /* \"#utility.yul\":14291:14426   */\n      jump\t// out\n        /* \"#utility.yul\":15941:16492   */\n    tag_418:\n        /* \"#utility.yul\":16043:16045   */\n      0x1f\n        /* \"#utility.yul\":16038:16041   */\n      dup3\n        /* \"#utility.yul\":16035:16046   */\n      gt\n        /* \"#utility.yul\":16032:16486   */\n      iszero\n      tag_514\n      jumpi\n        /* \"#utility.yul\":16079:16080   */\n      0x00\n        /* \"#utility.yul\":16104:16109   */\n      dup2\n        /* \"#utility.yul\":16100:16102   */\n      dup2\n        /* \"#utility.yul\":16093:16110   */\n      mstore\n        /* \"#utility.yul\":16149:16153   */\n      0x20\n        /* \"#utility.yul\":16145:16147   */\n      dup2\n        /* \"#utility.yul\":16135:16154   */\n      keccak256\n        /* \"#utility.yul\":16221:16225   */\n      0x20\n        /* \"#utility.yul\":16216:16218   */\n      0x1f\n        /* \"#utility.yul\":16204:16214   */\n      dup7\n        /* \"#utility.yul\":16200:16219   */\n      add\n        /* \"#utility.yul\":16196:16226   */\n      div\n        /* \"#utility.yul\":16190:16194   */\n      dup2\n        /* \"#utility.yul\":16186:16227   */\n      add\n        /* \"#utility.yul\":16258:16262   */\n      0x20\n        /* \"#utility.yul\":16246:16256   */\n      dup7\n        /* \"#utility.yul\":16243:16263   */\n      lt\n        /* \"#utility.yul\":16240:16287   */\n      iszero\n      tag_515\n      jumpi\n      pop\n        /* \"#utility.yul\":16281:16285   */\n      dup1\n        /* \"#utility.yul\":16240:16287   */\n    tag_515:\n        /* \"#utility.yul\":16338:16342   */\n      0x20\n        /* \"#utility.yul\":16333:16335   */\n      0x1f\n        /* \"#utility.yul\":16328:16331   */\n      dup7\n        /* \"#utility.yul\":16324:16336   */\n      add\n        /* \"#utility.yul\":16320:16343   */\n      div\n        /* \"#utility.yul\":16314:16318   */\n      dup3\n        /* \"#utility.yul\":16310:16344   */\n      add\n        /* \"#utility.yul\":16300:16344   */\n      swap2\n      pop\n        /* \"#utility.yul\":16394:16476   */\n    tag_516:\n        /* \"#utility.yul\":16412:16414   */\n      dup2\n        /* \"#utility.yul\":16405:16410   */\n      dup2\n        /* \"#utility.yul\":16402:16415   */\n      lt\n        /* \"#utility.yul\":16394:16476   */\n      iszero\n      tag_518\n      jumpi\n        /* \"#utility.yul\":16457:16474   */\n      dup3\n      dup2\n      sstore\n        /* \"#utility.yul\":16438:16439   */\n      0x01\n        /* \"#utility.yul\":16427:16440   */\n      add\n        /* \"#utility.yul\":16394:16476   */\n      jump(tag_516)\n    tag_518:\n        /* \"#utility.yul\":16398:16401   */\n      pop\n      pop\n      pop\n        /* \"#utility.yul\":16032:16486   */\n    tag_514:\n        /* \"#utility.yul\":15941:16492   */\n      pop\n      pop\n      pop\n      jump\t// out\n        /* \"#utility.yul\":16676:18035   */\n    tag_247:\n        /* \"#utility.yul\":16802:16805   */\n      dup2\n        /* \"#utility.yul\":16796:16806   */\n      mload\n        /* \"#utility.yul\":16829:16847   */\n      0xffffffffffffffff\n        /* \"#utility.yul\":16821:16827   */\n      dup2\n        /* \"#utility.yul\":16818:16848   */\n      gt\n        /* \"#utility.yul\":16815:16871   */\n      iszero\n      tag_522\n      jumpi\n        /* \"#utility.yul\":16851:16869   */\n      tag_522\n      tag_188\n      jump\t// in\n    tag_522:\n        /* \"#utility.yul\":16880:16977   */\n      tag_523\n        /* \"#utility.yul\":16970:16976   */\n      dup2\n        /* \"#utility.yul\":16930:16968   */\n      tag_524\n        /* \"#utility.yul\":16962:16966   */\n      dup5\n        /* \"#utility.yul\":16956:16967   */\n      sload\n        /* \"#utility.yul\":16930:16968   */\n      tag_201\n      jump\t// in\n    tag_524:\n        /* \"#utility.yul\":16924:16928   */\n      dup5\n        /* \"#utility.yul\":16880:16977   */\n      tag_418\n      jump\t// in\n    tag_523:\n        /* \"#utility.yul\":17032:17036   */\n      0x20\n      dup1\n        /* \"#utility.yul\":17096:17098   */\n      0x1f\n        /* \"#utility.yul\":17085:17099   */\n      dup4\n      gt\n        /* \"#utility.yul\":17113:17114   */\n      0x01\n        /* \"#utility.yul\":17108:17778   */\n      dup2\n      eq\n      tag_526\n      jumpi\n        /* \"#utility.yul\":17822:17823   */\n      0x00\n        /* \"#utility.yul\":17839:17845   */\n      dup5\n        /* \"#utility.yul\":17836:17925   */\n      iszero\n      tag_527\n      jumpi\n      pop\n        /* \"#utility.yul\":17891:17910   */\n      dup6\n      dup4\n      add\n        /* \"#utility.yul\":17885:17911   */\n      mload\n        /* \"#utility.yul\":17836:17925   */\n    tag_527:\n        /* \"#utility.yul\":16657:16658   */\n      0x02\n        /* \"#utility.yul\":16653:16664   */\n      dup1\n      dup7\n      mul\n        /* \"#utility.yul\":16640:16641   */\n      0x08\n        /* \"#utility.yul\":16636:16647   */\n      dup8\n      mul\n        /* \"#utility.yul\":16629:16648   */\n      swap1\n      swap2\n      exp\n      not(0x00)\n        /* \"#utility.yul\":16617:16649   */\n      div\n        /* \"#utility.yul\":16613:16650   */\n      not\n        /* \"#utility.yul\":16603:16651   */\n      dup3\n      and\n        /* \"#utility.yul\":16600:16665   */\n      or\n        /* \"#utility.yul\":17945:17949   */\n      dup7\n        /* \"#utility.yul\":17938:18019   */\n      sstore\n      pop\n        /* \"#utility.yul\":17078:18029   */\n      jump(tag_518)\n        /* \"#utility.yul\":17108:17778   */\n    tag_526:\n        /* \"#utility.yul\":15888:15889   */\n      0x00\n        /* \"#utility.yul\":15881:15895   */\n      dup6\n      dup2\n      mstore\n        /* \"#utility.yul\":15925:15929   */\n      0x20\n        /* \"#utility.yul\":15912:15930   */\n      dup2\n      keccak256\n      not(0x1f)\n        /* \"#utility.yul\":17144:17164   */\n      dup7\n      and\n      swap2\n        /* \"#utility.yul\":17262:17498   */\n    tag_530:\n        /* \"#utility.yul\":17276:17283   */\n      dup3\n        /* \"#utility.yul\":17273:17274   */\n      dup2\n        /* \"#utility.yul\":17270:17284   */\n      lt\n        /* \"#utility.yul\":17262:17498   */\n      iszero\n      tag_532\n      jumpi\n        /* \"#utility.yul\":17365:17384   */\n      dup9\n      dup7\n      add\n        /* \"#utility.yul\":17359:17385   */\n      mload\n        /* \"#utility.yul\":17344:17386   */\n      dup3\n      sstore\n        /* \"#utility.yul\":17457:17484   */\n      swap5\n      dup5\n      add\n      swap5\n        /* \"#utility.yul\":17425:17426   */\n      0x01\n        /* \"#utility.yul\":17413:17427   */\n      swap1\n      swap2\n      add\n      swap1\n        /* \"#utility.yul\":17292:17311   */\n      dup5\n      add\n        /* \"#utility.yul\":17262:17498   */\n      jump(tag_530)\n    tag_532:\n        /* \"#utility.yul\":17266:17269   */\n      pop\n        /* \"#utility.yul\":17526:17532   */\n      dup6\n        /* \"#utility.yul\":17517:17524   */\n      dup3\n        /* \"#utility.yul\":17514:17533   */\n      lt\n        /* \"#utility.yul\":17511:17719   */\n      iszero\n      tag_533\n      jumpi\n        /* \"#utility.yul\":17587:17606   */\n      dup8\n      dup6\n      add\n        /* \"#utility.yul\":17581:17607   */\n      mload\n        /* \"#utility.yul\":17681:17682   */\n      0x08\n        /* \"#utility.yul\":17696:17698   */\n      0x1f\n        /* \"#utility.yul\":17684:17699   */\n      dup9\n      and\n        /* \"#utility.yul\":17677:17700   */\n      mul\n        /* \"#utility.yul\":17674:17675   */\n      0x02\n        /* \"#utility.yul\":17670:17701   */\n      exp\n      not(0x00)\n        /* \"#utility.yul\":17658:17702   */\n      div\n        /* \"#utility.yul\":17654:17703   */\n      not\n        /* \"#utility.yul\":17639:17704   */\n      and\n        /* \"#utility.yul\":17624:17705   */\n      dup2\n      sstore\n        /* \"#utility.yul\":17511:17719   */\n    tag_533:\n      pop\n      pop\n      pop\n      pop\n      pop\n        /* \"#utility.yul\":17761:17762   */\n      0x02\n        /* \"#utility.yul\":17749:17763   */\n      mul\n        /* \"#utility.yul\":17765:17766   */\n      0x01\n        /* \"#utility.yul\":17745:17767   */\n      add\n        /* \"#utility.yul\":17732:17768   */\n      swap1\n      sstore\n      pop\n        /* \"#utility.yul\":16676:18035   */\n      jump\t// out\n        /* \"#utility.yul\":18390:18518   */\n    tag_279:\n        /* \"#utility.yul\":18457:18466   */\n      dup2\n      dup2\n      sub\n        /* \"#utility.yul\":18478:18489   */\n      dup2\n      dup2\n      gt\n        /* \"#utility.yul\":18475:18512   */\n      iszero\n      tag_158\n      jumpi\n        /* \"#utility.yul\":18492:18510   */\n      tag_158\n      tag_416\n      jump\t// in\n        /* \"#utility.yul\":20279:21721   */\n    tag_363:\n        /* \"#utility.yul\":20398:20401   */\n      dup2\n        /* \"#utility.yul\":20392:20396   */\n      dup2\n        /* \"#utility.yul\":20389:20402   */\n      sub\n        /* \"#utility.yul\":20386:20412   */\n      tag_544\n      jumpi\n        /* \"#utility.yul\":20405:20410   */\n      pop\n      pop\n        /* \"#utility.yul\":20279:21721   */\n      jump\t// out\n        /* \"#utility.yul\":20386:20412   */\n    tag_544:\n        /* \"#utility.yul\":20435:20472   */\n      tag_545\n        /* \"#utility.yul\":20467:20470   */\n      dup3\n        /* \"#utility.yul\":20461:20471   */\n      sload\n        /* \"#utility.yul\":20435:20472   */\n      tag_201\n      jump\t// in\n    tag_545:\n        /* \"#utility.yul\":20495:20513   */\n      0xffffffffffffffff\n        /* \"#utility.yul\":20487:20493   */\n      dup2\n        /* \"#utility.yul\":20484:20514   */\n      gt\n        /* \"#utility.yul\":20481:20537   */\n      iszero\n      tag_547\n      jumpi\n        /* \"#utility.yul\":20517:20535   */\n      tag_547\n      tag_188\n      jump\t// in\n    tag_547:\n        /* \"#utility.yul\":20546:20643   */\n      tag_548\n        /* \"#utility.yul\":20636:20642   */\n      dup2\n        /* \"#utility.yul\":20596:20634   */\n      tag_524\n        /* \"#utility.yul\":20628:20632   */\n      dup5\n        /* \"#utility.yul\":20622:20633   */\n      sload\n        /* \"#utility.yul\":20596:20634   */\n      tag_201\n      jump\t// in\n        /* \"#utility.yul\":20546:20643   */\n    tag_548:\n        /* \"#utility.yul\":20669:20670   */\n      0x00\n        /* \"#utility.yul\":20697:20699   */\n      0x1f\n        /* \"#utility.yul\":20689:20695   */\n      dup3\n        /* \"#utility.yul\":20686:20700   */\n      gt\n        /* \"#utility.yul\":20714:20715   */\n      0x01\n        /* \"#utility.yul\":20709:21464   */\n      dup2\n      eq\n      tag_551\n      jumpi\n        /* \"#utility.yul\":21508:21509   */\n      0x00\n        /* \"#utility.yul\":21525:21531   */\n      dup4\n        /* \"#utility.yul\":21522:21611   */\n      iszero\n      tag_552\n      jumpi\n      pop\n        /* \"#utility.yul\":21577:21596   */\n      dup5\n      dup3\n      add\n        /* \"#utility.yul\":21571:21597   */\n      sload\n        /* \"#utility.yul\":21522:21611   */\n    tag_552:\n        /* \"#utility.yul\":16657:16658   */\n      0x02\n        /* \"#utility.yul\":16653:16664   */\n      dup1\n      dup6\n      mul\n        /* \"#utility.yul\":16640:16641   */\n      0x08\n        /* \"#utility.yul\":16636:16647   */\n      dup7\n      mul\n        /* \"#utility.yul\":16629:16648   */\n      swap1\n      swap2\n      exp\n      not(0x00)\n        /* \"#utility.yul\":16617:16649   */\n      div\n        /* \"#utility.yul\":16613:16650   */\n      not\n        /* \"#utility.yul\":16603:16651   */\n      dup3\n      and\n        /* \"#utility.yul\":16600:16665   */\n      or\n        /* \"#utility.yul\":21631:21635   */\n      dup6\n        /* \"#utility.yul\":21624:21705   */\n      sstore\n      pop\n        /* \"#utility.yul\":20679:21715   */\n      jump(tag_550)\n        /* \"#utility.yul\":20709:21464   */\n    tag_551:\n        /* \"#utility.yul\":15888:15889   */\n      0x00\n        /* \"#utility.yul\":15881:15895   */\n      dup6\n      dup2\n      mstore\n        /* \"#utility.yul\":15925:15929   */\n      0x20\n        /* \"#utility.yul\":15912:15930   */\n      swap1\n      keccak256\n      not(0x1f)\n        /* \"#utility.yul\":20745:20765   */\n      dup5\n      and\n      swap1\n        /* \"#utility.yul\":15888:15889   */\n      0x00\n        /* \"#utility.yul\":15881:15895   */\n      dup7\n      dup2\n      mstore\n        /* \"#utility.yul\":15925:15929   */\n      0x20\n        /* \"#utility.yul\":15912:15930   */\n      swap1\n      keccak256\n        /* \"#utility.yul\":20909:20918   */\n      dup5\n        /* \"#utility.yul\":20931:21182   */\n    tag_556:\n        /* \"#utility.yul\":20945:20952   */\n      dup4\n        /* \"#utility.yul\":20942:20943   */\n      dup2\n        /* \"#utility.yul\":20939:20953   */\n      lt\n        /* \"#utility.yul\":20931:21182   */\n      iszero\n      tag_558\n      jumpi\n        /* \"#utility.yul\":21027:21048   */\n      dup3\n      dup7\n      add\n        /* \"#utility.yul\":21021:21049   */\n      sload\n        /* \"#utility.yul\":21006:21050   */\n      dup3\n      sstore\n        /* \"#utility.yul\":21077:21078   */\n      0x01\n        /* \"#utility.yul\":21150:21168   */\n      swap6\n      dup7\n      add\n      swap6\n        /* \"#utility.yul\":21105:21120   */\n      swap1\n      swap2\n      add\n      swap1\n        /* \"#utility.yul\":20968:20972   */\n      0x20\n        /* \"#utility.yul\":20961:20973   */\n      add\n        /* \"#utility.yul\":20931:21182   */\n      jump(tag_556)\n    tag_558:\n        /* \"#utility.yul\":20935:20938   */\n      pop\n        /* \"#utility.yul\":21210:21216   */\n      dup6\n        /* \"#utility.yul\":21201:21208   */\n      dup4\n        /* \"#utility.yul\":21198:21217   */\n      lt\n        /* \"#utility.yul\":21195:21405   */\n      iszero\n      tag_559\n      jumpi\n        /* \"#utility.yul\":21271:21292   */\n      dup2\n      dup6\n      add\n        /* \"#utility.yul\":21265:21293   */\n      sload\n        /* \"#utility.yul\":21367:21368   */\n      0x08\n        /* \"#utility.yul\":21382:21384   */\n      0x1f\n        /* \"#utility.yul\":21370:21385   */\n      dup9\n      and\n        /* \"#utility.yul\":21363:21386   */\n      mul\n        /* \"#utility.yul\":21360:21361   */\n      0x02\n        /* \"#utility.yul\":21356:21387   */\n      exp\n      not(0x00)\n        /* \"#utility.yul\":21344:21388   */\n      div\n        /* \"#utility.yul\":21340:21389   */\n      not\n        /* \"#utility.yul\":21325:21390   */\n      and\n        /* \"#utility.yul\":21310:21391   */\n      dup2\n      sstore\n        /* \"#utility.yul\":21195:21405   */\n    tag_559:\n      pop\n      pop\n      pop\n        /* \"#utility.yul\":21451:21452   */\n      0x01\n        /* \"#utility.yul\":21447:21448   */\n      0x02\n        /* \"#utility.yul\":21439:21445   */\n      dup5\n        /* \"#utility.yul\":21435:21449   */\n      mul\n        /* \"#utility.yul\":21431:21453   */\n      add\n        /* \"#utility.yul\":21425:21429   */\n      dup5\n        /* \"#utility.yul\":21418:21454   */\n      sstore\n        /* \"#utility.yul\":20679:21715   */\n    tag_550:\n      pop\n      pop\n      pop\n        /* \"#utility.yul\":20279:21721   */\n      pop\n      pop\n      jump\t// out\n\n    auxdata: 0xa2646970667358221220dae61a7480e6c6214f19105e25fc59f2ced37d13afeee24f860ade2bceb6c43564736f6c63430008140033\n}\n",
				"bytecode": {
					"linkReferences": {},
					"object": "608060405234801561001057600080fd5b5060008054600160a060020a031916339081178255604051909182917f8be0079c531659141344cd1fd0a4f28419497f9722a3daafe3b4186f6b6457e0908290a350612a75806100616000396000f3fe608060405234801561001057600080fd5b50600436106101ec576000357c0100000000000000000000000000000000000000000000000000000000900480637048027511610121578063dba8c55f116100bf578063eaf12fd11161008e578063eaf12fd114610464578063f0a47f7814610477578063f20122861461049a578063f2fde38b146104c357600080fd5b8063dba8c55f14610400578063dcc63a1614610413578063dd62ed3e14610426578063e2ed5a4e1461045157600080fd5b80638da5cb5b116100fb5780638da5cb5b14610382578063981059ee1461039d578063a59742df146103bd578063b264a4a5146103dd57600080fd5b80637048027514610354578063715018a61461036757806375e7c4251461036f57600080fd5b80634a5ad49e1161018e5780635407b304116101685780635407b304146102f6578063659cc07b1461031957806368fdbd701461032c5780636b105c811461034157600080fd5b80634a5ad49e146102ad57806352ff6846146102d057806353f856c2146102e357600080fd5b806324d7806c116101ca57806324d7806c1461024f57806327f83af9146102725780633bc6e30914610285578063416d64991461029857600080fd5b80630740c8cf146101f1578063095ea7b3146102175780631785f53c1461023a575b600080fd5b6102046101ff36600461211b565b6104d6565b6040519081526020015b60405180910390f35b61022a61022536600461211b565b610507565b604051901515815260200161020e565b61024d610248366004612145565b610536565b005b61022a61025d366004612145565b60016020526000908152604090205460ff1681565b61024d61028036600461211b565b6105b5565b61024d610293366004612145565b6106aa565b6102a0610729565b60405161020e91906121ad565b6102c06102bb36600461211b565b6109ad565b60405161020e9493929190612298565b61024d6102de366004612145565b610a88565b61024d6102f136600461236f565b610b74565b61022a6103043660046123da565b60066020526000908152604090205460ff1681565b6102a0610327366004612145565b610e3e565b61033461118c565b60405161020e91906123f3565b61024d61034f36600461211b565b6111e4565b61024d610362366004612145565b6112fb565b61024d611377565b61024d61037d366004612437565b6113fb565b600054604051600160a060020a03909116815260200161020e565b6103b06103ab3660046123da565b61150a565b60405161020e919061247e565b6103d06103cb366004612145565b611623565b60405161020e91906124c4565b6103f06103eb3660046123da565b6117b3565b60405161020e9493929190612542565b61024d61040e36600461211b565b611864565b61024d61042136600461256e565b611b28565b6102046104343660046125be565b600860209081526000928352604080842090915290825290205481565b61020461045f3660046123da565b611c64565b61024d6104723660046125f1565b611c85565b61022a610485366004612145565b60056020526000908152604090205460ff1681565b6104ad6104a836600461211b565b611e3d565b60405161020e9a9998979695949392919061262a565b61024d6104d1366004612145565b611fb8565b600460205281600052604060002081815481106104f257600080fd5b90600052602060002001600091509150505481565b336000908152600860209081526040808320600160a060020a0386168452909152902081905560015b92915050565b600054600160a060020a0316331461056c5760405160e560020a62461bcd0281526004016105639061269b565b60405180910390fd5b600160a060020a038116600081815260016020526040808220805460ff19169055517fa3b62bc36326052d97ea62d63c3d60308ed4c3ea8ac079dd8499f1e9c4f80c0f9190a250565b3360009081526001602052604090205460ff166105e75760405160e560020a62461bcd028152600401610563906126d2565b600160a060020a038216600090815260036020818152604080842085855290915282200154900361062d5760405160e560020a62461bcd02815260040161056390612709565b600160a060020a038216600090815260036020908152604080832084845290915290206006015460ff16156106775760405160e560020a62461bcd02815260040161056390612740565b600160a060020a03909116600090815260036020908152604080832093835292905220600601805460ff19166001179055565b3360009081526001602052604090205460ff166106dc5760405160e560020a62461bcd028152600401610563906126d2565b600160a060020a0381166107055760405160e560020a62461bcd02815260040161056390612777565b600160a060020a03166000908152600560205260409020805460ff19166001179055565b336000908152600460205260409020546060908067ffffffffffffffff811115610755576107556122c9565b60405190808252806020026020018201604052801561078e57816020015b61077b6120a6565b8152602001906001900390816107735790505b50915060005b818110156109a8573360009081526004602052604081208054839081106107bd576107bd6127ae565b600091825260208083209091015433835260038083526040808520838652845293849020845161014081018652815481526001820154948101949094526002810154948401949094528301546060830152600483015460ff90811615156080840152600584015460a0840152600684015416151560c083015260078301805491945091929160e0840191610850906127c7565b80601f016020809104026020016040519081016040528092919081815260200182805461087c906127c7565b80156108c95780601f1061089e576101008083540402835291602001916108c9565b820191906000526020600020905b8154815290600101906020018083116108ac57829003601f168201915b5050509183525050600882015460ff16151560208201526009820180546040909201916108f5906127c7565b80601f0160208091040260200160405190810160405280929190818152602001828054610921906127c7565b801561096e5780601f106109435761010080835404028352916020019161096e565b820191906000526020600020905b81548152906001019060200180831161095157829003601f168201915b505050505081525050848381518110610989576109896127ae565b60200260200101819052505080806109a09061281d565b915050610794565b505090565b600960205281600052604060002081815481106109c957600080fd5b9060005260206000209060030201600091509150508060000154908060010180546109f3906127c7565b80601f0160208091040260200160405190810160405280929190818152602001828054610a1f906127c7565b8015610a6c5780601f10610a4157610100808354040283529160200191610a6c565b820191906000526020600020905b815481529060010190602001808311610a4f57829003601f168201915b5050506002909301549192505060ff8082169161010090041684565b3360009081526001602052604090205460ff16610aba5760405160e560020a62461bcd028152600401610563906126d2565b600160a060020a038116610ae35760405160e560020a62461bcd02815260040161056390612777565b600160a060020a03811660009081526005602052604090205460ff161515600114610b535760405160e560020a62461bcd02815260206004820152601960248201527f6164647265737320617265206e6f7420612074656163686572000000000000006044820152606401610563565b600160a060020a03166000908152600560205260409020805460ff19169055565b3360009081526005602052604090205460ff16610bd65760405160e560020a62461bcd02815260206004820152600d60248201527f4e6f7420612074656163686572000000000000000000000000000000000000006044820152606401610563565b600160a060020a038516610bff5760405160e560020a62461bcd02815260040161056390612777565b60008311610c525760405160e560020a62461bcd02815260206004820152600f60248201527f496e76616c6964206372656469747300000000000000000000000000000000006044820152606401610563565b60008481526006602052604090205460ff161515600114610cb85760405160e560020a62461bcd02815260206004820152600f60248201527f636f75727365206e6f74206578697400000000000000000000000000000000006044820152606401610563565b600042905060405180610140016040528086815260200185815260200184815260200182815260200160011515815260200160008152602001600015158152602001838152602001600015158152602001604051806020016040528060008152508152506003600088600160a060020a0316600160a060020a0316815260200190815260200160002060008781526020019081526020016000206000820151816000015560208201518160010155604082015181600201556060820151816003015560808201518160040160006101000a81548160ff02191690831515021790555060a0820151816005015560c08201518160060160006101000a81548160ff02191690831515021790555060e0820151816007019081610dd99190612885565b5061010082015160088201805460ff19169115159190911790556101208201516009820190610e089082612885565b505050600160a060020a039095166000908152600460209081526040822080546001810182559083529120019390935550505050565b600160a060020a0381166000908152600860209081526040808320338452909152902054606090610eb45760405160e560020a62461bcd02815260206004820152601560248201527f796f7520646f206e6f7420626520616c6c6f77656400000000000000000000006044820152606401610563565b600160a060020a0382166000908152600460205260409020548067ffffffffffffffff811115610ee657610ee66122c9565b604051908082528060200260200182016040528015610f1f57816020015b610f0c6120a6565b815260200190600190039081610f045790505b50915060005b8181101561114b57600160a060020a0384166000908152600460205260408120805483908110610f5757610f576127ae565b6000918252602080832090910154600160a060020a038816835260038083526040808520838652845293849020845161014081018652815481526001820154948101949094526002810154948401949094528301546060830152600483015460ff90811615156080840152600584015460a0840152600684015416151560c083015260078301805491945091929160e0840191610ff3906127c7565b80601f016020809104026020016040519081016040528092919081815260200182805461101f906127c7565b801561106c5780601f106110415761010080835404028352916020019161106c565b820191906000526020600020905b81548152906001019060200180831161104f57829003601f168201915b5050509183525050600882015460ff1615156020820152600982018054604090920191611098906127c7565b80601f01602080910402602001604051908101604052809291908181526020018280546110c4906127c7565b80156111115780601f106110e657610100808354040283529160200191611111565b820191906000526020600020905b8154815290600101906020018083116110f457829003601f168201915b50505050508152505084838151811061112c5761112c6127ae565b60200260200101819052505080806111439061281d565b915050610f25565b50600160a060020a0383166000908152600860209081526040808320338452909152812080546001929061118090849061294b565b90915550919392505050565b606060078054806020026020016040519081016040528092919081815260200182805480156111da57602002820191906000526020600020905b8154815260200190600101908083116111c6575b5050505050905090565b3360009081526001602052604090205460ff166112165760405160e560020a62461bcd028152600401610563906126d2565b600160a060020a0382166000908152600960205260409020805482908110611240576112406127ae565b600091825260209091206002600390920201015460ff16156112a75760405160e560020a62461bcd02815260206004820152601960248201527f5472616e7366657220616c726561647920617070726f766564000000000000006044820152606401610563565b600160a060020a0382166000908152600960205260409020805460019190839081106112d5576112d56127ae565b60009182526020909120600390910201600201805460ff19169115159190911790555050565b600054600160a060020a031633146113285760405160e560020a62461bcd0281526004016105639061269b565b600160a060020a0381166000818152600160208190526040808320805460ff1916909217909155517f44d6d25963f097ad14f29f06854a01f575648a1ef82f30e562ccd3889717e3399190a250565b600054600160a060020a031633146113a45760405160e560020a62461bcd0281526004016105639061269b565b60008054604051600160a060020a03909116907f8be0079c531659141344cd1fd0a4f28419497f9722a3daafe3b4186f6b6457e0908390a36000805473ffffffffffffffffffffffffffffffffffffffff19169055565b3360009081526003602081815260408084208685529091528220015490036114385760405160e560020a62461bcd02815260040161056390612709565b33600090815260036020908152604080832085845290915290206006015460ff16156114795760405160e560020a62461bcd02815260040161056390612740565b3360009081526009602090815260408083208151608081018352868152808401868152928101859052606081018590528154600181810184559286529390942084516003909402019283559051908201906114d49082612885565b5060408201516002909101805460609093015115156101000261ff00199215159290921661ffff19909316929092171790555050565b6115356040518060800160405280600081526020016060815260200160008152602001600081525090565b6000828152600660205260409020805460ff191660011790556002600083815260200190815260200160002060405180608001604052908160008201548152602001600182018054611586906127c7565b80601f01602080910402602001604051908101604052809291908181526020018280546115b2906127c7565b80156115ff5780601f106115d4576101008083540402835291602001916115ff565b820191906000526020600020905b8154815290600101906020018083116115e257829003601f168201915b50505050508152602001600282015481526020016003820154815250509050919050565b6060600160a060020a03821661167e5760405160e560020a62461bcd02815260206004820152601760248201527f496e76616c69642073747564656e7420616464726573730000000000000000006044820152606401610563565b600160a060020a038216600090815260096020908152604080832080548251818502810185019093528083529193909284015b828210156117a85783829060005260206000209060030201604051806080016040529081600082015481526020016001820180546116ee906127c7565b80601f016020809104026020016040519081016040528092919081815260200182805461171a906127c7565b80156117675780601f1061173c57610100808354040283529160200191611767565b820191906000526020600020905b81548152906001019060200180831161174a57829003601f168201915b50505091835250506002919091015460ff808216151560208085019190915261010090920416151560409092019190915290825260019290920191016116b1565b505050509050919050565b600260205260009081526040902080546001820180549192916117d5906127c7565b80601f0160208091040260200160405190810160405280929190818152602001828054611801906127c7565b801561184e5780601f106118235761010080835404028352916020019161184e565b820191906000526020600020905b81548152906001019060200180831161183157829003601f168201915b5050505050908060020154908060030154905084565b3360009081526001602052604090205460ff166118965760405160e560020a62461bcd028152600401610563906126d2565b600160a060020a03821660009081526009602052604090208054829081106118c0576118c06127ae565b600091825260209091206002600390920201015460ff166119265760405160e560020a62461bcd02815260206004820152601560248201527f5472616e73666572206e6f7420617070726f76656400000000000000000000006044820152606401610563565b600160a060020a0382166000908152600960205260409020805482908110611950576119506127ae565b906000526020600020906003020160020160019054906101000a900460ff16156119bf5760405160e560020a62461bcd02815260206004820152601960248201527f5472616e7366657220616c7265616479206578656375746564000000000000006044820152606401610563565b600160a060020a03821660009081526009602052604090208054829081106119e9576119e96127ae565b60009182526020808320600160a060020a0386168452600380835260408086206009909452852080546001929095029092010193919285908110611a2f57611a2f6127ae565b90600052602060002090600302016000015481526020019081526020016000206009019081611a5e919061295e565b50600160a060020a038216600090815260096020526040902080546001919083908110611a8d57611a8d6127ae565b60009182526020808320600392830201600201805461ff0019166101009515159590950294909417909355600160a060020a03851682528252604080822060099093528120805460019392919085908110611aea57611aea6127ae565b906000526020600020906003020160000154815260200190815260200160002060080160006101000a81548160ff0219169083151502179055505050565b3360009081526001602052604090205460ff16611b5a5760405160e560020a62461bcd028152600401610563906126d2565b60008381526006602052604090205460ff1615611bbc5760405160e560020a62461bcd02815260206004820152601560248201527f436f7572736520616c72656164792065786973747300000000000000000000006044820152606401610563565b6000838152600660209081526040808320805460ff19166001908117909155600780548083019091557fa66cc928b5edb82af9bd49922954155ab7b0942694bea4ce44661d9a8736c6880187905581516080810183528781528084018681528184018890524260608301528886526002909452919093208151815591519092820190611c489082612885565b5060408201516002820155606090910151600390910155505050565b60078181548110611c7457600080fd5b600091825260209091200154905081565b3360009081526005602052604090205460ff16611ce75760405160e560020a62461bcd02815260206004820152600d60248201527f4e6f7420612074656163686572000000000000000000000000000000000000006044820152606401610563565b600160a060020a0384166000908152600360208181526040808420878552909152822001549003611d2d5760405160e560020a62461bcd02815260040161056390612709565b600160a060020a038416611d565760405160e560020a62461bcd02815260040161056390612777565b60008211611da95760405160e560020a62461bcd02815260206004820152600f60248201527f496e76616c6964206372656469747300000000000000000000000000000000006044820152606401610563565b600160a060020a038416600090815260036020908152604080832086845290915290206006015460ff1615611df35760405160e560020a62461bcd02815260040161056390612740565b600160a060020a039390931660009081526003602090815260408083209483529390529190912060018082019290925560028101929092556004909101805460ff19169091179055565b6003602081815260009384526040808520909152918352912080546001820154600283015493830154600484015460058501546006860154600787018054969895979596949560ff94851695939490921692611e98906127c7565b80601f0160208091040260200160405190810160405280929190818152602001828054611ec4906127c7565b8015611f115780601f10611ee657610100808354040283529160200191611f11565b820191906000526020600020905b815481529060010190602001808311611ef457829003601f168201915b5050506008840154600985018054949560ff909216949193509150611f35906127c7565b80601f0160208091040260200160405190810160405280929190818152602001828054611f61906127c7565b8015611fae5780601f10611f8357610100808354040283529160200191611fae565b820191906000526020600020905b815481529060010190602001808311611f9157829003601f168201915b505050505090508a565b600054600160a060020a03163314611fe55760405160e560020a62461bcd0281526004016105639061269b565b600160a060020a03811661203e5760405160e560020a62461bcd02815260206004820152600860248201527f6e657720697320300000000000000000000000000000000000000000000000006044820152606401610563565b60008054604051600160a060020a03808516939216917f8be0079c531659141344cd1fd0a4f28419497f9722a3daafe3b4186f6b6457e091a36000805473ffffffffffffffffffffffffffffffffffffffff1916600160a060020a0392909216919091179055565b604051806101400160405280600081526020016000815260200160008152602001600081526020016000151581526020016000815260200160001515815260200160608152602001600015158152602001606081525090565b8035600160a060020a038116811461211657600080fd5b919050565b6000806040838503121561212e57600080fd5b612137836120ff565b946020939093013593505050565b60006020828403121561215757600080fd5b612160826120ff565b9392505050565b6000815180845260005b8181101561218d57602081850181015186830182015201612171565b506000602082860101526020601f19601f83011685010191505092915050565b60208082528251828201819052600091906040908185019080840286018301878501865b8381101561228a57603f19898403018552815180518452878101518885015286810151878501526060808201519085015260808082015115159085015260a0808201519085015260c08082015115159085015260e080820151610140828701819052919061224183880182612167565b92505050610100808301516122598288018215159052565b505061012080830151925085820381870152506122768183612167565b9689019694505050908601906001016121d1565b509098975050505050505050565b8481526080602082015260006122b16080830186612167565b93151560408301525090151560609091015292915050565b60e060020a634e487b7102600052604160045260246000fd5b600082601f8301126122f357600080fd5b813567ffffffffffffffff8082111561230e5761230e6122c9565b604051601f8301601f19908116603f01168101908282118183101715612336576123366122c9565b8160405283815286602085880101111561234f57600080fd5b836020870160208301376000602085830101528094505050505092915050565b600080600080600060a0868803121561238757600080fd5b612390866120ff565b9450602086013593506040860135925060608601359150608086013567ffffffffffffffff8111156123c157600080fd5b6123cd888289016122e2565b9150509295509295909350565b6000602082840312156123ec57600080fd5b5035919050565b6020808252825182820181905260009190848201906040850190845b8181101561242b5783518352928401929184019160010161240f565b50909695505050505050565b6000806040838503121561244a57600080fd5b82359150602083013567ffffffffffffffff81111561246857600080fd5b612474858286016122e2565b9150509250929050565b602081528151602082015260006020830151608060408401526124a460a0840182612167565b905060408401516060840152606084015160808401528091505092915050565b60208082528251828201819052600091906040908185019080840286018301878501865b8381101561228a57603f19898403018552815160808151855288820151818a87015261251682870182612167565b838a01511515878b015260609384015115159390960192909252505093860193908601906001016124e8565b84815260806020820152600061255b6080830186612167565b6040830194909452506060015292915050565b60008060006060848603121561258357600080fd5b8335925060208401359150604084013567ffffffffffffffff8111156125a857600080fd5b6125b4868287016122e2565b9150509250925092565b600080604083850312156125d157600080fd5b6125da836120ff565b91506125e8602084016120ff565b90509250929050565b6000806000806080858703121561260757600080fd5b612610856120ff565b966020860135965060408601359560600135945092505050565b60006101408c83528b60208401528a604084015289606084015288151560808401528760a084015286151560c08401528060e084015261266c81840187612167565b905084151561010084015282810361012084015261268a8185612167565b9d9c50505050505050505050505050565b60208082526006908201527f216f776e65720000000000000000000000000000000000000000000000000000604082015260600190565b6020808252600c908201527f4e6f7420616e2061646d696e0000000000000000000000000000000000000000604082015260600190565b60208082526015908201527f43726564697420646f6573206e6f742065786973740000000000000000000000604082015260600190565b60208082526016908201527f43726564697420616c7265616479207265766f6b656400000000000000000000604082015260600190565b6020808252600f908201527f496e76616c696420616464726573730000000000000000000000000000000000604082015260600190565b60e060020a634e487b7102600052603260045260246000fd5b6002810460018216806127db57607f821691505b6020821081036127fe5760e060020a634e487b7102600052602260045260246000fd5b50919050565b60e060020a634e487b7102600052601160045260246000fd5b60006001820161282f5761282f612804565b5060010190565b601f821115612880576000818152602081206020601f8601048101602086101561285d5750805b6020601f860104820191505b8181101561287c57828155600101612869565b5050505b505050565b815167ffffffffffffffff81111561289f5761289f6122c9565b6128b3816128ad84546127c7565b84612836565b602080601f8311600181146128ec57600084156128d05750858301515b60028086026008870290910a600019041982161786555061287c565b600085815260208120601f198616915b8281101561291b578886015182559484019460019091019084016128fc565b508582101561293b57878501516008601f88160260020a60001904191681555b5050505050600202600101905550565b8181038181111561053057610530612804565b818103612969575050565b61297382546127c7565b67ffffffffffffffff81111561298b5761298b6122c9565b612999816128ad84546127c7565b6000601f8211600181146129d157600083156129b55750848201545b60028085026008860290910a6000190419821617855550612a38565b600085815260209020601f19841690600086815260209020845b83811015612a0b57828601548255600195860195909101906020016129eb565b5085831015612a2b57818501546008601f88160260020a60001904191681555b5050506001600284020184555b505050505056fea2646970667358221220dae61a7480e6c6214f19105e25fc59f2ced37d13afeee24f860ade2bceb6c43564736f6c63430008140033",
					"opcodes": "PUSH1 0x80 PUSH1 0x40 MSTORE CALLVALUE DUP1 ISZERO PUSH2 0x10 JUMPI PUSH1 0x0 DUP1 REVERT JUMPDEST POP PUSH1 0x0 DUP1 SLOAD PUSH1 0x1 PUSH1 0xA0 PUSH1 0x2 EXP SUB NOT AND CALLER SWAP1 DUP2 OR DUP3 SSTORE PUSH1 0x40 MLOAD SWAP1 SWAP2 DUP3 SWAP2 PUSH32 0x8BE0079C531659141344CD1FD0A4F28419497F9722A3DAAFE3B4186F6B6457E0 SWAP1 DUP3 SWAP1 LOG3 POP PUSH2 0x2A75 DUP1 PUSH2 0x61 PUSH1 0x0 CODECOPY PUSH1 0x0 RETURN INVALID PUSH1 0x80 PUSH1 0x40 MSTORE CALLVALUE DUP1 ISZERO PUSH2 0x10 JUMPI PUSH1 0x0 DUP1 REVERT JUMPDEST POP PUSH1 0x4 CALLDATASIZE LT PUSH2 0x1EC JUMPI PUSH1 0x0 CALLDATALOAD PUSH29 0x100000000000000000000000000000000000000000000000000000000 SWAP1 DIV DUP1 PUSH4 0x70480275 GT PUSH2 0x121 JUMPI DUP1 PUSH4 0xDBA8C55F GT PUSH2 0xBF JUMPI DUP1 PUSH4 0xEAF12FD1 GT PUSH2 0x8E JUMPI DUP1 PUSH4 0xEAF12FD1 EQ PUSH2 0x464 JUMPI DUP1 PUSH4 0xF0A47F78 EQ PUSH2 0x477 JUMPI DUP1 PUSH4 0xF2012286 EQ PUSH2 0x49A JUMPI DUP1 PUSH4 0xF2FDE38B EQ PUSH2 0x4C3 JUMPI PUSH1 0x0 DUP1 REVERT JUMPDEST DUP1 PUSH4 0xDBA8C55F EQ PUSH2 0x400 JUMPI DUP1 PUSH4 0xDCC63A16 EQ PUSH2 0x413 JUMPI DUP1 PUSH4 0xDD62ED3E EQ PUSH2 0x426 JUMPI DUP1 PUSH4 0xE2ED5A4E EQ PUSH2 0x451 JUMPI PUSH1 0x0 DUP1 REVERT JUMPDEST DUP1 PUSH4 0x8DA5CB5B GT PUSH2 0xFB JUMPI DUP1 PUSH4 0x8DA5CB5B EQ PUSH2 0x382 JUMPI DUP1 PUSH4 0x981059EE EQ PUSH2 0x39D JUMPI DUP1 PUSH4 0xA59742DF EQ PUSH2 0x3BD JUMPI DUP1 PUSH4 0xB264A4A5 EQ PUSH2 0x3DD JUMPI PUSH1 0x0 DUP1 REVERT JUMPDEST DUP1 PUSH4 0x70480275 EQ PUSH2 0x354 JUMPI DUP1 PUSH4 0x715018A6 EQ PUSH2 0x367 JUMPI DUP1 PUSH4 0x75E7C425 EQ PUSH2 0x36F JUMPI PUSH1 0x0 DUP1 REVERT JUMPDEST DUP1 PUSH4 0x4A5AD49E GT PUSH2 0x18E JUMPI DUP1 PUSH4 0x5407B304 GT PUSH2 0x168 JUMPI DUP1 PUSH4 0x5407B304 EQ PUSH2 0x2F6 JUMPI DUP1 PUSH4 0x659CC07B EQ PUSH2 0x319 JUMPI DUP1 PUSH4 0x68FDBD70 EQ PUSH2 0x32C JUMPI DUP1 PUSH4 0x6B105C81 EQ PUSH2 0x341 JUMPI PUSH1 0x0 DUP1 REVERT JUMPDEST DUP1 PUSH4 0x4A5AD49E EQ PUSH2 0x2AD JUMPI DUP1 PUSH4 0x52FF6846 EQ PUSH2 0x2D0 JUMPI DUP1 PUSH4 0x53F856C2 EQ PUSH2 0x2E3 JUMPI PUSH1 0x0 DUP1 REVERT JUMPDEST DUP1 PUSH4 0x24D7806C GT PUSH2 0x1CA JUMPI DUP1 PUSH4 0x24D7806C EQ PUSH2 0x24F JUMPI DUP1 PUSH4 0x27F83AF9 EQ PUSH2 0x272 JUMPI DUP1 PUSH4 0x3BC6E309 EQ PUSH2 0x285 JUMPI DUP1 PUSH4 0x416D6499 EQ PUSH2 0x298 JUMPI PUSH1 0x0 DUP1 REVERT JUMPDEST DUP1 PUSH4 0x740C8CF EQ PUSH2 0x1F1 JUMPI DUP1 PUSH4 0x95EA7B3 EQ PUSH2 0x217 JUMPI DUP1 PUSH4 0x1785F53C EQ PUSH2 0x23A JUMPI JUMPDEST PUSH1 0x0 DUP1 REVERT JUMPDEST PUSH2 0x204 PUSH2 0x1FF CALLDATASIZE PUSH1 0x4 PUSH2 0x211B JUMP JUMPDEST PUSH2 0x4D6 JUMP JUMPDEST PUSH1 0x40 MLOAD SWAP1 DUP2 MSTORE PUSH1 0x20 ADD JUMPDEST PUSH1 0x40 MLOAD DUP1 SWAP2 SUB SWAP1 RETURN JUMPDEST PUSH2 0x22A PUSH2 0x225 CALLDATASIZE PUSH1 0x4 PUSH2 0x211B JUMP JUMPDEST PUSH2 0x507 JUMP JUMPDEST PUSH1 0x40 MLOAD SWAP1 ISZERO ISZERO DUP2 MSTORE PUSH1 0x20 ADD PUSH2 0x20E JUMP JUMPDEST PUSH2 0x24D PUSH2 0x248 CALLDATASIZE PUSH1 0x4 PUSH2 0x2145 JUMP JUMPDEST PUSH2 0x536 JUMP JUMPDEST STOP JUMPDEST PUSH2 0x22A PUSH2 0x25D CALLDATASIZE PUSH1 0x4 PUSH2 0x2145 JUMP JUMPDEST PUSH1 0x1 PUSH1 0x20 MSTORE PUSH1 0x0 SWAP1 DUP2 MSTORE PUSH1 0x40 SWAP1 KECCAK256 SLOAD PUSH1 0xFF AND DUP2 JUMP JUMPDEST PUSH2 0x24D PUSH2 0x280 CALLDATASIZE PUSH1 0x4 PUSH2 0x211B JUMP JUMPDEST PUSH2 0x5B5 JUMP JUMPDEST PUSH2 0x24D PUSH2 0x293 CALLDATASIZE PUSH1 0x4 PUSH2 0x2145 JUMP JUMPDEST PUSH2 0x6AA JUMP JUMPDEST PUSH2 0x2A0 PUSH2 0x729 JUMP JUMPDEST PUSH1 0x40 MLOAD PUSH2 0x20E SWAP2 SWAP1 PUSH2 0x21AD JUMP JUMPDEST PUSH2 0x2C0 PUSH2 0x2BB CALLDATASIZE PUSH1 0x4 PUSH2 0x211B JUMP JUMPDEST PUSH2 0x9AD JUMP JUMPDEST PUSH1 0x40 MLOAD PUSH2 0x20E SWAP5 SWAP4 SWAP3 SWAP2 SWAP1 PUSH2 0x2298 JUMP JUMPDEST PUSH2 0x24D PUSH2 0x2DE CALLDATASIZE PUSH1 0x4 PUSH2 0x2145 JUMP JUMPDEST PUSH2 0xA88 JUMP JUMPDEST PUSH2 0x24D PUSH2 0x2F1 CALLDATASIZE PUSH1 0x4 PUSH2 0x236F JUMP JUMPDEST PUSH2 0xB74 JUMP JUMPDEST PUSH2 0x22A PUSH2 0x304 CALLDATASIZE PUSH1 0x4 PUSH2 0x23DA JUMP JUMPDEST PUSH1 0x6 PUSH1 0x20 MSTORE PUSH1 0x0 SWAP1 DUP2 MSTORE PUSH1 0x40 SWAP1 KECCAK256 SLOAD PUSH1 0xFF AND DUP2 JUMP JUMPDEST PUSH2 0x2A0 PUSH2 0x327 CALLDATASIZE PUSH1 0x4 PUSH2 0x2145 JUMP JUMPDEST PUSH2 0xE3E JUMP JUMPDEST PUSH2 0x334 PUSH2 0x118C JUMP JUMPDEST PUSH1 0x40 MLOAD PUSH2 0x20E SWAP2 SWAP1 PUSH2 0x23F3 JUMP JUMPDEST PUSH2 0x24D PUSH2 0x34F CALLDATASIZE PUSH1 0x4 PUSH2 0x211B JUMP JUMPDEST PUSH2 0x11E4 JUMP JUMPDEST PUSH2 0x24D PUSH2 0x362 CALLDATASIZE PUSH1 0x4 PUSH2 0x2145 JUMP JUMPDEST PUSH2 0x12FB JUMP JUMPDEST PUSH2 0x24D PUSH2 0x1377 JUMP JUMPDEST PUSH2 0x24D PUSH2 0x37D CALLDATASIZE PUSH1 0x4 PUSH2 0x2437 JUMP JUMPDEST PUSH2 0x13FB JUMP JUMPDEST PUSH1 0x0 SLOAD PUSH1 0x40 MLOAD PUSH1 0x1 PUSH1 0xA0 PUSH1 0x2 EXP SUB SWAP1 SWAP2 AND DUP2 MSTORE PUSH1 0x20 ADD PUSH2 0x20E JUMP JUMPDEST PUSH2 0x3B0 PUSH2 0x3AB CALLDATASIZE PUSH1 0x4 PUSH2 0x23DA JUMP JUMPDEST PUSH2 0x150A JUMP JUMPDEST PUSH1 0x40 MLOAD PUSH2 0x20E SWAP2 SWAP1 PUSH2 0x247E JUMP JUMPDEST PUSH2 0x3D0 PUSH2 0x3CB CALLDATASIZE PUSH1 0x4 PUSH2 0x2145 JUMP JUMPDEST PUSH2 0x1623 JUMP JUMPDEST PUSH1 0x40 MLOAD PUSH2 0x20E SWAP2 SWAP1 PUSH2 0x24C4 JUMP JUMPDEST PUSH2 0x3F0 PUSH2 0x3EB CALLDATASIZE PUSH1 0x4 PUSH2 0x23DA JUMP JUMPDEST PUSH2 0x17B3 JUMP JUMPDEST PUSH1 0x40 MLOAD PUSH2 0x20E SWAP5 SWAP4 SWAP3 SWAP2 SWAP1 PUSH2 0x2542 JUMP JUMPDEST PUSH2 0x24D PUSH2 0x40E CALLDATASIZE PUSH1 0x4 PUSH2 0x211B JUMP JUMPDEST PUSH2 0x1864 JUMP JUMPDEST PUSH2 0x24D PUSH2 0x421 CALLDATASIZE PUSH1 0x4 PUSH2 0x256E JUMP JUMPDEST PUSH2 0x1B28 JUMP JUMPDEST PUSH2 0x204 PUSH2 0x434 CALLDATASIZE PUSH1 0x4 PUSH2 0x25BE JUMP JUMPDEST PUSH1 0x8 PUSH1 0x20 SWAP1 DUP2 MSTORE PUSH1 0x0 SWAP3 DUP4 MSTORE PUSH1 0x40 DUP1 DUP5 KECCAK256 SWAP1 SWAP2 MSTORE SWAP1 DUP3 MSTORE SWAP1 KECCAK256 SLOAD DUP2 JUMP JUMPDEST PUSH2 0x204 PUSH2 0x45F CALLDATASIZE PUSH1 0x4 PUSH2 0x23DA JUMP JUMPDEST PUSH2 0x1C64 JUMP JUMPDEST PUSH2 0x24D PUSH2 0x472 CALLDATASIZE PUSH1 0x4 PUSH2 0x25F1 JUMP JUMPDEST PUSH2 0x1C85 JUMP JUMPDEST PUSH2 0x22A PUSH2 0x485 CALLDATASIZE PUSH1 0x4 PUSH2 0x2145 JUMP JUMPDEST PUSH1 0x5 PUSH1 0x20 MSTORE PUSH1 0x0 SWAP1 DUP2 MSTORE PUSH1 0x40 SWAP1 KECCAK256 SLOAD PUSH1 0xFF AND DUP2 JUMP JUMPDEST PUSH2 0x4AD PUSH2 0x4A8 CALLDATASIZE PUSH1 0x4 PUSH2 0x211B JUMP JUMPDEST PUSH2 0x1E3D JUMP JUMPDEST PUSH1 0x40 MLOAD PUSH2 0x20E SWAP11 SWAP10 SWAP9 SWAP8 SWAP7 SWAP6 SWAP5 SWAP4 SWAP3 SWAP2 SWAP1 PUSH2 0x262A JUMP JUMPDEST PUSH2 0x24D PUSH2 0x4D1 CALLDATASIZE PUSH1 0x4 PUSH2 0x2145 JUMP JUMPDEST PUSH2 0x1FB8 JUMP JUMPDEST PUSH1 0x4 PUSH1 0x20 MSTORE DUP2 PUSH1 0x0 MSTORE PUSH1 0x40 PUSH1 0x0 KECCAK256 DUP2 DUP2 SLOAD DUP2 LT PUSH2 0x4F2 JUMPI PUSH1 0x0 DUP1 REVERT JUMPDEST SWAP1 PUSH1 0x0 MSTORE PUSH1 0x20 PUSH1 0x0 KECCAK256 ADD PUSH1 0x0 SWAP2 POP SWAP2 POP POP SLOAD DUP2 JUMP JUMPDEST CALLER PUSH1 0x0 SWAP1 DUP2 MSTORE PUSH1 0x8 PUSH1 0x20 SWAP1 DUP2 MSTORE PUSH1 0x40 DUP1 DUP4 KECCAK256 PUSH1 0x1 PUSH1 0xA0 PUSH1 0x2 EXP SUB DUP7 AND DUP5 MSTORE SWAP1 SWAP2 MSTORE SWAP1 KECCAK256 DUP2 SWAP1 SSTORE PUSH1 0x1 JUMPDEST SWAP3 SWAP2 POP POP JUMP JUMPDEST PUSH1 0x0 SLOAD PUSH1 0x1 PUSH1 0xA0 PUSH1 0x2 EXP SUB AND CALLER EQ PUSH2 0x56C JUMPI PUSH1 0x40 MLOAD PUSH1 0xE5 PUSH1 0x2 EXP PUSH3 0x461BCD MUL DUP2 MSTORE PUSH1 0x4 ADD PUSH2 0x563 SWAP1 PUSH2 0x269B JUMP JUMPDEST PUSH1 0x40 MLOAD DUP1 SWAP2 SUB SWAP1 REVERT JUMPDEST PUSH1 0x1 PUSH1 0xA0 PUSH1 0x2 EXP SUB DUP2 AND PUSH1 0x0 DUP2 DUP2 MSTORE PUSH1 0x1 PUSH1 0x20 MSTORE PUSH1 0x40 DUP1 DUP3 KECCAK256 DUP1 SLOAD PUSH1 0xFF NOT AND SWAP1 SSTORE MLOAD PUSH32 0xA3B62BC36326052D97EA62D63C3D60308ED4C3EA8AC079DD8499F1E9C4F80C0F SWAP2 SWAP1 LOG2 POP JUMP JUMPDEST CALLER PUSH1 0x0 SWAP1 DUP2 MSTORE PUSH1 0x1 PUSH1 0x20 MSTORE PUSH1 0x40 SWAP1 KECCAK256 SLOAD PUSH1 0xFF AND PUSH2 0x5E7 JUMPI PUSH1 0x40 MLOAD PUSH1 0xE5 PUSH1 0x2 EXP PUSH3 0x461BCD MUL DUP2 MSTORE PUSH1 0x4 ADD PUSH2 0x563 SWAP1 PUSH2 0x26D2 JUMP JUMPDEST PUSH1 0x1 PUSH1 0xA0 PUSH1 0x2 EXP SUB DUP3 AND PUSH1 0x0 SWAP1 DUP2 MSTORE PUSH1 0x3 PUSH1 0x20 DUP2 DUP2 MSTORE PUSH1 0x40 DUP1 DUP5 KECCAK256 DUP6 DUP6 MSTORE SWAP1 SWAP2 MSTORE DUP3 KECCAK256 ADD SLOAD SWAP1 SUB PUSH2 0x62D JUMPI PUSH1 0x40 MLOAD PUSH1 0xE5 PUSH1 0x2 EXP PUSH3 0x461BCD MUL DUP2 MSTORE PUSH1 0x4 ADD PUSH2 0x563 SWAP1 PUSH2 0x2709 JUMP JUMPDEST PUSH1 0x1 PUSH1 0xA0 PUSH1 0x2 EXP SUB DUP3 AND PUSH1 0x0 SWAP1 DUP2 MSTORE PUSH1 0x3 PUSH1 0x20 SWAP1 DUP2 MSTORE PUSH1 0x40 DUP1 DUP4 KECCAK256 DUP5 DUP5 MSTORE SWAP1 SWAP2 MSTORE SWAP1 KECCAK256 PUSH1 0x6 ADD SLOAD PUSH1 0xFF AND ISZERO PUSH2 0x677 JUMPI PUSH1 0x40 MLOAD PUSH1 0xE5 PUSH1 0x2 EXP PUSH3 0x461BCD MUL DUP2 MSTORE PUSH1 0x4 ADD PUSH2 0x563 SWAP1 PUSH2 0x2740 JUMP JUMPDEST PUSH1 0x1 PUSH1 0xA0 PUSH1 0x2 EXP SUB SWAP1 SWAP2 AND PUSH1 0x0 SWAP1 DUP2 MSTORE PUSH1 0x3 PUSH1 0x20 SWAP1 DUP2 MSTORE PUSH1 0x40 DUP1 DUP4 KECCAK256 SWAP4 DUP4 MSTORE SWAP3 SWAP1 MSTORE KECCAK256 PUSH1 0x6 ADD DUP1 SLOAD PUSH1 0xFF NOT AND PUSH1 0x1 OR SWAP1 SSTORE JUMP JUMPDEST CALLER PUSH1 0x0 SWAP1 DUP2 MSTORE PUSH1 0x1 PUSH1 0x20 MSTORE PUSH1 0x40 SWAP1 KECCAK256 SLOAD PUSH1 0xFF AND PUSH2 0x6DC JUMPI PUSH1 0x40 MLOAD PUSH1 0xE5 PUSH1 0x2 EXP PUSH3 0x461BCD MUL DUP2 MSTORE PUSH1 0x4 ADD PUSH2 0x563 SWAP1 PUSH2 0x26D2 JUMP JUMPDEST PUSH1 0x1 PUSH1 0xA0 PUSH1 0x2 EXP SUB DUP2 AND PUSH2 0x705 JUMPI PUSH1 0x40 MLOAD PUSH1 0xE5 PUSH1 0x2 EXP PUSH3 0x461BCD MUL DUP2 MSTORE PUSH1 0x4 ADD PUSH2 0x563 SWAP1 PUSH2 0x2777 JUMP JUMPDEST PUSH1 0x1 PUSH1 0xA0 PUSH1 0x2 EXP SUB AND PUSH1 0x0 SWAP1 DUP2 MSTORE PUSH1 0x5 PUSH1 0x20 MSTORE PUSH1 0x40 SWAP1 KECCAK256 DUP1 SLOAD PUSH1 0xFF NOT AND PUSH1 0x1 OR SWAP1 SSTORE JUMP JUMPDEST CALLER PUSH1 0x0 SWAP1 DUP2 MSTORE PUSH1 0x4 PUSH1 0x20 MSTORE PUSH1 0x40 SWAP1 KECCAK256 SLOAD PUSH1 0x60 SWAP1 DUP1 PUSH8 0xFFFFFFFFFFFFFFFF DUP2 GT ISZERO PUSH2 0x755 JUMPI PUSH2 0x755 PUSH2 0x22C9 JUMP JUMPDEST PUSH1 0x40 MLOAD SWAP1 DUP1 DUP3 MSTORE DUP1 PUSH1 0x20 MUL PUSH1 0x20 ADD DUP3 ADD PUSH1 0x40 MSTORE DUP1 ISZERO PUSH2 0x78E JUMPI DUP2 PUSH1 0x20 ADD JUMPDEST PUSH2 0x77B PUSH2 0x20A6 JUMP JUMPDEST DUP2 MSTORE PUSH1 0x20 ADD SWAP1 PUSH1 0x1 SWAP1 SUB SWAP1 DUP2 PUSH2 0x773 JUMPI SWAP1 POP JUMPDEST POP SWAP2 POP PUSH1 0x0 JUMPDEST DUP2 DUP2 LT ISZERO PUSH2 0x9A8 JUMPI CALLER PUSH1 0x0 SWAP1 DUP2 MSTORE PUSH1 0x4 PUSH1 0x20 MSTORE PUSH1 0x40 DUP2 KECCAK256 DUP1 SLOAD DUP4 SWAP1 DUP2 LT PUSH2 0x7BD JUMPI PUSH2 0x7BD PUSH2 0x27AE JUMP JUMPDEST PUSH1 0x0 SWAP2 DUP3 MSTORE PUSH1 0x20 DUP1 DUP4 KECCAK256 SWAP1 SWAP2 ADD SLOAD CALLER DUP4 MSTORE PUSH1 0x3 DUP1 DUP4 MSTORE PUSH1 0x40 DUP1 DUP6 KECCAK256 DUP4 DUP7 MSTORE DUP5 MSTORE SWAP4 DUP5 SWAP1 KECCAK256 DUP5 MLOAD PUSH2 0x140 DUP2 ADD DUP7 MSTORE DUP2 SLOAD DUP2 MSTORE PUSH1 0x1 DUP3 ADD SLOAD SWAP5 DUP2 ADD SWAP5 SWAP1 SWAP5 MSTORE PUSH1 0x2 DUP2 ADD SLOAD SWAP5 DUP5 ADD SWAP5 SWAP1 SWAP5 MSTORE DUP4 ADD SLOAD PUSH1 0x60 DUP4 ADD MSTORE PUSH1 0x4 DUP4 ADD SLOAD PUSH1 0xFF SWAP1 DUP2 AND ISZERO ISZERO PUSH1 0x80 DUP5 ADD MSTORE PUSH1 0x5 DUP5 ADD SLOAD PUSH1 0xA0 DUP5 ADD MSTORE PUSH1 0x6 DUP5 ADD SLOAD AND ISZERO ISZERO PUSH1 0xC0 DUP4 ADD MSTORE PUSH1 0x7 DUP4 ADD DUP1 SLOAD SWAP2 SWAP5 POP SWAP2 SWAP3 SWAP2 PUSH1 0xE0 DUP5 ADD SWAP2 PUSH2 0x850 SWAP1 PUSH2 0x27C7 JUMP JUMPDEST DUP1 PUSH1 0x1F ADD PUSH1 0x20 DUP1 SWAP2 DIV MUL PUSH1 0x20 ADD PUSH1 0x40 MLOAD SWAP1 DUP2 ADD PUSH1 0x40 MSTORE DUP1 SWAP3 SWAP2 SWAP1 DUP2 DUP2 MSTORE PUSH1 0x20 ADD DUP3 DUP1 SLOAD PUSH2 0x87C SWAP1 PUSH2 0x27C7 JUMP JUMPDEST DUP1 ISZERO PUSH2 0x8C9 JUMPI DUP1 PUSH1 0x1F LT PUSH2 0x89E JUMPI PUSH2 0x100 DUP1 DUP4 SLOAD DIV MUL DUP4 MSTORE SWAP2 PUSH1 0x20 ADD SWAP2 PUSH2 0x8C9 JUMP JUMPDEST DUP3 ADD SWAP2 SWAP1 PUSH1 0x0 MSTORE PUSH1 0x20 PUSH1 0x0 KECCAK256 SWAP1 JUMPDEST DUP2 SLOAD DUP2 MSTORE SWAP1 PUSH1 0x1 ADD SWAP1 PUSH1 0x20 ADD DUP1 DUP4 GT PUSH2 0x8AC JUMPI DUP3 SWAP1 SUB PUSH1 0x1F AND DUP3 ADD SWAP2 JUMPDEST POP POP POP SWAP2 DUP4 MSTORE POP POP PUSH1 0x8 DUP3 ADD SLOAD PUSH1 0xFF AND ISZERO ISZERO PUSH1 0x20 DUP3 ADD MSTORE PUSH1 0x9 DUP3 ADD DUP1 SLOAD PUSH1 0x40 SWAP1 SWAP3 ADD SWAP2 PUSH2 0x8F5 SWAP1 PUSH2 0x27C7 JUMP JUMPDEST DUP1 PUSH1 0x1F ADD PUSH1 0x20 DUP1 SWAP2 DIV MUL PUSH1 0x20 ADD PUSH1 0x40 MLOAD SWAP1 DUP2 ADD PUSH1 0x40 MSTORE DUP1 SWAP3 SWAP2 SWAP1 DUP2 DUP2 MSTORE PUSH1 0x20 ADD DUP3 DUP1 SLOAD PUSH2 0x921 SWAP1 PUSH2 0x27C7 JUMP JUMPDEST DUP1 ISZERO PUSH2 0x96E JUMPI DUP1 PUSH1 0x1F LT PUSH2 0x943 JUMPI PUSH2 0x100 DUP1 DUP4 SLOAD DIV MUL DUP4 MSTORE SWAP2 PUSH1 0x20 ADD SWAP2 PUSH2 0x96E JUMP JUMPDEST DUP3 ADD SWAP2 SWAP1 PUSH1 0x0 MSTORE PUSH1 0x20 PUSH1 0x0 KECCAK256 SWAP1 JUMPDEST DUP2 SLOAD DUP2 MSTORE SWAP1 PUSH1 0x1 ADD SWAP1 PUSH1 0x20 ADD DUP1 DUP4 GT PUSH2 0x951 JUMPI DUP3 SWAP1 SUB PUSH1 0x1F AND DUP3 ADD SWAP2 JUMPDEST POP POP POP POP POP DUP2 MSTORE POP POP DUP5 DUP4 DUP2 MLOAD DUP2 LT PUSH2 0x989 JUMPI PUSH2 0x989 PUSH2 0x27AE JUMP JUMPDEST PUSH1 0x20 MUL PUSH1 0x20 ADD ADD DUP2 SWAP1 MSTORE POP POP DUP1 DUP1 PUSH2 0x9A0 SWAP1 PUSH2 0x281D JUMP JUMPDEST SWAP2 POP POP PUSH2 0x794 JUMP JUMPDEST POP POP SWAP1 JUMP JUMPDEST PUSH1 0x9 PUSH1 0x20 MSTORE DUP2 PUSH1 0x0 MSTORE PUSH1 0x40 PUSH1 0x0 KECCAK256 DUP2 DUP2 SLOAD DUP2 LT PUSH2 0x9C9 JUMPI PUSH1 0x0 DUP1 REVERT JUMPDEST SWAP1 PUSH1 0x0 MSTORE PUSH1 0x20 PUSH1 0x0 KECCAK256 SWAP1 PUSH1 0x3 MUL ADD PUSH1 0x0 SWAP2 POP SWAP2 POP POP DUP1 PUSH1 0x0 ADD SLOAD SWAP1 DUP1 PUSH1 0x1 ADD DUP1 SLOAD PUSH2 0x9F3 SWAP1 PUSH2 0x27C7 JUMP JUMPDEST DUP1 PUSH1 0x1F ADD PUSH1 0x20 DUP1 SWAP2 DIV MUL PUSH1 0x20 ADD PUSH1 0x40 MLOAD SWAP1 DUP2 ADD PUSH1 0x40 MSTORE DUP1 SWAP3 SWAP2 SWAP1 DUP2 DUP2 MSTORE PUSH1 0x20 ADD DUP3 DUP1 SLOAD PUSH2 0xA1F SWAP1 PUSH2 0x27C7 JUMP JUMPDEST DUP1 ISZERO PUSH2 0xA6C JUMPI DUP1 PUSH1 0x1F LT PUSH2 0xA41 JUMPI PUSH2 0x100 DUP1 DUP4 SLOAD DIV MUL DUP4 MSTORE SWAP2 PUSH1 0x20 ADD SWAP2 PUSH2 0xA6C JUMP JUMPDEST DUP3 ADD SWAP2 SWAP1 PUSH1 0x0 MSTORE PUSH1 0x20 PUSH1 0x0 KECCAK256 SWAP1 JUMPDEST DUP2 SLOAD DUP2 MSTORE SWAP1 PUSH1 0x1 ADD SWAP1 PUSH1 0x20 ADD DUP1 DUP4 GT PUSH2 0xA4F JUMPI DUP3 SWAP1 SUB PUSH1 0x1F AND DUP3 ADD SWAP2 JUMPDEST POP POP POP PUSH1 0x2 SWAP1 SWAP4 ADD SLOAD SWAP2 SWAP3 POP POP PUSH1 0xFF DUP1 DUP3 AND SWAP2 PUSH2 0x100 SWAP1 DIV AND DUP5 JUMP JUMPDEST CALLER PUSH1 0x0 SWAP1 DUP2 MSTORE PUSH1 0x1 PUSH1 0x20 MSTORE PUSH1 0x40 SWAP1 KECCAK256 SLOAD PUSH1 0xFF AND PUSH2 0xABA JUMPI PUSH1 0x40 MLOAD PUSH1 0xE5 PUSH1 0x2 EXP PUSH3 0x461BCD MUL DUP2 MSTORE PUSH1 0x4 ADD PUSH2 0x563 SWAP1 PUSH2 0x26D2 JUMP JUMPDEST PUSH1 0x1 PUSH1 0xA0 PUSH1 0x2 EXP SUB DUP2 AND PUSH2 0xAE3 JUMPI PUSH1 0x40 MLOAD PUSH1 0xE5 PUSH1 0x2 EXP PUSH3 0x461BCD MUL DUP2 MSTORE PUSH1 0x4 ADD PUSH2 0x563 SWAP1 PUSH2 0x2777 JUMP JUMPDEST PUSH1 0x1 PUSH1 0xA0 PUSH1 0x2 EXP SUB DUP2 AND PUSH1 0x0 SWAP1 DUP2 MSTORE PUSH1 0x5 PUSH1 0x20 MSTORE PUSH1 0x40 SWAP1 KECCAK256 SLOAD PUSH1 0xFF AND ISZERO ISZERO PUSH1 0x1 EQ PUSH2 0xB53 JUMPI PUSH1 0x40 MLOAD PUSH1 0xE5 PUSH1 0x2 EXP PUSH3 0x461BCD MUL DUP2 MSTORE PUSH1 0x20 PUSH1 0x4 DUP3 ADD MSTORE PUSH1 0x19 PUSH1 0x24 DUP3 ADD MSTORE PUSH32 0x6164647265737320617265206E6F742061207465616368657200000000000000 PUSH1 0x44 DUP3 ADD MSTORE PUSH1 0x64 ADD PUSH2 0x563 JUMP JUMPDEST PUSH1 0x1 PUSH1 0xA0 PUSH1 0x2 EXP SUB AND PUSH1 0x0 SWAP1 DUP2 MSTORE PUSH1 0x5 PUSH1 0x20 MSTORE PUSH1 0x40 SWAP1 KECCAK256 DUP1 SLOAD PUSH1 0xFF NOT AND SWAP1 SSTORE JUMP JUMPDEST CALLER PUSH1 0x0 SWAP1 DUP2 MSTORE PUSH1 0x5 PUSH1 0x20 MSTORE PUSH1 0x40 SWAP1 KECCAK256 SLOAD PUSH1 0xFF AND PUSH2 0xBD6 JUMPI PUSH1 0x40 MLOAD PUSH1 0xE5 PUSH1 0x2 EXP PUSH3 0x461BCD MUL DUP2 MSTORE PUSH1 0x20 PUSH1 0x4 DUP3 ADD MSTORE PUSH1 0xD PUSH1 0x24 DUP3 ADD MSTORE PUSH32 0x4E6F742061207465616368657200000000000000000000000000000000000000 PUSH1 0x44 DUP3 ADD MSTORE PUSH1 0x64 ADD PUSH2 0x563 JUMP JUMPDEST PUSH1 0x1 PUSH1 0xA0 PUSH1 0x2 EXP SUB DUP6 AND PUSH2 0xBFF JUMPI PUSH1 0x40 MLOAD PUSH1 0xE5 PUSH1 0x2 EXP PUSH3 0x461BCD MUL DUP2 MSTORE PUSH1 0x4 ADD PUSH2 0x563 SWAP1 PUSH2 0x2777 JUMP JUMPDEST PUSH1 0x0 DUP4 GT PUSH2 0xC52 JUMPI PUSH1 0x40 MLOAD PUSH1 0xE5 PUSH1 0x2 EXP PUSH3 0x461BCD MUL DUP2 MSTORE PUSH1 0x20 PUSH1 0x4 DUP3 ADD MSTORE PUSH1 0xF PUSH1 0x24 DUP3 ADD MSTORE PUSH32 0x496E76616C696420637265646974730000000000000000000000000000000000 PUSH1 0x44 DUP3 ADD MSTORE PUSH1 0x64 ADD PUSH2 0x563 JUMP JUMPDEST PUSH1 0x0 DUP5 DUP2 MSTORE PUSH1 0x6 PUSH1 0x20 MSTORE PUSH1 0x40 SWAP1 KECCAK256 SLOAD PUSH1 0xFF AND ISZERO ISZERO PUSH1 0x1 EQ PUSH2 0xCB8 JUMPI PUSH1 0x40 MLOAD PUSH1 0xE5 PUSH1 0x2 EXP PUSH3 0x461BCD MUL DUP2 MSTORE PUSH1 0x20 PUSH1 0x4 DUP3 ADD MSTORE PUSH1 0xF PUSH1 0x24 DUP3 ADD MSTORE PUSH32 0x636F75727365206E6F7420657869740000000000000000000000000000000000 PUSH1 0x44 DUP3 ADD MSTORE PUSH1 0x64 ADD PUSH2 0x563 JUMP JUMPDEST PUSH1 0x0 TIMESTAMP SWAP1 POP PUSH1 0x40 MLOAD DUP1 PUSH2 0x140 ADD PUSH1 0x40 MSTORE DUP1 DUP7 DUP2 MSTORE PUSH1 0x20 ADD DUP6 DUP2 MSTORE PUSH1 0x20 ADD DUP5 DUP2 MSTORE PUSH1 0x20 ADD DUP3 DUP2 MSTORE PUSH1 0x20 ADD PUSH1 0x1 ISZERO ISZERO DUP2 MSTORE PUSH1 0x20 ADD PUSH1 0x0 DUP2 MSTORE PUSH1 0x20 ADD PUSH1 0x0 ISZERO ISZERO DUP2 MSTORE PUSH1 0x20 ADD DUP4 DUP2 MSTORE PUSH1 0x20 ADD PUSH1 0x0 ISZERO ISZERO DUP2 MSTORE PUSH1 0x20 ADD PUSH1 0x40 MLOAD DUP1 PUSH1 0x20 ADD PUSH1 0x40 MSTORE DUP1 PUSH1 0x0 DUP2 MSTORE POP DUP2 MSTORE POP PUSH1 0x3 PUSH1 0x0 DUP9 PUSH1 0x1 PUSH1 0xA0 PUSH1 0x2 EXP SUB AND PUSH1 0x1 PUSH1 0xA0 PUSH1 0x2 EXP SUB AND DUP2 MSTORE PUSH1 0x20 ADD SWAP1 DUP2 MSTORE PUSH1 0x20 ADD PUSH1 0x0 KECCAK256 PUSH1 0x0 DUP8 DUP2 MSTORE PUSH1 0x20 ADD SWAP1 DUP2 MSTORE PUSH1 0x20 ADD PUSH1 0x0 KECCAK256 PUSH1 0x0 DUP3 ADD MLOAD DUP2 PUSH1 0x0 ADD SSTORE PUSH1 0x20 DUP3 ADD MLOAD DUP2 PUSH1 0x1 ADD SSTORE PUSH1 0x40 DUP3 ADD MLOAD DUP2 PUSH1 0x2 ADD SSTORE PUSH1 0x60 DUP3 ADD MLOAD DUP2 PUSH1 0x3 ADD SSTORE PUSH1 0x80 DUP3 ADD MLOAD DUP2 PUSH1 0x4 ADD PUSH1 0x0 PUSH2 0x100 EXP DUP2 SLOAD DUP2 PUSH1 0xFF MUL NOT AND SWAP1 DUP4 ISZERO ISZERO MUL OR SWAP1 SSTORE POP PUSH1 0xA0 DUP3 ADD MLOAD DUP2 PUSH1 0x5 ADD SSTORE PUSH1 0xC0 DUP3 ADD MLOAD DUP2 PUSH1 0x6 ADD PUSH1 0x0 PUSH2 0x100 EXP DUP2 SLOAD DUP2 PUSH1 0xFF MUL NOT AND SWAP1 DUP4 ISZERO ISZERO MUL OR SWAP1 SSTORE POP PUSH1 0xE0 DUP3 ADD MLOAD DUP2 PUSH1 0x7 ADD SWAP1 DUP2 PUSH2 0xDD9 SWAP2 SWAP1 PUSH2 0x2885 JUMP JUMPDEST POP PUSH2 0x100 DUP3 ADD MLOAD PUSH1 0x8 DUP3 ADD DUP1 SLOAD PUSH1 0xFF NOT AND SWAP2 ISZERO ISZERO SWAP2 SWAP1 SWAP2 OR SWAP1 SSTORE PUSH2 0x120 DUP3 ADD MLOAD PUSH1 0x9 DUP3 ADD SWAP1 PUSH2 0xE08 SWAP1 DUP3 PUSH2 0x2885 JUMP JUMPDEST POP POP POP PUSH1 0x1 PUSH1 0xA0 PUSH1 0x2 EXP SUB SWAP1 SWAP6 AND PUSH1 0x0 SWAP1 DUP2 MSTORE PUSH1 0x4 PUSH1 0x20 SWAP1 DUP2 MSTORE PUSH1 0x40 DUP3 KECCAK256 DUP1 SLOAD PUSH1 0x1 DUP2 ADD DUP3 SSTORE SWAP1 DUP4 MSTORE SWAP2 KECCAK256 ADD SWAP4 SWAP1 SWAP4 SSTORE POP POP POP POP JUMP JUMPDEST PUSH1 0x1 PUSH1 0xA0 PUSH1 0x2 EXP SUB DUP2 AND PUSH1 0x0 SWAP1 DUP2 MSTORE PUSH1 0x8 PUSH1 0x20 SWAP1 DUP2 MSTORE PUSH1 0x40 DUP1 DUP4 KECCAK256 CALLER DUP5 MSTORE SWAP1 SWAP2 MSTORE SWAP1 KECCAK256 SLOAD PUSH1 0x60 SWAP1 PUSH2 0xEB4 JUMPI PUSH1 0x40 MLOAD PUSH1 0xE5 PUSH1 0x2 EXP PUSH3 0x461BCD MUL DUP2 MSTORE PUSH1 0x20 PUSH1 0x4 DUP3 ADD MSTORE PUSH1 0x15 PUSH1 0x24 DUP3 ADD MSTORE PUSH32 0x796F7520646F206E6F7420626520616C6C6F7765640000000000000000000000 PUSH1 0x44 DUP3 ADD MSTORE PUSH1 0x64 ADD PUSH2 0x563 JUMP JUMPDEST PUSH1 0x1 PUSH1 0xA0 PUSH1 0x2 EXP SUB DUP3 AND PUSH1 0x0 SWAP1 DUP2 MSTORE PUSH1 0x4 PUSH1 0x20 MSTORE PUSH1 0x40 SWAP1 KECCAK256 SLOAD DUP1 PUSH8 0xFFFFFFFFFFFFFFFF DUP2 GT ISZERO PUSH2 0xEE6 JUMPI PUSH2 0xEE6 PUSH2 0x22C9 JUMP JUMPDEST PUSH1 0x40 MLOAD SWAP1 DUP1 DUP3 MSTORE DUP1 PUSH1 0x20 MUL PUSH1 0x20 ADD DUP3 ADD PUSH1 0x40 MSTORE DUP1 ISZERO PUSH2 0xF1F JUMPI DUP2 PUSH1 0x20 ADD JUMPDEST PUSH2 0xF0C PUSH2 0x20A6 JUMP JUMPDEST DUP2 MSTORE PUSH1 0x20 ADD SWAP1 PUSH1 0x1 SWAP1 SUB SWAP1 DUP2 PUSH2 0xF04 JUMPI SWAP1 POP JUMPDEST POP SWAP2 POP PUSH1 0x0 JUMPDEST DUP2 DUP2 LT ISZERO PUSH2 0x114B JUMPI PUSH1 0x1 PUSH1 0xA0 PUSH1 0x2 EXP SUB DUP5 AND PUSH1 0x0 SWAP1 DUP2 MSTORE PUSH1 0x4 PUSH1 0x20 MSTORE PUSH1 0x40 DUP2 KECCAK256 DUP1 SLOAD DUP4 SWAP1 DUP2 LT PUSH2 0xF57 JUMPI PUSH2 0xF57 PUSH2 0x27AE JUMP JUMPDEST PUSH1 0x0 SWAP2 DUP3 MSTORE PUSH1 0x20 DUP1 DUP4 KECCAK256 SWAP1 SWAP2 ADD SLOAD PUSH1 0x1 PUSH1 0xA0 PUSH1 0x2 EXP SUB DUP9 AND DUP4 MSTORE PUSH1 0x3 DUP1 DUP4 MSTORE PUSH1 0x40 DUP1 DUP6 KECCAK256 DUP4 DUP7 MSTORE DUP5 MSTORE SWAP4 DUP5 SWAP1 KECCAK256 DUP5 MLOAD PUSH2 0x140 DUP2 ADD DUP7 MSTORE DUP2 SLOAD DUP2 MSTORE PUSH1 0x1 DUP3 ADD SLOAD SWAP5 DUP2 ADD SWAP5 SWAP1 SWAP5 MSTORE PUSH1 0x2 DUP2 ADD SLOAD SWAP5 DUP5 ADD SWAP5 SWAP1 SWAP5 MSTORE DUP4 ADD SLOAD PUSH1 0x60 DUP4 ADD MSTORE PUSH1 0x4 DUP4 ADD SLOAD PUSH1 0xFF SWAP1 DUP2 AND ISZERO ISZERO PUSH1 0x80 DUP5 ADD MSTORE PUSH1 0x5 DUP5 ADD SLOAD PUSH1 0xA0 DUP5 ADD MSTORE PUSH1 0x6 DUP5 ADD SLOAD AND ISZERO ISZERO PUSH1 0xC0 DUP4 ADD MSTORE PUSH1 0x7 DUP4 ADD DUP1 SLOAD SWAP2 SWAP5 POP SWAP2 SWAP3 SWAP2 PUSH1 0xE0 DUP5 ADD SWAP2 PUSH2 0xFF3 SWAP1 PUSH2 0x27C7 JUMP JUMPDEST DUP1 PUSH1 0x1F ADD PUSH1 0x20 DUP1 SWAP2 DIV MUL PUSH1 0x20 ADD PUSH1 0x40 MLOAD SWAP1 DUP2 ADD PUSH1 0x40 MSTORE DUP1 SWAP3 SWAP2 SWAP1 DUP2 DUP2 MSTORE PUSH1 0x20 ADD DUP3 DUP1 SLOAD PUSH2 0x101F SWAP1 PUSH2 0x27C7 JUMP JUMPDEST DUP1 ISZERO PUSH2 0x106C JUMPI DUP1 PUSH1 0x1F LT PUSH2 0x1041 JUMPI PUSH2 0x100 DUP1 DUP4 SLOAD DIV MUL DUP4 MSTORE SWAP2 PUSH1 0x20 ADD SWAP2 PUSH2 0x106C JUMP JUMPDEST DUP3 ADD SWAP2 SWAP1 PUSH1 0x0 MSTORE PUSH1 0x20 PUSH1 0x0 KECCAK256 SWAP1 JUMPDEST DUP2 SLOAD DUP2 MSTORE SWAP1 PUSH1 0x1 ADD SWAP1 PUSH1 0x20 ADD DUP1 DUP4 GT PUSH2 0x104F JUMPI DUP3 SWAP1 SUB PUSH1 0x1F AND DUP3 ADD SWAP2 JUMPDEST POP POP POP SWAP2 DUP4 MSTORE POP POP PUSH1 0x8 DUP3 ADD SLOAD PUSH1 0xFF AND ISZERO ISZERO PUSH1 0x20 DUP3 ADD MSTORE PUSH1 0x9 DUP3 ADD DUP1 SLOAD PUSH1 0x40 SWAP1 SWAP3 ADD SWAP2 PUSH2 0x1098 SWAP1 PUSH2 0x27C7 JUMP JUMPDEST DUP1 PUSH1 0x1F ADD PUSH1 0x20 DUP1 SWAP2 DIV MUL PUSH1 0x20 ADD PUSH1 0x40 MLOAD SWAP1 DUP2 ADD PUSH1 0x40 MSTORE DUP1 SWAP3 SWAP2 SWAP1 DUP2 DUP2 MSTORE PUSH1 0x20 ADD DUP3 DUP1 SLOAD PUSH2 0x10C4 SWAP1 PUSH2 0x27C7 JUMP JUMPDEST DUP1 ISZERO PUSH2 0x1111 JUMPI DUP1 PUSH1 0x1F LT PUSH2 0x10E6 JUMPI PUSH2 0x100 DUP1 DUP4 SLOAD DIV MUL DUP4 MSTORE SWAP2 PUSH1 0x20 ADD SWAP2 PUSH2 0x1111 JUMP JUMPDEST DUP3 ADD SWAP2 SWAP1 PUSH1 0x0 MSTORE PUSH1 0x20 PUSH1 0x0 KECCAK256 SWAP1 JUMPDEST DUP2 SLOAD DUP2 MSTORE SWAP1 PUSH1 0x1 ADD SWAP1 PUSH1 0x20 ADD DUP1 DUP4 GT PUSH2 0x10F4 JUMPI DUP3 SWAP1 SUB PUSH1 0x1F AND DUP3 ADD SWAP2 JUMPDEST POP POP POP POP POP DUP2 MSTORE POP POP DUP5 DUP4 DUP2 MLOAD DUP2 LT PUSH2 0x112C JUMPI PUSH2 0x112C PUSH2 0x27AE JUMP JUMPDEST PUSH1 0x20 MUL PUSH1 0x20 ADD ADD DUP2 SWAP1 MSTORE POP POP DUP1 DUP1 PUSH2 0x1143 SWAP1 PUSH2 0x281D JUMP JUMPDEST SWAP2 POP POP PUSH2 0xF25 JUMP JUMPDEST POP PUSH1 0x1 PUSH1 0xA0 PUSH1 0x2 EXP SUB DUP4 AND PUSH1 0x0 SWAP1 DUP2 MSTORE PUSH1 0x8 PUSH1 0x20 SWAP1 DUP2 MSTORE PUSH1 0x40 DUP1 DUP4 KECCAK256 CALLER DUP5 MSTORE SWAP1 SWAP2 MSTORE DUP2 KECCAK256 DUP1 SLOAD PUSH1 0x1 SWAP3 SWAP1 PUSH2 0x1180 SWAP1 DUP5 SWAP1 PUSH2 0x294B JUMP JUMPDEST SWAP1 SWAP2 SSTORE POP SWAP2 SWAP4 SWAP3 POP POP POP JUMP JUMPDEST PUSH1 0x60 PUSH1 0x7 DUP1 SLOAD DUP1 PUSH1 0x20 MUL PUSH1 0x20 ADD PUSH1 0x40 MLOAD SWAP1 DUP2 ADD PUSH1 0x40 MSTORE DUP1 SWAP3 SWAP2 SWAP1 DUP2 DUP2 MSTORE PUSH1 0x20 ADD DUP3 DUP1 SLOAD DUP1 ISZERO PUSH2 0x11DA JUMPI PUSH1 0x20 MUL DUP3 ADD SWAP2 SWAP1 PUSH1 0x0 MSTORE PUSH1 0x20 PUSH1 0x0 KECCAK256 SWAP1 JUMPDEST DUP2 SLOAD DUP2 MSTORE PUSH1 0x20 ADD SWAP1 PUSH1 0x1 ADD SWAP1 DUP1 DUP4 GT PUSH2 0x11C6 JUMPI JUMPDEST POP POP POP POP POP SWAP1 POP SWAP1 JUMP JUMPDEST CALLER PUSH1 0x0 SWAP1 DUP2 MSTORE PUSH1 0x1 PUSH1 0x20 MSTORE PUSH1 0x40 SWAP1 KECCAK256 SLOAD PUSH1 0xFF AND PUSH2 0x1216 JUMPI PUSH1 0x40 MLOAD PUSH1 0xE5 PUSH1 0x2 EXP PUSH3 0x461BCD MUL DUP2 MSTORE PUSH1 0x4 ADD PUSH2 0x563 SWAP1 PUSH2 0x26D2 JUMP JUMPDEST PUSH1 0x1 PUSH1 0xA0 PUSH1 0x2 EXP SUB DUP3 AND PUSH1 0x0 SWAP1 DUP2 MSTORE PUSH1 0x9 PUSH1 0x20 MSTORE PUSH1 0x40 SWAP1 KECCAK256 DUP1 SLOAD DUP3 SWAP1 DUP2 LT PUSH2 0x1240 JUMPI PUSH2 0x1240 PUSH2 0x27AE JUMP JUMPDEST PUSH1 0x0 SWAP2 DUP3 MSTORE PUSH1 0x20 SWAP1 SWAP2 KECCAK256 PUSH1 0x2 PUSH1 0x3 SWAP1 SWAP3 MUL ADD ADD SLOAD PUSH1 0xFF AND ISZERO PUSH2 0x12A7 JUMPI PUSH1 0x40 MLOAD PUSH1 0xE5 PUSH1 0x2 EXP PUSH3 0x461BCD MUL DUP2 MSTORE PUSH1 0x20 PUSH1 0x4 DUP3 ADD MSTORE PUSH1 0x19 PUSH1 0x24 DUP3 ADD MSTORE PUSH32 0x5472616E7366657220616C726561647920617070726F76656400000000000000 PUSH1 0x44 DUP3 ADD MSTORE PUSH1 0x64 ADD PUSH2 0x563 JUMP JUMPDEST PUSH1 0x1 PUSH1 0xA0 PUSH1 0x2 EXP SUB DUP3 AND PUSH1 0x0 SWAP1 DUP2 MSTORE PUSH1 0x9 PUSH1 0x20 MSTORE PUSH1 0x40 SWAP1 KECCAK256 DUP1 SLOAD PUSH1 0x1 SWAP2 SWAP1 DUP4 SWAP1 DUP2 LT PUSH2 0x12D5 JUMPI PUSH2 0x12D5 PUSH2 0x27AE JUMP JUMPDEST PUSH1 0x0 SWAP2 DUP3 MSTORE PUSH1 0x20 SWAP1 SWAP2 KECCAK256 PUSH1 0x3 SWAP1 SWAP2 MUL ADD PUSH1 0x2 ADD DUP1 SLOAD PUSH1 0xFF NOT AND SWAP2 ISZERO ISZERO SWAP2 SWAP1 SWAP2 OR SWAP1 SSTORE POP POP JUMP JUMPDEST PUSH1 0x0 SLOAD PUSH1 0x1 PUSH1 0xA0 PUSH1 0x2 EXP SUB AND CALLER EQ PUSH2 0x1328 JUMPI PUSH1 0x40 MLOAD PUSH1 0xE5 PUSH1 0x2 EXP PUSH3 0x461BCD MUL DUP2 MSTORE PUSH1 0x4 ADD PUSH2 0x563 SWAP1 PUSH2 0x269B JUMP JUMPDEST PUSH1 0x1 PUSH1 0xA0 PUSH1 0x2 EXP SUB DUP2 AND PUSH1 0x0 DUP2 DUP2 MSTORE PUSH1 0x1 PUSH1 0x20 DUP2 SWAP1 MSTORE PUSH1 0x40 DUP1 DUP4 KECCAK256 DUP1 SLOAD PUSH1 0xFF NOT AND SWAP1 SWAP3 OR SWAP1 SWAP2 SSTORE MLOAD PUSH32 0x44D6D25963F097AD14F29F06854A01F575648A1EF82F30E562CCD3889717E339 SWAP2 SWAP1 LOG2 POP JUMP JUMPDEST PUSH1 0x0 SLOAD PUSH1 0x1 PUSH1 0xA0 PUSH1 0x2 EXP SUB AND CALLER EQ PUSH2 0x13A4 JUMPI PUSH1 0x40 MLOAD PUSH1 0xE5 PUSH1 0x2 EXP PUSH3 0x461BCD MUL DUP2 MSTORE PUSH1 0x4 ADD PUSH2 0x563 SWAP1 PUSH2 0x269B JUMP JUMPDEST PUSH1 0x0 DUP1 SLOAD PUSH1 0x40 MLOAD PUSH1 0x1 PUSH1 0xA0 PUSH1 0x2 EXP SUB SWAP1 SWAP2 AND SWAP1 PUSH32 0x8BE0079C531659141344CD1FD0A4F28419497F9722A3DAAFE3B4186F6B6457E0 SWAP1 DUP4 SWAP1 LOG3 PUSH1 0x0 DUP1 SLOAD PUSH20 0xFFFFFFFFFFFFFFFFFFFFFFFFFFFFFFFFFFFFFFFF NOT AND SWAP1 SSTORE JUMP JUMPDEST CALLER PUSH1 0x0 SWAP1 DUP2 MSTORE PUSH1 0x3 PUSH1 0x20 DUP2 DUP2 MSTORE PUSH1 0x40 DUP1 DUP5 KECCAK256 DUP7 DUP6 MSTORE SWAP1 SWAP2 MSTORE DUP3 KECCAK256 ADD SLOAD SWAP1 SUB PUSH2 0x1438 JUMPI PUSH1 0x40 MLOAD PUSH1 0xE5 PUSH1 0x2 EXP PUSH3 0x461BCD MUL DUP2 MSTORE PUSH1 0x4 ADD PUSH2 0x563 SWAP1 PUSH2 0x2709 JUMP JUMPDEST CALLER PUSH1 0x0 SWAP1 DUP2 MSTORE PUSH1 0x3 PUSH1 0x20 SWAP1 DUP2 MSTORE PUSH1 0x40 DUP1 DUP4 KECCAK256 DUP6 DUP5 MSTORE SWAP1 SWAP2 MSTORE SWAP1 KECCAK256 PUSH1 0x6 ADD SLOAD PUSH1 0xFF AND ISZERO PUSH2 0x1479 JUMPI PUSH1 0x40 MLOAD PUSH1 0xE5 PUSH1 0x2 EXP PUSH3 0x461BCD MUL DUP2 MSTORE PUSH1 0x4 ADD PUSH2 0x563 SWAP1 PUSH2 0x2740 JUMP JUMPDEST CALLER PUSH1 0x0 SWAP1 DUP2 MSTORE PUSH1 0x9 PUSH1 0x20 SWAP1 DUP2 MSTORE PUSH1 0x40 DUP1 DUP4 KECCAK256 DUP2 MLOAD PUSH1 0x80 DUP2 ADD DUP4 MSTORE DUP7 DUP2 MSTORE DUP1 DUP5 ADD DUP7 DUP2 MSTORE SWAP3 DUP2 ADD DUP6 SWAP1 MSTORE PUSH1 0x60 DUP2 ADD DUP6 SWAP1 MSTORE DUP2 SLOAD PUSH1 0x1 DUP2 DUP2 ADD DUP5 SSTORE SWAP3 DUP7 MSTORE SWAP4 SWAP1 SWAP5 KECCAK256 DUP5 MLOAD PUSH1 0x3 SWAP1 SWAP5 MUL ADD SWAP3 DUP4 SSTORE SWAP1 MLOAD SWAP1 DUP3 ADD SWAP1 PUSH2 0x14D4 SWAP1 DUP3 PUSH2 0x2885 JUMP JUMPDEST POP PUSH1 0x40 DUP3 ADD MLOAD PUSH1 0x2 SWAP1 SWAP2 ADD DUP1 SLOAD PUSH1 0x60 SWAP1 SWAP4 ADD MLOAD ISZERO ISZERO PUSH2 0x100 MUL PUSH2 0xFF00 NOT SWAP3 ISZERO ISZERO SWAP3 SWAP1 SWAP3 AND PUSH2 0xFFFF NOT SWAP1 SWAP4 AND SWAP3 SWAP1 SWAP3 OR OR SWAP1 SSTORE POP POP JUMP JUMPDEST PUSH2 0x1535 PUSH1 0x40 MLOAD DUP1 PUSH1 0x80 ADD PUSH1 0x40 MSTORE DUP1 PUSH1 0x0 DUP2 MSTORE PUSH1 0x20 ADD PUSH1 0x60 DUP2 MSTORE PUSH1 0x20 ADD PUSH1 0x0 DUP2 MSTORE PUSH1 0x20 ADD PUSH1 0x0 DUP2 MSTORE POP SWAP1 JUMP JUMPDEST PUSH1 0x0 DUP3 DUP2 MSTORE PUSH1 0x6 PUSH1 0x20 MSTORE PUSH1 0x40 SWAP1 KECCAK256 DUP1 SLOAD PUSH1 0xFF NOT AND PUSH1 0x1 OR SWAP1 SSTORE PUSH1 0x2 PUSH1 0x0 DUP4 DUP2 MSTORE PUSH1 0x20 ADD SWAP1 DUP2 MSTORE PUSH1 0x20 ADD PUSH1 0x0 KECCAK256 PUSH1 0x40 MLOAD DUP1 PUSH1 0x80 ADD PUSH1 0x40 MSTORE SWAP1 DUP2 PUSH1 0x0 DUP3 ADD SLOAD DUP2 MSTORE PUSH1 0x20 ADD PUSH1 0x1 DUP3 ADD DUP1 SLOAD PUSH2 0x1586 SWAP1 PUSH2 0x27C7 JUMP JUMPDEST DUP1 PUSH1 0x1F ADD PUSH1 0x20 DUP1 SWAP2 DIV MUL PUSH1 0x20 ADD PUSH1 0x40 MLOAD SWAP1 DUP2 ADD PUSH1 0x40 MSTORE DUP1 SWAP3 SWAP2 SWAP1 DUP2 DUP2 MSTORE PUSH1 0x20 ADD DUP3 DUP1 SLOAD PUSH2 0x15B2 SWAP1 PUSH2 0x27C7 JUMP JUMPDEST DUP1 ISZERO PUSH2 0x15FF JUMPI DUP1 PUSH1 0x1F LT PUSH2 0x15D4 JUMPI PUSH2 0x100 DUP1 DUP4 SLOAD DIV MUL DUP4 MSTORE SWAP2 PUSH1 0x20 ADD SWAP2 PUSH2 0x15FF JUMP JUMPDEST DUP3 ADD SWAP2 SWAP1 PUSH1 0x0 MSTORE PUSH1 0x20 PUSH1 0x0 KECCAK256 SWAP1 JUMPDEST DUP2 SLOAD DUP2 MSTORE SWAP1 PUSH1 0x1 ADD SWAP1 PUSH1 0x20 ADD DUP1 DUP4 GT PUSH2 0x15E2 JUMPI DUP3 SWAP1 SUB PUSH1 0x1F AND DUP3 ADD SWAP2 JUMPDEST POP POP POP POP POP DUP2 MSTORE PUSH1 0x20 ADD PUSH1 0x2 DUP3 ADD SLOAD DUP2 MSTORE PUSH1 0x20 ADD PUSH1 0x3 DUP3 ADD SLOAD DUP2 MSTORE POP POP SWAP1 POP SWAP2 SWAP1 POP JUMP JUMPDEST PUSH1 0x60 PUSH1 0x1 PUSH1 0xA0 PUSH1 0x2 EXP SUB DUP3 AND PUSH2 0x167E JUMPI PUSH1 0x40 MLOAD PUSH1 0xE5 PUSH1 0x2 EXP PUSH3 0x461BCD MUL DUP2 MSTORE PUSH1 0x20 PUSH1 0x4 DUP3 ADD MSTORE PUSH1 0x17 PUSH1 0x24 DUP3 ADD MSTORE PUSH32 0x496E76616C69642073747564656E742061646472657373000000000000000000 PUSH1 0x44 DUP3 ADD MSTORE PUSH1 0x64 ADD PUSH2 0x563 JUMP JUMPDEST PUSH1 0x1 PUSH1 0xA0 PUSH1 0x2 EXP SUB DUP3 AND PUSH1 0x0 SWAP1 DUP2 MSTORE PUSH1 0x9 PUSH1 0x20 SWAP1 DUP2 MSTORE PUSH1 0x40 DUP1 DUP4 KECCAK256 DUP1 SLOAD DUP3 MLOAD DUP2 DUP6 MUL DUP2 ADD DUP6 ADD SWAP1 SWAP4 MSTORE DUP1 DUP4 MSTORE SWAP2 SWAP4 SWAP1 SWAP3 DUP5 ADD JUMPDEST DUP3 DUP3 LT ISZERO PUSH2 0x17A8 JUMPI DUP4 DUP3 SWAP1 PUSH1 0x0 MSTORE PUSH1 0x20 PUSH1 0x0 KECCAK256 SWAP1 PUSH1 0x3 MUL ADD PUSH1 0x40 MLOAD DUP1 PUSH1 0x80 ADD PUSH1 0x40 MSTORE SWAP1 DUP2 PUSH1 0x0 DUP3 ADD SLOAD DUP2 MSTORE PUSH1 0x20 ADD PUSH1 0x1 DUP3 ADD DUP1 SLOAD PUSH2 0x16EE SWAP1 PUSH2 0x27C7 JUMP JUMPDEST DUP1 PUSH1 0x1F ADD PUSH1 0x20 DUP1 SWAP2 DIV MUL PUSH1 0x20 ADD PUSH1 0x40 MLOAD SWAP1 DUP2 ADD PUSH1 0x40 MSTORE DUP1 SWAP3 SWAP2 SWAP1 DUP2 DUP2 MSTORE PUSH1 0x20 ADD DUP3 DUP1 SLOAD PUSH2 0x171A SWAP1 PUSH2 0x27C7 JUMP JUMPDEST DUP1 ISZERO PUSH2 0x1767 JUMPI DUP1 PUSH1 0x1F LT PUSH2 0x173C JUMPI PUSH2 0x100 DUP1 DUP4 SLOAD DIV MUL DUP4 MSTORE SWAP2 PUSH1 0x20 ADD SWAP2 PUSH2 0x1767 JUMP JUMPDEST DUP3 ADD SWAP2 SWAP1 PUSH1 0x0 MSTORE PUSH1 0x20 PUSH1 0x0 KECCAK256 SWAP1 JUMPDEST DUP2 SLOAD DUP2 MSTORE SWAP1 PUSH1 0x1 ADD SWAP1 PUSH1 0x20 ADD DUP1 DUP4 GT PUSH2 0x174A JUMPI DUP3 SWAP1 SUB PUSH1 0x1F AND DUP3 ADD SWAP2 JUMPDEST POP POP POP SWAP2 DUP4 MSTORE POP POP PUSH1 0x2 SWAP2 SWAP1 SWAP2 ADD SLOAD PUSH1 0xFF DUP1 DUP3 AND ISZERO ISZERO PUSH1 0x20 DUP1 DUP6 ADD SWAP2 SWAP1 SWAP2 MSTORE PUSH2 0x100 SWAP1 SWAP3 DIV AND ISZERO ISZERO PUSH1 0x40 SWAP1 SWAP3 ADD SWAP2 SWAP1 SWAP2 MSTORE SWAP1 DUP3 MSTORE PUSH1 0x1 SWAP3 SWAP1 SWAP3 ADD SWAP2 ADD PUSH2 0x16B1 JUMP JUMPDEST POP POP POP POP SWAP1 POP SWAP2 SWAP1 POP JUMP JUMPDEST PUSH1 0x2 PUSH1 0x20 MSTORE PUSH1 0x0 SWAP1 DUP2 MSTORE PUSH1 0x40 SWAP1 KECCAK256 DUP1 SLOAD PUSH1 0x1 DUP3 ADD DUP1 SLOAD SWAP2 SWAP3 SWAP2 PUSH2 0x17D5 SWAP1 PUSH2 0x27C7 JUMP JUMPDEST DUP1 PUSH1 0x1F ADD PUSH1 0x20 DUP1 SWAP2 DIV MUL PUSH1 0x20 ADD PUSH1 0x40 MLOAD SWAP1 DUP2 ADD PUSH1 0x40 MSTORE DUP1 SWAP3 SWAP2 SWAP1 DUP2 DUP2 MSTORE PUSH1 0x20 ADD DUP3 DUP1 SLOAD PUSH2 0x1801 SWAP1 PUSH2 0x27C7 JUMP JUMPDEST DUP1 ISZERO PUSH2 0x184E JUMPI DUP1 PUSH1 0x1F LT PUSH2 0x1823 JUMPI PUSH2 0x100 DUP1 DUP4 SLOAD DIV MUL DUP4 MSTORE SWAP2 PUSH1 0x20 ADD SWAP2 PUSH2 0x184E JUMP JUMPDEST DUP3 ADD SWAP2 SWAP1 PUSH1 0x0 MSTORE PUSH1 0x20 PUSH1 0x0 KECCAK256 SWAP1 JUMPDEST DUP2 SLOAD DUP2 MSTORE SWAP1 PUSH1 0x1 ADD SWAP1 PUSH1 0x20 ADD DUP1 DUP4 GT PUSH2 0x1831 JUMPI DUP3 SWAP1 SUB PUSH1 0x1F AND DUP3 ADD SWAP2 JUMPDEST POP POP POP POP POP SWAP1 DUP1 PUSH1 0x2 ADD SLOAD SWAP1 DUP1 PUSH1 0x3 ADD SLOAD SWAP1 POP DUP5 JUMP JUMPDEST CALLER PUSH1 0x0 SWAP1 DUP2 MSTORE PUSH1 0x1 PUSH1 0x20 MSTORE PUSH1 0x40 SWAP1 KECCAK256 SLOAD PUSH1 0xFF AND PUSH2 0x1896 JUMPI PUSH1 0x40 MLOAD PUSH1 0xE5 PUSH1 0x2 EXP PUSH3 0x461BCD MUL DUP2 MSTORE PUSH1 0x4 ADD PUSH2 0x563 SWAP1 PUSH2 0x26D2 JUMP JUMPDEST PUSH1 0x1 PUSH1 0xA0 PUSH1 0x2 EXP SUB DUP3 AND PUSH1 0x0 SWAP1 DUP2 MSTORE PUSH1 0x9 PUSH1 0x20 MSTORE PUSH1 0x40 SWAP1 KECCAK256 DUP1 SLOAD DUP3 SWAP1 DUP2 LT PUSH2 0x18C0 JUMPI PUSH2 0x18C0 PUSH2 0x27AE JUMP JUMPDEST PUSH1 0x0 SWAP2 DUP3 MSTORE PUSH1 0x20 SWAP1 SWAP2 KECCAK256 PUSH1 0x2 PUSH1 0x3 SWAP1 SWAP3 MUL ADD ADD SLOAD PUSH1 0xFF AND PUSH2 0x1926 JUMPI PUSH1 0x40 MLOAD PUSH1 0xE5 PUSH1 0x2 EXP PUSH3 0x461BCD MUL DUP2 MSTORE PUSH1 0x20 PUSH1 0x4 DUP3 ADD MSTORE PUSH1 0x15 PUSH1 0x24 DUP3 ADD MSTORE PUSH32 0x5472616E73666572206E6F7420617070726F7665640000000000000000000000 PUSH1 0x44 DUP3 ADD MSTORE PUSH1 0x64 ADD PUSH2 0x563 JUMP JUMPDEST PUSH1 0x1 PUSH1 0xA0 PUSH1 0x2 EXP SUB DUP3 AND PUSH1 0x0 SWAP1 DUP2 MSTORE PUSH1 0x9 PUSH1 0x20 MSTORE PUSH1 0x40 SWAP1 KECCAK256 DUP1 SLOAD DUP3 SWAP1 DUP2 LT PUSH2 0x1950 JUMPI PUSH2 0x1950 PUSH2 0x27AE JUMP JUMPDEST SWAP1 PUSH1 0x0 MSTORE PUSH1 0x20 PUSH1 0x0 KECCAK256 SWAP1 PUSH1 0x3 MUL ADD PUSH1 0x2 ADD PUSH1 0x1 SWAP1 SLOAD SWAP1 PUSH2 0x100 EXP SWAP1 DIV PUSH1 0xFF AND ISZERO PUSH2 0x19BF JUMPI PUSH1 0x40 MLOAD PUSH1 0xE5 PUSH1 0x2 EXP PUSH3 0x461BCD MUL DUP2 MSTORE PUSH1 0x20 PUSH1 0x4 DUP3 ADD MSTORE PUSH1 0x19 PUSH1 0x24 DUP3 ADD MSTORE PUSH32 0x5472616E7366657220616C726561647920657865637574656400000000000000 PUSH1 0x44 DUP3 ADD MSTORE PUSH1 0x64 ADD PUSH2 0x563 JUMP JUMPDEST PUSH1 0x1 PUSH1 0xA0 PUSH1 0x2 EXP SUB DUP3 AND PUSH1 0x0 SWAP1 DUP2 MSTORE PUSH1 0x9 PUSH1 0x20 MSTORE PUSH1 0x40 SWAP1 KECCAK256 DUP1 SLOAD DUP3 SWAP1 DUP2 LT PUSH2 0x19E9 JUMPI PUSH2 0x19E9 PUSH2 0x27AE JUMP JUMPDEST PUSH1 0x0 SWAP2 DUP3 MSTORE PUSH1 0x20 DUP1 DUP4 KECCAK256 PUSH1 0x1 PUSH1 0xA0 PUSH1 0x2 EXP SUB DUP7 AND DUP5 MSTORE PUSH1 0x3 DUP1 DUP4 MSTORE PUSH1 0x40 DUP1 DUP7 KECCAK256 PUSH1 0x9 SWAP1 SWAP5 MSTORE DUP6 KECCAK256 DUP1 SLOAD PUSH1 0x1 SWAP3 SWAP1 SWAP6 MUL SWAP1 SWAP3 ADD ADD SWAP4 SWAP2 SWAP3 DUP6 SWAP1 DUP2 LT PUSH2 0x1A2F JUMPI PUSH2 0x1A2F PUSH2 0x27AE JUMP JUMPDEST SWAP1 PUSH1 0x0 MSTORE PUSH1 0x20 PUSH1 0x0 KECCAK256 SWAP1 PUSH1 0x3 MUL ADD PUSH1 0x0 ADD SLOAD DUP2 MSTORE PUSH1 0x20 ADD SWAP1 DUP2 MSTORE PUSH1 0x20 ADD PUSH1 0x0 KECCAK256 PUSH1 0x9 ADD SWAP1 DUP2 PUSH2 0x1A5E SWAP2 SWAP1 PUSH2 0x295E JUMP JUMPDEST POP PUSH1 0x1 PUSH1 0xA0 PUSH1 0x2 EXP SUB DUP3 AND PUSH1 0x0 SWAP1 DUP2 MSTORE PUSH1 0x9 PUSH1 0x20 MSTORE PUSH1 0x40 SWAP1 KECCAK256 DUP1 SLOAD PUSH1 0x1 SWAP2 SWAP1 DUP4 SWAP1 DUP2 LT PUSH2 0x1A8D JUMPI PUSH2 0x1A8D PUSH2 0x27AE JUMP JUMPDEST PUSH1 0x0 SWAP2 DUP3 MSTORE PUSH1 0x20 DUP1 DUP4 KECCAK256 PUSH1 0x3 SWAP3 DUP4 MUL ADD PUSH1 0x2 ADD DUP1 SLOAD PUSH2 0xFF00 NOT AND PUSH2 0x100 SWAP6 ISZERO ISZERO SWAP6 SWAP1 SWAP6 MUL SWAP5 SWAP1 SWAP5 OR SWAP1 SWAP4 SSTORE PUSH1 0x1 PUSH1 0xA0 PUSH1 0x2 EXP SUB DUP6 AND DUP3 MSTORE DUP3 MSTORE PUSH1 0x40 DUP1 DUP3 KECCAK256 PUSH1 0x9 SWAP1 SWAP4 MSTORE DUP2 KECCAK256 DUP1 SLOAD PUSH1 0x1 SWAP4 SWAP3 SWAP2 SWAP1 DUP6 SWAP1 DUP2 LT PUSH2 0x1AEA JUMPI PUSH2 0x1AEA PUSH2 0x27AE JUMP JUMPDEST SWAP1 PUSH1 0x0 MSTORE PUSH1 0x20 PUSH1 0x0 KECCAK256 SWAP1 PUSH1 0x3 MUL ADD PUSH1 0x0 ADD SLOAD DUP2 MSTORE PUSH1 0x20 ADD SWAP1 DUP2 MSTORE PUSH1 0x20 ADD PUSH1 0x0 KECCAK256 PUSH1 0x8 ADD PUSH1 0x0 PUSH2 0x100 EXP DUP2 SLOAD DUP2 PUSH1 0xFF MUL NOT AND SWAP1 DUP4 ISZERO ISZERO MUL OR SWAP1 SSTORE POP POP POP JUMP JUMPDEST CALLER PUSH1 0x0 SWAP1 DUP2 MSTORE PUSH1 0x1 PUSH1 0x20 MSTORE PUSH1 0x40 SWAP1 KECCAK256 SLOAD PUSH1 0xFF AND PUSH2 0x1B5A JUMPI PUSH1 0x40 MLOAD PUSH1 0xE5 PUSH1 0x2 EXP PUSH3 0x461BCD MUL DUP2 MSTORE PUSH1 0x4 ADD PUSH2 0x563 SWAP1 PUSH2 0x26D2 JUMP JUMPDEST PUSH1 0x0 DUP4 DUP2 MSTORE PUSH1 0x6 PUSH1 0x20 MSTORE PUSH1 0x40 SWAP1 KECCAK256 SLOAD PUSH1 0xFF AND ISZERO PUSH2 0x1BBC JUMPI PUSH1 0x40 MLOAD PUSH1 0xE5 PUSH1 0x2 EXP PUSH3 0x461BCD MUL DUP2 MSTORE PUSH1 0x20 PUSH1 0x4 DUP3 ADD MSTORE PUSH1 0x15 PUSH1 0x24 DUP3 ADD MSTORE PUSH32 0x436F7572736520616C7265616479206578697374730000000000000000000000 PUSH1 0x44 DUP3 ADD MSTORE PUSH1 0x64 ADD PUSH2 0x563 JUMP JUMPDEST PUSH1 0x0 DUP4 DUP2 MSTORE PUSH1 0x6 PUSH1 0x20 SWAP1 DUP2 MSTORE PUSH1 0x40 DUP1 DUP4 KECCAK256 DUP1 SLOAD PUSH1 0xFF NOT AND PUSH1 0x1 SWAP1 DUP2 OR SWAP1 SWAP2 SSTORE PUSH1 0x7 DUP1 SLOAD DUP1 DUP4 ADD SWAP1 SWAP2 SSTORE PUSH32 0xA66CC928B5EDB82AF9BD49922954155AB7B0942694BEA4CE44661D9A8736C688 ADD DUP8 SWAP1 SSTORE DUP2 MLOAD PUSH1 0x80 DUP2 ADD DUP4 MSTORE DUP8 DUP2 MSTORE DUP1 DUP5 ADD DUP7 DUP2 MSTORE DUP2 DUP5 ADD DUP9 SWAP1 MSTORE TIMESTAMP PUSH1 0x60 DUP4 ADD MSTORE DUP9 DUP7 MSTORE PUSH1 0x2 SWAP1 SWAP5 MSTORE SWAP2 SWAP1 SWAP4 KECCAK256 DUP2 MLOAD DUP2 SSTORE SWAP2 MLOAD SWAP1 SWAP3 DUP3 ADD SWAP1 PUSH2 0x1C48 SWAP1 DUP3 PUSH2 0x2885 JUMP JUMPDEST POP PUSH1 0x40 DUP3 ADD MLOAD PUSH1 0x2 DUP3 ADD SSTORE PUSH1 0x60 SWAP1 SWAP2 ADD MLOAD PUSH1 0x3 SWAP1 SWAP2 ADD SSTORE POP POP POP JUMP JUMPDEST PUSH1 0x7 DUP2 DUP2 SLOAD DUP2 LT PUSH2 0x1C74 JUMPI PUSH1 0x0 DUP1 REVERT JUMPDEST PUSH1 0x0 SWAP2 DUP3 MSTORE PUSH1 0x20 SWAP1 SWAP2 KECCAK256 ADD SLOAD SWAP1 POP DUP2 JUMP JUMPDEST CALLER PUSH1 0x0 SWAP1 DUP2 MSTORE PUSH1 0x5 PUSH1 0x20 MSTORE PUSH1 0x40 SWAP1 KECCAK256 SLOAD PUSH1 0xFF AND PUSH2 0x1CE7 JUMPI PUSH1 0x40 MLOAD PUSH1 0xE5 PUSH1 0x2 EXP PUSH3 0x461BCD MUL DUP2 MSTORE PUSH1 0x20 PUSH1 0x4 DUP3 ADD MSTORE PUSH1 0xD PUSH1 0x24 DUP3 ADD MSTORE PUSH32 0x4E6F742061207465616368657200000000000000000000000000000000000000 PUSH1 0x44 DUP3 ADD MSTORE PUSH1 0x64 ADD PUSH2 0x563 JUMP JUMPDEST PUSH1 0x1 PUSH1 0xA0 PUSH1 0x2 EXP SUB DUP5 AND PUSH1 0x0 SWAP1 DUP2 MSTORE PUSH1 0x3 PUSH1 0x20 DUP2 DUP2 MSTORE PUSH1 0x40 DUP1 DUP5 KECCAK256 DUP8 DUP6 MSTORE SWAP1 SWAP2 MSTORE DUP3 KECCAK256 ADD SLOAD SWAP1 SUB PUSH2 0x1D2D JUMPI PUSH1 0x40 MLOAD PUSH1 0xE5 PUSH1 0x2 EXP PUSH3 0x461BCD MUL DUP2 MSTORE PUSH1 0x4 ADD PUSH2 0x563 SWAP1 PUSH2 0x2709 JUMP JUMPDEST PUSH1 0x1 PUSH1 0xA0 PUSH1 0x2 EXP SUB DUP5 AND PUSH2 0x1D56 JUMPI PUSH1 0x40 MLOAD PUSH1 0xE5 PUSH1 0x2 EXP PUSH3 0x461BCD MUL DUP2 MSTORE PUSH1 0x4 ADD PUSH2 0x563 SWAP1 PUSH2 0x2777 JUMP JUMPDEST PUSH1 0x0 DUP3 GT PUSH2 0x1DA9 JUMPI PUSH1 0x40 MLOAD PUSH1 0xE5 PUSH1 0x2 EXP PUSH3 0x461BCD MUL DUP2 MSTORE PUSH1 0x20 PUSH1 0x4 DUP3 ADD MSTORE PUSH1 0xF PUSH1 0x24 DUP3 ADD MSTORE PUSH32 0x496E76616C696420637265646974730000000000000000000000000000000000 PUSH1 0x44 DUP3 ADD MSTORE PUSH1 0x64 ADD PUSH2 0x563 JUMP JUMPDEST PUSH1 0x1 PUSH1 0xA0 PUSH1 0x2 EXP SUB DUP5 AND PUSH1 0x0 SWAP1 DUP2 MSTORE PUSH1 0x3 PUSH1 0x20 SWAP1 DUP2 MSTORE PUSH1 0x40 DUP1 DUP4 KECCAK256 DUP7 DUP5 MSTORE SWAP1 SWAP2 MSTORE SWAP1 KECCAK256 PUSH1 0x6 ADD SLOAD PUSH1 0xFF AND ISZERO PUSH2 0x1DF3 JUMPI PUSH1 0x40 MLOAD PUSH1 0xE5 PUSH1 0x2 EXP PUSH3 0x461BCD MUL DUP2 MSTORE PUSH1 0x4 ADD PUSH2 0x563 SWAP1 PUSH2 0x2740 JUMP JUMPDEST PUSH1 0x1 PUSH1 0xA0 PUSH1 0x2 EXP SUB SWAP4 SWAP1 SWAP4 AND PUSH1 0x0 SWAP1 DUP2 MSTORE PUSH1 0x3 PUSH1 0x20 SWAP1 DUP2 MSTORE PUSH1 0x40 DUP1 DUP4 KECCAK256 SWAP5 DUP4 MSTORE SWAP4 SWAP1 MSTORE SWAP2 SWAP1 SWAP2 KECCAK256 PUSH1 0x1 DUP1 DUP3 ADD SWAP3 SWAP1 SWAP3 SSTORE PUSH1 0x2 DUP2 ADD SWAP3 SWAP1 SWAP3 SSTORE PUSH1 0x4 SWAP1 SWAP2 ADD DUP1 SLOAD PUSH1 0xFF NOT AND SWAP1 SWAP2 OR SWAP1 SSTORE JUMP JUMPDEST PUSH1 0x3 PUSH1 0x20 DUP2 DUP2 MSTORE PUSH1 0x0 SWAP4 DUP5 MSTORE PUSH1 0x40 DUP1 DUP6 KECCAK256 SWAP1 SWAP2 MSTORE SWAP2 DUP4 MSTORE SWAP2 KECCAK256 DUP1 SLOAD PUSH1 0x1 DUP3 ADD SLOAD PUSH1 0x2 DUP4 ADD SLOAD SWAP4 DUP4 ADD SLOAD PUSH1 0x4 DUP5 ADD SLOAD PUSH1 0x5 DUP6 ADD SLOAD PUSH1 0x6 DUP7 ADD SLOAD PUSH1 0x7 DUP8 ADD DUP1 SLOAD SWAP7 SWAP9 SWAP6 SWAP8 SWAP6 SWAP7 SWAP5 SWAP6 PUSH1 0xFF SWAP5 DUP6 AND SWAP6 SWAP4 SWAP5 SWAP1 SWAP3 AND SWAP3 PUSH2 0x1E98 SWAP1 PUSH2 0x27C7 JUMP JUMPDEST DUP1 PUSH1 0x1F ADD PUSH1 0x20 DUP1 SWAP2 DIV MUL PUSH1 0x20 ADD PUSH1 0x40 MLOAD SWAP1 DUP2 ADD PUSH1 0x40 MSTORE DUP1 SWAP3 SWAP2 SWAP1 DUP2 DUP2 MSTORE PUSH1 0x20 ADD DUP3 DUP1 SLOAD PUSH2 0x1EC4 SWAP1 PUSH2 0x27C7 JUMP JUMPDEST DUP1 ISZERO PUSH2 0x1F11 JUMPI DUP1 PUSH1 0x1F LT PUSH2 0x1EE6 JUMPI PUSH2 0x100 DUP1 DUP4 SLOAD DIV MUL DUP4 MSTORE SWAP2 PUSH1 0x20 ADD SWAP2 PUSH2 0x1F11 JUMP JUMPDEST DUP3 ADD SWAP2 SWAP1 PUSH1 0x0 MSTORE PUSH1 0x20 PUSH1 0x0 KECCAK256 SWAP1 JUMPDEST DUP2 SLOAD DUP2 MSTORE SWAP1 PUSH1 0x1 ADD SWAP1 PUSH1 0x20 ADD DUP1 DUP4 GT PUSH2 0x1EF4 JUMPI DUP3 SWAP1 SUB PUSH1 0x1F AND DUP3 ADD SWAP2 JUMPDEST POP POP POP PUSH1 0x8 DUP5 ADD SLOAD PUSH1 0x9 DUP6 ADD DUP1 SLOAD SWAP5 SWAP6 PUSH1 0xFF SWAP1 SWAP3 AND SWAP5 SWAP2 SWAP4 POP SWAP2 POP PUSH2 0x1F35 SWAP1 PUSH2 0x27C7 JUMP JUMPDEST DUP1 PUSH1 0x1F ADD PUSH1 0x20 DUP1 SWAP2 DIV MUL PUSH1 0x20 ADD PUSH1 0x40 MLOAD SWAP1 DUP2 ADD PUSH1 0x40 MSTORE DUP1 SWAP3 SWAP2 SWAP1 DUP2 DUP2 MSTORE PUSH1 0x20 ADD DUP3 DUP1 SLOAD PUSH2 0x1F61 SWAP1 PUSH2 0x27C7 JUMP JUMPDEST DUP1 ISZERO PUSH2 0x1FAE JUMPI DUP1 PUSH1 0x1F LT PUSH2 0x1F83 JUMPI PUSH2 0x100 DUP1 DUP4 SLOAD DIV MUL DUP4 MSTORE SWAP2 PUSH1 0x20 ADD SWAP2 PUSH2 0x1FAE JUMP JUMPDEST DUP3 ADD SWAP2 SWAP1 PUSH1 0x0 MSTORE PUSH1 0x20 PUSH1 0x0 KECCAK256 SWAP1 JUMPDEST DUP2 SLOAD DUP2 MSTORE SWAP1 PUSH1 0x1 ADD SWAP1 PUSH1 0x20 ADD DUP1 DUP4 GT PUSH2 0x1F91 JUMPI DUP3 SWAP1 SUB PUSH1 0x1F AND DUP3 ADD SWAP2 JUMPDEST POP POP POP POP POP SWAP1 POP DUP11 JUMP JUMPDEST PUSH1 0x0 SLOAD PUSH1 0x1 PUSH1 0xA0 PUSH1 0x2 EXP SUB AND CALLER EQ PUSH2 0x1FE5 JUMPI PUSH1 0x40 MLOAD PUSH1 0xE5 PUSH1 0x2 EXP PUSH3 0x461BCD MUL DUP2 MSTORE PUSH1 0x4 ADD PUSH2 0x563 SWAP1 PUSH2 0x269B JUMP JUMPDEST PUSH1 0x1 PUSH1 0xA0 PUSH1 0x2 EXP SUB DUP2 AND PUSH2 0x203E JUMPI PUSH1 0x40 MLOAD PUSH1 0xE5 PUSH1 0x2 EXP PUSH3 0x461BCD MUL DUP2 MSTORE PUSH1 0x20 PUSH1 0x4 DUP3 ADD MSTORE PUSH1 0x8 PUSH1 0x24 DUP3 ADD MSTORE PUSH32 0x6E65772069732030000000000000000000000000000000000000000000000000 PUSH1 0x44 DUP3 ADD MSTORE PUSH1 0x64 ADD PUSH2 0x563 JUMP JUMPDEST PUSH1 0x0 DUP1 SLOAD PUSH1 0x40 MLOAD PUSH1 0x1 PUSH1 0xA0 PUSH1 0x2 EXP SUB DUP1 DUP6 AND SWAP4 SWAP3 AND SWAP2 PUSH32 0x8BE0079C531659141344CD1FD0A4F28419497F9722A3DAAFE3B4186F6B6457E0 SWAP2 LOG3 PUSH1 0x0 DUP1 SLOAD PUSH20 0xFFFFFFFFFFFFFFFFFFFFFFFFFFFFFFFFFFFFFFFF NOT AND PUSH1 0x1 PUSH1 0xA0 PUSH1 0x2 EXP SUB SWAP3 SWAP1 SWAP3 AND SWAP2 SWAP1 SWAP2 OR SWAP1 SSTORE JUMP JUMPDEST PUSH1 0x40 MLOAD DUP1 PUSH2 0x140 ADD PUSH1 0x40 MSTORE DUP1 PUSH1 0x0 DUP2 MSTORE PUSH1 0x20 ADD PUSH1 0x0 DUP2 MSTORE PUSH1 0x20 ADD PUSH1 0x0 DUP2 MSTORE PUSH1 0x20 ADD PUSH1 0x0 DUP2 MSTORE PUSH1 0x20 ADD PUSH1 0x0 ISZERO ISZERO DUP2 MSTORE PUSH1 0x20 ADD PUSH1 0x0 DUP2 MSTORE PUSH1 0x20 ADD PUSH1 0x0 ISZERO ISZERO DUP2 MSTORE PUSH1 0x20 ADD PUSH1 0x60 DUP2 MSTORE PUSH1 0x20 ADD PUSH1 0x0 ISZERO ISZERO DUP2 MSTORE PUSH1 0x20 ADD PUSH1 0x60 DUP2 MSTORE POP SWAP1 JUMP JUMPDEST DUP1 CALLDATALOAD PUSH1 0x1 PUSH1 0xA0 PUSH1 0x2 EXP SUB DUP2 AND DUP2 EQ PUSH2 0x2116 JUMPI PUSH1 0x0 DUP1 REVERT JUMPDEST SWAP2 SWAP1 POP JUMP JUMPDEST PUSH1 0x0 DUP1 PUSH1 0x40 DUP4 DUP6 SUB SLT ISZERO PUSH2 0x212E JUMPI PUSH1 0x0 DUP1 REVERT JUMPDEST PUSH2 0x2137 DUP4 PUSH2 0x20FF JUMP JUMPDEST SWAP5 PUSH1 0x20 SWAP4 SWAP1 SWAP4 ADD CALLDATALOAD SWAP4 POP POP POP JUMP JUMPDEST PUSH1 0x0 PUSH1 0x20 DUP3 DUP5 SUB SLT ISZERO PUSH2 0x2157 JUMPI PUSH1 0x0 DUP1 REVERT JUMPDEST PUSH2 0x2160 DUP3 PUSH2 0x20FF JUMP JUMPDEST SWAP4 SWAP3 POP POP POP JUMP JUMPDEST PUSH1 0x0 DUP2 MLOAD DUP1 DUP5 MSTORE PUSH1 0x0 JUMPDEST DUP2 DUP2 LT ISZERO PUSH2 0x218D JUMPI PUSH1 0x20 DUP2 DUP6 ADD DUP2 ADD MLOAD DUP7 DUP4 ADD DUP3 ADD MSTORE ADD PUSH2 0x2171 JUMP JUMPDEST POP PUSH1 0x0 PUSH1 0x20 DUP3 DUP7 ADD ADD MSTORE PUSH1 0x20 PUSH1 0x1F NOT PUSH1 0x1F DUP4 ADD AND DUP6 ADD ADD SWAP2 POP POP SWAP3 SWAP2 POP POP JUMP JUMPDEST PUSH1 0x20 DUP1 DUP3 MSTORE DUP3 MLOAD DUP3 DUP3 ADD DUP2 SWAP1 MSTORE PUSH1 0x0 SWAP2 SWAP1 PUSH1 0x40 SWAP1 DUP2 DUP6 ADD SWAP1 DUP1 DUP5 MUL DUP7 ADD DUP4 ADD DUP8 DUP6 ADD DUP7 JUMPDEST DUP4 DUP2 LT ISZERO PUSH2 0x228A JUMPI PUSH1 0x3F NOT DUP10 DUP5 SUB ADD DUP6 MSTORE DUP2 MLOAD DUP1 MLOAD DUP5 MSTORE DUP8 DUP2 ADD MLOAD DUP9 DUP6 ADD MSTORE DUP7 DUP2 ADD MLOAD DUP8 DUP6 ADD MSTORE PUSH1 0x60 DUP1 DUP3 ADD MLOAD SWAP1 DUP6 ADD MSTORE PUSH1 0x80 DUP1 DUP3 ADD MLOAD ISZERO ISZERO SWAP1 DUP6 ADD MSTORE PUSH1 0xA0 DUP1 DUP3 ADD MLOAD SWAP1 DUP6 ADD MSTORE PUSH1 0xC0 DUP1 DUP3 ADD MLOAD ISZERO ISZERO SWAP1 DUP6 ADD MSTORE PUSH1 0xE0 DUP1 DUP3 ADD MLOAD PUSH2 0x140 DUP3 DUP8 ADD DUP2 SWAP1 MSTORE SWAP2 SWAP1 PUSH2 0x2241 DUP4 DUP9 ADD DUP3 PUSH2 0x2167 JUMP JUMPDEST SWAP3 POP POP POP PUSH2 0x100 DUP1 DUP4 ADD MLOAD PUSH2 0x2259 DUP3 DUP9 ADD DUP3 ISZERO ISZERO SWAP1 MSTORE JUMP JUMPDEST POP POP PUSH2 0x120 DUP1 DUP4 ADD MLOAD SWAP3 POP DUP6 DUP3 SUB DUP2 DUP8 ADD MSTORE POP PUSH2 0x2276 DUP2 DUP4 PUSH2 0x2167 JUMP JUMPDEST SWAP7 DUP10 ADD SWAP7 SWAP5 POP POP POP SWAP1 DUP7 ADD SWAP1 PUSH1 0x1 ADD PUSH2 0x21D1 JUMP JUMPDEST POP SWAP1 SWAP9 SWAP8 POP POP POP POP POP POP POP POP JUMP JUMPDEST DUP5 DUP2 MSTORE PUSH1 0x80 PUSH1 0x20 DUP3 ADD MSTORE PUSH1 0x0 PUSH2 0x22B1 PUSH1 0x80 DUP4 ADD DUP7 PUSH2 0x2167 JUMP JUMPDEST SWAP4 ISZERO ISZERO PUSH1 0x40 DUP4 ADD MSTORE POP SWAP1 ISZERO ISZERO PUSH1 0x60 SWAP1 SWAP2 ADD MSTORE SWAP3 SWAP2 POP POP JUMP JUMPDEST PUSH1 0xE0 PUSH1 0x2 EXP PUSH4 0x4E487B71 MUL PUSH1 0x0 MSTORE PUSH1 0x41 PUSH1 0x4 MSTORE PUSH1 0x24 PUSH1 0x0 REVERT JUMPDEST PUSH1 0x0 DUP3 PUSH1 0x1F DUP4 ADD SLT PUSH2 0x22F3 JUMPI PUSH1 0x0 DUP1 REVERT JUMPDEST DUP2 CALLDATALOAD PUSH8 0xFFFFFFFFFFFFFFFF DUP1 DUP3 GT ISZERO PUSH2 0x230E JUMPI PUSH2 0x230E PUSH2 0x22C9 JUMP JUMPDEST PUSH1 0x40 MLOAD PUSH1 0x1F DUP4 ADD PUSH1 0x1F NOT SWAP1 DUP2 AND PUSH1 0x3F ADD AND DUP2 ADD SWAP1 DUP3 DUP3 GT DUP2 DUP4 LT OR ISZERO PUSH2 0x2336 JUMPI PUSH2 0x2336 PUSH2 0x22C9 JUMP JUMPDEST DUP2 PUSH1 0x40 MSTORE DUP4 DUP2 MSTORE DUP7 PUSH1 0x20 DUP6 DUP9 ADD ADD GT ISZERO PUSH2 0x234F JUMPI PUSH1 0x0 DUP1 REVERT JUMPDEST DUP4 PUSH1 0x20 DUP8 ADD PUSH1 0x20 DUP4 ADD CALLDATACOPY PUSH1 0x0 PUSH1 0x20 DUP6 DUP4 ADD ADD MSTORE DUP1 SWAP5 POP POP POP POP POP SWAP3 SWAP2 POP POP JUMP JUMPDEST PUSH1 0x0 DUP1 PUSH1 0x0 DUP1 PUSH1 0x0 PUSH1 0xA0 DUP7 DUP9 SUB SLT ISZERO PUSH2 0x2387 JUMPI PUSH1 0x0 DUP1 REVERT JUMPDEST PUSH2 0x2390 DUP7 PUSH2 0x20FF JUMP JUMPDEST SWAP5 POP PUSH1 0x20 DUP7 ADD CALLDATALOAD SWAP4 POP PUSH1 0x40 DUP7 ADD CALLDATALOAD SWAP3 POP PUSH1 0x60 DUP7 ADD CALLDATALOAD SWAP2 POP PUSH1 0x80 DUP7 ADD CALLDATALOAD PUSH8 0xFFFFFFFFFFFFFFFF DUP2 GT ISZERO PUSH2 0x23C1 JUMPI PUSH1 0x0 DUP1 REVERT JUMPDEST PUSH2 0x23CD DUP9 DUP3 DUP10 ADD PUSH2 0x22E2 JUMP JUMPDEST SWAP2 POP POP SWAP3 SWAP6 POP SWAP3 SWAP6 SWAP1 SWAP4 POP JUMP JUMPDEST PUSH1 0x0 PUSH1 0x20 DUP3 DUP5 SUB SLT ISZERO PUSH2 0x23EC JUMPI PUSH1 0x0 DUP1 REVERT JUMPDEST POP CALLDATALOAD SWAP2 SWAP1 POP JUMP JUMPDEST PUSH1 0x20 DUP1 DUP3 MSTORE DUP3 MLOAD DUP3 DUP3 ADD DUP2 SWAP1 MSTORE PUSH1 0x0 SWAP2 SWAP1 DUP5 DUP3 ADD SWAP1 PUSH1 0x40 DUP6 ADD SWAP1 DUP5 JUMPDEST DUP2 DUP2 LT ISZERO PUSH2 0x242B JUMPI DUP4 MLOAD DUP4 MSTORE SWAP3 DUP5 ADD SWAP3 SWAP2 DUP5 ADD SWAP2 PUSH1 0x1 ADD PUSH2 0x240F JUMP JUMPDEST POP SWAP1 SWAP7 SWAP6 POP POP POP POP POP POP JUMP JUMPDEST PUSH1 0x0 DUP1 PUSH1 0x40 DUP4 DUP6 SUB SLT ISZERO PUSH2 0x244A JUMPI PUSH1 0x0 DUP1 REVERT JUMPDEST DUP3 CALLDATALOAD SWAP2 POP PUSH1 0x20 DUP4 ADD CALLDATALOAD PUSH8 0xFFFFFFFFFFFFFFFF DUP2 GT ISZERO PUSH2 0x2468 JUMPI PUSH1 0x0 DUP1 REVERT JUMPDEST PUSH2 0x2474 DUP6 DUP3 DUP7 ADD PUSH2 0x22E2 JUMP JUMPDEST SWAP2 POP POP SWAP3 POP SWAP3 SWAP1 POP JUMP JUMPDEST PUSH1 0x20 DUP2 MSTORE DUP2 MLOAD PUSH1 0x20 DUP3 ADD MSTORE PUSH1 0x0 PUSH1 0x20 DUP4 ADD MLOAD PUSH1 0x80 PUSH1 0x40 DUP5 ADD MSTORE PUSH2 0x24A4 PUSH1 0xA0 DUP5 ADD DUP3 PUSH2 0x2167 JUMP JUMPDEST SWAP1 POP PUSH1 0x40 DUP5 ADD MLOAD PUSH1 0x60 DUP5 ADD MSTORE PUSH1 0x60 DUP5 ADD MLOAD PUSH1 0x80 DUP5 ADD MSTORE DUP1 SWAP2 POP POP SWAP3 SWAP2 POP POP JUMP JUMPDEST PUSH1 0x20 DUP1 DUP3 MSTORE DUP3 MLOAD DUP3 DUP3 ADD DUP2 SWAP1 MSTORE PUSH1 0x0 SWAP2 SWAP1 PUSH1 0x40 SWAP1 DUP2 DUP6 ADD SWAP1 DUP1 DUP5 MUL DUP7 ADD DUP4 ADD DUP8 DUP6 ADD DUP7 JUMPDEST DUP4 DUP2 LT ISZERO PUSH2 0x228A JUMPI PUSH1 0x3F NOT DUP10 DUP5 SUB ADD DUP6 MSTORE DUP2 MLOAD PUSH1 0x80 DUP2 MLOAD DUP6 MSTORE DUP9 DUP3 ADD MLOAD DUP2 DUP11 DUP8 ADD MSTORE PUSH2 0x2516 DUP3 DUP8 ADD DUP3 PUSH2 0x2167 JUMP JUMPDEST DUP4 DUP11 ADD MLOAD ISZERO ISZERO DUP8 DUP12 ADD MSTORE PUSH1 0x60 SWAP4 DUP5 ADD MLOAD ISZERO ISZERO SWAP4 SWAP1 SWAP7 ADD SWAP3 SWAP1 SWAP3 MSTORE POP POP SWAP4 DUP7 ADD SWAP4 SWAP1 DUP7 ADD SWAP1 PUSH1 0x1 ADD PUSH2 0x24E8 JUMP JUMPDEST DUP5 DUP2 MSTORE PUSH1 0x80 PUSH1 0x20 DUP3 ADD MSTORE PUSH1 0x0 PUSH2 0x255B PUSH1 0x80 DUP4 ADD DUP7 PUSH2 0x2167 JUMP JUMPDEST PUSH1 0x40 DUP4 ADD SWAP5 SWAP1 SWAP5 MSTORE POP PUSH1 0x60 ADD MSTORE SWAP3 SWAP2 POP POP JUMP JUMPDEST PUSH1 0x0 DUP1 PUSH1 0x0 PUSH1 0x60 DUP5 DUP7 SUB SLT ISZERO PUSH2 0x2583 JUMPI PUSH1 0x0 DUP1 REVERT JUMPDEST DUP4 CALLDATALOAD SWAP3 POP PUSH1 0x20 DUP5 ADD CALLDATALOAD SWAP2 POP PUSH1 0x40 DUP5 ADD CALLDATALOAD PUSH8 0xFFFFFFFFFFFFFFFF DUP2 GT ISZERO PUSH2 0x25A8 JUMPI PUSH1 0x0 DUP1 REVERT JUMPDEST PUSH2 0x25B4 DUP7 DUP3 DUP8 ADD PUSH2 0x22E2 JUMP JUMPDEST SWAP2 POP POP SWAP3 POP SWAP3 POP SWAP3 JUMP JUMPDEST PUSH1 0x0 DUP1 PUSH1 0x40 DUP4 DUP6 SUB SLT ISZERO PUSH2 0x25D1 JUMPI PUSH1 0x0 DUP1 REVERT JUMPDEST PUSH2 0x25DA DUP4 PUSH2 0x20FF JUMP JUMPDEST SWAP2 POP PUSH2 0x25E8 PUSH1 0x20 DUP5 ADD PUSH2 0x20FF JUMP JUMPDEST SWAP1 POP SWAP3 POP SWAP3 SWAP1 POP JUMP JUMPDEST PUSH1 0x0 DUP1 PUSH1 0x0 DUP1 PUSH1 0x80 DUP6 DUP8 SUB SLT ISZERO PUSH2 0x2607 JUMPI PUSH1 0x0 DUP1 REVERT JUMPDEST PUSH2 0x2610 DUP6 PUSH2 0x20FF JUMP JUMPDEST SWAP7 PUSH1 0x20 DUP7 ADD CALLDATALOAD SWAP7 POP PUSH1 0x40 DUP7 ADD CALLDATALOAD SWAP6 PUSH1 0x60 ADD CALLDATALOAD SWAP5 POP SWAP3 POP POP POP JUMP JUMPDEST PUSH1 0x0 PUSH2 0x140 DUP13 DUP4 MSTORE DUP12 PUSH1 0x20 DUP5 ADD MSTORE DUP11 PUSH1 0x40 DUP5 ADD MSTORE DUP10 PUSH1 0x60 DUP5 ADD MSTORE DUP9 ISZERO ISZERO PUSH1 0x80 DUP5 ADD MSTORE DUP8 PUSH1 0xA0 DUP5 ADD MSTORE DUP7 ISZERO ISZERO PUSH1 0xC0 DUP5 ADD MSTORE DUP1 PUSH1 0xE0 DUP5 ADD MSTORE PUSH2 0x266C DUP2 DUP5 ADD DUP8 PUSH2 0x2167 JUMP JUMPDEST SWAP1 POP DUP5 ISZERO ISZERO PUSH2 0x100 DUP5 ADD MSTORE DUP3 DUP2 SUB PUSH2 0x120 DUP5 ADD MSTORE PUSH2 0x268A DUP2 DUP6 PUSH2 0x2167 JUMP JUMPDEST SWAP14 SWAP13 POP POP POP POP POP POP POP POP POP POP POP POP POP JUMP JUMPDEST PUSH1 0x20 DUP1 DUP3 MSTORE PUSH1 0x6 SWAP1 DUP3 ADD MSTORE PUSH32 0x216F776E65720000000000000000000000000000000000000000000000000000 PUSH1 0x40 DUP3 ADD MSTORE PUSH1 0x60 ADD SWAP1 JUMP JUMPDEST PUSH1 0x20 DUP1 DUP3 MSTORE PUSH1 0xC SWAP1 DUP3 ADD MSTORE PUSH32 0x4E6F7420616E2061646D696E0000000000000000000000000000000000000000 PUSH1 0x40 DUP3 ADD MSTORE PUSH1 0x60 ADD SWAP1 JUMP JUMPDEST PUSH1 0x20 DUP1 DUP3 MSTORE PUSH1 0x15 SWAP1 DUP3 ADD MSTORE PUSH32 0x43726564697420646F6573206E6F742065786973740000000000000000000000 PUSH1 0x40 DUP3 ADD MSTORE PUSH1 0x60 ADD SWAP1 JUMP JUMPDEST PUSH1 0x20 DUP1 DUP3 MSTORE PUSH1 0x16 SWAP1 DUP3 ADD MSTORE PUSH32 0x43726564697420616C7265616479207265766F6B656400000000000000000000 PUSH1 0x40 DUP3 ADD MSTORE PUSH1 0x60 ADD SWAP1 JUMP JUMPDEST PUSH1 0x20 DUP1 DUP3 MSTORE PUSH1 0xF SWAP1 DUP3 ADD MSTORE PUSH32 0x496E76616C696420616464726573730000000000000000000000000000000000 PUSH1 0x40 DUP3 ADD MSTORE PUSH1 0x60 ADD SWAP1 JUMP JUMPDEST PUSH1 0xE0 PUSH1 0x2 EXP PUSH4 0x4E487B71 MUL PUSH1 0x0 MSTORE PUSH1 0x32 PUSH1 0x4 MSTORE PUSH1 0x24 PUSH1 0x0 REVERT JUMPDEST PUSH1 0x2 DUP2 DIV PUSH1 0x1 DUP3 AND DUP1 PUSH2 0x27DB JUMPI PUSH1 0x7F DUP3 AND SWAP2 POP JUMPDEST PUSH1 0x20 DUP3 LT DUP2 SUB PUSH2 0x27FE JUMPI PUSH1 0xE0 PUSH1 0x2 EXP PUSH4 0x4E487B71 MUL PUSH1 0x0 MSTORE PUSH1 0x22 PUSH1 0x4 MSTORE PUSH1 0x24 PUSH1 0x0 REVERT JUMPDEST POP SWAP2 SWAP1 POP JUMP JUMPDEST PUSH1 0xE0 PUSH1 0x2 EXP PUSH4 0x4E487B71 MUL PUSH1 0x0 MSTORE PUSH1 0x11 PUSH1 0x4 MSTORE PUSH1 0x24 PUSH1 0x0 REVERT JUMPDEST PUSH1 0x0 PUSH1 0x1 DUP3 ADD PUSH2 0x282F JUMPI PUSH2 0x282F PUSH2 0x2804 JUMP JUMPDEST POP PUSH1 0x1 ADD SWAP1 JUMP JUMPDEST PUSH1 0x1F DUP3 GT ISZERO PUSH2 0x2880 JUMPI PUSH1 0x0 DUP2 DUP2 MSTORE PUSH1 0x20 DUP2 KECCAK256 PUSH1 0x20 PUSH1 0x1F DUP7 ADD DIV DUP2 ADD PUSH1 0x20 DUP7 LT ISZERO PUSH2 0x285D JUMPI POP DUP1 JUMPDEST PUSH1 0x20 PUSH1 0x1F DUP7 ADD DIV DUP3 ADD SWAP2 POP JUMPDEST DUP2 DUP2 LT ISZERO PUSH2 0x287C JUMPI DUP3 DUP2 SSTORE PUSH1 0x1 ADD PUSH2 0x2869 JUMP JUMPDEST POP POP POP JUMPDEST POP POP POP JUMP JUMPDEST DUP2 MLOAD PUSH8 0xFFFFFFFFFFFFFFFF DUP2 GT ISZERO PUSH2 0x289F JUMPI PUSH2 0x289F PUSH2 0x22C9 JUMP JUMPDEST PUSH2 0x28B3 DUP2 PUSH2 0x28AD DUP5 SLOAD PUSH2 0x27C7 JUMP JUMPDEST DUP5 PUSH2 0x2836 JUMP JUMPDEST PUSH1 0x20 DUP1 PUSH1 0x1F DUP4 GT PUSH1 0x1 DUP2 EQ PUSH2 0x28EC JUMPI PUSH1 0x0 DUP5 ISZERO PUSH2 0x28D0 JUMPI POP DUP6 DUP4 ADD MLOAD JUMPDEST PUSH1 0x2 DUP1 DUP7 MUL PUSH1 0x8 DUP8 MUL SWAP1 SWAP2 EXP PUSH1 0x0 NOT DIV NOT DUP3 AND OR DUP7 SSTORE POP PUSH2 0x287C JUMP JUMPDEST PUSH1 0x0 DUP6 DUP2 MSTORE PUSH1 0x20 DUP2 KECCAK256 PUSH1 0x1F NOT DUP7 AND SWAP2 JUMPDEST DUP3 DUP2 LT ISZERO PUSH2 0x291B JUMPI DUP9 DUP7 ADD MLOAD DUP3 SSTORE SWAP5 DUP5 ADD SWAP5 PUSH1 0x1 SWAP1 SWAP2 ADD SWAP1 DUP5 ADD PUSH2 0x28FC JUMP JUMPDEST POP DUP6 DUP3 LT ISZERO PUSH2 0x293B JUMPI DUP8 DUP6 ADD MLOAD PUSH1 0x8 PUSH1 0x1F DUP9 AND MUL PUSH1 0x2 EXP PUSH1 0x0 NOT DIV NOT AND DUP2 SSTORE JUMPDEST POP POP POP POP POP PUSH1 0x2 MUL PUSH1 0x1 ADD SWAP1 SSTORE POP JUMP JUMPDEST DUP2 DUP2 SUB DUP2 DUP2 GT ISZERO PUSH2 0x530 JUMPI PUSH2 0x530 PUSH2 0x2804 JUMP JUMPDEST DUP2 DUP2 SUB PUSH2 0x2969 JUMPI POP POP JUMP JUMPDEST PUSH2 0x2973 DUP3 SLOAD PUSH2 0x27C7 JUMP JUMPDEST PUSH8 0xFFFFFFFFFFFFFFFF DUP2 GT ISZERO PUSH2 0x298B JUMPI PUSH2 0x298B PUSH2 0x22C9 JUMP JUMPDEST PUSH2 0x2999 DUP2 PUSH2 0x28AD DUP5 SLOAD PUSH2 0x27C7 JUMP JUMPDEST PUSH1 0x0 PUSH1 0x1F DUP3 GT PUSH1 0x1 DUP2 EQ PUSH2 0x29D1 JUMPI PUSH1 0x0 DUP4 ISZERO PUSH2 0x29B5 JUMPI POP DUP5 DUP3 ADD SLOAD JUMPDEST PUSH1 0x2 DUP1 DUP6 MUL PUSH1 0x8 DUP7 MUL SWAP1 SWAP2 EXP PUSH1 0x0 NOT DIV NOT DUP3 AND OR DUP6 SSTORE POP PUSH2 0x2A38 JUMP JUMPDEST PUSH1 0x0 DUP6 DUP2 MSTORE PUSH1 0x20 SWAP1 KECCAK256 PUSH1 0x1F NOT DUP5 AND SWAP1 PUSH1 0x0 DUP7 DUP2 MSTORE PUSH1 0x20 SWAP1 KECCAK256 DUP5 JUMPDEST DUP4 DUP2 LT ISZERO PUSH2 0x2A0B JUMPI DUP3 DUP7 ADD SLOAD DUP3 SSTORE PUSH1 0x1 SWAP6 DUP7 ADD SWAP6 SWAP1 SWAP2 ADD SWAP1 PUSH1 0x20 ADD PUSH2 0x29EB JUMP JUMPDEST POP DUP6 DUP4 LT ISZERO PUSH2 0x2A2B JUMPI DUP2 DUP6 ADD SLOAD PUSH1 0x8 PUSH1 0x1F DUP9 AND MUL PUSH1 0x2 EXP PUSH1 0x0 NOT DIV NOT AND DUP2 SSTORE JUMPDEST POP POP POP PUSH1 0x1 PUSH1 0x2 DUP5 MUL ADD DUP5 SSTORE JUMPDEST POP POP POP POP POP JUMP INVALID LOG2 PUSH5 0x6970667358 0x22 SLT KECCAK256 0xDA 0xE6 BYTE PUSH21 0x80E6C6214F19105E25FC59F2CED37D13AFEEE24F86 EXP 0xDE 0x2B 0xCE 0xB6 0xC4 CALLDATALOAD PUSH5 0x736F6C6343 STOP ADDMOD EQ STOP CALLER "
				},
				"gasEstimates": {
					"creation": {
						"codeDepositCost": "2173800",
						"executionCost": "24146",
						"totalCost": "2197946"
					},
					"external": {
						"Cancel(address,uint256)": "22080",
						"addAdmin(address)": "22229",
						"addCourse(uint256,uint256,string)": "infinite",
						"addTeacher(address)": "21202",
						"allowance(address,address)": "infinite",
						"approve(address,uint256)": "20755",
						"approveCreditTransfer(address,uint256)": "22171",
						"courseExists(uint256)": "600",
						"courseLists(uint256)": "880",
						"courserInfo(uint256)": "infinite",
						"creditTransferRequests(address,uint256)": "infinite",
						"executeCreditTransfer(address,uint256)": "infinite",
						"getAllCourseID()": "infinite",
						"getCourseInfo(uint256)": "infinite",
						"getCreditTransfersOfStudent(address)": "infinite",
						"getCreditsOfStudent()": "infinite",
						"getStudentCreditByMechanism(address)": "infinite",
						"isAdmin(address)": "739",
						"modifyCredit(address,uint256,uint256,uint256)": "62265",
						"owner()": "508",
						"recordCredit(address,uint256,uint256,uint256,string)": "infinite",
						"removeAdmin(address)": "22256",
						"removeTeacher(address)": "21553",
						"renounceOwnership()": "22540",
						"requestCreditTransfer(uint256,string)": "infinite",
						"studentCourseIds(address,uint256)": "1042",
						"studentCredits(address,uint256)": "infinite",
						"teachers(address)": "759",
						"transferOwnership(address)": "22988"
					}
				},
				"methodIdentifiers": {
					"Cancel(address,uint256)": "27f83af9",
					"addAdmin(address)": "70480275",
					"addCourse(uint256,uint256,string)": "dcc63a16",
					"addTeacher(address)": "3bc6e309",
					"allowance(address,address)": "dd62ed3e",
					"approve(address,uint256)": "095ea7b3",
					"approveCreditTransfer(address,uint256)": "6b105c81",
					"courseExists(uint256)": "5407b304",
					"courseLists(uint256)": "e2ed5a4e",
					"courserInfo(uint256)": "b264a4a5",
					"creditTransferRequests(address,uint256)": "4a5ad49e",
					"executeCreditTransfer(address,uint256)": "dba8c55f",
					"getAllCourseID()": "68fdbd70",
					"getCourseInfo(uint256)": "981059ee",
					"getCreditTransfersOfStudent(address)": "a59742df",
					"getCreditsOfStudent()": "416d6499",
					"getStudentCreditByMechanism(address)": "659cc07b",
					"isAdmin(address)": "24d7806c",
					"modifyCredit(address,uint256,uint256,uint256)": "eaf12fd1",
					"owner()": "8da5cb5b",
					"recordCredit(address,uint256,uint256,uint256,string)": "53f856c2",
					"removeAdmin(address)": "1785f53c",
					"removeTeacher(address)": "52ff6846",
					"renounceOwnership()": "715018a6",
					"requestCreditTransfer(uint256,string)": "75e7c425",
					"studentCourseIds(address,uint256)": "0740c8cf",
					"studentCredits(address,uint256)": "f2012286",
					"teachers(address)": "f0a47f78",
					"transferOwnership(address)": "f2fde38b"
				}
			},
			"storageLayout": {
				"storage": [
					{
						"astId": 3,
						"contract": "credits.sol:Creditcertification",
						"label": "_owner",
						"offset": 0,
						"slot": "0",
						"type": "t_address"
					},
					{
						"astId": 7,
						"contract": "credits.sol:Creditcertification",
						"label": "isAdmin",
						"offset": 0,
						"slot": "1",
						"type": "t_mapping(t_address,t_bool)"
					},
					{
						"astId": 205,
						"contract": "credits.sol:Creditcertification",
						"label": "courserInfo",
						"offset": 0,
						"slot": "2",
						"type": "t_mapping(t_uint256,t_struct(CourserInfo)200_storage)"
					},
					{
						"astId": 212,
						"contract": "credits.sol:Creditcertification",
						"label": "studentCredits",
						"offset": 0,
						"slot": "3",
						"type": "t_mapping(t_address,t_mapping(t_uint256,t_struct(Credit)182_storage))"
					},
					{
						"astId": 217,
						"contract": "credits.sol:Creditcertification",
						"label": "studentCourseIds",
						"offset": 0,
						"slot": "4",
						"type": "t_mapping(t_address,t_array(t_uint256)dyn_storage)"
					},
					{
						"astId": 221,
						"contract": "credits.sol:Creditcertification",
						"label": "teachers",
						"offset": 0,
						"slot": "5",
						"type": "t_mapping(t_address,t_bool)"
					},
					{
						"astId": 225,
						"contract": "credits.sol:Creditcertification",
						"label": "courseExists",
						"offset": 0,
						"slot": "6",
						"type": "t_mapping(t_uint256,t_bool)"
					},
					{
						"astId": 228,
						"contract": "credits.sol:Creditcertification",
						"label": "courseLists",
						"offset": 0,
						"slot": "7",
						"type": "t_array(t_uint256)dyn_storage"
					},
					{
						"astId": 234,
						"contract": "credits.sol:Creditcertification",
						"label": "allowance",
						"offset": 0,
						"slot": "8",
						"type": "t_mapping(t_address,t_mapping(t_address,t_uint256))"
					},
					{
						"astId": 240,
						"contract": "credits.sol:Creditcertification",
						"label": "creditTransferRequests",
						"offset": 0,
						"slot": "9",
						"type": "t_mapping(t_address,t_array(t_struct(CreditTransfer)191_storage)dyn_storage)"
					}
				],
				"types": {
					"t_address": {
						"encoding": "inplace",
						"label": "address",
						"numberOfBytes": "20"
					},
					"t_array(t_struct(CreditTransfer)191_storage)dyn_storage": {
						"base": "t_struct(CreditTransfer)191_storage",
						"encoding": "dynamic_array",
						"label": "struct Creditcertification.CreditTransfer[]",
						"numberOfBytes": "32"
					},
					"t_array(t_uint256)dyn_storage": {
						"base": "t_uint256",
						"encoding": "dynamic_array",
						"label": "uint256[]",
						"numberOfBytes": "32"
					},
					"t_bool": {
						"encoding": "inplace",
						"label": "bool",
						"numberOfBytes": "1"
					},
					"t_mapping(t_address,t_array(t_struct(CreditTransfer)191_storage)dyn_storage)": {
						"encoding": "mapping",
						"key": "t_address",
						"label": "mapping(address => struct Creditcertification.CreditTransfer[])",
						"numberOfBytes": "32",
						"value": "t_array(t_struct(CreditTransfer)191_storage)dyn_storage"
					},
					"t_mapping(t_address,t_array(t_uint256)dyn_storage)": {
						"encoding": "mapping",
						"key": "t_address",
						"label": "mapping(address => uint256[])",
						"numberOfBytes": "32",
						"value": "t_array(t_uint256)dyn_storage"
					},
					"t_mapping(t_address,t_bool)": {
						"encoding": "mapping",
						"key": "t_address",
						"label": "mapping(address => bool)",
						"numberOfBytes": "32",
						"value": "t_bool"
					},
					"t_mapping(t_address,t_mapping(t_address,t_uint256))": {
						"encoding": "mapping",
						"key": "t_address",
						"label": "mapping(address => mapping(address => uint256))",
						"numberOfBytes": "32",
						"value": "t_mapping(t_address,t_uint256)"
					},
					"t_mapping(t_address,t_mapping(t_uint256,t_struct(Credit)182_storage))": {
						"encoding": "mapping",
						"key": "t_address",
						"label": "mapping(address => mapping(uint256 => struct Creditcertification.Credit))",
						"numberOfBytes": "32",
						"value": "t_mapping(t_uint256,t_struct(Credit)182_storage)"
					},
					"t_mapping(t_address,t_uint256)": {
						"encoding": "mapping",
						"key": "t_address",
						"label": "mapping(address => uint256)",
						"numberOfBytes": "32",
						"value": "t_uint256"
					},
					"t_mapping(t_uint256,t_bool)": {
						"encoding": "mapping",
						"key": "t_uint256",
						"label": "mapping(uint256 => bool)",
						"numberOfBytes": "32",
						"value": "t_bool"
					},
					"t_mapping(t_uint256,t_struct(CourserInfo)200_storage)": {
						"encoding": "mapping",
						"key": "t_uint256",
						"label": "mapping(uint256 => struct Creditcertification.CourserInfo)",
						"numberOfBytes": "32",
						"value": "t_struct(CourserInfo)200_storage"
					},
					"t_mapping(t_uint256,t_struct(Credit)182_storage)": {
						"encoding": "mapping",
						"key": "t_uint256",
						"label": "mapping(uint256 => struct Creditcertification.Credit)",
						"numberOfBytes": "32",
						"value": "t_struct(Credit)182_storage"
					},
					"t_string_storage": {
						"encoding": "bytes",
						"label": "string",
						"numberOfBytes": "32"
					},
					"t_struct(CourserInfo)200_storage": {
						"encoding": "inplace",
						"label": "struct Creditcertification.CourserInfo",
						"members": [
							{
								"astId": 193,
								"contract": "credits.sol:Creditcertification",
								"label": "courserId",
								"offset": 0,
								"slot": "0",
								"type": "t_uint256"
							},
							{
								"astId": 195,
								"contract": "credits.sol:Creditcertification",
								"label": "courserName",
								"offset": 0,
								"slot": "1",
								"type": "t_string_storage"
							},
							{
								"astId": 197,
								"contract": "credits.sol:Creditcertification",
								"label": "credits",
								"offset": 0,
								"slot": "2",
								"type": "t_uint256"
							},
							{
								"astId": 199,
								"contract": "credits.sol:Creditcertification",
								"label": "createTime",
								"offset": 0,
								"slot": "3",
								"type": "t_uint256"
							}
						],
						"numberOfBytes": "128"
					},
					"t_struct(Credit)182_storage": {
						"encoding": "inplace",
						"label": "struct Creditcertification.Credit",
						"members": [
							{
								"astId": 163,
								"contract": "credits.sol:Creditcertification",
								"label": "courserId",
								"offset": 0,
								"slot": "0",
								"type": "t_uint256"
							},
							{
								"astId": 165,
								"contract": "credits.sol:Creditcertification",
								"label": "credits",
								"offset": 0,
								"slot": "1",
								"type": "t_uint256"
							},
							{
								"astId": 167,
								"contract": "credits.sol:Creditcertification",
								"label": "score",
								"offset": 0,
								"slot": "2",
								"type": "t_uint256"
							},
							{
								"astId": 169,
								"contract": "credits.sol:Creditcertification",
								"label": "issueDate",
								"offset": 0,
								"slot": "3",
								"type": "t_uint256"
							},
							{
								"astId": 171,
								"contract": "credits.sol:Creditcertification",
								"label": "isModified",
								"offset": 0,
								"slot": "4",
								"type": "t_bool"
							},
							{
								"astId": 173,
								"contract": "credits.sol:Creditcertification",
								"label": "modifyNum",
								"offset": 0,
								"slot": "5",
								"type": "t_uint256"
							},
							{
								"astId": 175,
								"contract": "credits.sol:Creditcertification",
								"label": "isRevoked",
								"offset": 0,
								"slot": "6",
								"type": "t_bool"
							},
							{
								"astId": 177,
								"contract": "credits.sol:Creditcertification",
								"label": "issuingInstitution",
								"offset": 0,
								"slot": "7",
								"type": "t_string_storage"
							},
							{
								"astId": 179,
								"contract": "credits.sol:Creditcertification",
								"label": "isTransferred",
								"offset": 0,
								"slot": "8",
								"type": "t_bool"
							},
							{
								"astId": 181,
								"contract": "credits.sol:Creditcertification",
								"label": "targetInstitution",
								"offset": 0,
								"slot": "9",
								"type": "t_string_storage"
							}
						],
						"numberOfBytes": "320"
					},
					"t_struct(CreditTransfer)191_storage": {
						"encoding": "inplace",
						"label": "struct Creditcertification.CreditTransfer",
						"members": [
							{
								"astId": 184,
								"contract": "credits.sol:Creditcertification",
								"label": "courseId",
								"offset": 0,
								"slot": "0",
								"type": "t_uint256"
							},
							{
								"astId": 186,
								"contract": "credits.sol:Creditcertification",
								"label": "targetInstitution",
								"offset": 0,
								"slot": "1",
								"type": "t_string_storage"
							},
							{
								"astId": 188,
								"contract": "credits.sol:Creditcertification",
								"label": "isApproved",
								"offset": 0,
								"slot": "2",
								"type": "t_bool"
							},
							{
								"astId": 190,
								"contract": "credits.sol:Creditcertification",
								"label": "isExecuted",
								"offset": 1,
								"slot": "2",
								"type": "t_bool"
							}
						],
						"numberOfBytes": "96"
					},
					"t_uint256": {
						"encoding": "inplace",
						"label": "uint256",
						"numberOfBytes": "32"
					}
				}
			},
			"userdoc": {
				"kind": "user",
				"methods": {},
				"version": 1
			}
		}
	}
}