{
	"credits.sol": {
		"Creditcertification": {
			"abi": [
				{
					"anonymous": false,
					"inputs": [
						{
							"indexed": true,
							"internalType": "address",
							"name": "newAdmin",
							"type": "address"
						}
					],
					"name": "AdminAdded",
					"type": "event"
				},
				{
					"anonymous": false,
					"inputs": [
						{
							"indexed": true,
							"internalType": "address",
							"name": "admin",
							"type": "address"
						}
					],
					"name": "AdminRemoved",
					"type": "event"
				},
				{
					"anonymous": false,
					"inputs": [
						{
							"indexed": true,
							"internalType": "address",
							"name": "student",
							"type": "address"
						},
						{
							"indexed": false,
							"internalType": "uint256",
							"name": "courseId",
							"type": "uint256"
						},
						{
							"indexed": false,
							"internalType": "uint256",
							"name": "credits",
							"type": "uint256"
						},
						{
							"indexed": false,
							"internalType": "uint256",
							"name": "score",
							"type": "uint256"
						},
						{
							"indexed": false,
							"internalType": "uint256",
							"name": "issueDate",
							"type": "uint256"
						},
						{
							"indexed": false,
							"internalType": "bool",
							"name": "isModified",
							"type": "bool"
						},
						{
							"indexed": false,
							"internalType": "uint256",
							"name": "modifyNum",
							"type": "uint256"
						},
						{
							"indexed": false,
							"internalType": "bool",
							"name": "isRevoked",
							"type": "bool"
						},
						{
							"indexed": false,
							"internalType": "string",
							"name": "issuingInstitution",
							"type": "string"
						},
						{
							"indexed": false,
							"internalType": "bool",
							"name": "isTransferred",
							"type": "bool"
						},
						{
							"indexed": false,
							"internalType": "string",
							"name": "targetInstitution",
							"type": "string"
						}
					],
					"name": "LogCreditDetails",
					"type": "event"
				},
				{
					"anonymous": false,
					"inputs": [
						{
							"indexed": true,
							"internalType": "address",
							"name": "previousOwner",
							"type": "address"
						},
						{
							"indexed": true,
							"internalType": "address",
							"name": "newOwner",
							"type": "address"
						}
					],
					"name": "OwnershipTransferred",
					"type": "event"
				},
				{
					"inputs": [
						{
							"internalType": "address",
							"name": "student",
							"type": "address"
						},
						{
							"internalType": "uint256",
							"name": "courseId",
							"type": "uint256"
						}
					],
					"name": "Cancel",
					"outputs": [],
					"stateMutability": "nonpayable",
					"type": "function"
				},
				{
					"inputs": [],
					"name": "GetAllApproveList",
					"outputs": [
						{
							"components": [
								{
									"internalType": "uint256",
									"name": "id",
									"type": "uint256"
								},
								{
									"internalType": "address",
									"name": "mechanism",
									"type": "address"
								},
								{
									"internalType": "uint256",
									"name": "expectNum",
									"type": "uint256"
								},
								{
									"internalType": "bool",
									"name": "isApproved",
									"type": "bool"
								}
							],
							"internalType": "struct Creditcertification.Request[]",
							"name": "",
							"type": "tuple[]"
						}
					],
					"stateMutability": "view",
					"type": "function"
				},
				{
					"inputs": [
						{
							"internalType": "address",
							"name": "stuAddr",
							"type": "address"
						},
						{
							"internalType": "uint256",
							"name": "num",
							"type": "uint256"
						}
					],
					"name": "Requests",
					"outputs": [],
					"stateMutability": "nonpayable",
					"type": "function"
				},
				{
					"inputs": [
						{
							"internalType": "address",
							"name": "_newAdmin",
							"type": "address"
						}
					],
					"name": "addAdmin",
					"outputs": [],
					"stateMutability": "nonpayable",
					"type": "function"
				},
				{
					"inputs": [
						{
							"internalType": "uint256",
							"name": "courseId",
							"type": "uint256"
						},
						{
							"internalType": "uint256",
							"name": "credits",
							"type": "uint256"
						},
						{
							"internalType": "string",
							"name": "courseName",
							"type": "string"
						}
					],
					"name": "addCourse",
					"outputs": [],
					"stateMutability": "nonpayable",
					"type": "function"
				},
				{
					"inputs": [
						{
							"internalType": "address",
							"name": "teacher",
							"type": "address"
						}
					],
					"name": "addTeacher",
					"outputs": [],
					"stateMutability": "nonpayable",
					"type": "function"
				},
				{
					"inputs": [
						{
							"internalType": "address",
							"name": "",
							"type": "address"
						},
						{
							"internalType": "address",
							"name": "",
							"type": "address"
						}
					],
					"name": "allowance",
					"outputs": [
						{
							"internalType": "uint256",
							"name": "",
							"type": "uint256"
						}
					],
					"stateMutability": "view",
					"type": "function"
				},
				{
					"inputs": [
						{
							"internalType": "address",
							"name": "spender",
							"type": "address"
						},
						{
							"internalType": "uint256",
							"name": "num",
							"type": "uint256"
						},
						{
							"internalType": "uint256",
							"name": "requestId",
							"type": "uint256"
						}
					],
					"name": "approve",
					"outputs": [
						{
							"internalType": "bool",
							"name": "",
							"type": "bool"
						}
					],
					"stateMutability": "nonpayable",
					"type": "function"
				},
				{
					"inputs": [
						{
							"internalType": "address",
							"name": "student",
							"type": "address"
						},
						{
							"internalType": "uint256",
							"name": "index",
							"type": "uint256"
						}
					],
					"name": "approveCreditTransfer",
					"outputs": [],
					"stateMutability": "nonpayable",
					"type": "function"
				},
				{
					"inputs": [
						{
							"internalType": "address",
							"name": "student",
							"type": "address"
						}
					],
					"name": "countCourseIdOccurrences",
					"outputs": [
						{
							"internalType": "uint256",
							"name": "",
							"type": "uint256"
						}
					],
					"stateMutability": "view",
					"type": "function"
				},
				{
					"inputs": [
						{
							"internalType": "uint256",
							"name": "",
							"type": "uint256"
						}
					],
					"name": "courseExists",
					"outputs": [
						{
							"internalType": "bool",
							"name": "",
							"type": "bool"
						}
					],
					"stateMutability": "view",
					"type": "function"
				},
				{
					"inputs": [
						{
							"internalType": "uint256",
							"name": "",
							"type": "uint256"
						}
					],
					"name": "courseLists",
					"outputs": [
						{
							"internalType": "uint256",
							"name": "",
							"type": "uint256"
						}
					],
					"stateMutability": "view",
					"type": "function"
				},
				{
					"inputs": [
						{
							"internalType": "uint256",
							"name": "",
							"type": "uint256"
						}
					],
					"name": "courserInfo",
					"outputs": [
						{
							"internalType": "uint256",
							"name": "courserId",
							"type": "uint256"
						},
						{
							"internalType": "string",
							"name": "courserName",
							"type": "string"
						},
						{
							"internalType": "uint256",
							"name": "credits",
							"type": "uint256"
						},
						{
							"internalType": "uint256",
							"name": "createTime",
							"type": "uint256"
						}
					],
					"stateMutability": "view",
					"type": "function"
				},
				{
					"inputs": [
						{
							"internalType": "address",
							"name": "",
							"type": "address"
						},
						{
							"internalType": "uint256",
							"name": "",
							"type": "uint256"
						}
					],
					"name": "creditTransferRequests",
					"outputs": [
						{
							"internalType": "address",
							"name": "studentAddr",
							"type": "address"
						},
						{
							"internalType": "uint256",
							"name": "courseId",
							"type": "uint256"
						},
						{
							"internalType": "string",
							"name": "targetInstitution",
							"type": "string"
						},
						{
							"internalType": "bool",
							"name": "isApproved",
							"type": "bool"
						},
						{
							"internalType": "bool",
							"name": "isExecuted",
							"type": "bool"
						},
						{
							"internalType": "uint256",
							"name": "index",
							"type": "uint256"
						}
					],
					"stateMutability": "view",
					"type": "function"
				},
				{
					"inputs": [
						{
							"internalType": "address",
							"name": "student",
							"type": "address"
						},
						{
							"internalType": "uint256",
							"name": "index",
							"type": "uint256"
						}
					],
					"name": "executeCreditTransfer",
					"outputs": [],
					"stateMutability": "nonpayable",
					"type": "function"
				},
				{
					"inputs": [],
					"name": "getAllCourseID",
					"outputs": [
						{
							"internalType": "uint256[]",
							"name": "",
							"type": "uint256[]"
						}
					],
					"stateMutability": "view",
					"type": "function"
				},
				{
					"inputs": [],
					"name": "getAllrequestCreditTransfer",
					"outputs": [
						{
							"components": [
								{
									"internalType": "address",
									"name": "studentAddr",
									"type": "address"
								},
								{
									"internalType": "uint256",
									"name": "courseId",
									"type": "uint256"
								},
								{
									"internalType": "string",
									"name": "targetInstitution",
									"type": "string"
								},
								{
									"internalType": "bool",
									"name": "isApproved",
									"type": "bool"
								},
								{
									"internalType": "bool",
									"name": "isExecuted",
									"type": "bool"
								},
								{
									"internalType": "uint256",
									"name": "index",
									"type": "uint256"
								}
							],
							"internalType": "struct Creditcertification.CreditTransfer[]",
							"name": "",
							"type": "tuple[]"
						}
					],
					"stateMutability": "view",
					"type": "function"
				},
				{
					"inputs": [
						{
							"internalType": "uint256",
							"name": "courseId",
							"type": "uint256"
						}
					],
					"name": "getCourseInfo",
					"outputs": [
						{
							"components": [
								{
									"internalType": "uint256",
									"name": "courserId",
									"type": "uint256"
								},
								{
									"internalType": "string",
									"name": "courserName",
									"type": "string"
								},
								{
									"internalType": "uint256",
									"name": "credits",
									"type": "uint256"
								},
								{
									"internalType": "uint256",
									"name": "createTime",
									"type": "uint256"
								}
							],
							"internalType": "struct Creditcertification.CourserInfo",
							"name": "",
							"type": "tuple"
						}
					],
					"stateMutability": "nonpayable",
					"type": "function"
				},
				{
					"inputs": [
						{
							"internalType": "address",
							"name": "student",
							"type": "address"
						}
					],
					"name": "getCreditTransfersOfStudent",
					"outputs": [
						{
							"components": [
								{
									"internalType": "address",
									"name": "studentAddr",
									"type": "address"
								},
								{
									"internalType": "uint256",
									"name": "courseId",
									"type": "uint256"
								},
								{
									"internalType": "string",
									"name": "targetInstitution",
									"type": "string"
								},
								{
									"internalType": "bool",
									"name": "isApproved",
									"type": "bool"
								},
								{
									"internalType": "bool",
									"name": "isExecuted",
									"type": "bool"
								},
								{
									"internalType": "uint256",
									"name": "index",
									"type": "uint256"
								}
							],
							"internalType": "struct Creditcertification.CreditTransfer[]",
							"name": "",
							"type": "tuple[]"
						}
					],
					"stateMutability": "view",
					"type": "function"
				},
				{
					"inputs": [],
					"name": "getCreditsOfStudent",
					"outputs": [
						{
							"components": [
								{
									"internalType": "uint256",
									"name": "courserId",
									"type": "uint256"
								},
								{
									"internalType": "uint256",
									"name": "credits",
									"type": "uint256"
								},
								{
									"internalType": "uint256",
									"name": "score",
									"type": "uint256"
								},
								{
									"internalType": "uint256",
									"name": "issueDate",
									"type": "uint256"
								},
								{
									"internalType": "bool",
									"name": "isModified",
									"type": "bool"
								},
								{
									"internalType": "uint256",
									"name": "modifyNum",
									"type": "uint256"
								},
								{
									"internalType": "bool",
									"name": "isRevoked",
									"type": "bool"
								},
								{
									"internalType": "string",
									"name": "issuingInstitution",
									"type": "string"
								},
								{
									"internalType": "bool",
									"name": "isTransferred",
									"type": "bool"
								},
								{
									"internalType": "string",
									"name": "targetInstitution",
									"type": "string"
								}
							],
							"internalType": "struct Creditcertification.Credit[]",
							"name": "creditList",
							"type": "tuple[]"
						}
					],
					"stateMutability": "view",
					"type": "function"
				},
				{
					"inputs": [
						{
							"internalType": "address",
							"name": "student",
							"type": "address"
						}
					],
					"name": "getStudentCreditByMechanism",
					"outputs": [],
					"stateMutability": "nonpayable",
					"type": "function"
				},
				{
					"inputs": [
						{
							"internalType": "address",
							"name": "",
							"type": "address"
						}
					],
					"name": "isAdmin",
					"outputs": [
						{
							"internalType": "bool",
							"name": "",
							"type": "bool"
						}
					],
					"stateMutability": "view",
					"type": "function"
				},
				{
					"inputs": [
						{
							"internalType": "address",
							"name": "",
							"type": "address"
						}
					],
					"name": "isWhiteList",
					"outputs": [
						{
							"internalType": "bool",
							"name": "",
							"type": "bool"
						}
					],
					"stateMutability": "view",
					"type": "function"
				},
				{
					"inputs": [
						{
							"internalType": "address",
							"name": "student",
							"type": "address"
						},
						{
							"internalType": "uint256",
							"name": "courseId",
							"type": "uint256"
						},
						{
							"internalType": "uint256",
							"name": "newScore",
							"type": "uint256"
						}
					],
					"name": "modifyCredit",
					"outputs": [],
					"stateMutability": "nonpayable",
					"type": "function"
				},
				{
					"inputs": [],
					"name": "owner",
					"outputs": [
						{
							"internalType": "address",
							"name": "",
							"type": "address"
						}
					],
					"stateMutability": "view",
					"type": "function"
				},
				{
					"inputs": [
						{
							"internalType": "address",
							"name": "student",
							"type": "address"
						},
						{
							"internalType": "uint256",
							"name": "courserId",
							"type": "uint256"
						},
						{
							"internalType": "uint256",
							"name": "score",
							"type": "uint256"
						},
						{
							"internalType": "string",
							"name": "issuingInstitution",
							"type": "string"
						}
					],
					"name": "recordCredit",
					"outputs": [],
					"stateMutability": "nonpayable",
					"type": "function"
				},
				{
					"inputs": [
						{
							"internalType": "address",
							"name": "_admin",
							"type": "address"
						}
					],
					"name": "removeAdmin",
					"outputs": [],
					"stateMutability": "nonpayable",
					"type": "function"
				},
				{
					"inputs": [
						{
							"internalType": "address",
							"name": "teacher",
							"type": "address"
						}
					],
					"name": "removeTeacher",
					"outputs": [],
					"stateMutability": "nonpayable",
					"type": "function"
				},
				{
					"inputs": [],
					"name": "renounceOwnership",
					"outputs": [],
					"stateMutability": "nonpayable",
					"type": "function"
				},
				{
					"inputs": [
						{
							"internalType": "uint256",
							"name": "courseId",
							"type": "uint256"
						},
						{
							"internalType": "string",
							"name": "targetInstitution",
							"type": "string"
						}
					],
					"name": "requestCreditTransfer",
					"outputs": [],
					"stateMutability": "nonpayable",
					"type": "function"
				},
				{
					"inputs": [
						{
							"internalType": "address",
							"name": "",
							"type": "address"
						},
						{
							"internalType": "uint256",
							"name": "",
							"type": "uint256"
						}
					],
					"name": "requestOfMechanism",
					"outputs": [
						{
							"internalType": "uint256",
							"name": "id",
							"type": "uint256"
						},
						{
							"internalType": "address",
							"name": "mechanism",
							"type": "address"
						},
						{
							"internalType": "uint256",
							"name": "expectNum",
							"type": "uint256"
						},
						{
							"internalType": "bool",
							"name": "isApproved",
							"type": "bool"
						}
					],
					"stateMutability": "view",
					"type": "function"
				},
				{
					"inputs": [
						{
							"internalType": "address",
							"name": "userAddr",
							"type": "address"
						}
					],
					"name": "setWhiteList",
					"outputs": [],
					"stateMutability": "nonpayable",
					"type": "function"
				},
				{
					"inputs": [
						{
							"internalType": "address",
							"name": "",
							"type": "address"
						},
						{
							"internalType": "uint256",
							"name": "",
							"type": "uint256"
						}
					],
					"name": "studentCourseIds",
					"outputs": [
						{
							"internalType": "uint256",
							"name": "",
							"type": "uint256"
						}
					],
					"stateMutability": "view",
					"type": "function"
				},
				{
					"inputs": [
						{
							"internalType": "address",
							"name": "",
							"type": "address"
						},
						{
							"internalType": "uint256",
							"name": "",
							"type": "uint256"
						}
					],
					"name": "studentCredits",
					"outputs": [
						{
							"internalType": "uint256",
							"name": "courserId",
							"type": "uint256"
						},
						{
							"internalType": "uint256",
							"name": "credits",
							"type": "uint256"
						},
						{
							"internalType": "uint256",
							"name": "score",
							"type": "uint256"
						},
						{
							"internalType": "uint256",
							"name": "issueDate",
							"type": "uint256"
						},
						{
							"internalType": "bool",
							"name": "isModified",
							"type": "bool"
						},
						{
							"internalType": "uint256",
							"name": "modifyNum",
							"type": "uint256"
						},
						{
							"internalType": "bool",
							"name": "isRevoked",
							"type": "bool"
						},
						{
							"internalType": "string",
							"name": "issuingInstitution",
							"type": "string"
						},
						{
							"internalType": "bool",
							"name": "isTransferred",
							"type": "bool"
						},
						{
							"internalType": "string",
							"name": "targetInstitution",
							"type": "string"
						}
					],
					"stateMutability": "view",
					"type": "function"
				},
				{
					"inputs": [
						{
							"internalType": "uint256",
							"name": "",
							"type": "uint256"
						}
					],
					"name": "studentLists",
					"outputs": [
						{
							"internalType": "address",
							"name": "",
							"type": "address"
						}
					],
					"stateMutability": "view",
					"type": "function"
				},
				{
					"inputs": [
						{
							"internalType": "address",
							"name": "",
							"type": "address"
						}
					],
					"name": "teachers",
					"outputs": [
						{
							"internalType": "bool",
							"name": "",
							"type": "bool"
						}
					],
					"stateMutability": "view",
					"type": "function"
				},
				{
					"inputs": [
						{
							"internalType": "address",
							"name": "newOwner",
							"type": "address"
						}
					],
					"name": "transferOwnership",
					"outputs": [],
					"stateMutability": "nonpayable",
					"type": "function"
				}
			],
			"devdoc": {
				"kind": "dev",
				"methods": {},
				"version": 1
			},
			"evm": {
				"assembly": "    /* \"credits.sol\":1623:15489  contract Creditcertification is Ownable{... */\n  mstore(0x40, 0x80)\n  callvalue\n  dup1\n  iszero\n  tag_1\n  jumpi\n  0x00\n  dup1\n  revert\ntag_1:\n  pop\n    /* \"credits.sol\":450:467  address msgSender */\n  0x00\n    /* \"credits.sol\":494:512  _owner = msgSender */\n  dup1\n  sload\n  not(sub(shl(0xa0, 0x01), 0x01))\n  and\n    /* \"credits.sol\":470:480  msg.sender */\n  caller\n    /* \"credits.sol\":494:512  _owner = msgSender */\n  swap1\n  dup2\n  or\n  dup3\n  sstore\n    /* \"credits.sol\":531:574  OwnershipTransferred(address(0), msgSender) */\n  mload(0x40)\n    /* \"credits.sol\":470:480  msg.sender */\n  swap1\n  swap2\n  dup3\n  swap2\n    /* \"credits.sol\":531:574  OwnershipTransferred(address(0), msgSender) */\n  0x8be0079c531659141344cd1fd0a4f28419497f9722a3daafe3b4186f6b6457e0\n  swap1\n    /* \"credits.sol\":450:467  address msgSender */\n  dup3\n  swap1\n    /* \"credits.sol\":531:574  OwnershipTransferred(address(0), msgSender) */\n  log3\n    /* \"credits.sol\":436:585  {... */\n  pop\n    /* \"credits.sol\":1623:15489  contract Creditcertification is Ownable{... */\n  dataSize(sub_0)\n  dup1\n  dataOffset(sub_0)\n  0x00\n  codecopy\n  0x00\n  return\nstop\n\nsub_0: assembly {\n        /* \"credits.sol\":1623:15489  contract Creditcertification is Ownable{... */\n      mstore(0x40, 0x80)\n      callvalue\n      dup1\n      iszero\n      tag_1\n      jumpi\n      0x00\n      dup1\n      revert\n    tag_1:\n      pop\n      jumpi(tag_2, lt(calldatasize, 0x04))\n      shr(0xe0, calldataload(0x00))\n      dup1\n      0x6b105c81\n      gt\n      tag_40\n      jumpi\n      dup1\n      0xb44e7d09\n      gt\n      tag_41\n      jumpi\n      dup1\n      0xe2ed5a4e\n      gt\n      tag_42\n      jumpi\n      dup1\n      0xe2ed5a4e\n      eq\n      tag_35\n      jumpi\n      dup1\n      0xf0a47f78\n      eq\n      tag_36\n      jumpi\n      dup1\n      0xf2012286\n      eq\n      tag_37\n      jumpi\n      dup1\n      0xf2fde38b\n      eq\n      tag_38\n      jumpi\n      dup1\n      0xf99031a7\n      eq\n      tag_39\n      jumpi\n      0x00\n      dup1\n      revert\n    tag_42:\n      dup1\n      0xb44e7d09\n      eq\n      tag_30\n      jumpi\n      dup1\n      0xb5fe8d09\n      eq\n      tag_31\n      jumpi\n      dup1\n      0xdba8c55f\n      eq\n      tag_32\n      jumpi\n      dup1\n      0xdcc63a16\n      eq\n      tag_33\n      jumpi\n      dup1\n      0xdd62ed3e\n      eq\n      tag_34\n      jumpi\n      0x00\n      dup1\n      revert\n    tag_41:\n      dup1\n      0x8da5cb5b\n      gt\n      tag_43\n      jumpi\n      dup1\n      0x8da5cb5b\n      eq\n      tag_25\n      jumpi\n      dup1\n      0x981059ee\n      eq\n      tag_26\n      jumpi\n      dup1\n      0x995975d8\n      eq\n      tag_27\n      jumpi\n      dup1\n      0xa59742df\n      eq\n      tag_28\n      jumpi\n      dup1\n      0xb264a4a5\n      eq\n      tag_29\n      jumpi\n      0x00\n      dup1\n      revert\n    tag_43:\n      dup1\n      0x6b105c81\n      eq\n      tag_21\n      jumpi\n      dup1\n      0x70480275\n      eq\n      tag_22\n      jumpi\n      dup1\n      0x715018a6\n      eq\n      tag_23\n      jumpi\n      dup1\n      0x75e7c425\n      eq\n      tag_24\n      jumpi\n      0x00\n      dup1\n      revert\n    tag_40:\n      dup1\n      0x416d6499\n      gt\n      tag_44\n      jumpi\n      dup1\n      0x52ff6846\n      gt\n      tag_45\n      jumpi\n      dup1\n      0x52ff6846\n      eq\n      tag_16\n      jumpi\n      dup1\n      0x5407b304\n      eq\n      tag_17\n      jumpi\n      dup1\n      0x5ba75156\n      eq\n      tag_18\n      jumpi\n      dup1\n      0x659cc07b\n      eq\n      tag_19\n      jumpi\n      dup1\n      0x68fdbd70\n      eq\n      tag_20\n      jumpi\n      0x00\n      dup1\n      revert\n    tag_45:\n      dup1\n      0x416d6499\n      eq\n      tag_12\n      jumpi\n      dup1\n      0x426a8493\n      eq\n      tag_13\n      jumpi\n      dup1\n      0x4708fdd6\n      eq\n      tag_14\n      jumpi\n      dup1\n      0x4a5ad49e\n      eq\n      tag_15\n      jumpi\n      0x00\n      dup1\n      revert\n    tag_44:\n      dup1\n      0x24d7806c\n      gt\n      tag_46\n      jumpi\n      dup1\n      0x24d7806c\n      eq\n      tag_7\n      jumpi\n      dup1\n      0x261ca633\n      eq\n      tag_8\n      jumpi\n      dup1\n      0x27f83af9\n      eq\n      tag_9\n      jumpi\n      dup1\n      0x39e899ee\n      eq\n      tag_10\n      jumpi\n      dup1\n      0x3bc6e309\n      eq\n      tag_11\n      jumpi\n      0x00\n      dup1\n      revert\n    tag_46:\n      dup1\n      0x041c2ee0\n      eq\n      tag_3\n      jumpi\n      dup1\n      0x0740c8cf\n      eq\n      tag_4\n      jumpi\n      dup1\n      0x1145d39a\n      eq\n      tag_5\n      jumpi\n      dup1\n      0x1785f53c\n      eq\n      tag_6\n      jumpi\n    tag_2:\n      0x00\n      dup1\n      revert\n        /* \"credits.sol\":11587:11747  function countCourseIdOccurrences(address student) public view returns (uint256) {... */\n    tag_3:\n      tag_47\n      tag_48\n      calldatasize\n      0x04\n      tag_49\n      jump\t// in\n    tag_48:\n      sub(shl(0xa0, 0x01), 0x01)\n        /* \"credits.sol\":11698:11729  creditTransferRequests[student] */\n      and\n        /* \"credits.sol\":11659:11666  uint256 */\n      0x00\n        /* \"credits.sol\":11698:11729  creditTransferRequests[student] */\n      swap1\n      dup2\n      mstore\n        /* \"credits.sol\":11698:11720  creditTransferRequests */\n      0x0b\n        /* \"credits.sol\":11698:11729  creditTransferRequests[student] */\n      0x20\n      mstore\n      0x40\n      swap1\n      keccak256\n        /* \"credits.sol\":11698:11736  creditTransferRequests[student].length */\n      sload\n      swap1\n        /* \"credits.sol\":11587:11747  function countCourseIdOccurrences(address student) public view returns (uint256) {... */\n      jump\n    tag_47:\n      mload(0x40)\n        /* \"#utility.yul\":529:554   */\n      swap1\n      dup2\n      mstore\n        /* \"#utility.yul\":517:519   */\n      0x20\n        /* \"#utility.yul\":502:520   */\n      add\n        /* \"credits.sol\":11587:11747  function countCourseIdOccurrences(address student) public view returns (uint256) {... */\n    tag_51:\n      mload(0x40)\n      dup1\n      swap2\n      sub\n      swap1\n      return\n        /* \"credits.sol\":3356:3406  mapping(address => uint[]) public studentCourseIds */\n    tag_4:\n      tag_47\n      tag_54\n      calldatasize\n      0x04\n      tag_55\n      jump\t// in\n    tag_54:\n      tag_56\n      jump\t// in\n        /* \"credits.sol\":14555:15479  function getAllrequestCreditTransfer() external view returns (CreditTransfer[] memory) {... */\n    tag_5:\n      tag_58\n      tag_59\n      jump\t// in\n    tag_58:\n      mload(0x40)\n      tag_51\n      swap2\n      swap1\n      tag_61\n      jump\t// in\n        /* \"credits.sol\":841:983  function removeAdmin(address _admin) onlyOwner public  {... */\n    tag_6:\n      tag_62\n      tag_63\n      calldatasize\n      0x04\n      tag_49\n      jump\t// in\n    tag_63:\n      tag_64\n      jump\t// in\n    tag_62:\n      stop\n        /* \"credits.sol\":140:179  mapping(address => bool) public isAdmin */\n    tag_7:\n      tag_65\n      tag_66\n      calldatasize\n      0x04\n      tag_49\n      jump\t// in\n    tag_66:\n      mstore(0x20, 0x01)\n      0x00\n      swap1\n      dup2\n      mstore\n      0x40\n      swap1\n      keccak256\n      sload\n      0xff\n      and\n      dup2\n      jump\n    tag_65:\n      mload(0x40)\n        /* \"#utility.yul\":2846:2860   */\n      swap1\n      iszero\n        /* \"#utility.yul\":2839:2861   */\n      iszero\n        /* \"#utility.yul\":2821:2862   */\n      dup2\n      mstore\n        /* \"#utility.yul\":2809:2811   */\n      0x20\n        /* \"#utility.yul\":2794:2812   */\n      add\n        /* \"credits.sol\":140:179  mapping(address => bool) public isAdmin */\n      tag_51\n        /* \"#utility.yul\":2681:2868   */\n      jump\n        /* \"credits.sol\":3898:3927  address[] public studentLists */\n    tag_8:\n      tag_70\n      tag_71\n      calldatasize\n      0x04\n      tag_72\n      jump\t// in\n    tag_71:\n      tag_73\n      jump\t// in\n    tag_70:\n      mload(0x40)\n      sub(shl(0xa0, 0x01), 0x01)\n        /* \"#utility.yul\":3222:3254   */\n      swap1\n      swap2\n      and\n        /* \"#utility.yul\":3204:3255   */\n      dup2\n      mstore\n        /* \"#utility.yul\":3192:3194   */\n      0x20\n        /* \"#utility.yul\":3177:3195   */\n      add\n        /* \"credits.sol\":3898:3927  address[] public studentLists */\n      tag_51\n        /* \"#utility.yul\":3058:3261   */\n      jump\n        /* \"credits.sol\":11027:11513  function Cancel(address student,uint256 courseId)external  {... */\n    tag_9:\n      tag_62\n      tag_77\n      calldatasize\n      0x04\n      tag_55\n      jump\t// in\n    tag_77:\n      tag_78\n      jump\t// in\n        /* \"credits.sol\":4118:4217  function setWhiteList(address userAddr)external {... */\n    tag_10:\n      tag_62\n      tag_80\n      calldatasize\n      0x04\n      tag_49\n      jump\t// in\n    tag_80:\n      sub(shl(0xa0, 0x01), 0x01)\n        /* \"credits.sol\":4180:4201  isWhiteList[userAddr] */\n      and\n      0x00\n      swap1\n      dup2\n      mstore\n        /* \"credits.sol\":4180:4191  isWhiteList */\n      0x08\n        /* \"credits.sol\":4180:4201  isWhiteList[userAddr] */\n      0x20\n      mstore\n      0x40\n      swap1\n      keccak256\n        /* \"credits.sol\":4180:4206  isWhiteList[userAddr]=true */\n      dup1\n      sload\n      not(0xff)\n      and\n        /* \"credits.sol\":4202:4206  true */\n      0x01\n        /* \"credits.sol\":4180:4206  isWhiteList[userAddr]=true */\n      or\n      swap1\n      sstore\n        /* \"credits.sol\":4118:4217  function setWhiteList(address userAddr)external {... */\n      jump\n        /* \"credits.sol\":5071:5337  function addTeacher(address teacher)external {... */\n    tag_11:\n      tag_62\n      tag_83\n      calldatasize\n      0x04\n      tag_49\n      jump\t// in\n    tag_83:\n      tag_84\n      jump\t// in\n        /* \"credits.sol\":6973:7421  function getCreditsOfStudent() external view returns(Credit[] memory creditList) {... */\n    tag_12:\n      tag_85\n      tag_86\n      jump\t// in\n    tag_85:\n      mload(0x40)\n      tag_51\n      swap2\n      swap1\n      tag_88\n      jump\t// in\n        /* \"credits.sol\":7493:7960  function approve(address spender,uint256 num, uint256 requestId )external returns(bool){... */\n    tag_13:\n      tag_65\n      tag_90\n      calldatasize\n      0x04\n      tag_91\n      jump\t// in\n    tag_90:\n      tag_92\n      jump\t// in\n        /* \"credits.sol\":9894:10022  function GetAllApproveList()external view returns(Request[]memory){... */\n    tag_14:\n      tag_94\n      tag_95\n      jump\t// in\n    tag_94:\n      mload(0x40)\n      tag_51\n      swap2\n      swap1\n      tag_97\n      jump\t// in\n        /* \"credits.sol\":3821:3887  mapping(address => CreditTransfer[]) public creditTransferRequests */\n    tag_15:\n      tag_98\n      tag_99\n      calldatasize\n      0x04\n      tag_55\n      jump\t// in\n    tag_99:\n      tag_100\n      jump\t// in\n    tag_98:\n      mload(0x40)\n      tag_51\n      swap7\n      swap6\n      swap5\n      swap4\n      swap3\n      swap2\n      swap1\n      tag_102\n      jump\t// in\n        /* \"credits.sol\":5370:5716  function removeTeacher(address teacher)external {... */\n    tag_16:\n      tag_62\n      tag_104\n      calldatasize\n      0x04\n      tag_49\n      jump\t// in\n    tag_104:\n      tag_105\n      jump\t// in\n        /* \"credits.sol\":3491:3535  mapping(uint256 => bool) public courseExists */\n    tag_17:\n      tag_65\n      tag_107\n      calldatasize\n      0x04\n      tag_72\n      jump\t// in\n    tag_107:\n      mstore(0x20, 0x07)\n      0x00\n      swap1\n      dup2\n      mstore\n      0x40\n      swap1\n      keccak256\n      sload\n      0xff\n      and\n      dup2\n      jump\n        /* \"credits.sol\":5767:6771  function recordCredit(address student,uint256 courserId,uint256 score,string memory issuingInstitution)external {... */\n    tag_18:\n      tag_62\n      tag_111\n      calldatasize\n      0x04\n      tag_112\n      jump\t// in\n    tag_111:\n      tag_113\n      jump\t// in\n        /* \"credits.sol\":8595:9434  function getStudentCreditByMechanism(address student)external  {... */\n    tag_19:\n      tag_62\n      tag_115\n      calldatasize\n      0x04\n      tag_49\n      jump\t// in\n    tag_115:\n      tag_116\n      jump\t// in\n        /* \"credits.sol\":6813:6919  function getAllCourseID()external view returns(uint[] memory){... */\n    tag_20:\n      tag_117\n      tag_118\n      jump\t// in\n    tag_117:\n      mload(0x40)\n      tag_51\n      swap2\n      swap1\n      tag_120\n      jump\t// in\n        /* \"credits.sol\":13032:13407  function approveCreditTransfer(address student, uint index) external  {... */\n    tag_21:\n      tag_62\n      tag_122\n      calldatasize\n      0x04\n      tag_55\n      jump\t// in\n    tag_122:\n      tag_123\n      jump\t// in\n        /* \"credits.sol\":690:831  function addAdmin(address _newAdmin)onlyOwner public {... */\n    tag_22:\n      tag_62\n      tag_125\n      calldatasize\n      0x04\n      tag_49\n      jump\t// in\n    tag_125:\n      tag_126\n      jump\t// in\n        /* \"credits.sol\":1218:1375  function renounceOwnership() public virtual onlyOwner {... */\n    tag_23:\n      tag_62\n      tag_128\n      jump\t// in\n        /* \"credits.sol\":11798:12956  function requestCreditTransfer(uint256 courseId, string memory targetInstitution) external {... */\n    tag_24:\n      tag_62\n      tag_130\n      calldatasize\n      0x04\n      tag_131\n      jump\t// in\n    tag_130:\n      tag_132\n      jump\t// in\n        /* \"credits.sol\":595:680  function owner() public view returns (address) {... */\n    tag_25:\n        /* \"credits.sol\":633:640  address */\n      0x00\n        /* \"credits.sol\":663:669  _owner */\n      sload\n      sub(shl(0xa0, 0x01), 0x01)\n      and\n        /* \"credits.sol\":595:680  function owner() public view returns (address) {... */\n      jump(tag_70)\n        /* \"credits.sol\":4822:5030  function getCourseInfo(uint256 courseId)external returns(CourserInfo memory){... */\n    tag_26:\n      tag_136\n      tag_137\n      calldatasize\n      0x04\n      tag_72\n      jump\t// in\n    tag_137:\n      tag_138\n      jump\t// in\n    tag_136:\n      mload(0x40)\n      tag_51\n      swap2\n      swap1\n      tag_140\n      jump\t// in\n        /* \"credits.sol\":9540:9842  function Requests(address stuAddr, uint256 num) external {... */\n    tag_27:\n      tag_62\n      tag_142\n      calldatasize\n      0x04\n      tag_55\n      jump\t// in\n    tag_142:\n      tag_143\n      jump\t// in\n        /* \"credits.sol\":14254:14498  function getCreditTransfersOfStudent(address student) external  view returns (CreditTransfer[] memory) {... */\n    tag_28:\n      tag_58\n      tag_145\n      calldatasize\n      0x04\n      tag_49\n      jump\t// in\n    tag_145:\n      tag_146\n      jump\t// in\n        /* \"credits.sol\":3130:3178  mapping (uint256=>CourserInfo)public courserInfo */\n    tag_29:\n      tag_148\n      tag_149\n      calldatasize\n      0x04\n      tag_72\n      jump\t// in\n    tag_149:\n      tag_150\n      jump\t// in\n    tag_148:\n      mload(0x40)\n      tag_51\n      swap5\n      swap4\n      swap3\n      swap2\n      swap1\n      tag_152\n      jump\t// in\n        /* \"credits.sol\":10077:10964  function modifyCredit(address student, uint256 courseId,  uint256 newScore) external  onlyTeacher {... */\n    tag_30:\n      tag_62\n      tag_154\n      calldatasize\n      0x04\n      tag_91\n      jump\t// in\n    tag_154:\n      tag_155\n      jump\t// in\n        /* \"credits.sol\":3034:3088  mapping (address =>Request[])public requestOfMechanism */\n    tag_31:\n      tag_156\n      tag_157\n      calldatasize\n      0x04\n      tag_55\n      jump\t// in\n    tag_157:\n      tag_158\n      jump\t// in\n    tag_156:\n      0x40\n      dup1\n      mload\n        /* \"#utility.yul\":10841:10866   */\n      swap5\n      dup6\n      mstore\n      sub(shl(0xa0, 0x01), 0x01)\n        /* \"#utility.yul\":10902:10934   */\n      swap1\n      swap4\n      and\n        /* \"#utility.yul\":10897:10899   */\n      0x20\n        /* \"#utility.yul\":10882:10900   */\n      dup6\n      add\n        /* \"#utility.yul\":10875:10935   */\n      mstore\n        /* \"#utility.yul\":10951:10969   */\n      swap2\n      dup4\n      add\n        /* \"#utility.yul\":10944:10978   */\n      mstore\n        /* \"#utility.yul\":11021:11035   */\n      iszero\n        /* \"#utility.yul\":11014:11036   */\n      iszero\n        /* \"#utility.yul\":11009:11011   */\n      0x60\n        /* \"#utility.yul\":10994:11012   */\n      dup3\n      add\n        /* \"#utility.yul\":10987:11037   */\n      mstore\n        /* \"#utility.yul\":10828:10831   */\n      0x80\n        /* \"#utility.yul\":10813:10832   */\n      add\n        /* \"credits.sol\":3034:3088  mapping (address =>Request[])public requestOfMechanism */\n      tag_51\n        /* \"#utility.yul\":10616:11043   */\n      jump\n        /* \"credits.sol\":13459:14209  function executeCreditTransfer(address student, uint index) external {... */\n    tag_32:\n      tag_62\n      tag_162\n      calldatasize\n      0x04\n      tag_55\n      jump\t// in\n    tag_162:\n      tag_163\n      jump\t// in\n        /* \"credits.sol\":4250:4783  function addCourse(uint256 courseId,uint256 credits,string memory courseName)external {... */\n    tag_33:\n      tag_62\n      tag_165\n      calldatasize\n      0x04\n      tag_166\n      jump\t// in\n    tag_165:\n      tag_167\n      jump\t// in\n        /* \"credits.sol\":3701:3760  mapping(address=>mapping(address=>uint256))public allowance */\n    tag_34:\n      tag_47\n      tag_169\n      calldatasize\n      0x04\n      tag_170\n      jump\t// in\n    tag_169:\n      0x0a\n      0x20\n      swap1\n      dup2\n      mstore\n      0x00\n      swap3\n      dup4\n      mstore\n      0x40\n      dup1\n      dup5\n      keccak256\n      swap1\n      swap2\n      mstore\n      swap1\n      dup3\n      mstore\n      swap1\n      keccak256\n      sload\n      dup2\n      jump\n        /* \"credits.sol\":3624:3652  uint256[]public  courseLists */\n    tag_35:\n      tag_47\n      tag_174\n      calldatasize\n      0x04\n      tag_72\n      jump\t// in\n    tag_174:\n      tag_175\n      jump\t// in\n        /* \"credits.sol\":3443:3480  mapping(address=>bool)public teachers */\n    tag_36:\n      tag_65\n      tag_178\n      calldatasize\n      0x04\n      tag_49\n      jump\t// in\n    tag_178:\n      mstore(0x20, 0x06)\n      0x00\n      swap1\n      dup2\n      mstore\n      0x40\n      swap1\n      keccak256\n      sload\n      0xff\n      and\n      dup2\n      jump\n        /* \"credits.sol\":3239:3304  mapping(address => mapping(uint => Credit)) public studentCredits */\n    tag_37:\n      tag_181\n      tag_182\n      calldatasize\n      0x04\n      tag_55\n      jump\t// in\n    tag_182:\n      tag_183\n      jump\t// in\n    tag_181:\n      mload(0x40)\n      tag_51\n      swap11\n      swap10\n      swap9\n      swap8\n      swap7\n      swap6\n      swap5\n      swap4\n      swap3\n      swap2\n      swap1\n      tag_185\n      jump\t// in\n        /* \"credits.sol\":1385:1611  function transferOwnership(address newOwner) public virtual onlyOwner {... */\n    tag_38:\n      tag_62\n      tag_187\n      calldatasize\n      0x04\n      tag_49\n      jump\t// in\n    tag_187:\n      tag_188\n      jump\t// in\n        /* \"credits.sol\":3572:3613  mapping(address =>bool)public isWhiteList */\n    tag_39:\n      tag_65\n      tag_190\n      calldatasize\n      0x04\n      tag_49\n      jump\t// in\n    tag_190:\n      mstore(0x20, 0x08)\n      0x00\n      swap1\n      dup2\n      mstore\n      0x40\n      swap1\n      keccak256\n      sload\n      0xff\n      and\n      dup2\n      jump\n        /* \"credits.sol\":3356:3406  mapping(address => uint[]) public studentCourseIds */\n    tag_56:\n      mstore(0x20, 0x05)\n      dup2\n      0x00\n      mstore\n      keccak256(0x00, 0x40)\n      dup2\n      dup2\n      sload\n      dup2\n      lt\n      tag_194\n      jumpi\n      0x00\n      dup1\n      revert\n    tag_194:\n      swap1\n      0x00\n      mstore\n      keccak256(0x00, 0x20)\n      add\n      0x00\n      swap2\n      pop\n      swap2\n      pop\n      pop\n      sload\n      dup2\n      jump\t// out\n        /* \"credits.sol\":14555:15479  function getAllrequestCreditTransfer() external view returns (CreditTransfer[] memory) {... */\n    tag_59:\n        /* \"credits.sol\":14617:14640  CreditTransfer[] memory */\n      0x60\n        /* \"credits.sol\":14666:14684  uint totalRequests */\n      0x00\n        /* \"credits.sol\":14760:14766  uint i */\n      dup1\n        /* \"credits.sol\":14755:14898  for (uint i = 0; i < studentLists.length; i++) {... */\n    tag_197:\n        /* \"credits.sol\":14776:14788  studentLists */\n      0x0c\n        /* \"credits.sol\":14776:14795  studentLists.length */\n      sload\n        /* \"credits.sol\":14772:14795  i < studentLists.length */\n      dup2\n      lt\n        /* \"credits.sol\":14755:14898  for (uint i = 0; i < studentLists.length; i++) {... */\n      iszero\n      tag_198\n      jumpi\n        /* \"credits.sol\":14837:14859  creditTransferRequests */\n      0x0b\n        /* \"credits.sol\":14837:14876  creditTransferRequests[studentLists[i]] */\n      0x00\n        /* \"credits.sol\":14860:14872  studentLists */\n      0x0c\n        /* \"credits.sol\":14873:14874  i */\n      dup4\n        /* \"credits.sol\":14860:14875  studentLists[i] */\n      dup2\n      sload\n      dup2\n      lt\n      tag_201\n      jumpi\n      tag_201\n      tag_202\n      jump\t// in\n    tag_201:\n      0x00\n      swap2\n      dup3\n      mstore\n      0x20\n      dup1\n      dup4\n      keccak256\n      swap1\n      swap2\n      add\n      sload\n      sub(shl(0xa0, 0x01), 0x01)\n      and\n        /* \"credits.sol\":14837:14876  creditTransferRequests[studentLists[i]] */\n      dup4\n      mstore\n      dup3\n      add\n      swap3\n      swap1\n      swap3\n      mstore\n      0x40\n      add\n      swap1\n      keccak256\n        /* \"credits.sol\":14837:14883  creditTransferRequests[studentLists[i]].length */\n      sload\n        /* \"credits.sol\":14820:14883  totalRequests += creditTransferRequests[studentLists[i]].length */\n      tag_204\n      swap1\n      dup4\n      tag_205\n      jump\t// in\n    tag_204:\n      swap2\n      pop\n        /* \"credits.sol\":14797:14800  i++ */\n      0x01\n      add\n        /* \"credits.sol\":14755:14898  for (uint i = 0; i < studentLists.length; i++) {... */\n      jump(tag_197)\n    tag_198:\n      pop\n        /* \"credits.sol\":14973:15008  CreditTransfer[] memory allRequests */\n      0x00\n        /* \"credits.sol\":15032:15045  totalRequests */\n      dup2\n        /* \"credits.sol\":15011:15046  new CreditTransfer[](totalRequests) */\n      0xffffffffffffffff\n      dup2\n      gt\n      iszero\n      tag_207\n      jumpi\n      tag_207\n      tag_208\n      jump\t// in\n    tag_207:\n      mload(0x40)\n      swap1\n      dup1\n      dup3\n      mstore\n      dup1\n      0x20\n      mul\n      0x20\n      add\n      dup3\n      add\n      0x40\n      mstore\n      dup1\n      iszero\n      tag_209\n      jumpi\n      dup2\n      0x20\n      add\n    tag_210:\n      tag_211\n      mload(0x40)\n      dup1\n      0xc0\n      add\n      0x40\n      mstore\n      dup1\n      and(sub(shl(0xa0, 0x01), 0x01), 0x00)\n      dup2\n      mstore\n      0x20\n      add\n      0x00\n      dup2\n      mstore\n      0x20\n      add\n      0x60\n      dup2\n      mstore\n      0x20\n      add\n      iszero(iszero(0x00))\n      dup2\n      mstore\n      0x20\n      add\n      iszero(iszero(0x00))\n      dup2\n      mstore\n      0x20\n      add\n      0x00\n      dup2\n      mstore\n      pop\n      swap1\n      jump\n    tag_211:\n      dup2\n      mstore\n      0x20\n      add\n      swap1\n      0x01\n      swap1\n      sub\n      swap1\n      dup2\n      tag_210\n      jumpi\n      swap1\n      pop\n    tag_209:\n      pop\n        /* \"credits.sol\":14973:15046  CreditTransfer[] memory allRequests = new CreditTransfer[](totalRequests) */\n      swap1\n      pop\n        /* \"credits.sol\":15060:15079  uint currentRequest */\n      0x00\n        /* \"credits.sol\":15137:15143  uint i */\n      dup1\n        /* \"credits.sol\":15132:15436  for (uint i = 0; i < studentLists.length; i++) {... */\n    tag_213:\n        /* \"credits.sol\":15153:15165  studentLists */\n      0x0c\n        /* \"credits.sol\":15153:15172  studentLists.length */\n      sload\n        /* \"credits.sol\":15149:15172  i < studentLists.length */\n      dup2\n      lt\n        /* \"credits.sol\":15132:15436  for (uint i = 0; i < studentLists.length; i++) {... */\n      iszero\n      tag_214\n      jumpi\n        /* \"credits.sol\":15202:15208  uint j */\n      0x00\n        /* \"credits.sol\":15197:15422  for (uint j = 0; j < creditTransferRequests[studentLists[i]].length; j++) {... */\n    tag_216:\n        /* \"credits.sol\":15218:15240  creditTransferRequests */\n      0x0b\n        /* \"credits.sol\":15218:15257  creditTransferRequests[studentLists[i]] */\n      0x00\n        /* \"credits.sol\":15241:15253  studentLists */\n      0x0c\n        /* \"credits.sol\":15254:15255  i */\n      dup5\n        /* \"credits.sol\":15241:15256  studentLists[i] */\n      dup2\n      sload\n      dup2\n      lt\n      tag_220\n      jumpi\n      tag_220\n      tag_202\n      jump\t// in\n    tag_220:\n      0x00\n      swap2\n      dup3\n      mstore\n      0x20\n      dup1\n      dup4\n      keccak256\n      swap1\n      swap2\n      add\n      sload\n      sub(shl(0xa0, 0x01), 0x01)\n      and\n        /* \"credits.sol\":15218:15257  creditTransferRequests[studentLists[i]] */\n      dup4\n      mstore\n      dup3\n      add\n      swap3\n      swap1\n      swap3\n      mstore\n      0x40\n      add\n      swap1\n      keccak256\n        /* \"credits.sol\":15218:15264  creditTransferRequests[studentLists[i]].length */\n      sload\n        /* \"credits.sol\":15214:15264  j < creditTransferRequests[studentLists[i]].length */\n      dup2\n      lt\n        /* \"credits.sol\":15197:15422  for (uint j = 0; j < creditTransferRequests[studentLists[i]].length; j++) {... */\n      iszero\n      tag_217\n      jumpi\n        /* \"credits.sol\":15323:15345  creditTransferRequests */\n      0x0b\n        /* \"credits.sol\":15323:15362  creditTransferRequests[studentLists[i]] */\n      0x00\n        /* \"credits.sol\":15346:15358  studentLists */\n      0x0c\n        /* \"credits.sol\":15359:15360  i */\n      dup5\n        /* \"credits.sol\":15346:15361  studentLists[i] */\n      dup2\n      sload\n      dup2\n      lt\n      tag_223\n      jumpi\n      tag_223\n      tag_202\n      jump\t// in\n    tag_223:\n      0x00\n      swap2\n      dup3\n      mstore\n      0x20\n      dup1\n      dup4\n      keccak256\n      swap1\n      swap2\n      add\n      sload\n      sub(shl(0xa0, 0x01), 0x01)\n      and\n        /* \"credits.sol\":15323:15362  creditTransferRequests[studentLists[i]] */\n      dup4\n      mstore\n      dup3\n      add\n      swap3\n      swap1\n      swap3\n      mstore\n      0x40\n      add\n      swap1\n      keccak256\n        /* \"credits.sol\":15323:15365  creditTransferRequests[studentLists[i]][j] */\n      dup1\n      sload\n        /* \"credits.sol\":15363:15364  j */\n      dup3\n      swap1\n        /* \"credits.sol\":15323:15365  creditTransferRequests[studentLists[i]][j] */\n      dup2\n      lt\n      tag_226\n      jumpi\n      tag_226\n      tag_202\n      jump\t// in\n    tag_226:\n      swap1\n      0x00\n      mstore\n      keccak256(0x00, 0x20)\n      swap1\n      0x05\n      mul\n      add\n        /* \"credits.sol\":15293:15365  allRequests[currentRequest] = creditTransferRequests[studentLists[i]][j] */\n      mload(0x40)\n      dup1\n      0xc0\n      add\n      0x40\n      mstore\n      swap1\n      dup2\n      0x00\n      dup3\n      add\n      0x00\n      swap1\n      sload\n      swap1\n      0x0100\n      exp\n      swap1\n      div\n      sub(shl(0xa0, 0x01), 0x01)\n      and\n      sub(shl(0xa0, 0x01), 0x01)\n      and\n      sub(shl(0xa0, 0x01), 0x01)\n      and\n      dup2\n      mstore\n      0x20\n      add\n      0x01\n      dup3\n      add\n      sload\n      dup2\n      mstore\n      0x20\n      add\n      0x02\n      dup3\n      add\n      dup1\n      sload\n      tag_228\n      swap1\n      tag_229\n      jump\t// in\n    tag_228:\n      dup1\n      0x1f\n      add\n      0x20\n      dup1\n      swap2\n      div\n      mul\n      0x20\n      add\n      mload(0x40)\n      swap1\n      dup2\n      add\n      0x40\n      mstore\n      dup1\n      swap3\n      swap2\n      swap1\n      dup2\n      dup2\n      mstore\n      0x20\n      add\n      dup3\n      dup1\n      sload\n      tag_230\n      swap1\n      tag_229\n      jump\t// in\n    tag_230:\n      dup1\n      iszero\n      tag_231\n      jumpi\n      dup1\n      0x1f\n      lt\n      tag_232\n      jumpi\n      0x0100\n      dup1\n      dup4\n      sload\n      div\n      mul\n      dup4\n      mstore\n      swap2\n      0x20\n      add\n      swap2\n      jump(tag_231)\n    tag_232:\n      dup3\n      add\n      swap2\n      swap1\n      0x00\n      mstore\n      keccak256(0x00, 0x20)\n      swap1\n    tag_233:\n      dup2\n      sload\n      dup2\n      mstore\n      swap1\n      0x01\n      add\n      swap1\n      0x20\n      add\n      dup1\n      dup4\n      gt\n      tag_233\n      jumpi\n      dup3\n      swap1\n      sub\n      0x1f\n      and\n      dup3\n      add\n      swap2\n    tag_231:\n      pop\n      pop\n      pop\n      swap2\n      dup4\n      mstore\n      pop\n      pop\n      0x03\n      dup3\n      add\n      sload\n      0xff\n      dup1\n      dup3\n      and\n      iszero\n      iszero\n      0x20\n      dup5\n      add\n      mstore\n      0x0100\n      swap1\n      swap2\n      div\n      and\n      iszero\n      iszero\n      0x40\n      dup3\n      add\n      mstore\n      0x04\n      swap1\n      swap2\n      add\n      sload\n      0x60\n      swap1\n      swap2\n      add\n      mstore\n        /* \"credits.sol\":15293:15320  allRequests[currentRequest] */\n      dup5\n      mload\n        /* \"credits.sol\":15293:15304  allRequests */\n      dup6\n      swap1\n        /* \"credits.sol\":15305:15319  currentRequest */\n      dup6\n      swap1\n        /* \"credits.sol\":15293:15320  allRequests[currentRequest] */\n      dup2\n      lt\n      tag_235\n      jumpi\n      tag_235\n      tag_202\n      jump\t// in\n    tag_235:\n      0x20\n      mul\n      0x20\n      add\n      add\n        /* \"credits.sol\":15293:15365  allRequests[currentRequest] = creditTransferRequests[studentLists[i]][j] */\n      dup2\n      swap1\n      mstore\n      pop\n        /* \"credits.sol\":15387:15403  currentRequest++ */\n      dup3\n      dup1\n      tag_236\n      swap1\n      tag_237\n      jump\t// in\n    tag_236:\n      swap4\n      pop\n      pop\n        /* \"credits.sol\":15266:15269  j++ */\n      0x01\n      add\n        /* \"credits.sol\":15197:15422  for (uint j = 0; j < creditTransferRequests[studentLists[i]].length; j++) {... */\n      jump(tag_216)\n    tag_217:\n      pop\n        /* \"credits.sol\":15174:15177  i++ */\n      0x01\n      add\n        /* \"credits.sol\":15132:15436  for (uint i = 0; i < studentLists.length; i++) {... */\n      jump(tag_213)\n    tag_214:\n      pop\n        /* \"credits.sol\":15457:15468  allRequests */\n      swap1\n      swap4\n        /* \"credits.sol\":14555:15479  function getAllrequestCreditTransfer() external view returns (CreditTransfer[] memory) {... */\n      swap3\n      pop\n      pop\n      pop\n      jump\t// out\n        /* \"credits.sol\":841:983  function removeAdmin(address _admin) onlyOwner public  {... */\n    tag_64:\n        /* \"credits.sol\":1036:1042  _owner */\n      and(sub(shl(0xa0, 0x01), 0x01), sload(0x00))\n        /* \"credits.sol\":1046:1056  msg.sender */\n      caller\n        /* \"credits.sol\":1036:1056  _owner == msg.sender */\n      eq\n        /* \"credits.sol\":1028:1067  require(_owner == msg.sender, \"!owner\") */\n      tag_239\n      jumpi\n      mload(0x40)\n      shl(0xe5, 0x461bcd)\n      dup2\n      mstore\n      0x04\n      add\n      tag_240\n      swap1\n      tag_241\n      jump\t// in\n    tag_240:\n      mload(0x40)\n      dup1\n      swap2\n      sub\n      swap1\n      revert\n    tag_239:\n      sub(shl(0xa0, 0x01), 0x01)\n        /* \"credits.sol\":910:925  isAdmin[_admin] */\n      dup2\n      and\n        /* \"credits.sol\":928:933  false */\n      0x00\n        /* \"credits.sol\":910:925  isAdmin[_admin] */\n      dup2\n      dup2\n      mstore\n        /* \"credits.sol\":910:917  isAdmin */\n      0x01\n        /* \"credits.sol\":910:925  isAdmin[_admin] */\n      0x20\n      mstore\n      0x40\n      dup1\n      dup3\n      keccak256\n        /* \"credits.sol\":910:933  isAdmin[_admin] = false */\n      dup1\n      sload\n      not(0xff)\n      and\n      swap1\n      sstore\n        /* \"credits.sol\":952:972  AdminRemoved(_admin) */\n      mload\n      0xa3b62bc36326052d97ea62d63c3d60308ed4c3ea8ac079dd8499f1e9c4f80c0f\n      swap2\n        /* \"credits.sol\":928:933  false */\n      swap1\n        /* \"credits.sol\":952:972  AdminRemoved(_admin) */\n      log2\n        /* \"credits.sol\":841:983  function removeAdmin(address _admin) onlyOwner public  {... */\n      pop\n      jump\t// out\n        /* \"credits.sol\":3898:3927  address[] public studentLists */\n    tag_73:\n      0x0c\n      dup2\n      dup2\n      sload\n      dup2\n      lt\n      tag_243\n      jumpi\n      0x00\n      dup1\n      revert\n    tag_243:\n      0x00\n      swap2\n      dup3\n      mstore\n      0x20\n      swap1\n      swap2\n      keccak256\n      add\n      sload\n      sub(shl(0xa0, 0x01), 0x01)\n      and\n      swap1\n      pop\n      dup2\n      jump\t// out\n        /* \"credits.sol\":11027:11513  function Cancel(address student,uint256 courseId)external  {... */\n    tag_78:\n        /* \"credits.sol\":11120:11126  _owner */\n      and(sub(shl(0xa0, 0x01), 0x01), sload(0x00))\n        /* \"credits.sol\":11108:11118  msg.sender */\n      caller\n        /* \"credits.sol\":11108:11126  msg.sender==_owner */\n      eq\n      dup1\n        /* \"credits.sol\":11108:11153  msg.sender==_owner||isAdmin[msg.sender]==true */\n      tag_246\n      jumpi\n      pop\n        /* \"credits.sol\":11136:11146  msg.sender */\n      caller\n        /* \"credits.sol\":11128:11147  isAdmin[msg.sender] */\n      0x00\n      swap1\n      dup2\n      mstore\n        /* \"credits.sol\":11128:11135  isAdmin */\n      0x01\n        /* \"credits.sol\":11128:11147  isAdmin[msg.sender] */\n      0x20\n      dup2\n      swap1\n      mstore\n      0x40\n      swap1\n      swap2\n      keccak256\n      sload\n      0xff\n      and\n        /* \"credits.sol\":11128:11153  isAdmin[msg.sender]==true */\n      iszero\n      iszero\n      eq\n        /* \"credits.sol\":11108:11153  msg.sender==_owner||isAdmin[msg.sender]==true */\n    tag_246:\n        /* \"credits.sol\":11100:11195  require(msg.sender==_owner||isAdmin[msg.sender]==true,\"only topadmin or admin can call cancel\") */\n      tag_247\n      jumpi\n      mload(0x40)\n      shl(0xe5, 0x461bcd)\n      dup2\n      mstore\n        /* \"#utility.yul\":14245:14247   */\n      0x20\n        /* \"credits.sol\":11100:11195  require(msg.sender==_owner||isAdmin[msg.sender]==true,\"only topadmin or admin can call cancel\") */\n      0x04\n      dup3\n      add\n        /* \"#utility.yul\":14227:14248   */\n      mstore\n        /* \"#utility.yul\":14284:14286   */\n      0x26\n        /* \"#utility.yul\":14264:14282   */\n      0x24\n      dup3\n      add\n        /* \"#utility.yul\":14257:14287   */\n      mstore\n      0x00\n      dup1\n      mload\n      0x20\n      data_3a8ed4189e30c6abc26df6d93d70a72c91c7816be8f5bac91038d7c02353b33e\n      dup4\n      codecopy\n      dup2\n      mload\n      swap2\n      mstore\n        /* \"#utility.yul\":14303:14321   */\n      0x44\n      dup3\n      add\n        /* \"#utility.yul\":14296:14358   */\n      mstore\n      shl(0xd2, 0x18d85b98d95b)\n        /* \"#utility.yul\":14374:14392   */\n      0x64\n      dup3\n      add\n        /* \"#utility.yul\":14367:14403   */\n      mstore\n        /* \"#utility.yul\":14420:14439   */\n      0x84\n      add\n        /* \"credits.sol\":11100:11195  require(msg.sender==_owner||isAdmin[msg.sender]==true,\"only topadmin or admin can call cancel\") */\n      tag_240\n        /* \"#utility.yul\":14043:14445   */\n      jump\n        /* \"credits.sol\":11100:11195  require(msg.sender==_owner||isAdmin[msg.sender]==true,\"only topadmin or admin can call cancel\") */\n    tag_247:\n      sub(shl(0xa0, 0x01), 0x01)\n        /* \"credits.sol\":11217:11240  studentCredits[student] */\n      dup3\n      and\n      0x00\n      swap1\n      dup2\n      mstore\n        /* \"credits.sol\":11217:11231  studentCredits */\n      0x04\n        /* \"credits.sol\":11217:11240  studentCredits[student] */\n      0x20\n      swap1\n      dup2\n      mstore\n      0x40\n      dup1\n      dup4\n      keccak256\n        /* \"credits.sol\":11217:11250  studentCredits[student][courseId] */\n      dup5\n      dup5\n      mstore\n      swap1\n      swap2\n      mstore\n      dup2\n      keccak256\n        /* \"credits.sol\":11217:11260  studentCredits[student][courseId].issueDate */\n      0x03\n      add\n      sload\n        /* \"credits.sol\":11217:11265  studentCredits[student][courseId].issueDate != 0 */\n      swap1\n      sub\n        /* \"credits.sol\":11209:11291  require(studentCredits[student][courseId].issueDate != 0, \"Credit does not exist\") */\n      tag_250\n      jumpi\n      mload(0x40)\n      shl(0xe5, 0x461bcd)\n      dup2\n      mstore\n      0x04\n      add\n      tag_240\n      swap1\n      tag_252\n      jump\t// in\n    tag_250:\n      sub(shl(0xa0, 0x01), 0x01)\n        /* \"credits.sol\":11368:11391  studentCredits[student] */\n      dup3\n      and\n      0x00\n      swap1\n      dup2\n      mstore\n        /* \"credits.sol\":11368:11382  studentCredits */\n      0x04\n        /* \"credits.sol\":11368:11391  studentCredits[student] */\n      0x20\n      swap1\n      dup2\n      mstore\n      0x40\n      dup1\n      dup4\n      keccak256\n        /* \"credits.sol\":11368:11401  studentCredits[student][courseId] */\n      dup5\n      dup5\n      mstore\n      swap1\n      swap2\n      mstore\n      swap1\n      keccak256\n        /* \"credits.sol\":11368:11411  studentCredits[student][courseId].isRevoked */\n      0x06\n      add\n      sload\n      0xff\n      and\n        /* \"credits.sol\":11367:11411  !studentCredits[student][courseId].isRevoked */\n      iszero\n        /* \"credits.sol\":11359:11438  require(!studentCredits[student][courseId].isRevoked, \"Credit already revoked\") */\n      tag_256\n      jumpi\n      mload(0x40)\n      shl(0xe5, 0x461bcd)\n      dup2\n      mstore\n      0x04\n      add\n      tag_240\n      swap1\n      tag_258\n      jump\t// in\n    tag_256:\n      sub(shl(0xa0, 0x01), 0x01)\n        /* \"credits.sol\":11452:11475  studentCredits[student] */\n      swap1\n      swap2\n      and\n      0x00\n      swap1\n      dup2\n      mstore\n        /* \"credits.sol\":11452:11466  studentCredits */\n      0x04\n        /* \"credits.sol\":11452:11475  studentCredits[student] */\n      0x20\n      swap1\n      dup2\n      mstore\n      0x40\n      dup1\n      dup4\n      keccak256\n        /* \"credits.sol\":11452:11485  studentCredits[student][courseId] */\n      swap4\n      dup4\n      mstore\n      swap3\n      swap1\n      mstore\n      keccak256\n        /* \"credits.sol\":11452:11495  studentCredits[student][courseId].isRevoked */\n      0x06\n      add\n        /* \"credits.sol\":11452:11502  studentCredits[student][courseId].isRevoked = true */\n      dup1\n      sload\n      not(0xff)\n      and\n        /* \"credits.sol\":11498:11502  true */\n      0x01\n        /* \"credits.sol\":11452:11502  studentCredits[student][courseId].isRevoked = true */\n      or\n      swap1\n      sstore\n        /* \"credits.sol\":11027:11513  function Cancel(address student,uint256 courseId)external  {... */\n      jump\t// out\n        /* \"credits.sol\":5071:5337  function addTeacher(address teacher)external {... */\n    tag_84:\n        /* \"credits.sol\":5150:5156  _owner */\n      and(sub(shl(0xa0, 0x01), 0x01), sload(0x00))\n        /* \"credits.sol\":5138:5148  msg.sender */\n      caller\n        /* \"credits.sol\":5138:5156  msg.sender==_owner */\n      eq\n      dup1\n        /* \"credits.sol\":5138:5183  msg.sender==_owner||isAdmin[msg.sender]==true */\n      tag_261\n      jumpi\n      pop\n        /* \"credits.sol\":5166:5176  msg.sender */\n      caller\n        /* \"credits.sol\":5158:5177  isAdmin[msg.sender] */\n      0x00\n      swap1\n      dup2\n      mstore\n        /* \"credits.sol\":5158:5165  isAdmin */\n      0x01\n        /* \"credits.sol\":5158:5177  isAdmin[msg.sender] */\n      0x20\n      dup2\n      swap1\n      mstore\n      0x40\n      swap1\n      swap2\n      keccak256\n      sload\n      0xff\n      and\n        /* \"credits.sol\":5158:5183  isAdmin[msg.sender]==true */\n      iszero\n      iszero\n      eq\n        /* \"credits.sol\":5138:5183  msg.sender==_owner||isAdmin[msg.sender]==true */\n    tag_261:\n        /* \"credits.sol\":5130:5229  require(msg.sender==_owner||isAdmin[msg.sender]==true,\"only topadmin or admin can call addTeacher\") */\n      tag_262\n      jumpi\n      mload(0x40)\n      shl(0xe5, 0x461bcd)\n      dup2\n      mstore\n        /* \"#utility.yul\":15699:15701   */\n      0x20\n        /* \"credits.sol\":5130:5229  require(msg.sender==_owner||isAdmin[msg.sender]==true,\"only topadmin or admin can call addTeacher\") */\n      0x04\n      dup3\n      add\n        /* \"#utility.yul\":15681:15702   */\n      mstore\n        /* \"#utility.yul\":15738:15740   */\n      0x2a\n        /* \"#utility.yul\":15718:15736   */\n      0x24\n      dup3\n      add\n        /* \"#utility.yul\":15711:15741   */\n      mstore\n      0x00\n      dup1\n      mload\n      0x20\n      data_3a8ed4189e30c6abc26df6d93d70a72c91c7816be8f5bac91038d7c02353b33e\n      dup4\n      codecopy\n      dup2\n      mload\n      swap2\n      mstore\n        /* \"#utility.yul\":15757:15775   */\n      0x44\n      dup3\n      add\n        /* \"#utility.yul\":15750:15812   */\n      mstore\n      shl(0xb1, 0x30b2322a32b0b1b432b9)\n        /* \"#utility.yul\":15828:15846   */\n      0x64\n      dup3\n      add\n        /* \"#utility.yul\":15821:15861   */\n      mstore\n        /* \"#utility.yul\":15878:15897   */\n      0x84\n      add\n        /* \"credits.sol\":5130:5229  require(msg.sender==_owner||isAdmin[msg.sender]==true,\"only topadmin or admin can call addTeacher\") */\n      tag_240\n        /* \"#utility.yul\":15497:15903   */\n      jump\n        /* \"credits.sol\":5130:5229  require(msg.sender==_owner||isAdmin[msg.sender]==true,\"only topadmin or admin can call addTeacher\") */\n    tag_262:\n      sub(shl(0xa0, 0x01), 0x01)\n        /* \"credits.sol\":5251:5270  teacher!=address(0) */\n      dup2\n      and\n        /* \"credits.sol\":5243:5289  require(teacher!=address(0),\"Invalid address\") */\n      tag_265\n      jumpi\n      mload(0x40)\n      shl(0xe5, 0x461bcd)\n      dup2\n      mstore\n      0x04\n      add\n      tag_240\n      swap1\n      tag_267\n      jump\t// in\n    tag_265:\n      sub(shl(0xa0, 0x01), 0x01)\n        /* \"credits.sol\":5304:5321  teachers[teacher] */\n      and\n      0x00\n      swap1\n      dup2\n      mstore\n        /* \"credits.sol\":5304:5312  teachers */\n      0x06\n        /* \"credits.sol\":5304:5321  teachers[teacher] */\n      0x20\n      mstore\n      0x40\n      swap1\n      keccak256\n        /* \"credits.sol\":5304:5326  teachers[teacher]=true */\n      dup1\n      sload\n      not(0xff)\n      and\n        /* \"credits.sol\":5322:5326  true */\n      0x01\n        /* \"credits.sol\":5304:5326  teachers[teacher]=true */\n      or\n      swap1\n      sstore\n        /* \"credits.sol\":5071:5337  function addTeacher(address teacher)external {... */\n      jump\t// out\n        /* \"credits.sol\":6973:7421  function getCreditsOfStudent() external view returns(Credit[] memory creditList) {... */\n    tag_86:\n        /* \"credits.sol\":7113:7123  msg.sender */\n      caller\n        /* \"credits.sol\":7082:7093  uint length */\n      0x00\n        /* \"credits.sol\":7096:7124  studentCourseIds[msg.sender] */\n      swap1\n      dup2\n      mstore\n        /* \"credits.sol\":7096:7112  studentCourseIds */\n      0x05\n        /* \"credits.sol\":7096:7124  studentCourseIds[msg.sender] */\n      0x20\n      mstore\n      0x40\n      swap1\n      keccak256\n        /* \"credits.sol\":7096:7131  studentCourseIds[msg.sender].length */\n      sload\n        /* \"credits.sol\":7026:7052  Credit[] memory creditList */\n      0x60\n      swap1\n        /* \"credits.sol\":7096:7131  studentCourseIds[msg.sender].length */\n      dup1\n        /* \"credits.sol\":7159:7179  new Credit[](length) */\n      0xffffffffffffffff\n      dup2\n      gt\n      iszero\n      tag_270\n      jumpi\n      tag_270\n      tag_208\n      jump\t// in\n    tag_270:\n      mload(0x40)\n      swap1\n      dup1\n      dup3\n      mstore\n      dup1\n      0x20\n      mul\n      0x20\n      add\n      dup3\n      add\n      0x40\n      mstore\n      dup1\n      iszero\n      tag_271\n      jumpi\n      dup2\n      0x20\n      add\n    tag_272:\n      tag_273\n      tag_274\n      jump\t// in\n    tag_273:\n      dup2\n      mstore\n      0x20\n      add\n      swap1\n      0x01\n      swap1\n      sub\n      swap1\n      dup2\n      tag_272\n      jumpi\n      swap1\n      pop\n    tag_271:\n      pop\n        /* \"credits.sol\":7146:7179  creditList = new Credit[](length) */\n      swap2\n      pop\n        /* \"credits.sol\":7198:7204  uint i */\n      0x00\n        /* \"credits.sol\":7194:7379  for(uint i = 0; i < length; i++) {... */\n    tag_275:\n        /* \"credits.sol\":7214:7220  length */\n      dup2\n        /* \"credits.sol\":7210:7211  i */\n      dup2\n        /* \"credits.sol\":7210:7220  i < length */\n      lt\n        /* \"credits.sol\":7194:7379  for(uint i = 0; i < length; i++) {... */\n      iszero\n      tag_276\n      jumpi\n        /* \"credits.sol\":7279:7289  msg.sender */\n      caller\n        /* \"credits.sol\":7246:7259  uint courseId */\n      0x00\n        /* \"credits.sol\":7262:7290  studentCourseIds[msg.sender] */\n      swap1\n      dup2\n      mstore\n        /* \"credits.sol\":7262:7278  studentCourseIds */\n      0x05\n        /* \"credits.sol\":7262:7290  studentCourseIds[msg.sender] */\n      0x20\n      mstore\n      0x40\n      dup2\n      keccak256\n        /* \"credits.sol\":7262:7293  studentCourseIds[msg.sender][i] */\n      dup1\n      sload\n        /* \"credits.sol\":7291:7292  i */\n      dup4\n      swap1\n        /* \"credits.sol\":7262:7293  studentCourseIds[msg.sender][i] */\n      dup2\n      lt\n      tag_279\n      jumpi\n      tag_279\n      tag_202\n      jump\t// in\n    tag_279:\n      0x00\n      swap2\n      dup3\n      mstore\n      0x20\n      dup1\n      dup4\n      keccak256\n      swap1\n      swap2\n      add\n      sload\n        /* \"credits.sol\":7343:7353  msg.sender */\n      caller\n        /* \"credits.sol\":7328:7354  studentCredits[msg.sender] */\n      dup4\n      mstore\n        /* \"credits.sol\":7328:7342  studentCredits */\n      0x04\n        /* \"credits.sol\":7328:7354  studentCredits[msg.sender] */\n      dup1\n      dup4\n      mstore\n      0x40\n      dup1\n      dup6\n      keccak256\n        /* \"credits.sol\":7328:7364  studentCredits[msg.sender][courseId] */\n      dup4\n      dup7\n      mstore\n      dup5\n      mstore\n      swap4\n      dup5\n      swap1\n      keccak256\n        /* \"credits.sol\":7312:7364  creditList[i] = studentCredits[msg.sender][courseId] */\n      dup5\n      mload\n      0x0140\n      dup2\n      add\n      dup7\n      mstore\n      dup2\n      sload\n      dup2\n      mstore\n      0x01\n      dup3\n      add\n      sload\n      swap5\n      dup2\n      add\n      swap5\n      swap1\n      swap5\n      mstore\n      0x02\n      dup2\n      add\n      sload\n      swap5\n      dup5\n      add\n      swap5\n      swap1\n      swap5\n      mstore\n      0x03\n      dup5\n      add\n      sload\n      0x60\n      dup5\n      add\n      mstore\n      dup4\n      add\n      sload\n      0xff\n      swap1\n      dup2\n      and\n      iszero\n      iszero\n      0x80\n      dup5\n      add\n      mstore\n      0x05\n      dup5\n      add\n      sload\n      0xa0\n      dup5\n      add\n      mstore\n      0x06\n      dup5\n      add\n      sload\n      and\n      iszero\n      iszero\n      0xc0\n      dup4\n      add\n      mstore\n      0x07\n      dup4\n      add\n      dup1\n      sload\n        /* \"credits.sol\":7262:7293  studentCourseIds[msg.sender][i] */\n      swap2\n      swap5\n      pop\n        /* \"credits.sol\":7312:7364  creditList[i] = studentCredits[msg.sender][courseId] */\n      swap2\n      swap3\n        /* \"credits.sol\":7328:7364  studentCredits[msg.sender][courseId] */\n      swap2\n        /* \"credits.sol\":7312:7364  creditList[i] = studentCredits[msg.sender][courseId] */\n      0xe0\n      dup5\n      add\n      swap2\n      tag_281\n      swap1\n      tag_229\n      jump\t// in\n    tag_281:\n      dup1\n      0x1f\n      add\n      0x20\n      dup1\n      swap2\n      div\n      mul\n      0x20\n      add\n      mload(0x40)\n      swap1\n      dup2\n      add\n      0x40\n      mstore\n      dup1\n      swap3\n      swap2\n      swap1\n      dup2\n      dup2\n      mstore\n      0x20\n      add\n      dup3\n      dup1\n      sload\n      tag_282\n      swap1\n      tag_229\n      jump\t// in\n    tag_282:\n      dup1\n      iszero\n      tag_283\n      jumpi\n      dup1\n      0x1f\n      lt\n      tag_284\n      jumpi\n      0x0100\n      dup1\n      dup4\n      sload\n      div\n      mul\n      dup4\n      mstore\n      swap2\n      0x20\n      add\n      swap2\n      jump(tag_283)\n    tag_284:\n      dup3\n      add\n      swap2\n      swap1\n      0x00\n      mstore\n      keccak256(0x00, 0x20)\n      swap1\n    tag_285:\n      dup2\n      sload\n      dup2\n      mstore\n      swap1\n      0x01\n      add\n      swap1\n      0x20\n      add\n      dup1\n      dup4\n      gt\n      tag_285\n      jumpi\n      dup3\n      swap1\n      sub\n      0x1f\n      and\n      dup3\n      add\n      swap2\n    tag_283:\n      pop\n      pop\n      pop\n      swap2\n      dup4\n      mstore\n      pop\n      pop\n      0x08\n      dup3\n      add\n      sload\n      0xff\n      and\n      iszero\n      iszero\n      0x20\n      dup3\n      add\n      mstore\n      0x09\n      dup3\n      add\n      dup1\n      sload\n      0x40\n      swap1\n      swap3\n      add\n      swap2\n      tag_286\n      swap1\n      tag_229\n      jump\t// in\n    tag_286:\n      dup1\n      0x1f\n      add\n      0x20\n      dup1\n      swap2\n      div\n      mul\n      0x20\n      add\n      mload(0x40)\n      swap1\n      dup2\n      add\n      0x40\n      mstore\n      dup1\n      swap3\n      swap2\n      swap1\n      dup2\n      dup2\n      mstore\n      0x20\n      add\n      dup3\n      dup1\n      sload\n      tag_287\n      swap1\n      tag_229\n      jump\t// in\n    tag_287:\n      dup1\n      iszero\n      tag_288\n      jumpi\n      dup1\n      0x1f\n      lt\n      tag_289\n      jumpi\n      0x0100\n      dup1\n      dup4\n      sload\n      div\n      mul\n      dup4\n      mstore\n      swap2\n      0x20\n      add\n      swap2\n      jump(tag_288)\n    tag_289:\n      dup3\n      add\n      swap2\n      swap1\n      0x00\n      mstore\n      keccak256(0x00, 0x20)\n      swap1\n    tag_290:\n      dup2\n      sload\n      dup2\n      mstore\n      swap1\n      0x01\n      add\n      swap1\n      0x20\n      add\n      dup1\n      dup4\n      gt\n      tag_290\n      jumpi\n      dup3\n      swap1\n      sub\n      0x1f\n      and\n      dup3\n      add\n      swap2\n    tag_288:\n      pop\n      pop\n      pop\n      pop\n      pop\n      dup2\n      mstore\n      pop\n      pop\n        /* \"credits.sol\":7312:7322  creditList */\n      dup5\n        /* \"credits.sol\":7323:7324  i */\n      dup4\n        /* \"credits.sol\":7312:7325  creditList[i] */\n      dup2\n      mload\n      dup2\n      lt\n      tag_292\n      jumpi\n      tag_292\n      tag_202\n      jump\t// in\n    tag_292:\n      0x20\n      swap1\n      dup2\n      mul\n      swap2\n      swap1\n      swap2\n      add\n      add\n        /* \"credits.sol\":7312:7364  creditList[i] = studentCredits[msg.sender][courseId] */\n      mstore\n      pop\n        /* \"credits.sol\":7222:7225  i++ */\n      0x01\n      add\n        /* \"credits.sol\":7194:7379  for(uint i = 0; i < length; i++) {... */\n      jump(tag_275)\n    tag_276:\n      pop\n        /* \"credits.sol\":7393:7410  return creditList */\n      pop\n        /* \"credits.sol\":6973:7421  function getCreditsOfStudent() external view returns(Credit[] memory creditList) {... */\n      swap1\n      jump\t// out\n        /* \"credits.sol\":7493:7960  function approve(address spender,uint256 num, uint256 requestId )external returns(bool){... */\n    tag_92:\n        /* \"credits.sol\":7613:7623  msg.sender */\n      caller\n        /* \"credits.sol\":7575:7579  bool */\n      0x00\n        /* \"credits.sol\":7603:7624  allowance[msg.sender] */\n      swap1\n      dup2\n      mstore\n        /* \"credits.sol\":7603:7612  allowance */\n      0x0a\n        /* \"credits.sol\":7603:7624  allowance[msg.sender] */\n      0x20\n      swap1\n      dup2\n      mstore\n      0x40\n      dup1\n      dup4\n      keccak256\n      sub(shl(0xa0, 0x01), 0x01)\n        /* \"credits.sol\":7603:7633  allowance[msg.sender][spender] */\n      dup8\n      and\n      dup5\n      mstore\n      swap1\n      swap2\n      mstore\n      dup2\n      keccak256\n        /* \"credits.sol\":7603:7637  allowance[msg.sender][spender]=num */\n      dup4\n      swap1\n      sstore\n        /* \"credits.sol\":7575:7579  bool */\n      dup1\n        /* \"credits.sol\":7652:7903  for (uint i = 0; i < requestOfMechanism[msg.sender].length; i++) {... */\n    tag_294:\n        /* \"credits.sol\":7692:7702  msg.sender */\n      caller\n        /* \"credits.sol\":7673:7703  requestOfMechanism[msg.sender] */\n      0x00\n      swap1\n      dup2\n      mstore\n        /* \"credits.sol\":7673:7691  requestOfMechanism */\n      0x02\n        /* \"credits.sol\":7673:7703  requestOfMechanism[msg.sender] */\n      0x20\n      mstore\n      0x40\n      swap1\n      keccak256\n        /* \"credits.sol\":7673:7710  requestOfMechanism[msg.sender].length */\n      sload\n        /* \"credits.sol\":7669:7710  i < requestOfMechanism[msg.sender].length */\n      dup2\n      lt\n        /* \"credits.sol\":7652:7903  for (uint i = 0; i < requestOfMechanism[msg.sender].length; i++) {... */\n      iszero\n      tag_295\n      jumpi\n        /* \"credits.sol\":7754:7764  msg.sender */\n      caller\n        /* \"credits.sol\":7735:7765  requestOfMechanism[msg.sender] */\n      0x00\n      swap1\n      dup2\n      mstore\n        /* \"credits.sol\":7735:7753  requestOfMechanism */\n      0x02\n        /* \"credits.sol\":7735:7765  requestOfMechanism[msg.sender] */\n      0x20\n      mstore\n      0x40\n      swap1\n      keccak256\n        /* \"credits.sol\":7735:7768  requestOfMechanism[msg.sender][i] */\n      dup1\n      sload\n        /* \"credits.sol\":7775:7784  requestId */\n      dup5\n      swap2\n        /* \"credits.sol\":7735:7765  requestOfMechanism[msg.sender] */\n      swap1\n        /* \"credits.sol\":7766:7767  i */\n      dup4\n      swap1\n        /* \"credits.sol\":7735:7768  requestOfMechanism[msg.sender][i] */\n      dup2\n      lt\n      tag_298\n      jumpi\n      tag_298\n      tag_202\n      jump\t// in\n    tag_298:\n      swap1\n      0x00\n      mstore\n      keccak256(0x00, 0x20)\n      swap1\n      0x04\n      mul\n      add\n        /* \"credits.sol\":7735:7771  requestOfMechanism[msg.sender][i].id */\n      0x00\n      add\n      sload\n        /* \"credits.sol\":7735:7784  requestOfMechanism[msg.sender][i].id == requestId */\n      sub\n        /* \"credits.sol\":7731:7893  if (requestOfMechanism[msg.sender][i].id == requestId) {... */\n      tag_300\n      jumpi\n        /* \"credits.sol\":7823:7833  msg.sender */\n      caller\n        /* \"credits.sol\":7804:7834  requestOfMechanism[msg.sender] */\n      0x00\n      swap1\n      dup2\n      mstore\n        /* \"credits.sol\":7804:7822  requestOfMechanism */\n      0x02\n        /* \"credits.sol\":7804:7834  requestOfMechanism[msg.sender] */\n      0x20\n      mstore\n      0x40\n      swap1\n      keccak256\n        /* \"credits.sol\":7804:7837  requestOfMechanism[msg.sender][i] */\n      dup1\n      sload\n        /* \"credits.sol\":7851:7855  true */\n      0x01\n      swap2\n        /* \"credits.sol\":7804:7834  requestOfMechanism[msg.sender] */\n      swap1\n        /* \"credits.sol\":7835:7836  i */\n      dup4\n      swap1\n        /* \"credits.sol\":7804:7837  requestOfMechanism[msg.sender][i] */\n      dup2\n      lt\n      tag_302\n      jumpi\n      tag_302\n      tag_202\n      jump\t// in\n    tag_302:\n      0x00\n      swap2\n      dup3\n      mstore\n      0x20\n      swap1\n      swap2\n      keccak256\n      0x04\n      swap1\n      swap2\n      mul\n      add\n        /* \"credits.sol\":7804:7848  requestOfMechanism[msg.sender][i].isApproved */\n      0x03\n      add\n        /* \"credits.sol\":7804:7855  requestOfMechanism[msg.sender][i].isApproved = true */\n      dup1\n      sload\n      not(0xff)\n      and\n      swap2\n      iszero\n      iszero\n      swap2\n      swap1\n      swap2\n      or\n      swap1\n      sstore\n        /* \"credits.sol\":7873:7878  break */\n      jump(tag_295)\n        /* \"credits.sol\":7731:7893  if (requestOfMechanism[msg.sender][i].id == requestId) {... */\n    tag_300:\n        /* \"credits.sol\":7712:7715  i++ */\n      0x01\n      add\n        /* \"credits.sol\":7652:7903  for (uint i = 0; i < requestOfMechanism[msg.sender].length; i++) {... */\n      jump(tag_294)\n    tag_295:\n      pop\n        /* \"credits.sol\":7945:7949  true */\n      0x01\n      swap5\n        /* \"credits.sol\":7493:7960  function approve(address spender,uint256 num, uint256 requestId )external returns(bool){... */\n      swap4\n      pop\n      pop\n      pop\n      pop\n      jump\t// out\n        /* \"credits.sol\":9894:10022  function GetAllApproveList()external view returns(Request[]memory){... */\n    tag_95:\n        /* \"credits.sol\":10000:10010  msg.sender */\n      caller\n        /* \"credits.sol\":9981:10011  requestOfMechanism[msg.sender] */\n      0x00\n      swap1\n      dup2\n      mstore\n        /* \"credits.sol\":9981:9999  requestOfMechanism */\n      0x02\n        /* \"credits.sol\":9981:10011  requestOfMechanism[msg.sender] */\n      0x20\n      swap1\n      dup2\n      mstore\n      0x40\n      dup1\n      dup4\n      keccak256\n        /* \"credits.sol\":9974:10011  return requestOfMechanism[msg.sender] */\n      dup1\n      sload\n      dup3\n      mload\n      dup2\n      dup6\n      mul\n      dup2\n      add\n      dup6\n      add\n      swap1\n      swap4\n      mstore\n      dup1\n      dup4\n      mstore\n        /* \"credits.sol\":9944:9959  Request[]memory */\n      0x60\n      swap5\n        /* \"credits.sol\":9974:10011  return requestOfMechanism[msg.sender] */\n      swap3\n      swap4\n        /* \"credits.sol\":9981:10011  requestOfMechanism[msg.sender] */\n      swap2\n      swap3\n        /* \"credits.sol\":9974:10011  return requestOfMechanism[msg.sender] */\n      swap1\n      swap2\n      dup5\n      add\n    tag_305:\n      dup3\n      dup3\n      lt\n      iszero\n      tag_306\n      jumpi\n      0x00\n      dup5\n      dup2\n      mstore\n      0x20\n      swap1\n      dup2\n      swap1\n      keccak256\n      0x40\n      dup1\n      mload\n      0x80\n      dup2\n      add\n      dup3\n      mstore\n      0x04\n      dup7\n      mul\n      swap1\n      swap3\n      add\n      dup1\n      sload\n      dup4\n      mstore\n      0x01\n      dup1\n      dup3\n      add\n      sload\n      sub(shl(0xa0, 0x01), 0x01)\n      and\n      dup5\n      dup7\n      add\n      mstore\n      0x02\n      dup3\n      add\n      sload\n      swap3\n      dup5\n      add\n      swap3\n      swap1\n      swap3\n      mstore\n      0x03\n      add\n      sload\n      0xff\n      and\n      iszero\n      iszero\n      0x60\n      dup4\n      add\n      mstore\n      swap1\n      dup4\n      mstore\n      swap1\n      swap3\n      add\n      swap2\n      add\n      jump(tag_305)\n    tag_306:\n      pop\n      pop\n      pop\n      pop\n      swap1\n      pop\n        /* \"credits.sol\":9894:10022  function GetAllApproveList()external view returns(Request[]memory){... */\n      swap1\n      jump\t// out\n        /* \"credits.sol\":3821:3887  mapping(address => CreditTransfer[]) public creditTransferRequests */\n    tag_100:\n      mstore(0x20, 0x0b)\n      dup2\n      0x00\n      mstore\n      keccak256(0x00, 0x40)\n      dup2\n      dup2\n      sload\n      dup2\n      lt\n      tag_308\n      jumpi\n      0x00\n      dup1\n      revert\n    tag_308:\n      0x00\n      swap2\n      dup3\n      mstore\n      0x20\n      swap1\n      swap2\n      keccak256\n      0x05\n      swap1\n      swap2\n      mul\n      add\n      dup1\n      sload\n      0x01\n      dup3\n      add\n      sload\n      0x02\n      dup4\n      add\n      dup1\n      sload\n      sub(shl(0xa0, 0x01), 0x01)\n      swap1\n      swap4\n      and\n      swap6\n      pop\n      swap1\n      swap4\n      pop\n      swap1\n      tag_310\n      swap1\n      tag_229\n      jump\t// in\n    tag_310:\n      dup1\n      0x1f\n      add\n      0x20\n      dup1\n      swap2\n      div\n      mul\n      0x20\n      add\n      mload(0x40)\n      swap1\n      dup2\n      add\n      0x40\n      mstore\n      dup1\n      swap3\n      swap2\n      swap1\n      dup2\n      dup2\n      mstore\n      0x20\n      add\n      dup3\n      dup1\n      sload\n      tag_311\n      swap1\n      tag_229\n      jump\t// in\n    tag_311:\n      dup1\n      iszero\n      tag_312\n      jumpi\n      dup1\n      0x1f\n      lt\n      tag_313\n      jumpi\n      0x0100\n      dup1\n      dup4\n      sload\n      div\n      mul\n      dup4\n      mstore\n      swap2\n      0x20\n      add\n      swap2\n      jump(tag_312)\n    tag_313:\n      dup3\n      add\n      swap2\n      swap1\n      0x00\n      mstore\n      keccak256(0x00, 0x20)\n      swap1\n    tag_314:\n      dup2\n      sload\n      dup2\n      mstore\n      swap1\n      0x01\n      add\n      swap1\n      0x20\n      add\n      dup1\n      dup4\n      gt\n      tag_314\n      jumpi\n      dup3\n      swap1\n      sub\n      0x1f\n      and\n      dup3\n      add\n      swap2\n    tag_312:\n      pop\n      pop\n      pop\n      pop\n      0x03\n      dup4\n      add\n      sload\n      0x04\n      swap1\n      swap4\n      add\n      sload\n      swap2\n      swap3\n      0xff\n      dup1\n      dup3\n      and\n      swap4\n      0x0100\n      swap1\n      swap3\n      div\n      and\n      swap2\n      pop\n      dup7\n      jump\t// out\n        /* \"credits.sol\":5370:5716  function removeTeacher(address teacher)external {... */\n    tag_105:\n        /* \"credits.sol\":5452:5458  _owner */\n      and(sub(shl(0xa0, 0x01), 0x01), sload(0x00))\n        /* \"credits.sol\":5440:5450  msg.sender */\n      caller\n        /* \"credits.sol\":5440:5458  msg.sender==_owner */\n      eq\n      dup1\n        /* \"credits.sol\":5440:5485  msg.sender==_owner||isAdmin[msg.sender]==true */\n      tag_316\n      jumpi\n      pop\n        /* \"credits.sol\":5468:5478  msg.sender */\n      caller\n        /* \"credits.sol\":5460:5479  isAdmin[msg.sender] */\n      0x00\n      swap1\n      dup2\n      mstore\n        /* \"credits.sol\":5460:5467  isAdmin */\n      0x01\n        /* \"credits.sol\":5460:5479  isAdmin[msg.sender] */\n      0x20\n      dup2\n      swap1\n      mstore\n      0x40\n      swap1\n      swap2\n      keccak256\n      sload\n      0xff\n      and\n        /* \"credits.sol\":5460:5485  isAdmin[msg.sender]==true */\n      iszero\n      iszero\n      eq\n        /* \"credits.sol\":5440:5485  msg.sender==_owner||isAdmin[msg.sender]==true */\n    tag_316:\n        /* \"credits.sol\":5432:5534  require(msg.sender==_owner||isAdmin[msg.sender]==true,\"only topadmin or admin can call removeTeacher\") */\n      tag_317\n      jumpi\n      mload(0x40)\n      shl(0xe5, 0x461bcd)\n      dup2\n      mstore\n        /* \"#utility.yul\":16454:16456   */\n      0x20\n        /* \"credits.sol\":5432:5534  require(msg.sender==_owner||isAdmin[msg.sender]==true,\"only topadmin or admin can call removeTeacher\") */\n      0x04\n      dup3\n      add\n        /* \"#utility.yul\":16436:16457   */\n      mstore\n        /* \"#utility.yul\":16493:16495   */\n      0x2d\n        /* \"#utility.yul\":16473:16491   */\n      0x24\n      dup3\n      add\n        /* \"#utility.yul\":16466:16496   */\n      mstore\n      0x00\n      dup1\n      mload\n      0x20\n      data_3a8ed4189e30c6abc26df6d93d70a72c91c7816be8f5bac91038d7c02353b33e\n      dup4\n      codecopy\n      dup2\n      mload\n      swap2\n      mstore\n        /* \"#utility.yul\":16512:16530   */\n      0x44\n      dup3\n      add\n        /* \"#utility.yul\":16505:16567   */\n      mstore\n      shl(0x99, 0x3932b6b7bb32aa32b0b1b432b9)\n        /* \"#utility.yul\":16583:16601   */\n      0x64\n      dup3\n      add\n        /* \"#utility.yul\":16576:16619   */\n      mstore\n        /* \"#utility.yul\":16636:16655   */\n      0x84\n      add\n        /* \"credits.sol\":5432:5534  require(msg.sender==_owner||isAdmin[msg.sender]==true,\"only topadmin or admin can call removeTeacher\") */\n      tag_240\n        /* \"#utility.yul\":16252:16661   */\n      jump\n        /* \"credits.sol\":5432:5534  require(msg.sender==_owner||isAdmin[msg.sender]==true,\"only topadmin or admin can call removeTeacher\") */\n    tag_317:\n      sub(shl(0xa0, 0x01), 0x01)\n        /* \"credits.sol\":5556:5575  teacher!=address(0) */\n      dup2\n      and\n        /* \"credits.sol\":5548:5594  require(teacher!=address(0),\"Invalid address\") */\n      tag_320\n      jumpi\n      mload(0x40)\n      shl(0xe5, 0x461bcd)\n      dup2\n      mstore\n      0x04\n      add\n      tag_240\n      swap1\n      tag_267\n      jump\t// in\n    tag_320:\n      sub(shl(0xa0, 0x01), 0x01)\n        /* \"credits.sol\":5616:5633  teachers[teacher] */\n      dup2\n      and\n      0x00\n      swap1\n      dup2\n      mstore\n        /* \"credits.sol\":5616:5624  teachers */\n      0x06\n        /* \"credits.sol\":5616:5633  teachers[teacher] */\n      0x20\n      mstore\n      0x40\n      swap1\n      keccak256\n      sload\n      0xff\n      and\n        /* \"credits.sol\":5616:5639  teachers[teacher]==true */\n      iszero\n      iszero\n        /* \"credits.sol\":5616:5633  teachers[teacher] */\n      0x01\n        /* \"credits.sol\":5616:5639  teachers[teacher]==true */\n      eq\n        /* \"credits.sol\":5608:5668  require(teachers[teacher]==true,\"address are not a teacher\") */\n      tag_322\n      jumpi\n      mload(0x40)\n      shl(0xe5, 0x461bcd)\n      dup2\n      mstore\n        /* \"#utility.yul\":16868:16870   */\n      0x20\n        /* \"credits.sol\":5608:5668  require(teachers[teacher]==true,\"address are not a teacher\") */\n      0x04\n      dup3\n      add\n        /* \"#utility.yul\":16850:16871   */\n      mstore\n        /* \"#utility.yul\":16907:16909   */\n      0x19\n        /* \"#utility.yul\":16887:16905   */\n      0x24\n      dup3\n      add\n        /* \"#utility.yul\":16880:16910   */\n      mstore\n        /* \"#utility.yul\":16946:16973   */\n      0x6164647265737320617265206e6f742061207465616368657200000000000000\n        /* \"#utility.yul\":16926:16944   */\n      0x44\n      dup3\n      add\n        /* \"#utility.yul\":16919:16974   */\n      mstore\n        /* \"#utility.yul\":16991:17009   */\n      0x64\n      add\n        /* \"credits.sol\":5608:5668  require(teachers[teacher]==true,\"address are not a teacher\") */\n      tag_240\n        /* \"#utility.yul\":16666:17015   */\n      jump\n        /* \"credits.sol\":5608:5668  require(teachers[teacher]==true,\"address are not a teacher\") */\n    tag_322:\n      sub(shl(0xa0, 0x01), 0x01)\n        /* \"credits.sol\":5682:5699  teachers[teacher] */\n      and\n        /* \"credits.sol\":5700:5705  false */\n      0x00\n        /* \"credits.sol\":5682:5699  teachers[teacher] */\n      swap1\n      dup2\n      mstore\n        /* \"credits.sol\":5682:5690  teachers */\n      0x06\n        /* \"credits.sol\":5682:5699  teachers[teacher] */\n      0x20\n      mstore\n      0x40\n      swap1\n      keccak256\n        /* \"credits.sol\":5682:5705  teachers[teacher]=false */\n      dup1\n      sload\n      not(0xff)\n      and\n      swap1\n      sstore\n        /* \"credits.sol\":5370:5716  function removeTeacher(address teacher)external {... */\n      jump\t// out\n        /* \"credits.sol\":5767:6771  function recordCredit(address student,uint256 courserId,uint256 score,string memory issuingInstitution)external {... */\n    tag_113:\n        /* \"credits.sol\":5913:5919  _owner */\n      and(sub(shl(0xa0, 0x01), 0x01), sload(0x00))\n        /* \"credits.sol\":5901:5911  msg.sender */\n      caller\n        /* \"credits.sol\":5901:5919  msg.sender==_owner */\n      eq\n      dup1\n        /* \"credits.sol\":5901:5946  msg.sender==_owner||isAdmin[msg.sender]==true */\n      tag_326\n      jumpi\n      pop\n        /* \"credits.sol\":5929:5939  msg.sender */\n      caller\n        /* \"credits.sol\":5921:5940  isAdmin[msg.sender] */\n      0x00\n      swap1\n      dup2\n      mstore\n        /* \"credits.sol\":5921:5928  isAdmin */\n      0x01\n        /* \"credits.sol\":5921:5940  isAdmin[msg.sender] */\n      0x20\n      dup2\n      swap1\n      mstore\n      0x40\n      swap1\n      swap2\n      keccak256\n      sload\n      0xff\n      and\n        /* \"credits.sol\":5921:5946  isAdmin[msg.sender]==true */\n      iszero\n      iszero\n      eq\n        /* \"credits.sol\":5901:5946  msg.sender==_owner||isAdmin[msg.sender]==true */\n    tag_326:\n        /* \"credits.sol\":5901:5974  msg.sender==_owner||isAdmin[msg.sender]==true||teachers[msg.sender]==true */\n      dup1\n      tag_327\n      jumpi\n      pop\n        /* \"credits.sol\":5957:5967  msg.sender */\n      caller\n        /* \"credits.sol\":5948:5968  teachers[msg.sender] */\n      0x00\n      swap1\n      dup2\n      mstore\n        /* \"credits.sol\":5948:5956  teachers */\n      0x06\n        /* \"credits.sol\":5948:5968  teachers[msg.sender] */\n      0x20\n      mstore\n      0x40\n      swap1\n      keccak256\n      sload\n      0xff\n      and\n        /* \"credits.sol\":5948:5974  teachers[msg.sender]==true */\n      iszero\n      iszero\n        /* \"credits.sol\":5948:5968  teachers[msg.sender] */\n      0x01\n        /* \"credits.sol\":5948:5974  teachers[msg.sender]==true */\n      eq\n        /* \"credits.sol\":5901:5974  msg.sender==_owner||isAdmin[msg.sender]==true||teachers[msg.sender]==true */\n    tag_327:\n        /* \"credits.sol\":5893:6030  require(msg.sender==_owner||isAdmin[msg.sender]==true||teachers[msg.sender]==true,\"only topadmin or admin teacher can call recordCredit\") */\n      tag_328\n      jumpi\n      mload(0x40)\n      shl(0xe5, 0x461bcd)\n      dup2\n      mstore\n        /* \"#utility.yul\":17222:17224   */\n      0x20\n        /* \"credits.sol\":5893:6030  require(msg.sender==_owner||isAdmin[msg.sender]==true||teachers[msg.sender]==true,\"only topadmin or admin teacher can call recordCredit\") */\n      0x04\n      dup3\n      add\n        /* \"#utility.yul\":17204:17225   */\n      mstore\n        /* \"#utility.yul\":17261:17263   */\n      0x34\n        /* \"#utility.yul\":17241:17259   */\n      0x24\n      dup3\n      add\n        /* \"#utility.yul\":17234:17264   */\n      mstore\n        /* \"#utility.yul\":17300:17334   */\n      0x6f6e6c7920746f7061646d696e206f722061646d696e20746561636865722063\n        /* \"#utility.yul\":17280:17298   */\n      0x44\n      dup3\n      add\n        /* \"#utility.yul\":17273:17335   */\n      mstore\n      shl(0x62, 0x185b8818d85b1b081c9958dbdc9910dc99591a5d)\n        /* \"#utility.yul\":17351:17369   */\n      0x64\n      dup3\n      add\n        /* \"#utility.yul\":17344:17394   */\n      mstore\n        /* \"#utility.yul\":17411:17430   */\n      0x84\n      add\n        /* \"credits.sol\":5893:6030  require(msg.sender==_owner||isAdmin[msg.sender]==true||teachers[msg.sender]==true,\"only topadmin or admin teacher can call recordCredit\") */\n      tag_240\n        /* \"#utility.yul\":17020:17436   */\n      jump\n        /* \"credits.sol\":5893:6030  require(msg.sender==_owner||isAdmin[msg.sender]==true||teachers[msg.sender]==true,\"only topadmin or admin teacher can call recordCredit\") */\n    tag_328:\n      sub(shl(0xa0, 0x01), 0x01)\n        /* \"credits.sol\":6053:6072  student!=address(0) */\n      dup5\n      and\n        /* \"credits.sol\":6045:6091  require(student!=address(0),\"Invalid address\") */\n      tag_331\n      jumpi\n      mload(0x40)\n      shl(0xe5, 0x461bcd)\n      dup2\n      mstore\n      0x04\n      add\n      tag_240\n      swap1\n      tag_267\n      jump\t// in\n    tag_331:\n        /* \"credits.sol\":6223:6246  courseExists[courserId] */\n      0x00\n      dup4\n      dup2\n      mstore\n        /* \"credits.sol\":6223:6235  courseExists */\n      0x07\n        /* \"credits.sol\":6223:6246  courseExists[courserId] */\n      0x20\n      mstore\n      0x40\n      swap1\n      keccak256\n      sload\n      0xff\n      and\n        /* \"credits.sol\":6223:6252  courseExists[courserId]==true */\n      iszero\n      iszero\n        /* \"credits.sol\":6223:6246  courseExists[courserId] */\n      0x01\n        /* \"credits.sol\":6223:6252  courseExists[courserId]==true */\n      eq\n        /* \"credits.sol\":6215:6271  require(courseExists[courserId]==true,\"course not exit\") */\n      tag_335\n      jumpi\n      mload(0x40)\n      shl(0xe5, 0x461bcd)\n      dup2\n      mstore\n        /* \"#utility.yul\":17643:17645   */\n      0x20\n        /* \"credits.sol\":6215:6271  require(courseExists[courserId]==true,\"course not exit\") */\n      0x04\n      dup3\n      add\n        /* \"#utility.yul\":17625:17646   */\n      mstore\n        /* \"#utility.yul\":17682:17684   */\n      0x0f\n        /* \"#utility.yul\":17662:17680   */\n      0x24\n      dup3\n      add\n        /* \"#utility.yul\":17655:17685   */\n      mstore\n      shl(0x8a, 0x18dbdd5c9cd9481b9bdd08195e1a5d)\n        /* \"#utility.yul\":17701:17719   */\n      0x44\n      dup3\n      add\n        /* \"#utility.yul\":17694:17739   */\n      mstore\n        /* \"#utility.yul\":17756:17774   */\n      0x64\n      add\n        /* \"credits.sol\":6215:6271  require(courseExists[courserId]==true,\"course not exit\") */\n      tag_240\n        /* \"#utility.yul\":17441:17780   */\n      jump\n        /* \"credits.sol\":6215:6271  require(courseExists[courserId]==true,\"course not exit\") */\n    tag_335:\n        /* \"credits.sol\":6286:6307  uint currentTimestamp */\n      0x00\n        /* \"credits.sol\":6355:6377  courserInfo[courserId] */\n      dup4\n      dup2\n      mstore\n        /* \"credits.sol\":6355:6366  courserInfo */\n      0x03\n        /* \"credits.sol\":6355:6377  courserInfo[courserId] */\n      0x20\n      mstore\n      0x40\n      dup2\n      keccak256\n        /* \"credits.sol\":6355:6385  courserInfo[courserId].credits */\n      0x02\n      add\n      sload\n        /* \"credits.sol\":6310:6325  block.timestamp */\n      timestamp\n      swap2\n        /* \"credits.sol\":6485:6487  60 */\n      0x3c\n        /* \"credits.sol\":6478:6487  score>=60 */\n      dup6\n      lt\n        /* \"credits.sol\":6475:6546  if(score>=60){... */\n      tag_338\n      jumpi\n        /* \"credits.sol\":6515:6530  score*newredits */\n      tag_339\n        /* \"credits.sol\":6521:6530  newredits */\n      dup3\n        /* \"credits.sol\":6515:6520  score */\n      dup7\n        /* \"credits.sol\":6515:6530  score*newredits */\n      tag_340\n      jump\t// in\n    tag_339:\n        /* \"credits.sol\":6504:6530  endCredits=score*newredits */\n      swap1\n      pop\n        /* \"credits.sol\":6475:6546  if(score>=60){... */\n    tag_338:\n        /* \"credits.sol\":6608:6704  Credit(courserId, endCredits, score, currentTimestamp,false,0,false,issuingInstitution,false,\"\") */\n      mload(0x40)\n      dup1\n      0x0140\n      add\n      0x40\n      mstore\n      dup1\n        /* \"credits.sol\":6615:6624  courserId */\n      dup8\n        /* \"credits.sol\":6608:6704  Credit(courserId, endCredits, score, currentTimestamp,false,0,false,issuingInstitution,false,\"\") */\n      dup2\n      mstore\n      0x20\n      add\n        /* \"credits.sol\":6626:6636  endCredits */\n      dup3\n        /* \"credits.sol\":6608:6704  Credit(courserId, endCredits, score, currentTimestamp,false,0,false,issuingInstitution,false,\"\") */\n      dup2\n      mstore\n      0x20\n      add\n        /* \"credits.sol\":6638:6643  score */\n      dup7\n        /* \"credits.sol\":6608:6704  Credit(courserId, endCredits, score, currentTimestamp,false,0,false,issuingInstitution,false,\"\") */\n      dup2\n      mstore\n      0x20\n      add\n        /* \"credits.sol\":6645:6661  currentTimestamp */\n      dup5\n        /* \"credits.sol\":6608:6704  Credit(courserId, endCredits, score, currentTimestamp,false,0,false,issuingInstitution,false,\"\") */\n      dup2\n      mstore\n      0x20\n      add\n        /* \"credits.sol\":6662:6667  false */\n      0x00\n        /* \"credits.sol\":6608:6704  Credit(courserId, endCredits, score, currentTimestamp,false,0,false,issuingInstitution,false,\"\") */\n      iszero\n      iszero\n      dup2\n      mstore\n      0x20\n      add\n        /* \"credits.sol\":6668:6669  0 */\n      0x00\n        /* \"credits.sol\":6608:6704  Credit(courserId, endCredits, score, currentTimestamp,false,0,false,issuingInstitution,false,\"\") */\n      dup2\n      mstore\n      0x20\n      add\n        /* \"credits.sol\":6670:6675  false */\n      0x00\n        /* \"credits.sol\":6608:6704  Credit(courserId, endCredits, score, currentTimestamp,false,0,false,issuingInstitution,false,\"\") */\n      iszero\n      iszero\n      dup2\n      mstore\n      0x20\n      add\n        /* \"credits.sol\":6676:6694  issuingInstitution */\n      dup6\n        /* \"credits.sol\":6608:6704  Credit(courserId, endCredits, score, currentTimestamp,false,0,false,issuingInstitution,false,\"\") */\n      dup2\n      mstore\n      0x20\n      add\n        /* \"credits.sol\":6695:6700  false */\n      0x00\n        /* \"credits.sol\":6608:6704  Credit(courserId, endCredits, score, currentTimestamp,false,0,false,issuingInstitution,false,\"\") */\n      iszero\n      iszero\n      dup2\n      mstore\n      0x20\n      add\n      mload(0x40)\n      dup1\n      0x20\n      add\n      0x40\n      mstore\n      dup1\n      0x00\n      dup2\n      mstore\n      pop\n      dup2\n      mstore\n      pop\n        /* \"credits.sol\":6573:6587  studentCredits */\n      0x04\n        /* \"credits.sol\":6573:6596  studentCredits[student] */\n      0x00\n        /* \"credits.sol\":6588:6595  student */\n      dup10\n      sub(shl(0xa0, 0x01), 0x01)\n        /* \"credits.sol\":6573:6596  studentCredits[student] */\n      and\n      sub(shl(0xa0, 0x01), 0x01)\n      and\n      dup2\n      mstore\n      0x20\n      add\n      swap1\n      dup2\n      mstore\n      0x20\n      add\n      0x00\n      keccak256\n        /* \"credits.sol\":6573:6607  studentCredits[student][courserId] */\n      0x00\n        /* \"credits.sol\":6597:6606  courserId */\n      dup9\n        /* \"credits.sol\":6573:6607  studentCredits[student][courserId] */\n      dup2\n      mstore\n      0x20\n      add\n      swap1\n      dup2\n      mstore\n      0x20\n      add\n      0x00\n      keccak256\n        /* \"credits.sol\":6573:6704  studentCredits[student][courserId]=Credit(courserId, endCredits, score, currentTimestamp,false,0,false,issuingInstitution,false,\"\") */\n      0x00\n      dup3\n      add\n      mload\n      dup2\n      0x00\n      add\n      sstore\n      0x20\n      dup3\n      add\n      mload\n      dup2\n      0x01\n      add\n      sstore\n      0x40\n      dup3\n      add\n      mload\n      dup2\n      0x02\n      add\n      sstore\n      0x60\n      dup3\n      add\n      mload\n      dup2\n      0x03\n      add\n      sstore\n      0x80\n      dup3\n      add\n      mload\n      dup2\n      0x04\n      add\n      exp(0x0100, 0x00)\n      dup2\n      sload\n      dup2\n      0xff\n      mul\n      not\n      and\n      swap1\n      dup4\n      iszero\n      iszero\n      mul\n      or\n      swap1\n      sstore\n      pop\n      0xa0\n      dup3\n      add\n      mload\n      dup2\n      0x05\n      add\n      sstore\n      0xc0\n      dup3\n      add\n      mload\n      dup2\n      0x06\n      add\n      exp(0x0100, 0x00)\n      dup2\n      sload\n      dup2\n      0xff\n      mul\n      not\n      and\n      swap1\n      dup4\n      iszero\n      iszero\n      mul\n      or\n      swap1\n      sstore\n      pop\n      0xe0\n      dup3\n      add\n      mload\n      dup2\n      0x07\n      add\n      swap1\n      dup2\n      tag_341\n      swap2\n      swap1\n      tag_342\n      jump\t// in\n    tag_341:\n      pop\n      0x0100\n      dup3\n      add\n      mload\n      0x08\n      dup3\n      add\n      dup1\n      sload\n      not(0xff)\n      and\n      swap2\n      iszero\n      iszero\n      swap2\n      swap1\n      swap2\n      or\n      swap1\n      sstore\n      0x0120\n      dup3\n      add\n      mload\n      0x09\n      dup3\n      add\n      swap1\n      tag_343\n      swap1\n      dup3\n      tag_342\n      jump\t// in\n    tag_343:\n      pop\n      pop\n      pop\n      sub(shl(0xa0, 0x01), 0x01)\n        /* \"credits.sol\":6719:6744  studentCourseIds[student] */\n      swap1\n      swap7\n      and\n      0x00\n      swap1\n      dup2\n      mstore\n        /* \"credits.sol\":6719:6735  studentCourseIds */\n      0x05\n        /* \"credits.sol\":6719:6744  studentCourseIds[student] */\n      0x20\n      swap1\n      dup2\n      mstore\n      0x40\n      dup3\n      keccak256\n        /* \"credits.sol\":6719:6760  studentCourseIds[student].push(courserId) */\n      dup1\n      sload\n      0x01\n      dup2\n      add\n      dup3\n      sstore\n      swap1\n      dup4\n      mstore\n      swap2\n      keccak256\n      add\n      swap5\n      swap1\n      swap5\n      sstore\n      pop\n      pop\n      pop\n      pop\n      pop\n        /* \"credits.sol\":5767:6771  function recordCredit(address student,uint256 courserId,uint256 score,string memory issuingInstitution)external {... */\n      jump\t// out\n        /* \"credits.sol\":8595:9434  function getStudentCreditByMechanism(address student)external  {... */\n    tag_116:\n      sub(shl(0xa0, 0x01), 0x01)\n        /* \"credits.sol\":8693:8711  allowance[student] */\n      dup2\n      and\n        /* \"credits.sol\":8724:8725  0 */\n      0x00\n        /* \"credits.sol\":8693:8711  allowance[student] */\n      swap1\n      dup2\n      mstore\n        /* \"credits.sol\":8693:8702  allowance */\n      0x0a\n        /* \"credits.sol\":8693:8711  allowance[student] */\n      0x20\n      swap1\n      dup2\n      mstore\n      0x40\n      dup1\n      dup4\n      keccak256\n        /* \"credits.sol\":8712:8722  msg.sender */\n      caller\n        /* \"credits.sol\":8693:8723  allowance[student][msg.sender] */\n      dup5\n      mstore\n      swap1\n      swap2\n      mstore\n      swap1\n      keccak256\n      sload\n        /* \"credits.sol\":8685:8750  require(allowance[student][msg.sender]>0,\"you do not be allowed\") */\n      tag_346\n      jumpi\n      mload(0x40)\n      shl(0xe5, 0x461bcd)\n      dup2\n      mstore\n        /* \"#utility.yul\":20330:20332   */\n      0x20\n        /* \"credits.sol\":8685:8750  require(allowance[student][msg.sender]>0,\"you do not be allowed\") */\n      0x04\n      dup3\n      add\n        /* \"#utility.yul\":20312:20333   */\n      mstore\n        /* \"#utility.yul\":20369:20371   */\n      0x15\n        /* \"#utility.yul\":20349:20367   */\n      0x24\n      dup3\n      add\n        /* \"#utility.yul\":20342:20372   */\n      mstore\n      shl(0x5a, 0x1e5bdd48191bc81b9bdd08189948185b1b1bddd959)\n        /* \"#utility.yul\":20388:20406   */\n      0x44\n      dup3\n      add\n        /* \"#utility.yul\":20381:20432   */\n      mstore\n        /* \"#utility.yul\":20449:20467   */\n      0x64\n      add\n        /* \"credits.sol\":8685:8750  require(allowance[student][msg.sender]>0,\"you do not be allowed\") */\n      tag_240\n        /* \"#utility.yul\":20128:20473   */\n      jump\n        /* \"credits.sol\":8685:8750  require(allowance[student][msg.sender]>0,\"you do not be allowed\") */\n    tag_346:\n      sub(shl(0xa0, 0x01), 0x01)\n        /* \"credits.sol\":8764:8782  allowance[student] */\n      dup2\n      and\n      0x00\n      swap1\n      dup2\n      mstore\n        /* \"credits.sol\":8764:8773  allowance */\n      0x0a\n        /* \"credits.sol\":8764:8782  allowance[student] */\n      0x20\n      swap1\n      dup2\n      mstore\n      0x40\n      dup1\n      dup4\n      keccak256\n        /* \"credits.sol\":8783:8793  msg.sender */\n      caller\n        /* \"credits.sol\":8764:8794  allowance[student][msg.sender] */\n      dup5\n      mstore\n      swap1\n      swap2\n      mstore\n      dup2\n      keccak256\n        /* \"credits.sol\":8764:8796  allowance[student][msg.sender]-- */\n      dup1\n      sload\n      swap2\n      tag_349\n      dup4\n      tag_350\n      jump\t// in\n    tag_349:\n      swap1\n      swap2\n      sstore\n      pop\n      pop\n      sub(shl(0xa0, 0x01), 0x01)\n        /* \"credits.sol\":8824:8849  studentCourseIds[student] */\n      dup2\n      and\n        /* \"credits.sol\":8810:8821  uint length */\n      0x00\n        /* \"credits.sol\":8824:8849  studentCourseIds[student] */\n      swap1\n      dup2\n      mstore\n        /* \"credits.sol\":8824:8840  studentCourseIds */\n      0x05\n        /* \"credits.sol\":8824:8849  studentCourseIds[student] */\n      0x20\n      mstore\n      0x40\n      dup2\n      keccak256\n        /* \"credits.sol\":8824:8856  studentCourseIds[student].length */\n      sload\n      swap1\n      dup2\n        /* \"credits.sol\":8899:8919  new Credit[](length) */\n      0xffffffffffffffff\n      dup2\n      gt\n      iszero\n      tag_352\n      jumpi\n      tag_352\n      tag_208\n      jump\t// in\n    tag_352:\n      mload(0x40)\n      swap1\n      dup1\n      dup3\n      mstore\n      dup1\n      0x20\n      mul\n      0x20\n      add\n      dup3\n      add\n      0x40\n      mstore\n      dup1\n      iszero\n      tag_353\n      jumpi\n      dup2\n      0x20\n      add\n    tag_354:\n      tag_355\n      tag_274\n      jump\t// in\n    tag_355:\n      dup2\n      mstore\n      0x20\n      add\n      swap1\n      0x01\n      swap1\n      sub\n      swap1\n      dup2\n      tag_354\n      jumpi\n      swap1\n      pop\n    tag_353:\n      pop\n        /* \"credits.sol\":8871:8919  Credit[]memory creditList = new Credit[](length) */\n      swap1\n      pop\n        /* \"credits.sol\":8938:8944  uint i */\n      0x00\n        /* \"credits.sol\":8934:9422  for(uint i = 0; i < length; i++) {... */\n    tag_356:\n        /* \"credits.sol\":8954:8960  length */\n      dup3\n        /* \"credits.sol\":8950:8951  i */\n      dup2\n        /* \"credits.sol\":8950:8960  i < length */\n      lt\n        /* \"credits.sol\":8934:9422  for(uint i = 0; i < length; i++) {... */\n      iszero\n      tag_357\n      jumpi\n      sub(shl(0xa0, 0x01), 0x01)\n        /* \"credits.sol\":9002:9027  studentCourseIds[student] */\n      dup5\n      and\n        /* \"credits.sol\":8986:8999  uint courseId */\n      0x00\n        /* \"credits.sol\":9002:9027  studentCourseIds[student] */\n      swap1\n      dup2\n      mstore\n        /* \"credits.sol\":9002:9018  studentCourseIds */\n      0x05\n        /* \"credits.sol\":9002:9027  studentCourseIds[student] */\n      0x20\n      mstore\n      0x40\n      dup2\n      keccak256\n        /* \"credits.sol\":9002:9030  studentCourseIds[student][i] */\n      dup1\n      sload\n        /* \"credits.sol\":9028:9029  i */\n      dup4\n      swap1\n        /* \"credits.sol\":9002:9030  studentCourseIds[student][i] */\n      dup2\n      lt\n      tag_360\n      jumpi\n      tag_360\n      tag_202\n      jump\t// in\n    tag_360:\n      0x00\n      swap2\n      dup3\n      mstore\n      0x20\n      dup1\n      dup4\n      keccak256\n      swap1\n      swap2\n      add\n      sload\n      sub(shl(0xa0, 0x01), 0x01)\n        /* \"credits.sol\":9065:9088  studentCredits[student] */\n      dup9\n      and\n      dup4\n      mstore\n        /* \"credits.sol\":9065:9079  studentCredits */\n      0x04\n        /* \"credits.sol\":9065:9088  studentCredits[student] */\n      dup1\n      dup4\n      mstore\n      0x40\n      dup1\n      dup6\n      keccak256\n        /* \"credits.sol\":9065:9098  studentCredits[student][courseId] */\n      dup4\n      dup7\n      mstore\n      dup5\n      mstore\n      swap4\n      dup5\n      swap1\n      keccak256\n        /* \"credits.sol\":9049:9098  creditList[i] = studentCredits[student][courseId] */\n      dup5\n      mload\n      0x0140\n      dup2\n      add\n      dup7\n      mstore\n      dup2\n      sload\n      dup2\n      mstore\n      0x01\n      dup3\n      add\n      sload\n      swap5\n      dup2\n      add\n      swap5\n      swap1\n      swap5\n      mstore\n      0x02\n      dup2\n      add\n      sload\n      swap5\n      dup5\n      add\n      swap5\n      swap1\n      swap5\n      mstore\n      0x03\n      dup5\n      add\n      sload\n      0x60\n      dup5\n      add\n      mstore\n      dup4\n      add\n      sload\n      0xff\n      swap1\n      dup2\n      and\n      iszero\n      iszero\n      0x80\n      dup5\n      add\n      mstore\n      0x05\n      dup5\n      add\n      sload\n      0xa0\n      dup5\n      add\n      mstore\n      0x06\n      dup5\n      add\n      sload\n      and\n      iszero\n      iszero\n      0xc0\n      dup4\n      add\n      mstore\n      0x07\n      dup4\n      add\n      dup1\n      sload\n        /* \"credits.sol\":9002:9030  studentCourseIds[student][i] */\n      swap2\n      swap5\n      pop\n        /* \"credits.sol\":9049:9098  creditList[i] = studentCredits[student][courseId] */\n      swap2\n      swap3\n        /* \"credits.sol\":9065:9098  studentCredits[student][courseId] */\n      swap2\n        /* \"credits.sol\":9049:9098  creditList[i] = studentCredits[student][courseId] */\n      0xe0\n      dup5\n      add\n      swap2\n      tag_362\n      swap1\n      tag_229\n      jump\t// in\n    tag_362:\n      dup1\n      0x1f\n      add\n      0x20\n      dup1\n      swap2\n      div\n      mul\n      0x20\n      add\n      mload(0x40)\n      swap1\n      dup2\n      add\n      0x40\n      mstore\n      dup1\n      swap3\n      swap2\n      swap1\n      dup2\n      dup2\n      mstore\n      0x20\n      add\n      dup3\n      dup1\n      sload\n      tag_363\n      swap1\n      tag_229\n      jump\t// in\n    tag_363:\n      dup1\n      iszero\n      tag_364\n      jumpi\n      dup1\n      0x1f\n      lt\n      tag_365\n      jumpi\n      0x0100\n      dup1\n      dup4\n      sload\n      div\n      mul\n      dup4\n      mstore\n      swap2\n      0x20\n      add\n      swap2\n      jump(tag_364)\n    tag_365:\n      dup3\n      add\n      swap2\n      swap1\n      0x00\n      mstore\n      keccak256(0x00, 0x20)\n      swap1\n    tag_366:\n      dup2\n      sload\n      dup2\n      mstore\n      swap1\n      0x01\n      add\n      swap1\n      0x20\n      add\n      dup1\n      dup4\n      gt\n      tag_366\n      jumpi\n      dup3\n      swap1\n      sub\n      0x1f\n      and\n      dup3\n      add\n      swap2\n    tag_364:\n      pop\n      pop\n      pop\n      swap2\n      dup4\n      mstore\n      pop\n      pop\n      0x08\n      dup3\n      add\n      sload\n      0xff\n      and\n      iszero\n      iszero\n      0x20\n      dup3\n      add\n      mstore\n      0x09\n      dup3\n      add\n      dup1\n      sload\n      0x40\n      swap1\n      swap3\n      add\n      swap2\n      tag_367\n      swap1\n      tag_229\n      jump\t// in\n    tag_367:\n      dup1\n      0x1f\n      add\n      0x20\n      dup1\n      swap2\n      div\n      mul\n      0x20\n      add\n      mload(0x40)\n      swap1\n      dup2\n      add\n      0x40\n      mstore\n      dup1\n      swap3\n      swap2\n      swap1\n      dup2\n      dup2\n      mstore\n      0x20\n      add\n      dup3\n      dup1\n      sload\n      tag_368\n      swap1\n      tag_229\n      jump\t// in\n    tag_368:\n      dup1\n      iszero\n      tag_369\n      jumpi\n      dup1\n      0x1f\n      lt\n      tag_370\n      jumpi\n      0x0100\n      dup1\n      dup4\n      sload\n      div\n      mul\n      dup4\n      mstore\n      swap2\n      0x20\n      add\n      swap2\n      jump(tag_369)\n    tag_370:\n      dup3\n      add\n      swap2\n      swap1\n      0x00\n      mstore\n      keccak256(0x00, 0x20)\n      swap1\n    tag_371:\n      dup2\n      sload\n      dup2\n      mstore\n      swap1\n      0x01\n      add\n      swap1\n      0x20\n      add\n      dup1\n      dup4\n      gt\n      tag_371\n      jumpi\n      dup3\n      swap1\n      sub\n      0x1f\n      and\n      dup3\n      add\n      swap2\n    tag_369:\n      pop\n      pop\n      pop\n      pop\n      pop\n      dup2\n      mstore\n      pop\n      pop\n        /* \"credits.sol\":9049:9059  creditList */\n      dup4\n        /* \"credits.sol\":9060:9061  i */\n      dup4\n        /* \"credits.sol\":9049:9062  creditList[i] */\n      dup2\n      mload\n      dup2\n      lt\n      tag_373\n      jumpi\n      tag_373\n      tag_202\n      jump\t// in\n    tag_373:\n      0x20\n      mul\n      0x20\n      add\n      add\n        /* \"credits.sol\":9049:9098  creditList[i] = studentCredits[student][courseId] */\n      dup2\n      swap1\n      mstore\n      pop\n        /* \"credits.sol\":9139:9146  student */\n      dup5\n      sub(shl(0xa0, 0x01), 0x01)\n        /* \"credits.sol\":9122:9407  LogCreditDetails(student, creditList[i].courserId, creditList[i].credits, creditList[i].score,creditList[i].issueDate,creditList[i].isModified,creditList[i].modifyNum,creditList[i].isRevoked,creditList[i]. issuingInstitution,creditList[i].isTransferred,creditList[i].targetInstitution) */\n      and\n      0x9cbf22d1e26c3fcde690dd334d1b5eec6973003fd2816d81ef98b31a669cc0d8\n        /* \"credits.sol\":9148:9158  creditList */\n      dup5\n        /* \"credits.sol\":9159:9160  i */\n      dup5\n        /* \"credits.sol\":9148:9161  creditList[i] */\n      dup2\n      mload\n      dup2\n      lt\n      tag_375\n      jumpi\n      tag_375\n      tag_202\n      jump\t// in\n    tag_375:\n      0x20\n      mul\n      0x20\n      add\n      add\n      mload\n        /* \"credits.sol\":9148:9171  creditList[i].courserId */\n      0x00\n      add\n      mload\n        /* \"credits.sol\":9173:9183  creditList */\n      dup6\n        /* \"credits.sol\":9184:9185  i */\n      dup6\n        /* \"credits.sol\":9173:9186  creditList[i] */\n      dup2\n      mload\n      dup2\n      lt\n      tag_377\n      jumpi\n      tag_377\n      tag_202\n      jump\t// in\n    tag_377:\n      0x20\n      mul\n      0x20\n      add\n      add\n      mload\n        /* \"credits.sol\":9173:9194  creditList[i].credits */\n      0x20\n      add\n      mload\n        /* \"credits.sol\":9196:9206  creditList */\n      dup7\n        /* \"credits.sol\":9207:9208  i */\n      dup7\n        /* \"credits.sol\":9196:9209  creditList[i] */\n      dup2\n      mload\n      dup2\n      lt\n      tag_379\n      jumpi\n      tag_379\n      tag_202\n      jump\t// in\n    tag_379:\n      0x20\n      mul\n      0x20\n      add\n      add\n      mload\n        /* \"credits.sol\":9196:9215  creditList[i].score */\n      0x40\n      add\n      mload\n        /* \"credits.sol\":9216:9226  creditList */\n      dup8\n        /* \"credits.sol\":9227:9228  i */\n      dup8\n        /* \"credits.sol\":9216:9229  creditList[i] */\n      dup2\n      mload\n      dup2\n      lt\n      tag_381\n      jumpi\n      tag_381\n      tag_202\n      jump\t// in\n    tag_381:\n      0x20\n      mul\n      0x20\n      add\n      add\n      mload\n        /* \"credits.sol\":9216:9239  creditList[i].issueDate */\n      0x60\n      add\n      mload\n        /* \"credits.sol\":9240:9250  creditList */\n      dup9\n        /* \"credits.sol\":9251:9252  i */\n      dup9\n        /* \"credits.sol\":9240:9253  creditList[i] */\n      dup2\n      mload\n      dup2\n      lt\n      tag_383\n      jumpi\n      tag_383\n      tag_202\n      jump\t// in\n    tag_383:\n      0x20\n      mul\n      0x20\n      add\n      add\n      mload\n        /* \"credits.sol\":9240:9264  creditList[i].isModified */\n      0x80\n      add\n      mload\n        /* \"credits.sol\":9265:9275  creditList */\n      dup10\n        /* \"credits.sol\":9276:9277  i */\n      dup10\n        /* \"credits.sol\":9265:9278  creditList[i] */\n      dup2\n      mload\n      dup2\n      lt\n      tag_385\n      jumpi\n      tag_385\n      tag_202\n      jump\t// in\n    tag_385:\n      0x20\n      mul\n      0x20\n      add\n      add\n      mload\n        /* \"credits.sol\":9265:9288  creditList[i].modifyNum */\n      0xa0\n      add\n      mload\n        /* \"credits.sol\":9289:9299  creditList */\n      dup11\n        /* \"credits.sol\":9300:9301  i */\n      dup11\n        /* \"credits.sol\":9289:9302  creditList[i] */\n      dup2\n      mload\n      dup2\n      lt\n      tag_387\n      jumpi\n      tag_387\n      tag_202\n      jump\t// in\n    tag_387:\n      0x20\n      mul\n      0x20\n      add\n      add\n      mload\n        /* \"credits.sol\":9289:9312  creditList[i].isRevoked */\n      0xc0\n      add\n      mload\n        /* \"credits.sol\":9313:9323  creditList */\n      dup12\n        /* \"credits.sol\":9324:9325  i */\n      dup12\n        /* \"credits.sol\":9313:9326  creditList[i] */\n      dup2\n      mload\n      dup2\n      lt\n      tag_389\n      jumpi\n      tag_389\n      tag_202\n      jump\t// in\n    tag_389:\n      0x20\n      mul\n      0x20\n      add\n      add\n      mload\n        /* \"credits.sol\":9313:9346  creditList[i]. issuingInstitution */\n      0xe0\n      add\n      mload\n        /* \"credits.sol\":9347:9357  creditList */\n      dup13\n        /* \"credits.sol\":9358:9359  i */\n      dup13\n        /* \"credits.sol\":9347:9360  creditList[i] */\n      dup2\n      mload\n      dup2\n      lt\n      tag_391\n      jumpi\n      tag_391\n      tag_202\n      jump\t// in\n    tag_391:\n      0x20\n      mul\n      0x20\n      add\n      add\n      mload\n        /* \"credits.sol\":9347:9374  creditList[i].isTransferred */\n      0x0100\n      add\n      mload\n        /* \"credits.sol\":9375:9385  creditList */\n      dup14\n        /* \"credits.sol\":9386:9387  i */\n      dup14\n        /* \"credits.sol\":9375:9388  creditList[i] */\n      dup2\n      mload\n      dup2\n      lt\n      tag_393\n      jumpi\n      tag_393\n      tag_202\n      jump\t// in\n    tag_393:\n      0x20\n      mul\n      0x20\n      add\n      add\n      mload\n        /* \"credits.sol\":9375:9406  creditList[i].targetInstitution */\n      0x0120\n      add\n      mload\n        /* \"credits.sol\":9122:9407  LogCreditDetails(student, creditList[i].courserId, creditList[i].credits, creditList[i].score,creditList[i].issueDate,creditList[i].isModified,creditList[i].modifyNum,creditList[i].isRevoked,creditList[i]. issuingInstitution,creditList[i].isTransferred,creditList[i].targetInstitution) */\n      mload(0x40)\n      tag_394\n      swap11\n      swap10\n      swap9\n      swap8\n      swap7\n      swap6\n      swap5\n      swap4\n      swap3\n      swap2\n      swap1\n      tag_185\n      jump\t// in\n    tag_394:\n      mload(0x40)\n      dup1\n      swap2\n      sub\n      swap1\n      log2\n      pop\n        /* \"credits.sol\":8962:8965  i++ */\n      0x01\n      add\n        /* \"credits.sol\":8934:9422  for(uint i = 0; i < length; i++) {... */\n      jump(tag_356)\n    tag_357:\n      pop\n        /* \"credits.sol\":8658:9434  {... */\n      pop\n      pop\n        /* \"credits.sol\":8595:9434  function getStudentCreditByMechanism(address student)external  {... */\n      pop\n      jump\t// out\n        /* \"credits.sol\":6813:6919  function getAllCourseID()external view returns(uint[] memory){... */\n    tag_118:\n        /* \"credits.sol\":6860:6873  uint[] memory */\n      0x60\n        /* \"credits.sol\":6897:6908  courseLists */\n      0x09\n        /* \"credits.sol\":6890:6908  return courseLists */\n      dup1\n      sload\n      dup1\n      0x20\n      mul\n      0x20\n      add\n      mload(0x40)\n      swap1\n      dup2\n      add\n      0x40\n      mstore\n      dup1\n      swap3\n      swap2\n      swap1\n      dup2\n      dup2\n      mstore\n      0x20\n      add\n      dup3\n      dup1\n      sload\n      dup1\n      iszero\n      tag_396\n      jumpi\n      0x20\n      mul\n      dup3\n      add\n      swap2\n      swap1\n      0x00\n      mstore\n      keccak256(0x00, 0x20)\n      swap1\n    tag_397:\n      dup2\n      sload\n      dup2\n      mstore\n      0x20\n      add\n      swap1\n      0x01\n      add\n      swap1\n      dup1\n      dup4\n      gt\n      tag_397\n      jumpi\n    tag_396:\n      pop\n      pop\n      pop\n      pop\n      pop\n      swap1\n      pop\n        /* \"credits.sol\":6813:6919  function getAllCourseID()external view returns(uint[] memory){... */\n      swap1\n      jump\t// out\n        /* \"credits.sol\":13032:13407  function approveCreditTransfer(address student, uint index) external  {... */\n    tag_123:\n        /* \"credits.sol\":13136:13142  _owner */\n      and(sub(shl(0xa0, 0x01), 0x01), sload(0x00))\n        /* \"credits.sol\":13124:13134  msg.sender */\n      caller\n        /* \"credits.sol\":13124:13142  msg.sender==_owner */\n      eq\n      dup1\n        /* \"credits.sol\":13124:13169  msg.sender==_owner||isAdmin[msg.sender]==true */\n      tag_399\n      jumpi\n      pop\n        /* \"credits.sol\":13152:13162  msg.sender */\n      caller\n        /* \"credits.sol\":13144:13163  isAdmin[msg.sender] */\n      0x00\n      swap1\n      dup2\n      mstore\n        /* \"credits.sol\":13144:13151  isAdmin */\n      0x01\n        /* \"credits.sol\":13144:13163  isAdmin[msg.sender] */\n      0x20\n      dup2\n      swap1\n      mstore\n      0x40\n      swap1\n      swap2\n      keccak256\n      sload\n      0xff\n      and\n        /* \"credits.sol\":13144:13169  isAdmin[msg.sender]==true */\n      iszero\n      iszero\n      eq\n        /* \"credits.sol\":13124:13169  msg.sender==_owner||isAdmin[msg.sender]==true */\n    tag_399:\n        /* \"credits.sol\":13116:13226  require(msg.sender==_owner||isAdmin[msg.sender]==true,\"only topadmin or admin can call approveCreditTransfer\") */\n      tag_400\n      jumpi\n      mload(0x40)\n      shl(0xe5, 0x461bcd)\n      dup2\n      mstore\n        /* \"#utility.yul\":20821:20823   */\n      0x20\n        /* \"credits.sol\":13116:13226  require(msg.sender==_owner||isAdmin[msg.sender]==true,\"only topadmin or admin can call approveCreditTransfer\") */\n      0x04\n      dup3\n      add\n        /* \"#utility.yul\":20803:20824   */\n      mstore\n        /* \"#utility.yul\":20860:20862   */\n      0x35\n        /* \"#utility.yul\":20840:20858   */\n      0x24\n      dup3\n      add\n        /* \"#utility.yul\":20833:20863   */\n      mstore\n      0x00\n      dup1\n      mload\n      0x20\n      data_3a8ed4189e30c6abc26df6d93d70a72c91c7816be8f5bac91038d7c02353b33e\n      dup4\n      codecopy\n      dup2\n      mload\n      swap2\n      mstore\n        /* \"#utility.yul\":20879:20897   */\n      0x44\n      dup3\n      add\n        /* \"#utility.yul\":20872:20934   */\n      mstore\n      shl(0x59, 0x30b8383937bb32a1b932b234ba2a3930b739b332b9)\n        /* \"#utility.yul\":20950:20968   */\n      0x64\n      dup3\n      add\n        /* \"#utility.yul\":20943:20994   */\n      mstore\n        /* \"#utility.yul\":21011:21030   */\n      0x84\n      add\n        /* \"credits.sol\":13116:13226  require(msg.sender==_owner||isAdmin[msg.sender]==true,\"only topadmin or admin can call approveCreditTransfer\") */\n      tag_240\n        /* \"#utility.yul\":20619:21036   */\n      jump\n        /* \"credits.sol\":13116:13226  require(msg.sender==_owner||isAdmin[msg.sender]==true,\"only topadmin or admin can call approveCreditTransfer\") */\n    tag_400:\n      sub(shl(0xa0, 0x01), 0x01)\n        /* \"credits.sol\":13250:13281  creditTransferRequests[student] */\n      dup3\n      and\n      0x00\n      swap1\n      dup2\n      mstore\n        /* \"credits.sol\":13250:13272  creditTransferRequests */\n      0x0b\n        /* \"credits.sol\":13250:13281  creditTransferRequests[student] */\n      0x20\n      mstore\n      0x40\n      swap1\n      keccak256\n        /* \"credits.sol\":13250:13288  creditTransferRequests[student][index] */\n      dup1\n      sload\n        /* \"credits.sol\":13282:13287  index */\n      dup3\n      swap1\n        /* \"credits.sol\":13250:13288  creditTransferRequests[student][index] */\n      dup2\n      lt\n      tag_404\n      jumpi\n      tag_404\n      tag_202\n      jump\t// in\n    tag_404:\n      0x00\n      swap2\n      dup3\n      mstore\n      0x20\n      swap1\n      swap2\n      keccak256\n        /* \"credits.sol\":13250:13299  creditTransferRequests[student][index].isApproved */\n      0x03\n        /* \"credits.sol\":13250:13288  creditTransferRequests[student][index] */\n      0x05\n      swap1\n      swap3\n      mul\n      add\n        /* \"credits.sol\":13250:13299  creditTransferRequests[student][index].isApproved */\n      add\n      sload\n      0xff\n      and\n        /* \"credits.sol\":13249:13299  !creditTransferRequests[student][index].isApproved */\n      iszero\n        /* \"credits.sol\":13241:13329  require(!creditTransferRequests[student][index].isApproved, \"Transfer already approved\") */\n      tag_406\n      jumpi\n      mload(0x40)\n      shl(0xe5, 0x461bcd)\n      dup2\n      mstore\n        /* \"#utility.yul\":21243:21245   */\n      0x20\n        /* \"credits.sol\":13241:13329  require(!creditTransferRequests[student][index].isApproved, \"Transfer already approved\") */\n      0x04\n      dup3\n      add\n        /* \"#utility.yul\":21225:21246   */\n      mstore\n        /* \"#utility.yul\":21282:21284   */\n      0x19\n        /* \"#utility.yul\":21262:21280   */\n      0x24\n      dup3\n      add\n        /* \"#utility.yul\":21255:21285   */\n      mstore\n        /* \"#utility.yul\":21321:21348   */\n      0x5472616e7366657220616c726561647920617070726f76656400000000000000\n        /* \"#utility.yul\":21301:21319   */\n      0x44\n      dup3\n      add\n        /* \"#utility.yul\":21294:21349   */\n      mstore\n        /* \"#utility.yul\":21366:21384   */\n      0x64\n      add\n        /* \"credits.sol\":13241:13329  require(!creditTransferRequests[student][index].isApproved, \"Transfer already approved\") */\n      tag_240\n        /* \"#utility.yul\":21041:21390   */\n      jump\n        /* \"credits.sol\":13241:13329  require(!creditTransferRequests[student][index].isApproved, \"Transfer already approved\") */\n    tag_406:\n      sub(shl(0xa0, 0x01), 0x01)\n        /* \"credits.sol\":13344:13375  creditTransferRequests[student] */\n      dup3\n      and\n      0x00\n      swap1\n      dup2\n      mstore\n        /* \"credits.sol\":13344:13366  creditTransferRequests */\n      0x0b\n        /* \"credits.sol\":13344:13375  creditTransferRequests[student] */\n      0x20\n      mstore\n      0x40\n      swap1\n      keccak256\n        /* \"credits.sol\":13344:13382  creditTransferRequests[student][index] */\n      dup1\n      sload\n        /* \"credits.sol\":13396:13400  true */\n      0x01\n      swap2\n        /* \"credits.sol\":13344:13375  creditTransferRequests[student] */\n      swap1\n        /* \"credits.sol\":13376:13381  index */\n      dup4\n      swap1\n        /* \"credits.sol\":13344:13382  creditTransferRequests[student][index] */\n      dup2\n      lt\n      tag_410\n      jumpi\n      tag_410\n      tag_202\n      jump\t// in\n    tag_410:\n      0x00\n      swap2\n      dup3\n      mstore\n      0x20\n      swap1\n      swap2\n      keccak256\n      0x05\n      swap1\n      swap2\n      mul\n      add\n        /* \"credits.sol\":13344:13393  creditTransferRequests[student][index].isApproved */\n      0x03\n      add\n        /* \"credits.sol\":13344:13400  creditTransferRequests[student][index].isApproved = true */\n      dup1\n      sload\n      not(0xff)\n      and\n      swap2\n      iszero\n      iszero\n      swap2\n      swap1\n      swap2\n      or\n      swap1\n      sstore\n      pop\n      pop\n        /* \"credits.sol\":13032:13407  function approveCreditTransfer(address student, uint index) external  {... */\n      jump\t// out\n        /* \"credits.sol\":690:831  function addAdmin(address _newAdmin)onlyOwner public {... */\n    tag_126:\n        /* \"credits.sol\":1036:1042  _owner */\n      and(sub(shl(0xa0, 0x01), 0x01), sload(0x00))\n        /* \"credits.sol\":1046:1056  msg.sender */\n      caller\n        /* \"credits.sol\":1036:1056  _owner == msg.sender */\n      eq\n        /* \"credits.sol\":1028:1067  require(_owner == msg.sender, \"!owner\") */\n      tag_413\n      jumpi\n      mload(0x40)\n      shl(0xe5, 0x461bcd)\n      dup2\n      mstore\n      0x04\n      add\n      tag_240\n      swap1\n      tag_241\n      jump\t// in\n    tag_413:\n      sub(shl(0xa0, 0x01), 0x01)\n        /* \"credits.sol\":757:775  isAdmin[_newAdmin] */\n      dup2\n      and\n      0x00\n      dup2\n      dup2\n      mstore\n        /* \"credits.sol\":776:780  true */\n      0x01\n        /* \"credits.sol\":757:775  isAdmin[_newAdmin] */\n      0x20\n      dup2\n      swap1\n      mstore\n      0x40\n      dup1\n      dup4\n      keccak256\n        /* \"credits.sol\":757:780  isAdmin[_newAdmin]=true */\n      dup1\n      sload\n      not(0xff)\n      and\n      swap1\n      swap3\n      or\n      swap1\n      swap2\n      sstore\n        /* \"credits.sol\":799:820  AdminAdded(_newAdmin) */\n      mload\n      0x44d6d25963f097ad14f29f06854a01f575648a1ef82f30e562ccd3889717e339\n      swap2\n        /* \"credits.sol\":757:775  isAdmin[_newAdmin] */\n      swap1\n        /* \"credits.sol\":799:820  AdminAdded(_newAdmin) */\n      log2\n        /* \"credits.sol\":690:831  function addAdmin(address _newAdmin)onlyOwner public {... */\n      pop\n      jump\t// out\n        /* \"credits.sol\":1218:1375  function renounceOwnership() public virtual onlyOwner {... */\n    tag_128:\n        /* \"credits.sol\":1036:1042  _owner */\n      and(sub(shl(0xa0, 0x01), 0x01), sload(0x00))\n        /* \"credits.sol\":1046:1056  msg.sender */\n      caller\n        /* \"credits.sol\":1036:1056  _owner == msg.sender */\n      eq\n        /* \"credits.sol\":1028:1067  require(_owner == msg.sender, \"!owner\") */\n      tag_417\n      jumpi\n      mload(0x40)\n      shl(0xe5, 0x461bcd)\n      dup2\n      mstore\n      0x04\n      add\n      tag_240\n      swap1\n      tag_241\n      jump\t// in\n    tag_417:\n        /* \"credits.sol\":1328:1329  0 */\n      0x00\n        /* \"credits.sol\":1312:1318  _owner */\n      dup1\n      sload\n        /* \"credits.sol\":1291:1331  OwnershipTransferred(_owner, address(0)) */\n      mload(0x40)\n      sub(shl(0xa0, 0x01), 0x01)\n        /* \"credits.sol\":1312:1318  _owner */\n      swap1\n      swap2\n      and\n      swap1\n        /* \"credits.sol\":1291:1331  OwnershipTransferred(_owner, address(0)) */\n      0x8be0079c531659141344cd1fd0a4f28419497f9722a3daafe3b4186f6b6457e0\n      swap1\n        /* \"credits.sol\":1328:1329  0 */\n      dup4\n      swap1\n        /* \"credits.sol\":1291:1331  OwnershipTransferred(_owner, address(0)) */\n      log3\n        /* \"credits.sol\":1362:1363  0 */\n      0x00\n        /* \"credits.sol\":1345:1364  _owner = address(0) */\n      dup1\n      sload\n      not(sub(shl(0xa0, 0x01), 0x01))\n      and\n      swap1\n      sstore\n        /* \"credits.sol\":1218:1375  function renounceOwnership() public virtual onlyOwner {... */\n      jump\t// out\n        /* \"credits.sol\":11798:12956  function requestCreditTransfer(uint256 courseId, string memory targetInstitution) external {... */\n    tag_132:\n        /* \"credits.sol\":11935:11945  msg.sender */\n      caller\n        /* \"credits.sol\":11920:11946  studentCredits[msg.sender] */\n      0x00\n      swap1\n      dup2\n      mstore\n        /* \"credits.sol\":11920:11934  studentCredits */\n      0x04\n        /* \"credits.sol\":11920:11946  studentCredits[msg.sender] */\n      0x20\n      swap1\n      dup2\n      mstore\n      0x40\n      dup1\n      dup4\n      keccak256\n        /* \"credits.sol\":11920:11956  studentCredits[msg.sender][courseId] */\n      dup6\n      dup5\n      mstore\n      swap1\n      swap2\n      mstore\n      dup2\n      keccak256\n        /* \"credits.sol\":11920:11966  studentCredits[msg.sender][courseId].issueDate */\n      0x03\n      add\n      sload\n        /* \"credits.sol\":11920:11971  studentCredits[msg.sender][courseId].issueDate != 0 */\n      swap1\n      sub\n        /* \"credits.sol\":11912:11997  require(studentCredits[msg.sender][courseId].issueDate != 0, \"Credit does not exist\") */\n      tag_421\n      jumpi\n      mload(0x40)\n      shl(0xe5, 0x461bcd)\n      dup2\n      mstore\n      0x04\n      add\n      tag_240\n      swap1\n      tag_252\n      jump\t// in\n    tag_421:\n        /* \"credits.sol\":12035:12045  msg.sender */\n      caller\n        /* \"credits.sol\":12020:12046  studentCredits[msg.sender] */\n      0x00\n      swap1\n      dup2\n      mstore\n        /* \"credits.sol\":12020:12034  studentCredits */\n      0x04\n        /* \"credits.sol\":12020:12046  studentCredits[msg.sender] */\n      0x20\n      swap1\n      dup2\n      mstore\n      0x40\n      dup1\n      dup4\n      keccak256\n        /* \"credits.sol\":12020:12056  studentCredits[msg.sender][courseId] */\n      dup6\n      dup5\n      mstore\n      swap1\n      swap2\n      mstore\n      swap1\n      keccak256\n        /* \"credits.sol\":12020:12066  studentCredits[msg.sender][courseId].isRevoked */\n      0x06\n      add\n      sload\n      0xff\n      and\n        /* \"credits.sol\":12019:12066  !studentCredits[msg.sender][courseId].isRevoked */\n      iszero\n        /* \"credits.sol\":12011:12093  require(!studentCredits[msg.sender][courseId].isRevoked, \"Credit already revoked\") */\n      tag_423\n      jumpi\n      mload(0x40)\n      shl(0xe5, 0x461bcd)\n      dup2\n      mstore\n      0x04\n      add\n      tag_240\n      swap1\n      tag_258\n      jump\t// in\n    tag_423:\n        /* \"credits.sol\":12144:12154  msg.sender */\n      caller\n        /* \"credits.sol\":12107:12118  uint256 num */\n      0x00\n        /* \"credits.sol\":11698:11729  creditTransferRequests[student] */\n      dup2\n      dup2\n      mstore\n        /* \"credits.sol\":11698:11720  creditTransferRequests */\n      0x0b\n        /* \"credits.sol\":11698:11729  creditTransferRequests[student] */\n      0x20\n      swap1\n      dup2\n      mstore\n      0x40\n      dup1\n      dup4\n      keccak256\n        /* \"credits.sol\":11698:11736  creditTransferRequests[student].length */\n      dup1\n      sload\n        /* \"credits.sol\":12209:12466  CreditTransfer({... */\n      dup3\n      mload\n      0xc0\n      dup2\n      add\n      dup5\n      mstore\n      swap6\n      dup7\n      mstore\n      dup6\n      dup5\n      add\n      dup9\n      dup2\n      mstore\n      swap3\n      dup7\n      add\n      dup8\n      dup2\n      mstore\n      0x60\n      dup8\n      add\n      dup7\n      swap1\n      mstore\n      0x80\n      dup8\n      add\n      dup7\n      swap1\n      mstore\n      0xa0\n      dup8\n      add\n      dup3\n      swap1\n      mstore\n      0x01\n        /* \"credits.sol\":12169:12467  creditTransferRequests[msg.sender].push(CreditTransfer({... */\n      dup1\n      dup4\n      add\n      dup5\n      sstore\n      swap3\n      dup7\n      mstore\n      swap4\n      swap1\n      swap5\n      keccak256\n      dup6\n      mload\n      0x05\n      dup7\n      mul\n      swap1\n      swap2\n      add\n      dup1\n      sload\n      not(sub(shl(0xa0, 0x01), 0x01))\n      and\n      sub(shl(0xa0, 0x01), 0x01)\n      swap1\n      swap3\n      and\n      swap2\n      swap1\n      swap2\n      or\n      dup2\n      sstore\n      swap2\n      mload\n      swap1\n      dup3\n      add\n      sstore\n      swap1\n      mload\n        /* \"credits.sol\":11698:11736  creditTransferRequests[student].length */\n      swap2\n      swap3\n        /* \"credits.sol\":12209:12466  CreditTransfer({... */\n      swap2\n        /* \"credits.sol\":12169:12467  creditTransferRequests[msg.sender].push(CreditTransfer({... */\n      0x02\n      dup3\n      add\n      swap1\n      tag_427\n      swap1\n      dup3\n      tag_342\n      jump\t// in\n    tag_427:\n      pop\n      0x60\n      dup3\n      add\n      mload\n      0x03\n      dup3\n      add\n      dup1\n      sload\n      0x80\n      dup6\n      add\n      mload\n      iszero\n      iszero\n      0x0100\n      mul\n      not(0xff00)\n      swap4\n      iszero\n      iszero\n      swap4\n      swap1\n      swap4\n      and\n      not(0xffff)\n      swap1\n      swap2\n      and\n      or\n      swap2\n      swap1\n      swap2\n      or\n      swap1\n      sstore\n      0xa0\n      swap1\n      swap2\n      add\n      mload\n      0x04\n      swap1\n      swap2\n      add\n      sstore\n      0x00\n      dup1\n        /* \"credits.sol\":12581:12785  for (uint i = 0; i < studentLists.length; i++) {... */\n    tag_428:\n        /* \"credits.sol\":12602:12614  studentLists */\n      0x0c\n        /* \"credits.sol\":12602:12621  studentLists.length */\n      sload\n        /* \"credits.sol\":12598:12621  i < studentLists.length */\n      dup2\n      lt\n        /* \"credits.sol\":12581:12785  for (uint i = 0; i < studentLists.length; i++) {... */\n      iszero\n      tag_429\n      jumpi\n        /* \"credits.sol\":12669:12679  msg.sender */\n      caller\n      sub(shl(0xa0, 0x01), 0x01)\n        /* \"credits.sol\":12650:12679  studentLists[i] == msg.sender */\n      and\n        /* \"credits.sol\":12650:12662  studentLists */\n      0x0c\n        /* \"credits.sol\":12663:12664  i */\n      dup3\n        /* \"credits.sol\":12650:12665  studentLists[i] */\n      dup2\n      sload\n      dup2\n      lt\n      tag_432\n      jumpi\n      tag_432\n      tag_202\n      jump\t// in\n    tag_432:\n      0x00\n      swap2\n      dup3\n      mstore\n      0x20\n      swap1\n      swap2\n      keccak256\n      add\n      sload\n      sub(shl(0xa0, 0x01), 0x01)\n      and\n        /* \"credits.sol\":12650:12679  studentLists[i] == msg.sender */\n      sub\n        /* \"credits.sol\":12646:12771  if (studentLists[i] == msg.sender) {... */\n      tag_434\n      jumpi\n        /* \"credits.sol\":12721:12725  true */\n      0x01\n        /* \"credits.sol\":12703:12725  isStudentExists = true */\n      swap2\n      pop\n        /* \"credits.sol\":12747:12752  break */\n      jump(tag_429)\n        /* \"credits.sol\":12646:12771  if (studentLists[i] == msg.sender) {... */\n    tag_434:\n        /* \"credits.sol\":12623:12626  i++ */\n      0x01\n      add\n        /* \"credits.sol\":12581:12785  for (uint i = 0; i < studentLists.length; i++) {... */\n      jump(tag_428)\n    tag_429:\n      pop\n        /* \"credits.sol\":12871:12886  isStudentExists */\n      dup1\n        /* \"credits.sol\":12866:12950  if (!isStudentExists) {... */\n      tag_357\n      jumpi\n        /* \"credits.sol\":12906:12918  studentLists */\n      0x0c\n        /* \"credits.sol\":12906:12935  studentLists.push(msg.sender) */\n      dup1\n      sload\n      0x01\n      dup2\n      add\n      dup3\n      sstore\n      0x00\n      swap2\n      swap1\n      swap2\n      mstore\n      0xdf6966c971051c3d54ec59162606531493a51404a002842f56009d7e5cf4a8c7\n      add\n      dup1\n      sload\n      not(sub(shl(0xa0, 0x01), 0x01))\n      and\n        /* \"credits.sol\":12924:12934  msg.sender */\n      caller\n        /* \"credits.sol\":12906:12935  studentLists.push(msg.sender) */\n      or\n      swap1\n      sstore\n        /* \"credits.sol\":11889:12956  {... */\n      pop\n      pop\n        /* \"credits.sol\":11798:12956  function requestCreditTransfer(uint256 courseId, string memory targetInstitution) external {... */\n      pop\n      pop\n      jump\t// out\n        /* \"credits.sol\":4822:5030  function getCourseInfo(uint256 courseId)external returns(CourserInfo memory){... */\n    tag_138:\n        /* \"credits.sol\":4879:4897  CourserInfo memory */\n      tag_438\n      mload(0x40)\n      dup1\n      0x80\n      add\n      0x40\n      mstore\n      dup1\n      0x00\n      dup2\n      mstore\n      0x20\n      add\n      0x60\n      dup2\n      mstore\n      0x20\n      add\n      0x00\n      dup2\n      mstore\n      0x20\n      add\n      0x00\n      dup2\n      mstore\n      pop\n      swap1\n      jump\n    tag_438:\n        /* \"credits.sol\":4929:4951  courseExists[courseId] */\n      0x00\n      dup3\n      dup2\n      mstore\n        /* \"credits.sol\":4929:4941  courseExists */\n      0x07\n        /* \"credits.sol\":4929:4951  courseExists[courseId] */\n      0x20\n      mstore\n      0x40\n      swap1\n      keccak256\n        /* \"credits.sol\":4929:4956  courseExists[courseId]=true */\n      dup1\n      sload\n      not(0xff)\n      and\n        /* \"credits.sol\":4952:4956  true */\n      0x01\n        /* \"credits.sol\":4929:4956  courseExists[courseId]=true */\n      or\n      swap1\n      sstore\n        /* \"credits.sol\":4998:5009  courserInfo */\n      0x03\n        /* \"credits.sol\":4998:5019  courserInfo[courseId] */\n      0x00\n        /* \"credits.sol\":5010:5018  courseId */\n      dup4\n        /* \"credits.sol\":4998:5019  courserInfo[courseId] */\n      dup2\n      mstore\n      0x20\n      add\n      swap1\n      dup2\n      mstore\n      0x20\n      add\n      0x00\n      keccak256\n        /* \"credits.sol\":4991:5019  return courserInfo[courseId] */\n      mload(0x40)\n      dup1\n      0x80\n      add\n      0x40\n      mstore\n      swap1\n      dup2\n      0x00\n      dup3\n      add\n      sload\n      dup2\n      mstore\n      0x20\n      add\n      0x01\n      dup3\n      add\n      dup1\n      sload\n      tag_444\n      swap1\n      tag_229\n      jump\t// in\n    tag_444:\n      dup1\n      0x1f\n      add\n      0x20\n      dup1\n      swap2\n      div\n      mul\n      0x20\n      add\n      mload(0x40)\n      swap1\n      dup2\n      add\n      0x40\n      mstore\n      dup1\n      swap3\n      swap2\n      swap1\n      dup2\n      dup2\n      mstore\n      0x20\n      add\n      dup3\n      dup1\n      sload\n      tag_445\n      swap1\n      tag_229\n      jump\t// in\n    tag_445:\n      dup1\n      iszero\n      tag_446\n      jumpi\n      dup1\n      0x1f\n      lt\n      tag_447\n      jumpi\n      0x0100\n      dup1\n      dup4\n      sload\n      div\n      mul\n      dup4\n      mstore\n      swap2\n      0x20\n      add\n      swap2\n      jump(tag_446)\n    tag_447:\n      dup3\n      add\n      swap2\n      swap1\n      0x00\n      mstore\n      keccak256(0x00, 0x20)\n      swap1\n    tag_448:\n      dup2\n      sload\n      dup2\n      mstore\n      swap1\n      0x01\n      add\n      swap1\n      0x20\n      add\n      dup1\n      dup4\n      gt\n      tag_448\n      jumpi\n      dup3\n      swap1\n      sub\n      0x1f\n      and\n      dup3\n      add\n      swap2\n    tag_446:\n      pop\n      pop\n      pop\n      pop\n      pop\n      dup2\n      mstore\n      0x20\n      add\n      0x02\n      dup3\n      add\n      sload\n      dup2\n      mstore\n      0x20\n      add\n      0x03\n      dup3\n      add\n      sload\n      dup2\n      mstore\n      pop\n      pop\n      swap1\n      pop\n        /* \"credits.sol\":4822:5030  function getCourseInfo(uint256 courseId)external returns(CourserInfo memory){... */\n      swap2\n      swap1\n      pop\n      jump\t// out\n        /* \"credits.sol\":9540:9842  function Requests(address stuAddr, uint256 num) external {... */\n    tag_143:\n      sub(shl(0xa0, 0x01), 0x01)\n        /* \"credits.sol\":9607:9634  requestOfMechanism[stuAddr] */\n      dup3\n      dup2\n      and\n      0x00\n      swap1\n      dup2\n      mstore\n        /* \"credits.sol\":9607:9625  requestOfMechanism */\n      0x02\n        /* \"credits.sol\":9607:9634  requestOfMechanism[stuAddr] */\n      0x20\n      dup2\n      dup2\n      mstore\n      0x40\n      dup1\n      dup5\n      keccak256\n        /* \"credits.sol\":9640:9787  Request({... */\n      dup2\n      mload\n      0x80\n      dup2\n      add\n      dup4\n      mstore\n        /* \"credits.sol\":9666:9682  requestIdCounter */\n      0x0d\n      dup1\n      sload\n        /* \"credits.sol\":9640:9787  Request({... */\n      dup3\n      mstore\n        /* \"credits.sol\":9707:9717  msg.sender */\n      caller\n        /* \"credits.sol\":9640:9787  Request({... */\n      dup3\n      dup7\n      add\n      swap1\n      dup2\n      mstore\n      swap4\n      dup3\n      add\n      dup10\n      dup2\n      mstore\n      0x60\n      dup4\n      add\n      dup9\n      dup2\n      mstore\n        /* \"credits.sol\":9607:9788  requestOfMechanism[stuAddr].push(Request({... */\n      dup5\n      sload\n        /* \"credits.sol\":9640:9787  Request({... */\n      0x01\n        /* \"credits.sol\":9607:9788  requestOfMechanism[stuAddr].push(Request({... */\n      dup1\n      dup3\n      add\n      dup8\n      sstore\n      swap6\n      dup11\n      mstore\n      swap7\n      dup10\n      keccak256\n      swap4\n      mload\n      0x04\n      swap1\n      swap8\n      mul\n      swap1\n      swap4\n      add\n      swap6\n      dup7\n      sstore\n      swap4\n      mload\n      swap3\n      dup6\n      add\n      dup1\n      sload\n      not(sub(shl(0xa0, 0x01), 0x01))\n      and\n      swap4\n      swap1\n      swap9\n      and\n      swap3\n      swap1\n      swap3\n      or\n      swap1\n      swap7\n      sstore\n      swap1\n      mload\n      swap3\n      dup3\n      add\n      swap3\n      swap1\n      swap3\n      sstore\n      swap3\n      mload\n      0x03\n      swap1\n      swap4\n      add\n      dup1\n      sload\n      not(0xff)\n      and\n      swap4\n      iszero\n      iszero\n      swap4\n      swap1\n      swap4\n      or\n      swap1\n      swap3\n      sstore\n        /* \"credits.sol\":9798:9816  requestIdCounter++ */\n      dup2\n      sload\n      swap2\n        /* \"credits.sol\":9666:9682  requestIdCounter */\n      swap1\n        /* \"credits.sol\":9798:9816  requestIdCounter++ */\n      tag_451\n      dup4\n      tag_237\n      jump\t// in\n    tag_451:\n      swap2\n      swap1\n      pop\n      sstore\n      pop\n        /* \"credits.sol\":9540:9842  function Requests(address stuAddr, uint256 num) external {... */\n      pop\n      pop\n      jump\t// out\n        /* \"credits.sol\":14254:14498  function getCreditTransfersOfStudent(address student) external  view returns (CreditTransfer[] memory) {... */\n    tag_146:\n        /* \"credits.sol\":14332:14355  CreditTransfer[] memory */\n      0x60\n      sub(shl(0xa0, 0x01), 0x01)\n        /* \"credits.sol\":14389:14410  student != address(0) */\n      dup3\n      and\n        /* \"credits.sol\":14381:14438  require(student != address(0), \"Invalid student address\") */\n      tag_453\n      jumpi\n      mload(0x40)\n      shl(0xe5, 0x461bcd)\n      dup2\n      mstore\n        /* \"#utility.yul\":21943:21945   */\n      0x20\n        /* \"credits.sol\":14381:14438  require(student != address(0), \"Invalid student address\") */\n      0x04\n      dup3\n      add\n        /* \"#utility.yul\":21925:21946   */\n      mstore\n        /* \"#utility.yul\":21982:21984   */\n      0x17\n        /* \"#utility.yul\":21962:21980   */\n      0x24\n      dup3\n      add\n        /* \"#utility.yul\":21955:21985   */\n      mstore\n        /* \"#utility.yul\":22021:22046   */\n      0x496e76616c69642073747564656e742061646472657373000000000000000000\n        /* \"#utility.yul\":22001:22019   */\n      0x44\n      dup3\n      add\n        /* \"#utility.yul\":21994:22047   */\n      mstore\n        /* \"#utility.yul\":22064:22082   */\n      0x64\n      add\n        /* \"credits.sol\":14381:14438  require(student != address(0), \"Invalid student address\") */\n      tag_240\n        /* \"#utility.yul\":21741:22088   */\n      jump\n        /* \"credits.sol\":14381:14438  require(student != address(0), \"Invalid student address\") */\n    tag_453:\n      sub(shl(0xa0, 0x01), 0x01)\n        /* \"credits.sol\":14460:14491  creditTransferRequests[student] */\n      dup3\n      and\n      0x00\n      swap1\n      dup2\n      mstore\n        /* \"credits.sol\":14460:14482  creditTransferRequests */\n      0x0b\n        /* \"credits.sol\":14460:14491  creditTransferRequests[student] */\n      0x20\n      swap1\n      dup2\n      mstore\n      0x40\n      dup1\n      dup4\n      keccak256\n        /* \"credits.sol\":14453:14491  return creditTransferRequests[student] */\n      dup1\n      sload\n      dup3\n      mload\n      dup2\n      dup6\n      mul\n      dup2\n      add\n      dup6\n      add\n      swap1\n      swap4\n      mstore\n      dup1\n      dup4\n      mstore\n      swap2\n      swap4\n        /* \"credits.sol\":14460:14491  creditTransferRequests[student] */\n      swap1\n      swap3\n        /* \"credits.sol\":14453:14491  return creditTransferRequests[student] */\n      dup5\n      add\n    tag_456:\n      dup3\n      dup3\n      lt\n      iszero\n      tag_457\n      jumpi\n      0x00\n      dup5\n      dup2\n      mstore\n      0x20\n      swap1\n      dup2\n      swap1\n      keccak256\n      0x40\n      dup1\n      mload\n      0xc0\n      dup2\n      add\n      dup3\n      mstore\n      0x05\n      dup7\n      mul\n      swap1\n      swap3\n      add\n      dup1\n      sload\n      sub(shl(0xa0, 0x01), 0x01)\n      and\n      dup4\n      mstore\n      0x01\n      dup2\n      add\n      sload\n      swap4\n      dup4\n      add\n      swap4\n      swap1\n      swap4\n      mstore\n      0x02\n      dup4\n      add\n      dup1\n      sload\n      swap3\n      swap4\n      swap3\n      swap2\n      dup5\n      add\n      swap2\n      tag_459\n      swap1\n      tag_229\n      jump\t// in\n    tag_459:\n      dup1\n      0x1f\n      add\n      0x20\n      dup1\n      swap2\n      div\n      mul\n      0x20\n      add\n      mload(0x40)\n      swap1\n      dup2\n      add\n      0x40\n      mstore\n      dup1\n      swap3\n      swap2\n      swap1\n      dup2\n      dup2\n      mstore\n      0x20\n      add\n      dup3\n      dup1\n      sload\n      tag_460\n      swap1\n      tag_229\n      jump\t// in\n    tag_460:\n      dup1\n      iszero\n      tag_461\n      jumpi\n      dup1\n      0x1f\n      lt\n      tag_462\n      jumpi\n      0x0100\n      dup1\n      dup4\n      sload\n      div\n      mul\n      dup4\n      mstore\n      swap2\n      0x20\n      add\n      swap2\n      jump(tag_461)\n    tag_462:\n      dup3\n      add\n      swap2\n      swap1\n      0x00\n      mstore\n      keccak256(0x00, 0x20)\n      swap1\n    tag_463:\n      dup2\n      sload\n      dup2\n      mstore\n      swap1\n      0x01\n      add\n      swap1\n      0x20\n      add\n      dup1\n      dup4\n      gt\n      tag_463\n      jumpi\n      dup3\n      swap1\n      sub\n      0x1f\n      and\n      dup3\n      add\n      swap2\n    tag_461:\n      pop\n      pop\n      pop\n      swap2\n      dup4\n      mstore\n      pop\n      pop\n      0x03\n      dup3\n      add\n      sload\n      0xff\n      dup1\n      dup3\n      and\n      iszero\n      iszero\n      0x20\n      dup1\n      dup6\n      add\n      swap2\n      swap1\n      swap2\n      mstore\n      0x0100\n      swap1\n      swap3\n      div\n      and\n      iszero\n      iszero\n      0x40\n      dup4\n      add\n      mstore\n      0x04\n      swap1\n      swap3\n      add\n      sload\n      0x60\n      swap1\n      swap2\n      add\n      mstore\n      swap1\n      dup3\n      mstore\n      0x01\n      swap3\n      swap1\n      swap3\n      add\n      swap2\n      add\n      jump(tag_456)\n    tag_457:\n      pop\n      pop\n      pop\n      pop\n      swap1\n      pop\n        /* \"credits.sol\":14254:14498  function getCreditTransfersOfStudent(address student) external  view returns (CreditTransfer[] memory) {... */\n      swap2\n      swap1\n      pop\n      jump\t// out\n        /* \"credits.sol\":3130:3178  mapping (uint256=>CourserInfo)public courserInfo */\n    tag_150:\n      mstore(0x20, 0x03)\n      0x00\n      swap1\n      dup2\n      mstore\n      0x40\n      swap1\n      keccak256\n      dup1\n      sload\n      0x01\n      dup3\n      add\n      dup1\n      sload\n      swap2\n      swap3\n      swap2\n      tag_464\n      swap1\n      tag_229\n      jump\t// in\n    tag_464:\n      dup1\n      0x1f\n      add\n      0x20\n      dup1\n      swap2\n      div\n      mul\n      0x20\n      add\n      mload(0x40)\n      swap1\n      dup2\n      add\n      0x40\n      mstore\n      dup1\n      swap3\n      swap2\n      swap1\n      dup2\n      dup2\n      mstore\n      0x20\n      add\n      dup3\n      dup1\n      sload\n      tag_465\n      swap1\n      tag_229\n      jump\t// in\n    tag_465:\n      dup1\n      iszero\n      tag_466\n      jumpi\n      dup1\n      0x1f\n      lt\n      tag_467\n      jumpi\n      0x0100\n      dup1\n      dup4\n      sload\n      div\n      mul\n      dup4\n      mstore\n      swap2\n      0x20\n      add\n      swap2\n      jump(tag_466)\n    tag_467:\n      dup3\n      add\n      swap2\n      swap1\n      0x00\n      mstore\n      keccak256(0x00, 0x20)\n      swap1\n    tag_468:\n      dup2\n      sload\n      dup2\n      mstore\n      swap1\n      0x01\n      add\n      swap1\n      0x20\n      add\n      dup1\n      dup4\n      gt\n      tag_468\n      jumpi\n      dup3\n      swap1\n      sub\n      0x1f\n      and\n      dup3\n      add\n      swap2\n    tag_466:\n      pop\n      pop\n      pop\n      pop\n      pop\n      swap1\n      dup1\n      0x02\n      add\n      sload\n      swap1\n      dup1\n      0x03\n      add\n      sload\n      swap1\n      pop\n      dup5\n      jump\t// out\n        /* \"credits.sol\":10077:10964  function modifyCredit(address student, uint256 courseId,  uint256 newScore) external  onlyTeacher {... */\n    tag_155:\n        /* \"credits.sol\":4003:4013  msg.sender */\n      caller\n        /* \"credits.sol\":3994:4014  teachers[msg.sender] */\n      0x00\n      swap1\n      dup2\n      mstore\n        /* \"credits.sol\":3994:4002  teachers */\n      0x06\n        /* \"credits.sol\":3994:4014  teachers[msg.sender] */\n      0x20\n      mstore\n      0x40\n      swap1\n      keccak256\n      sload\n      0xff\n      and\n        /* \"credits.sol\":3986:4032  require(teachers[msg.sender], \"Not a teacher\") */\n      tag_470\n      jumpi\n      mload(0x40)\n      shl(0xe5, 0x461bcd)\n      dup2\n      mstore\n        /* \"#utility.yul\":22295:22297   */\n      0x20\n        /* \"credits.sol\":3986:4032  require(teachers[msg.sender], \"Not a teacher\") */\n      0x04\n      dup3\n      add\n        /* \"#utility.yul\":22277:22298   */\n      mstore\n        /* \"#utility.yul\":22334:22336   */\n      0x0d\n        /* \"#utility.yul\":22314:22332   */\n      0x24\n      dup3\n      add\n        /* \"#utility.yul\":22307:22337   */\n      mstore\n      shl(0x99, 0x2737ba1030903a32b0b1b432b9)\n        /* \"#utility.yul\":22353:22371   */\n      0x44\n      dup3\n      add\n        /* \"#utility.yul\":22346:22389   */\n      mstore\n        /* \"#utility.yul\":22406:22424   */\n      0x64\n      add\n        /* \"credits.sol\":3986:4032  require(teachers[msg.sender], \"Not a teacher\") */\n      tag_240\n        /* \"#utility.yul\":22093:22430   */\n      jump\n        /* \"credits.sol\":3986:4032  require(teachers[msg.sender], \"Not a teacher\") */\n    tag_470:\n      sub(shl(0xa0, 0x01), 0x01)\n        /* \"credits.sol\":10207:10230  studentCredits[student] */\n      dup4\n      and\n      0x00\n      swap1\n      dup2\n      mstore\n        /* \"credits.sol\":10207:10221  studentCredits */\n      0x04\n        /* \"credits.sol\":10207:10230  studentCredits[student] */\n      0x20\n      swap1\n      dup2\n      mstore\n      0x40\n      dup1\n      dup4\n      keccak256\n        /* \"credits.sol\":10207:10240  studentCredits[student][courseId] */\n      dup6\n      dup5\n      mstore\n      swap1\n      swap2\n      mstore\n      dup2\n      keccak256\n        /* \"credits.sol\":10207:10250  studentCredits[student][courseId].issueDate */\n      0x03\n      add\n      sload\n        /* \"credits.sol\":10207:10255  studentCredits[student][courseId].issueDate != 0 */\n      swap1\n      sub\n        /* \"credits.sol\":10199:10281  require(studentCredits[student][courseId].issueDate != 0, \"Credit does not exist\") */\n      tag_474\n      jumpi\n      mload(0x40)\n      shl(0xe5, 0x461bcd)\n      dup2\n      mstore\n      0x04\n      add\n      tag_240\n      swap1\n      tag_252\n      jump\t// in\n    tag_474:\n      sub(shl(0xa0, 0x01), 0x01)\n        /* \"credits.sol\":10304:10323  student!=address(0) */\n      dup4\n      and\n        /* \"credits.sol\":10296:10342  require(student!=address(0),\"Invalid address\") */\n      tag_476\n      jumpi\n      mload(0x40)\n      shl(0xe5, 0x461bcd)\n      dup2\n      mstore\n      0x04\n      add\n      tag_240\n      swap1\n      tag_267\n      jump\t// in\n    tag_476:\n      sub(shl(0xa0, 0x01), 0x01)\n        /* \"credits.sol\":10423:10446  studentCredits[student] */\n      dup4\n      and\n      0x00\n      swap1\n      dup2\n      mstore\n        /* \"credits.sol\":10423:10437  studentCredits */\n      0x04\n        /* \"credits.sol\":10423:10446  studentCredits[student] */\n      0x20\n      swap1\n      dup2\n      mstore\n      0x40\n      dup1\n      dup4\n      keccak256\n        /* \"credits.sol\":10423:10456  studentCredits[student][courseId] */\n      dup6\n      dup5\n      mstore\n      swap1\n      swap2\n      mstore\n      swap1\n      keccak256\n        /* \"credits.sol\":10423:10466  studentCredits[student][courseId].isRevoked */\n      0x06\n      add\n      sload\n      0xff\n      and\n        /* \"credits.sol\":10422:10466  !studentCredits[student][courseId].isRevoked */\n      iszero\n        /* \"credits.sol\":10414:10493  require(!studentCredits[student][courseId].isRevoked, \"Credit already revoked\") */\n      tag_480\n      jumpi\n      mload(0x40)\n      shl(0xe5, 0x461bcd)\n      dup2\n      mstore\n      0x04\n      add\n      tag_240\n      swap1\n      tag_258\n      jump\t// in\n    tag_480:\n      sub(shl(0xa0, 0x01), 0x01)\n        /* \"credits.sol\":10520:10543  studentCredits[student] */\n      dup4\n      and\n        /* \"credits.sol\":10508:10519  uint256 num */\n      0x00\n        /* \"credits.sol\":10520:10543  studentCredits[student] */\n      swap1\n      dup2\n      mstore\n        /* \"credits.sol\":10520:10534  studentCredits */\n      0x04\n        /* \"credits.sol\":10520:10543  studentCredits[student] */\n      0x20\n      swap1\n      dup2\n      mstore\n      0x40\n      dup1\n      dup4\n      keccak256\n        /* \"credits.sol\":10520:10553  studentCredits[student][courseId] */\n      dup6\n      dup5\n      mstore\n      swap1\n      swap2\n      mstore\n      dup2\n      keccak256\n        /* \"credits.sol\":10520:10563  studentCredits[student][courseId].modifyNum */\n      0x05\n      add\n      sload\n        /* \"credits.sol\":10520:10565  studentCredits[student][courseId].modifyNum+1 */\n      tag_482\n      swap1\n        /* \"credits.sol\":10564:10565  1 */\n      0x01\n        /* \"credits.sol\":10520:10565  studentCredits[student][courseId].modifyNum+1 */\n      tag_205\n      jump\t// in\n    tag_482:\n        /* \"credits.sol\":10579:10597  uint256 newCredits */\n      0x00\n        /* \"credits.sol\":10607:10628  courserInfo[courseId] */\n      dup5\n      dup2\n      mstore\n        /* \"credits.sol\":10607:10618  courserInfo */\n      0x03\n        /* \"credits.sol\":10607:10628  courserInfo[courseId] */\n      0x20\n      mstore\n      0x40\n      dup2\n      keccak256\n        /* \"credits.sol\":10607:10636  courserInfo[courseId].credits */\n      0x02\n      add\n      sload\n        /* \"credits.sol\":10508:10565  uint256 num=studentCredits[student][courseId].modifyNum+1 */\n      swap2\n      swap3\n      pop\n        /* \"credits.sol\":10579:10597  uint256 newCredits */\n      swap1\n        /* \"credits.sol\":10598:10636  newScore*courserInfo[courseId].credits */\n      tag_483\n      swap1\n        /* \"credits.sol\":10598:10606  newScore */\n      dup5\n        /* \"credits.sol\":10598:10636  newScore*courserInfo[courseId].credits */\n      tag_340\n      jump\t// in\n    tag_483:\n      sub(shl(0xa0, 0x01), 0x01)\n        /* \"credits.sol\":10715:10738  studentCredits[student] */\n      swap6\n      swap1\n      swap6\n      and\n      0x00\n      swap1\n      dup2\n      mstore\n        /* \"credits.sol\":10715:10729  studentCredits */\n      0x04\n        /* \"credits.sol\":10715:10738  studentCredits[student] */\n      0x20\n      dup2\n      dup2\n      mstore\n      0x40\n      dup1\n      dup5\n      keccak256\n        /* \"credits.sol\":10715:10748  studentCredits[student][courseId] */\n      swap8\n      dup5\n      mstore\n      swap7\n      swap1\n      mstore\n      swap5\n      swap1\n      keccak256\n        /* \"credits.sol\":10715:10756  studentCredits[student][courseId].credits */\n      0x01\n      dup1\n      dup3\n      add\n        /* \"credits.sol\":10715:10767  studentCredits[student][courseId].credits=newCredits */\n      swap7\n      swap1\n      swap7\n      sstore\n        /* \"credits.sol\":10781:10824  studentCredits[student][courseId].modifyNum */\n      0x05\n      dup2\n      add\n        /* \"credits.sol\":10781:10828  studentCredits[student][courseId].modifyNum=num */\n      swap3\n      swap1\n      swap3\n      sstore\n      pop\n        /* \"credits.sol\":10842:10881  studentCredits[student][courseId].score */\n      0x02\n      dup2\n      add\n        /* \"credits.sol\":10842:10890  studentCredits[student][courseId].score=newScore */\n      swap2\n      swap1\n      swap2\n      sstore\n        /* \"credits.sol\":10904:10948  studentCredits[student][courseId].isModified */\n      add\n        /* \"credits.sol\":10904:10953  studentCredits[student][courseId].isModified=true */\n      dup1\n      sload\n      not(0xff)\n      and\n      swap1\n      swap2\n      or\n      swap1\n      sstore\n        /* \"credits.sol\":10077:10964  function modifyCredit(address student, uint256 courseId,  uint256 newScore) external  onlyTeacher {... */\n      jump\t// out\n        /* \"credits.sol\":3034:3088  mapping (address =>Request[])public requestOfMechanism */\n    tag_158:\n      mstore(0x20, 0x02)\n      dup2\n      0x00\n      mstore\n      keccak256(0x00, 0x40)\n      dup2\n      dup2\n      sload\n      dup2\n      lt\n      tag_484\n      jumpi\n      0x00\n      dup1\n      revert\n    tag_484:\n      0x00\n      swap2\n      dup3\n      mstore\n      0x20\n      swap1\n      swap2\n      keccak256\n      0x04\n      swap1\n      swap2\n      mul\n      add\n      dup1\n      sload\n      0x01\n      dup3\n      add\n      sload\n      0x02\n      dup4\n      add\n      sload\n      0x03\n      swap1\n      swap4\n      add\n      sload\n      swap2\n      swap5\n      pop\n      sub(shl(0xa0, 0x01), 0x01)\n      and\n      swap3\n      pop\n      0xff\n      and\n      dup5\n      jump\t// out\n        /* \"credits.sol\":13459:14209  function executeCreditTransfer(address student, uint index) external {... */\n    tag_163:\n        /* \"credits.sol\":13562:13568  _owner */\n      and(sub(shl(0xa0, 0x01), 0x01), sload(0x00))\n        /* \"credits.sol\":13550:13560  msg.sender */\n      caller\n        /* \"credits.sol\":13550:13568  msg.sender==_owner */\n      eq\n      dup1\n        /* \"credits.sol\":13550:13595  msg.sender==_owner||isAdmin[msg.sender]==true */\n      tag_487\n      jumpi\n      pop\n        /* \"credits.sol\":13578:13588  msg.sender */\n      caller\n        /* \"credits.sol\":13570:13589  isAdmin[msg.sender] */\n      0x00\n      swap1\n      dup2\n      mstore\n        /* \"credits.sol\":13570:13577  isAdmin */\n      0x01\n        /* \"credits.sol\":13570:13589  isAdmin[msg.sender] */\n      0x20\n      dup2\n      swap1\n      mstore\n      0x40\n      swap1\n      swap2\n      keccak256\n      sload\n      0xff\n      and\n        /* \"credits.sol\":13570:13595  isAdmin[msg.sender]==true */\n      iszero\n      iszero\n      eq\n        /* \"credits.sol\":13550:13595  msg.sender==_owner||isAdmin[msg.sender]==true */\n    tag_487:\n        /* \"credits.sol\":13542:13638  require(msg.sender==_owner||isAdmin[msg.sender]==true,\"only topadmin or admin can call execute\") */\n      tag_488\n      jumpi\n      mload(0x40)\n      shl(0xe5, 0x461bcd)\n      dup2\n      mstore\n        /* \"#utility.yul\":22637:22639   */\n      0x20\n        /* \"credits.sol\":13542:13638  require(msg.sender==_owner||isAdmin[msg.sender]==true,\"only topadmin or admin can call execute\") */\n      0x04\n      dup3\n      add\n        /* \"#utility.yul\":22619:22640   */\n      mstore\n        /* \"#utility.yul\":22676:22678   */\n      0x27\n        /* \"#utility.yul\":22656:22674   */\n      0x24\n      dup3\n      add\n        /* \"#utility.yul\":22649:22679   */\n      mstore\n      0x00\n      dup1\n      mload\n      0x20\n      data_3a8ed4189e30c6abc26df6d93d70a72c91c7816be8f5bac91038d7c02353b33e\n      dup4\n      codecopy\n      dup2\n      mload\n      swap2\n      mstore\n        /* \"#utility.yul\":22695:22713   */\n      0x44\n      dup3\n      add\n        /* \"#utility.yul\":22688:22750   */\n      mstore\n      shl(0xc8, 0x65786563757465)\n        /* \"#utility.yul\":22766:22784   */\n      0x64\n      dup3\n      add\n        /* \"#utility.yul\":22759:22796   */\n      mstore\n        /* \"#utility.yul\":22813:22832   */\n      0x84\n      add\n        /* \"credits.sol\":13542:13638  require(msg.sender==_owner||isAdmin[msg.sender]==true,\"only topadmin or admin can call execute\") */\n      tag_240\n        /* \"#utility.yul\":22435:22838   */\n      jump\n        /* \"credits.sol\":13542:13638  require(msg.sender==_owner||isAdmin[msg.sender]==true,\"only topadmin or admin can call execute\") */\n    tag_488:\n      sub(shl(0xa0, 0x01), 0x01)\n        /* \"credits.sol\":13673:13704  creditTransferRequests[student] */\n      dup3\n      and\n      0x00\n      swap1\n      dup2\n      mstore\n        /* \"credits.sol\":13673:13695  creditTransferRequests */\n      0x0b\n        /* \"credits.sol\":13673:13704  creditTransferRequests[student] */\n      0x20\n      mstore\n      0x40\n      swap1\n      keccak256\n        /* \"credits.sol\":13673:13711  creditTransferRequests[student][index] */\n      dup1\n      sload\n        /* \"credits.sol\":13705:13710  index */\n      dup3\n      swap1\n        /* \"credits.sol\":13673:13711  creditTransferRequests[student][index] */\n      dup2\n      lt\n      tag_492\n      jumpi\n      tag_492\n      tag_202\n      jump\t// in\n    tag_492:\n      0x00\n      swap2\n      dup3\n      mstore\n      0x20\n      swap1\n      swap2\n      keccak256\n        /* \"credits.sol\":13673:13722  creditTransferRequests[student][index].isApproved */\n      0x03\n        /* \"credits.sol\":13673:13711  creditTransferRequests[student][index] */\n      0x05\n      swap1\n      swap3\n      mul\n      add\n        /* \"credits.sol\":13673:13722  creditTransferRequests[student][index].isApproved */\n      add\n      sload\n      0xff\n      and\n        /* \"credits.sol\":13665:13748  require(creditTransferRequests[student][index].isApproved, \"Transfer not approved\") */\n      tag_494\n      jumpi\n      mload(0x40)\n      shl(0xe5, 0x461bcd)\n      dup2\n      mstore\n        /* \"#utility.yul\":23045:23047   */\n      0x20\n        /* \"credits.sol\":13665:13748  require(creditTransferRequests[student][index].isApproved, \"Transfer not approved\") */\n      0x04\n      dup3\n      add\n        /* \"#utility.yul\":23027:23048   */\n      mstore\n        /* \"#utility.yul\":23084:23086   */\n      0x15\n        /* \"#utility.yul\":23064:23082   */\n      0x24\n      dup3\n      add\n        /* \"#utility.yul\":23057:23087   */\n      mstore\n      shl(0x5a, 0x151c985b9cd9995c881b9bdd08185c1c1c9bdd9959)\n        /* \"#utility.yul\":23103:23121   */\n      0x44\n      dup3\n      add\n        /* \"#utility.yul\":23096:23147   */\n      mstore\n        /* \"#utility.yul\":23164:23182   */\n      0x64\n      add\n        /* \"credits.sol\":13665:13748  require(creditTransferRequests[student][index].isApproved, \"Transfer not approved\") */\n      tag_240\n        /* \"#utility.yul\":22843:23188   */\n      jump\n        /* \"credits.sol\":13665:13748  require(creditTransferRequests[student][index].isApproved, \"Transfer not approved\") */\n    tag_494:\n      sub(shl(0xa0, 0x01), 0x01)\n        /* \"credits.sol\":13772:13803  creditTransferRequests[student] */\n      dup3\n      and\n      0x00\n      swap1\n      dup2\n      mstore\n        /* \"credits.sol\":13772:13794  creditTransferRequests */\n      0x0b\n        /* \"credits.sol\":13772:13803  creditTransferRequests[student] */\n      0x20\n      mstore\n      0x40\n      swap1\n      keccak256\n        /* \"credits.sol\":13772:13810  creditTransferRequests[student][index] */\n      dup1\n      sload\n        /* \"credits.sol\":13804:13809  index */\n      dup3\n      swap1\n        /* \"credits.sol\":13772:13810  creditTransferRequests[student][index] */\n      dup2\n      lt\n      tag_498\n      jumpi\n      tag_498\n      tag_202\n      jump\t// in\n    tag_498:\n      swap1\n      0x00\n      mstore\n      keccak256(0x00, 0x20)\n      swap1\n      0x05\n      mul\n      add\n        /* \"credits.sol\":13772:13821  creditTransferRequests[student][index].isExecuted */\n      0x03\n      add\n      0x01\n      swap1\n      sload\n      swap1\n      0x0100\n      exp\n      swap1\n      div\n      0xff\n      and\n        /* \"credits.sol\":13771:13821  !creditTransferRequests[student][index].isExecuted */\n      iszero\n        /* \"credits.sol\":13763:13851  require(!creditTransferRequests[student][index].isExecuted, \"Transfer already executed\") */\n      tag_500\n      jumpi\n      mload(0x40)\n      shl(0xe5, 0x461bcd)\n      dup2\n      mstore\n        /* \"#utility.yul\":23395:23397   */\n      0x20\n        /* \"credits.sol\":13763:13851  require(!creditTransferRequests[student][index].isExecuted, \"Transfer already executed\") */\n      0x04\n      dup3\n      add\n        /* \"#utility.yul\":23377:23398   */\n      mstore\n        /* \"#utility.yul\":23434:23436   */\n      0x19\n        /* \"#utility.yul\":23414:23432   */\n      0x24\n      dup3\n      add\n        /* \"#utility.yul\":23407:23437   */\n      mstore\n        /* \"#utility.yul\":23473:23500   */\n      0x5472616e7366657220616c726561647920657865637574656400000000000000\n        /* \"#utility.yul\":23453:23471   */\n      0x44\n      dup3\n      add\n        /* \"#utility.yul\":23446:23501   */\n      mstore\n        /* \"#utility.yul\":23518:23536   */\n      0x64\n      add\n        /* \"credits.sol\":13763:13851  require(!creditTransferRequests[student][index].isExecuted, \"Transfer already executed\") */\n      tag_240\n        /* \"#utility.yul\":23193:23542   */\n      jump\n        /* \"credits.sol\":13763:13851  require(!creditTransferRequests[student][index].isExecuted, \"Transfer already executed\") */\n    tag_500:\n      sub(shl(0xa0, 0x01), 0x01)\n        /* \"credits.sol\":13957:13988  creditTransferRequests[student] */\n      dup3\n      and\n      0x00\n      swap1\n      dup2\n      mstore\n        /* \"credits.sol\":13957:13979  creditTransferRequests */\n      0x0b\n        /* \"credits.sol\":13957:13988  creditTransferRequests[student] */\n      0x20\n      mstore\n      0x40\n      swap1\n      keccak256\n        /* \"credits.sol\":13957:13995  creditTransferRequests[student][index] */\n      dup1\n      sload\n        /* \"credits.sol\":13989:13994  index */\n      dup3\n      swap1\n        /* \"credits.sol\":13957:13995  creditTransferRequests[student][index] */\n      dup2\n      lt\n      tag_504\n      jumpi\n      tag_504\n      tag_202\n      jump\t// in\n    tag_504:\n      0x00\n      swap2\n      dup3\n      mstore\n      0x20\n      dup1\n      dup4\n      keccak256\n      sub(shl(0xa0, 0x01), 0x01)\n        /* \"credits.sol\":13866:13889  studentCredits[student] */\n      dup7\n      and\n      dup5\n      mstore\n        /* \"credits.sol\":13866:13880  studentCredits */\n      0x04\n        /* \"credits.sol\":13866:13889  studentCredits[student] */\n      dup3\n      mstore\n      0x40\n      dup1\n      dup6\n      keccak256\n        /* \"credits.sol\":13890:13912  creditTransferRequests */\n      0x0b\n        /* \"credits.sol\":13890:13921  creditTransferRequests[student] */\n      swap1\n      swap4\n      mstore\n      dup5\n      keccak256\n        /* \"credits.sol\":13890:13928  creditTransferRequests[student][index] */\n      dup1\n      sload\n        /* \"credits.sol\":13957:13995  creditTransferRequests[student][index] */\n      0x05\n      swap5\n      swap1\n      swap5\n      mul\n      swap1\n      swap2\n      add\n        /* \"credits.sol\":13957:14013  creditTransferRequests[student][index].targetInstitution */\n      0x02\n      add\n      swap4\n        /* \"credits.sol\":13866:13889  studentCredits[student] */\n      swap2\n      swap3\n        /* \"credits.sol\":13922:13927  index */\n      dup6\n      swap1\n        /* \"credits.sol\":13890:13928  creditTransferRequests[student][index] */\n      dup2\n      lt\n      tag_507\n      jumpi\n      tag_507\n      tag_202\n      jump\t// in\n    tag_507:\n      swap1\n      0x00\n      mstore\n      keccak256(0x00, 0x20)\n      swap1\n      0x05\n      mul\n      add\n        /* \"credits.sol\":13890:13937  creditTransferRequests[student][index].courseId */\n      0x01\n      add\n      sload\n        /* \"credits.sol\":13866:13938  studentCredits[student][creditTransferRequests[student][index].courseId] */\n      dup2\n      mstore\n      0x20\n      add\n      swap1\n      dup2\n      mstore\n      0x20\n      add\n      0x00\n      keccak256\n        /* \"credits.sol\":13866:13956  studentCredits[student][creditTransferRequests[student][index].courseId].targetInstitution */\n      0x09\n      add\n        /* \"credits.sol\":13866:14013  studentCredits[student][creditTransferRequests[student][index].courseId].targetInstitution=creditTransferRequests[student][index].targetInstitution */\n      swap1\n      dup2\n      tag_509\n      swap2\n      swap1\n      tag_510\n      jump\t// in\n    tag_509:\n      pop\n      sub(shl(0xa0, 0x01), 0x01)\n        /* \"credits.sol\":14040:14071  creditTransferRequests[student] */\n      dup3\n      and\n      0x00\n      swap1\n      dup2\n      mstore\n        /* \"credits.sol\":14040:14062  creditTransferRequests */\n      0x0b\n        /* \"credits.sol\":14040:14071  creditTransferRequests[student] */\n      0x20\n      mstore\n      0x40\n      swap1\n      keccak256\n        /* \"credits.sol\":14040:14078  creditTransferRequests[student][index] */\n      dup1\n      sload\n        /* \"credits.sol\":14092:14096  true */\n      0x01\n      swap2\n        /* \"credits.sol\":14040:14071  creditTransferRequests[student] */\n      swap1\n        /* \"credits.sol\":14072:14077  index */\n      dup4\n      swap1\n        /* \"credits.sol\":14040:14078  creditTransferRequests[student][index] */\n      dup2\n      lt\n      tag_512\n      jumpi\n      tag_512\n      tag_202\n      jump\t// in\n    tag_512:\n      0x00\n      swap2\n      dup3\n      mstore\n      0x20\n      dup1\n      dup4\n      keccak256\n        /* \"credits.sol\":14040:14089  creditTransferRequests[student][index].isExecuted */\n      0x03\n        /* \"credits.sol\":14040:14078  creditTransferRequests[student][index] */\n      0x05\n      swap1\n      swap4\n      mul\n      add\n        /* \"credits.sol\":14040:14089  creditTransferRequests[student][index].isExecuted */\n      swap2\n      swap1\n      swap2\n      add\n        /* \"credits.sol\":14040:14096  creditTransferRequests[student][index].isExecuted = true */\n      dup1\n      sload\n      swap4\n      iszero\n      iszero\n      0x0100\n      mul\n      not(0xff00)\n      swap1\n      swap5\n      and\n      swap4\n      swap1\n      swap4\n      or\n      swap1\n      swap3\n      sstore\n      sub(shl(0xa0, 0x01), 0x01)\n        /* \"credits.sol\":14111:14134  studentCredits[student] */\n      dup5\n      and\n      dup2\n      mstore\n        /* \"credits.sol\":14111:14125  studentCredits */\n      0x04\n        /* \"credits.sol\":14111:14134  studentCredits[student] */\n      dup3\n      mstore\n      0x40\n      dup1\n      dup3\n      keccak256\n        /* \"credits.sol\":14135:14157  creditTransferRequests */\n      0x0b\n        /* \"credits.sol\":14135:14166  creditTransferRequests[student] */\n      swap1\n      swap4\n      mstore\n      dup2\n      keccak256\n        /* \"credits.sol\":14135:14173  creditTransferRequests[student][index] */\n      dup1\n      sload\n        /* \"credits.sol\":14040:14089  creditTransferRequests[student][index].isExecuted */\n      0x01\n      swap4\n        /* \"credits.sol\":14111:14134  studentCredits[student] */\n      swap3\n        /* \"credits.sol\":14040:14078  creditTransferRequests[student][index] */\n      swap2\n        /* \"credits.sol\":14135:14166  creditTransferRequests[student] */\n      swap1\n        /* \"credits.sol\":14167:14172  index */\n      dup6\n      swap1\n        /* \"credits.sol\":14135:14173  creditTransferRequests[student][index] */\n      dup2\n      lt\n      tag_515\n      jumpi\n      tag_515\n      tag_202\n      jump\t// in\n    tag_515:\n      swap1\n      0x00\n      mstore\n      keccak256(0x00, 0x20)\n      swap1\n      0x05\n      mul\n      add\n        /* \"credits.sol\":14135:14182  creditTransferRequests[student][index].courseId */\n      0x01\n      add\n      sload\n        /* \"credits.sol\":14111:14183  studentCredits[student][creditTransferRequests[student][index].courseId] */\n      dup2\n      mstore\n      0x20\n      add\n      swap1\n      dup2\n      mstore\n      0x20\n      add\n      0x00\n      keccak256\n        /* \"credits.sol\":14111:14197  studentCredits[student][creditTransferRequests[student][index].courseId].isTransferred */\n      0x08\n      add\n      0x00\n        /* \"credits.sol\":14111:14202  studentCredits[student][creditTransferRequests[student][index].courseId].isTransferred=true */\n      0x0100\n      exp\n      dup2\n      sload\n      dup2\n      0xff\n      mul\n      not\n      and\n      swap1\n      dup4\n      iszero\n      iszero\n      mul\n      or\n      swap1\n      sstore\n      pop\n        /* \"credits.sol\":13459:14209  function executeCreditTransfer(address student, uint index) external {... */\n      pop\n      pop\n      jump\t// out\n        /* \"credits.sol\":4250:4783  function addCourse(uint256 courseId,uint256 credits,string memory courseName)external {... */\n    tag_167:\n        /* \"credits.sol\":4370:4376  _owner */\n      and(sub(shl(0xa0, 0x01), 0x01), sload(0x00))\n        /* \"credits.sol\":4358:4368  msg.sender */\n      caller\n        /* \"credits.sol\":4358:4376  msg.sender==_owner */\n      eq\n      dup1\n        /* \"credits.sol\":4358:4403  msg.sender==_owner||isAdmin[msg.sender]==true */\n      tag_518\n      jumpi\n      pop\n        /* \"credits.sol\":4386:4396  msg.sender */\n      caller\n        /* \"credits.sol\":4378:4397  isAdmin[msg.sender] */\n      0x00\n      swap1\n      dup2\n      mstore\n        /* \"credits.sol\":4378:4385  isAdmin */\n      0x01\n        /* \"credits.sol\":4378:4397  isAdmin[msg.sender] */\n      0x20\n      dup2\n      swap1\n      mstore\n      0x40\n      swap1\n      swap2\n      keccak256\n      sload\n      0xff\n      and\n        /* \"credits.sol\":4378:4403  isAdmin[msg.sender]==true */\n      iszero\n      iszero\n      eq\n        /* \"credits.sol\":4358:4403  msg.sender==_owner||isAdmin[msg.sender]==true */\n    tag_518:\n        /* \"credits.sol\":4350:4448  require(msg.sender==_owner||isAdmin[msg.sender]==true,\"only topadmin or admin can call addCourse\") */\n      tag_519\n      jumpi\n      mload(0x40)\n      shl(0xe5, 0x461bcd)\n      dup2\n      mstore\n        /* \"#utility.yul\":25181:25183   */\n      0x20\n        /* \"credits.sol\":4350:4448  require(msg.sender==_owner||isAdmin[msg.sender]==true,\"only topadmin or admin can call addCourse\") */\n      0x04\n      dup3\n      add\n        /* \"#utility.yul\":25163:25184   */\n      mstore\n        /* \"#utility.yul\":25220:25222   */\n      0x29\n        /* \"#utility.yul\":25200:25218   */\n      0x24\n      dup3\n      add\n        /* \"#utility.yul\":25193:25223   */\n      mstore\n      0x00\n      dup1\n      mload\n      0x20\n      data_3a8ed4189e30c6abc26df6d93d70a72c91c7816be8f5bac91038d7c02353b33e\n      dup4\n      codecopy\n      dup2\n      mload\n      swap2\n      mstore\n        /* \"#utility.yul\":25239:25257   */\n      0x44\n      dup3\n      add\n        /* \"#utility.yul\":25232:25294   */\n      mstore\n      shl(0xb8, 0x616464436f75727365)\n        /* \"#utility.yul\":25310:25328   */\n      0x64\n      dup3\n      add\n        /* \"#utility.yul\":25303:25342   */\n      mstore\n        /* \"#utility.yul\":25359:25378   */\n      0x84\n      add\n        /* \"credits.sol\":4350:4448  require(msg.sender==_owner||isAdmin[msg.sender]==true,\"only topadmin or admin can call addCourse\") */\n      tag_240\n        /* \"#utility.yul\":24979:25384   */\n      jump\n        /* \"credits.sol\":4350:4448  require(msg.sender==_owner||isAdmin[msg.sender]==true,\"only topadmin or admin can call addCourse\") */\n    tag_519:\n        /* \"credits.sol\":4471:4493  courseExists[courseId] */\n      0x00\n      dup4\n      dup2\n      mstore\n        /* \"credits.sol\":4471:4483  courseExists */\n      0x07\n        /* \"credits.sol\":4471:4493  courseExists[courseId] */\n      0x20\n      mstore\n      0x40\n      swap1\n      keccak256\n      sload\n      0xff\n      and\n        /* \"credits.sol\":4470:4493  !courseExists[courseId] */\n      iszero\n        /* \"credits.sol\":4462:4518  require(!courseExists[courseId],\"Course already exists\") */\n      tag_522\n      jumpi\n      mload(0x40)\n      shl(0xe5, 0x461bcd)\n      dup2\n      mstore\n        /* \"#utility.yul\":25591:25593   */\n      0x20\n        /* \"credits.sol\":4462:4518  require(!courseExists[courseId],\"Course already exists\") */\n      0x04\n      dup3\n      add\n        /* \"#utility.yul\":25573:25594   */\n      mstore\n        /* \"#utility.yul\":25630:25632   */\n      0x15\n        /* \"#utility.yul\":25610:25628   */\n      0x24\n      dup3\n      add\n        /* \"#utility.yul\":25603:25633   */\n      mstore\n      shl(0x58, 0x436f7572736520616c726561647920657869737473)\n        /* \"#utility.yul\":25649:25667   */\n      0x44\n      dup3\n      add\n        /* \"#utility.yul\":25642:25693   */\n      mstore\n        /* \"#utility.yul\":25710:25728   */\n      0x64\n      add\n        /* \"credits.sol\":4462:4518  require(!courseExists[courseId],\"Course already exists\") */\n      tag_240\n        /* \"#utility.yul\":25389:25734   */\n      jump\n        /* \"credits.sol\":4462:4518  require(!courseExists[courseId],\"Course already exists\") */\n    tag_522:\n        /* \"credits.sol\":4532:4554  courseExists[courseId] */\n      0x00\n      dup4\n      dup2\n      mstore\n        /* \"credits.sol\":4532:4544  courseExists */\n      0x07\n        /* \"credits.sol\":4532:4554  courseExists[courseId] */\n      0x20\n      swap1\n      dup2\n      mstore\n      0x40\n      dup1\n      dup4\n      keccak256\n        /* \"credits.sol\":4532:4559  courseExists[courseId]=true */\n      dup1\n      sload\n      not(0xff)\n      and\n        /* \"credits.sol\":4555:4559  true */\n      0x01\n        /* \"credits.sol\":4532:4559  courseExists[courseId]=true */\n      swap1\n      dup2\n      or\n      swap1\n      swap2\n      sstore\n        /* \"credits.sol\":4573:4584  courseLists */\n      0x09\n        /* \"credits.sol\":4573:4599  courseLists.push(courseId) */\n      dup1\n      sload\n      dup1\n      dup4\n      add\n      swap1\n      swap2\n      sstore\n      0x6e1540171b6c0c960b71a7020d9f60077f6af931a8bbf590da0223dacf75c7af\n      add\n      dup8\n      swap1\n      sstore\n        /* \"credits.sol\":4635:4772  CourserInfo(... */\n      dup2\n      mload\n      0x80\n      dup2\n      add\n      dup4\n      mstore\n      dup8\n      dup2\n      mstore\n      dup1\n      dup5\n      add\n      dup7\n      dup2\n      mstore\n      dup2\n      dup5\n      add\n      dup9\n      swap1\n      mstore\n        /* \"credits.sol\":4743:4758  block.timestamp */\n      timestamp\n        /* \"credits.sol\":4635:4772  CourserInfo(... */\n      0x60\n      dup4\n      add\n      mstore\n        /* \"credits.sol\":4613:4634  courserInfo[courseId] */\n      dup9\n      dup7\n      mstore\n        /* \"credits.sol\":4613:4624  courserInfo */\n      0x03\n        /* \"credits.sol\":4613:4634  courserInfo[courseId] */\n      swap1\n      swap5\n      mstore\n      swap2\n      swap1\n      swap4\n      keccak256\n        /* \"credits.sol\":4613:4772  courserInfo[courseId]=CourserInfo(... */\n      dup2\n      mload\n      dup2\n      sstore\n      swap2\n      mload\n        /* \"credits.sol\":4635:4772  CourserInfo(... */\n      swap1\n      swap3\n        /* \"credits.sol\":4613:4772  courserInfo[courseId]=CourserInfo(... */\n      dup3\n      add\n      swap1\n      tag_526\n      swap1\n      dup3\n      tag_342\n      jump\t// in\n    tag_526:\n      pop\n      0x40\n      dup3\n      add\n      mload\n      0x02\n      dup3\n      add\n      sstore\n      0x60\n      swap1\n      swap2\n      add\n      mload\n      0x03\n      swap1\n      swap2\n      add\n      sstore\n      pop\n      pop\n      pop\n        /* \"credits.sol\":4250:4783  function addCourse(uint256 courseId,uint256 credits,string memory courseName)external {... */\n      jump\t// out\n        /* \"credits.sol\":3624:3652  uint256[]public  courseLists */\n    tag_175:\n      0x09\n      dup2\n      dup2\n      sload\n      dup2\n      lt\n      tag_527\n      jumpi\n      0x00\n      dup1\n      revert\n    tag_527:\n      0x00\n      swap2\n      dup3\n      mstore\n      0x20\n      swap1\n      swap2\n      keccak256\n      add\n      sload\n      swap1\n      pop\n      dup2\n      jump\t// out\n        /* \"credits.sol\":3239:3304  mapping(address => mapping(uint => Credit)) public studentCredits */\n    tag_183:\n      0x04\n      0x20\n      dup2\n      dup2\n      mstore\n      0x00\n      swap4\n      dup5\n      mstore\n      0x40\n      dup1\n      dup6\n      keccak256\n      swap1\n      swap2\n      mstore\n      swap2\n      dup4\n      mstore\n      swap2\n      keccak256\n      dup1\n      sload\n      0x01\n      dup3\n      add\n      sload\n      0x02\n      dup4\n      add\n      sload\n      0x03\n      dup5\n      add\n      sload\n      swap5\n      dup5\n      add\n      sload\n      0x05\n      dup6\n      add\n      sload\n      0x06\n      dup7\n      add\n      sload\n      0x07\n      dup8\n      add\n      dup1\n      sload\n      swap7\n      swap9\n      swap6\n      swap8\n      swap5\n      swap7\n      0xff\n      swap5\n      dup6\n      and\n      swap6\n      swap4\n      swap5\n      swap1\n      swap3\n      and\n      swap3\n      swap2\n      tag_529\n      swap1\n      tag_229\n      jump\t// in\n    tag_529:\n      dup1\n      0x1f\n      add\n      0x20\n      dup1\n      swap2\n      div\n      mul\n      0x20\n      add\n      mload(0x40)\n      swap1\n      dup2\n      add\n      0x40\n      mstore\n      dup1\n      swap3\n      swap2\n      swap1\n      dup2\n      dup2\n      mstore\n      0x20\n      add\n      dup3\n      dup1\n      sload\n      tag_530\n      swap1\n      tag_229\n      jump\t// in\n    tag_530:\n      dup1\n      iszero\n      tag_531\n      jumpi\n      dup1\n      0x1f\n      lt\n      tag_532\n      jumpi\n      0x0100\n      dup1\n      dup4\n      sload\n      div\n      mul\n      dup4\n      mstore\n      swap2\n      0x20\n      add\n      swap2\n      jump(tag_531)\n    tag_532:\n      dup3\n      add\n      swap2\n      swap1\n      0x00\n      mstore\n      keccak256(0x00, 0x20)\n      swap1\n    tag_533:\n      dup2\n      sload\n      dup2\n      mstore\n      swap1\n      0x01\n      add\n      swap1\n      0x20\n      add\n      dup1\n      dup4\n      gt\n      tag_533\n      jumpi\n      dup3\n      swap1\n      sub\n      0x1f\n      and\n      dup3\n      add\n      swap2\n    tag_531:\n      pop\n      pop\n      pop\n      0x08\n      dup5\n      add\n      sload\n      0x09\n      dup6\n      add\n      dup1\n      sload\n      swap5\n      swap6\n      0xff\n      swap1\n      swap3\n      and\n      swap5\n      swap2\n      swap4\n      pop\n      swap2\n      pop\n      tag_534\n      swap1\n      tag_229\n      jump\t// in\n    tag_534:\n      dup1\n      0x1f\n      add\n      0x20\n      dup1\n      swap2\n      div\n      mul\n      0x20\n      add\n      mload(0x40)\n      swap1\n      dup2\n      add\n      0x40\n      mstore\n      dup1\n      swap3\n      swap2\n      swap1\n      dup2\n      dup2\n      mstore\n      0x20\n      add\n      dup3\n      dup1\n      sload\n      tag_535\n      swap1\n      tag_229\n      jump\t// in\n    tag_535:\n      dup1\n      iszero\n      tag_536\n      jumpi\n      dup1\n      0x1f\n      lt\n      tag_537\n      jumpi\n      0x0100\n      dup1\n      dup4\n      sload\n      div\n      mul\n      dup4\n      mstore\n      swap2\n      0x20\n      add\n      swap2\n      jump(tag_536)\n    tag_537:\n      dup3\n      add\n      swap2\n      swap1\n      0x00\n      mstore\n      keccak256(0x00, 0x20)\n      swap1\n    tag_538:\n      dup2\n      sload\n      dup2\n      mstore\n      swap1\n      0x01\n      add\n      swap1\n      0x20\n      add\n      dup1\n      dup4\n      gt\n      tag_538\n      jumpi\n      dup3\n      swap1\n      sub\n      0x1f\n      and\n      dup3\n      add\n      swap2\n    tag_536:\n      pop\n      pop\n      pop\n      pop\n      pop\n      swap1\n      pop\n      dup11\n      jump\t// out\n        /* \"credits.sol\":1385:1611  function transferOwnership(address newOwner) public virtual onlyOwner {... */\n    tag_188:\n        /* \"credits.sol\":1036:1042  _owner */\n      and(sub(shl(0xa0, 0x01), 0x01), sload(0x00))\n        /* \"credits.sol\":1046:1056  msg.sender */\n      caller\n        /* \"credits.sol\":1036:1056  _owner == msg.sender */\n      eq\n        /* \"credits.sol\":1028:1067  require(_owner == msg.sender, \"!owner\") */\n      tag_540\n      jumpi\n      mload(0x40)\n      shl(0xe5, 0x461bcd)\n      dup2\n      mstore\n      0x04\n      add\n      tag_240\n      swap1\n      tag_241\n      jump\t// in\n    tag_540:\n      sub(shl(0xa0, 0x01), 0x01)\n        /* \"credits.sol\":1477:1499  newOwner != address(0) */\n      dup2\n      and\n        /* \"credits.sol\":1469:1512  require(newOwner != address(0), \"new is 0\") */\n      tag_543\n      jumpi\n      mload(0x40)\n      shl(0xe5, 0x461bcd)\n      dup2\n      mstore\n        /* \"#utility.yul\":25941:25943   */\n      0x20\n        /* \"credits.sol\":1469:1512  require(newOwner != address(0), \"new is 0\") */\n      0x04\n      dup3\n      add\n        /* \"#utility.yul\":25923:25944   */\n      mstore\n        /* \"#utility.yul\":25980:25981   */\n      0x08\n        /* \"#utility.yul\":25960:25978   */\n      0x24\n      dup3\n      add\n        /* \"#utility.yul\":25953:25982   */\n      mstore\n      shl(0xc4, 0x06e6577206973203)\n        /* \"#utility.yul\":25998:26016   */\n      0x44\n      dup3\n      add\n        /* \"#utility.yul\":25991:26029   */\n      mstore\n        /* \"#utility.yul\":26046:26064   */\n      0x64\n      add\n        /* \"credits.sol\":1469:1512  require(newOwner != address(0), \"new is 0\") */\n      tag_240\n        /* \"#utility.yul\":25739:26070   */\n      jump\n        /* \"credits.sol\":1469:1512  require(newOwner != address(0), \"new is 0\") */\n    tag_543:\n        /* \"credits.sol\":1552:1558  _owner */\n      0x00\n      dup1\n      sload\n        /* \"credits.sol\":1531:1569  OwnershipTransferred(_owner, newOwner) */\n      mload(0x40)\n      sub(shl(0xa0, 0x01), 0x01)\n      dup1\n      dup6\n      and\n      swap4\n        /* \"credits.sol\":1552:1558  _owner */\n      swap3\n      and\n      swap2\n        /* \"credits.sol\":1531:1569  OwnershipTransferred(_owner, newOwner) */\n      0x8be0079c531659141344cd1fd0a4f28419497f9722a3daafe3b4186f6b6457e0\n      swap2\n      log3\n        /* \"credits.sol\":1583:1589  _owner */\n      0x00\n        /* \"credits.sol\":1583:1600  _owner = newOwner */\n      dup1\n      sload\n      not(sub(shl(0xa0, 0x01), 0x01))\n      and\n      sub(shl(0xa0, 0x01), 0x01)\n      swap3\n      swap1\n      swap3\n      and\n      swap2\n      swap1\n      swap2\n      or\n      swap1\n      sstore\n        /* \"credits.sol\":1385:1611  function transferOwnership(address newOwner) public virtual onlyOwner {... */\n      jump\t// out\n    tag_274:\n      mload(0x40)\n      dup1\n      0x0140\n      add\n      0x40\n      mstore\n      dup1\n      0x00\n      dup2\n      mstore\n      0x20\n      add\n      0x00\n      dup2\n      mstore\n      0x20\n      add\n      0x00\n      dup2\n      mstore\n      0x20\n      add\n      0x00\n      dup2\n      mstore\n      0x20\n      add\n      iszero(iszero(0x00))\n      dup2\n      mstore\n      0x20\n      add\n      0x00\n      dup2\n      mstore\n      0x20\n      add\n      iszero(iszero(0x00))\n      dup2\n      mstore\n      0x20\n      add\n      0x60\n      dup2\n      mstore\n      0x20\n      add\n      iszero(iszero(0x00))\n      dup2\n      mstore\n      0x20\n      add\n      0x60\n      dup2\n      mstore\n      pop\n      swap1\n      jump\t// out\n        /* \"#utility.yul\":14:187   */\n    tag_546:\n        /* \"#utility.yul\":82:102   */\n      dup1\n      calldataload\n      sub(shl(0xa0, 0x01), 0x01)\n        /* \"#utility.yul\":131:162   */\n      dup2\n      and\n        /* \"#utility.yul\":121:163   */\n      dup2\n      eq\n        /* \"#utility.yul\":111:181   */\n      tag_556\n      jumpi\n        /* \"#utility.yul\":177:178   */\n      0x00\n        /* \"#utility.yul\":174:175   */\n      dup1\n        /* \"#utility.yul\":167:179   */\n      revert\n        /* \"#utility.yul\":111:181   */\n    tag_556:\n        /* \"#utility.yul\":14:187   */\n      swap2\n      swap1\n      pop\n      jump\t// out\n        /* \"#utility.yul\":192:378   */\n    tag_49:\n        /* \"#utility.yul\":251:257   */\n      0x00\n        /* \"#utility.yul\":304:306   */\n      0x20\n        /* \"#utility.yul\":292:301   */\n      dup3\n        /* \"#utility.yul\":283:290   */\n      dup5\n        /* \"#utility.yul\":279:302   */\n      sub\n        /* \"#utility.yul\":275:307   */\n      slt\n        /* \"#utility.yul\":272:324   */\n      iszero\n      tag_558\n      jumpi\n        /* \"#utility.yul\":320:321   */\n      0x00\n        /* \"#utility.yul\":317:318   */\n      dup1\n        /* \"#utility.yul\":310:322   */\n      revert\n        /* \"#utility.yul\":272:324   */\n    tag_558:\n        /* \"#utility.yul\":343:372   */\n      tag_559\n        /* \"#utility.yul\":362:371   */\n      dup3\n        /* \"#utility.yul\":343:372   */\n      tag_546\n      jump\t// in\n    tag_559:\n        /* \"#utility.yul\":333:372   */\n      swap4\n        /* \"#utility.yul\":192:378   */\n      swap3\n      pop\n      pop\n      pop\n      jump\t// out\n        /* \"#utility.yul\":565:819   */\n    tag_55:\n        /* \"#utility.yul\":633:639   */\n      0x00\n        /* \"#utility.yul\":641:647   */\n      dup1\n        /* \"#utility.yul\":694:696   */\n      0x40\n        /* \"#utility.yul\":682:691   */\n      dup4\n        /* \"#utility.yul\":673:680   */\n      dup6\n        /* \"#utility.yul\":669:692   */\n      sub\n        /* \"#utility.yul\":665:697   */\n      slt\n        /* \"#utility.yul\":662:714   */\n      iszero\n      tag_562\n      jumpi\n        /* \"#utility.yul\":710:711   */\n      0x00\n        /* \"#utility.yul\":707:708   */\n      dup1\n        /* \"#utility.yul\":700:712   */\n      revert\n        /* \"#utility.yul\":662:714   */\n    tag_562:\n        /* \"#utility.yul\":733:762   */\n      tag_563\n        /* \"#utility.yul\":752:761   */\n      dup4\n        /* \"#utility.yul\":733:762   */\n      tag_546\n      jump\t// in\n    tag_563:\n        /* \"#utility.yul\":723:762   */\n      swap5\n        /* \"#utility.yul\":809:811   */\n      0x20\n        /* \"#utility.yul\":794:812   */\n      swap4\n      swap1\n      swap4\n      add\n        /* \"#utility.yul\":781:813   */\n      calldataload\n      swap4\n      pop\n      pop\n      pop\n        /* \"#utility.yul\":565:819   */\n      jump\t// out\n        /* \"#utility.yul\":824:1113   */\n    tag_547:\n        /* \"#utility.yul\":866:869   */\n      0x00\n        /* \"#utility.yul\":904:909   */\n      dup2\n        /* \"#utility.yul\":898:910   */\n      mload\n        /* \"#utility.yul\":931:937   */\n      dup1\n        /* \"#utility.yul\":926:929   */\n      dup5\n        /* \"#utility.yul\":919:938   */\n      mstore\n        /* \"#utility.yul\":987:993   */\n      dup1\n        /* \"#utility.yul\":980:984   */\n      0x20\n        /* \"#utility.yul\":973:978   */\n      dup5\n        /* \"#utility.yul\":969:985   */\n      add\n        /* \"#utility.yul\":962:966   */\n      0x20\n        /* \"#utility.yul\":957:960   */\n      dup7\n        /* \"#utility.yul\":953:967   */\n      add\n        /* \"#utility.yul\":947:994   */\n      mcopy\n        /* \"#utility.yul\":1039:1040   */\n      0x00\n        /* \"#utility.yul\":1032:1036   */\n      0x20\n        /* \"#utility.yul\":1023:1029   */\n      dup3\n        /* \"#utility.yul\":1018:1021   */\n      dup7\n        /* \"#utility.yul\":1014:1030   */\n      add\n        /* \"#utility.yul\":1010:1037   */\n      add\n        /* \"#utility.yul\":1003:1041   */\n      mstore\n        /* \"#utility.yul\":1102:1106   */\n      0x20\n        /* \"#utility.yul\":1095:1097   */\n      0x1f\n        /* \"#utility.yul\":1091:1098   */\n      not\n        /* \"#utility.yul\":1086:1088   */\n      0x1f\n        /* \"#utility.yul\":1078:1084   */\n      dup4\n        /* \"#utility.yul\":1074:1089   */\n      add\n        /* \"#utility.yul\":1070:1099   */\n      and\n        /* \"#utility.yul\":1065:1068   */\n      dup6\n        /* \"#utility.yul\":1061:1100   */\n      add\n        /* \"#utility.yul\":1057:1107   */\n      add\n        /* \"#utility.yul\":1050:1107   */\n      swap2\n      pop\n      pop\n        /* \"#utility.yul\":824:1113   */\n      swap3\n      swap2\n      pop\n      pop\n      jump\t// out\n        /* \"#utility.yul\":1214:2676   */\n    tag_61:\n        /* \"#utility.yul\":1418:1422   */\n      0x00\n        /* \"#utility.yul\":1447:1449   */\n      0x20\n        /* \"#utility.yul\":1487:1489   */\n      dup1\n        /* \"#utility.yul\":1476:1485   */\n      dup4\n        /* \"#utility.yul\":1472:1490   */\n      add\n        /* \"#utility.yul\":1517:1519   */\n      dup2\n        /* \"#utility.yul\":1506:1515   */\n      dup5\n        /* \"#utility.yul\":1499:1520   */\n      mstore\n        /* \"#utility.yul\":1540:1546   */\n      dup1\n        /* \"#utility.yul\":1575:1581   */\n      dup6\n        /* \"#utility.yul\":1569:1582   */\n      mload\n        /* \"#utility.yul\":1606:1612   */\n      dup1\n        /* \"#utility.yul\":1598:1604   */\n      dup4\n        /* \"#utility.yul\":1591:1613   */\n      mstore\n        /* \"#utility.yul\":1632:1634   */\n      0x40\n        /* \"#utility.yul\":1622:1634   */\n      swap3\n      pop\n        /* \"#utility.yul\":1665:1667   */\n      0x40\n        /* \"#utility.yul\":1654:1663   */\n      dup7\n        /* \"#utility.yul\":1650:1668   */\n      add\n        /* \"#utility.yul\":1643:1668   */\n      swap2\n      pop\n        /* \"#utility.yul\":1727:1729   */\n      0x40\n        /* \"#utility.yul\":1717:1723   */\n      dup2\n        /* \"#utility.yul\":1714:1715   */\n      0x05\n        /* \"#utility.yul\":1710:1724   */\n      shl\n        /* \"#utility.yul\":1699:1708   */\n      dup8\n        /* \"#utility.yul\":1695:1725   */\n      add\n        /* \"#utility.yul\":1691:1730   */\n      add\n        /* \"#utility.yul\":1765:1767   */\n      dup5\n        /* \"#utility.yul\":1757:1763   */\n      dup9\n        /* \"#utility.yul\":1753:1768   */\n      add\n        /* \"#utility.yul\":1786:1787   */\n      0x00\n        /* \"#utility.yul\":1796:2647   */\n    tag_567:\n        /* \"#utility.yul\":1810:1816   */\n      dup4\n        /* \"#utility.yul\":1807:1808   */\n      dup2\n        /* \"#utility.yul\":1804:1817   */\n      lt\n        /* \"#utility.yul\":1796:2647   */\n      iszero\n      tag_569\n      jumpi\n        /* \"#utility.yul\":1875:1897   */\n      dup9\n      dup4\n      sub\n      not(0x3f)\n        /* \"#utility.yul\":1871:1907   */\n      add\n        /* \"#utility.yul\":1859:1908   */\n      dup6\n      mstore\n        /* \"#utility.yul\":1931:1944   */\n      dup2\n      mload\n        /* \"#utility.yul\":2003:2012   */\n      dup1\n      mload\n      sub(shl(0xa0, 0x01), 0x01)\n        /* \"#utility.yul\":1999:2034   */\n      and\n        /* \"#utility.yul\":1984:2035   */\n      dup5\n      mstore\n        /* \"#utility.yul\":2078:2089   */\n      dup8\n      dup2\n      add\n        /* \"#utility.yul\":2072:2090   */\n      mload\n        /* \"#utility.yul\":2055:2070   */\n      dup9\n      dup6\n      add\n        /* \"#utility.yul\":2048:2091   */\n      mstore\n        /* \"#utility.yul\":2130:2141   */\n      dup7\n      dup2\n      add\n        /* \"#utility.yul\":2124:2142   */\n      mload\n        /* \"#utility.yul\":1967:1971   */\n      0xc0\n        /* \"#utility.yul\":2162:2177   */\n      dup9\n      dup7\n      add\n        /* \"#utility.yul\":2155:2182   */\n      dup2\n      swap1\n      mstore\n        /* \"#utility.yul\":1967:1971   */\n      swap1\n        /* \"#utility.yul\":2209:2257   */\n      tag_570\n        /* \"#utility.yul\":2241:2256   */\n      dup3\n      dup8\n      add\n        /* \"#utility.yul\":2124:2142   */\n      dup3\n        /* \"#utility.yul\":2209:2257   */\n      tag_547\n      jump\t// in\n    tag_570:\n        /* \"#utility.yul\":2280:2284   */\n      0x60\n        /* \"#utility.yul\":2341:2352   */\n      dup5\n      dup2\n      add\n        /* \"#utility.yul\":2335:2353   */\n      mload\n        /* \"#utility.yul\":2328:2354   */\n      iszero\n        /* \"#utility.yul\":2321:2355   */\n      iszero\n        /* \"#utility.yul\":2304:2319   */\n      swap1\n      dup9\n      add\n        /* \"#utility.yul\":2297:2356   */\n      mstore\n        /* \"#utility.yul\":2379:2383   */\n      0x80\n        /* \"#utility.yul\":2440:2451   */\n      dup1\n      dup6\n      add\n        /* \"#utility.yul\":2434:2452   */\n      mload\n        /* \"#utility.yul\":2427:2453   */\n      iszero\n        /* \"#utility.yul\":2420:2454   */\n      iszero\n        /* \"#utility.yul\":2403:2418   */\n      swap1\n      dup9\n      add\n        /* \"#utility.yul\":2396:2455   */\n      mstore\n        /* \"#utility.yul\":2478:2482   */\n      0xa0\n        /* \"#utility.yul\":2525:2536   */\n      swap4\n      dup5\n      add\n        /* \"#utility.yul\":2519:2537   */\n      mload\n        /* \"#utility.yul\":2502:2517   */\n      swap4\n      swap1\n      swap7\n      add\n        /* \"#utility.yul\":2495:2538   */\n      swap3\n      swap1\n      swap3\n      mstore\n      pop\n      pop\n        /* \"#utility.yul\":2625:2637   */\n      swap4\n      dup7\n      add\n      swap4\n        /* \"#utility.yul\":2590:2605   */\n      swap1\n      dup7\n      add\n      swap1\n        /* \"#utility.yul\":1832:1833   */\n      0x01\n        /* \"#utility.yul\":1825:1834   */\n      add\n        /* \"#utility.yul\":1796:2647   */\n      jump(tag_567)\n    tag_569:\n      pop\n        /* \"#utility.yul\":2664:2670   */\n      swap1\n      swap9\n        /* \"#utility.yul\":1214:2676   */\n      swap8\n      pop\n      pop\n      pop\n      pop\n      pop\n      pop\n      pop\n      pop\n      jump\t// out\n        /* \"#utility.yul\":2873:3053   */\n    tag_72:\n        /* \"#utility.yul\":2932:2938   */\n      0x00\n        /* \"#utility.yul\":2985:2987   */\n      0x20\n        /* \"#utility.yul\":2973:2982   */\n      dup3\n        /* \"#utility.yul\":2964:2971   */\n      dup5\n        /* \"#utility.yul\":2960:2983   */\n      sub\n        /* \"#utility.yul\":2956:2988   */\n      slt\n        /* \"#utility.yul\":2953:3005   */\n      iszero\n      tag_573\n      jumpi\n        /* \"#utility.yul\":3001:3002   */\n      0x00\n        /* \"#utility.yul\":2998:2999   */\n      dup1\n        /* \"#utility.yul\":2991:3003   */\n      revert\n        /* \"#utility.yul\":2953:3005   */\n    tag_573:\n      pop\n        /* \"#utility.yul\":3024:3047   */\n      calldataload\n      swap2\n        /* \"#utility.yul\":2873:3053   */\n      swap1\n      pop\n      jump\t// out\n        /* \"#utility.yul\":3266:5261   */\n    tag_88:\n        /* \"#utility.yul\":3454:3458   */\n      0x00\n        /* \"#utility.yul\":3483:3485   */\n      0x20\n        /* \"#utility.yul\":3523:3525   */\n      dup1\n        /* \"#utility.yul\":3512:3521   */\n      dup4\n        /* \"#utility.yul\":3508:3526   */\n      add\n        /* \"#utility.yul\":3553:3555   */\n      dup2\n        /* \"#utility.yul\":3542:3551   */\n      dup5\n        /* \"#utility.yul\":3535:3556   */\n      mstore\n        /* \"#utility.yul\":3576:3582   */\n      dup1\n        /* \"#utility.yul\":3611:3617   */\n      dup6\n        /* \"#utility.yul\":3605:3618   */\n      mload\n        /* \"#utility.yul\":3642:3648   */\n      dup1\n        /* \"#utility.yul\":3634:3640   */\n      dup4\n        /* \"#utility.yul\":3627:3649   */\n      mstore\n        /* \"#utility.yul\":3668:3670   */\n      0x40\n        /* \"#utility.yul\":3658:3670   */\n      swap3\n      pop\n        /* \"#utility.yul\":3701:3703   */\n      0x40\n        /* \"#utility.yul\":3690:3699   */\n      dup7\n        /* \"#utility.yul\":3686:3704   */\n      add\n        /* \"#utility.yul\":3679:3704   */\n      swap2\n      pop\n        /* \"#utility.yul\":3763:3765   */\n      0x40\n        /* \"#utility.yul\":3753:3759   */\n      dup2\n        /* \"#utility.yul\":3750:3751   */\n      0x05\n        /* \"#utility.yul\":3746:3760   */\n      shl\n        /* \"#utility.yul\":3735:3744   */\n      dup8\n        /* \"#utility.yul\":3731:3761   */\n      add\n        /* \"#utility.yul\":3727:3766   */\n      add\n        /* \"#utility.yul\":3801:3803   */\n      dup5\n        /* \"#utility.yul\":3793:3799   */\n      dup9\n        /* \"#utility.yul\":3789:3804   */\n      add\n        /* \"#utility.yul\":3822:3823   */\n      0x00\n        /* \"#utility.yul\":3832:5232   */\n    tag_576:\n        /* \"#utility.yul\":3846:3852   */\n      dup4\n        /* \"#utility.yul\":3843:3844   */\n      dup2\n        /* \"#utility.yul\":3840:3853   */\n      lt\n        /* \"#utility.yul\":3832:5232   */\n      iszero\n      tag_569\n      jumpi\n      not(0x3f)\n        /* \"#utility.yul\":3911:3933   */\n      dup10\n      dup5\n      sub\n        /* \"#utility.yul\":3907:3943   */\n      add\n        /* \"#utility.yul\":3895:3944   */\n      dup6\n      mstore\n        /* \"#utility.yul\":3967:3980   */\n      dup2\n      mload\n        /* \"#utility.yul\":4037:4046   */\n      dup1\n      mload\n        /* \"#utility.yul\":4022:4047   */\n      dup5\n      mstore\n        /* \"#utility.yul\":4090:4101   */\n      dup8\n      dup2\n      add\n        /* \"#utility.yul\":4084:4102   */\n      mload\n        /* \"#utility.yul\":4067:4082   */\n      dup9\n      dup6\n      add\n        /* \"#utility.yul\":4060:4103   */\n      mstore\n        /* \"#utility.yul\":4146:4157   */\n      dup7\n      dup2\n      add\n        /* \"#utility.yul\":4140:4158   */\n      mload\n        /* \"#utility.yul\":4123:4138   */\n      dup8\n      dup6\n      add\n        /* \"#utility.yul\":4116:4159   */\n      mstore\n        /* \"#utility.yul\":4182:4186   */\n      0x60\n        /* \"#utility.yul\":4229:4240   */\n      dup1\n      dup3\n      add\n        /* \"#utility.yul\":4223:4241   */\n      mload\n        /* \"#utility.yul\":4206:4221   */\n      swap1\n      dup6\n      add\n        /* \"#utility.yul\":4199:4242   */\n      mstore\n        /* \"#utility.yul\":4265:4269   */\n      0x80\n        /* \"#utility.yul\":4308:4319   */\n      dup1\n      dup3\n      add\n        /* \"#utility.yul\":4302:4320   */\n      mload\n        /* \"#utility.yul\":1188:1201   */\n      iszero\n        /* \"#utility.yul\":1181:1202   */\n      iszero\n        /* \"#utility.yul\":4363:4378   */\n      swap1\n      dup6\n      add\n        /* \"#utility.yul\":1169:1203   */\n      mstore\n        /* \"#utility.yul\":4402:4406   */\n      0xa0\n        /* \"#utility.yul\":4449:4460   */\n      dup1\n      dup3\n      add\n        /* \"#utility.yul\":4443:4461   */\n      mload\n        /* \"#utility.yul\":4426:4441   */\n      swap1\n      dup6\n      add\n        /* \"#utility.yul\":4419:4462   */\n      mstore\n        /* \"#utility.yul\":4485:4489   */\n      0xc0\n        /* \"#utility.yul\":4530:4541   */\n      dup1\n      dup3\n      add\n        /* \"#utility.yul\":4524:4542   */\n      mload\n        /* \"#utility.yul\":1188:1201   */\n      iszero\n        /* \"#utility.yul\":1181:1202   */\n      iszero\n        /* \"#utility.yul\":4587:4602   */\n      swap1\n      dup6\n      add\n        /* \"#utility.yul\":1169:1203   */\n      mstore\n        /* \"#utility.yul\":4626:4630   */\n      0xe0\n        /* \"#utility.yul\":4671:4682   */\n      dup1\n      dup3\n      add\n        /* \"#utility.yul\":4665:4683   */\n      mload\n        /* \"#utility.yul\":4003:4009   */\n      0x0140\n        /* \"#utility.yul\":4703:4718   */\n      dup3\n      dup8\n      add\n        /* \"#utility.yul\":4696:4723   */\n      dup2\n      swap1\n      mstore\n        /* \"#utility.yul\":4003:4009   */\n      swap2\n        /* \"#utility.yul\":4626:4630   */\n      swap1\n        /* \"#utility.yul\":4750:4800   */\n      tag_581\n        /* \"#utility.yul\":4784:4799   */\n      dup4\n      dup9\n      add\n        /* \"#utility.yul\":4665:4683   */\n      dup3\n        /* \"#utility.yul\":4750:4800   */\n      tag_547\n      jump\t// in\n    tag_581:\n        /* \"#utility.yul\":4736:4800   */\n      swap3\n      pop\n      pop\n      pop\n        /* \"#utility.yul\":4824:4830   */\n      0x0100\n        /* \"#utility.yul\":4879:4882   */\n      dup1\n        /* \"#utility.yul\":4875:4877   */\n      dup4\n        /* \"#utility.yul\":4871:4883   */\n      add\n        /* \"#utility.yul\":4865:4884   */\n      mload\n        /* \"#utility.yul\":4897:4946   */\n      tag_582\n        /* \"#utility.yul\":4941:4944   */\n      dup3\n        /* \"#utility.yul\":4933:4939   */\n      dup9\n        /* \"#utility.yul\":4929:4945   */\n      add\n        /* \"#utility.yul\":4913:4927   */\n      dup3\n        /* \"#utility.yul\":1188:1201   */\n      iszero\n        /* \"#utility.yul\":1181:1202   */\n      iszero\n        /* \"#utility.yul\":1169:1203   */\n      swap1\n      mstore\n        /* \"#utility.yul\":1118:1209   */\n      jump\n        /* \"#utility.yul\":4897:4946   */\n    tag_582:\n      pop\n      pop\n        /* \"#utility.yul\":4970:4976   */\n      0x0120\n        /* \"#utility.yul\":5025:5028   */\n      dup1\n        /* \"#utility.yul\":5021:5023   */\n      dup4\n        /* \"#utility.yul\":5017:5029   */\n      add\n        /* \"#utility.yul\":5011:5030   */\n      mload\n        /* \"#utility.yul\":4989:5030   */\n      swap3\n      pop\n        /* \"#utility.yul\":5080:5086   */\n      dup6\n        /* \"#utility.yul\":5072:5078   */\n      dup3\n        /* \"#utility.yul\":5068:5087   */\n      sub\n        /* \"#utility.yul\":5062:5065   */\n      dup2\n        /* \"#utility.yul\":5054:5060   */\n      dup8\n        /* \"#utility.yul\":5050:5066   */\n      add\n        /* \"#utility.yul\":5043:5088   */\n      mstore\n      pop\n        /* \"#utility.yul\":5111:5152   */\n      tag_583\n        /* \"#utility.yul\":5145:5151   */\n      dup2\n        /* \"#utility.yul\":5129:5143   */\n      dup4\n        /* \"#utility.yul\":5111:5152   */\n      tag_547\n      jump\t// in\n    tag_583:\n        /* \"#utility.yul\":5210:5222   */\n      swap7\n      dup10\n      add\n      swap7\n        /* \"#utility.yul\":5101:5152   */\n      swap5\n      pop\n      pop\n      pop\n        /* \"#utility.yul\":5175:5190   */\n      swap1\n      dup7\n      add\n      swap1\n        /* \"#utility.yul\":3868:3869   */\n      0x01\n        /* \"#utility.yul\":3861:3870   */\n      add\n        /* \"#utility.yul\":3832:5232   */\n      jump(tag_576)\n        /* \"#utility.yul\":5266:5588   */\n    tag_91:\n        /* \"#utility.yul\":5343:5349   */\n      0x00\n        /* \"#utility.yul\":5351:5357   */\n      dup1\n        /* \"#utility.yul\":5359:5365   */\n      0x00\n        /* \"#utility.yul\":5412:5414   */\n      0x60\n        /* \"#utility.yul\":5400:5409   */\n      dup5\n        /* \"#utility.yul\":5391:5398   */\n      dup7\n        /* \"#utility.yul\":5387:5410   */\n      sub\n        /* \"#utility.yul\":5383:5415   */\n      slt\n        /* \"#utility.yul\":5380:5432   */\n      iszero\n      tag_585\n      jumpi\n        /* \"#utility.yul\":5428:5429   */\n      0x00\n        /* \"#utility.yul\":5425:5426   */\n      dup1\n        /* \"#utility.yul\":5418:5430   */\n      revert\n        /* \"#utility.yul\":5380:5432   */\n    tag_585:\n        /* \"#utility.yul\":5451:5480   */\n      tag_586\n        /* \"#utility.yul\":5470:5479   */\n      dup5\n        /* \"#utility.yul\":5451:5480   */\n      tag_546\n      jump\t// in\n    tag_586:\n        /* \"#utility.yul\":5441:5480   */\n      swap6\n        /* \"#utility.yul\":5527:5529   */\n      0x20\n        /* \"#utility.yul\":5512:5530   */\n      dup6\n      add\n        /* \"#utility.yul\":5499:5531   */\n      calldataload\n      swap6\n      pop\n        /* \"#utility.yul\":5578:5580   */\n      0x40\n        /* \"#utility.yul\":5563:5581   */\n      swap1\n      swap5\n      add\n        /* \"#utility.yul\":5550:5582   */\n      calldataload\n      swap4\n        /* \"#utility.yul\":5266:5588   */\n      swap3\n      pop\n      pop\n      pop\n      jump\t// out\n        /* \"#utility.yul\":5593:6556   */\n    tag_97:\n        /* \"#utility.yul\":5812:5814   */\n      0x20\n        /* \"#utility.yul\":5864:5885   */\n      dup1\n      dup3\n      mstore\n        /* \"#utility.yul\":5934:5947   */\n      dup3\n      mload\n        /* \"#utility.yul\":5837:5855   */\n      dup3\n      dup3\n      add\n        /* \"#utility.yul\":5956:5978   */\n      dup2\n      swap1\n      mstore\n        /* \"#utility.yul\":5783:5787   */\n      0x00\n      swap2\n        /* \"#utility.yul\":5812:5814   */\n      swap1\n        /* \"#utility.yul\":5997:5999   */\n      0x40\n      swap1\n        /* \"#utility.yul\":6015:6033   */\n      dup2\n      dup6\n      add\n      swap1\n        /* \"#utility.yul\":6056:6071   */\n      dup7\n      dup5\n      add\n        /* \"#utility.yul\":5783:5787   */\n      dup6\n        /* \"#utility.yul\":6099:6530   */\n    tag_588:\n        /* \"#utility.yul\":6113:6119   */\n      dup3\n        /* \"#utility.yul\":6110:6111   */\n      dup2\n        /* \"#utility.yul\":6107:6120   */\n      lt\n        /* \"#utility.yul\":6099:6530   */\n      iszero\n      tag_590\n      jumpi\n        /* \"#utility.yul\":6172:6185   */\n      dup2\n      mload\n        /* \"#utility.yul\":6210:6219   */\n      dup1\n      mload\n        /* \"#utility.yul\":6198:6220   */\n      dup6\n      mstore\n        /* \"#utility.yul\":6264:6275   */\n      dup7\n      dup2\n      add\n        /* \"#utility.yul\":6258:6276   */\n      mload\n      sub(shl(0xa0, 0x01), 0x01)\n        /* \"#utility.yul\":6254:6298   */\n      and\n        /* \"#utility.yul\":6240:6252   */\n      dup8\n      dup7\n      add\n        /* \"#utility.yul\":6233:6299   */\n      mstore\n        /* \"#utility.yul\":6339:6350   */\n      dup6\n      dup2\n      add\n        /* \"#utility.yul\":6333:6351   */\n      mload\n        /* \"#utility.yul\":6319:6331   */\n      dup7\n      dup7\n      add\n        /* \"#utility.yul\":6312:6352   */\n      mstore\n        /* \"#utility.yul\":6375:6379   */\n      0x60\n        /* \"#utility.yul\":6433:6444   */\n      swap1\n      dup2\n      add\n        /* \"#utility.yul\":6427:6445   */\n      mload\n        /* \"#utility.yul\":6420:6446   */\n      iszero\n        /* \"#utility.yul\":6413:6447   */\n      iszero\n        /* \"#utility.yul\":6399:6411   */\n      swap1\n      dup6\n      add\n        /* \"#utility.yul\":6392:6448   */\n      mstore\n        /* \"#utility.yul\":6477:6481   */\n      0x80\n        /* \"#utility.yul\":6468:6482   */\n      swap1\n      swap4\n      add\n      swap3\n        /* \"#utility.yul\":6505:6520   */\n      swap1\n      dup6\n      add\n      swap1\n        /* \"#utility.yul\":6295:6296   */\n      0x01\n        /* \"#utility.yul\":6128:6137   */\n      add\n        /* \"#utility.yul\":6099:6530   */\n      jump(tag_588)\n    tag_590:\n      pop\n        /* \"#utility.yul\":6547:6550   */\n      swap2\n      swap8\n        /* \"#utility.yul\":5593:6556   */\n      swap7\n      pop\n      pop\n      pop\n      pop\n      pop\n      pop\n      pop\n      jump\t// out\n        /* \"#utility.yul\":6561:7186   */\n    tag_102:\n        /* \"#utility.yul\":6867:6868   */\n      0x01\n        /* \"#utility.yul\":6863:6864   */\n      dup1\n        /* \"#utility.yul\":6858:6861   */\n      0xa0\n        /* \"#utility.yul\":6854:6865   */\n      shl\n        /* \"#utility.yul\":6850:6869   */\n      sub\n        /* \"#utility.yul\":6842:6848   */\n      dup8\n        /* \"#utility.yul\":6838:6870   */\n      and\n        /* \"#utility.yul\":6827:6836   */\n      dup2\n        /* \"#utility.yul\":6820:6871   */\n      mstore\n        /* \"#utility.yul\":6907:6913   */\n      dup6\n        /* \"#utility.yul\":6902:6904   */\n      0x20\n        /* \"#utility.yul\":6891:6900   */\n      dup3\n        /* \"#utility.yul\":6887:6905   */\n      add\n        /* \"#utility.yul\":6880:6914   */\n      mstore\n        /* \"#utility.yul\":6950:6953   */\n      0xc0\n        /* \"#utility.yul\":6945:6947   */\n      0x40\n        /* \"#utility.yul\":6934:6943   */\n      dup3\n        /* \"#utility.yul\":6930:6948   */\n      add\n        /* \"#utility.yul\":6923:6954   */\n      mstore\n        /* \"#utility.yul\":6801:6805   */\n      0x00\n        /* \"#utility.yul\":6971:7017   */\n      tag_592\n        /* \"#utility.yul\":7012:7015   */\n      0xc0\n        /* \"#utility.yul\":7001:7010   */\n      dup4\n        /* \"#utility.yul\":6997:7016   */\n      add\n        /* \"#utility.yul\":6989:6995   */\n      dup8\n        /* \"#utility.yul\":6971:7017   */\n      tag_547\n      jump\t// in\n    tag_592:\n        /* \"#utility.yul\":7060:7074   */\n      swap5\n      iszero\n        /* \"#utility.yul\":7053:7075   */\n      iszero\n        /* \"#utility.yul\":7048:7050   */\n      0x60\n        /* \"#utility.yul\":7033:7051   */\n      dup4\n      add\n        /* \"#utility.yul\":7026:7076   */\n      mstore\n      pop\n        /* \"#utility.yul\":7120:7134   */\n      swap2\n      iszero\n        /* \"#utility.yul\":7113:7135   */\n      iszero\n        /* \"#utility.yul\":7107:7110   */\n      0x80\n        /* \"#utility.yul\":7092:7111   */\n      dup4\n      add\n        /* \"#utility.yul\":7085:7136   */\n      mstore\n        /* \"#utility.yul\":7167:7170   */\n      0xa0\n        /* \"#utility.yul\":7152:7171   */\n      swap1\n      swap2\n      add\n        /* \"#utility.yul\":7145:7180   */\n      mstore\n        /* \"#utility.yul\":6963:7017   */\n      swap4\n        /* \"#utility.yul\":6561:7186   */\n      swap3\n      pop\n      pop\n      pop\n      jump\t// out\n        /* \"#utility.yul\":7191:7318   */\n    tag_208:\n        /* \"#utility.yul\":7252:7262   */\n      0x4e487b71\n        /* \"#utility.yul\":7247:7250   */\n      0xe0\n        /* \"#utility.yul\":7243:7263   */\n      shl\n        /* \"#utility.yul\":7240:7241   */\n      0x00\n        /* \"#utility.yul\":7233:7264   */\n      mstore\n        /* \"#utility.yul\":7283:7287   */\n      0x41\n        /* \"#utility.yul\":7280:7281   */\n      0x04\n        /* \"#utility.yul\":7273:7288   */\n      mstore\n        /* \"#utility.yul\":7307:7311   */\n      0x24\n        /* \"#utility.yul\":7304:7305   */\n      0x00\n        /* \"#utility.yul\":7297:7312   */\n      revert\n        /* \"#utility.yul\":7323:8042   */\n    tag_549:\n        /* \"#utility.yul\":7366:7371   */\n      0x00\n        /* \"#utility.yul\":7419:7422   */\n      dup3\n        /* \"#utility.yul\":7412:7416   */\n      0x1f\n        /* \"#utility.yul\":7404:7410   */\n      dup4\n        /* \"#utility.yul\":7400:7417   */\n      add\n        /* \"#utility.yul\":7396:7423   */\n      slt\n        /* \"#utility.yul\":7386:7441   */\n      tag_595\n      jumpi\n        /* \"#utility.yul\":7437:7438   */\n      0x00\n        /* \"#utility.yul\":7434:7435   */\n      dup1\n        /* \"#utility.yul\":7427:7439   */\n      revert\n        /* \"#utility.yul\":7386:7441   */\n    tag_595:\n        /* \"#utility.yul\":7473:7479   */\n      dup2\n        /* \"#utility.yul\":7460:7480   */\n      calldataload\n        /* \"#utility.yul\":7499:7517   */\n      0xffffffffffffffff\n        /* \"#utility.yul\":7536:7538   */\n      dup1\n        /* \"#utility.yul\":7532:7534   */\n      dup3\n        /* \"#utility.yul\":7529:7539   */\n      gt\n        /* \"#utility.yul\":7526:7562   */\n      iszero\n      tag_597\n      jumpi\n        /* \"#utility.yul\":7542:7560   */\n      tag_597\n      tag_208\n      jump\t// in\n    tag_597:\n        /* \"#utility.yul\":7617:7619   */\n      0x40\n        /* \"#utility.yul\":7611:7620   */\n      mload\n        /* \"#utility.yul\":7585:7587   */\n      0x1f\n        /* \"#utility.yul\":7671:7684   */\n      dup4\n      add\n      not(0x1f)\n        /* \"#utility.yul\":7667:7689   */\n      swap1\n      dup2\n      and\n        /* \"#utility.yul\":7691:7693   */\n      0x3f\n        /* \"#utility.yul\":7663:7694   */\n      add\n        /* \"#utility.yul\":7659:7699   */\n      and\n        /* \"#utility.yul\":7647:7700   */\n      dup2\n      add\n      swap1\n        /* \"#utility.yul\":7715:7733   */\n      dup3\n      dup3\n      gt\n        /* \"#utility.yul\":7735:7757   */\n      dup2\n      dup4\n      lt\n        /* \"#utility.yul\":7712:7758   */\n      or\n        /* \"#utility.yul\":7709:7781   */\n      iszero\n      tag_599\n      jumpi\n        /* \"#utility.yul\":7761:7779   */\n      tag_599\n      tag_208\n      jump\t// in\n    tag_599:\n        /* \"#utility.yul\":7801:7811   */\n      dup2\n        /* \"#utility.yul\":7797:7799   */\n      0x40\n        /* \"#utility.yul\":7790:7812   */\n      mstore\n        /* \"#utility.yul\":7836:7838   */\n      dup4\n        /* \"#utility.yul\":7828:7834   */\n      dup2\n        /* \"#utility.yul\":7821:7839   */\n      mstore\n        /* \"#utility.yul\":7882:7885   */\n      dup7\n        /* \"#utility.yul\":7875:7879   */\n      0x20\n        /* \"#utility.yul\":7870:7872   */\n      dup6\n        /* \"#utility.yul\":7862:7868   */\n      dup9\n        /* \"#utility.yul\":7858:7873   */\n      add\n        /* \"#utility.yul\":7854:7880   */\n      add\n        /* \"#utility.yul\":7851:7886   */\n      gt\n        /* \"#utility.yul\":7848:7903   */\n      iszero\n      tag_600\n      jumpi\n        /* \"#utility.yul\":7899:7900   */\n      0x00\n        /* \"#utility.yul\":7896:7897   */\n      dup1\n        /* \"#utility.yul\":7889:7901   */\n      revert\n        /* \"#utility.yul\":7848:7903   */\n    tag_600:\n        /* \"#utility.yul\":7963:7965   */\n      dup4\n        /* \"#utility.yul\":7956:7960   */\n      0x20\n        /* \"#utility.yul\":7948:7954   */\n      dup8\n        /* \"#utility.yul\":7944:7961   */\n      add\n        /* \"#utility.yul\":7937:7941   */\n      0x20\n        /* \"#utility.yul\":7929:7935   */\n      dup4\n        /* \"#utility.yul\":7925:7942   */\n      add\n        /* \"#utility.yul\":7912:7966   */\n      calldatacopy\n        /* \"#utility.yul\":8010:8011   */\n      0x00\n        /* \"#utility.yul\":8003:8007   */\n      0x20\n        /* \"#utility.yul\":7998:8000   */\n      dup6\n        /* \"#utility.yul\":7990:7996   */\n      dup4\n        /* \"#utility.yul\":7986:8001   */\n      add\n        /* \"#utility.yul\":7982:8008   */\n      add\n        /* \"#utility.yul\":7975:8012   */\n      mstore\n        /* \"#utility.yul\":8030:8036   */\n      dup1\n        /* \"#utility.yul\":8021:8036   */\n      swap5\n      pop\n      pop\n      pop\n      pop\n      pop\n        /* \"#utility.yul\":7323:8042   */\n      swap3\n      swap2\n      pop\n      pop\n      jump\t// out\n        /* \"#utility.yul\":8047:8580   */\n    tag_112:\n        /* \"#utility.yul\":8143:8149   */\n      0x00\n        /* \"#utility.yul\":8151:8157   */\n      dup1\n        /* \"#utility.yul\":8159:8165   */\n      0x00\n        /* \"#utility.yul\":8167:8173   */\n      dup1\n        /* \"#utility.yul\":8220:8223   */\n      0x80\n        /* \"#utility.yul\":8208:8217   */\n      dup6\n        /* \"#utility.yul\":8199:8206   */\n      dup8\n        /* \"#utility.yul\":8195:8218   */\n      sub\n        /* \"#utility.yul\":8191:8224   */\n      slt\n        /* \"#utility.yul\":8188:8241   */\n      iszero\n      tag_602\n      jumpi\n        /* \"#utility.yul\":8237:8238   */\n      0x00\n        /* \"#utility.yul\":8234:8235   */\n      dup1\n        /* \"#utility.yul\":8227:8239   */\n      revert\n        /* \"#utility.yul\":8188:8241   */\n    tag_602:\n        /* \"#utility.yul\":8260:8289   */\n      tag_603\n        /* \"#utility.yul\":8279:8288   */\n      dup6\n        /* \"#utility.yul\":8260:8289   */\n      tag_546\n      jump\t// in\n    tag_603:\n        /* \"#utility.yul\":8250:8289   */\n      swap4\n      pop\n        /* \"#utility.yul\":8336:8338   */\n      0x20\n        /* \"#utility.yul\":8325:8334   */\n      dup6\n        /* \"#utility.yul\":8321:8339   */\n      add\n        /* \"#utility.yul\":8308:8340   */\n      calldataload\n        /* \"#utility.yul\":8298:8340   */\n      swap3\n      pop\n        /* \"#utility.yul\":8387:8389   */\n      0x40\n        /* \"#utility.yul\":8376:8385   */\n      dup6\n        /* \"#utility.yul\":8372:8390   */\n      add\n        /* \"#utility.yul\":8359:8391   */\n      calldataload\n        /* \"#utility.yul\":8349:8391   */\n      swap2\n      pop\n        /* \"#utility.yul\":8442:8444   */\n      0x60\n        /* \"#utility.yul\":8431:8440   */\n      dup6\n        /* \"#utility.yul\":8427:8445   */\n      add\n        /* \"#utility.yul\":8414:8446   */\n      calldataload\n        /* \"#utility.yul\":8469:8487   */\n      0xffffffffffffffff\n        /* \"#utility.yul\":8461:8467   */\n      dup2\n        /* \"#utility.yul\":8458:8488   */\n      gt\n        /* \"#utility.yul\":8455:8505   */\n      iszero\n      tag_604\n      jumpi\n        /* \"#utility.yul\":8501:8502   */\n      0x00\n        /* \"#utility.yul\":8498:8499   */\n      dup1\n        /* \"#utility.yul\":8491:8503   */\n      revert\n        /* \"#utility.yul\":8455:8505   */\n    tag_604:\n        /* \"#utility.yul\":8524:8574   */\n      tag_605\n        /* \"#utility.yul\":8566:8573   */\n      dup8\n        /* \"#utility.yul\":8557:8563   */\n      dup3\n        /* \"#utility.yul\":8546:8555   */\n      dup9\n        /* \"#utility.yul\":8542:8564   */\n      add\n        /* \"#utility.yul\":8524:8574   */\n      tag_549\n      jump\t// in\n    tag_605:\n        /* \"#utility.yul\":8514:8574   */\n      swap2\n      pop\n      pop\n        /* \"#utility.yul\":8047:8580   */\n      swap3\n      swap6\n      swap2\n      swap5\n      pop\n      swap3\n      pop\n      jump\t// out\n        /* \"#utility.yul\":8585:9217   */\n    tag_120:\n        /* \"#utility.yul\":8756:8758   */\n      0x20\n        /* \"#utility.yul\":8808:8829   */\n      dup1\n      dup3\n      mstore\n        /* \"#utility.yul\":8878:8891   */\n      dup3\n      mload\n        /* \"#utility.yul\":8781:8799   */\n      dup3\n      dup3\n      add\n        /* \"#utility.yul\":8900:8922   */\n      dup2\n      swap1\n      mstore\n        /* \"#utility.yul\":8727:8731   */\n      0x00\n      swap2\n        /* \"#utility.yul\":8756:8758   */\n      swap1\n        /* \"#utility.yul\":8979:8994   */\n      dup5\n      dup3\n      add\n      swap1\n        /* \"#utility.yul\":8953:8955   */\n      0x40\n        /* \"#utility.yul\":8938:8956   */\n      dup6\n      add\n      swap1\n        /* \"#utility.yul\":8727:8731   */\n      dup5\n        /* \"#utility.yul\":9022:9191   */\n    tag_607:\n        /* \"#utility.yul\":9036:9042   */\n      dup2\n        /* \"#utility.yul\":9033:9034   */\n      dup2\n        /* \"#utility.yul\":9030:9043   */\n      lt\n        /* \"#utility.yul\":9022:9191   */\n      iszero\n      tag_609\n      jumpi\n        /* \"#utility.yul\":9097:9110   */\n      dup4\n      mload\n        /* \"#utility.yul\":9085:9111   */\n      dup4\n      mstore\n        /* \"#utility.yul\":9166:9181   */\n      swap3\n      dup5\n      add\n      swap3\n        /* \"#utility.yul\":9131:9143   */\n      swap2\n      dup5\n      add\n      swap2\n        /* \"#utility.yul\":9058:9059   */\n      0x01\n        /* \"#utility.yul\":9051:9060   */\n      add\n        /* \"#utility.yul\":9022:9191   */\n      jump(tag_607)\n    tag_609:\n      pop\n        /* \"#utility.yul\":9208:9211   */\n      swap1\n      swap7\n        /* \"#utility.yul\":8585:9217   */\n      swap6\n      pop\n      pop\n      pop\n      pop\n      pop\n      pop\n      jump\t// out\n        /* \"#utility.yul\":9222:9612   */\n    tag_131:\n        /* \"#utility.yul\":9300:9306   */\n      0x00\n        /* \"#utility.yul\":9308:9314   */\n      dup1\n        /* \"#utility.yul\":9361:9363   */\n      0x40\n        /* \"#utility.yul\":9349:9358   */\n      dup4\n        /* \"#utility.yul\":9340:9347   */\n      dup6\n        /* \"#utility.yul\":9336:9359   */\n      sub\n        /* \"#utility.yul\":9332:9364   */\n      slt\n        /* \"#utility.yul\":9329:9381   */\n      iszero\n      tag_611\n      jumpi\n        /* \"#utility.yul\":9377:9378   */\n      0x00\n        /* \"#utility.yul\":9374:9375   */\n      dup1\n        /* \"#utility.yul\":9367:9379   */\n      revert\n        /* \"#utility.yul\":9329:9381   */\n    tag_611:\n        /* \"#utility.yul\":9413:9422   */\n      dup3\n        /* \"#utility.yul\":9400:9423   */\n      calldataload\n        /* \"#utility.yul\":9390:9423   */\n      swap2\n      pop\n        /* \"#utility.yul\":9474:9476   */\n      0x20\n        /* \"#utility.yul\":9463:9472   */\n      dup4\n        /* \"#utility.yul\":9459:9477   */\n      add\n        /* \"#utility.yul\":9446:9478   */\n      calldataload\n        /* \"#utility.yul\":9501:9519   */\n      0xffffffffffffffff\n        /* \"#utility.yul\":9493:9499   */\n      dup2\n        /* \"#utility.yul\":9490:9520   */\n      gt\n        /* \"#utility.yul\":9487:9537   */\n      iszero\n      tag_612\n      jumpi\n        /* \"#utility.yul\":9533:9534   */\n      0x00\n        /* \"#utility.yul\":9530:9531   */\n      dup1\n        /* \"#utility.yul\":9523:9535   */\n      revert\n        /* \"#utility.yul\":9487:9537   */\n    tag_612:\n        /* \"#utility.yul\":9556:9606   */\n      tag_613\n        /* \"#utility.yul\":9598:9605   */\n      dup6\n        /* \"#utility.yul\":9589:9595   */\n      dup3\n        /* \"#utility.yul\":9578:9587   */\n      dup7\n        /* \"#utility.yul\":9574:9596   */\n      add\n        /* \"#utility.yul\":9556:9606   */\n      tag_549\n      jump\t// in\n    tag_613:\n        /* \"#utility.yul\":9546:9606   */\n      swap2\n      pop\n      pop\n        /* \"#utility.yul\":9222:9612   */\n      swap3\n      pop\n      swap3\n      swap1\n      pop\n      jump\t// out\n        /* \"#utility.yul\":9617:10171   */\n    tag_140:\n        /* \"#utility.yul\":9802:9804   */\n      0x20\n        /* \"#utility.yul\":9791:9800   */\n      dup2\n        /* \"#utility.yul\":9784:9805   */\n      mstore\n        /* \"#utility.yul\":9847:9853   */\n      dup2\n        /* \"#utility.yul\":9841:9854   */\n      mload\n        /* \"#utility.yul\":9836:9838   */\n      0x20\n        /* \"#utility.yul\":9825:9834   */\n      dup3\n        /* \"#utility.yul\":9821:9839   */\n      add\n        /* \"#utility.yul\":9814:9855   */\n      mstore\n        /* \"#utility.yul\":9765:9769   */\n      0x00\n        /* \"#utility.yul\":9902:9904   */\n      0x20\n        /* \"#utility.yul\":9894:9900   */\n      dup4\n        /* \"#utility.yul\":9890:9905   */\n      add\n        /* \"#utility.yul\":9884:9906   */\n      mload\n        /* \"#utility.yul\":9942:9946   */\n      0x80\n        /* \"#utility.yul\":9937:9939   */\n      0x40\n        /* \"#utility.yul\":9926:9935   */\n      dup5\n        /* \"#utility.yul\":9922:9940   */\n      add\n        /* \"#utility.yul\":9915:9947   */\n      mstore\n        /* \"#utility.yul\":9970:10022   */\n      tag_615\n        /* \"#utility.yul\":10017:10020   */\n      0xa0\n        /* \"#utility.yul\":10006:10015   */\n      dup5\n        /* \"#utility.yul\":10002:10021   */\n      add\n        /* \"#utility.yul\":9988:10000   */\n      dup3\n        /* \"#utility.yul\":9970:10022   */\n      tag_547\n      jump\t// in\n    tag_615:\n        /* \"#utility.yul\":9956:10022   */\n      swap1\n      pop\n        /* \"#utility.yul\":10076:10078   */\n      0x40\n        /* \"#utility.yul\":10068:10074   */\n      dup5\n        /* \"#utility.yul\":10064:10079   */\n      add\n        /* \"#utility.yul\":10058:10080   */\n      mload\n        /* \"#utility.yul\":10053:10055   */\n      0x60\n        /* \"#utility.yul\":10042:10051   */\n      dup5\n        /* \"#utility.yul\":10038:10056   */\n      add\n        /* \"#utility.yul\":10031:10081   */\n      mstore\n        /* \"#utility.yul\":10137:10139   */\n      0x60\n        /* \"#utility.yul\":10129:10135   */\n      dup5\n        /* \"#utility.yul\":10125:10140   */\n      add\n        /* \"#utility.yul\":10119:10141   */\n      mload\n        /* \"#utility.yul\":10112:10116   */\n      0x80\n        /* \"#utility.yul\":10101:10110   */\n      dup5\n        /* \"#utility.yul\":10097:10117   */\n      add\n        /* \"#utility.yul\":10090:10142   */\n      mstore\n        /* \"#utility.yul\":10159:10165   */\n      dup1\n        /* \"#utility.yul\":10151:10165   */\n      swap2\n      pop\n      pop\n        /* \"#utility.yul\":9617:10171   */\n      swap3\n      swap2\n      pop\n      pop\n      jump\t// out\n        /* \"#utility.yul\":10176:10611   */\n    tag_152:\n        /* \"#utility.yul\":10409:10415   */\n      dup5\n        /* \"#utility.yul\":10398:10407   */\n      dup2\n        /* \"#utility.yul\":10391:10416   */\n      mstore\n        /* \"#utility.yul\":10452:10455   */\n      0x80\n        /* \"#utility.yul\":10447:10449   */\n      0x20\n        /* \"#utility.yul\":10436:10445   */\n      dup3\n        /* \"#utility.yul\":10432:10450   */\n      add\n        /* \"#utility.yul\":10425:10456   */\n      mstore\n        /* \"#utility.yul\":10372:10376   */\n      0x00\n        /* \"#utility.yul\":10473:10519   */\n      tag_617\n        /* \"#utility.yul\":10514:10517   */\n      0x80\n        /* \"#utility.yul\":10503:10512   */\n      dup4\n        /* \"#utility.yul\":10499:10518   */\n      add\n        /* \"#utility.yul\":10491:10497   */\n      dup7\n        /* \"#utility.yul\":10473:10519   */\n      tag_547\n      jump\t// in\n    tag_617:\n        /* \"#utility.yul\":10550:10552   */\n      0x40\n        /* \"#utility.yul\":10535:10553   */\n      dup4\n      add\n        /* \"#utility.yul\":10528:10562   */\n      swap5\n      swap1\n      swap5\n      mstore\n      pop\n        /* \"#utility.yul\":10593:10595   */\n      0x60\n        /* \"#utility.yul\":10578:10596   */\n      add\n        /* \"#utility.yul\":10571:10605   */\n      mstore\n        /* \"#utility.yul\":10465:10519   */\n      swap3\n        /* \"#utility.yul\":10176:10611   */\n      swap2\n      pop\n      pop\n      jump\t// out\n        /* \"#utility.yul\":11048:11506   */\n    tag_166:\n        /* \"#utility.yul\":11135:11141   */\n      0x00\n        /* \"#utility.yul\":11143:11149   */\n      dup1\n        /* \"#utility.yul\":11151:11157   */\n      0x00\n        /* \"#utility.yul\":11204:11206   */\n      0x60\n        /* \"#utility.yul\":11192:11201   */\n      dup5\n        /* \"#utility.yul\":11183:11190   */\n      dup7\n        /* \"#utility.yul\":11179:11202   */\n      sub\n        /* \"#utility.yul\":11175:11207   */\n      slt\n        /* \"#utility.yul\":11172:11224   */\n      iszero\n      tag_620\n      jumpi\n        /* \"#utility.yul\":11220:11221   */\n      0x00\n        /* \"#utility.yul\":11217:11218   */\n      dup1\n        /* \"#utility.yul\":11210:11222   */\n      revert\n        /* \"#utility.yul\":11172:11224   */\n    tag_620:\n        /* \"#utility.yul\":11256:11265   */\n      dup4\n        /* \"#utility.yul\":11243:11266   */\n      calldataload\n        /* \"#utility.yul\":11233:11266   */\n      swap3\n      pop\n        /* \"#utility.yul\":11313:11315   */\n      0x20\n        /* \"#utility.yul\":11302:11311   */\n      dup5\n        /* \"#utility.yul\":11298:11316   */\n      add\n        /* \"#utility.yul\":11285:11317   */\n      calldataload\n        /* \"#utility.yul\":11275:11317   */\n      swap2\n      pop\n        /* \"#utility.yul\":11368:11370   */\n      0x40\n        /* \"#utility.yul\":11357:11366   */\n      dup5\n        /* \"#utility.yul\":11353:11371   */\n      add\n        /* \"#utility.yul\":11340:11372   */\n      calldataload\n        /* \"#utility.yul\":11395:11413   */\n      0xffffffffffffffff\n        /* \"#utility.yul\":11387:11393   */\n      dup2\n        /* \"#utility.yul\":11384:11414   */\n      gt\n        /* \"#utility.yul\":11381:11431   */\n      iszero\n      tag_621\n      jumpi\n        /* \"#utility.yul\":11427:11428   */\n      0x00\n        /* \"#utility.yul\":11424:11425   */\n      dup1\n        /* \"#utility.yul\":11417:11429   */\n      revert\n        /* \"#utility.yul\":11381:11431   */\n    tag_621:\n        /* \"#utility.yul\":11450:11500   */\n      tag_622\n        /* \"#utility.yul\":11492:11499   */\n      dup7\n        /* \"#utility.yul\":11483:11489   */\n      dup3\n        /* \"#utility.yul\":11472:11481   */\n      dup8\n        /* \"#utility.yul\":11468:11490   */\n      add\n        /* \"#utility.yul\":11450:11500   */\n      tag_549\n      jump\t// in\n    tag_622:\n        /* \"#utility.yul\":11440:11500   */\n      swap2\n      pop\n      pop\n        /* \"#utility.yul\":11048:11506   */\n      swap3\n      pop\n      swap3\n      pop\n      swap3\n      jump\t// out\n        /* \"#utility.yul\":11511:11771   */\n    tag_170:\n        /* \"#utility.yul\":11579:11585   */\n      0x00\n        /* \"#utility.yul\":11587:11593   */\n      dup1\n        /* \"#utility.yul\":11640:11642   */\n      0x40\n        /* \"#utility.yul\":11628:11637   */\n      dup4\n        /* \"#utility.yul\":11619:11626   */\n      dup6\n        /* \"#utility.yul\":11615:11638   */\n      sub\n        /* \"#utility.yul\":11611:11643   */\n      slt\n        /* \"#utility.yul\":11608:11660   */\n      iszero\n      tag_624\n      jumpi\n        /* \"#utility.yul\":11656:11657   */\n      0x00\n        /* \"#utility.yul\":11653:11654   */\n      dup1\n        /* \"#utility.yul\":11646:11658   */\n      revert\n        /* \"#utility.yul\":11608:11660   */\n    tag_624:\n        /* \"#utility.yul\":11679:11708   */\n      tag_625\n        /* \"#utility.yul\":11698:11707   */\n      dup4\n        /* \"#utility.yul\":11679:11708   */\n      tag_546\n      jump\t// in\n    tag_625:\n        /* \"#utility.yul\":11669:11708   */\n      swap2\n      pop\n        /* \"#utility.yul\":11727:11765   */\n      tag_626\n        /* \"#utility.yul\":11761:11763   */\n      0x20\n        /* \"#utility.yul\":11750:11759   */\n      dup5\n        /* \"#utility.yul\":11746:11764   */\n      add\n        /* \"#utility.yul\":11727:11765   */\n      tag_546\n      jump\t// in\n    tag_626:\n        /* \"#utility.yul\":11717:11765   */\n      swap1\n      pop\n        /* \"#utility.yul\":11511:11771   */\n      swap3\n      pop\n      swap3\n      swap1\n      pop\n      jump\t// out\n        /* \"#utility.yul\":11776:12785   */\n    tag_185:\n        /* \"#utility.yul\":12142:12146   */\n      0x00\n        /* \"#utility.yul\":12171:12174   */\n      0x0140\n        /* \"#utility.yul\":12201:12207   */\n      dup13\n        /* \"#utility.yul\":12190:12199   */\n      dup4\n        /* \"#utility.yul\":12183:12208   */\n      mstore\n        /* \"#utility.yul\":12244:12250   */\n      dup12\n        /* \"#utility.yul\":12239:12241   */\n      0x20\n        /* \"#utility.yul\":12228:12237   */\n      dup5\n        /* \"#utility.yul\":12224:12242   */\n      add\n        /* \"#utility.yul\":12217:12251   */\n      mstore\n        /* \"#utility.yul\":12287:12293   */\n      dup11\n        /* \"#utility.yul\":12282:12284   */\n      0x40\n        /* \"#utility.yul\":12271:12280   */\n      dup5\n        /* \"#utility.yul\":12267:12285   */\n      add\n        /* \"#utility.yul\":12260:12294   */\n      mstore\n        /* \"#utility.yul\":12330:12336   */\n      dup10\n        /* \"#utility.yul\":12325:12327   */\n      0x60\n        /* \"#utility.yul\":12314:12323   */\n      dup5\n        /* \"#utility.yul\":12310:12328   */\n      add\n        /* \"#utility.yul\":12303:12337   */\n      mstore\n        /* \"#utility.yul\":12388:12394   */\n      dup9\n        /* \"#utility.yul\":12381:12395   */\n      iszero\n        /* \"#utility.yul\":12374:12396   */\n      iszero\n        /* \"#utility.yul\":12368:12371   */\n      0x80\n        /* \"#utility.yul\":12357:12366   */\n      dup5\n        /* \"#utility.yul\":12353:12372   */\n      add\n        /* \"#utility.yul\":12346:12397   */\n      mstore\n        /* \"#utility.yul\":12434:12440   */\n      dup8\n        /* \"#utility.yul\":12428:12431   */\n      0xa0\n        /* \"#utility.yul\":12417:12426   */\n      dup5\n        /* \"#utility.yul\":12413:12432   */\n      add\n        /* \"#utility.yul\":12406:12441   */\n      mstore\n        /* \"#utility.yul\":12492:12498   */\n      dup7\n        /* \"#utility.yul\":12485:12499   */\n      iszero\n        /* \"#utility.yul\":12478:12500   */\n      iszero\n        /* \"#utility.yul\":12472:12475   */\n      0xc0\n        /* \"#utility.yul\":12461:12470   */\n      dup5\n        /* \"#utility.yul\":12457:12476   */\n      add\n        /* \"#utility.yul\":12450:12501   */\n      mstore\n        /* \"#utility.yul\":12538:12540   */\n      dup1\n        /* \"#utility.yul\":12532:12535   */\n      0xe0\n        /* \"#utility.yul\":12521:12530   */\n      dup5\n        /* \"#utility.yul\":12517:12536   */\n      add\n        /* \"#utility.yul\":12510:12541   */\n      mstore\n        /* \"#utility.yul\":12564:12609   */\n      tag_628\n        /* \"#utility.yul\":12605:12607   */\n      dup2\n        /* \"#utility.yul\":12594:12603   */\n      dup5\n        /* \"#utility.yul\":12590:12608   */\n      add\n        /* \"#utility.yul\":12582:12588   */\n      dup8\n        /* \"#utility.yul\":12564:12609   */\n      tag_547\n      jump\t// in\n    tag_628:\n        /* \"#utility.yul\":12550:12609   */\n      swap1\n      pop\n        /* \"#utility.yul\":12660:12666   */\n      dup5\n        /* \"#utility.yul\":12653:12667   */\n      iszero\n        /* \"#utility.yul\":12646:12668   */\n      iszero\n        /* \"#utility.yul\":12640:12643   */\n      0x0100\n        /* \"#utility.yul\":12629:12638   */\n      dup5\n        /* \"#utility.yul\":12625:12644   */\n      add\n        /* \"#utility.yul\":12618:12669   */\n      mstore\n        /* \"#utility.yul\":12718:12727   */\n      dup3\n        /* \"#utility.yul\":12710:12716   */\n      dup2\n        /* \"#utility.yul\":12706:12728   */\n      sub\n        /* \"#utility.yul\":12700:12703   */\n      0x0120\n        /* \"#utility.yul\":12689:12698   */\n      dup5\n        /* \"#utility.yul\":12685:12704   */\n      add\n        /* \"#utility.yul\":12678:12729   */\n      mstore\n        /* \"#utility.yul\":12746:12779   */\n      tag_629\n        /* \"#utility.yul\":12772:12778   */\n      dup2\n        /* \"#utility.yul\":12764:12770   */\n      dup6\n        /* \"#utility.yul\":12746:12779   */\n      tag_547\n      jump\t// in\n    tag_629:\n        /* \"#utility.yul\":12738:12779   */\n      swap14\n        /* \"#utility.yul\":11776:12785   */\n      swap13\n      pop\n      pop\n      pop\n      pop\n      pop\n      pop\n      pop\n      pop\n      pop\n      pop\n      pop\n      pop\n      pop\n      jump\t// out\n        /* \"#utility.yul\":12790:12917   */\n    tag_202:\n        /* \"#utility.yul\":12851:12861   */\n      0x4e487b71\n        /* \"#utility.yul\":12846:12849   */\n      0xe0\n        /* \"#utility.yul\":12842:12862   */\n      shl\n        /* \"#utility.yul\":12839:12840   */\n      0x00\n        /* \"#utility.yul\":12832:12863   */\n      mstore\n        /* \"#utility.yul\":12882:12886   */\n      0x32\n        /* \"#utility.yul\":12879:12880   */\n      0x04\n        /* \"#utility.yul\":12872:12887   */\n      mstore\n        /* \"#utility.yul\":12906:12910   */\n      0x24\n        /* \"#utility.yul\":12903:12904   */\n      0x00\n        /* \"#utility.yul\":12896:12911   */\n      revert\n        /* \"#utility.yul\":12922:13049   */\n    tag_550:\n        /* \"#utility.yul\":12983:12993   */\n      0x4e487b71\n        /* \"#utility.yul\":12978:12981   */\n      0xe0\n        /* \"#utility.yul\":12974:12994   */\n      shl\n        /* \"#utility.yul\":12971:12972   */\n      0x00\n        /* \"#utility.yul\":12964:12995   */\n      mstore\n        /* \"#utility.yul\":13014:13018   */\n      0x11\n        /* \"#utility.yul\":13011:13012   */\n      0x04\n        /* \"#utility.yul\":13004:13019   */\n      mstore\n        /* \"#utility.yul\":13038:13042   */\n      0x24\n        /* \"#utility.yul\":13035:13036   */\n      0x00\n        /* \"#utility.yul\":13028:13043   */\n      revert\n        /* \"#utility.yul\":13054:13179   */\n    tag_205:\n        /* \"#utility.yul\":13119:13128   */\n      dup1\n      dup3\n      add\n        /* \"#utility.yul\":13140:13150   */\n      dup1\n      dup3\n      gt\n        /* \"#utility.yul\":13137:13173   */\n      iszero\n      tag_634\n      jumpi\n        /* \"#utility.yul\":13153:13171   */\n      tag_634\n      tag_550\n      jump\t// in\n    tag_634:\n        /* \"#utility.yul\":13054:13179   */\n      swap3\n      swap2\n      pop\n      pop\n      jump\t// out\n        /* \"#utility.yul\":13184:13564   */\n    tag_229:\n        /* \"#utility.yul\":13263:13264   */\n      0x01\n        /* \"#utility.yul\":13259:13271   */\n      dup2\n      dup2\n      shr\n      swap1\n        /* \"#utility.yul\":13306:13318   */\n      dup3\n      and\n      dup1\n        /* \"#utility.yul\":13327:13388   */\n      tag_636\n      jumpi\n        /* \"#utility.yul\":13381:13385   */\n      0x7f\n        /* \"#utility.yul\":13373:13379   */\n      dup3\n        /* \"#utility.yul\":13369:13386   */\n      and\n        /* \"#utility.yul\":13359:13386   */\n      swap2\n      pop\n        /* \"#utility.yul\":13327:13388   */\n    tag_636:\n        /* \"#utility.yul\":13434:13436   */\n      0x20\n        /* \"#utility.yul\":13426:13432   */\n      dup3\n        /* \"#utility.yul\":13423:13437   */\n      lt\n        /* \"#utility.yul\":13403:13421   */\n      dup2\n        /* \"#utility.yul\":13400:13438   */\n      sub\n        /* \"#utility.yul\":13397:13558   */\n      tag_637\n      jumpi\n        /* \"#utility.yul\":13480:13490   */\n      0x4e487b71\n        /* \"#utility.yul\":13475:13478   */\n      0xe0\n        /* \"#utility.yul\":13471:13491   */\n      shl\n        /* \"#utility.yul\":13468:13469   */\n      0x00\n        /* \"#utility.yul\":13461:13492   */\n      mstore\n        /* \"#utility.yul\":13515:13519   */\n      0x22\n        /* \"#utility.yul\":13512:13513   */\n      0x04\n        /* \"#utility.yul\":13505:13520   */\n      mstore\n        /* \"#utility.yul\":13543:13547   */\n      0x24\n        /* \"#utility.yul\":13540:13541   */\n      0x00\n        /* \"#utility.yul\":13533:13548   */\n      revert\n        /* \"#utility.yul\":13397:13558   */\n    tag_637:\n      pop\n        /* \"#utility.yul\":13184:13564   */\n      swap2\n      swap1\n      pop\n      jump\t// out\n        /* \"#utility.yul\":13569:13704   */\n    tag_237:\n        /* \"#utility.yul\":13608:13611   */\n      0x00\n        /* \"#utility.yul\":13629:13646   */\n      0x01\n      dup3\n      add\n        /* \"#utility.yul\":13626:13669   */\n      tag_640\n      jumpi\n        /* \"#utility.yul\":13649:13667   */\n      tag_640\n      tag_550\n      jump\t// in\n    tag_640:\n      pop\n        /* \"#utility.yul\":13696:13697   */\n      0x01\n        /* \"#utility.yul\":13685:13698   */\n      add\n      swap1\n        /* \"#utility.yul\":13569:13704   */\n      jump\t// out\n        /* \"#utility.yul\":13709:14038   */\n    tag_241:\n        /* \"#utility.yul\":13911:13913   */\n      0x20\n        /* \"#utility.yul\":13893:13914   */\n      dup1\n      dup3\n      mstore\n        /* \"#utility.yul\":13950:13951   */\n      0x06\n        /* \"#utility.yul\":13930:13948   */\n      swap1\n      dup3\n      add\n        /* \"#utility.yul\":13923:13952   */\n      mstore\n      shl(0xd1, 0x10b7bbb732b9)\n        /* \"#utility.yul\":13983:13985   */\n      0x40\n        /* \"#utility.yul\":13968:13986   */\n      dup3\n      add\n        /* \"#utility.yul\":13961:13997   */\n      mstore\n        /* \"#utility.yul\":14029:14031   */\n      0x60\n        /* \"#utility.yul\":14014:14032   */\n      add\n      swap1\n        /* \"#utility.yul\":13709:14038   */\n      jump\t// out\n        /* \"#utility.yul\":14450:14795   */\n    tag_252:\n        /* \"#utility.yul\":14652:14654   */\n      0x20\n        /* \"#utility.yul\":14634:14655   */\n      dup1\n      dup3\n      mstore\n        /* \"#utility.yul\":14691:14693   */\n      0x15\n        /* \"#utility.yul\":14671:14689   */\n      swap1\n      dup3\n      add\n        /* \"#utility.yul\":14664:14694   */\n      mstore\n      shl(0x5a, 0x10dc99591a5d08191bd95cc81b9bdd08195e1a5cdd)\n        /* \"#utility.yul\":14725:14727   */\n      0x40\n        /* \"#utility.yul\":14710:14728   */\n      dup3\n      add\n        /* \"#utility.yul\":14703:14754   */\n      mstore\n        /* \"#utility.yul\":14786:14788   */\n      0x60\n        /* \"#utility.yul\":14771:14789   */\n      add\n      swap1\n        /* \"#utility.yul\":14450:14795   */\n      jump\t// out\n        /* \"#utility.yul\":15146:15492   */\n    tag_258:\n        /* \"#utility.yul\":15348:15350   */\n      0x20\n        /* \"#utility.yul\":15330:15351   */\n      dup1\n      dup3\n      mstore\n        /* \"#utility.yul\":15387:15389   */\n      0x16\n        /* \"#utility.yul\":15367:15385   */\n      swap1\n      dup3\n      add\n        /* \"#utility.yul\":15360:15390   */\n      mstore\n      shl(0x52, 0x10dc99591a5d08185b1c9958591e481c995d9bdad959)\n        /* \"#utility.yul\":15421:15423   */\n      0x40\n        /* \"#utility.yul\":15406:15424   */\n      dup3\n      add\n        /* \"#utility.yul\":15399:15451   */\n      mstore\n        /* \"#utility.yul\":15483:15485   */\n      0x60\n        /* \"#utility.yul\":15468:15486   */\n      add\n      swap1\n        /* \"#utility.yul\":15146:15492   */\n      jump\t// out\n        /* \"#utility.yul\":15908:16247   */\n    tag_267:\n        /* \"#utility.yul\":16110:16112   */\n      0x20\n        /* \"#utility.yul\":16092:16113   */\n      dup1\n      dup3\n      mstore\n        /* \"#utility.yul\":16149:16151   */\n      0x0f\n        /* \"#utility.yul\":16129:16147   */\n      swap1\n      dup3\n      add\n        /* \"#utility.yul\":16122:16152   */\n      mstore\n      shl(0x88, 0x496e76616c69642061646472657373)\n        /* \"#utility.yul\":16183:16185   */\n      0x40\n        /* \"#utility.yul\":16168:16186   */\n      dup3\n      add\n        /* \"#utility.yul\":16161:16206   */\n      mstore\n        /* \"#utility.yul\":16238:16240   */\n      0x60\n        /* \"#utility.yul\":16223:16241   */\n      add\n      swap1\n        /* \"#utility.yul\":15908:16247   */\n      jump\t// out\n        /* \"#utility.yul\":17785:17953   */\n    tag_340:\n        /* \"#utility.yul\":17858:17867   */\n      dup1\n      dup3\n      mul\n        /* \"#utility.yul\":17889:17898   */\n      dup2\n      iszero\n        /* \"#utility.yul\":17906:17921   */\n      dup3\n      dup3\n      div\n        /* \"#utility.yul\":17900:17922   */\n      dup5\n      eq\n        /* \"#utility.yul\":17886:17923   */\n      or\n        /* \"#utility.yul\":17876:17947   */\n      tag_634\n      jumpi\n        /* \"#utility.yul\":17927:17945   */\n      tag_634\n      tag_550\n      jump\t// in\n        /* \"#utility.yul\":18084:18602   */\n    tag_552:\n        /* \"#utility.yul\":18186:18188   */\n      0x1f\n        /* \"#utility.yul\":18181:18184   */\n      dup3\n        /* \"#utility.yul\":18178:18189   */\n      gt\n        /* \"#utility.yul\":18175:18596   */\n      iszero\n      tag_657\n      jumpi\n        /* \"#utility.yul\":18222:18227   */\n      dup1\n        /* \"#utility.yul\":18219:18220   */\n      0x00\n        /* \"#utility.yul\":18212:18228   */\n      mstore\n        /* \"#utility.yul\":18266:18270   */\n      0x20\n        /* \"#utility.yul\":18263:18264   */\n      0x00\n        /* \"#utility.yul\":18253:18271   */\n      keccak256\n        /* \"#utility.yul\":18336:18338   */\n      0x1f\n        /* \"#utility.yul\":18324:18334   */\n      dup5\n        /* \"#utility.yul\":18320:18339   */\n      add\n        /* \"#utility.yul\":18317:18318   */\n      0x05\n        /* \"#utility.yul\":18313:18340   */\n      shr\n        /* \"#utility.yul\":18307:18311   */\n      dup2\n        /* \"#utility.yul\":18303:18341   */\n      add\n        /* \"#utility.yul\":18372:18376   */\n      0x20\n        /* \"#utility.yul\":18360:18370   */\n      dup6\n        /* \"#utility.yul\":18357:18377   */\n      lt\n        /* \"#utility.yul\":18354:18401   */\n      iszero\n      tag_658\n      jumpi\n      pop\n        /* \"#utility.yul\":18395:18399   */\n      dup1\n        /* \"#utility.yul\":18354:18401   */\n    tag_658:\n        /* \"#utility.yul\":18450:18452   */\n      0x1f\n        /* \"#utility.yul\":18445:18448   */\n      dup5\n        /* \"#utility.yul\":18441:18453   */\n      add\n        /* \"#utility.yul\":18438:18439   */\n      0x05\n        /* \"#utility.yul\":18434:18454   */\n      shr\n        /* \"#utility.yul\":18428:18432   */\n      dup3\n        /* \"#utility.yul\":18424:18455   */\n      add\n        /* \"#utility.yul\":18414:18455   */\n      swap2\n      pop\n        /* \"#utility.yul\":18505:18586   */\n    tag_659:\n        /* \"#utility.yul\":18523:18525   */\n      dup2\n        /* \"#utility.yul\":18516:18521   */\n      dup2\n        /* \"#utility.yul\":18513:18526   */\n      lt\n        /* \"#utility.yul\":18505:18586   */\n      iszero\n      tag_661\n      jumpi\n        /* \"#utility.yul\":18582:18583   */\n      0x00\n        /* \"#utility.yul\":18568:18584   */\n      dup2\n      sstore\n        /* \"#utility.yul\":18549:18550   */\n      0x01\n        /* \"#utility.yul\":18538:18551   */\n      add\n        /* \"#utility.yul\":18505:18586   */\n      jump(tag_659)\n    tag_661:\n        /* \"#utility.yul\":18509:18512   */\n      pop\n      pop\n        /* \"#utility.yul\":18175:18596   */\n    tag_657:\n        /* \"#utility.yul\":18084:18602   */\n      pop\n      pop\n      pop\n      jump\t// out\n        /* \"#utility.yul\":18778:20123   */\n    tag_342:\n        /* \"#utility.yul\":18904:18907   */\n      dup2\n        /* \"#utility.yul\":18898:18908   */\n      mload\n        /* \"#utility.yul\":18931:18949   */\n      0xffffffffffffffff\n        /* \"#utility.yul\":18923:18929   */\n      dup2\n        /* \"#utility.yul\":18920:18950   */\n      gt\n        /* \"#utility.yul\":18917:18973   */\n      iszero\n      tag_665\n      jumpi\n        /* \"#utility.yul\":18953:18971   */\n      tag_665\n      tag_208\n      jump\t// in\n    tag_665:\n        /* \"#utility.yul\":18982:19079   */\n      tag_666\n        /* \"#utility.yul\":19072:19078   */\n      dup2\n        /* \"#utility.yul\":19032:19070   */\n      tag_667\n        /* \"#utility.yul\":19064:19068   */\n      dup5\n        /* \"#utility.yul\":19058:19069   */\n      sload\n        /* \"#utility.yul\":19032:19070   */\n      tag_229\n      jump\t// in\n    tag_667:\n        /* \"#utility.yul\":19026:19030   */\n      dup5\n        /* \"#utility.yul\":18982:19079   */\n      tag_552\n      jump\t// in\n    tag_666:\n        /* \"#utility.yul\":19134:19138   */\n      0x20\n      dup1\n        /* \"#utility.yul\":19191:19193   */\n      0x1f\n        /* \"#utility.yul\":19180:19194   */\n      dup4\n      gt\n        /* \"#utility.yul\":19208:19209   */\n      0x01\n        /* \"#utility.yul\":19203:19866   */\n      dup2\n      eq\n      tag_669\n      jumpi\n        /* \"#utility.yul\":19910:19911   */\n      0x00\n        /* \"#utility.yul\":19927:19933   */\n      dup5\n        /* \"#utility.yul\":19924:20013   */\n      iszero\n      tag_670\n      jumpi\n      pop\n        /* \"#utility.yul\":19979:19998   */\n      dup6\n      dup4\n      add\n        /* \"#utility.yul\":19973:19999   */\n      mload\n        /* \"#utility.yul\":19924:20013   */\n    tag_670:\n      not(0x00)\n        /* \"#utility.yul\":18735:18736   */\n      0x03\n        /* \"#utility.yul\":18731:18742   */\n      dup7\n      swap1\n      shl\n        /* \"#utility.yul\":18727:18751   */\n      shr\n        /* \"#utility.yul\":18723:18752   */\n      not\n        /* \"#utility.yul\":18713:18753   */\n      and\n        /* \"#utility.yul\":18759:18760   */\n      0x01\n        /* \"#utility.yul\":18755:18766   */\n      dup6\n      swap1\n      shl\n        /* \"#utility.yul\":18710:18767   */\n      or\n        /* \"#utility.yul\":20026:20107   */\n      dup6\n      sstore\n        /* \"#utility.yul\":19173:20117   */\n      jump(tag_668)\n        /* \"#utility.yul\":19203:19866   */\n    tag_669:\n        /* \"#utility.yul\":18031:18032   */\n      0x00\n        /* \"#utility.yul\":18024:18038   */\n      dup6\n      dup2\n      mstore\n        /* \"#utility.yul\":18068:18072   */\n      0x20\n        /* \"#utility.yul\":18055:18073   */\n      dup2\n      keccak256\n      not(0x1f)\n        /* \"#utility.yul\":19239:19259   */\n      dup7\n      and\n      swap2\n        /* \"#utility.yul\":19357:19593   */\n    tag_673:\n        /* \"#utility.yul\":19371:19378   */\n      dup3\n        /* \"#utility.yul\":19368:19369   */\n      dup2\n        /* \"#utility.yul\":19365:19379   */\n      lt\n        /* \"#utility.yul\":19357:19593   */\n      iszero\n      tag_675\n      jumpi\n        /* \"#utility.yul\":19460:19479   */\n      dup9\n      dup7\n      add\n        /* \"#utility.yul\":19454:19480   */\n      mload\n        /* \"#utility.yul\":19439:19481   */\n      dup3\n      sstore\n        /* \"#utility.yul\":19552:19579   */\n      swap5\n      dup5\n      add\n      swap5\n        /* \"#utility.yul\":19520:19521   */\n      0x01\n        /* \"#utility.yul\":19508:19522   */\n      swap1\n      swap2\n      add\n      swap1\n        /* \"#utility.yul\":19387:19406   */\n      dup5\n      add\n        /* \"#utility.yul\":19357:19593   */\n      jump(tag_673)\n    tag_675:\n        /* \"#utility.yul\":19361:19364   */\n      pop\n        /* \"#utility.yul\":19621:19627   */\n      dup6\n        /* \"#utility.yul\":19612:19619   */\n      dup3\n        /* \"#utility.yul\":19609:19628   */\n      lt\n        /* \"#utility.yul\":19606:19807   */\n      iszero\n      tag_676\n      jumpi\n        /* \"#utility.yul\":19682:19701   */\n      dup8\n      dup6\n      add\n        /* \"#utility.yul\":19676:19702   */\n      mload\n      not(0x00)\n        /* \"#utility.yul\":19765:19766   */\n      0x03\n        /* \"#utility.yul\":19761:19775   */\n      dup9\n      swap1\n      shl\n        /* \"#utility.yul\":19777:19780   */\n      0xf8\n        /* \"#utility.yul\":19757:19781   */\n      and\n        /* \"#utility.yul\":19753:19790   */\n      shr\n        /* \"#utility.yul\":19749:19791   */\n      not\n        /* \"#utility.yul\":19734:19792   */\n      and\n        /* \"#utility.yul\":19719:19793   */\n      dup2\n      sstore\n        /* \"#utility.yul\":19606:19807   */\n    tag_676:\n      pop\n      pop\n        /* \"#utility.yul\":19853:19854   */\n      0x01\n        /* \"#utility.yul\":19844:19850   */\n      dup5\n        /* \"#utility.yul\":19841:19842   */\n      0x01\n        /* \"#utility.yul\":19837:19851   */\n      shl\n        /* \"#utility.yul\":19833:19855   */\n      add\n        /* \"#utility.yul\":19827:19831   */\n      dup6\n        /* \"#utility.yul\":19820:19856   */\n      sstore\n        /* \"#utility.yul\":19173:20117   */\n    tag_668:\n      pop\n      pop\n      pop\n      pop\n        /* \"#utility.yul\":18778:20123   */\n      pop\n      pop\n      jump\t// out\n        /* \"#utility.yul\":20478:20614   */\n    tag_350:\n        /* \"#utility.yul\":20517:20520   */\n      0x00\n        /* \"#utility.yul\":20545:20550   */\n      dup2\n        /* \"#utility.yul\":20535:20574   */\n      tag_680\n      jumpi\n        /* \"#utility.yul\":20554:20572   */\n      tag_680\n      tag_550\n      jump\t// in\n    tag_680:\n      pop\n      not(0x00)\n        /* \"#utility.yul\":20590:20608   */\n      add\n      swap1\n        /* \"#utility.yul\":20478:20614   */\n      jump\t// out\n        /* \"#utility.yul\":23547:24974   */\n    tag_510:\n        /* \"#utility.yul\":23666:23669   */\n      dup2\n        /* \"#utility.yul\":23660:23664   */\n      dup2\n        /* \"#utility.yul\":23657:23670   */\n      sub\n        /* \"#utility.yul\":23654:23680   */\n      tag_690\n      jumpi\n        /* \"#utility.yul\":23673:23678   */\n      pop\n      pop\n        /* \"#utility.yul\":23547:24974   */\n      jump\t// out\n        /* \"#utility.yul\":23654:23680   */\n    tag_690:\n        /* \"#utility.yul\":23703:23740   */\n      tag_691\n        /* \"#utility.yul\":23735:23738   */\n      dup3\n        /* \"#utility.yul\":23729:23739   */\n      sload\n        /* \"#utility.yul\":23703:23740   */\n      tag_229\n      jump\t// in\n    tag_691:\n        /* \"#utility.yul\":23763:23781   */\n      0xffffffffffffffff\n        /* \"#utility.yul\":23755:23761   */\n      dup2\n        /* \"#utility.yul\":23752:23782   */\n      gt\n        /* \"#utility.yul\":23749:23805   */\n      iszero\n      tag_693\n      jumpi\n        /* \"#utility.yul\":23785:23803   */\n      tag_693\n      tag_208\n      jump\t// in\n    tag_693:\n        /* \"#utility.yul\":23814:23911   */\n      tag_694\n        /* \"#utility.yul\":23904:23910   */\n      dup2\n        /* \"#utility.yul\":23864:23902   */\n      tag_667\n        /* \"#utility.yul\":23896:23900   */\n      dup5\n        /* \"#utility.yul\":23890:23901   */\n      sload\n        /* \"#utility.yul\":23864:23902   */\n      tag_229\n      jump\t// in\n        /* \"#utility.yul\":23814:23911   */\n    tag_694:\n        /* \"#utility.yul\":23937:23938   */\n      0x00\n        /* \"#utility.yul\":23965:23967   */\n      0x1f\n        /* \"#utility.yul\":23957:23963   */\n      dup3\n        /* \"#utility.yul\":23954:23968   */\n      gt\n        /* \"#utility.yul\":23982:23983   */\n      0x01\n        /* \"#utility.yul\":23977:24717   */\n      dup2\n      eq\n      tag_697\n      jumpi\n        /* \"#utility.yul\":24761:24762   */\n      0x00\n        /* \"#utility.yul\":24778:24784   */\n      dup4\n        /* \"#utility.yul\":24775:24864   */\n      iszero\n      tag_698\n      jumpi\n      pop\n        /* \"#utility.yul\":24830:24849   */\n      dup5\n      dup3\n      add\n        /* \"#utility.yul\":24824:24850   */\n      sload\n        /* \"#utility.yul\":24775:24864   */\n    tag_698:\n      not(0x00)\n        /* \"#utility.yul\":18735:18736   */\n      0x03\n        /* \"#utility.yul\":18731:18742   */\n      dup6\n      swap1\n      shl\n        /* \"#utility.yul\":18727:18751   */\n      shr\n        /* \"#utility.yul\":18723:18752   */\n      not\n        /* \"#utility.yul\":18713:18753   */\n      and\n        /* \"#utility.yul\":18759:18760   */\n      0x01\n        /* \"#utility.yul\":18755:18766   */\n      dup5\n      swap1\n      shl\n        /* \"#utility.yul\":18710:18767   */\n      or\n        /* \"#utility.yul\":24877:24958   */\n      dup5\n      sstore\n        /* \"#utility.yul\":23947:24968   */\n      jump(tag_661)\n        /* \"#utility.yul\":23977:24717   */\n    tag_697:\n        /* \"#utility.yul\":18031:18032   */\n      0x00\n        /* \"#utility.yul\":18024:18038   */\n      dup6\n      dup2\n      mstore\n        /* \"#utility.yul\":18068:18072   */\n      0x20\n        /* \"#utility.yul\":18055:18073   */\n      dup1\n      dup3\n      keccak256\n        /* \"#utility.yul\":18024:18038   */\n      dup7\n      dup4\n      mstore\n        /* \"#utility.yul\":18055:18073   */\n      swap1\n      dup3\n      keccak256\n      not(0x1f)\n        /* \"#utility.yul\":24013:24033   */\n      dup7\n      and\n      swap3\n        /* \"#utility.yul\":24191:24442   */\n    tag_702:\n        /* \"#utility.yul\":24205:24212   */\n      dup4\n        /* \"#utility.yul\":24202:24203   */\n      dup2\n        /* \"#utility.yul\":24199:24213   */\n      lt\n        /* \"#utility.yul\":24191:24442   */\n      iszero\n      tag_704\n      jumpi\n        /* \"#utility.yul\":24287:24308   */\n      dup3\n      dup7\n      add\n        /* \"#utility.yul\":24281:24309   */\n      sload\n        /* \"#utility.yul\":24266:24310   */\n      dup3\n      sstore\n        /* \"#utility.yul\":24337:24338   */\n      0x01\n        /* \"#utility.yul\":24410:24428   */\n      swap6\n      dup7\n      add\n      swap6\n        /* \"#utility.yul\":24365:24380   */\n      swap1\n      swap2\n      add\n      swap1\n        /* \"#utility.yul\":24228:24232   */\n      0x20\n        /* \"#utility.yul\":24221:24233   */\n      add\n        /* \"#utility.yul\":24191:24442   */\n      jump(tag_702)\n    tag_704:\n        /* \"#utility.yul\":24195:24198   */\n      pop\n        /* \"#utility.yul\":24470:24476   */\n      dup6\n        /* \"#utility.yul\":24461:24468   */\n      dup4\n        /* \"#utility.yul\":24458:24477   */\n      lt\n        /* \"#utility.yul\":24455:24658   */\n      iszero\n      tag_705\n      jumpi\n        /* \"#utility.yul\":24531:24552   */\n      dup2\n      dup6\n      add\n        /* \"#utility.yul\":24525:24553   */\n      sload\n      not(0x00)\n        /* \"#utility.yul\":24616:24617   */\n      0x03\n        /* \"#utility.yul\":24612:24626   */\n      dup9\n      swap1\n      shl\n        /* \"#utility.yul\":24628:24631   */\n      0xf8\n        /* \"#utility.yul\":24608:24632   */\n      and\n        /* \"#utility.yul\":24604:24641   */\n      shr\n        /* \"#utility.yul\":24600:24642   */\n      not\n        /* \"#utility.yul\":24585:24643   */\n      and\n        /* \"#utility.yul\":24570:24644   */\n      dup2\n      sstore\n        /* \"#utility.yul\":24455:24658   */\n    tag_705:\n      pop\n      pop\n      pop\n      pop\n      pop\n        /* \"#utility.yul\":24704:24705   */\n      0x01\n        /* \"#utility.yul\":24688:24702   */\n      swap1\n      dup2\n      shl\n        /* \"#utility.yul\":24684:24706   */\n      add\n        /* \"#utility.yul\":24671:24707   */\n      swap1\n      sstore\n      pop\n        /* \"#utility.yul\":23547:24974   */\n      jump\t// out\n    stop\n    data_3a8ed4189e30c6abc26df6d93d70a72c91c7816be8f5bac91038d7c02353b33e 6f6e6c7920746f7061646d696e206f722061646d696e2063616e2063616c6c20\n\n    auxdata: 0xa264697066735822122033ee10a8ca932ff93677716a9efbfbb39e4f07545ff1cf39eebd77543ce67d0864736f6c63430008190033\n}\n",
				"bytecode": {
					"linkReferences": {},
					"object": "6080604052348015600e575f80fd5b505f80546001600160a01b031916339081178255604051909182917f8be0079c531659141344cd1fd0a4f28419497f9722a3daafe3b4186f6b6457e0908290a3506134048061005c5f395ff3fe608060405234801561000f575f80fd5b506004361061021e575f3560e01c80636b105c811161012a578063b44e7d09116100b4578063e2ed5a4e11610079578063e2ed5a4e1461057a578063f0a47f781461058d578063f2012286146105af578063f2fde38b146105d8578063f99031a7146105eb575f80fd5b8063b44e7d09146104da578063b5fe8d09146104ed578063dba8c55f1461052a578063dcc63a161461053d578063dd62ed3e14610550575f80fd5b80638da5cb5b116100fa5780638da5cb5b14610461578063981059ee14610471578063995975d814610491578063a59742df146104a4578063b264a4a5146104b7575f80fd5b80636b105c81146104205780637048027514610433578063715018a61461044657806375e7c4251461044e575f80fd5b8063416d6499116101ab57806352ff68461161017b57806352ff6846146103b05780635407b304146103c35780635ba75156146103e5578063659cc07b146103f857806368fdbd701461040b575f80fd5b8063416d64991461034e578063426a8493146103635780634708fdd6146103765780634a5ad49e1461038b575f80fd5b806324d7806c116101f157806324d7806c1461029a578063261ca633146102cc57806327f83af9146102f757806339e899ee1461030a5780633bc6e3091461033b575f80fd5b8063041c2ee0146102225780630740c8cf1461025d5780631145d39a146102705780631785f53c14610285575b5f80fd5b61024a610230366004612a93565b6001600160a01b03165f908152600b602052604090205490565b6040519081526020015b60405180910390f35b61024a61026b366004612ab3565b61060d565b610278610638565b6040516102549190612b09565b610298610293366004612a93565b61090f565b005b6102bc6102a8366004612a93565b60016020525f908152604090205460ff1681565b6040519015158152602001610254565b6102df6102da366004612bb7565b610989565b6040516001600160a01b039091168152602001610254565b610298610305366004612ab3565b6109b1565b610298610318366004612a93565b6001600160a01b03165f908152600860205260409020805460ff19166001179055565b610298610349366004612a93565b610ae1565b610356610ba2565b6040516102549190612bce565b6102bc610371366004612cae565b610e13565b61037e610ee4565b6040516102549190612cde565b61039e610399366004612ab3565b610f7c565b60405161025496959493929190612d4c565b6102986103be366004612a93565b611065565b6102bc6103d1366004612bb7565b60076020525f908152604090205460ff1681565b6102986103f3366004612e2d565b611192565b610298610406366004612a93565b61145b565b6104136118f6565b6040516102549190612e8a565b61029861042e366004612ab3565b61194c565b610298610441366004612a93565b611aad565b610298611b24565b61029861045c366004612ecd565b611b95565b5f546001600160a01b03166102df565b61048461047f366004612bb7565b611d77565b6040516102549190612f11565b61029861049f366004612ab3565b611e87565b6102786104b2366004612a93565b611f32565b6104ca6104c5366004612bb7565b6120d7565b6040516102549493929190612f56565b6102986104e8366004612cae565b612185565b6105006104fb366004612ab3565b612320565b604080519485526001600160a01b0390931660208501529183015215156060820152608001610254565b610298610538366004612ab3565b61236e565b61029861054b366004612f81565b61265c565b61024a61055e366004612fcd565b600a60209081525f928352604080842090915290825290205481565b61024a610588366004612bb7565b6127d0565b6102bc61059b366004612a93565b60066020525f908152604090205460ff1681565b6105c26105bd366004612ab3565b6127ef565b6040516102549a99989796959493929190612ffe565b6102986105e6366004612a93565b612964565b6102bc6105f9366004612a93565b60086020525f908152604090205460ff1681565b6005602052815f5260405f208181548110610626575f80fd5b905f5260205f20015f91509150505481565b60605f805b600c5481101561069557600b5f600c838154811061065d5761065d61306e565b5f9182526020808320909101546001600160a01b0316835282019290925260400190205461068b9083613096565b915060010161063d565b505f8167ffffffffffffffff8111156106b0576106b0612d90565b60405190808252806020026020018201604052801561072257816020015b61070f6040518060c001604052805f6001600160a01b031681526020015f8152602001606081526020015f151581526020015f151581526020015f81525090565b8152602001906001900390816106ce5790505b5090505f805b600c54811015610906575f5b600b5f600c848154811061074a5761074a61306e565b5f9182526020808320909101546001600160a01b031683528201929092526040019020548110156108fd57600b5f600c848154811061078b5761078b61306e565b5f9182526020808320909101546001600160a01b0316835282019290925260400190208054829081106107c0576107c061306e565b905f5260205f2090600502016040518060c00160405290815f82015f9054906101000a90046001600160a01b03166001600160a01b03166001600160a01b031681526020016001820154815260200160028201805461081e906130af565b80601f016020809104026020016040519081016040528092919081815260200182805461084a906130af565b80156108955780601f1061086c57610100808354040283529160200191610895565b820191905f5260205f20905b81548152906001019060200180831161087857829003601f168201915b5050509183525050600382015460ff80821615156020840152610100909104161515604082015260049091015460609091015284518590859081106108dc576108dc61306e565b602002602001018190525082806108f2906130e7565b935050600101610734565b50600101610728565b50909392505050565b5f546001600160a01b031633146109415760405162461bcd60e51b8152600401610938906130ff565b60405180910390fd5b6001600160a01b0381165f81815260016020526040808220805460ff19169055517fa3b62bc36326052d97ea62d63c3d60308ed4c3ea8ac079dd8499f1e9c4f80c0f9190a250565b600c8181548110610998575f80fd5b5f918252602090912001546001600160a01b0316905081565b5f546001600160a01b03163314806109dd5750335f9081526001602081905260409091205460ff161515145b610a255760405162461bcd60e51b815260206004820152602660248201525f805160206133af83398151915260448201526518d85b98d95b60d21b6064820152608401610938565b6001600160a01b0382165f9081526004602090815260408083208484529091528120600301549003610a695760405162461bcd60e51b81526004016109389061311f565b6001600160a01b0382165f90815260046020908152604080832084845290915290206006015460ff1615610aaf5760405162461bcd60e51b81526004016109389061314e565b6001600160a01b039091165f90815260046020908152604080832093835292905220600601805460ff19166001179055565b5f546001600160a01b0316331480610b0d5750335f9081526001602081905260409091205460ff161515145b610b595760405162461bcd60e51b815260206004820152602a60248201525f805160206133af83398151915260448201526930b2322a32b0b1b432b960b11b6064820152608401610938565b6001600160a01b038116610b7f5760405162461bcd60e51b81526004016109389061317e565b6001600160a01b03165f908152600660205260409020805460ff19166001179055565b335f908152600560205260409020546060908067ffffffffffffffff811115610bcd57610bcd612d90565b604051908082528060200260200182016040528015610c0657816020015b610bf3612a27565b815260200190600190039081610beb5790505b5091505f5b81811015610e0e57335f908152600560205260408120805483908110610c3357610c3361306e565b5f91825260208083209091015433835260048083526040808520838652845293849020845161014081018652815481526001820154948101949094526002810154948401949094526003840154606084015283015460ff90811615156080840152600584015460a0840152600684015416151560c083015260078301805491945091929160e0840191610cc5906130af565b80601f0160208091040260200160405190810160405280929190818152602001828054610cf1906130af565b8015610d3c5780601f10610d1357610100808354040283529160200191610d3c565b820191905f5260205f20905b815481529060010190602001808311610d1f57829003601f168201915b5050509183525050600882015460ff1615156020820152600982018054604090920191610d68906130af565b80601f0160208091040260200160405190810160405280929190818152602001828054610d94906130af565b8015610ddf5780601f10610db657610100808354040283529160200191610ddf565b820191905f5260205f20905b815481529060010190602001808311610dc257829003601f168201915b505050505081525050848381518110610dfa57610dfa61306e565b602090810291909101015250600101610c0b565b505090565b335f908152600a602090815260408083206001600160a01b03871684529091528120839055805b335f90815260026020526040902054811015610ed957335f908152600260205260409020805484919083908110610e7357610e7361306e565b905f5260205f2090600402015f015403610ed157335f90815260026020526040902080546001919083908110610eab57610eab61306e565b5f9182526020909120600490910201600301805460ff1916911515919091179055610ed9565b600101610e3a565b506001949350505050565b335f908152600260209081526040808320805482518185028101850190935280835260609492939192909184015b82821015610f73575f8481526020908190206040805160808101825260048602909201805483526001808201546001600160a01b0316848601526002820154928401929092526003015460ff16151560608301529083529092019101610f12565b50505050905090565b600b602052815f5260405f208181548110610f95575f80fd5b5f9182526020909120600590910201805460018201546002830180546001600160a01b03909316955090935090610fcb906130af565b80601f0160208091040260200160405190810160405280929190818152602001828054610ff7906130af565b80156110425780601f1061101957610100808354040283529160200191611042565b820191905f5260205f20905b81548152906001019060200180831161102557829003601f168201915b505050506003830154600490930154919260ff8082169361010090920416915086565b5f546001600160a01b03163314806110915750335f9081526001602081905260409091205460ff161515145b6110e05760405162461bcd60e51b815260206004820152602d60248201525f805160206133af83398151915260448201526c3932b6b7bb32aa32b0b1b432b960991b6064820152608401610938565b6001600160a01b0381166111065760405162461bcd60e51b81526004016109389061317e565b6001600160a01b0381165f9081526006602052604090205460ff1615156001146111725760405162461bcd60e51b815260206004820152601960248201527f6164647265737320617265206e6f7420612074656163686572000000000000006044820152606401610938565b6001600160a01b03165f908152600660205260409020805460ff19169055565b5f546001600160a01b03163314806111be5750335f9081526001602081905260409091205460ff161515145b806111dc5750335f9081526006602052604090205460ff1615156001145b6112455760405162461bcd60e51b815260206004820152603460248201527f6f6e6c7920746f7061646d696e206f722061646d696e20746561636865722063604482015273185b8818d85b1b081c9958dbdc9910dc99591a5d60621b6064820152608401610938565b6001600160a01b03841661126b5760405162461bcd60e51b81526004016109389061317e565b5f8381526007602052604090205460ff1615156001146112bf5760405162461bcd60e51b815260206004820152600f60248201526e18dbdd5c9cd9481b9bdd08195e1a5d608a1b6044820152606401610938565b5f838152600360205260408120600201544291603c85106112e7576112e482866131a7565b90505b6040518061014001604052808781526020018281526020018681526020018481526020015f151581526020015f81526020015f151581526020018581526020015f1515815260200160405180602001604052805f81525081525060045f896001600160a01b03166001600160a01b031681526020019081526020015f205f8881526020019081526020015f205f820151815f01556020820151816001015560408201518160020155606082015181600301556080820151816004015f6101000a81548160ff02191690831515021790555060a0820151816005015560c0820151816006015f6101000a81548160ff02191690831515021790555060e08201518160070190816113f6919061320a565b5061010082015160088201805460ff19169115159190911790556101208201516009820190611425908261320a565b5050506001600160a01b039096165f90815260056020908152604082208054600181018255908352912001949094555050505050565b6001600160a01b0381165f908152600a602090815260408083203384529091529020546114c25760405162461bcd60e51b81526020600482015260156024820152741e5bdd48191bc81b9bdd08189948185b1b1bddd959605a1b6044820152606401610938565b6001600160a01b0381165f908152600a6020908152604080832033845290915281208054916114f0836132ca565b90915550506001600160a01b0381165f90815260056020526040812054908167ffffffffffffffff81111561152757611527612d90565b60405190808252806020026020018201604052801561156057816020015b61154d612a27565b8152602001906001900390816115455790505b5090505f5b828110156118f0576001600160a01b0384165f9081526005602052604081208054839081106115965761159661306e565b5f9182526020808320909101546001600160a01b038816835260048083526040808520838652845293849020845161014081018652815481526001820154948101949094526002810154948401949094526003840154606084015283015460ff90811615156080840152600584015460a0840152600684015416151560c083015260078301805491945091929160e0840191611631906130af565b80601f016020809104026020016040519081016040528092919081815260200182805461165d906130af565b80156116a85780601f1061167f576101008083540402835291602001916116a8565b820191905f5260205f20905b81548152906001019060200180831161168b57829003601f168201915b5050509183525050600882015460ff16151560208201526009820180546040909201916116d4906130af565b80601f0160208091040260200160405190810160405280929190818152602001828054611700906130af565b801561174b5780601f106117225761010080835404028352916020019161174b565b820191905f5260205f20905b81548152906001019060200180831161172e57829003601f168201915b5050505050815250508383815181106117665761176661306e565b6020026020010181905250846001600160a01b03167f9cbf22d1e26c3fcde690dd334d1b5eec6973003fd2816d81ef98b31a669cc0d88484815181106117ae576117ae61306e565b60200260200101515f01518585815181106117cb576117cb61306e565b6020026020010151602001518686815181106117e9576117e961306e565b6020026020010151604001518787815181106118075761180761306e565b6020026020010151606001518888815181106118255761182561306e565b6020026020010151608001518989815181106118435761184361306e565b602002602001015160a001518a8a815181106118615761186161306e565b602002602001015160c001518b8b8151811061187f5761187f61306e565b602002602001015160e001518c8c8151811061189d5761189d61306e565b602002602001015161010001518d8d815181106118bc576118bc61306e565b602002602001015161012001516040516118df9a99989796959493929190612ffe565b60405180910390a250600101611565565b50505050565b6060600980548060200260200160405190810160405280929190818152602001828054801561194257602002820191905f5260205f20905b81548152602001906001019080831161192e575b5050505050905090565b5f546001600160a01b03163314806119785750335f9081526001602081905260409091205460ff161515145b6119cf5760405162461bcd60e51b815260206004820152603560248201525f805160206133af83398151915260448201527430b8383937bb32a1b932b234ba2a3930b739b332b960591b6064820152608401610938565b6001600160a01b0382165f908152600b602052604090208054829081106119f8576119f861306e565b5f91825260209091206003600590920201015460ff1615611a5b5760405162461bcd60e51b815260206004820152601960248201527f5472616e7366657220616c726561647920617070726f766564000000000000006044820152606401610938565b6001600160a01b0382165f908152600b6020526040902080546001919083908110611a8857611a8861306e565b5f9182526020909120600590910201600301805460ff19169115159190911790555050565b5f546001600160a01b03163314611ad65760405162461bcd60e51b8152600401610938906130ff565b6001600160a01b0381165f818152600160208190526040808320805460ff1916909217909155517f44d6d25963f097ad14f29f06854a01f575648a1ef82f30e562ccd3889717e3399190a250565b5f546001600160a01b03163314611b4d5760405162461bcd60e51b8152600401610938906130ff565b5f80546040516001600160a01b03909116907f8be0079c531659141344cd1fd0a4f28419497f9722a3daafe3b4186f6b6457e0908390a35f80546001600160a01b0319169055565b335f9081526004602090815260408083208584529091528120600301549003611bd05760405162461bcd60e51b81526004016109389061311f565b335f90815260046020908152604080832085845290915290206006015460ff1615611c0d5760405162461bcd60e51b81526004016109389061314e565b335f818152600b602090815260408083208054825160c081018452958652858401888152928601878152606087018690526080870186905260a08701829052600180830184559286529390942085516005860290910180546001600160a01b0319166001600160a01b0390921691909117815591519082015590519192916002820190611c9a908261320a565b506060820151600382018054608085015115156101000261ff00199315159390931661ffff199091161791909117905560a0909101516004909101555f805b600c54811015611d2a57336001600160a01b0316600c8281548110611d0057611d0061306e565b5f918252602090912001546001600160a01b031603611d225760019150611d2a565b600101611cd9565b50806118f057600c80546001810182555f919091527fdf6966c971051c3d54ec59162606531493a51404a002842f56009d7e5cf4a8c70180546001600160a01b0319163317905550505050565b611d9f60405180608001604052805f8152602001606081526020015f81526020015f81525090565b5f828152600760205260409020805460ff1916600117905560035f8381526020019081526020015f206040518060800160405290815f8201548152602001600182018054611dec906130af565b80601f0160208091040260200160405190810160405280929190818152602001828054611e18906130af565b8015611e635780601f10611e3a57610100808354040283529160200191611e63565b820191905f5260205f20905b815481529060010190602001808311611e4657829003601f168201915b50505050508152602001600282015481526020016003820154815250509050919050565b6001600160a01b038281165f9081526002602081815260408084208151608081018352600d805482523382860190815293820189815260608301888152845460018082018755958a5296892093516004909702909301958655935192850180546001600160a01b031916939098169290921790965590519282019290925592516003909301805460ff19169315159390931790925581549190611f29836130e7565b91905055505050565b60606001600160a01b038216611f8a5760405162461bcd60e51b815260206004820152601760248201527f496e76616c69642073747564656e7420616464726573730000000000000000006044820152606401610938565b6001600160a01b0382165f908152600b6020908152604080832080548251818502810185019093528083529193909284015b828210156120cc575f8481526020908190206040805160c0810182526005860290920180546001600160a01b031683526001810154938301939093526002830180549293929184019161200e906130af565b80601f016020809104026020016040519081016040528092919081815260200182805461203a906130af565b80156120855780601f1061205c57610100808354040283529160200191612085565b820191905f5260205f20905b81548152906001019060200180831161206857829003601f168201915b5050509183525050600382015460ff808216151560208085019190915261010090920416151560408301526004909201546060909101529082526001929092019101611fbc565b505050509050919050565b60036020525f9081526040902080546001820180549192916120f8906130af565b80601f0160208091040260200160405190810160405280929190818152602001828054612124906130af565b801561216f5780601f106121465761010080835404028352916020019161216f565b820191905f5260205f20905b81548152906001019060200180831161215257829003601f168201915b5050505050908060020154908060030154905084565b335f9081526006602052604090205460ff166121d35760405162461bcd60e51b815260206004820152600d60248201526c2737ba1030903a32b0b1b432b960991b6044820152606401610938565b6001600160a01b0383165f90815260046020908152604080832085845290915281206003015490036122175760405162461bcd60e51b81526004016109389061311f565b6001600160a01b03831661223d5760405162461bcd60e51b81526004016109389061317e565b6001600160a01b0383165f90815260046020908152604080832085845290915290206006015460ff16156122835760405162461bcd60e51b81526004016109389061314e565b6001600160a01b0383165f9081526004602090815260408083208584529091528120600501546122b4906001613096565b5f84815260036020526040812060020154919250906122d390846131a7565b6001600160a01b03959095165f908152600460208181526040808420978452969052949020600180820196909655600581019290925550600281019190915501805460ff19169091179055565b6002602052815f5260405f208181548110612339575f80fd5b5f91825260209091206004909102018054600182015460028301546003909301549194506001600160a01b0316925060ff1684565b5f546001600160a01b031633148061239a5750335f9081526001602081905260409091205460ff161515145b6123e35760405162461bcd60e51b815260206004820152602760248201525f805160206133af8339815191526044820152666578656375746560c81b6064820152608401610938565b6001600160a01b0382165f908152600b6020526040902080548290811061240c5761240c61306e565b5f91825260209091206003600590920201015460ff166124665760405162461bcd60e51b8152602060048201526015602482015274151c985b9cd9995c881b9bdd08185c1c1c9bdd9959605a1b6044820152606401610938565b6001600160a01b0382165f908152600b6020526040902080548290811061248f5761248f61306e565b905f5260205f20906005020160030160019054906101000a900460ff16156124f95760405162461bcd60e51b815260206004820152601960248201527f5472616e7366657220616c7265616479206578656375746564000000000000006044820152606401610938565b6001600160a01b0382165f908152600b602052604090208054829081106125225761252261306e565b5f91825260208083206001600160a01b0386168452600482526040808520600b90935284208054600594909402909101600201939192859081106125685761256861306e565b905f5260205f2090600502016001015481526020019081526020015f20600901908161259491906132df565b506001600160a01b0382165f908152600b60205260409020805460019190839081106125c2576125c261306e565b5f918252602080832060036005909302019190910180549315156101000261ff0019909416939093179092556001600160a01b0384168152600482526040808220600b90935281208054600193929190859081106126225761262261306e565b905f5260205f2090600502016001015481526020019081526020015f206008015f6101000a81548160ff0219169083151502179055505050565b5f546001600160a01b03163314806126885750335f9081526001602081905260409091205460ff161515145b6126d35760405162461bcd60e51b815260206004820152602960248201525f805160206133af833981519152604482015268616464436f7572736560b81b6064820152608401610938565b5f8381526007602052604090205460ff16156127295760405162461bcd60e51b8152602060048201526015602482015274436f7572736520616c72656164792065786973747360581b6044820152606401610938565b5f838152600760209081526040808320805460ff19166001908117909155600980548083019091557f6e1540171b6c0c960b71a7020d9f60077f6af931a8bbf590da0223dacf75c7af01879055815160808101835287815280840186815281840188905242606083015288865260039094529190932081518155915190928201906127b4908261320a565b5060408201516002820155606090910151600390910155505050565b600981815481106127df575f80fd5b5f91825260209091200154905081565b600460208181525f938452604080852090915291835291208054600182015460028301546003840154948401546005850154600686015460078701805496989597949660ff9485169593949092169291612848906130af565b80601f0160208091040260200160405190810160405280929190818152602001828054612874906130af565b80156128bf5780601f10612896576101008083540402835291602001916128bf565b820191905f5260205f20905b8154815290600101906020018083116128a257829003601f168201915b5050506008840154600985018054949560ff9092169491935091506128e3906130af565b80601f016020809104026020016040519081016040528092919081815260200182805461290f906130af565b801561295a5780601f106129315761010080835404028352916020019161295a565b820191905f5260205f20905b81548152906001019060200180831161293d57829003601f168201915b505050505090508a565b5f546001600160a01b0316331461298d5760405162461bcd60e51b8152600401610938906130ff565b6001600160a01b0381166129ce5760405162461bcd60e51b815260206004820152600860248201526706e657720697320360c41b6044820152606401610938565b5f80546040516001600160a01b03808516939216917f8be0079c531659141344cd1fd0a4f28419497f9722a3daafe3b4186f6b6457e091a35f80546001600160a01b0319166001600160a01b0392909216919091179055565b6040518061014001604052805f81526020015f81526020015f81526020015f81526020015f151581526020015f81526020015f15158152602001606081526020015f15158152602001606081525090565b80356001600160a01b0381168114612a8e575f80fd5b919050565b5f60208284031215612aa3575f80fd5b612aac82612a78565b9392505050565b5f8060408385031215612ac4575f80fd5b612acd83612a78565b946020939093013593505050565b5f81518084528060208401602086015e5f602082860101526020601f19601f83011685010191505092915050565b5f60208083018184528085518083526040925060408601915060408160051b8701018488015f5b83811015612ba957888303603f19018552815180516001600160a01b0316845287810151888501528681015160c088860181905290612b7182870182612adb565b60608481015115159088015260808085015115159088015260a093840151939096019290925250509386019390860190600101612b30565b509098975050505050505050565b5f60208284031215612bc7575f80fd5b5035919050565b5f60208083018184528085518083526040925060408601915060408160051b8701018488015f5b83811015612ba957603f19898403018552815180518452878101518885015286810151878501526060808201519085015260808082015115159085015260a0808201519085015260c08082015115159085015260e0808201516101408287018190529190612c6583880182612adb565b9250505061010080830151612c7d8288018215159052565b50506101208083015192508582038187015250612c9a8183612adb565b968901969450505090860190600101612bf5565b5f805f60608486031215612cc0575f80fd5b612cc984612a78565b95602085013595506040909401359392505050565b602080825282518282018190525f919060409081850190868401855b82811015612d3f57815180518552868101516001600160a01b031687860152858101518686015260609081015115159085015260809093019290850190600101612cfa565b5091979650505050505050565b60018060a01b038716815285602082015260c060408201525f612d7260c0830187612adb565b941515606083015250911515608083015260a0909101529392505050565b634e487b7160e01b5f52604160045260245ffd5b5f82601f830112612db3575f80fd5b813567ffffffffffffffff80821115612dce57612dce612d90565b604051601f8301601f19908116603f01168101908282118183101715612df657612df6612d90565b81604052838152866020858801011115612e0e575f80fd5b836020870160208301375f602085830101528094505050505092915050565b5f805f8060808587031215612e40575f80fd5b612e4985612a78565b93506020850135925060408501359150606085013567ffffffffffffffff811115612e72575f80fd5b612e7e87828801612da4565b91505092959194509250565b602080825282518282018190525f9190848201906040850190845b81811015612ec157835183529284019291840191600101612ea5565b50909695505050505050565b5f8060408385031215612ede575f80fd5b82359150602083013567ffffffffffffffff811115612efb575f80fd5b612f0785828601612da4565b9150509250929050565b60208152815160208201525f602083015160806040840152612f3660a0840182612adb565b905060408401516060840152606084015160808401528091505092915050565b848152608060208201525f612f6e6080830186612adb565b6040830194909452506060015292915050565b5f805f60608486031215612f93575f80fd5b8335925060208401359150604084013567ffffffffffffffff811115612fb7575f80fd5b612fc386828701612da4565b9150509250925092565b5f8060408385031215612fde575f80fd5b612fe783612a78565b9150612ff560208401612a78565b90509250929050565b5f6101408c83528b60208401528a604084015289606084015288151560808401528760a084015286151560c08401528060e084015261303f81840187612adb565b905084151561010084015282810361012084015261305d8185612adb565b9d9c50505050505050505050505050565b634e487b7160e01b5f52603260045260245ffd5b634e487b7160e01b5f52601160045260245ffd5b808201808211156130a9576130a9613082565b92915050565b600181811c908216806130c357607f821691505b6020821081036130e157634e487b7160e01b5f52602260045260245ffd5b50919050565b5f600182016130f8576130f8613082565b5060010190565b60208082526006908201526510b7bbb732b960d11b604082015260600190565b60208082526015908201527410dc99591a5d08191bd95cc81b9bdd08195e1a5cdd605a1b604082015260600190565b60208082526016908201527510dc99591a5d08185b1c9958591e481c995d9bdad95960521b604082015260600190565b6020808252600f908201526e496e76616c6964206164647265737360881b604082015260600190565b80820281158282048414176130a9576130a9613082565b601f82111561320557805f5260205f20601f840160051c810160208510156131e35750805b601f840160051c820191505b81811015613202575f81556001016131ef565b50505b505050565b815167ffffffffffffffff81111561322457613224612d90565b6132388161323284546130af565b846131be565b602080601f83116001811461326b575f84156132545750858301515b5f19600386901b1c1916600185901b1785556132c2565b5f85815260208120601f198616915b828110156132995788860151825594840194600190910190840161327a565b50858210156132b657878501515f19600388901b60f8161c191681555b505060018460011b0185555b505050505050565b5f816132d8576132d8613082565b505f190190565b8181036132ea575050565b6132f482546130af565b67ffffffffffffffff81111561330c5761330c612d90565b61331a8161323284546130af565b5f601f82116001811461334b575f83156133345750848201545b5f19600385901b1c1916600184901b178455613202565b5f8581526020808220868352908220601f198616925b838110156133815782860154825560019586019590910190602001613361565b508583101561339e57818501545f19600388901b60f8161c191681555b5050505050600190811b0190555056fe6f6e6c7920746f7061646d696e206f722061646d696e2063616e2063616c6c20a264697066735822122033ee10a8ca932ff93677716a9efbfbb39e4f07545ff1cf39eebd77543ce67d0864736f6c63430008190033",
					"opcodes": "PUSH1 0x80 PUSH1 0x40 MSTORE CALLVALUE DUP1 ISZERO PUSH1 0xE JUMPI PUSH0 DUP1 REVERT JUMPDEST POP PUSH0 DUP1 SLOAD PUSH1 0x1 PUSH1 0x1 PUSH1 0xA0 SHL SUB NOT AND CALLER SWAP1 DUP2 OR DUP3 SSTORE PUSH1 0x40 MLOAD SWAP1 SWAP2 DUP3 SWAP2 PUSH32 0x8BE0079C531659141344CD1FD0A4F28419497F9722A3DAAFE3B4186F6B6457E0 SWAP1 DUP3 SWAP1 LOG3 POP PUSH2 0x3404 DUP1 PUSH2 0x5C PUSH0 CODECOPY PUSH0 RETURN INVALID PUSH1 0x80 PUSH1 0x40 MSTORE CALLVALUE DUP1 ISZERO PUSH2 0xF JUMPI PUSH0 DUP1 REVERT JUMPDEST POP PUSH1 0x4 CALLDATASIZE LT PUSH2 0x21E JUMPI PUSH0 CALLDATALOAD PUSH1 0xE0 SHR DUP1 PUSH4 0x6B105C81 GT PUSH2 0x12A JUMPI DUP1 PUSH4 0xB44E7D09 GT PUSH2 0xB4 JUMPI DUP1 PUSH4 0xE2ED5A4E GT PUSH2 0x79 JUMPI DUP1 PUSH4 0xE2ED5A4E EQ PUSH2 0x57A JUMPI DUP1 PUSH4 0xF0A47F78 EQ PUSH2 0x58D JUMPI DUP1 PUSH4 0xF2012286 EQ PUSH2 0x5AF JUMPI DUP1 PUSH4 0xF2FDE38B EQ PUSH2 0x5D8 JUMPI DUP1 PUSH4 0xF99031A7 EQ PUSH2 0x5EB JUMPI PUSH0 DUP1 REVERT JUMPDEST DUP1 PUSH4 0xB44E7D09 EQ PUSH2 0x4DA JUMPI DUP1 PUSH4 0xB5FE8D09 EQ PUSH2 0x4ED JUMPI DUP1 PUSH4 0xDBA8C55F EQ PUSH2 0x52A JUMPI DUP1 PUSH4 0xDCC63A16 EQ PUSH2 0x53D JUMPI DUP1 PUSH4 0xDD62ED3E EQ PUSH2 0x550 JUMPI PUSH0 DUP1 REVERT JUMPDEST DUP1 PUSH4 0x8DA5CB5B GT PUSH2 0xFA JUMPI DUP1 PUSH4 0x8DA5CB5B EQ PUSH2 0x461 JUMPI DUP1 PUSH4 0x981059EE EQ PUSH2 0x471 JUMPI DUP1 PUSH4 0x995975D8 EQ PUSH2 0x491 JUMPI DUP1 PUSH4 0xA59742DF EQ PUSH2 0x4A4 JUMPI DUP1 PUSH4 0xB264A4A5 EQ PUSH2 0x4B7 JUMPI PUSH0 DUP1 REVERT JUMPDEST DUP1 PUSH4 0x6B105C81 EQ PUSH2 0x420 JUMPI DUP1 PUSH4 0x70480275 EQ PUSH2 0x433 JUMPI DUP1 PUSH4 0x715018A6 EQ PUSH2 0x446 JUMPI DUP1 PUSH4 0x75E7C425 EQ PUSH2 0x44E JUMPI PUSH0 DUP1 REVERT JUMPDEST DUP1 PUSH4 0x416D6499 GT PUSH2 0x1AB JUMPI DUP1 PUSH4 0x52FF6846 GT PUSH2 0x17B JUMPI DUP1 PUSH4 0x52FF6846 EQ PUSH2 0x3B0 JUMPI DUP1 PUSH4 0x5407B304 EQ PUSH2 0x3C3 JUMPI DUP1 PUSH4 0x5BA75156 EQ PUSH2 0x3E5 JUMPI DUP1 PUSH4 0x659CC07B EQ PUSH2 0x3F8 JUMPI DUP1 PUSH4 0x68FDBD70 EQ PUSH2 0x40B JUMPI PUSH0 DUP1 REVERT JUMPDEST DUP1 PUSH4 0x416D6499 EQ PUSH2 0x34E JUMPI DUP1 PUSH4 0x426A8493 EQ PUSH2 0x363 JUMPI DUP1 PUSH4 0x4708FDD6 EQ PUSH2 0x376 JUMPI DUP1 PUSH4 0x4A5AD49E EQ PUSH2 0x38B JUMPI PUSH0 DUP1 REVERT JUMPDEST DUP1 PUSH4 0x24D7806C GT PUSH2 0x1F1 JUMPI DUP1 PUSH4 0x24D7806C EQ PUSH2 0x29A JUMPI DUP1 PUSH4 0x261CA633 EQ PUSH2 0x2CC JUMPI DUP1 PUSH4 0x27F83AF9 EQ PUSH2 0x2F7 JUMPI DUP1 PUSH4 0x39E899EE EQ PUSH2 0x30A JUMPI DUP1 PUSH4 0x3BC6E309 EQ PUSH2 0x33B JUMPI PUSH0 DUP1 REVERT JUMPDEST DUP1 PUSH4 0x41C2EE0 EQ PUSH2 0x222 JUMPI DUP1 PUSH4 0x740C8CF EQ PUSH2 0x25D JUMPI DUP1 PUSH4 0x1145D39A EQ PUSH2 0x270 JUMPI DUP1 PUSH4 0x1785F53C EQ PUSH2 0x285 JUMPI JUMPDEST PUSH0 DUP1 REVERT JUMPDEST PUSH2 0x24A PUSH2 0x230 CALLDATASIZE PUSH1 0x4 PUSH2 0x2A93 JUMP JUMPDEST PUSH1 0x1 PUSH1 0x1 PUSH1 0xA0 SHL SUB AND PUSH0 SWAP1 DUP2 MSTORE PUSH1 0xB PUSH1 0x20 MSTORE PUSH1 0x40 SWAP1 KECCAK256 SLOAD SWAP1 JUMP JUMPDEST PUSH1 0x40 MLOAD SWAP1 DUP2 MSTORE PUSH1 0x20 ADD JUMPDEST PUSH1 0x40 MLOAD DUP1 SWAP2 SUB SWAP1 RETURN JUMPDEST PUSH2 0x24A PUSH2 0x26B CALLDATASIZE PUSH1 0x4 PUSH2 0x2AB3 JUMP JUMPDEST PUSH2 0x60D JUMP JUMPDEST PUSH2 0x278 PUSH2 0x638 JUMP JUMPDEST PUSH1 0x40 MLOAD PUSH2 0x254 SWAP2 SWAP1 PUSH2 0x2B09 JUMP JUMPDEST PUSH2 0x298 PUSH2 0x293 CALLDATASIZE PUSH1 0x4 PUSH2 0x2A93 JUMP JUMPDEST PUSH2 0x90F JUMP JUMPDEST STOP JUMPDEST PUSH2 0x2BC PUSH2 0x2A8 CALLDATASIZE PUSH1 0x4 PUSH2 0x2A93 JUMP JUMPDEST PUSH1 0x1 PUSH1 0x20 MSTORE PUSH0 SWAP1 DUP2 MSTORE PUSH1 0x40 SWAP1 KECCAK256 SLOAD PUSH1 0xFF AND DUP2 JUMP JUMPDEST PUSH1 0x40 MLOAD SWAP1 ISZERO ISZERO DUP2 MSTORE PUSH1 0x20 ADD PUSH2 0x254 JUMP JUMPDEST PUSH2 0x2DF PUSH2 0x2DA CALLDATASIZE PUSH1 0x4 PUSH2 0x2BB7 JUMP JUMPDEST PUSH2 0x989 JUMP JUMPDEST PUSH1 0x40 MLOAD PUSH1 0x1 PUSH1 0x1 PUSH1 0xA0 SHL SUB SWAP1 SWAP2 AND DUP2 MSTORE PUSH1 0x20 ADD PUSH2 0x254 JUMP JUMPDEST PUSH2 0x298 PUSH2 0x305 CALLDATASIZE PUSH1 0x4 PUSH2 0x2AB3 JUMP JUMPDEST PUSH2 0x9B1 JUMP JUMPDEST PUSH2 0x298 PUSH2 0x318 CALLDATASIZE PUSH1 0x4 PUSH2 0x2A93 JUMP JUMPDEST PUSH1 0x1 PUSH1 0x1 PUSH1 0xA0 SHL SUB AND PUSH0 SWAP1 DUP2 MSTORE PUSH1 0x8 PUSH1 0x20 MSTORE PUSH1 0x40 SWAP1 KECCAK256 DUP1 SLOAD PUSH1 0xFF NOT AND PUSH1 0x1 OR SWAP1 SSTORE JUMP JUMPDEST PUSH2 0x298 PUSH2 0x349 CALLDATASIZE PUSH1 0x4 PUSH2 0x2A93 JUMP JUMPDEST PUSH2 0xAE1 JUMP JUMPDEST PUSH2 0x356 PUSH2 0xBA2 JUMP JUMPDEST PUSH1 0x40 MLOAD PUSH2 0x254 SWAP2 SWAP1 PUSH2 0x2BCE JUMP JUMPDEST PUSH2 0x2BC PUSH2 0x371 CALLDATASIZE PUSH1 0x4 PUSH2 0x2CAE JUMP JUMPDEST PUSH2 0xE13 JUMP JUMPDEST PUSH2 0x37E PUSH2 0xEE4 JUMP JUMPDEST PUSH1 0x40 MLOAD PUSH2 0x254 SWAP2 SWAP1 PUSH2 0x2CDE JUMP JUMPDEST PUSH2 0x39E PUSH2 0x399 CALLDATASIZE PUSH1 0x4 PUSH2 0x2AB3 JUMP JUMPDEST PUSH2 0xF7C JUMP JUMPDEST PUSH1 0x40 MLOAD PUSH2 0x254 SWAP7 SWAP6 SWAP5 SWAP4 SWAP3 SWAP2 SWAP1 PUSH2 0x2D4C JUMP JUMPDEST PUSH2 0x298 PUSH2 0x3BE CALLDATASIZE PUSH1 0x4 PUSH2 0x2A93 JUMP JUMPDEST PUSH2 0x1065 JUMP JUMPDEST PUSH2 0x2BC PUSH2 0x3D1 CALLDATASIZE PUSH1 0x4 PUSH2 0x2BB7 JUMP JUMPDEST PUSH1 0x7 PUSH1 0x20 MSTORE PUSH0 SWAP1 DUP2 MSTORE PUSH1 0x40 SWAP1 KECCAK256 SLOAD PUSH1 0xFF AND DUP2 JUMP JUMPDEST PUSH2 0x298 PUSH2 0x3F3 CALLDATASIZE PUSH1 0x4 PUSH2 0x2E2D JUMP JUMPDEST PUSH2 0x1192 JUMP JUMPDEST PUSH2 0x298 PUSH2 0x406 CALLDATASIZE PUSH1 0x4 PUSH2 0x2A93 JUMP JUMPDEST PUSH2 0x145B JUMP JUMPDEST PUSH2 0x413 PUSH2 0x18F6 JUMP JUMPDEST PUSH1 0x40 MLOAD PUSH2 0x254 SWAP2 SWAP1 PUSH2 0x2E8A JUMP JUMPDEST PUSH2 0x298 PUSH2 0x42E CALLDATASIZE PUSH1 0x4 PUSH2 0x2AB3 JUMP JUMPDEST PUSH2 0x194C JUMP JUMPDEST PUSH2 0x298 PUSH2 0x441 CALLDATASIZE PUSH1 0x4 PUSH2 0x2A93 JUMP JUMPDEST PUSH2 0x1AAD JUMP JUMPDEST PUSH2 0x298 PUSH2 0x1B24 JUMP JUMPDEST PUSH2 0x298 PUSH2 0x45C CALLDATASIZE PUSH1 0x4 PUSH2 0x2ECD JUMP JUMPDEST PUSH2 0x1B95 JUMP JUMPDEST PUSH0 SLOAD PUSH1 0x1 PUSH1 0x1 PUSH1 0xA0 SHL SUB AND PUSH2 0x2DF JUMP JUMPDEST PUSH2 0x484 PUSH2 0x47F CALLDATASIZE PUSH1 0x4 PUSH2 0x2BB7 JUMP JUMPDEST PUSH2 0x1D77 JUMP JUMPDEST PUSH1 0x40 MLOAD PUSH2 0x254 SWAP2 SWAP1 PUSH2 0x2F11 JUMP JUMPDEST PUSH2 0x298 PUSH2 0x49F CALLDATASIZE PUSH1 0x4 PUSH2 0x2AB3 JUMP JUMPDEST PUSH2 0x1E87 JUMP JUMPDEST PUSH2 0x278 PUSH2 0x4B2 CALLDATASIZE PUSH1 0x4 PUSH2 0x2A93 JUMP JUMPDEST PUSH2 0x1F32 JUMP JUMPDEST PUSH2 0x4CA PUSH2 0x4C5 CALLDATASIZE PUSH1 0x4 PUSH2 0x2BB7 JUMP JUMPDEST PUSH2 0x20D7 JUMP JUMPDEST PUSH1 0x40 MLOAD PUSH2 0x254 SWAP5 SWAP4 SWAP3 SWAP2 SWAP1 PUSH2 0x2F56 JUMP JUMPDEST PUSH2 0x298 PUSH2 0x4E8 CALLDATASIZE PUSH1 0x4 PUSH2 0x2CAE JUMP JUMPDEST PUSH2 0x2185 JUMP JUMPDEST PUSH2 0x500 PUSH2 0x4FB CALLDATASIZE PUSH1 0x4 PUSH2 0x2AB3 JUMP JUMPDEST PUSH2 0x2320 JUMP JUMPDEST PUSH1 0x40 DUP1 MLOAD SWAP5 DUP6 MSTORE PUSH1 0x1 PUSH1 0x1 PUSH1 0xA0 SHL SUB SWAP1 SWAP4 AND PUSH1 0x20 DUP6 ADD MSTORE SWAP2 DUP4 ADD MSTORE ISZERO ISZERO PUSH1 0x60 DUP3 ADD MSTORE PUSH1 0x80 ADD PUSH2 0x254 JUMP JUMPDEST PUSH2 0x298 PUSH2 0x538 CALLDATASIZE PUSH1 0x4 PUSH2 0x2AB3 JUMP JUMPDEST PUSH2 0x236E JUMP JUMPDEST PUSH2 0x298 PUSH2 0x54B CALLDATASIZE PUSH1 0x4 PUSH2 0x2F81 JUMP JUMPDEST PUSH2 0x265C JUMP JUMPDEST PUSH2 0x24A PUSH2 0x55E CALLDATASIZE PUSH1 0x4 PUSH2 0x2FCD JUMP JUMPDEST PUSH1 0xA PUSH1 0x20 SWAP1 DUP2 MSTORE PUSH0 SWAP3 DUP4 MSTORE PUSH1 0x40 DUP1 DUP5 KECCAK256 SWAP1 SWAP2 MSTORE SWAP1 DUP3 MSTORE SWAP1 KECCAK256 SLOAD DUP2 JUMP JUMPDEST PUSH2 0x24A PUSH2 0x588 CALLDATASIZE PUSH1 0x4 PUSH2 0x2BB7 JUMP JUMPDEST PUSH2 0x27D0 JUMP JUMPDEST PUSH2 0x2BC PUSH2 0x59B CALLDATASIZE PUSH1 0x4 PUSH2 0x2A93 JUMP JUMPDEST PUSH1 0x6 PUSH1 0x20 MSTORE PUSH0 SWAP1 DUP2 MSTORE PUSH1 0x40 SWAP1 KECCAK256 SLOAD PUSH1 0xFF AND DUP2 JUMP JUMPDEST PUSH2 0x5C2 PUSH2 0x5BD CALLDATASIZE PUSH1 0x4 PUSH2 0x2AB3 JUMP JUMPDEST PUSH2 0x27EF JUMP JUMPDEST PUSH1 0x40 MLOAD PUSH2 0x254 SWAP11 SWAP10 SWAP9 SWAP8 SWAP7 SWAP6 SWAP5 SWAP4 SWAP3 SWAP2 SWAP1 PUSH2 0x2FFE JUMP JUMPDEST PUSH2 0x298 PUSH2 0x5E6 CALLDATASIZE PUSH1 0x4 PUSH2 0x2A93 JUMP JUMPDEST PUSH2 0x2964 JUMP JUMPDEST PUSH2 0x2BC PUSH2 0x5F9 CALLDATASIZE PUSH1 0x4 PUSH2 0x2A93 JUMP JUMPDEST PUSH1 0x8 PUSH1 0x20 MSTORE PUSH0 SWAP1 DUP2 MSTORE PUSH1 0x40 SWAP1 KECCAK256 SLOAD PUSH1 0xFF AND DUP2 JUMP JUMPDEST PUSH1 0x5 PUSH1 0x20 MSTORE DUP2 PUSH0 MSTORE PUSH1 0x40 PUSH0 KECCAK256 DUP2 DUP2 SLOAD DUP2 LT PUSH2 0x626 JUMPI PUSH0 DUP1 REVERT JUMPDEST SWAP1 PUSH0 MSTORE PUSH1 0x20 PUSH0 KECCAK256 ADD PUSH0 SWAP2 POP SWAP2 POP POP SLOAD DUP2 JUMP JUMPDEST PUSH1 0x60 PUSH0 DUP1 JUMPDEST PUSH1 0xC SLOAD DUP2 LT ISZERO PUSH2 0x695 JUMPI PUSH1 0xB PUSH0 PUSH1 0xC DUP4 DUP2 SLOAD DUP2 LT PUSH2 0x65D JUMPI PUSH2 0x65D PUSH2 0x306E JUMP JUMPDEST PUSH0 SWAP2 DUP3 MSTORE PUSH1 0x20 DUP1 DUP4 KECCAK256 SWAP1 SWAP2 ADD SLOAD PUSH1 0x1 PUSH1 0x1 PUSH1 0xA0 SHL SUB AND DUP4 MSTORE DUP3 ADD SWAP3 SWAP1 SWAP3 MSTORE PUSH1 0x40 ADD SWAP1 KECCAK256 SLOAD PUSH2 0x68B SWAP1 DUP4 PUSH2 0x3096 JUMP JUMPDEST SWAP2 POP PUSH1 0x1 ADD PUSH2 0x63D JUMP JUMPDEST POP PUSH0 DUP2 PUSH8 0xFFFFFFFFFFFFFFFF DUP2 GT ISZERO PUSH2 0x6B0 JUMPI PUSH2 0x6B0 PUSH2 0x2D90 JUMP JUMPDEST PUSH1 0x40 MLOAD SWAP1 DUP1 DUP3 MSTORE DUP1 PUSH1 0x20 MUL PUSH1 0x20 ADD DUP3 ADD PUSH1 0x40 MSTORE DUP1 ISZERO PUSH2 0x722 JUMPI DUP2 PUSH1 0x20 ADD JUMPDEST PUSH2 0x70F PUSH1 0x40 MLOAD DUP1 PUSH1 0xC0 ADD PUSH1 0x40 MSTORE DUP1 PUSH0 PUSH1 0x1 PUSH1 0x1 PUSH1 0xA0 SHL SUB AND DUP2 MSTORE PUSH1 0x20 ADD PUSH0 DUP2 MSTORE PUSH1 0x20 ADD PUSH1 0x60 DUP2 MSTORE PUSH1 0x20 ADD PUSH0 ISZERO ISZERO DUP2 MSTORE PUSH1 0x20 ADD PUSH0 ISZERO ISZERO DUP2 MSTORE PUSH1 0x20 ADD PUSH0 DUP2 MSTORE POP SWAP1 JUMP JUMPDEST DUP2 MSTORE PUSH1 0x20 ADD SWAP1 PUSH1 0x1 SWAP1 SUB SWAP1 DUP2 PUSH2 0x6CE JUMPI SWAP1 POP JUMPDEST POP SWAP1 POP PUSH0 DUP1 JUMPDEST PUSH1 0xC SLOAD DUP2 LT ISZERO PUSH2 0x906 JUMPI PUSH0 JUMPDEST PUSH1 0xB PUSH0 PUSH1 0xC DUP5 DUP2 SLOAD DUP2 LT PUSH2 0x74A JUMPI PUSH2 0x74A PUSH2 0x306E JUMP JUMPDEST PUSH0 SWAP2 DUP3 MSTORE PUSH1 0x20 DUP1 DUP4 KECCAK256 SWAP1 SWAP2 ADD SLOAD PUSH1 0x1 PUSH1 0x1 PUSH1 0xA0 SHL SUB AND DUP4 MSTORE DUP3 ADD SWAP3 SWAP1 SWAP3 MSTORE PUSH1 0x40 ADD SWAP1 KECCAK256 SLOAD DUP2 LT ISZERO PUSH2 0x8FD JUMPI PUSH1 0xB PUSH0 PUSH1 0xC DUP5 DUP2 SLOAD DUP2 LT PUSH2 0x78B JUMPI PUSH2 0x78B PUSH2 0x306E JUMP JUMPDEST PUSH0 SWAP2 DUP3 MSTORE PUSH1 0x20 DUP1 DUP4 KECCAK256 SWAP1 SWAP2 ADD SLOAD PUSH1 0x1 PUSH1 0x1 PUSH1 0xA0 SHL SUB AND DUP4 MSTORE DUP3 ADD SWAP3 SWAP1 SWAP3 MSTORE PUSH1 0x40 ADD SWAP1 KECCAK256 DUP1 SLOAD DUP3 SWAP1 DUP2 LT PUSH2 0x7C0 JUMPI PUSH2 0x7C0 PUSH2 0x306E JUMP JUMPDEST SWAP1 PUSH0 MSTORE PUSH1 0x20 PUSH0 KECCAK256 SWAP1 PUSH1 0x5 MUL ADD PUSH1 0x40 MLOAD DUP1 PUSH1 0xC0 ADD PUSH1 0x40 MSTORE SWAP1 DUP2 PUSH0 DUP3 ADD PUSH0 SWAP1 SLOAD SWAP1 PUSH2 0x100 EXP SWAP1 DIV PUSH1 0x1 PUSH1 0x1 PUSH1 0xA0 SHL SUB AND PUSH1 0x1 PUSH1 0x1 PUSH1 0xA0 SHL SUB AND PUSH1 0x1 PUSH1 0x1 PUSH1 0xA0 SHL SUB AND DUP2 MSTORE PUSH1 0x20 ADD PUSH1 0x1 DUP3 ADD SLOAD DUP2 MSTORE PUSH1 0x20 ADD PUSH1 0x2 DUP3 ADD DUP1 SLOAD PUSH2 0x81E SWAP1 PUSH2 0x30AF JUMP JUMPDEST DUP1 PUSH1 0x1F ADD PUSH1 0x20 DUP1 SWAP2 DIV MUL PUSH1 0x20 ADD PUSH1 0x40 MLOAD SWAP1 DUP2 ADD PUSH1 0x40 MSTORE DUP1 SWAP3 SWAP2 SWAP1 DUP2 DUP2 MSTORE PUSH1 0x20 ADD DUP3 DUP1 SLOAD PUSH2 0x84A SWAP1 PUSH2 0x30AF JUMP JUMPDEST DUP1 ISZERO PUSH2 0x895 JUMPI DUP1 PUSH1 0x1F LT PUSH2 0x86C JUMPI PUSH2 0x100 DUP1 DUP4 SLOAD DIV MUL DUP4 MSTORE SWAP2 PUSH1 0x20 ADD SWAP2 PUSH2 0x895 JUMP JUMPDEST DUP3 ADD SWAP2 SWAP1 PUSH0 MSTORE PUSH1 0x20 PUSH0 KECCAK256 SWAP1 JUMPDEST DUP2 SLOAD DUP2 MSTORE SWAP1 PUSH1 0x1 ADD SWAP1 PUSH1 0x20 ADD DUP1 DUP4 GT PUSH2 0x878 JUMPI DUP3 SWAP1 SUB PUSH1 0x1F AND DUP3 ADD SWAP2 JUMPDEST POP POP POP SWAP2 DUP4 MSTORE POP POP PUSH1 0x3 DUP3 ADD SLOAD PUSH1 0xFF DUP1 DUP3 AND ISZERO ISZERO PUSH1 0x20 DUP5 ADD MSTORE PUSH2 0x100 SWAP1 SWAP2 DIV AND ISZERO ISZERO PUSH1 0x40 DUP3 ADD MSTORE PUSH1 0x4 SWAP1 SWAP2 ADD SLOAD PUSH1 0x60 SWAP1 SWAP2 ADD MSTORE DUP5 MLOAD DUP6 SWAP1 DUP6 SWAP1 DUP2 LT PUSH2 0x8DC JUMPI PUSH2 0x8DC PUSH2 0x306E JUMP JUMPDEST PUSH1 0x20 MUL PUSH1 0x20 ADD ADD DUP2 SWAP1 MSTORE POP DUP3 DUP1 PUSH2 0x8F2 SWAP1 PUSH2 0x30E7 JUMP JUMPDEST SWAP4 POP POP PUSH1 0x1 ADD PUSH2 0x734 JUMP JUMPDEST POP PUSH1 0x1 ADD PUSH2 0x728 JUMP JUMPDEST POP SWAP1 SWAP4 SWAP3 POP POP POP JUMP JUMPDEST PUSH0 SLOAD PUSH1 0x1 PUSH1 0x1 PUSH1 0xA0 SHL SUB AND CALLER EQ PUSH2 0x941 JUMPI PUSH1 0x40 MLOAD PUSH3 0x461BCD PUSH1 0xE5 SHL DUP2 MSTORE PUSH1 0x4 ADD PUSH2 0x938 SWAP1 PUSH2 0x30FF JUMP JUMPDEST PUSH1 0x40 MLOAD DUP1 SWAP2 SUB SWAP1 REVERT JUMPDEST PUSH1 0x1 PUSH1 0x1 PUSH1 0xA0 SHL SUB DUP2 AND PUSH0 DUP2 DUP2 MSTORE PUSH1 0x1 PUSH1 0x20 MSTORE PUSH1 0x40 DUP1 DUP3 KECCAK256 DUP1 SLOAD PUSH1 0xFF NOT AND SWAP1 SSTORE MLOAD PUSH32 0xA3B62BC36326052D97EA62D63C3D60308ED4C3EA8AC079DD8499F1E9C4F80C0F SWAP2 SWAP1 LOG2 POP JUMP JUMPDEST PUSH1 0xC DUP2 DUP2 SLOAD DUP2 LT PUSH2 0x998 JUMPI PUSH0 DUP1 REVERT JUMPDEST PUSH0 SWAP2 DUP3 MSTORE PUSH1 0x20 SWAP1 SWAP2 KECCAK256 ADD SLOAD PUSH1 0x1 PUSH1 0x1 PUSH1 0xA0 SHL SUB AND SWAP1 POP DUP2 JUMP JUMPDEST PUSH0 SLOAD PUSH1 0x1 PUSH1 0x1 PUSH1 0xA0 SHL SUB AND CALLER EQ DUP1 PUSH2 0x9DD JUMPI POP CALLER PUSH0 SWAP1 DUP2 MSTORE PUSH1 0x1 PUSH1 0x20 DUP2 SWAP1 MSTORE PUSH1 0x40 SWAP1 SWAP2 KECCAK256 SLOAD PUSH1 0xFF AND ISZERO ISZERO EQ JUMPDEST PUSH2 0xA25 JUMPI PUSH1 0x40 MLOAD PUSH3 0x461BCD PUSH1 0xE5 SHL DUP2 MSTORE PUSH1 0x20 PUSH1 0x4 DUP3 ADD MSTORE PUSH1 0x26 PUSH1 0x24 DUP3 ADD MSTORE PUSH0 DUP1 MLOAD PUSH1 0x20 PUSH2 0x33AF DUP4 CODECOPY DUP2 MLOAD SWAP2 MSTORE PUSH1 0x44 DUP3 ADD MSTORE PUSH6 0x18D85B98D95B PUSH1 0xD2 SHL PUSH1 0x64 DUP3 ADD MSTORE PUSH1 0x84 ADD PUSH2 0x938 JUMP JUMPDEST PUSH1 0x1 PUSH1 0x1 PUSH1 0xA0 SHL SUB DUP3 AND PUSH0 SWAP1 DUP2 MSTORE PUSH1 0x4 PUSH1 0x20 SWAP1 DUP2 MSTORE PUSH1 0x40 DUP1 DUP4 KECCAK256 DUP5 DUP5 MSTORE SWAP1 SWAP2 MSTORE DUP2 KECCAK256 PUSH1 0x3 ADD SLOAD SWAP1 SUB PUSH2 0xA69 JUMPI PUSH1 0x40 MLOAD PUSH3 0x461BCD PUSH1 0xE5 SHL DUP2 MSTORE PUSH1 0x4 ADD PUSH2 0x938 SWAP1 PUSH2 0x311F JUMP JUMPDEST PUSH1 0x1 PUSH1 0x1 PUSH1 0xA0 SHL SUB DUP3 AND PUSH0 SWAP1 DUP2 MSTORE PUSH1 0x4 PUSH1 0x20 SWAP1 DUP2 MSTORE PUSH1 0x40 DUP1 DUP4 KECCAK256 DUP5 DUP5 MSTORE SWAP1 SWAP2 MSTORE SWAP1 KECCAK256 PUSH1 0x6 ADD SLOAD PUSH1 0xFF AND ISZERO PUSH2 0xAAF JUMPI PUSH1 0x40 MLOAD PUSH3 0x461BCD PUSH1 0xE5 SHL DUP2 MSTORE PUSH1 0x4 ADD PUSH2 0x938 SWAP1 PUSH2 0x314E JUMP JUMPDEST PUSH1 0x1 PUSH1 0x1 PUSH1 0xA0 SHL SUB SWAP1 SWAP2 AND PUSH0 SWAP1 DUP2 MSTORE PUSH1 0x4 PUSH1 0x20 SWAP1 DUP2 MSTORE PUSH1 0x40 DUP1 DUP4 KECCAK256 SWAP4 DUP4 MSTORE SWAP3 SWAP1 MSTORE KECCAK256 PUSH1 0x6 ADD DUP1 SLOAD PUSH1 0xFF NOT AND PUSH1 0x1 OR SWAP1 SSTORE JUMP JUMPDEST PUSH0 SLOAD PUSH1 0x1 PUSH1 0x1 PUSH1 0xA0 SHL SUB AND CALLER EQ DUP1 PUSH2 0xB0D JUMPI POP CALLER PUSH0 SWAP1 DUP2 MSTORE PUSH1 0x1 PUSH1 0x20 DUP2 SWAP1 MSTORE PUSH1 0x40 SWAP1 SWAP2 KECCAK256 SLOAD PUSH1 0xFF AND ISZERO ISZERO EQ JUMPDEST PUSH2 0xB59 JUMPI PUSH1 0x40 MLOAD PUSH3 0x461BCD PUSH1 0xE5 SHL DUP2 MSTORE PUSH1 0x20 PUSH1 0x4 DUP3 ADD MSTORE PUSH1 0x2A PUSH1 0x24 DUP3 ADD MSTORE PUSH0 DUP1 MLOAD PUSH1 0x20 PUSH2 0x33AF DUP4 CODECOPY DUP2 MLOAD SWAP2 MSTORE PUSH1 0x44 DUP3 ADD MSTORE PUSH10 0x30B2322A32B0B1B432B9 PUSH1 0xB1 SHL PUSH1 0x64 DUP3 ADD MSTORE PUSH1 0x84 ADD PUSH2 0x938 JUMP JUMPDEST PUSH1 0x1 PUSH1 0x1 PUSH1 0xA0 SHL SUB DUP2 AND PUSH2 0xB7F JUMPI PUSH1 0x40 MLOAD PUSH3 0x461BCD PUSH1 0xE5 SHL DUP2 MSTORE PUSH1 0x4 ADD PUSH2 0x938 SWAP1 PUSH2 0x317E JUMP JUMPDEST PUSH1 0x1 PUSH1 0x1 PUSH1 0xA0 SHL SUB AND PUSH0 SWAP1 DUP2 MSTORE PUSH1 0x6 PUSH1 0x20 MSTORE PUSH1 0x40 SWAP1 KECCAK256 DUP1 SLOAD PUSH1 0xFF NOT AND PUSH1 0x1 OR SWAP1 SSTORE JUMP JUMPDEST CALLER PUSH0 SWAP1 DUP2 MSTORE PUSH1 0x5 PUSH1 0x20 MSTORE PUSH1 0x40 SWAP1 KECCAK256 SLOAD PUSH1 0x60 SWAP1 DUP1 PUSH8 0xFFFFFFFFFFFFFFFF DUP2 GT ISZERO PUSH2 0xBCD JUMPI PUSH2 0xBCD PUSH2 0x2D90 JUMP JUMPDEST PUSH1 0x40 MLOAD SWAP1 DUP1 DUP3 MSTORE DUP1 PUSH1 0x20 MUL PUSH1 0x20 ADD DUP3 ADD PUSH1 0x40 MSTORE DUP1 ISZERO PUSH2 0xC06 JUMPI DUP2 PUSH1 0x20 ADD JUMPDEST PUSH2 0xBF3 PUSH2 0x2A27 JUMP JUMPDEST DUP2 MSTORE PUSH1 0x20 ADD SWAP1 PUSH1 0x1 SWAP1 SUB SWAP1 DUP2 PUSH2 0xBEB JUMPI SWAP1 POP JUMPDEST POP SWAP2 POP PUSH0 JUMPDEST DUP2 DUP2 LT ISZERO PUSH2 0xE0E JUMPI CALLER PUSH0 SWAP1 DUP2 MSTORE PUSH1 0x5 PUSH1 0x20 MSTORE PUSH1 0x40 DUP2 KECCAK256 DUP1 SLOAD DUP4 SWAP1 DUP2 LT PUSH2 0xC33 JUMPI PUSH2 0xC33 PUSH2 0x306E JUMP JUMPDEST PUSH0 SWAP2 DUP3 MSTORE PUSH1 0x20 DUP1 DUP4 KECCAK256 SWAP1 SWAP2 ADD SLOAD CALLER DUP4 MSTORE PUSH1 0x4 DUP1 DUP4 MSTORE PUSH1 0x40 DUP1 DUP6 KECCAK256 DUP4 DUP7 MSTORE DUP5 MSTORE SWAP4 DUP5 SWAP1 KECCAK256 DUP5 MLOAD PUSH2 0x140 DUP2 ADD DUP7 MSTORE DUP2 SLOAD DUP2 MSTORE PUSH1 0x1 DUP3 ADD SLOAD SWAP5 DUP2 ADD SWAP5 SWAP1 SWAP5 MSTORE PUSH1 0x2 DUP2 ADD SLOAD SWAP5 DUP5 ADD SWAP5 SWAP1 SWAP5 MSTORE PUSH1 0x3 DUP5 ADD SLOAD PUSH1 0x60 DUP5 ADD MSTORE DUP4 ADD SLOAD PUSH1 0xFF SWAP1 DUP2 AND ISZERO ISZERO PUSH1 0x80 DUP5 ADD MSTORE PUSH1 0x5 DUP5 ADD SLOAD PUSH1 0xA0 DUP5 ADD MSTORE PUSH1 0x6 DUP5 ADD SLOAD AND ISZERO ISZERO PUSH1 0xC0 DUP4 ADD MSTORE PUSH1 0x7 DUP4 ADD DUP1 SLOAD SWAP2 SWAP5 POP SWAP2 SWAP3 SWAP2 PUSH1 0xE0 DUP5 ADD SWAP2 PUSH2 0xCC5 SWAP1 PUSH2 0x30AF JUMP JUMPDEST DUP1 PUSH1 0x1F ADD PUSH1 0x20 DUP1 SWAP2 DIV MUL PUSH1 0x20 ADD PUSH1 0x40 MLOAD SWAP1 DUP2 ADD PUSH1 0x40 MSTORE DUP1 SWAP3 SWAP2 SWAP1 DUP2 DUP2 MSTORE PUSH1 0x20 ADD DUP3 DUP1 SLOAD PUSH2 0xCF1 SWAP1 PUSH2 0x30AF JUMP JUMPDEST DUP1 ISZERO PUSH2 0xD3C JUMPI DUP1 PUSH1 0x1F LT PUSH2 0xD13 JUMPI PUSH2 0x100 DUP1 DUP4 SLOAD DIV MUL DUP4 MSTORE SWAP2 PUSH1 0x20 ADD SWAP2 PUSH2 0xD3C JUMP JUMPDEST DUP3 ADD SWAP2 SWAP1 PUSH0 MSTORE PUSH1 0x20 PUSH0 KECCAK256 SWAP1 JUMPDEST DUP2 SLOAD DUP2 MSTORE SWAP1 PUSH1 0x1 ADD SWAP1 PUSH1 0x20 ADD DUP1 DUP4 GT PUSH2 0xD1F JUMPI DUP3 SWAP1 SUB PUSH1 0x1F AND DUP3 ADD SWAP2 JUMPDEST POP POP POP SWAP2 DUP4 MSTORE POP POP PUSH1 0x8 DUP3 ADD SLOAD PUSH1 0xFF AND ISZERO ISZERO PUSH1 0x20 DUP3 ADD MSTORE PUSH1 0x9 DUP3 ADD DUP1 SLOAD PUSH1 0x40 SWAP1 SWAP3 ADD SWAP2 PUSH2 0xD68 SWAP1 PUSH2 0x30AF JUMP JUMPDEST DUP1 PUSH1 0x1F ADD PUSH1 0x20 DUP1 SWAP2 DIV MUL PUSH1 0x20 ADD PUSH1 0x40 MLOAD SWAP1 DUP2 ADD PUSH1 0x40 MSTORE DUP1 SWAP3 SWAP2 SWAP1 DUP2 DUP2 MSTORE PUSH1 0x20 ADD DUP3 DUP1 SLOAD PUSH2 0xD94 SWAP1 PUSH2 0x30AF JUMP JUMPDEST DUP1 ISZERO PUSH2 0xDDF JUMPI DUP1 PUSH1 0x1F LT PUSH2 0xDB6 JUMPI PUSH2 0x100 DUP1 DUP4 SLOAD DIV MUL DUP4 MSTORE SWAP2 PUSH1 0x20 ADD SWAP2 PUSH2 0xDDF JUMP JUMPDEST DUP3 ADD SWAP2 SWAP1 PUSH0 MSTORE PUSH1 0x20 PUSH0 KECCAK256 SWAP1 JUMPDEST DUP2 SLOAD DUP2 MSTORE SWAP1 PUSH1 0x1 ADD SWAP1 PUSH1 0x20 ADD DUP1 DUP4 GT PUSH2 0xDC2 JUMPI DUP3 SWAP1 SUB PUSH1 0x1F AND DUP3 ADD SWAP2 JUMPDEST POP POP POP POP POP DUP2 MSTORE POP POP DUP5 DUP4 DUP2 MLOAD DUP2 LT PUSH2 0xDFA JUMPI PUSH2 0xDFA PUSH2 0x306E JUMP JUMPDEST PUSH1 0x20 SWAP1 DUP2 MUL SWAP2 SWAP1 SWAP2 ADD ADD MSTORE POP PUSH1 0x1 ADD PUSH2 0xC0B JUMP JUMPDEST POP POP SWAP1 JUMP JUMPDEST CALLER PUSH0 SWAP1 DUP2 MSTORE PUSH1 0xA PUSH1 0x20 SWAP1 DUP2 MSTORE PUSH1 0x40 DUP1 DUP4 KECCAK256 PUSH1 0x1 PUSH1 0x1 PUSH1 0xA0 SHL SUB DUP8 AND DUP5 MSTORE SWAP1 SWAP2 MSTORE DUP2 KECCAK256 DUP4 SWAP1 SSTORE DUP1 JUMPDEST CALLER PUSH0 SWAP1 DUP2 MSTORE PUSH1 0x2 PUSH1 0x20 MSTORE PUSH1 0x40 SWAP1 KECCAK256 SLOAD DUP2 LT ISZERO PUSH2 0xED9 JUMPI CALLER PUSH0 SWAP1 DUP2 MSTORE PUSH1 0x2 PUSH1 0x20 MSTORE PUSH1 0x40 SWAP1 KECCAK256 DUP1 SLOAD DUP5 SWAP2 SWAP1 DUP4 SWAP1 DUP2 LT PUSH2 0xE73 JUMPI PUSH2 0xE73 PUSH2 0x306E JUMP JUMPDEST SWAP1 PUSH0 MSTORE PUSH1 0x20 PUSH0 KECCAK256 SWAP1 PUSH1 0x4 MUL ADD PUSH0 ADD SLOAD SUB PUSH2 0xED1 JUMPI CALLER PUSH0 SWAP1 DUP2 MSTORE PUSH1 0x2 PUSH1 0x20 MSTORE PUSH1 0x40 SWAP1 KECCAK256 DUP1 SLOAD PUSH1 0x1 SWAP2 SWAP1 DUP4 SWAP1 DUP2 LT PUSH2 0xEAB JUMPI PUSH2 0xEAB PUSH2 0x306E JUMP JUMPDEST PUSH0 SWAP2 DUP3 MSTORE PUSH1 0x20 SWAP1 SWAP2 KECCAK256 PUSH1 0x4 SWAP1 SWAP2 MUL ADD PUSH1 0x3 ADD DUP1 SLOAD PUSH1 0xFF NOT AND SWAP2 ISZERO ISZERO SWAP2 SWAP1 SWAP2 OR SWAP1 SSTORE PUSH2 0xED9 JUMP JUMPDEST PUSH1 0x1 ADD PUSH2 0xE3A JUMP JUMPDEST POP PUSH1 0x1 SWAP5 SWAP4 POP POP POP POP JUMP JUMPDEST CALLER PUSH0 SWAP1 DUP2 MSTORE PUSH1 0x2 PUSH1 0x20 SWAP1 DUP2 MSTORE PUSH1 0x40 DUP1 DUP4 KECCAK256 DUP1 SLOAD DUP3 MLOAD DUP2 DUP6 MUL DUP2 ADD DUP6 ADD SWAP1 SWAP4 MSTORE DUP1 DUP4 MSTORE PUSH1 0x60 SWAP5 SWAP3 SWAP4 SWAP2 SWAP3 SWAP1 SWAP2 DUP5 ADD JUMPDEST DUP3 DUP3 LT ISZERO PUSH2 0xF73 JUMPI PUSH0 DUP5 DUP2 MSTORE PUSH1 0x20 SWAP1 DUP2 SWAP1 KECCAK256 PUSH1 0x40 DUP1 MLOAD PUSH1 0x80 DUP2 ADD DUP3 MSTORE PUSH1 0x4 DUP7 MUL SWAP1 SWAP3 ADD DUP1 SLOAD DUP4 MSTORE PUSH1 0x1 DUP1 DUP3 ADD SLOAD PUSH1 0x1 PUSH1 0x1 PUSH1 0xA0 SHL SUB AND DUP5 DUP7 ADD MSTORE PUSH1 0x2 DUP3 ADD SLOAD SWAP3 DUP5 ADD SWAP3 SWAP1 SWAP3 MSTORE PUSH1 0x3 ADD SLOAD PUSH1 0xFF AND ISZERO ISZERO PUSH1 0x60 DUP4 ADD MSTORE SWAP1 DUP4 MSTORE SWAP1 SWAP3 ADD SWAP2 ADD PUSH2 0xF12 JUMP JUMPDEST POP POP POP POP SWAP1 POP SWAP1 JUMP JUMPDEST PUSH1 0xB PUSH1 0x20 MSTORE DUP2 PUSH0 MSTORE PUSH1 0x40 PUSH0 KECCAK256 DUP2 DUP2 SLOAD DUP2 LT PUSH2 0xF95 JUMPI PUSH0 DUP1 REVERT JUMPDEST PUSH0 SWAP2 DUP3 MSTORE PUSH1 0x20 SWAP1 SWAP2 KECCAK256 PUSH1 0x5 SWAP1 SWAP2 MUL ADD DUP1 SLOAD PUSH1 0x1 DUP3 ADD SLOAD PUSH1 0x2 DUP4 ADD DUP1 SLOAD PUSH1 0x1 PUSH1 0x1 PUSH1 0xA0 SHL SUB SWAP1 SWAP4 AND SWAP6 POP SWAP1 SWAP4 POP SWAP1 PUSH2 0xFCB SWAP1 PUSH2 0x30AF JUMP JUMPDEST DUP1 PUSH1 0x1F ADD PUSH1 0x20 DUP1 SWAP2 DIV MUL PUSH1 0x20 ADD PUSH1 0x40 MLOAD SWAP1 DUP2 ADD PUSH1 0x40 MSTORE DUP1 SWAP3 SWAP2 SWAP1 DUP2 DUP2 MSTORE PUSH1 0x20 ADD DUP3 DUP1 SLOAD PUSH2 0xFF7 SWAP1 PUSH2 0x30AF JUMP JUMPDEST DUP1 ISZERO PUSH2 0x1042 JUMPI DUP1 PUSH1 0x1F LT PUSH2 0x1019 JUMPI PUSH2 0x100 DUP1 DUP4 SLOAD DIV MUL DUP4 MSTORE SWAP2 PUSH1 0x20 ADD SWAP2 PUSH2 0x1042 JUMP JUMPDEST DUP3 ADD SWAP2 SWAP1 PUSH0 MSTORE PUSH1 0x20 PUSH0 KECCAK256 SWAP1 JUMPDEST DUP2 SLOAD DUP2 MSTORE SWAP1 PUSH1 0x1 ADD SWAP1 PUSH1 0x20 ADD DUP1 DUP4 GT PUSH2 0x1025 JUMPI DUP3 SWAP1 SUB PUSH1 0x1F AND DUP3 ADD SWAP2 JUMPDEST POP POP POP POP PUSH1 0x3 DUP4 ADD SLOAD PUSH1 0x4 SWAP1 SWAP4 ADD SLOAD SWAP2 SWAP3 PUSH1 0xFF DUP1 DUP3 AND SWAP4 PUSH2 0x100 SWAP1 SWAP3 DIV AND SWAP2 POP DUP7 JUMP JUMPDEST PUSH0 SLOAD PUSH1 0x1 PUSH1 0x1 PUSH1 0xA0 SHL SUB AND CALLER EQ DUP1 PUSH2 0x1091 JUMPI POP CALLER PUSH0 SWAP1 DUP2 MSTORE PUSH1 0x1 PUSH1 0x20 DUP2 SWAP1 MSTORE PUSH1 0x40 SWAP1 SWAP2 KECCAK256 SLOAD PUSH1 0xFF AND ISZERO ISZERO EQ JUMPDEST PUSH2 0x10E0 JUMPI PUSH1 0x40 MLOAD PUSH3 0x461BCD PUSH1 0xE5 SHL DUP2 MSTORE PUSH1 0x20 PUSH1 0x4 DUP3 ADD MSTORE PUSH1 0x2D PUSH1 0x24 DUP3 ADD MSTORE PUSH0 DUP1 MLOAD PUSH1 0x20 PUSH2 0x33AF DUP4 CODECOPY DUP2 MLOAD SWAP2 MSTORE PUSH1 0x44 DUP3 ADD MSTORE PUSH13 0x3932B6B7BB32AA32B0B1B432B9 PUSH1 0x99 SHL PUSH1 0x64 DUP3 ADD MSTORE PUSH1 0x84 ADD PUSH2 0x938 JUMP JUMPDEST PUSH1 0x1 PUSH1 0x1 PUSH1 0xA0 SHL SUB DUP2 AND PUSH2 0x1106 JUMPI PUSH1 0x40 MLOAD PUSH3 0x461BCD PUSH1 0xE5 SHL DUP2 MSTORE PUSH1 0x4 ADD PUSH2 0x938 SWAP1 PUSH2 0x317E JUMP JUMPDEST PUSH1 0x1 PUSH1 0x1 PUSH1 0xA0 SHL SUB DUP2 AND PUSH0 SWAP1 DUP2 MSTORE PUSH1 0x6 PUSH1 0x20 MSTORE PUSH1 0x40 SWAP1 KECCAK256 SLOAD PUSH1 0xFF AND ISZERO ISZERO PUSH1 0x1 EQ PUSH2 0x1172 JUMPI PUSH1 0x40 MLOAD PUSH3 0x461BCD PUSH1 0xE5 SHL DUP2 MSTORE PUSH1 0x20 PUSH1 0x4 DUP3 ADD MSTORE PUSH1 0x19 PUSH1 0x24 DUP3 ADD MSTORE PUSH32 0x6164647265737320617265206E6F742061207465616368657200000000000000 PUSH1 0x44 DUP3 ADD MSTORE PUSH1 0x64 ADD PUSH2 0x938 JUMP JUMPDEST PUSH1 0x1 PUSH1 0x1 PUSH1 0xA0 SHL SUB AND PUSH0 SWAP1 DUP2 MSTORE PUSH1 0x6 PUSH1 0x20 MSTORE PUSH1 0x40 SWAP1 KECCAK256 DUP1 SLOAD PUSH1 0xFF NOT AND SWAP1 SSTORE JUMP JUMPDEST PUSH0 SLOAD PUSH1 0x1 PUSH1 0x1 PUSH1 0xA0 SHL SUB AND CALLER EQ DUP1 PUSH2 0x11BE JUMPI POP CALLER PUSH0 SWAP1 DUP2 MSTORE PUSH1 0x1 PUSH1 0x20 DUP2 SWAP1 MSTORE PUSH1 0x40 SWAP1 SWAP2 KECCAK256 SLOAD PUSH1 0xFF AND ISZERO ISZERO EQ JUMPDEST DUP1 PUSH2 0x11DC JUMPI POP CALLER PUSH0 SWAP1 DUP2 MSTORE PUSH1 0x6 PUSH1 0x20 MSTORE PUSH1 0x40 SWAP1 KECCAK256 SLOAD PUSH1 0xFF AND ISZERO ISZERO PUSH1 0x1 EQ JUMPDEST PUSH2 0x1245 JUMPI PUSH1 0x40 MLOAD PUSH3 0x461BCD PUSH1 0xE5 SHL DUP2 MSTORE PUSH1 0x20 PUSH1 0x4 DUP3 ADD MSTORE PUSH1 0x34 PUSH1 0x24 DUP3 ADD MSTORE PUSH32 0x6F6E6C7920746F7061646D696E206F722061646D696E20746561636865722063 PUSH1 0x44 DUP3 ADD MSTORE PUSH20 0x185B8818D85B1B081C9958DBDC9910DC99591A5D PUSH1 0x62 SHL PUSH1 0x64 DUP3 ADD MSTORE PUSH1 0x84 ADD PUSH2 0x938 JUMP JUMPDEST PUSH1 0x1 PUSH1 0x1 PUSH1 0xA0 SHL SUB DUP5 AND PUSH2 0x126B JUMPI PUSH1 0x40 MLOAD PUSH3 0x461BCD PUSH1 0xE5 SHL DUP2 MSTORE PUSH1 0x4 ADD PUSH2 0x938 SWAP1 PUSH2 0x317E JUMP JUMPDEST PUSH0 DUP4 DUP2 MSTORE PUSH1 0x7 PUSH1 0x20 MSTORE PUSH1 0x40 SWAP1 KECCAK256 SLOAD PUSH1 0xFF AND ISZERO ISZERO PUSH1 0x1 EQ PUSH2 0x12BF JUMPI PUSH1 0x40 MLOAD PUSH3 0x461BCD PUSH1 0xE5 SHL DUP2 MSTORE PUSH1 0x20 PUSH1 0x4 DUP3 ADD MSTORE PUSH1 0xF PUSH1 0x24 DUP3 ADD MSTORE PUSH15 0x18DBDD5C9CD9481B9BDD08195E1A5D PUSH1 0x8A SHL PUSH1 0x44 DUP3 ADD MSTORE PUSH1 0x64 ADD PUSH2 0x938 JUMP JUMPDEST PUSH0 DUP4 DUP2 MSTORE PUSH1 0x3 PUSH1 0x20 MSTORE PUSH1 0x40 DUP2 KECCAK256 PUSH1 0x2 ADD SLOAD TIMESTAMP SWAP2 PUSH1 0x3C DUP6 LT PUSH2 0x12E7 JUMPI PUSH2 0x12E4 DUP3 DUP7 PUSH2 0x31A7 JUMP JUMPDEST SWAP1 POP JUMPDEST PUSH1 0x40 MLOAD DUP1 PUSH2 0x140 ADD PUSH1 0x40 MSTORE DUP1 DUP8 DUP2 MSTORE PUSH1 0x20 ADD DUP3 DUP2 MSTORE PUSH1 0x20 ADD DUP7 DUP2 MSTORE PUSH1 0x20 ADD DUP5 DUP2 MSTORE PUSH1 0x20 ADD PUSH0 ISZERO ISZERO DUP2 MSTORE PUSH1 0x20 ADD PUSH0 DUP2 MSTORE PUSH1 0x20 ADD PUSH0 ISZERO ISZERO DUP2 MSTORE PUSH1 0x20 ADD DUP6 DUP2 MSTORE PUSH1 0x20 ADD PUSH0 ISZERO ISZERO DUP2 MSTORE PUSH1 0x20 ADD PUSH1 0x40 MLOAD DUP1 PUSH1 0x20 ADD PUSH1 0x40 MSTORE DUP1 PUSH0 DUP2 MSTORE POP DUP2 MSTORE POP PUSH1 0x4 PUSH0 DUP10 PUSH1 0x1 PUSH1 0x1 PUSH1 0xA0 SHL SUB AND PUSH1 0x1 PUSH1 0x1 PUSH1 0xA0 SHL SUB AND DUP2 MSTORE PUSH1 0x20 ADD SWAP1 DUP2 MSTORE PUSH1 0x20 ADD PUSH0 KECCAK256 PUSH0 DUP9 DUP2 MSTORE PUSH1 0x20 ADD SWAP1 DUP2 MSTORE PUSH1 0x20 ADD PUSH0 KECCAK256 PUSH0 DUP3 ADD MLOAD DUP2 PUSH0 ADD SSTORE PUSH1 0x20 DUP3 ADD MLOAD DUP2 PUSH1 0x1 ADD SSTORE PUSH1 0x40 DUP3 ADD MLOAD DUP2 PUSH1 0x2 ADD SSTORE PUSH1 0x60 DUP3 ADD MLOAD DUP2 PUSH1 0x3 ADD SSTORE PUSH1 0x80 DUP3 ADD MLOAD DUP2 PUSH1 0x4 ADD PUSH0 PUSH2 0x100 EXP DUP2 SLOAD DUP2 PUSH1 0xFF MUL NOT AND SWAP1 DUP4 ISZERO ISZERO MUL OR SWAP1 SSTORE POP PUSH1 0xA0 DUP3 ADD MLOAD DUP2 PUSH1 0x5 ADD SSTORE PUSH1 0xC0 DUP3 ADD MLOAD DUP2 PUSH1 0x6 ADD PUSH0 PUSH2 0x100 EXP DUP2 SLOAD DUP2 PUSH1 0xFF MUL NOT AND SWAP1 DUP4 ISZERO ISZERO MUL OR SWAP1 SSTORE POP PUSH1 0xE0 DUP3 ADD MLOAD DUP2 PUSH1 0x7 ADD SWAP1 DUP2 PUSH2 0x13F6 SWAP2 SWAP1 PUSH2 0x320A JUMP JUMPDEST POP PUSH2 0x100 DUP3 ADD MLOAD PUSH1 0x8 DUP3 ADD DUP1 SLOAD PUSH1 0xFF NOT AND SWAP2 ISZERO ISZERO SWAP2 SWAP1 SWAP2 OR SWAP1 SSTORE PUSH2 0x120 DUP3 ADD MLOAD PUSH1 0x9 DUP3 ADD SWAP1 PUSH2 0x1425 SWAP1 DUP3 PUSH2 0x320A JUMP JUMPDEST POP POP POP PUSH1 0x1 PUSH1 0x1 PUSH1 0xA0 SHL SUB SWAP1 SWAP7 AND PUSH0 SWAP1 DUP2 MSTORE PUSH1 0x5 PUSH1 0x20 SWAP1 DUP2 MSTORE PUSH1 0x40 DUP3 KECCAK256 DUP1 SLOAD PUSH1 0x1 DUP2 ADD DUP3 SSTORE SWAP1 DUP4 MSTORE SWAP2 KECCAK256 ADD SWAP5 SWAP1 SWAP5 SSTORE POP POP POP POP POP JUMP JUMPDEST PUSH1 0x1 PUSH1 0x1 PUSH1 0xA0 SHL SUB DUP2 AND PUSH0 SWAP1 DUP2 MSTORE PUSH1 0xA PUSH1 0x20 SWAP1 DUP2 MSTORE PUSH1 0x40 DUP1 DUP4 KECCAK256 CALLER DUP5 MSTORE SWAP1 SWAP2 MSTORE SWAP1 KECCAK256 SLOAD PUSH2 0x14C2 JUMPI PUSH1 0x40 MLOAD PUSH3 0x461BCD PUSH1 0xE5 SHL DUP2 MSTORE PUSH1 0x20 PUSH1 0x4 DUP3 ADD MSTORE PUSH1 0x15 PUSH1 0x24 DUP3 ADD MSTORE PUSH21 0x1E5BDD48191BC81B9BDD08189948185B1B1BDDD959 PUSH1 0x5A SHL PUSH1 0x44 DUP3 ADD MSTORE PUSH1 0x64 ADD PUSH2 0x938 JUMP JUMPDEST PUSH1 0x1 PUSH1 0x1 PUSH1 0xA0 SHL SUB DUP2 AND PUSH0 SWAP1 DUP2 MSTORE PUSH1 0xA PUSH1 0x20 SWAP1 DUP2 MSTORE PUSH1 0x40 DUP1 DUP4 KECCAK256 CALLER DUP5 MSTORE SWAP1 SWAP2 MSTORE DUP2 KECCAK256 DUP1 SLOAD SWAP2 PUSH2 0x14F0 DUP4 PUSH2 0x32CA JUMP JUMPDEST SWAP1 SWAP2 SSTORE POP POP PUSH1 0x1 PUSH1 0x1 PUSH1 0xA0 SHL SUB DUP2 AND PUSH0 SWAP1 DUP2 MSTORE PUSH1 0x5 PUSH1 0x20 MSTORE PUSH1 0x40 DUP2 KECCAK256 SLOAD SWAP1 DUP2 PUSH8 0xFFFFFFFFFFFFFFFF DUP2 GT ISZERO PUSH2 0x1527 JUMPI PUSH2 0x1527 PUSH2 0x2D90 JUMP JUMPDEST PUSH1 0x40 MLOAD SWAP1 DUP1 DUP3 MSTORE DUP1 PUSH1 0x20 MUL PUSH1 0x20 ADD DUP3 ADD PUSH1 0x40 MSTORE DUP1 ISZERO PUSH2 0x1560 JUMPI DUP2 PUSH1 0x20 ADD JUMPDEST PUSH2 0x154D PUSH2 0x2A27 JUMP JUMPDEST DUP2 MSTORE PUSH1 0x20 ADD SWAP1 PUSH1 0x1 SWAP1 SUB SWAP1 DUP2 PUSH2 0x1545 JUMPI SWAP1 POP JUMPDEST POP SWAP1 POP PUSH0 JUMPDEST DUP3 DUP2 LT ISZERO PUSH2 0x18F0 JUMPI PUSH1 0x1 PUSH1 0x1 PUSH1 0xA0 SHL SUB DUP5 AND PUSH0 SWAP1 DUP2 MSTORE PUSH1 0x5 PUSH1 0x20 MSTORE PUSH1 0x40 DUP2 KECCAK256 DUP1 SLOAD DUP4 SWAP1 DUP2 LT PUSH2 0x1596 JUMPI PUSH2 0x1596 PUSH2 0x306E JUMP JUMPDEST PUSH0 SWAP2 DUP3 MSTORE PUSH1 0x20 DUP1 DUP4 KECCAK256 SWAP1 SWAP2 ADD SLOAD PUSH1 0x1 PUSH1 0x1 PUSH1 0xA0 SHL SUB DUP9 AND DUP4 MSTORE PUSH1 0x4 DUP1 DUP4 MSTORE PUSH1 0x40 DUP1 DUP6 KECCAK256 DUP4 DUP7 MSTORE DUP5 MSTORE SWAP4 DUP5 SWAP1 KECCAK256 DUP5 MLOAD PUSH2 0x140 DUP2 ADD DUP7 MSTORE DUP2 SLOAD DUP2 MSTORE PUSH1 0x1 DUP3 ADD SLOAD SWAP5 DUP2 ADD SWAP5 SWAP1 SWAP5 MSTORE PUSH1 0x2 DUP2 ADD SLOAD SWAP5 DUP5 ADD SWAP5 SWAP1 SWAP5 MSTORE PUSH1 0x3 DUP5 ADD SLOAD PUSH1 0x60 DUP5 ADD MSTORE DUP4 ADD SLOAD PUSH1 0xFF SWAP1 DUP2 AND ISZERO ISZERO PUSH1 0x80 DUP5 ADD MSTORE PUSH1 0x5 DUP5 ADD SLOAD PUSH1 0xA0 DUP5 ADD MSTORE PUSH1 0x6 DUP5 ADD SLOAD AND ISZERO ISZERO PUSH1 0xC0 DUP4 ADD MSTORE PUSH1 0x7 DUP4 ADD DUP1 SLOAD SWAP2 SWAP5 POP SWAP2 SWAP3 SWAP2 PUSH1 0xE0 DUP5 ADD SWAP2 PUSH2 0x1631 SWAP1 PUSH2 0x30AF JUMP JUMPDEST DUP1 PUSH1 0x1F ADD PUSH1 0x20 DUP1 SWAP2 DIV MUL PUSH1 0x20 ADD PUSH1 0x40 MLOAD SWAP1 DUP2 ADD PUSH1 0x40 MSTORE DUP1 SWAP3 SWAP2 SWAP1 DUP2 DUP2 MSTORE PUSH1 0x20 ADD DUP3 DUP1 SLOAD PUSH2 0x165D SWAP1 PUSH2 0x30AF JUMP JUMPDEST DUP1 ISZERO PUSH2 0x16A8 JUMPI DUP1 PUSH1 0x1F LT PUSH2 0x167F JUMPI PUSH2 0x100 DUP1 DUP4 SLOAD DIV MUL DUP4 MSTORE SWAP2 PUSH1 0x20 ADD SWAP2 PUSH2 0x16A8 JUMP JUMPDEST DUP3 ADD SWAP2 SWAP1 PUSH0 MSTORE PUSH1 0x20 PUSH0 KECCAK256 SWAP1 JUMPDEST DUP2 SLOAD DUP2 MSTORE SWAP1 PUSH1 0x1 ADD SWAP1 PUSH1 0x20 ADD DUP1 DUP4 GT PUSH2 0x168B JUMPI DUP3 SWAP1 SUB PUSH1 0x1F AND DUP3 ADD SWAP2 JUMPDEST POP POP POP SWAP2 DUP4 MSTORE POP POP PUSH1 0x8 DUP3 ADD SLOAD PUSH1 0xFF AND ISZERO ISZERO PUSH1 0x20 DUP3 ADD MSTORE PUSH1 0x9 DUP3 ADD DUP1 SLOAD PUSH1 0x40 SWAP1 SWAP3 ADD SWAP2 PUSH2 0x16D4 SWAP1 PUSH2 0x30AF JUMP JUMPDEST DUP1 PUSH1 0x1F ADD PUSH1 0x20 DUP1 SWAP2 DIV MUL PUSH1 0x20 ADD PUSH1 0x40 MLOAD SWAP1 DUP2 ADD PUSH1 0x40 MSTORE DUP1 SWAP3 SWAP2 SWAP1 DUP2 DUP2 MSTORE PUSH1 0x20 ADD DUP3 DUP1 SLOAD PUSH2 0x1700 SWAP1 PUSH2 0x30AF JUMP JUMPDEST DUP1 ISZERO PUSH2 0x174B JUMPI DUP1 PUSH1 0x1F LT PUSH2 0x1722 JUMPI PUSH2 0x100 DUP1 DUP4 SLOAD DIV MUL DUP4 MSTORE SWAP2 PUSH1 0x20 ADD SWAP2 PUSH2 0x174B JUMP JUMPDEST DUP3 ADD SWAP2 SWAP1 PUSH0 MSTORE PUSH1 0x20 PUSH0 KECCAK256 SWAP1 JUMPDEST DUP2 SLOAD DUP2 MSTORE SWAP1 PUSH1 0x1 ADD SWAP1 PUSH1 0x20 ADD DUP1 DUP4 GT PUSH2 0x172E JUMPI DUP3 SWAP1 SUB PUSH1 0x1F AND DUP3 ADD SWAP2 JUMPDEST POP POP POP POP POP DUP2 MSTORE POP POP DUP4 DUP4 DUP2 MLOAD DUP2 LT PUSH2 0x1766 JUMPI PUSH2 0x1766 PUSH2 0x306E JUMP JUMPDEST PUSH1 0x20 MUL PUSH1 0x20 ADD ADD DUP2 SWAP1 MSTORE POP DUP5 PUSH1 0x1 PUSH1 0x1 PUSH1 0xA0 SHL SUB AND PUSH32 0x9CBF22D1E26C3FCDE690DD334D1B5EEC6973003FD2816D81EF98B31A669CC0D8 DUP5 DUP5 DUP2 MLOAD DUP2 LT PUSH2 0x17AE JUMPI PUSH2 0x17AE PUSH2 0x306E JUMP JUMPDEST PUSH1 0x20 MUL PUSH1 0x20 ADD ADD MLOAD PUSH0 ADD MLOAD DUP6 DUP6 DUP2 MLOAD DUP2 LT PUSH2 0x17CB JUMPI PUSH2 0x17CB PUSH2 0x306E JUMP JUMPDEST PUSH1 0x20 MUL PUSH1 0x20 ADD ADD MLOAD PUSH1 0x20 ADD MLOAD DUP7 DUP7 DUP2 MLOAD DUP2 LT PUSH2 0x17E9 JUMPI PUSH2 0x17E9 PUSH2 0x306E JUMP JUMPDEST PUSH1 0x20 MUL PUSH1 0x20 ADD ADD MLOAD PUSH1 0x40 ADD MLOAD DUP8 DUP8 DUP2 MLOAD DUP2 LT PUSH2 0x1807 JUMPI PUSH2 0x1807 PUSH2 0x306E JUMP JUMPDEST PUSH1 0x20 MUL PUSH1 0x20 ADD ADD MLOAD PUSH1 0x60 ADD MLOAD DUP9 DUP9 DUP2 MLOAD DUP2 LT PUSH2 0x1825 JUMPI PUSH2 0x1825 PUSH2 0x306E JUMP JUMPDEST PUSH1 0x20 MUL PUSH1 0x20 ADD ADD MLOAD PUSH1 0x80 ADD MLOAD DUP10 DUP10 DUP2 MLOAD DUP2 LT PUSH2 0x1843 JUMPI PUSH2 0x1843 PUSH2 0x306E JUMP JUMPDEST PUSH1 0x20 MUL PUSH1 0x20 ADD ADD MLOAD PUSH1 0xA0 ADD MLOAD DUP11 DUP11 DUP2 MLOAD DUP2 LT PUSH2 0x1861 JUMPI PUSH2 0x1861 PUSH2 0x306E JUMP JUMPDEST PUSH1 0x20 MUL PUSH1 0x20 ADD ADD MLOAD PUSH1 0xC0 ADD MLOAD DUP12 DUP12 DUP2 MLOAD DUP2 LT PUSH2 0x187F JUMPI PUSH2 0x187F PUSH2 0x306E JUMP JUMPDEST PUSH1 0x20 MUL PUSH1 0x20 ADD ADD MLOAD PUSH1 0xE0 ADD MLOAD DUP13 DUP13 DUP2 MLOAD DUP2 LT PUSH2 0x189D JUMPI PUSH2 0x189D PUSH2 0x306E JUMP JUMPDEST PUSH1 0x20 MUL PUSH1 0x20 ADD ADD MLOAD PUSH2 0x100 ADD MLOAD DUP14 DUP14 DUP2 MLOAD DUP2 LT PUSH2 0x18BC JUMPI PUSH2 0x18BC PUSH2 0x306E JUMP JUMPDEST PUSH1 0x20 MUL PUSH1 0x20 ADD ADD MLOAD PUSH2 0x120 ADD MLOAD PUSH1 0x40 MLOAD PUSH2 0x18DF SWAP11 SWAP10 SWAP9 SWAP8 SWAP7 SWAP6 SWAP5 SWAP4 SWAP3 SWAP2 SWAP1 PUSH2 0x2FFE JUMP JUMPDEST PUSH1 0x40 MLOAD DUP1 SWAP2 SUB SWAP1 LOG2 POP PUSH1 0x1 ADD PUSH2 0x1565 JUMP JUMPDEST POP POP POP POP JUMP JUMPDEST PUSH1 0x60 PUSH1 0x9 DUP1 SLOAD DUP1 PUSH1 0x20 MUL PUSH1 0x20 ADD PUSH1 0x40 MLOAD SWAP1 DUP2 ADD PUSH1 0x40 MSTORE DUP1 SWAP3 SWAP2 SWAP1 DUP2 DUP2 MSTORE PUSH1 0x20 ADD DUP3 DUP1 SLOAD DUP1 ISZERO PUSH2 0x1942 JUMPI PUSH1 0x20 MUL DUP3 ADD SWAP2 SWAP1 PUSH0 MSTORE PUSH1 0x20 PUSH0 KECCAK256 SWAP1 JUMPDEST DUP2 SLOAD DUP2 MSTORE PUSH1 0x20 ADD SWAP1 PUSH1 0x1 ADD SWAP1 DUP1 DUP4 GT PUSH2 0x192E JUMPI JUMPDEST POP POP POP POP POP SWAP1 POP SWAP1 JUMP JUMPDEST PUSH0 SLOAD PUSH1 0x1 PUSH1 0x1 PUSH1 0xA0 SHL SUB AND CALLER EQ DUP1 PUSH2 0x1978 JUMPI POP CALLER PUSH0 SWAP1 DUP2 MSTORE PUSH1 0x1 PUSH1 0x20 DUP2 SWAP1 MSTORE PUSH1 0x40 SWAP1 SWAP2 KECCAK256 SLOAD PUSH1 0xFF AND ISZERO ISZERO EQ JUMPDEST PUSH2 0x19CF JUMPI PUSH1 0x40 MLOAD PUSH3 0x461BCD PUSH1 0xE5 SHL DUP2 MSTORE PUSH1 0x20 PUSH1 0x4 DUP3 ADD MSTORE PUSH1 0x35 PUSH1 0x24 DUP3 ADD MSTORE PUSH0 DUP1 MLOAD PUSH1 0x20 PUSH2 0x33AF DUP4 CODECOPY DUP2 MLOAD SWAP2 MSTORE PUSH1 0x44 DUP3 ADD MSTORE PUSH21 0x30B8383937BB32A1B932B234BA2A3930B739B332B9 PUSH1 0x59 SHL PUSH1 0x64 DUP3 ADD MSTORE PUSH1 0x84 ADD PUSH2 0x938 JUMP JUMPDEST PUSH1 0x1 PUSH1 0x1 PUSH1 0xA0 SHL SUB DUP3 AND PUSH0 SWAP1 DUP2 MSTORE PUSH1 0xB PUSH1 0x20 MSTORE PUSH1 0x40 SWAP1 KECCAK256 DUP1 SLOAD DUP3 SWAP1 DUP2 LT PUSH2 0x19F8 JUMPI PUSH2 0x19F8 PUSH2 0x306E JUMP JUMPDEST PUSH0 SWAP2 DUP3 MSTORE PUSH1 0x20 SWAP1 SWAP2 KECCAK256 PUSH1 0x3 PUSH1 0x5 SWAP1 SWAP3 MUL ADD ADD SLOAD PUSH1 0xFF AND ISZERO PUSH2 0x1A5B JUMPI PUSH1 0x40 MLOAD PUSH3 0x461BCD PUSH1 0xE5 SHL DUP2 MSTORE PUSH1 0x20 PUSH1 0x4 DUP3 ADD MSTORE PUSH1 0x19 PUSH1 0x24 DUP3 ADD MSTORE PUSH32 0x5472616E7366657220616C726561647920617070726F76656400000000000000 PUSH1 0x44 DUP3 ADD MSTORE PUSH1 0x64 ADD PUSH2 0x938 JUMP JUMPDEST PUSH1 0x1 PUSH1 0x1 PUSH1 0xA0 SHL SUB DUP3 AND PUSH0 SWAP1 DUP2 MSTORE PUSH1 0xB PUSH1 0x20 MSTORE PUSH1 0x40 SWAP1 KECCAK256 DUP1 SLOAD PUSH1 0x1 SWAP2 SWAP1 DUP4 SWAP1 DUP2 LT PUSH2 0x1A88 JUMPI PUSH2 0x1A88 PUSH2 0x306E JUMP JUMPDEST PUSH0 SWAP2 DUP3 MSTORE PUSH1 0x20 SWAP1 SWAP2 KECCAK256 PUSH1 0x5 SWAP1 SWAP2 MUL ADD PUSH1 0x3 ADD DUP1 SLOAD PUSH1 0xFF NOT AND SWAP2 ISZERO ISZERO SWAP2 SWAP1 SWAP2 OR SWAP1 SSTORE POP POP JUMP JUMPDEST PUSH0 SLOAD PUSH1 0x1 PUSH1 0x1 PUSH1 0xA0 SHL SUB AND CALLER EQ PUSH2 0x1AD6 JUMPI PUSH1 0x40 MLOAD PUSH3 0x461BCD PUSH1 0xE5 SHL DUP2 MSTORE PUSH1 0x4 ADD PUSH2 0x938 SWAP1 PUSH2 0x30FF JUMP JUMPDEST PUSH1 0x1 PUSH1 0x1 PUSH1 0xA0 SHL SUB DUP2 AND PUSH0 DUP2 DUP2 MSTORE PUSH1 0x1 PUSH1 0x20 DUP2 SWAP1 MSTORE PUSH1 0x40 DUP1 DUP4 KECCAK256 DUP1 SLOAD PUSH1 0xFF NOT AND SWAP1 SWAP3 OR SWAP1 SWAP2 SSTORE MLOAD PUSH32 0x44D6D25963F097AD14F29F06854A01F575648A1EF82F30E562CCD3889717E339 SWAP2 SWAP1 LOG2 POP JUMP JUMPDEST PUSH0 SLOAD PUSH1 0x1 PUSH1 0x1 PUSH1 0xA0 SHL SUB AND CALLER EQ PUSH2 0x1B4D JUMPI PUSH1 0x40 MLOAD PUSH3 0x461BCD PUSH1 0xE5 SHL DUP2 MSTORE PUSH1 0x4 ADD PUSH2 0x938 SWAP1 PUSH2 0x30FF JUMP JUMPDEST PUSH0 DUP1 SLOAD PUSH1 0x40 MLOAD PUSH1 0x1 PUSH1 0x1 PUSH1 0xA0 SHL SUB SWAP1 SWAP2 AND SWAP1 PUSH32 0x8BE0079C531659141344CD1FD0A4F28419497F9722A3DAAFE3B4186F6B6457E0 SWAP1 DUP4 SWAP1 LOG3 PUSH0 DUP1 SLOAD PUSH1 0x1 PUSH1 0x1 PUSH1 0xA0 SHL SUB NOT AND SWAP1 SSTORE JUMP JUMPDEST CALLER PUSH0 SWAP1 DUP2 MSTORE PUSH1 0x4 PUSH1 0x20 SWAP1 DUP2 MSTORE PUSH1 0x40 DUP1 DUP4 KECCAK256 DUP6 DUP5 MSTORE SWAP1 SWAP2 MSTORE DUP2 KECCAK256 PUSH1 0x3 ADD SLOAD SWAP1 SUB PUSH2 0x1BD0 JUMPI PUSH1 0x40 MLOAD PUSH3 0x461BCD PUSH1 0xE5 SHL DUP2 MSTORE PUSH1 0x4 ADD PUSH2 0x938 SWAP1 PUSH2 0x311F JUMP JUMPDEST CALLER PUSH0 SWAP1 DUP2 MSTORE PUSH1 0x4 PUSH1 0x20 SWAP1 DUP2 MSTORE PUSH1 0x40 DUP1 DUP4 KECCAK256 DUP6 DUP5 MSTORE SWAP1 SWAP2 MSTORE SWAP1 KECCAK256 PUSH1 0x6 ADD SLOAD PUSH1 0xFF AND ISZERO PUSH2 0x1C0D JUMPI PUSH1 0x40 MLOAD PUSH3 0x461BCD PUSH1 0xE5 SHL DUP2 MSTORE PUSH1 0x4 ADD PUSH2 0x938 SWAP1 PUSH2 0x314E JUMP JUMPDEST CALLER PUSH0 DUP2 DUP2 MSTORE PUSH1 0xB PUSH1 0x20 SWAP1 DUP2 MSTORE PUSH1 0x40 DUP1 DUP4 KECCAK256 DUP1 SLOAD DUP3 MLOAD PUSH1 0xC0 DUP2 ADD DUP5 MSTORE SWAP6 DUP7 MSTORE DUP6 DUP5 ADD DUP9 DUP2 MSTORE SWAP3 DUP7 ADD DUP8 DUP2 MSTORE PUSH1 0x60 DUP8 ADD DUP7 SWAP1 MSTORE PUSH1 0x80 DUP8 ADD DUP7 SWAP1 MSTORE PUSH1 0xA0 DUP8 ADD DUP3 SWAP1 MSTORE PUSH1 0x1 DUP1 DUP4 ADD DUP5 SSTORE SWAP3 DUP7 MSTORE SWAP4 SWAP1 SWAP5 KECCAK256 DUP6 MLOAD PUSH1 0x5 DUP7 MUL SWAP1 SWAP2 ADD DUP1 SLOAD PUSH1 0x1 PUSH1 0x1 PUSH1 0xA0 SHL SUB NOT AND PUSH1 0x1 PUSH1 0x1 PUSH1 0xA0 SHL SUB SWAP1 SWAP3 AND SWAP2 SWAP1 SWAP2 OR DUP2 SSTORE SWAP2 MLOAD SWAP1 DUP3 ADD SSTORE SWAP1 MLOAD SWAP2 SWAP3 SWAP2 PUSH1 0x2 DUP3 ADD SWAP1 PUSH2 0x1C9A SWAP1 DUP3 PUSH2 0x320A JUMP JUMPDEST POP PUSH1 0x60 DUP3 ADD MLOAD PUSH1 0x3 DUP3 ADD DUP1 SLOAD PUSH1 0x80 DUP6 ADD MLOAD ISZERO ISZERO PUSH2 0x100 MUL PUSH2 0xFF00 NOT SWAP4 ISZERO ISZERO SWAP4 SWAP1 SWAP4 AND PUSH2 0xFFFF NOT SWAP1 SWAP2 AND OR SWAP2 SWAP1 SWAP2 OR SWAP1 SSTORE PUSH1 0xA0 SWAP1 SWAP2 ADD MLOAD PUSH1 0x4 SWAP1 SWAP2 ADD SSTORE PUSH0 DUP1 JUMPDEST PUSH1 0xC SLOAD DUP2 LT ISZERO PUSH2 0x1D2A JUMPI CALLER PUSH1 0x1 PUSH1 0x1 PUSH1 0xA0 SHL SUB AND PUSH1 0xC DUP3 DUP2 SLOAD DUP2 LT PUSH2 0x1D00 JUMPI PUSH2 0x1D00 PUSH2 0x306E JUMP JUMPDEST PUSH0 SWAP2 DUP3 MSTORE PUSH1 0x20 SWAP1 SWAP2 KECCAK256 ADD SLOAD PUSH1 0x1 PUSH1 0x1 PUSH1 0xA0 SHL SUB AND SUB PUSH2 0x1D22 JUMPI PUSH1 0x1 SWAP2 POP PUSH2 0x1D2A JUMP JUMPDEST PUSH1 0x1 ADD PUSH2 0x1CD9 JUMP JUMPDEST POP DUP1 PUSH2 0x18F0 JUMPI PUSH1 0xC DUP1 SLOAD PUSH1 0x1 DUP2 ADD DUP3 SSTORE PUSH0 SWAP2 SWAP1 SWAP2 MSTORE PUSH32 0xDF6966C971051C3D54EC59162606531493A51404A002842F56009D7E5CF4A8C7 ADD DUP1 SLOAD PUSH1 0x1 PUSH1 0x1 PUSH1 0xA0 SHL SUB NOT AND CALLER OR SWAP1 SSTORE POP POP POP POP JUMP JUMPDEST PUSH2 0x1D9F PUSH1 0x40 MLOAD DUP1 PUSH1 0x80 ADD PUSH1 0x40 MSTORE DUP1 PUSH0 DUP2 MSTORE PUSH1 0x20 ADD PUSH1 0x60 DUP2 MSTORE PUSH1 0x20 ADD PUSH0 DUP2 MSTORE PUSH1 0x20 ADD PUSH0 DUP2 MSTORE POP SWAP1 JUMP JUMPDEST PUSH0 DUP3 DUP2 MSTORE PUSH1 0x7 PUSH1 0x20 MSTORE PUSH1 0x40 SWAP1 KECCAK256 DUP1 SLOAD PUSH1 0xFF NOT AND PUSH1 0x1 OR SWAP1 SSTORE PUSH1 0x3 PUSH0 DUP4 DUP2 MSTORE PUSH1 0x20 ADD SWAP1 DUP2 MSTORE PUSH1 0x20 ADD PUSH0 KECCAK256 PUSH1 0x40 MLOAD DUP1 PUSH1 0x80 ADD PUSH1 0x40 MSTORE SWAP1 DUP2 PUSH0 DUP3 ADD SLOAD DUP2 MSTORE PUSH1 0x20 ADD PUSH1 0x1 DUP3 ADD DUP1 SLOAD PUSH2 0x1DEC SWAP1 PUSH2 0x30AF JUMP JUMPDEST DUP1 PUSH1 0x1F ADD PUSH1 0x20 DUP1 SWAP2 DIV MUL PUSH1 0x20 ADD PUSH1 0x40 MLOAD SWAP1 DUP2 ADD PUSH1 0x40 MSTORE DUP1 SWAP3 SWAP2 SWAP1 DUP2 DUP2 MSTORE PUSH1 0x20 ADD DUP3 DUP1 SLOAD PUSH2 0x1E18 SWAP1 PUSH2 0x30AF JUMP JUMPDEST DUP1 ISZERO PUSH2 0x1E63 JUMPI DUP1 PUSH1 0x1F LT PUSH2 0x1E3A JUMPI PUSH2 0x100 DUP1 DUP4 SLOAD DIV MUL DUP4 MSTORE SWAP2 PUSH1 0x20 ADD SWAP2 PUSH2 0x1E63 JUMP JUMPDEST DUP3 ADD SWAP2 SWAP1 PUSH0 MSTORE PUSH1 0x20 PUSH0 KECCAK256 SWAP1 JUMPDEST DUP2 SLOAD DUP2 MSTORE SWAP1 PUSH1 0x1 ADD SWAP1 PUSH1 0x20 ADD DUP1 DUP4 GT PUSH2 0x1E46 JUMPI DUP3 SWAP1 SUB PUSH1 0x1F AND DUP3 ADD SWAP2 JUMPDEST POP POP POP POP POP DUP2 MSTORE PUSH1 0x20 ADD PUSH1 0x2 DUP3 ADD SLOAD DUP2 MSTORE PUSH1 0x20 ADD PUSH1 0x3 DUP3 ADD SLOAD DUP2 MSTORE POP POP SWAP1 POP SWAP2 SWAP1 POP JUMP JUMPDEST PUSH1 0x1 PUSH1 0x1 PUSH1 0xA0 SHL SUB DUP3 DUP2 AND PUSH0 SWAP1 DUP2 MSTORE PUSH1 0x2 PUSH1 0x20 DUP2 DUP2 MSTORE PUSH1 0x40 DUP1 DUP5 KECCAK256 DUP2 MLOAD PUSH1 0x80 DUP2 ADD DUP4 MSTORE PUSH1 0xD DUP1 SLOAD DUP3 MSTORE CALLER DUP3 DUP7 ADD SWAP1 DUP2 MSTORE SWAP4 DUP3 ADD DUP10 DUP2 MSTORE PUSH1 0x60 DUP4 ADD DUP9 DUP2 MSTORE DUP5 SLOAD PUSH1 0x1 DUP1 DUP3 ADD DUP8 SSTORE SWAP6 DUP11 MSTORE SWAP7 DUP10 KECCAK256 SWAP4 MLOAD PUSH1 0x4 SWAP1 SWAP8 MUL SWAP1 SWAP4 ADD SWAP6 DUP7 SSTORE SWAP4 MLOAD SWAP3 DUP6 ADD DUP1 SLOAD PUSH1 0x1 PUSH1 0x1 PUSH1 0xA0 SHL SUB NOT AND SWAP4 SWAP1 SWAP9 AND SWAP3 SWAP1 SWAP3 OR SWAP1 SWAP7 SSTORE SWAP1 MLOAD SWAP3 DUP3 ADD SWAP3 SWAP1 SWAP3 SSTORE SWAP3 MLOAD PUSH1 0x3 SWAP1 SWAP4 ADD DUP1 SLOAD PUSH1 0xFF NOT AND SWAP4 ISZERO ISZERO SWAP4 SWAP1 SWAP4 OR SWAP1 SWAP3 SSTORE DUP2 SLOAD SWAP2 SWAP1 PUSH2 0x1F29 DUP4 PUSH2 0x30E7 JUMP JUMPDEST SWAP2 SWAP1 POP SSTORE POP POP POP JUMP JUMPDEST PUSH1 0x60 PUSH1 0x1 PUSH1 0x1 PUSH1 0xA0 SHL SUB DUP3 AND PUSH2 0x1F8A JUMPI PUSH1 0x40 MLOAD PUSH3 0x461BCD PUSH1 0xE5 SHL DUP2 MSTORE PUSH1 0x20 PUSH1 0x4 DUP3 ADD MSTORE PUSH1 0x17 PUSH1 0x24 DUP3 ADD MSTORE PUSH32 0x496E76616C69642073747564656E742061646472657373000000000000000000 PUSH1 0x44 DUP3 ADD MSTORE PUSH1 0x64 ADD PUSH2 0x938 JUMP JUMPDEST PUSH1 0x1 PUSH1 0x1 PUSH1 0xA0 SHL SUB DUP3 AND PUSH0 SWAP1 DUP2 MSTORE PUSH1 0xB PUSH1 0x20 SWAP1 DUP2 MSTORE PUSH1 0x40 DUP1 DUP4 KECCAK256 DUP1 SLOAD DUP3 MLOAD DUP2 DUP6 MUL DUP2 ADD DUP6 ADD SWAP1 SWAP4 MSTORE DUP1 DUP4 MSTORE SWAP2 SWAP4 SWAP1 SWAP3 DUP5 ADD JUMPDEST DUP3 DUP3 LT ISZERO PUSH2 0x20CC JUMPI PUSH0 DUP5 DUP2 MSTORE PUSH1 0x20 SWAP1 DUP2 SWAP1 KECCAK256 PUSH1 0x40 DUP1 MLOAD PUSH1 0xC0 DUP2 ADD DUP3 MSTORE PUSH1 0x5 DUP7 MUL SWAP1 SWAP3 ADD DUP1 SLOAD PUSH1 0x1 PUSH1 0x1 PUSH1 0xA0 SHL SUB AND DUP4 MSTORE PUSH1 0x1 DUP2 ADD SLOAD SWAP4 DUP4 ADD SWAP4 SWAP1 SWAP4 MSTORE PUSH1 0x2 DUP4 ADD DUP1 SLOAD SWAP3 SWAP4 SWAP3 SWAP2 DUP5 ADD SWAP2 PUSH2 0x200E SWAP1 PUSH2 0x30AF JUMP JUMPDEST DUP1 PUSH1 0x1F ADD PUSH1 0x20 DUP1 SWAP2 DIV MUL PUSH1 0x20 ADD PUSH1 0x40 MLOAD SWAP1 DUP2 ADD PUSH1 0x40 MSTORE DUP1 SWAP3 SWAP2 SWAP1 DUP2 DUP2 MSTORE PUSH1 0x20 ADD DUP3 DUP1 SLOAD PUSH2 0x203A SWAP1 PUSH2 0x30AF JUMP JUMPDEST DUP1 ISZERO PUSH2 0x2085 JUMPI DUP1 PUSH1 0x1F LT PUSH2 0x205C JUMPI PUSH2 0x100 DUP1 DUP4 SLOAD DIV MUL DUP4 MSTORE SWAP2 PUSH1 0x20 ADD SWAP2 PUSH2 0x2085 JUMP JUMPDEST DUP3 ADD SWAP2 SWAP1 PUSH0 MSTORE PUSH1 0x20 PUSH0 KECCAK256 SWAP1 JUMPDEST DUP2 SLOAD DUP2 MSTORE SWAP1 PUSH1 0x1 ADD SWAP1 PUSH1 0x20 ADD DUP1 DUP4 GT PUSH2 0x2068 JUMPI DUP3 SWAP1 SUB PUSH1 0x1F AND DUP3 ADD SWAP2 JUMPDEST POP POP POP SWAP2 DUP4 MSTORE POP POP PUSH1 0x3 DUP3 ADD SLOAD PUSH1 0xFF DUP1 DUP3 AND ISZERO ISZERO PUSH1 0x20 DUP1 DUP6 ADD SWAP2 SWAP1 SWAP2 MSTORE PUSH2 0x100 SWAP1 SWAP3 DIV AND ISZERO ISZERO PUSH1 0x40 DUP4 ADD MSTORE PUSH1 0x4 SWAP1 SWAP3 ADD SLOAD PUSH1 0x60 SWAP1 SWAP2 ADD MSTORE SWAP1 DUP3 MSTORE PUSH1 0x1 SWAP3 SWAP1 SWAP3 ADD SWAP2 ADD PUSH2 0x1FBC JUMP JUMPDEST POP POP POP POP SWAP1 POP SWAP2 SWAP1 POP JUMP JUMPDEST PUSH1 0x3 PUSH1 0x20 MSTORE PUSH0 SWAP1 DUP2 MSTORE PUSH1 0x40 SWAP1 KECCAK256 DUP1 SLOAD PUSH1 0x1 DUP3 ADD DUP1 SLOAD SWAP2 SWAP3 SWAP2 PUSH2 0x20F8 SWAP1 PUSH2 0x30AF JUMP JUMPDEST DUP1 PUSH1 0x1F ADD PUSH1 0x20 DUP1 SWAP2 DIV MUL PUSH1 0x20 ADD PUSH1 0x40 MLOAD SWAP1 DUP2 ADD PUSH1 0x40 MSTORE DUP1 SWAP3 SWAP2 SWAP1 DUP2 DUP2 MSTORE PUSH1 0x20 ADD DUP3 DUP1 SLOAD PUSH2 0x2124 SWAP1 PUSH2 0x30AF JUMP JUMPDEST DUP1 ISZERO PUSH2 0x216F JUMPI DUP1 PUSH1 0x1F LT PUSH2 0x2146 JUMPI PUSH2 0x100 DUP1 DUP4 SLOAD DIV MUL DUP4 MSTORE SWAP2 PUSH1 0x20 ADD SWAP2 PUSH2 0x216F JUMP JUMPDEST DUP3 ADD SWAP2 SWAP1 PUSH0 MSTORE PUSH1 0x20 PUSH0 KECCAK256 SWAP1 JUMPDEST DUP2 SLOAD DUP2 MSTORE SWAP1 PUSH1 0x1 ADD SWAP1 PUSH1 0x20 ADD DUP1 DUP4 GT PUSH2 0x2152 JUMPI DUP3 SWAP1 SUB PUSH1 0x1F AND DUP3 ADD SWAP2 JUMPDEST POP POP POP POP POP SWAP1 DUP1 PUSH1 0x2 ADD SLOAD SWAP1 DUP1 PUSH1 0x3 ADD SLOAD SWAP1 POP DUP5 JUMP JUMPDEST CALLER PUSH0 SWAP1 DUP2 MSTORE PUSH1 0x6 PUSH1 0x20 MSTORE PUSH1 0x40 SWAP1 KECCAK256 SLOAD PUSH1 0xFF AND PUSH2 0x21D3 JUMPI PUSH1 0x40 MLOAD PUSH3 0x461BCD PUSH1 0xE5 SHL DUP2 MSTORE PUSH1 0x20 PUSH1 0x4 DUP3 ADD MSTORE PUSH1 0xD PUSH1 0x24 DUP3 ADD MSTORE PUSH13 0x2737BA1030903A32B0B1B432B9 PUSH1 0x99 SHL PUSH1 0x44 DUP3 ADD MSTORE PUSH1 0x64 ADD PUSH2 0x938 JUMP JUMPDEST PUSH1 0x1 PUSH1 0x1 PUSH1 0xA0 SHL SUB DUP4 AND PUSH0 SWAP1 DUP2 MSTORE PUSH1 0x4 PUSH1 0x20 SWAP1 DUP2 MSTORE PUSH1 0x40 DUP1 DUP4 KECCAK256 DUP6 DUP5 MSTORE SWAP1 SWAP2 MSTORE DUP2 KECCAK256 PUSH1 0x3 ADD SLOAD SWAP1 SUB PUSH2 0x2217 JUMPI PUSH1 0x40 MLOAD PUSH3 0x461BCD PUSH1 0xE5 SHL DUP2 MSTORE PUSH1 0x4 ADD PUSH2 0x938 SWAP1 PUSH2 0x311F JUMP JUMPDEST PUSH1 0x1 PUSH1 0x1 PUSH1 0xA0 SHL SUB DUP4 AND PUSH2 0x223D JUMPI PUSH1 0x40 MLOAD PUSH3 0x461BCD PUSH1 0xE5 SHL DUP2 MSTORE PUSH1 0x4 ADD PUSH2 0x938 SWAP1 PUSH2 0x317E JUMP JUMPDEST PUSH1 0x1 PUSH1 0x1 PUSH1 0xA0 SHL SUB DUP4 AND PUSH0 SWAP1 DUP2 MSTORE PUSH1 0x4 PUSH1 0x20 SWAP1 DUP2 MSTORE PUSH1 0x40 DUP1 DUP4 KECCAK256 DUP6 DUP5 MSTORE SWAP1 SWAP2 MSTORE SWAP1 KECCAK256 PUSH1 0x6 ADD SLOAD PUSH1 0xFF AND ISZERO PUSH2 0x2283 JUMPI PUSH1 0x40 MLOAD PUSH3 0x461BCD PUSH1 0xE5 SHL DUP2 MSTORE PUSH1 0x4 ADD PUSH2 0x938 SWAP1 PUSH2 0x314E JUMP JUMPDEST PUSH1 0x1 PUSH1 0x1 PUSH1 0xA0 SHL SUB DUP4 AND PUSH0 SWAP1 DUP2 MSTORE PUSH1 0x4 PUSH1 0x20 SWAP1 DUP2 MSTORE PUSH1 0x40 DUP1 DUP4 KECCAK256 DUP6 DUP5 MSTORE SWAP1 SWAP2 MSTORE DUP2 KECCAK256 PUSH1 0x5 ADD SLOAD PUSH2 0x22B4 SWAP1 PUSH1 0x1 PUSH2 0x3096 JUMP JUMPDEST PUSH0 DUP5 DUP2 MSTORE PUSH1 0x3 PUSH1 0x20 MSTORE PUSH1 0x40 DUP2 KECCAK256 PUSH1 0x2 ADD SLOAD SWAP2 SWAP3 POP SWAP1 PUSH2 0x22D3 SWAP1 DUP5 PUSH2 0x31A7 JUMP JUMPDEST PUSH1 0x1 PUSH1 0x1 PUSH1 0xA0 SHL SUB SWAP6 SWAP1 SWAP6 AND PUSH0 SWAP1 DUP2 MSTORE PUSH1 0x4 PUSH1 0x20 DUP2 DUP2 MSTORE PUSH1 0x40 DUP1 DUP5 KECCAK256 SWAP8 DUP5 MSTORE SWAP7 SWAP1 MSTORE SWAP5 SWAP1 KECCAK256 PUSH1 0x1 DUP1 DUP3 ADD SWAP7 SWAP1 SWAP7 SSTORE PUSH1 0x5 DUP2 ADD SWAP3 SWAP1 SWAP3 SSTORE POP PUSH1 0x2 DUP2 ADD SWAP2 SWAP1 SWAP2 SSTORE ADD DUP1 SLOAD PUSH1 0xFF NOT AND SWAP1 SWAP2 OR SWAP1 SSTORE JUMP JUMPDEST PUSH1 0x2 PUSH1 0x20 MSTORE DUP2 PUSH0 MSTORE PUSH1 0x40 PUSH0 KECCAK256 DUP2 DUP2 SLOAD DUP2 LT PUSH2 0x2339 JUMPI PUSH0 DUP1 REVERT JUMPDEST PUSH0 SWAP2 DUP3 MSTORE PUSH1 0x20 SWAP1 SWAP2 KECCAK256 PUSH1 0x4 SWAP1 SWAP2 MUL ADD DUP1 SLOAD PUSH1 0x1 DUP3 ADD SLOAD PUSH1 0x2 DUP4 ADD SLOAD PUSH1 0x3 SWAP1 SWAP4 ADD SLOAD SWAP2 SWAP5 POP PUSH1 0x1 PUSH1 0x1 PUSH1 0xA0 SHL SUB AND SWAP3 POP PUSH1 0xFF AND DUP5 JUMP JUMPDEST PUSH0 SLOAD PUSH1 0x1 PUSH1 0x1 PUSH1 0xA0 SHL SUB AND CALLER EQ DUP1 PUSH2 0x239A JUMPI POP CALLER PUSH0 SWAP1 DUP2 MSTORE PUSH1 0x1 PUSH1 0x20 DUP2 SWAP1 MSTORE PUSH1 0x40 SWAP1 SWAP2 KECCAK256 SLOAD PUSH1 0xFF AND ISZERO ISZERO EQ JUMPDEST PUSH2 0x23E3 JUMPI PUSH1 0x40 MLOAD PUSH3 0x461BCD PUSH1 0xE5 SHL DUP2 MSTORE PUSH1 0x20 PUSH1 0x4 DUP3 ADD MSTORE PUSH1 0x27 PUSH1 0x24 DUP3 ADD MSTORE PUSH0 DUP1 MLOAD PUSH1 0x20 PUSH2 0x33AF DUP4 CODECOPY DUP2 MLOAD SWAP2 MSTORE PUSH1 0x44 DUP3 ADD MSTORE PUSH7 0x65786563757465 PUSH1 0xC8 SHL PUSH1 0x64 DUP3 ADD MSTORE PUSH1 0x84 ADD PUSH2 0x938 JUMP JUMPDEST PUSH1 0x1 PUSH1 0x1 PUSH1 0xA0 SHL SUB DUP3 AND PUSH0 SWAP1 DUP2 MSTORE PUSH1 0xB PUSH1 0x20 MSTORE PUSH1 0x40 SWAP1 KECCAK256 DUP1 SLOAD DUP3 SWAP1 DUP2 LT PUSH2 0x240C JUMPI PUSH2 0x240C PUSH2 0x306E JUMP JUMPDEST PUSH0 SWAP2 DUP3 MSTORE PUSH1 0x20 SWAP1 SWAP2 KECCAK256 PUSH1 0x3 PUSH1 0x5 SWAP1 SWAP3 MUL ADD ADD SLOAD PUSH1 0xFF AND PUSH2 0x2466 JUMPI PUSH1 0x40 MLOAD PUSH3 0x461BCD PUSH1 0xE5 SHL DUP2 MSTORE PUSH1 0x20 PUSH1 0x4 DUP3 ADD MSTORE PUSH1 0x15 PUSH1 0x24 DUP3 ADD MSTORE PUSH21 0x151C985B9CD9995C881B9BDD08185C1C1C9BDD9959 PUSH1 0x5A SHL PUSH1 0x44 DUP3 ADD MSTORE PUSH1 0x64 ADD PUSH2 0x938 JUMP JUMPDEST PUSH1 0x1 PUSH1 0x1 PUSH1 0xA0 SHL SUB DUP3 AND PUSH0 SWAP1 DUP2 MSTORE PUSH1 0xB PUSH1 0x20 MSTORE PUSH1 0x40 SWAP1 KECCAK256 DUP1 SLOAD DUP3 SWAP1 DUP2 LT PUSH2 0x248F JUMPI PUSH2 0x248F PUSH2 0x306E JUMP JUMPDEST SWAP1 PUSH0 MSTORE PUSH1 0x20 PUSH0 KECCAK256 SWAP1 PUSH1 0x5 MUL ADD PUSH1 0x3 ADD PUSH1 0x1 SWAP1 SLOAD SWAP1 PUSH2 0x100 EXP SWAP1 DIV PUSH1 0xFF AND ISZERO PUSH2 0x24F9 JUMPI PUSH1 0x40 MLOAD PUSH3 0x461BCD PUSH1 0xE5 SHL DUP2 MSTORE PUSH1 0x20 PUSH1 0x4 DUP3 ADD MSTORE PUSH1 0x19 PUSH1 0x24 DUP3 ADD MSTORE PUSH32 0x5472616E7366657220616C726561647920657865637574656400000000000000 PUSH1 0x44 DUP3 ADD MSTORE PUSH1 0x64 ADD PUSH2 0x938 JUMP JUMPDEST PUSH1 0x1 PUSH1 0x1 PUSH1 0xA0 SHL SUB DUP3 AND PUSH0 SWAP1 DUP2 MSTORE PUSH1 0xB PUSH1 0x20 MSTORE PUSH1 0x40 SWAP1 KECCAK256 DUP1 SLOAD DUP3 SWAP1 DUP2 LT PUSH2 0x2522 JUMPI PUSH2 0x2522 PUSH2 0x306E JUMP JUMPDEST PUSH0 SWAP2 DUP3 MSTORE PUSH1 0x20 DUP1 DUP4 KECCAK256 PUSH1 0x1 PUSH1 0x1 PUSH1 0xA0 SHL SUB DUP7 AND DUP5 MSTORE PUSH1 0x4 DUP3 MSTORE PUSH1 0x40 DUP1 DUP6 KECCAK256 PUSH1 0xB SWAP1 SWAP4 MSTORE DUP5 KECCAK256 DUP1 SLOAD PUSH1 0x5 SWAP5 SWAP1 SWAP5 MUL SWAP1 SWAP2 ADD PUSH1 0x2 ADD SWAP4 SWAP2 SWAP3 DUP6 SWAP1 DUP2 LT PUSH2 0x2568 JUMPI PUSH2 0x2568 PUSH2 0x306E JUMP JUMPDEST SWAP1 PUSH0 MSTORE PUSH1 0x20 PUSH0 KECCAK256 SWAP1 PUSH1 0x5 MUL ADD PUSH1 0x1 ADD SLOAD DUP2 MSTORE PUSH1 0x20 ADD SWAP1 DUP2 MSTORE PUSH1 0x20 ADD PUSH0 KECCAK256 PUSH1 0x9 ADD SWAP1 DUP2 PUSH2 0x2594 SWAP2 SWAP1 PUSH2 0x32DF JUMP JUMPDEST POP PUSH1 0x1 PUSH1 0x1 PUSH1 0xA0 SHL SUB DUP3 AND PUSH0 SWAP1 DUP2 MSTORE PUSH1 0xB PUSH1 0x20 MSTORE PUSH1 0x40 SWAP1 KECCAK256 DUP1 SLOAD PUSH1 0x1 SWAP2 SWAP1 DUP4 SWAP1 DUP2 LT PUSH2 0x25C2 JUMPI PUSH2 0x25C2 PUSH2 0x306E JUMP JUMPDEST PUSH0 SWAP2 DUP3 MSTORE PUSH1 0x20 DUP1 DUP4 KECCAK256 PUSH1 0x3 PUSH1 0x5 SWAP1 SWAP4 MUL ADD SWAP2 SWAP1 SWAP2 ADD DUP1 SLOAD SWAP4 ISZERO ISZERO PUSH2 0x100 MUL PUSH2 0xFF00 NOT SWAP1 SWAP5 AND SWAP4 SWAP1 SWAP4 OR SWAP1 SWAP3 SSTORE PUSH1 0x1 PUSH1 0x1 PUSH1 0xA0 SHL SUB DUP5 AND DUP2 MSTORE PUSH1 0x4 DUP3 MSTORE PUSH1 0x40 DUP1 DUP3 KECCAK256 PUSH1 0xB SWAP1 SWAP4 MSTORE DUP2 KECCAK256 DUP1 SLOAD PUSH1 0x1 SWAP4 SWAP3 SWAP2 SWAP1 DUP6 SWAP1 DUP2 LT PUSH2 0x2622 JUMPI PUSH2 0x2622 PUSH2 0x306E JUMP JUMPDEST SWAP1 PUSH0 MSTORE PUSH1 0x20 PUSH0 KECCAK256 SWAP1 PUSH1 0x5 MUL ADD PUSH1 0x1 ADD SLOAD DUP2 MSTORE PUSH1 0x20 ADD SWAP1 DUP2 MSTORE PUSH1 0x20 ADD PUSH0 KECCAK256 PUSH1 0x8 ADD PUSH0 PUSH2 0x100 EXP DUP2 SLOAD DUP2 PUSH1 0xFF MUL NOT AND SWAP1 DUP4 ISZERO ISZERO MUL OR SWAP1 SSTORE POP POP POP JUMP JUMPDEST PUSH0 SLOAD PUSH1 0x1 PUSH1 0x1 PUSH1 0xA0 SHL SUB AND CALLER EQ DUP1 PUSH2 0x2688 JUMPI POP CALLER PUSH0 SWAP1 DUP2 MSTORE PUSH1 0x1 PUSH1 0x20 DUP2 SWAP1 MSTORE PUSH1 0x40 SWAP1 SWAP2 KECCAK256 SLOAD PUSH1 0xFF AND ISZERO ISZERO EQ JUMPDEST PUSH2 0x26D3 JUMPI PUSH1 0x40 MLOAD PUSH3 0x461BCD PUSH1 0xE5 SHL DUP2 MSTORE PUSH1 0x20 PUSH1 0x4 DUP3 ADD MSTORE PUSH1 0x29 PUSH1 0x24 DUP3 ADD MSTORE PUSH0 DUP1 MLOAD PUSH1 0x20 PUSH2 0x33AF DUP4 CODECOPY DUP2 MLOAD SWAP2 MSTORE PUSH1 0x44 DUP3 ADD MSTORE PUSH9 0x616464436F75727365 PUSH1 0xB8 SHL PUSH1 0x64 DUP3 ADD MSTORE PUSH1 0x84 ADD PUSH2 0x938 JUMP JUMPDEST PUSH0 DUP4 DUP2 MSTORE PUSH1 0x7 PUSH1 0x20 MSTORE PUSH1 0x40 SWAP1 KECCAK256 SLOAD PUSH1 0xFF AND ISZERO PUSH2 0x2729 JUMPI PUSH1 0x40 MLOAD PUSH3 0x461BCD PUSH1 0xE5 SHL DUP2 MSTORE PUSH1 0x20 PUSH1 0x4 DUP3 ADD MSTORE PUSH1 0x15 PUSH1 0x24 DUP3 ADD MSTORE PUSH21 0x436F7572736520616C726561647920657869737473 PUSH1 0x58 SHL PUSH1 0x44 DUP3 ADD MSTORE PUSH1 0x64 ADD PUSH2 0x938 JUMP JUMPDEST PUSH0 DUP4 DUP2 MSTORE PUSH1 0x7 PUSH1 0x20 SWAP1 DUP2 MSTORE PUSH1 0x40 DUP1 DUP4 KECCAK256 DUP1 SLOAD PUSH1 0xFF NOT AND PUSH1 0x1 SWAP1 DUP2 OR SWAP1 SWAP2 SSTORE PUSH1 0x9 DUP1 SLOAD DUP1 DUP4 ADD SWAP1 SWAP2 SSTORE PUSH32 0x6E1540171B6C0C960B71A7020D9F60077F6AF931A8BBF590DA0223DACF75C7AF ADD DUP8 SWAP1 SSTORE DUP2 MLOAD PUSH1 0x80 DUP2 ADD DUP4 MSTORE DUP8 DUP2 MSTORE DUP1 DUP5 ADD DUP7 DUP2 MSTORE DUP2 DUP5 ADD DUP9 SWAP1 MSTORE TIMESTAMP PUSH1 0x60 DUP4 ADD MSTORE DUP9 DUP7 MSTORE PUSH1 0x3 SWAP1 SWAP5 MSTORE SWAP2 SWAP1 SWAP4 KECCAK256 DUP2 MLOAD DUP2 SSTORE SWAP2 MLOAD SWAP1 SWAP3 DUP3 ADD SWAP1 PUSH2 0x27B4 SWAP1 DUP3 PUSH2 0x320A JUMP JUMPDEST POP PUSH1 0x40 DUP3 ADD MLOAD PUSH1 0x2 DUP3 ADD SSTORE PUSH1 0x60 SWAP1 SWAP2 ADD MLOAD PUSH1 0x3 SWAP1 SWAP2 ADD SSTORE POP POP POP JUMP JUMPDEST PUSH1 0x9 DUP2 DUP2 SLOAD DUP2 LT PUSH2 0x27DF JUMPI PUSH0 DUP1 REVERT JUMPDEST PUSH0 SWAP2 DUP3 MSTORE PUSH1 0x20 SWAP1 SWAP2 KECCAK256 ADD SLOAD SWAP1 POP DUP2 JUMP JUMPDEST PUSH1 0x4 PUSH1 0x20 DUP2 DUP2 MSTORE PUSH0 SWAP4 DUP5 MSTORE PUSH1 0x40 DUP1 DUP6 KECCAK256 SWAP1 SWAP2 MSTORE SWAP2 DUP4 MSTORE SWAP2 KECCAK256 DUP1 SLOAD PUSH1 0x1 DUP3 ADD SLOAD PUSH1 0x2 DUP4 ADD SLOAD PUSH1 0x3 DUP5 ADD SLOAD SWAP5 DUP5 ADD SLOAD PUSH1 0x5 DUP6 ADD SLOAD PUSH1 0x6 DUP7 ADD SLOAD PUSH1 0x7 DUP8 ADD DUP1 SLOAD SWAP7 SWAP9 SWAP6 SWAP8 SWAP5 SWAP7 PUSH1 0xFF SWAP5 DUP6 AND SWAP6 SWAP4 SWAP5 SWAP1 SWAP3 AND SWAP3 SWAP2 PUSH2 0x2848 SWAP1 PUSH2 0x30AF JUMP JUMPDEST DUP1 PUSH1 0x1F ADD PUSH1 0x20 DUP1 SWAP2 DIV MUL PUSH1 0x20 ADD PUSH1 0x40 MLOAD SWAP1 DUP2 ADD PUSH1 0x40 MSTORE DUP1 SWAP3 SWAP2 SWAP1 DUP2 DUP2 MSTORE PUSH1 0x20 ADD DUP3 DUP1 SLOAD PUSH2 0x2874 SWAP1 PUSH2 0x30AF JUMP JUMPDEST DUP1 ISZERO PUSH2 0x28BF JUMPI DUP1 PUSH1 0x1F LT PUSH2 0x2896 JUMPI PUSH2 0x100 DUP1 DUP4 SLOAD DIV MUL DUP4 MSTORE SWAP2 PUSH1 0x20 ADD SWAP2 PUSH2 0x28BF JUMP JUMPDEST DUP3 ADD SWAP2 SWAP1 PUSH0 MSTORE PUSH1 0x20 PUSH0 KECCAK256 SWAP1 JUMPDEST DUP2 SLOAD DUP2 MSTORE SWAP1 PUSH1 0x1 ADD SWAP1 PUSH1 0x20 ADD DUP1 DUP4 GT PUSH2 0x28A2 JUMPI DUP3 SWAP1 SUB PUSH1 0x1F AND DUP3 ADD SWAP2 JUMPDEST POP POP POP PUSH1 0x8 DUP5 ADD SLOAD PUSH1 0x9 DUP6 ADD DUP1 SLOAD SWAP5 SWAP6 PUSH1 0xFF SWAP1 SWAP3 AND SWAP5 SWAP2 SWAP4 POP SWAP2 POP PUSH2 0x28E3 SWAP1 PUSH2 0x30AF JUMP JUMPDEST DUP1 PUSH1 0x1F ADD PUSH1 0x20 DUP1 SWAP2 DIV MUL PUSH1 0x20 ADD PUSH1 0x40 MLOAD SWAP1 DUP2 ADD PUSH1 0x40 MSTORE DUP1 SWAP3 SWAP2 SWAP1 DUP2 DUP2 MSTORE PUSH1 0x20 ADD DUP3 DUP1 SLOAD PUSH2 0x290F SWAP1 PUSH2 0x30AF JUMP JUMPDEST DUP1 ISZERO PUSH2 0x295A JUMPI DUP1 PUSH1 0x1F LT PUSH2 0x2931 JUMPI PUSH2 0x100 DUP1 DUP4 SLOAD DIV MUL DUP4 MSTORE SWAP2 PUSH1 0x20 ADD SWAP2 PUSH2 0x295A JUMP JUMPDEST DUP3 ADD SWAP2 SWAP1 PUSH0 MSTORE PUSH1 0x20 PUSH0 KECCAK256 SWAP1 JUMPDEST DUP2 SLOAD DUP2 MSTORE SWAP1 PUSH1 0x1 ADD SWAP1 PUSH1 0x20 ADD DUP1 DUP4 GT PUSH2 0x293D JUMPI DUP3 SWAP1 SUB PUSH1 0x1F AND DUP3 ADD SWAP2 JUMPDEST POP POP POP POP POP SWAP1 POP DUP11 JUMP JUMPDEST PUSH0 SLOAD PUSH1 0x1 PUSH1 0x1 PUSH1 0xA0 SHL SUB AND CALLER EQ PUSH2 0x298D JUMPI PUSH1 0x40 MLOAD PUSH3 0x461BCD PUSH1 0xE5 SHL DUP2 MSTORE PUSH1 0x4 ADD PUSH2 0x938 SWAP1 PUSH2 0x30FF JUMP JUMPDEST PUSH1 0x1 PUSH1 0x1 PUSH1 0xA0 SHL SUB DUP2 AND PUSH2 0x29CE JUMPI PUSH1 0x40 MLOAD PUSH3 0x461BCD PUSH1 0xE5 SHL DUP2 MSTORE PUSH1 0x20 PUSH1 0x4 DUP3 ADD MSTORE PUSH1 0x8 PUSH1 0x24 DUP3 ADD MSTORE PUSH8 0x6E6577206973203 PUSH1 0xC4 SHL PUSH1 0x44 DUP3 ADD MSTORE PUSH1 0x64 ADD PUSH2 0x938 JUMP JUMPDEST PUSH0 DUP1 SLOAD PUSH1 0x40 MLOAD PUSH1 0x1 PUSH1 0x1 PUSH1 0xA0 SHL SUB DUP1 DUP6 AND SWAP4 SWAP3 AND SWAP2 PUSH32 0x8BE0079C531659141344CD1FD0A4F28419497F9722A3DAAFE3B4186F6B6457E0 SWAP2 LOG3 PUSH0 DUP1 SLOAD PUSH1 0x1 PUSH1 0x1 PUSH1 0xA0 SHL SUB NOT AND PUSH1 0x1 PUSH1 0x1 PUSH1 0xA0 SHL SUB SWAP3 SWAP1 SWAP3 AND SWAP2 SWAP1 SWAP2 OR SWAP1 SSTORE JUMP JUMPDEST PUSH1 0x40 MLOAD DUP1 PUSH2 0x140 ADD PUSH1 0x40 MSTORE DUP1 PUSH0 DUP2 MSTORE PUSH1 0x20 ADD PUSH0 DUP2 MSTORE PUSH1 0x20 ADD PUSH0 DUP2 MSTORE PUSH1 0x20 ADD PUSH0 DUP2 MSTORE PUSH1 0x20 ADD PUSH0 ISZERO ISZERO DUP2 MSTORE PUSH1 0x20 ADD PUSH0 DUP2 MSTORE PUSH1 0x20 ADD PUSH0 ISZERO ISZERO DUP2 MSTORE PUSH1 0x20 ADD PUSH1 0x60 DUP2 MSTORE PUSH1 0x20 ADD PUSH0 ISZERO ISZERO DUP2 MSTORE PUSH1 0x20 ADD PUSH1 0x60 DUP2 MSTORE POP SWAP1 JUMP JUMPDEST DUP1 CALLDATALOAD PUSH1 0x1 PUSH1 0x1 PUSH1 0xA0 SHL SUB DUP2 AND DUP2 EQ PUSH2 0x2A8E JUMPI PUSH0 DUP1 REVERT JUMPDEST SWAP2 SWAP1 POP JUMP JUMPDEST PUSH0 PUSH1 0x20 DUP3 DUP5 SUB SLT ISZERO PUSH2 0x2AA3 JUMPI PUSH0 DUP1 REVERT JUMPDEST PUSH2 0x2AAC DUP3 PUSH2 0x2A78 JUMP JUMPDEST SWAP4 SWAP3 POP POP POP JUMP JUMPDEST PUSH0 DUP1 PUSH1 0x40 DUP4 DUP6 SUB SLT ISZERO PUSH2 0x2AC4 JUMPI PUSH0 DUP1 REVERT JUMPDEST PUSH2 0x2ACD DUP4 PUSH2 0x2A78 JUMP JUMPDEST SWAP5 PUSH1 0x20 SWAP4 SWAP1 SWAP4 ADD CALLDATALOAD SWAP4 POP POP POP JUMP JUMPDEST PUSH0 DUP2 MLOAD DUP1 DUP5 MSTORE DUP1 PUSH1 0x20 DUP5 ADD PUSH1 0x20 DUP7 ADD MCOPY PUSH0 PUSH1 0x20 DUP3 DUP7 ADD ADD MSTORE PUSH1 0x20 PUSH1 0x1F NOT PUSH1 0x1F DUP4 ADD AND DUP6 ADD ADD SWAP2 POP POP SWAP3 SWAP2 POP POP JUMP JUMPDEST PUSH0 PUSH1 0x20 DUP1 DUP4 ADD DUP2 DUP5 MSTORE DUP1 DUP6 MLOAD DUP1 DUP4 MSTORE PUSH1 0x40 SWAP3 POP PUSH1 0x40 DUP7 ADD SWAP2 POP PUSH1 0x40 DUP2 PUSH1 0x5 SHL DUP8 ADD ADD DUP5 DUP9 ADD PUSH0 JUMPDEST DUP4 DUP2 LT ISZERO PUSH2 0x2BA9 JUMPI DUP9 DUP4 SUB PUSH1 0x3F NOT ADD DUP6 MSTORE DUP2 MLOAD DUP1 MLOAD PUSH1 0x1 PUSH1 0x1 PUSH1 0xA0 SHL SUB AND DUP5 MSTORE DUP8 DUP2 ADD MLOAD DUP9 DUP6 ADD MSTORE DUP7 DUP2 ADD MLOAD PUSH1 0xC0 DUP9 DUP7 ADD DUP2 SWAP1 MSTORE SWAP1 PUSH2 0x2B71 DUP3 DUP8 ADD DUP3 PUSH2 0x2ADB JUMP JUMPDEST PUSH1 0x60 DUP5 DUP2 ADD MLOAD ISZERO ISZERO SWAP1 DUP9 ADD MSTORE PUSH1 0x80 DUP1 DUP6 ADD MLOAD ISZERO ISZERO SWAP1 DUP9 ADD MSTORE PUSH1 0xA0 SWAP4 DUP5 ADD MLOAD SWAP4 SWAP1 SWAP7 ADD SWAP3 SWAP1 SWAP3 MSTORE POP POP SWAP4 DUP7 ADD SWAP4 SWAP1 DUP7 ADD SWAP1 PUSH1 0x1 ADD PUSH2 0x2B30 JUMP JUMPDEST POP SWAP1 SWAP9 SWAP8 POP POP POP POP POP POP POP POP JUMP JUMPDEST PUSH0 PUSH1 0x20 DUP3 DUP5 SUB SLT ISZERO PUSH2 0x2BC7 JUMPI PUSH0 DUP1 REVERT JUMPDEST POP CALLDATALOAD SWAP2 SWAP1 POP JUMP JUMPDEST PUSH0 PUSH1 0x20 DUP1 DUP4 ADD DUP2 DUP5 MSTORE DUP1 DUP6 MLOAD DUP1 DUP4 MSTORE PUSH1 0x40 SWAP3 POP PUSH1 0x40 DUP7 ADD SWAP2 POP PUSH1 0x40 DUP2 PUSH1 0x5 SHL DUP8 ADD ADD DUP5 DUP9 ADD PUSH0 JUMPDEST DUP4 DUP2 LT ISZERO PUSH2 0x2BA9 JUMPI PUSH1 0x3F NOT DUP10 DUP5 SUB ADD DUP6 MSTORE DUP2 MLOAD DUP1 MLOAD DUP5 MSTORE DUP8 DUP2 ADD MLOAD DUP9 DUP6 ADD MSTORE DUP7 DUP2 ADD MLOAD DUP8 DUP6 ADD MSTORE PUSH1 0x60 DUP1 DUP3 ADD MLOAD SWAP1 DUP6 ADD MSTORE PUSH1 0x80 DUP1 DUP3 ADD MLOAD ISZERO ISZERO SWAP1 DUP6 ADD MSTORE PUSH1 0xA0 DUP1 DUP3 ADD MLOAD SWAP1 DUP6 ADD MSTORE PUSH1 0xC0 DUP1 DUP3 ADD MLOAD ISZERO ISZERO SWAP1 DUP6 ADD MSTORE PUSH1 0xE0 DUP1 DUP3 ADD MLOAD PUSH2 0x140 DUP3 DUP8 ADD DUP2 SWAP1 MSTORE SWAP2 SWAP1 PUSH2 0x2C65 DUP4 DUP9 ADD DUP3 PUSH2 0x2ADB JUMP JUMPDEST SWAP3 POP POP POP PUSH2 0x100 DUP1 DUP4 ADD MLOAD PUSH2 0x2C7D DUP3 DUP9 ADD DUP3 ISZERO ISZERO SWAP1 MSTORE JUMP JUMPDEST POP POP PUSH2 0x120 DUP1 DUP4 ADD MLOAD SWAP3 POP DUP6 DUP3 SUB DUP2 DUP8 ADD MSTORE POP PUSH2 0x2C9A DUP2 DUP4 PUSH2 0x2ADB JUMP JUMPDEST SWAP7 DUP10 ADD SWAP7 SWAP5 POP POP POP SWAP1 DUP7 ADD SWAP1 PUSH1 0x1 ADD PUSH2 0x2BF5 JUMP JUMPDEST PUSH0 DUP1 PUSH0 PUSH1 0x60 DUP5 DUP7 SUB SLT ISZERO PUSH2 0x2CC0 JUMPI PUSH0 DUP1 REVERT JUMPDEST PUSH2 0x2CC9 DUP5 PUSH2 0x2A78 JUMP JUMPDEST SWAP6 PUSH1 0x20 DUP6 ADD CALLDATALOAD SWAP6 POP PUSH1 0x40 SWAP1 SWAP5 ADD CALLDATALOAD SWAP4 SWAP3 POP POP POP JUMP JUMPDEST PUSH1 0x20 DUP1 DUP3 MSTORE DUP3 MLOAD DUP3 DUP3 ADD DUP2 SWAP1 MSTORE PUSH0 SWAP2 SWAP1 PUSH1 0x40 SWAP1 DUP2 DUP6 ADD SWAP1 DUP7 DUP5 ADD DUP6 JUMPDEST DUP3 DUP2 LT ISZERO PUSH2 0x2D3F JUMPI DUP2 MLOAD DUP1 MLOAD DUP6 MSTORE DUP7 DUP2 ADD MLOAD PUSH1 0x1 PUSH1 0x1 PUSH1 0xA0 SHL SUB AND DUP8 DUP7 ADD MSTORE DUP6 DUP2 ADD MLOAD DUP7 DUP7 ADD MSTORE PUSH1 0x60 SWAP1 DUP2 ADD MLOAD ISZERO ISZERO SWAP1 DUP6 ADD MSTORE PUSH1 0x80 SWAP1 SWAP4 ADD SWAP3 SWAP1 DUP6 ADD SWAP1 PUSH1 0x1 ADD PUSH2 0x2CFA JUMP JUMPDEST POP SWAP2 SWAP8 SWAP7 POP POP POP POP POP POP POP JUMP JUMPDEST PUSH1 0x1 DUP1 PUSH1 0xA0 SHL SUB DUP8 AND DUP2 MSTORE DUP6 PUSH1 0x20 DUP3 ADD MSTORE PUSH1 0xC0 PUSH1 0x40 DUP3 ADD MSTORE PUSH0 PUSH2 0x2D72 PUSH1 0xC0 DUP4 ADD DUP8 PUSH2 0x2ADB JUMP JUMPDEST SWAP5 ISZERO ISZERO PUSH1 0x60 DUP4 ADD MSTORE POP SWAP2 ISZERO ISZERO PUSH1 0x80 DUP4 ADD MSTORE PUSH1 0xA0 SWAP1 SWAP2 ADD MSTORE SWAP4 SWAP3 POP POP POP JUMP JUMPDEST PUSH4 0x4E487B71 PUSH1 0xE0 SHL PUSH0 MSTORE PUSH1 0x41 PUSH1 0x4 MSTORE PUSH1 0x24 PUSH0 REVERT JUMPDEST PUSH0 DUP3 PUSH1 0x1F DUP4 ADD SLT PUSH2 0x2DB3 JUMPI PUSH0 DUP1 REVERT JUMPDEST DUP2 CALLDATALOAD PUSH8 0xFFFFFFFFFFFFFFFF DUP1 DUP3 GT ISZERO PUSH2 0x2DCE JUMPI PUSH2 0x2DCE PUSH2 0x2D90 JUMP JUMPDEST PUSH1 0x40 MLOAD PUSH1 0x1F DUP4 ADD PUSH1 0x1F NOT SWAP1 DUP2 AND PUSH1 0x3F ADD AND DUP2 ADD SWAP1 DUP3 DUP3 GT DUP2 DUP4 LT OR ISZERO PUSH2 0x2DF6 JUMPI PUSH2 0x2DF6 PUSH2 0x2D90 JUMP JUMPDEST DUP2 PUSH1 0x40 MSTORE DUP4 DUP2 MSTORE DUP7 PUSH1 0x20 DUP6 DUP9 ADD ADD GT ISZERO PUSH2 0x2E0E JUMPI PUSH0 DUP1 REVERT JUMPDEST DUP4 PUSH1 0x20 DUP8 ADD PUSH1 0x20 DUP4 ADD CALLDATACOPY PUSH0 PUSH1 0x20 DUP6 DUP4 ADD ADD MSTORE DUP1 SWAP5 POP POP POP POP POP SWAP3 SWAP2 POP POP JUMP JUMPDEST PUSH0 DUP1 PUSH0 DUP1 PUSH1 0x80 DUP6 DUP8 SUB SLT ISZERO PUSH2 0x2E40 JUMPI PUSH0 DUP1 REVERT JUMPDEST PUSH2 0x2E49 DUP6 PUSH2 0x2A78 JUMP JUMPDEST SWAP4 POP PUSH1 0x20 DUP6 ADD CALLDATALOAD SWAP3 POP PUSH1 0x40 DUP6 ADD CALLDATALOAD SWAP2 POP PUSH1 0x60 DUP6 ADD CALLDATALOAD PUSH8 0xFFFFFFFFFFFFFFFF DUP2 GT ISZERO PUSH2 0x2E72 JUMPI PUSH0 DUP1 REVERT JUMPDEST PUSH2 0x2E7E DUP8 DUP3 DUP9 ADD PUSH2 0x2DA4 JUMP JUMPDEST SWAP2 POP POP SWAP3 SWAP6 SWAP2 SWAP5 POP SWAP3 POP JUMP JUMPDEST PUSH1 0x20 DUP1 DUP3 MSTORE DUP3 MLOAD DUP3 DUP3 ADD DUP2 SWAP1 MSTORE PUSH0 SWAP2 SWAP1 DUP5 DUP3 ADD SWAP1 PUSH1 0x40 DUP6 ADD SWAP1 DUP5 JUMPDEST DUP2 DUP2 LT ISZERO PUSH2 0x2EC1 JUMPI DUP4 MLOAD DUP4 MSTORE SWAP3 DUP5 ADD SWAP3 SWAP2 DUP5 ADD SWAP2 PUSH1 0x1 ADD PUSH2 0x2EA5 JUMP JUMPDEST POP SWAP1 SWAP7 SWAP6 POP POP POP POP POP POP JUMP JUMPDEST PUSH0 DUP1 PUSH1 0x40 DUP4 DUP6 SUB SLT ISZERO PUSH2 0x2EDE JUMPI PUSH0 DUP1 REVERT JUMPDEST DUP3 CALLDATALOAD SWAP2 POP PUSH1 0x20 DUP4 ADD CALLDATALOAD PUSH8 0xFFFFFFFFFFFFFFFF DUP2 GT ISZERO PUSH2 0x2EFB JUMPI PUSH0 DUP1 REVERT JUMPDEST PUSH2 0x2F07 DUP6 DUP3 DUP7 ADD PUSH2 0x2DA4 JUMP JUMPDEST SWAP2 POP POP SWAP3 POP SWAP3 SWAP1 POP JUMP JUMPDEST PUSH1 0x20 DUP2 MSTORE DUP2 MLOAD PUSH1 0x20 DUP3 ADD MSTORE PUSH0 PUSH1 0x20 DUP4 ADD MLOAD PUSH1 0x80 PUSH1 0x40 DUP5 ADD MSTORE PUSH2 0x2F36 PUSH1 0xA0 DUP5 ADD DUP3 PUSH2 0x2ADB JUMP JUMPDEST SWAP1 POP PUSH1 0x40 DUP5 ADD MLOAD PUSH1 0x60 DUP5 ADD MSTORE PUSH1 0x60 DUP5 ADD MLOAD PUSH1 0x80 DUP5 ADD MSTORE DUP1 SWAP2 POP POP SWAP3 SWAP2 POP POP JUMP JUMPDEST DUP5 DUP2 MSTORE PUSH1 0x80 PUSH1 0x20 DUP3 ADD MSTORE PUSH0 PUSH2 0x2F6E PUSH1 0x80 DUP4 ADD DUP7 PUSH2 0x2ADB JUMP JUMPDEST PUSH1 0x40 DUP4 ADD SWAP5 SWAP1 SWAP5 MSTORE POP PUSH1 0x60 ADD MSTORE SWAP3 SWAP2 POP POP JUMP JUMPDEST PUSH0 DUP1 PUSH0 PUSH1 0x60 DUP5 DUP7 SUB SLT ISZERO PUSH2 0x2F93 JUMPI PUSH0 DUP1 REVERT JUMPDEST DUP4 CALLDATALOAD SWAP3 POP PUSH1 0x20 DUP5 ADD CALLDATALOAD SWAP2 POP PUSH1 0x40 DUP5 ADD CALLDATALOAD PUSH8 0xFFFFFFFFFFFFFFFF DUP2 GT ISZERO PUSH2 0x2FB7 JUMPI PUSH0 DUP1 REVERT JUMPDEST PUSH2 0x2FC3 DUP7 DUP3 DUP8 ADD PUSH2 0x2DA4 JUMP JUMPDEST SWAP2 POP POP SWAP3 POP SWAP3 POP SWAP3 JUMP JUMPDEST PUSH0 DUP1 PUSH1 0x40 DUP4 DUP6 SUB SLT ISZERO PUSH2 0x2FDE JUMPI PUSH0 DUP1 REVERT JUMPDEST PUSH2 0x2FE7 DUP4 PUSH2 0x2A78 JUMP JUMPDEST SWAP2 POP PUSH2 0x2FF5 PUSH1 0x20 DUP5 ADD PUSH2 0x2A78 JUMP JUMPDEST SWAP1 POP SWAP3 POP SWAP3 SWAP1 POP JUMP JUMPDEST PUSH0 PUSH2 0x140 DUP13 DUP4 MSTORE DUP12 PUSH1 0x20 DUP5 ADD MSTORE DUP11 PUSH1 0x40 DUP5 ADD MSTORE DUP10 PUSH1 0x60 DUP5 ADD MSTORE DUP9 ISZERO ISZERO PUSH1 0x80 DUP5 ADD MSTORE DUP8 PUSH1 0xA0 DUP5 ADD MSTORE DUP7 ISZERO ISZERO PUSH1 0xC0 DUP5 ADD MSTORE DUP1 PUSH1 0xE0 DUP5 ADD MSTORE PUSH2 0x303F DUP2 DUP5 ADD DUP8 PUSH2 0x2ADB JUMP JUMPDEST SWAP1 POP DUP5 ISZERO ISZERO PUSH2 0x100 DUP5 ADD MSTORE DUP3 DUP2 SUB PUSH2 0x120 DUP5 ADD MSTORE PUSH2 0x305D DUP2 DUP6 PUSH2 0x2ADB JUMP JUMPDEST SWAP14 SWAP13 POP POP POP POP POP POP POP POP POP POP POP POP POP JUMP JUMPDEST PUSH4 0x4E487B71 PUSH1 0xE0 SHL PUSH0 MSTORE PUSH1 0x32 PUSH1 0x4 MSTORE PUSH1 0x24 PUSH0 REVERT JUMPDEST PUSH4 0x4E487B71 PUSH1 0xE0 SHL PUSH0 MSTORE PUSH1 0x11 PUSH1 0x4 MSTORE PUSH1 0x24 PUSH0 REVERT JUMPDEST DUP1 DUP3 ADD DUP1 DUP3 GT ISZERO PUSH2 0x30A9 JUMPI PUSH2 0x30A9 PUSH2 0x3082 JUMP JUMPDEST SWAP3 SWAP2 POP POP JUMP JUMPDEST PUSH1 0x1 DUP2 DUP2 SHR SWAP1 DUP3 AND DUP1 PUSH2 0x30C3 JUMPI PUSH1 0x7F DUP3 AND SWAP2 POP JUMPDEST PUSH1 0x20 DUP3 LT DUP2 SUB PUSH2 0x30E1 JUMPI PUSH4 0x4E487B71 PUSH1 0xE0 SHL PUSH0 MSTORE PUSH1 0x22 PUSH1 0x4 MSTORE PUSH1 0x24 PUSH0 REVERT JUMPDEST POP SWAP2 SWAP1 POP JUMP JUMPDEST PUSH0 PUSH1 0x1 DUP3 ADD PUSH2 0x30F8 JUMPI PUSH2 0x30F8 PUSH2 0x3082 JUMP JUMPDEST POP PUSH1 0x1 ADD SWAP1 JUMP JUMPDEST PUSH1 0x20 DUP1 DUP3 MSTORE PUSH1 0x6 SWAP1 DUP3 ADD MSTORE PUSH6 0x10B7BBB732B9 PUSH1 0xD1 SHL PUSH1 0x40 DUP3 ADD MSTORE PUSH1 0x60 ADD SWAP1 JUMP JUMPDEST PUSH1 0x20 DUP1 DUP3 MSTORE PUSH1 0x15 SWAP1 DUP3 ADD MSTORE PUSH21 0x10DC99591A5D08191BD95CC81B9BDD08195E1A5CDD PUSH1 0x5A SHL PUSH1 0x40 DUP3 ADD MSTORE PUSH1 0x60 ADD SWAP1 JUMP JUMPDEST PUSH1 0x20 DUP1 DUP3 MSTORE PUSH1 0x16 SWAP1 DUP3 ADD MSTORE PUSH22 0x10DC99591A5D08185B1C9958591E481C995D9BDAD959 PUSH1 0x52 SHL PUSH1 0x40 DUP3 ADD MSTORE PUSH1 0x60 ADD SWAP1 JUMP JUMPDEST PUSH1 0x20 DUP1 DUP3 MSTORE PUSH1 0xF SWAP1 DUP3 ADD MSTORE PUSH15 0x496E76616C69642061646472657373 PUSH1 0x88 SHL PUSH1 0x40 DUP3 ADD MSTORE PUSH1 0x60 ADD SWAP1 JUMP JUMPDEST DUP1 DUP3 MUL DUP2 ISZERO DUP3 DUP3 DIV DUP5 EQ OR PUSH2 0x30A9 JUMPI PUSH2 0x30A9 PUSH2 0x3082 JUMP JUMPDEST PUSH1 0x1F DUP3 GT ISZERO PUSH2 0x3205 JUMPI DUP1 PUSH0 MSTORE PUSH1 0x20 PUSH0 KECCAK256 PUSH1 0x1F DUP5 ADD PUSH1 0x5 SHR DUP2 ADD PUSH1 0x20 DUP6 LT ISZERO PUSH2 0x31E3 JUMPI POP DUP1 JUMPDEST PUSH1 0x1F DUP5 ADD PUSH1 0x5 SHR DUP3 ADD SWAP2 POP JUMPDEST DUP2 DUP2 LT ISZERO PUSH2 0x3202 JUMPI PUSH0 DUP2 SSTORE PUSH1 0x1 ADD PUSH2 0x31EF JUMP JUMPDEST POP POP JUMPDEST POP POP POP JUMP JUMPDEST DUP2 MLOAD PUSH8 0xFFFFFFFFFFFFFFFF DUP2 GT ISZERO PUSH2 0x3224 JUMPI PUSH2 0x3224 PUSH2 0x2D90 JUMP JUMPDEST PUSH2 0x3238 DUP2 PUSH2 0x3232 DUP5 SLOAD PUSH2 0x30AF JUMP JUMPDEST DUP5 PUSH2 0x31BE JUMP JUMPDEST PUSH1 0x20 DUP1 PUSH1 0x1F DUP4 GT PUSH1 0x1 DUP2 EQ PUSH2 0x326B JUMPI PUSH0 DUP5 ISZERO PUSH2 0x3254 JUMPI POP DUP6 DUP4 ADD MLOAD JUMPDEST PUSH0 NOT PUSH1 0x3 DUP7 SWAP1 SHL SHR NOT AND PUSH1 0x1 DUP6 SWAP1 SHL OR DUP6 SSTORE PUSH2 0x32C2 JUMP JUMPDEST PUSH0 DUP6 DUP2 MSTORE PUSH1 0x20 DUP2 KECCAK256 PUSH1 0x1F NOT DUP7 AND SWAP2 JUMPDEST DUP3 DUP2 LT ISZERO PUSH2 0x3299 JUMPI DUP9 DUP7 ADD MLOAD DUP3 SSTORE SWAP5 DUP5 ADD SWAP5 PUSH1 0x1 SWAP1 SWAP2 ADD SWAP1 DUP5 ADD PUSH2 0x327A JUMP JUMPDEST POP DUP6 DUP3 LT ISZERO PUSH2 0x32B6 JUMPI DUP8 DUP6 ADD MLOAD PUSH0 NOT PUSH1 0x3 DUP9 SWAP1 SHL PUSH1 0xF8 AND SHR NOT AND DUP2 SSTORE JUMPDEST POP POP PUSH1 0x1 DUP5 PUSH1 0x1 SHL ADD DUP6 SSTORE JUMPDEST POP POP POP POP POP POP JUMP JUMPDEST PUSH0 DUP2 PUSH2 0x32D8 JUMPI PUSH2 0x32D8 PUSH2 0x3082 JUMP JUMPDEST POP PUSH0 NOT ADD SWAP1 JUMP JUMPDEST DUP2 DUP2 SUB PUSH2 0x32EA JUMPI POP POP JUMP JUMPDEST PUSH2 0x32F4 DUP3 SLOAD PUSH2 0x30AF JUMP JUMPDEST PUSH8 0xFFFFFFFFFFFFFFFF DUP2 GT ISZERO PUSH2 0x330C JUMPI PUSH2 0x330C PUSH2 0x2D90 JUMP JUMPDEST PUSH2 0x331A DUP2 PUSH2 0x3232 DUP5 SLOAD PUSH2 0x30AF JUMP JUMPDEST PUSH0 PUSH1 0x1F DUP3 GT PUSH1 0x1 DUP2 EQ PUSH2 0x334B JUMPI PUSH0 DUP4 ISZERO PUSH2 0x3334 JUMPI POP DUP5 DUP3 ADD SLOAD JUMPDEST PUSH0 NOT PUSH1 0x3 DUP6 SWAP1 SHL SHR NOT AND PUSH1 0x1 DUP5 SWAP1 SHL OR DUP5 SSTORE PUSH2 0x3202 JUMP JUMPDEST PUSH0 DUP6 DUP2 MSTORE PUSH1 0x20 DUP1 DUP3 KECCAK256 DUP7 DUP4 MSTORE SWAP1 DUP3 KECCAK256 PUSH1 0x1F NOT DUP7 AND SWAP3 JUMPDEST DUP4 DUP2 LT ISZERO PUSH2 0x3381 JUMPI DUP3 DUP7 ADD SLOAD DUP3 SSTORE PUSH1 0x1 SWAP6 DUP7 ADD SWAP6 SWAP1 SWAP2 ADD SWAP1 PUSH1 0x20 ADD PUSH2 0x3361 JUMP JUMPDEST POP DUP6 DUP4 LT ISZERO PUSH2 0x339E JUMPI DUP2 DUP6 ADD SLOAD PUSH0 NOT PUSH1 0x3 DUP9 SWAP1 SHL PUSH1 0xF8 AND SHR NOT AND DUP2 SSTORE JUMPDEST POP POP POP POP POP PUSH1 0x1 SWAP1 DUP2 SHL ADD SWAP1 SSTORE POP JUMP INVALID PUSH16 0x6E6C7920746F7061646D696E206F7220 PUSH2 0x646D PUSH10 0x6E2063616E2063616C6C KECCAK256 LOG2 PUSH5 0x6970667358 0x22 SLT KECCAK256 CALLER 0xEE LT 0xA8 0xCA SWAP4 0x2F 0xF9 CALLDATASIZE PUSH24 0x716A9EFBFBB39E4F07545FF1CF39EEBD77543CE67D086473 PUSH16 0x6C634300081900330000000000000000 "
				},
				"gasEstimates": {
					"creation": {
						"codeDepositCost": "2663200",
						"executionCost": "28662",
						"totalCost": "2691862"
					},
					"external": {
						"Cancel(address,uint256)": "33728",
						"GetAllApproveList()": "infinite",
						"Requests(address,uint256)": "144055",
						"addAdmin(address)": "27971",
						"addCourse(uint256,uint256,string)": "infinite",
						"addTeacher(address)": "29128",
						"allowance(address,address)": "infinite",
						"approve(address,uint256,uint256)": "infinite",
						"approveCreditTransfer(address,uint256)": "35685",
						"countCourseIdOccurrences(address)": "2570",
						"courseExists(uint256)": "2514",
						"courseLists(uint256)": "4605",
						"courserInfo(uint256)": "infinite",
						"creditTransferRequests(address,uint256)": "infinite",
						"executeCreditTransfer(address,uint256)": "infinite",
						"getAllCourseID()": "infinite",
						"getAllrequestCreditTransfer()": "infinite",
						"getCourseInfo(uint256)": "infinite",
						"getCreditTransfersOfStudent(address)": "infinite",
						"getCreditsOfStudent()": "infinite",
						"getStudentCreditByMechanism(address)": "infinite",
						"isAdmin(address)": "2574",
						"isWhiteList(address)": "2660",
						"modifyCredit(address,uint256,uint256)": "infinite",
						"owner()": "2374",
						"recordCredit(address,uint256,uint256,string)": "infinite",
						"removeAdmin(address)": "27998",
						"removeTeacher(address)": "31254",
						"renounceOwnership()": "30251",
						"requestCreditTransfer(uint256,string)": "infinite",
						"requestOfMechanism(address,uint256)": "11259",
						"setWhiteList(address)": "24707",
						"studentCourseIds(address,uint256)": "4795",
						"studentCredits(address,uint256)": "infinite",
						"studentLists(uint256)": "4679",
						"teachers(address)": "2594",
						"transferOwnership(address)": "30505"
					}
				},
				"methodIdentifiers": {
					"Cancel(address,uint256)": "27f83af9",
					"GetAllApproveList()": "4708fdd6",
					"Requests(address,uint256)": "995975d8",
					"addAdmin(address)": "70480275",
					"addCourse(uint256,uint256,string)": "dcc63a16",
					"addTeacher(address)": "3bc6e309",
					"allowance(address,address)": "dd62ed3e",
					"approve(address,uint256,uint256)": "426a8493",
					"approveCreditTransfer(address,uint256)": "6b105c81",
					"countCourseIdOccurrences(address)": "041c2ee0",
					"courseExists(uint256)": "5407b304",
					"courseLists(uint256)": "e2ed5a4e",
					"courserInfo(uint256)": "b264a4a5",
					"creditTransferRequests(address,uint256)": "4a5ad49e",
					"executeCreditTransfer(address,uint256)": "dba8c55f",
					"getAllCourseID()": "68fdbd70",
					"getAllrequestCreditTransfer()": "1145d39a",
					"getCourseInfo(uint256)": "981059ee",
					"getCreditTransfersOfStudent(address)": "a59742df",
					"getCreditsOfStudent()": "416d6499",
					"getStudentCreditByMechanism(address)": "659cc07b",
					"isAdmin(address)": "24d7806c",
					"isWhiteList(address)": "f99031a7",
					"modifyCredit(address,uint256,uint256)": "b44e7d09",
					"owner()": "8da5cb5b",
					"recordCredit(address,uint256,uint256,string)": "5ba75156",
					"removeAdmin(address)": "1785f53c",
					"removeTeacher(address)": "52ff6846",
					"renounceOwnership()": "715018a6",
					"requestCreditTransfer(uint256,string)": "75e7c425",
					"requestOfMechanism(address,uint256)": "b5fe8d09",
					"setWhiteList(address)": "39e899ee",
					"studentCourseIds(address,uint256)": "0740c8cf",
					"studentCredits(address,uint256)": "f2012286",
					"studentLists(uint256)": "261ca633",
					"teachers(address)": "f0a47f78",
					"transferOwnership(address)": "f2fde38b"
				}
			},
			"storageLayout": {
				"storage": [
					{
						"astId": 3,
						"contract": "credits.sol:Creditcertification",
						"label": "_owner",
						"offset": 0,
						"slot": "0",
						"type": "t_address"
					},
					{
						"astId": 7,
						"contract": "credits.sol:Creditcertification",
						"label": "isAdmin",
						"offset": 0,
						"slot": "1",
						"type": "t_mapping(t_address,t_bool)"
					},
					{
						"astId": 219,
						"contract": "credits.sol:Creditcertification",
						"label": "requestOfMechanism",
						"offset": 0,
						"slot": "2",
						"type": "t_mapping(t_address,t_array(t_struct(Request)213_storage)dyn_storage)"
					},
					{
						"astId": 224,
						"contract": "credits.sol:Creditcertification",
						"label": "courserInfo",
						"offset": 0,
						"slot": "3",
						"type": "t_mapping(t_uint256,t_struct(CourserInfo)204_storage)"
					},
					{
						"astId": 231,
						"contract": "credits.sol:Creditcertification",
						"label": "studentCredits",
						"offset": 0,
						"slot": "4",
						"type": "t_mapping(t_address,t_mapping(t_uint256,t_struct(Credit)182_storage))"
					},
					{
						"astId": 236,
						"contract": "credits.sol:Creditcertification",
						"label": "studentCourseIds",
						"offset": 0,
						"slot": "5",
						"type": "t_mapping(t_address,t_array(t_uint256)dyn_storage)"
					},
					{
						"astId": 240,
						"contract": "credits.sol:Creditcertification",
						"label": "teachers",
						"offset": 0,
						"slot": "6",
						"type": "t_mapping(t_address,t_bool)"
					},
					{
						"astId": 244,
						"contract": "credits.sol:Creditcertification",
						"label": "courseExists",
						"offset": 0,
						"slot": "7",
						"type": "t_mapping(t_uint256,t_bool)"
					},
					{
						"astId": 248,
						"contract": "credits.sol:Creditcertification",
						"label": "isWhiteList",
						"offset": 0,
						"slot": "8",
						"type": "t_mapping(t_address,t_bool)"
					},
					{
						"astId": 251,
						"contract": "credits.sol:Creditcertification",
						"label": "courseLists",
						"offset": 0,
						"slot": "9",
						"type": "t_array(t_uint256)dyn_storage"
					},
					{
						"astId": 257,
						"contract": "credits.sol:Creditcertification",
						"label": "allowance",
						"offset": 0,
						"slot": "10",
						"type": "t_mapping(t_address,t_mapping(t_address,t_uint256))"
					},
					{
						"astId": 263,
						"contract": "credits.sol:Creditcertification",
						"label": "creditTransferRequests",
						"offset": 0,
						"slot": "11",
						"type": "t_mapping(t_address,t_array(t_struct(CreditTransfer)195_storage)dyn_storage)"
					},
					{
						"astId": 266,
						"contract": "credits.sol:Creditcertification",
						"label": "studentLists",
						"offset": 0,
						"slot": "12",
						"type": "t_array(t_address)dyn_storage"
					},
					{
						"astId": 838,
						"contract": "credits.sol:Creditcertification",
						"label": "requestIdCounter",
						"offset": 0,
						"slot": "13",
						"type": "t_uint256"
					}
				],
				"types": {
					"t_address": {
						"encoding": "inplace",
						"label": "address",
						"numberOfBytes": "20"
					},
					"t_array(t_address)dyn_storage": {
						"base": "t_address",
						"encoding": "dynamic_array",
						"label": "address[]",
						"numberOfBytes": "32"
					},
					"t_array(t_struct(CreditTransfer)195_storage)dyn_storage": {
						"base": "t_struct(CreditTransfer)195_storage",
						"encoding": "dynamic_array",
						"label": "struct Creditcertification.CreditTransfer[]",
						"numberOfBytes": "32"
					},
					"t_array(t_struct(Request)213_storage)dyn_storage": {
						"base": "t_struct(Request)213_storage",
						"encoding": "dynamic_array",
						"label": "struct Creditcertification.Request[]",
						"numberOfBytes": "32"
					},
					"t_array(t_uint256)dyn_storage": {
						"base": "t_uint256",
						"encoding": "dynamic_array",
						"label": "uint256[]",
						"numberOfBytes": "32"
					},
					"t_bool": {
						"encoding": "inplace",
						"label": "bool",
						"numberOfBytes": "1"
					},
					"t_mapping(t_address,t_array(t_struct(CreditTransfer)195_storage)dyn_storage)": {
						"encoding": "mapping",
						"key": "t_address",
						"label": "mapping(address => struct Creditcertification.CreditTransfer[])",
						"numberOfBytes": "32",
						"value": "t_array(t_struct(CreditTransfer)195_storage)dyn_storage"
					},
					"t_mapping(t_address,t_array(t_struct(Request)213_storage)dyn_storage)": {
						"encoding": "mapping",
						"key": "t_address",
						"label": "mapping(address => struct Creditcertification.Request[])",
						"numberOfBytes": "32",
						"value": "t_array(t_struct(Request)213_storage)dyn_storage"
					},
					"t_mapping(t_address,t_array(t_uint256)dyn_storage)": {
						"encoding": "mapping",
						"key": "t_address",
						"label": "mapping(address => uint256[])",
						"numberOfBytes": "32",
						"value": "t_array(t_uint256)dyn_storage"
					},
					"t_mapping(t_address,t_bool)": {
						"encoding": "mapping",
						"key": "t_address",
						"label": "mapping(address => bool)",
						"numberOfBytes": "32",
						"value": "t_bool"
					},
					"t_mapping(t_address,t_mapping(t_address,t_uint256))": {
						"encoding": "mapping",
						"key": "t_address",
						"label": "mapping(address => mapping(address => uint256))",
						"numberOfBytes": "32",
						"value": "t_mapping(t_address,t_uint256)"
					},
					"t_mapping(t_address,t_mapping(t_uint256,t_struct(Credit)182_storage))": {
						"encoding": "mapping",
						"key": "t_address",
						"label": "mapping(address => mapping(uint256 => struct Creditcertification.Credit))",
						"numberOfBytes": "32",
						"value": "t_mapping(t_uint256,t_struct(Credit)182_storage)"
					},
					"t_mapping(t_address,t_uint256)": {
						"encoding": "mapping",
						"key": "t_address",
						"label": "mapping(address => uint256)",
						"numberOfBytes": "32",
						"value": "t_uint256"
					},
					"t_mapping(t_uint256,t_bool)": {
						"encoding": "mapping",
						"key": "t_uint256",
						"label": "mapping(uint256 => bool)",
						"numberOfBytes": "32",
						"value": "t_bool"
					},
					"t_mapping(t_uint256,t_struct(CourserInfo)204_storage)": {
						"encoding": "mapping",
						"key": "t_uint256",
						"label": "mapping(uint256 => struct Creditcertification.CourserInfo)",
						"numberOfBytes": "32",
						"value": "t_struct(CourserInfo)204_storage"
					},
					"t_mapping(t_uint256,t_struct(Credit)182_storage)": {
						"encoding": "mapping",
						"key": "t_uint256",
						"label": "mapping(uint256 => struct Creditcertification.Credit)",
						"numberOfBytes": "32",
						"value": "t_struct(Credit)182_storage"
					},
					"t_string_storage": {
						"encoding": "bytes",
						"label": "string",
						"numberOfBytes": "32"
					},
					"t_struct(CourserInfo)204_storage": {
						"encoding": "inplace",
						"label": "struct Creditcertification.CourserInfo",
						"members": [
							{
								"astId": 197,
								"contract": "credits.sol:Creditcertification",
								"label": "courserId",
								"offset": 0,
								"slot": "0",
								"type": "t_uint256"
							},
							{
								"astId": 199,
								"contract": "credits.sol:Creditcertification",
								"label": "courserName",
								"offset": 0,
								"slot": "1",
								"type": "t_string_storage"
							},
							{
								"astId": 201,
								"contract": "credits.sol:Creditcertification",
								"label": "credits",
								"offset": 0,
								"slot": "2",
								"type": "t_uint256"
							},
							{
								"astId": 203,
								"contract": "credits.sol:Creditcertification",
								"label": "createTime",
								"offset": 0,
								"slot": "3",
								"type": "t_uint256"
							}
						],
						"numberOfBytes": "128"
					},
					"t_struct(Credit)182_storage": {
						"encoding": "inplace",
						"label": "struct Creditcertification.Credit",
						"members": [
							{
								"astId": 163,
								"contract": "credits.sol:Creditcertification",
								"label": "courserId",
								"offset": 0,
								"slot": "0",
								"type": "t_uint256"
							},
							{
								"astId": 165,
								"contract": "credits.sol:Creditcertification",
								"label": "credits",
								"offset": 0,
								"slot": "1",
								"type": "t_uint256"
							},
							{
								"astId": 167,
								"contract": "credits.sol:Creditcertification",
								"label": "score",
								"offset": 0,
								"slot": "2",
								"type": "t_uint256"
							},
							{
								"astId": 169,
								"contract": "credits.sol:Creditcertification",
								"label": "issueDate",
								"offset": 0,
								"slot": "3",
								"type": "t_uint256"
							},
							{
								"astId": 171,
								"contract": "credits.sol:Creditcertification",
								"label": "isModified",
								"offset": 0,
								"slot": "4",
								"type": "t_bool"
							},
							{
								"astId": 173,
								"contract": "credits.sol:Creditcertification",
								"label": "modifyNum",
								"offset": 0,
								"slot": "5",
								"type": "t_uint256"
							},
							{
								"astId": 175,
								"contract": "credits.sol:Creditcertification",
								"label": "isRevoked",
								"offset": 0,
								"slot": "6",
								"type": "t_bool"
							},
							{
								"astId": 177,
								"contract": "credits.sol:Creditcertification",
								"label": "issuingInstitution",
								"offset": 0,
								"slot": "7",
								"type": "t_string_storage"
							},
							{
								"astId": 179,
								"contract": "credits.sol:Creditcertification",
								"label": "isTransferred",
								"offset": 0,
								"slot": "8",
								"type": "t_bool"
							},
							{
								"astId": 181,
								"contract": "credits.sol:Creditcertification",
								"label": "targetInstitution",
								"offset": 0,
								"slot": "9",
								"type": "t_string_storage"
							}
						],
						"numberOfBytes": "320"
					},
					"t_struct(CreditTransfer)195_storage": {
						"encoding": "inplace",
						"label": "struct Creditcertification.CreditTransfer",
						"members": [
							{
								"astId": 184,
								"contract": "credits.sol:Creditcertification",
								"label": "studentAddr",
								"offset": 0,
								"slot": "0",
								"type": "t_address"
							},
							{
								"astId": 186,
								"contract": "credits.sol:Creditcertification",
								"label": "courseId",
								"offset": 0,
								"slot": "1",
								"type": "t_uint256"
							},
							{
								"astId": 188,
								"contract": "credits.sol:Creditcertification",
								"label": "targetInstitution",
								"offset": 0,
								"slot": "2",
								"type": "t_string_storage"
							},
							{
								"astId": 190,
								"contract": "credits.sol:Creditcertification",
								"label": "isApproved",
								"offset": 0,
								"slot": "3",
								"type": "t_bool"
							},
							{
								"astId": 192,
								"contract": "credits.sol:Creditcertification",
								"label": "isExecuted",
								"offset": 1,
								"slot": "3",
								"type": "t_bool"
							},
							{
								"astId": 194,
								"contract": "credits.sol:Creditcertification",
								"label": "index",
								"offset": 0,
								"slot": "4",
								"type": "t_uint256"
							}
						],
						"numberOfBytes": "160"
					},
					"t_struct(Request)213_storage": {
						"encoding": "inplace",
						"label": "struct Creditcertification.Request",
						"members": [
							{
								"astId": 206,
								"contract": "credits.sol:Creditcertification",
								"label": "id",
								"offset": 0,
								"slot": "0",
								"type": "t_uint256"
							},
							{
								"astId": 208,
								"contract": "credits.sol:Creditcertification",
								"label": "mechanism",
								"offset": 0,
								"slot": "1",
								"type": "t_address"
							},
							{
								"astId": 210,
								"contract": "credits.sol:Creditcertification",
								"label": "expectNum",
								"offset": 0,
								"slot": "2",
								"type": "t_uint256"
							},
							{
								"astId": 212,
								"contract": "credits.sol:Creditcertification",
								"label": "isApproved",
								"offset": 0,
								"slot": "3",
								"type": "t_bool"
							}
						],
						"numberOfBytes": "128"
					},
					"t_uint256": {
						"encoding": "inplace",
						"label": "uint256",
						"numberOfBytes": "32"
					}
				}
			},
			"userdoc": {
				"kind": "user",
				"methods": {},
				"version": 1
			}
		}
	}
}