{
	"data": {
		"bytecode": {
			"linkReferences": {},
			"object": "6080604052348015600e575f80fd5b505f80546001600160a01b031916339081178255604051909182917f8be0079c531659141344cd1fd0a4f28419497f9722a3daafe3b4186f6b6457e0908290a3506134048061005c5f395ff3fe608060405234801561000f575f80fd5b506004361061021e575f3560e01c80636b105c811161012a578063b44e7d09116100b4578063e2ed5a4e11610079578063e2ed5a4e1461057a578063f0a47f781461058d578063f2012286146105af578063f2fde38b146105d8578063f99031a7146105eb575f80fd5b8063b44e7d09146104da578063b5fe8d09146104ed578063dba8c55f1461052a578063dcc63a161461053d578063dd62ed3e14610550575f80fd5b80638da5cb5b116100fa5780638da5cb5b14610461578063981059ee14610471578063995975d814610491578063a59742df146104a4578063b264a4a5146104b7575f80fd5b80636b105c81146104205780637048027514610433578063715018a61461044657806375e7c4251461044e575f80fd5b8063416d6499116101ab57806352ff68461161017b57806352ff6846146103b05780635407b304146103c35780635ba75156146103e5578063659cc07b146103f857806368fdbd701461040b575f80fd5b8063416d64991461034e578063426a8493146103635780634708fdd6146103765780634a5ad49e1461038b575f80fd5b806324d7806c116101f157806324d7806c1461029a578063261ca633146102cc57806327f83af9146102f757806339e899ee1461030a5780633bc6e3091461033b575f80fd5b8063041c2ee0146102225780630740c8cf1461025d5780631145d39a146102705780631785f53c14610285575b5f80fd5b61024a610230366004612a93565b6001600160a01b03165f908152600b602052604090205490565b6040519081526020015b60405180910390f35b61024a61026b366004612ab3565b61060d565b610278610638565b6040516102549190612b09565b610298610293366004612a93565b61090f565b005b6102bc6102a8366004612a93565b60016020525f908152604090205460ff1681565b6040519015158152602001610254565b6102df6102da366004612bb7565b610989565b6040516001600160a01b039091168152602001610254565b610298610305366004612ab3565b6109b1565b610298610318366004612a93565b6001600160a01b03165f908152600860205260409020805460ff19166001179055565b610298610349366004612a93565b610ae1565b610356610ba2565b6040516102549190612bce565b6102bc610371366004612cae565b610e13565b61037e610ee4565b6040516102549190612cde565b61039e610399366004612ab3565b610f7c565b60405161025496959493929190612d4c565b6102986103be366004612a93565b611065565b6102bc6103d1366004612bb7565b60076020525f908152604090205460ff1681565b6102986103f3366004612e2d565b611192565b610298610406366004612a93565b61145b565b6104136118f6565b6040516102549190612e8a565b61029861042e366004612ab3565b61194c565b610298610441366004612a93565b611aad565b610298611b24565b61029861045c366004612ecd565b611b95565b5f546001600160a01b03166102df565b61048461047f366004612bb7565b611d77565b6040516102549190612f11565b61029861049f366004612ab3565b611e87565b6102786104b2366004612a93565b611f32565b6104ca6104c5366004612bb7565b6120d7565b6040516102549493929190612f56565b6102986104e8366004612cae565b612185565b6105006104fb366004612ab3565b612320565b604080519485526001600160a01b0390931660208501529183015215156060820152608001610254565b610298610538366004612ab3565b61236e565b61029861054b366004612f81565b61265c565b61024a61055e366004612fcd565b600a60209081525f928352604080842090915290825290205481565b61024a610588366004612bb7565b6127d0565b6102bc61059b366004612a93565b60066020525f908152604090205460ff1681565b6105c26105bd366004612ab3565b6127ef565b6040516102549a99989796959493929190612ffe565b6102986105e6366004612a93565b612964565b6102bc6105f9366004612a93565b60086020525f908152604090205460ff1681565b6005602052815f5260405f208181548110610626575f80fd5b905f5260205f20015f91509150505481565b60605f805b600c5481101561069557600b5f600c838154811061065d5761065d61306e565b5f9182526020808320909101546001600160a01b0316835282019290925260400190205461068b9083613096565b915060010161063d565b505f8167ffffffffffffffff8111156106b0576106b0612d90565b60405190808252806020026020018201604052801561072257816020015b61070f6040518060c001604052805f6001600160a01b031681526020015f8152602001606081526020015f151581526020015f151581526020015f81525090565b8152602001906001900390816106ce5790505b5090505f805b600c54811015610906575f5b600b5f600c848154811061074a5761074a61306e565b5f9182526020808320909101546001600160a01b031683528201929092526040019020548110156108fd57600b5f600c848154811061078b5761078b61306e565b5f9182526020808320909101546001600160a01b0316835282019290925260400190208054829081106107c0576107c061306e565b905f5260205f2090600502016040518060c00160405290815f82015f9054906101000a90046001600160a01b03166001600160a01b03166001600160a01b031681526020016001820154815260200160028201805461081e906130af565b80601f016020809104026020016040519081016040528092919081815260200182805461084a906130af565b80156108955780601f1061086c57610100808354040283529160200191610895565b820191905f5260205f20905b81548152906001019060200180831161087857829003601f168201915b5050509183525050600382015460ff80821615156020840152610100909104161515604082015260049091015460609091015284518590859081106108dc576108dc61306e565b602002602001018190525082806108f2906130e7565b935050600101610734565b50600101610728565b50909392505050565b5f546001600160a01b031633146109415760405162461bcd60e51b8152600401610938906130ff565b60405180910390fd5b6001600160a01b0381165f81815260016020526040808220805460ff19169055517fa3b62bc36326052d97ea62d63c3d60308ed4c3ea8ac079dd8499f1e9c4f80c0f9190a250565b600c8181548110610998575f80fd5b5f918252602090912001546001600160a01b0316905081565b5f546001600160a01b03163314806109dd5750335f9081526001602081905260409091205460ff161515145b610a255760405162461bcd60e51b815260206004820152602660248201525f805160206133af83398151915260448201526518d85b98d95b60d21b6064820152608401610938565b6001600160a01b0382165f9081526004602090815260408083208484529091528120600301549003610a695760405162461bcd60e51b81526004016109389061311f565b6001600160a01b0382165f90815260046020908152604080832084845290915290206006015460ff1615610aaf5760405162461bcd60e51b81526004016109389061314e565b6001600160a01b039091165f90815260046020908152604080832093835292905220600601805460ff19166001179055565b5f546001600160a01b0316331480610b0d5750335f9081526001602081905260409091205460ff161515145b610b595760405162461bcd60e51b815260206004820152602a60248201525f805160206133af83398151915260448201526930b2322a32b0b1b432b960b11b6064820152608401610938565b6001600160a01b038116610b7f5760405162461bcd60e51b81526004016109389061317e565b6001600160a01b03165f908152600660205260409020805460ff19166001179055565b335f908152600560205260409020546060908067ffffffffffffffff811115610bcd57610bcd612d90565b604051908082528060200260200182016040528015610c0657816020015b610bf3612a27565b815260200190600190039081610beb5790505b5091505f5b81811015610e0e57335f908152600560205260408120805483908110610c3357610c3361306e565b5f91825260208083209091015433835260048083526040808520838652845293849020845161014081018652815481526001820154948101949094526002810154948401949094526003840154606084015283015460ff90811615156080840152600584015460a0840152600684015416151560c083015260078301805491945091929160e0840191610cc5906130af565b80601f0160208091040260200160405190810160405280929190818152602001828054610cf1906130af565b8015610d3c5780601f10610d1357610100808354040283529160200191610d3c565b820191905f5260205f20905b815481529060010190602001808311610d1f57829003601f168201915b5050509183525050600882015460ff1615156020820152600982018054604090920191610d68906130af565b80601f0160208091040260200160405190810160405280929190818152602001828054610d94906130af565b8015610ddf5780601f10610db657610100808354040283529160200191610ddf565b820191905f5260205f20905b815481529060010190602001808311610dc257829003601f168201915b505050505081525050848381518110610dfa57610dfa61306e565b602090810291909101015250600101610c0b565b505090565b335f908152600a602090815260408083206001600160a01b03871684529091528120839055805b335f90815260026020526040902054811015610ed957335f908152600260205260409020805484919083908110610e7357610e7361306e565b905f5260205f2090600402015f015403610ed157335f90815260026020526040902080546001919083908110610eab57610eab61306e565b5f9182526020909120600490910201600301805460ff1916911515919091179055610ed9565b600101610e3a565b506001949350505050565b335f908152600260209081526040808320805482518185028101850190935280835260609492939192909184015b82821015610f73575f8481526020908190206040805160808101825260048602909201805483526001808201546001600160a01b0316848601526002820154928401929092526003015460ff16151560608301529083529092019101610f12565b50505050905090565b600b602052815f5260405f208181548110610f95575f80fd5b5f9182526020909120600590910201805460018201546002830180546001600160a01b03909316955090935090610fcb906130af565b80601f0160208091040260200160405190810160405280929190818152602001828054610ff7906130af565b80156110425780601f1061101957610100808354040283529160200191611042565b820191905f5260205f20905b81548152906001019060200180831161102557829003601f168201915b505050506003830154600490930154919260ff8082169361010090920416915086565b5f546001600160a01b03163314806110915750335f9081526001602081905260409091205460ff161515145b6110e05760405162461bcd60e51b815260206004820152602d60248201525f805160206133af83398151915260448201526c3932b6b7bb32aa32b0b1b432b960991b6064820152608401610938565b6001600160a01b0381166111065760405162461bcd60e51b81526004016109389061317e565b6001600160a01b0381165f9081526006602052604090205460ff1615156001146111725760405162461bcd60e51b815260206004820152601960248201527f6164647265737320617265206e6f7420612074656163686572000000000000006044820152606401610938565b6001600160a01b03165f908152600660205260409020805460ff19169055565b5f546001600160a01b03163314806111be5750335f9081526001602081905260409091205460ff161515145b806111dc5750335f9081526006602052604090205460ff1615156001145b6112455760405162461bcd60e51b815260206004820152603460248201527f6f6e6c7920746f7061646d696e206f722061646d696e20746561636865722063604482015273185b8818d85b1b081c9958dbdc9910dc99591a5d60621b6064820152608401610938565b6001600160a01b03841661126b5760405162461bcd60e51b81526004016109389061317e565b5f8381526007602052604090205460ff1615156001146112bf5760405162461bcd60e51b815260206004820152600f60248201526e18dbdd5c9cd9481b9bdd08195e1a5d608a1b6044820152606401610938565b5f838152600360205260408120600201544291603c85106112e7576112e482866131a7565b90505b6040518061014001604052808781526020018281526020018681526020018481526020015f151581526020015f81526020015f151581526020018581526020015f1515815260200160405180602001604052805f81525081525060045f896001600160a01b03166001600160a01b031681526020019081526020015f205f8881526020019081526020015f205f820151815f01556020820151816001015560408201518160020155606082015181600301556080820151816004015f6101000a81548160ff02191690831515021790555060a0820151816005015560c0820151816006015f6101000a81548160ff02191690831515021790555060e08201518160070190816113f6919061320a565b5061010082015160088201805460ff19169115159190911790556101208201516009820190611425908261320a565b5050506001600160a01b039096165f90815260056020908152604082208054600181018255908352912001949094555050505050565b6001600160a01b0381165f908152600a602090815260408083203384529091529020546114c25760405162461bcd60e51b81526020600482015260156024820152741e5bdd48191bc81b9bdd08189948185b1b1bddd959605a1b6044820152606401610938565b6001600160a01b0381165f908152600a6020908152604080832033845290915281208054916114f0836132ca565b90915550506001600160a01b0381165f90815260056020526040812054908167ffffffffffffffff81111561152757611527612d90565b60405190808252806020026020018201604052801561156057816020015b61154d612a27565b8152602001906001900390816115455790505b5090505f5b828110156118f0576001600160a01b0384165f9081526005602052604081208054839081106115965761159661306e565b5f9182526020808320909101546001600160a01b038816835260048083526040808520838652845293849020845161014081018652815481526001820154948101949094526002810154948401949094526003840154606084015283015460ff90811615156080840152600584015460a0840152600684015416151560c083015260078301805491945091929160e0840191611631906130af565b80601f016020809104026020016040519081016040528092919081815260200182805461165d906130af565b80156116a85780601f1061167f576101008083540402835291602001916116a8565b820191905f5260205f20905b81548152906001019060200180831161168b57829003601f168201915b5050509183525050600882015460ff16151560208201526009820180546040909201916116d4906130af565b80601f0160208091040260200160405190810160405280929190818152602001828054611700906130af565b801561174b5780601f106117225761010080835404028352916020019161174b565b820191905f5260205f20905b81548152906001019060200180831161172e57829003601f168201915b5050505050815250508383815181106117665761176661306e565b6020026020010181905250846001600160a01b03167f9cbf22d1e26c3fcde690dd334d1b5eec6973003fd2816d81ef98b31a669cc0d88484815181106117ae576117ae61306e565b60200260200101515f01518585815181106117cb576117cb61306e565b6020026020010151602001518686815181106117e9576117e961306e565b6020026020010151604001518787815181106118075761180761306e565b6020026020010151606001518888815181106118255761182561306e565b6020026020010151608001518989815181106118435761184361306e565b602002602001015160a001518a8a815181106118615761186161306e565b602002602001015160c001518b8b8151811061187f5761187f61306e565b602002602001015160e001518c8c8151811061189d5761189d61306e565b602002602001015161010001518d8d815181106118bc576118bc61306e565b602002602001015161012001516040516118df9a99989796959493929190612ffe565b60405180910390a250600101611565565b50505050565b6060600980548060200260200160405190810160405280929190818152602001828054801561194257602002820191905f5260205f20905b81548152602001906001019080831161192e575b5050505050905090565b5f546001600160a01b03163314806119785750335f9081526001602081905260409091205460ff161515145b6119cf5760405162461bcd60e51b815260206004820152603560248201525f805160206133af83398151915260448201527430b8383937bb32a1b932b234ba2a3930b739b332b960591b6064820152608401610938565b6001600160a01b0382165f908152600b602052604090208054829081106119f8576119f861306e565b5f91825260209091206003600590920201015460ff1615611a5b5760405162461bcd60e51b815260206004820152601960248201527f5472616e7366657220616c726561647920617070726f766564000000000000006044820152606401610938565b6001600160a01b0382165f908152600b6020526040902080546001919083908110611a8857611a8861306e565b5f9182526020909120600590910201600301805460ff19169115159190911790555050565b5f546001600160a01b03163314611ad65760405162461bcd60e51b8152600401610938906130ff565b6001600160a01b0381165f818152600160208190526040808320805460ff1916909217909155517f44d6d25963f097ad14f29f06854a01f575648a1ef82f30e562ccd3889717e3399190a250565b5f546001600160a01b03163314611b4d5760405162461bcd60e51b8152600401610938906130ff565b5f80546040516001600160a01b03909116907f8be0079c531659141344cd1fd0a4f28419497f9722a3daafe3b4186f6b6457e0908390a35f80546001600160a01b0319169055565b335f9081526004602090815260408083208584529091528120600301549003611bd05760405162461bcd60e51b81526004016109389061311f565b335f90815260046020908152604080832085845290915290206006015460ff1615611c0d5760405162461bcd60e51b81526004016109389061314e565b335f818152600b602090815260408083208054825160c081018452958652858401888152928601878152606087018690526080870186905260a08701829052600180830184559286529390942085516005860290910180546001600160a01b0319166001600160a01b0390921691909117815591519082015590519192916002820190611c9a908261320a565b506060820151600382018054608085015115156101000261ff00199315159390931661ffff199091161791909117905560a0909101516004909101555f805b600c54811015611d2a57336001600160a01b0316600c8281548110611d0057611d0061306e565b5f918252602090912001546001600160a01b031603611d225760019150611d2a565b600101611cd9565b50806118f057600c80546001810182555f919091527fdf6966c971051c3d54ec59162606531493a51404a002842f56009d7e5cf4a8c70180546001600160a01b0319163317905550505050565b611d9f60405180608001604052805f8152602001606081526020015f81526020015f81525090565b5f828152600760205260409020805460ff1916600117905560035f8381526020019081526020015f206040518060800160405290815f8201548152602001600182018054611dec906130af565b80601f0160208091040260200160405190810160405280929190818152602001828054611e18906130af565b8015611e635780601f10611e3a57610100808354040283529160200191611e63565b820191905f5260205f20905b815481529060010190602001808311611e4657829003601f168201915b50505050508152602001600282015481526020016003820154815250509050919050565b6001600160a01b038281165f9081526002602081815260408084208151608081018352600d805482523382860190815293820189815260608301888152845460018082018755958a5296892093516004909702909301958655935192850180546001600160a01b031916939098169290921790965590519282019290925592516003909301805460ff19169315159390931790925581549190611f29836130e7565b91905055505050565b60606001600160a01b038216611f8a5760405162461bcd60e51b815260206004820152601760248201527f496e76616c69642073747564656e7420616464726573730000000000000000006044820152606401610938565b6001600160a01b0382165f908152600b6020908152604080832080548251818502810185019093528083529193909284015b828210156120cc575f8481526020908190206040805160c0810182526005860290920180546001600160a01b031683526001810154938301939093526002830180549293929184019161200e906130af565b80601f016020809104026020016040519081016040528092919081815260200182805461203a906130af565b80156120855780601f1061205c57610100808354040283529160200191612085565b820191905f5260205f20905b81548152906001019060200180831161206857829003601f168201915b5050509183525050600382015460ff808216151560208085019190915261010090920416151560408301526004909201546060909101529082526001929092019101611fbc565b505050509050919050565b60036020525f9081526040902080546001820180549192916120f8906130af565b80601f0160208091040260200160405190810160405280929190818152602001828054612124906130af565b801561216f5780601f106121465761010080835404028352916020019161216f565b820191905f5260205f20905b81548152906001019060200180831161215257829003601f168201915b5050505050908060020154908060030154905084565b335f9081526006602052604090205460ff166121d35760405162461bcd60e51b815260206004820152600d60248201526c2737ba1030903a32b0b1b432b960991b6044820152606401610938565b6001600160a01b0383165f90815260046020908152604080832085845290915281206003015490036122175760405162461bcd60e51b81526004016109389061311f565b6001600160a01b03831661223d5760405162461bcd60e51b81526004016109389061317e565b6001600160a01b0383165f90815260046020908152604080832085845290915290206006015460ff16156122835760405162461bcd60e51b81526004016109389061314e565b6001600160a01b0383165f9081526004602090815260408083208584529091528120600501546122b4906001613096565b5f84815260036020526040812060020154919250906122d390846131a7565b6001600160a01b03959095165f908152600460208181526040808420978452969052949020600180820196909655600581019290925550600281019190915501805460ff19169091179055565b6002602052815f5260405f208181548110612339575f80fd5b5f91825260209091206004909102018054600182015460028301546003909301549194506001600160a01b0316925060ff1684565b5f546001600160a01b031633148061239a5750335f9081526001602081905260409091205460ff161515145b6123e35760405162461bcd60e51b815260206004820152602760248201525f805160206133af8339815191526044820152666578656375746560c81b6064820152608401610938565b6001600160a01b0382165f908152600b6020526040902080548290811061240c5761240c61306e565b5f91825260209091206003600590920201015460ff166124665760405162461bcd60e51b8152602060048201526015602482015274151c985b9cd9995c881b9bdd08185c1c1c9bdd9959605a1b6044820152606401610938565b6001600160a01b0382165f908152600b6020526040902080548290811061248f5761248f61306e565b905f5260205f20906005020160030160019054906101000a900460ff16156124f95760405162461bcd60e51b815260206004820152601960248201527f5472616e7366657220616c7265616479206578656375746564000000000000006044820152606401610938565b6001600160a01b0382165f908152600b602052604090208054829081106125225761252261306e565b5f91825260208083206001600160a01b0386168452600482526040808520600b90935284208054600594909402909101600201939192859081106125685761256861306e565b905f5260205f2090600502016001015481526020019081526020015f20600901908161259491906132df565b506001600160a01b0382165f908152600b60205260409020805460019190839081106125c2576125c261306e565b5f918252602080832060036005909302019190910180549315156101000261ff0019909416939093179092556001600160a01b0384168152600482526040808220600b90935281208054600193929190859081106126225761262261306e565b905f5260205f2090600502016001015481526020019081526020015f206008015f6101000a81548160ff0219169083151502179055505050565b5f546001600160a01b03163314806126885750335f9081526001602081905260409091205460ff161515145b6126d35760405162461bcd60e51b815260206004820152602960248201525f805160206133af833981519152604482015268616464436f7572736560b81b6064820152608401610938565b5f8381526007602052604090205460ff16156127295760405162461bcd60e51b8152602060048201526015602482015274436f7572736520616c72656164792065786973747360581b6044820152606401610938565b5f838152600760209081526040808320805460ff19166001908117909155600980548083019091557f6e1540171b6c0c960b71a7020d9f60077f6af931a8bbf590da0223dacf75c7af01879055815160808101835287815280840186815281840188905242606083015288865260039094529190932081518155915190928201906127b4908261320a565b5060408201516002820155606090910151600390910155505050565b600981815481106127df575f80fd5b5f91825260209091200154905081565b600460208181525f938452604080852090915291835291208054600182015460028301546003840154948401546005850154600686015460078701805496989597949660ff9485169593949092169291612848906130af565b80601f0160208091040260200160405190810160405280929190818152602001828054612874906130af565b80156128bf5780601f10612896576101008083540402835291602001916128bf565b820191905f5260205f20905b8154815290600101906020018083116128a257829003601f168201915b5050506008840154600985018054949560ff9092169491935091506128e3906130af565b80601f016020809104026020016040519081016040528092919081815260200182805461290f906130af565b801561295a5780601f106129315761010080835404028352916020019161295a565b820191905f5260205f20905b81548152906001019060200180831161293d57829003601f168201915b505050505090508a565b5f546001600160a01b0316331461298d5760405162461bcd60e51b8152600401610938906130ff565b6001600160a01b0381166129ce5760405162461bcd60e51b815260206004820152600860248201526706e657720697320360c41b6044820152606401610938565b5f80546040516001600160a01b03808516939216917f8be0079c531659141344cd1fd0a4f28419497f9722a3daafe3b4186f6b6457e091a35f80546001600160a01b0319166001600160a01b0392909216919091179055565b6040518061014001604052805f81526020015f81526020015f81526020015f81526020015f151581526020015f81526020015f15158152602001606081526020015f15158152602001606081525090565b80356001600160a01b0381168114612a8e575f80fd5b919050565b5f60208284031215612aa3575f80fd5b612aac82612a78565b9392505050565b5f8060408385031215612ac4575f80fd5b612acd83612a78565b946020939093013593505050565b5f81518084528060208401602086015e5f602082860101526020601f19601f83011685010191505092915050565b5f60208083018184528085518083526040925060408601915060408160051b8701018488015f5b83811015612ba957888303603f19018552815180516001600160a01b0316845287810151888501528681015160c088860181905290612b7182870182612adb565b60608481015115159088015260808085015115159088015260a093840151939096019290925250509386019390860190600101612b30565b509098975050505050505050565b5f60208284031215612bc7575f80fd5b5035919050565b5f60208083018184528085518083526040925060408601915060408160051b8701018488015f5b83811015612ba957603f19898403018552815180518452878101518885015286810151878501526060808201519085015260808082015115159085015260a0808201519085015260c08082015115159085015260e0808201516101408287018190529190612c6583880182612adb565b9250505061010080830151612c7d8288018215159052565b50506101208083015192508582038187015250612c9a8183612adb565b968901969450505090860190600101612bf5565b5f805f60608486031215612cc0575f80fd5b612cc984612a78565b95602085013595506040909401359392505050565b602080825282518282018190525f919060409081850190868401855b82811015612d3f57815180518552868101516001600160a01b031687860152858101518686015260609081015115159085015260809093019290850190600101612cfa565b5091979650505050505050565b60018060a01b038716815285602082015260c060408201525f612d7260c0830187612adb565b941515606083015250911515608083015260a0909101529392505050565b634e487b7160e01b5f52604160045260245ffd5b5f82601f830112612db3575f80fd5b813567ffffffffffffffff80821115612dce57612dce612d90565b604051601f8301601f19908116603f01168101908282118183101715612df657612df6612d90565b81604052838152866020858801011115612e0e575f80fd5b836020870160208301375f602085830101528094505050505092915050565b5f805f8060808587031215612e40575f80fd5b612e4985612a78565b93506020850135925060408501359150606085013567ffffffffffffffff811115612e72575f80fd5b612e7e87828801612da4565b91505092959194509250565b602080825282518282018190525f9190848201906040850190845b81811015612ec157835183529284019291840191600101612ea5565b50909695505050505050565b5f8060408385031215612ede575f80fd5b82359150602083013567ffffffffffffffff811115612efb575f80fd5b612f0785828601612da4565b9150509250929050565b60208152815160208201525f602083015160806040840152612f3660a0840182612adb565b905060408401516060840152606084015160808401528091505092915050565b848152608060208201525f612f6e6080830186612adb565b6040830194909452506060015292915050565b5f805f60608486031215612f93575f80fd5b8335925060208401359150604084013567ffffffffffffffff811115612fb7575f80fd5b612fc386828701612da4565b9150509250925092565b5f8060408385031215612fde575f80fd5b612fe783612a78565b9150612ff560208401612a78565b90509250929050565b5f6101408c83528b60208401528a604084015289606084015288151560808401528760a084015286151560c08401528060e084015261303f81840187612adb565b905084151561010084015282810361012084015261305d8185612adb565b9d9c50505050505050505050505050565b634e487b7160e01b5f52603260045260245ffd5b634e487b7160e01b5f52601160045260245ffd5b808201808211156130a9576130a9613082565b92915050565b600181811c908216806130c357607f821691505b6020821081036130e157634e487b7160e01b5f52602260045260245ffd5b50919050565b5f600182016130f8576130f8613082565b5060010190565b60208082526006908201526510b7bbb732b960d11b604082015260600190565b60208082526015908201527410dc99591a5d08191bd95cc81b9bdd08195e1a5cdd605a1b604082015260600190565b60208082526016908201527510dc99591a5d08185b1c9958591e481c995d9bdad95960521b604082015260600190565b6020808252600f908201526e496e76616c6964206164647265737360881b604082015260600190565b80820281158282048414176130a9576130a9613082565b601f82111561320557805f5260205f20601f840160051c810160208510156131e35750805b601f840160051c820191505b81811015613202575f81556001016131ef565b50505b505050565b815167ffffffffffffffff81111561322457613224612d90565b6132388161323284546130af565b846131be565b602080601f83116001811461326b575f84156132545750858301515b5f19600386901b1c1916600185901b1785556132c2565b5f85815260208120601f198616915b828110156132995788860151825594840194600190910190840161327a565b50858210156132b657878501515f19600388901b60f8161c191681555b505060018460011b0185555b505050505050565b5f816132d8576132d8613082565b505f190190565b8181036132ea575050565b6132f482546130af565b67ffffffffffffffff81111561330c5761330c612d90565b61331a8161323284546130af565b5f601f82116001811461334b575f83156133345750848201545b5f19600385901b1c1916600184901b178455613202565b5f8581526020808220868352908220601f198616925b838110156133815782860154825560019586019590910190602001613361565b508583101561339e57818501545f19600388901b60f8161c191681555b5050505050600190811b0190555056fe6f6e6c7920746f7061646d696e206f722061646d696e2063616e2063616c6c20a264697066735822122033ee10a8ca932ff93677716a9efbfbb39e4f07545ff1cf39eebd77543ce67d0864736f6c63430008190033",
			"opcodes": "PUSH1 0x80 PUSH1 0x40 MSTORE CALLVALUE DUP1 ISZERO PUSH1 0xE JUMPI PUSH0 DUP1 REVERT JUMPDEST POP PUSH0 DUP1 SLOAD PUSH1 0x1 PUSH1 0x1 PUSH1 0xA0 SHL SUB NOT AND CALLER SWAP1 DUP2 OR DUP3 SSTORE PUSH1 0x40 MLOAD SWAP1 SWAP2 DUP3 SWAP2 PUSH32 0x8BE0079C531659141344CD1FD0A4F28419497F9722A3DAAFE3B4186F6B6457E0 SWAP1 DUP3 SWAP1 LOG3 POP PUSH2 0x3404 DUP1 PUSH2 0x5C PUSH0 CODECOPY PUSH0 RETURN INVALID PUSH1 0x80 PUSH1 0x40 MSTORE CALLVALUE DUP1 ISZERO PUSH2 0xF JUMPI PUSH0 DUP1 REVERT JUMPDEST POP PUSH1 0x4 CALLDATASIZE LT PUSH2 0x21E JUMPI PUSH0 CALLDATALOAD PUSH1 0xE0 SHR DUP1 PUSH4 0x6B105C81 GT PUSH2 0x12A JUMPI DUP1 PUSH4 0xB44E7D09 GT PUSH2 0xB4 JUMPI DUP1 PUSH4 0xE2ED5A4E GT PUSH2 0x79 JUMPI DUP1 PUSH4 0xE2ED5A4E EQ PUSH2 0x57A JUMPI DUP1 PUSH4 0xF0A47F78 EQ PUSH2 0x58D JUMPI DUP1 PUSH4 0xF2012286 EQ PUSH2 0x5AF JUMPI DUP1 PUSH4 0xF2FDE38B EQ PUSH2 0x5D8 JUMPI DUP1 PUSH4 0xF99031A7 EQ PUSH2 0x5EB JUMPI PUSH0 DUP1 REVERT JUMPDEST DUP1 PUSH4 0xB44E7D09 EQ PUSH2 0x4DA JUMPI DUP1 PUSH4 0xB5FE8D09 EQ PUSH2 0x4ED JUMPI DUP1 PUSH4 0xDBA8C55F EQ PUSH2 0x52A JUMPI DUP1 PUSH4 0xDCC63A16 EQ PUSH2 0x53D JUMPI DUP1 PUSH4 0xDD62ED3E EQ PUSH2 0x550 JUMPI PUSH0 DUP1 REVERT JUMPDEST DUP1 PUSH4 0x8DA5CB5B GT PUSH2 0xFA JUMPI DUP1 PUSH4 0x8DA5CB5B EQ PUSH2 0x461 JUMPI DUP1 PUSH4 0x981059EE EQ PUSH2 0x471 JUMPI DUP1 PUSH4 0x995975D8 EQ PUSH2 0x491 JUMPI DUP1 PUSH4 0xA59742DF EQ PUSH2 0x4A4 JUMPI DUP1 PUSH4 0xB264A4A5 EQ PUSH2 0x4B7 JUMPI PUSH0 DUP1 REVERT JUMPDEST DUP1 PUSH4 0x6B105C81 EQ PUSH2 0x420 JUMPI DUP1 PUSH4 0x70480275 EQ PUSH2 0x433 JUMPI DUP1 PUSH4 0x715018A6 EQ PUSH2 0x446 JUMPI DUP1 PUSH4 0x75E7C425 EQ PUSH2 0x44E JUMPI PUSH0 DUP1 REVERT JUMPDEST DUP1 PUSH4 0x416D6499 GT PUSH2 0x1AB JUMPI DUP1 PUSH4 0x52FF6846 GT PUSH2 0x17B JUMPI DUP1 PUSH4 0x52FF6846 EQ PUSH2 0x3B0 JUMPI DUP1 PUSH4 0x5407B304 EQ PUSH2 0x3C3 JUMPI DUP1 PUSH4 0x5BA75156 EQ PUSH2 0x3E5 JUMPI DUP1 PUSH4 0x659CC07B EQ PUSH2 0x3F8 JUMPI DUP1 PUSH4 0x68FDBD70 EQ PUSH2 0x40B JUMPI PUSH0 DUP1 REVERT JUMPDEST DUP1 PUSH4 0x416D6499 EQ PUSH2 0x34E JUMPI DUP1 PUSH4 0x426A8493 EQ PUSH2 0x363 JUMPI DUP1 PUSH4 0x4708FDD6 EQ PUSH2 0x376 JUMPI DUP1 PUSH4 0x4A5AD49E EQ PUSH2 0x38B JUMPI PUSH0 DUP1 REVERT JUMPDEST DUP1 PUSH4 0x24D7806C GT PUSH2 0x1F1 JUMPI DUP1 PUSH4 0x24D7806C EQ PUSH2 0x29A JUMPI DUP1 PUSH4 0x261CA633 EQ PUSH2 0x2CC JUMPI DUP1 PUSH4 0x27F83AF9 EQ PUSH2 0x2F7 JUMPI DUP1 PUSH4 0x39E899EE EQ PUSH2 0x30A JUMPI DUP1 PUSH4 0x3BC6E309 EQ PUSH2 0x33B JUMPI PUSH0 DUP1 REVERT JUMPDEST DUP1 PUSH4 0x41C2EE0 EQ PUSH2 0x222 JUMPI DUP1 PUSH4 0x740C8CF EQ PUSH2 0x25D JUMPI DUP1 PUSH4 0x1145D39A EQ PUSH2 0x270 JUMPI DUP1 PUSH4 0x1785F53C EQ PUSH2 0x285 JUMPI JUMPDEST PUSH0 DUP1 REVERT JUMPDEST PUSH2 0x24A PUSH2 0x230 CALLDATASIZE PUSH1 0x4 PUSH2 0x2A93 JUMP JUMPDEST PUSH1 0x1 PUSH1 0x1 PUSH1 0xA0 SHL SUB AND PUSH0 SWAP1 DUP2 MSTORE PUSH1 0xB PUSH1 0x20 MSTORE PUSH1 0x40 SWAP1 KECCAK256 SLOAD SWAP1 JUMP JUMPDEST PUSH1 0x40 MLOAD SWAP1 DUP2 MSTORE PUSH1 0x20 ADD JUMPDEST PUSH1 0x40 MLOAD DUP1 SWAP2 SUB SWAP1 RETURN JUMPDEST PUSH2 0x24A PUSH2 0x26B CALLDATASIZE PUSH1 0x4 PUSH2 0x2AB3 JUMP JUMPDEST PUSH2 0x60D JUMP JUMPDEST PUSH2 0x278 PUSH2 0x638 JUMP JUMPDEST PUSH1 0x40 MLOAD PUSH2 0x254 SWAP2 SWAP1 PUSH2 0x2B09 JUMP JUMPDEST PUSH2 0x298 PUSH2 0x293 CALLDATASIZE PUSH1 0x4 PUSH2 0x2A93 JUMP JUMPDEST PUSH2 0x90F JUMP JUMPDEST STOP JUMPDEST PUSH2 0x2BC PUSH2 0x2A8 CALLDATASIZE PUSH1 0x4 PUSH2 0x2A93 JUMP JUMPDEST PUSH1 0x1 PUSH1 0x20 MSTORE PUSH0 SWAP1 DUP2 MSTORE PUSH1 0x40 SWAP1 KECCAK256 SLOAD PUSH1 0xFF AND DUP2 JUMP JUMPDEST PUSH1 0x40 MLOAD SWAP1 ISZERO ISZERO DUP2 MSTORE PUSH1 0x20 ADD PUSH2 0x254 JUMP JUMPDEST PUSH2 0x2DF PUSH2 0x2DA CALLDATASIZE PUSH1 0x4 PUSH2 0x2BB7 JUMP JUMPDEST PUSH2 0x989 JUMP JUMPDEST PUSH1 0x40 MLOAD PUSH1 0x1 PUSH1 0x1 PUSH1 0xA0 SHL SUB SWAP1 SWAP2 AND DUP2 MSTORE PUSH1 0x20 ADD PUSH2 0x254 JUMP JUMPDEST PUSH2 0x298 PUSH2 0x305 CALLDATASIZE PUSH1 0x4 PUSH2 0x2AB3 JUMP JUMPDEST PUSH2 0x9B1 JUMP JUMPDEST PUSH2 0x298 PUSH2 0x318 CALLDATASIZE PUSH1 0x4 PUSH2 0x2A93 JUMP JUMPDEST PUSH1 0x1 PUSH1 0x1 PUSH1 0xA0 SHL SUB AND PUSH0 SWAP1 DUP2 MSTORE PUSH1 0x8 PUSH1 0x20 MSTORE PUSH1 0x40 SWAP1 KECCAK256 DUP1 SLOAD PUSH1 0xFF NOT AND PUSH1 0x1 OR SWAP1 SSTORE JUMP JUMPDEST PUSH2 0x298 PUSH2 0x349 CALLDATASIZE PUSH1 0x4 PUSH2 0x2A93 JUMP JUMPDEST PUSH2 0xAE1 JUMP JUMPDEST PUSH2 0x356 PUSH2 0xBA2 JUMP JUMPDEST PUSH1 0x40 MLOAD PUSH2 0x254 SWAP2 SWAP1 PUSH2 0x2BCE JUMP JUMPDEST PUSH2 0x2BC PUSH2 0x371 CALLDATASIZE PUSH1 0x4 PUSH2 0x2CAE JUMP JUMPDEST PUSH2 0xE13 JUMP JUMPDEST PUSH2 0x37E PUSH2 0xEE4 JUMP JUMPDEST PUSH1 0x40 MLOAD PUSH2 0x254 SWAP2 SWAP1 PUSH2 0x2CDE JUMP JUMPDEST PUSH2 0x39E PUSH2 0x399 CALLDATASIZE PUSH1 0x4 PUSH2 0x2AB3 JUMP JUMPDEST PUSH2 0xF7C JUMP JUMPDEST PUSH1 0x40 MLOAD PUSH2 0x254 SWAP7 SWAP6 SWAP5 SWAP4 SWAP3 SWAP2 SWAP1 PUSH2 0x2D4C JUMP JUMPDEST PUSH2 0x298 PUSH2 0x3BE CALLDATASIZE PUSH1 0x4 PUSH2 0x2A93 JUMP JUMPDEST PUSH2 0x1065 JUMP JUMPDEST PUSH2 0x2BC PUSH2 0x3D1 CALLDATASIZE PUSH1 0x4 PUSH2 0x2BB7 JUMP JUMPDEST PUSH1 0x7 PUSH1 0x20 MSTORE PUSH0 SWAP1 DUP2 MSTORE PUSH1 0x40 SWAP1 KECCAK256 SLOAD PUSH1 0xFF AND DUP2 JUMP JUMPDEST PUSH2 0x298 PUSH2 0x3F3 CALLDATASIZE PUSH1 0x4 PUSH2 0x2E2D JUMP JUMPDEST PUSH2 0x1192 JUMP JUMPDEST PUSH2 0x298 PUSH2 0x406 CALLDATASIZE PUSH1 0x4 PUSH2 0x2A93 JUMP JUMPDEST PUSH2 0x145B JUMP JUMPDEST PUSH2 0x413 PUSH2 0x18F6 JUMP JUMPDEST PUSH1 0x40 MLOAD PUSH2 0x254 SWAP2 SWAP1 PUSH2 0x2E8A JUMP JUMPDEST PUSH2 0x298 PUSH2 0x42E CALLDATASIZE PUSH1 0x4 PUSH2 0x2AB3 JUMP JUMPDEST PUSH2 0x194C JUMP JUMPDEST PUSH2 0x298 PUSH2 0x441 CALLDATASIZE PUSH1 0x4 PUSH2 0x2A93 JUMP JUMPDEST PUSH2 0x1AAD JUMP JUMPDEST PUSH2 0x298 PUSH2 0x1B24 JUMP JUMPDEST PUSH2 0x298 PUSH2 0x45C CALLDATASIZE PUSH1 0x4 PUSH2 0x2ECD JUMP JUMPDEST PUSH2 0x1B95 JUMP JUMPDEST PUSH0 SLOAD PUSH1 0x1 PUSH1 0x1 PUSH1 0xA0 SHL SUB AND PUSH2 0x2DF JUMP JUMPDEST PUSH2 0x484 PUSH2 0x47F CALLDATASIZE PUSH1 0x4 PUSH2 0x2BB7 JUMP JUMPDEST PUSH2 0x1D77 JUMP JUMPDEST PUSH1 0x40 MLOAD PUSH2 0x254 SWAP2 SWAP1 PUSH2 0x2F11 JUMP JUMPDEST PUSH2 0x298 PUSH2 0x49F CALLDATASIZE PUSH1 0x4 PUSH2 0x2AB3 JUMP JUMPDEST PUSH2 0x1E87 JUMP JUMPDEST PUSH2 0x278 PUSH2 0x4B2 CALLDATASIZE PUSH1 0x4 PUSH2 0x2A93 JUMP JUMPDEST PUSH2 0x1F32 JUMP JUMPDEST PUSH2 0x4CA PUSH2 0x4C5 CALLDATASIZE PUSH1 0x4 PUSH2 0x2BB7 JUMP JUMPDEST PUSH2 0x20D7 JUMP JUMPDEST PUSH1 0x40 MLOAD PUSH2 0x254 SWAP5 SWAP4 SWAP3 SWAP2 SWAP1 PUSH2 0x2F56 JUMP JUMPDEST PUSH2 0x298 PUSH2 0x4E8 CALLDATASIZE PUSH1 0x4 PUSH2 0x2CAE JUMP JUMPDEST PUSH2 0x2185 JUMP JUMPDEST PUSH2 0x500 PUSH2 0x4FB CALLDATASIZE PUSH1 0x4 PUSH2 0x2AB3 JUMP JUMPDEST PUSH2 0x2320 JUMP JUMPDEST PUSH1 0x40 DUP1 MLOAD SWAP5 DUP6 MSTORE PUSH1 0x1 PUSH1 0x1 PUSH1 0xA0 SHL SUB SWAP1 SWAP4 AND PUSH1 0x20 DUP6 ADD MSTORE SWAP2 DUP4 ADD MSTORE ISZERO ISZERO PUSH1 0x60 DUP3 ADD MSTORE PUSH1 0x80 ADD PUSH2 0x254 JUMP JUMPDEST PUSH2 0x298 PUSH2 0x538 CALLDATASIZE PUSH1 0x4 PUSH2 0x2AB3 JUMP JUMPDEST PUSH2 0x236E JUMP JUMPDEST PUSH2 0x298 PUSH2 0x54B CALLDATASIZE PUSH1 0x4 PUSH2 0x2F81 JUMP JUMPDEST PUSH2 0x265C JUMP JUMPDEST PUSH2 0x24A PUSH2 0x55E CALLDATASIZE PUSH1 0x4 PUSH2 0x2FCD JUMP JUMPDEST PUSH1 0xA PUSH1 0x20 SWAP1 DUP2 MSTORE PUSH0 SWAP3 DUP4 MSTORE PUSH1 0x40 DUP1 DUP5 KECCAK256 SWAP1 SWAP2 MSTORE SWAP1 DUP3 MSTORE SWAP1 KECCAK256 SLOAD DUP2 JUMP JUMPDEST PUSH2 0x24A PUSH2 0x588 CALLDATASIZE PUSH1 0x4 PUSH2 0x2BB7 JUMP JUMPDEST PUSH2 0x27D0 JUMP JUMPDEST PUSH2 0x2BC PUSH2 0x59B CALLDATASIZE PUSH1 0x4 PUSH2 0x2A93 JUMP JUMPDEST PUSH1 0x6 PUSH1 0x20 MSTORE PUSH0 SWAP1 DUP2 MSTORE PUSH1 0x40 SWAP1 KECCAK256 SLOAD PUSH1 0xFF AND DUP2 JUMP JUMPDEST PUSH2 0x5C2 PUSH2 0x5BD CALLDATASIZE PUSH1 0x4 PUSH2 0x2AB3 JUMP JUMPDEST PUSH2 0x27EF JUMP JUMPDEST PUSH1 0x40 MLOAD PUSH2 0x254 SWAP11 SWAP10 SWAP9 SWAP8 SWAP7 SWAP6 SWAP5 SWAP4 SWAP3 SWAP2 SWAP1 PUSH2 0x2FFE JUMP JUMPDEST PUSH2 0x298 PUSH2 0x5E6 CALLDATASIZE PUSH1 0x4 PUSH2 0x2A93 JUMP JUMPDEST PUSH2 0x2964 JUMP JUMPDEST PUSH2 0x2BC PUSH2 0x5F9 CALLDATASIZE PUSH1 0x4 PUSH2 0x2A93 JUMP JUMPDEST PUSH1 0x8 PUSH1 0x20 MSTORE PUSH0 SWAP1 DUP2 MSTORE PUSH1 0x40 SWAP1 KECCAK256 SLOAD PUSH1 0xFF AND DUP2 JUMP JUMPDEST PUSH1 0x5 PUSH1 0x20 MSTORE DUP2 PUSH0 MSTORE PUSH1 0x40 PUSH0 KECCAK256 DUP2 DUP2 SLOAD DUP2 LT PUSH2 0x626 JUMPI PUSH0 DUP1 REVERT JUMPDEST SWAP1 PUSH0 MSTORE PUSH1 0x20 PUSH0 KECCAK256 ADD PUSH0 SWAP2 POP SWAP2 POP POP SLOAD DUP2 JUMP JUMPDEST PUSH1 0x60 PUSH0 DUP1 JUMPDEST PUSH1 0xC SLOAD DUP2 LT ISZERO PUSH2 0x695 JUMPI PUSH1 0xB PUSH0 PUSH1 0xC DUP4 DUP2 SLOAD DUP2 LT PUSH2 0x65D JUMPI PUSH2 0x65D PUSH2 0x306E JUMP JUMPDEST PUSH0 SWAP2 DUP3 MSTORE PUSH1 0x20 DUP1 DUP4 KECCAK256 SWAP1 SWAP2 ADD SLOAD PUSH1 0x1 PUSH1 0x1 PUSH1 0xA0 SHL SUB AND DUP4 MSTORE DUP3 ADD SWAP3 SWAP1 SWAP3 MSTORE PUSH1 0x40 ADD SWAP1 KECCAK256 SLOAD PUSH2 0x68B SWAP1 DUP4 PUSH2 0x3096 JUMP JUMPDEST SWAP2 POP PUSH1 0x1 ADD PUSH2 0x63D JUMP JUMPDEST POP PUSH0 DUP2 PUSH8 0xFFFFFFFFFFFFFFFF DUP2 GT ISZERO PUSH2 0x6B0 JUMPI PUSH2 0x6B0 PUSH2 0x2D90 JUMP JUMPDEST PUSH1 0x40 MLOAD SWAP1 DUP1 DUP3 MSTORE DUP1 PUSH1 0x20 MUL PUSH1 0x20 ADD DUP3 ADD PUSH1 0x40 MSTORE DUP1 ISZERO PUSH2 0x722 JUMPI DUP2 PUSH1 0x20 ADD JUMPDEST PUSH2 0x70F PUSH1 0x40 MLOAD DUP1 PUSH1 0xC0 ADD PUSH1 0x40 MSTORE DUP1 PUSH0 PUSH1 0x1 PUSH1 0x1 PUSH1 0xA0 SHL SUB AND DUP2 MSTORE PUSH1 0x20 ADD PUSH0 DUP2 MSTORE PUSH1 0x20 ADD PUSH1 0x60 DUP2 MSTORE PUSH1 0x20 ADD PUSH0 ISZERO ISZERO DUP2 MSTORE PUSH1 0x20 ADD PUSH0 ISZERO ISZERO DUP2 MSTORE PUSH1 0x20 ADD PUSH0 DUP2 MSTORE POP SWAP1 JUMP JUMPDEST DUP2 MSTORE PUSH1 0x20 ADD SWAP1 PUSH1 0x1 SWAP1 SUB SWAP1 DUP2 PUSH2 0x6CE JUMPI SWAP1 POP JUMPDEST POP SWAP1 POP PUSH0 DUP1 JUMPDEST PUSH1 0xC SLOAD DUP2 LT ISZERO PUSH2 0x906 JUMPI PUSH0 JUMPDEST PUSH1 0xB PUSH0 PUSH1 0xC DUP5 DUP2 SLOAD DUP2 LT PUSH2 0x74A JUMPI PUSH2 0x74A PUSH2 0x306E JUMP JUMPDEST PUSH0 SWAP2 DUP3 MSTORE PUSH1 0x20 DUP1 DUP4 KECCAK256 SWAP1 SWAP2 ADD SLOAD PUSH1 0x1 PUSH1 0x1 PUSH1 0xA0 SHL SUB AND DUP4 MSTORE DUP3 ADD SWAP3 SWAP1 SWAP3 MSTORE PUSH1 0x40 ADD SWAP1 KECCAK256 SLOAD DUP2 LT ISZERO PUSH2 0x8FD JUMPI PUSH1 0xB PUSH0 PUSH1 0xC DUP5 DUP2 SLOAD DUP2 LT PUSH2 0x78B JUMPI PUSH2 0x78B PUSH2 0x306E JUMP JUMPDEST PUSH0 SWAP2 DUP3 MSTORE PUSH1 0x20 DUP1 DUP4 KECCAK256 SWAP1 SWAP2 ADD SLOAD PUSH1 0x1 PUSH1 0x1 PUSH1 0xA0 SHL SUB AND DUP4 MSTORE DUP3 ADD SWAP3 SWAP1 SWAP3 MSTORE PUSH1 0x40 ADD SWAP1 KECCAK256 DUP1 SLOAD DUP3 SWAP1 DUP2 LT PUSH2 0x7C0 JUMPI PUSH2 0x7C0 PUSH2 0x306E JUMP JUMPDEST SWAP1 PUSH0 MSTORE PUSH1 0x20 PUSH0 KECCAK256 SWAP1 PUSH1 0x5 MUL ADD PUSH1 0x40 MLOAD DUP1 PUSH1 0xC0 ADD PUSH1 0x40 MSTORE SWAP1 DUP2 PUSH0 DUP3 ADD PUSH0 SWAP1 SLOAD SWAP1 PUSH2 0x100 EXP SWAP1 DIV PUSH1 0x1 PUSH1 0x1 PUSH1 0xA0 SHL SUB AND PUSH1 0x1 PUSH1 0x1 PUSH1 0xA0 SHL SUB AND PUSH1 0x1 PUSH1 0x1 PUSH1 0xA0 SHL SUB AND DUP2 MSTORE PUSH1 0x20 ADD PUSH1 0x1 DUP3 ADD SLOAD DUP2 MSTORE PUSH1 0x20 ADD PUSH1 0x2 DUP3 ADD DUP1 SLOAD PUSH2 0x81E SWAP1 PUSH2 0x30AF JUMP JUMPDEST DUP1 PUSH1 0x1F ADD PUSH1 0x20 DUP1 SWAP2 DIV MUL PUSH1 0x20 ADD PUSH1 0x40 MLOAD SWAP1 DUP2 ADD PUSH1 0x40 MSTORE DUP1 SWAP3 SWAP2 SWAP1 DUP2 DUP2 MSTORE PUSH1 0x20 ADD DUP3 DUP1 SLOAD PUSH2 0x84A SWAP1 PUSH2 0x30AF JUMP JUMPDEST DUP1 ISZERO PUSH2 0x895 JUMPI DUP1 PUSH1 0x1F LT PUSH2 0x86C JUMPI PUSH2 0x100 DUP1 DUP4 SLOAD DIV MUL DUP4 MSTORE SWAP2 PUSH1 0x20 ADD SWAP2 PUSH2 0x895 JUMP JUMPDEST DUP3 ADD SWAP2 SWAP1 PUSH0 MSTORE PUSH1 0x20 PUSH0 KECCAK256 SWAP1 JUMPDEST DUP2 SLOAD DUP2 MSTORE SWAP1 PUSH1 0x1 ADD SWAP1 PUSH1 0x20 ADD DUP1 DUP4 GT PUSH2 0x878 JUMPI DUP3 SWAP1 SUB PUSH1 0x1F AND DUP3 ADD SWAP2 JUMPDEST POP POP POP SWAP2 DUP4 MSTORE POP POP PUSH1 0x3 DUP3 ADD SLOAD PUSH1 0xFF DUP1 DUP3 AND ISZERO ISZERO PUSH1 0x20 DUP5 ADD MSTORE PUSH2 0x100 SWAP1 SWAP2 DIV AND ISZERO ISZERO PUSH1 0x40 DUP3 ADD MSTORE PUSH1 0x4 SWAP1 SWAP2 ADD SLOAD PUSH1 0x60 SWAP1 SWAP2 ADD MSTORE DUP5 MLOAD DUP6 SWAP1 DUP6 SWAP1 DUP2 LT PUSH2 0x8DC JUMPI PUSH2 0x8DC PUSH2 0x306E JUMP JUMPDEST PUSH1 0x20 MUL PUSH1 0x20 ADD ADD DUP2 SWAP1 MSTORE POP DUP3 DUP1 PUSH2 0x8F2 SWAP1 PUSH2 0x30E7 JUMP JUMPDEST SWAP4 POP POP PUSH1 0x1 ADD PUSH2 0x734 JUMP JUMPDEST POP PUSH1 0x1 ADD PUSH2 0x728 JUMP JUMPDEST POP SWAP1 SWAP4 SWAP3 POP POP POP JUMP JUMPDEST PUSH0 SLOAD PUSH1 0x1 PUSH1 0x1 PUSH1 0xA0 SHL SUB AND CALLER EQ PUSH2 0x941 JUMPI PUSH1 0x40 MLOAD PUSH3 0x461BCD PUSH1 0xE5 SHL DUP2 MSTORE PUSH1 0x4 ADD PUSH2 0x938 SWAP1 PUSH2 0x30FF JUMP JUMPDEST PUSH1 0x40 MLOAD DUP1 SWAP2 SUB SWAP1 REVERT JUMPDEST PUSH1 0x1 PUSH1 0x1 PUSH1 0xA0 SHL SUB DUP2 AND PUSH0 DUP2 DUP2 MSTORE PUSH1 0x1 PUSH1 0x20 MSTORE PUSH1 0x40 DUP1 DUP3 KECCAK256 DUP1 SLOAD PUSH1 0xFF NOT AND SWAP1 SSTORE MLOAD PUSH32 0xA3B62BC36326052D97EA62D63C3D60308ED4C3EA8AC079DD8499F1E9C4F80C0F SWAP2 SWAP1 LOG2 POP JUMP JUMPDEST PUSH1 0xC DUP2 DUP2 SLOAD DUP2 LT PUSH2 0x998 JUMPI PUSH0 DUP1 REVERT JUMPDEST PUSH0 SWAP2 DUP3 MSTORE PUSH1 0x20 SWAP1 SWAP2 KECCAK256 ADD SLOAD PUSH1 0x1 PUSH1 0x1 PUSH1 0xA0 SHL SUB AND SWAP1 POP DUP2 JUMP JUMPDEST PUSH0 SLOAD PUSH1 0x1 PUSH1 0x1 PUSH1 0xA0 SHL SUB AND CALLER EQ DUP1 PUSH2 0x9DD JUMPI POP CALLER PUSH0 SWAP1 DUP2 MSTORE PUSH1 0x1 PUSH1 0x20 DUP2 SWAP1 MSTORE PUSH1 0x40 SWAP1 SWAP2 KECCAK256 SLOAD PUSH1 0xFF AND ISZERO ISZERO EQ JUMPDEST PUSH2 0xA25 JUMPI PUSH1 0x40 MLOAD PUSH3 0x461BCD PUSH1 0xE5 SHL DUP2 MSTORE PUSH1 0x20 PUSH1 0x4 DUP3 ADD MSTORE PUSH1 0x26 PUSH1 0x24 DUP3 ADD MSTORE PUSH0 DUP1 MLOAD PUSH1 0x20 PUSH2 0x33AF DUP4 CODECOPY DUP2 MLOAD SWAP2 MSTORE PUSH1 0x44 DUP3 ADD MSTORE PUSH6 0x18D85B98D95B PUSH1 0xD2 SHL PUSH1 0x64 DUP3 ADD MSTORE PUSH1 0x84 ADD PUSH2 0x938 JUMP JUMPDEST PUSH1 0x1 PUSH1 0x1 PUSH1 0xA0 SHL SUB DUP3 AND PUSH0 SWAP1 DUP2 MSTORE PUSH1 0x4 PUSH1 0x20 SWAP1 DUP2 MSTORE PUSH1 0x40 DUP1 DUP4 KECCAK256 DUP5 DUP5 MSTORE SWAP1 SWAP2 MSTORE DUP2 KECCAK256 PUSH1 0x3 ADD SLOAD SWAP1 SUB PUSH2 0xA69 JUMPI PUSH1 0x40 MLOAD PUSH3 0x461BCD PUSH1 0xE5 SHL DUP2 MSTORE PUSH1 0x4 ADD PUSH2 0x938 SWAP1 PUSH2 0x311F JUMP JUMPDEST PUSH1 0x1 PUSH1 0x1 PUSH1 0xA0 SHL SUB DUP3 AND PUSH0 SWAP1 DUP2 MSTORE PUSH1 0x4 PUSH1 0x20 SWAP1 DUP2 MSTORE PUSH1 0x40 DUP1 DUP4 KECCAK256 DUP5 DUP5 MSTORE SWAP1 SWAP2 MSTORE SWAP1 KECCAK256 PUSH1 0x6 ADD SLOAD PUSH1 0xFF AND ISZERO PUSH2 0xAAF JUMPI PUSH1 0x40 MLOAD PUSH3 0x461BCD PUSH1 0xE5 SHL DUP2 MSTORE PUSH1 0x4 ADD PUSH2 0x938 SWAP1 PUSH2 0x314E JUMP JUMPDEST PUSH1 0x1 PUSH1 0x1 PUSH1 0xA0 SHL SUB SWAP1 SWAP2 AND PUSH0 SWAP1 DUP2 MSTORE PUSH1 0x4 PUSH1 0x20 SWAP1 DUP2 MSTORE PUSH1 0x40 DUP1 DUP4 KECCAK256 SWAP4 DUP4 MSTORE SWAP3 SWAP1 MSTORE KECCAK256 PUSH1 0x6 ADD DUP1 SLOAD PUSH1 0xFF NOT AND PUSH1 0x1 OR SWAP1 SSTORE JUMP JUMPDEST PUSH0 SLOAD PUSH1 0x1 PUSH1 0x1 PUSH1 0xA0 SHL SUB AND CALLER EQ DUP1 PUSH2 0xB0D JUMPI POP CALLER PUSH0 SWAP1 DUP2 MSTORE PUSH1 0x1 PUSH1 0x20 DUP2 SWAP1 MSTORE PUSH1 0x40 SWAP1 SWAP2 KECCAK256 SLOAD PUSH1 0xFF AND ISZERO ISZERO EQ JUMPDEST PUSH2 0xB59 JUMPI PUSH1 0x40 MLOAD PUSH3 0x461BCD PUSH1 0xE5 SHL DUP2 MSTORE PUSH1 0x20 PUSH1 0x4 DUP3 ADD MSTORE PUSH1 0x2A PUSH1 0x24 DUP3 ADD MSTORE PUSH0 DUP1 MLOAD PUSH1 0x20 PUSH2 0x33AF DUP4 CODECOPY DUP2 MLOAD SWAP2 MSTORE PUSH1 0x44 DUP3 ADD MSTORE PUSH10 0x30B2322A32B0B1B432B9 PUSH1 0xB1 SHL PUSH1 0x64 DUP3 ADD MSTORE PUSH1 0x84 ADD PUSH2 0x938 JUMP JUMPDEST PUSH1 0x1 PUSH1 0x1 PUSH1 0xA0 SHL SUB DUP2 AND PUSH2 0xB7F JUMPI PUSH1 0x40 MLOAD PUSH3 0x461BCD PUSH1 0xE5 SHL DUP2 MSTORE PUSH1 0x4 ADD PUSH2 0x938 SWAP1 PUSH2 0x317E JUMP JUMPDEST PUSH1 0x1 PUSH1 0x1 PUSH1 0xA0 SHL SUB AND PUSH0 SWAP1 DUP2 MSTORE PUSH1 0x6 PUSH1 0x20 MSTORE PUSH1 0x40 SWAP1 KECCAK256 DUP1 SLOAD PUSH1 0xFF NOT AND PUSH1 0x1 OR SWAP1 SSTORE JUMP JUMPDEST CALLER PUSH0 SWAP1 DUP2 MSTORE PUSH1 0x5 PUSH1 0x20 MSTORE PUSH1 0x40 SWAP1 KECCAK256 SLOAD PUSH1 0x60 SWAP1 DUP1 PUSH8 0xFFFFFFFFFFFFFFFF DUP2 GT ISZERO PUSH2 0xBCD JUMPI PUSH2 0xBCD PUSH2 0x2D90 JUMP JUMPDEST PUSH1 0x40 MLOAD SWAP1 DUP1 DUP3 MSTORE DUP1 PUSH1 0x20 MUL PUSH1 0x20 ADD DUP3 ADD PUSH1 0x40 MSTORE DUP1 ISZERO PUSH2 0xC06 JUMPI DUP2 PUSH1 0x20 ADD JUMPDEST PUSH2 0xBF3 PUSH2 0x2A27 JUMP JUMPDEST DUP2 MSTORE PUSH1 0x20 ADD SWAP1 PUSH1 0x1 SWAP1 SUB SWAP1 DUP2 PUSH2 0xBEB JUMPI SWAP1 POP JUMPDEST POP SWAP2 POP PUSH0 JUMPDEST DUP2 DUP2 LT ISZERO PUSH2 0xE0E JUMPI CALLER PUSH0 SWAP1 DUP2 MSTORE PUSH1 0x5 PUSH1 0x20 MSTORE PUSH1 0x40 DUP2 KECCAK256 DUP1 SLOAD DUP4 SWAP1 DUP2 LT PUSH2 0xC33 JUMPI PUSH2 0xC33 PUSH2 0x306E JUMP JUMPDEST PUSH0 SWAP2 DUP3 MSTORE PUSH1 0x20 DUP1 DUP4 KECCAK256 SWAP1 SWAP2 ADD SLOAD CALLER DUP4 MSTORE PUSH1 0x4 DUP1 DUP4 MSTORE PUSH1 0x40 DUP1 DUP6 KECCAK256 DUP4 DUP7 MSTORE DUP5 MSTORE SWAP4 DUP5 SWAP1 KECCAK256 DUP5 MLOAD PUSH2 0x140 DUP2 ADD DUP7 MSTORE DUP2 SLOAD DUP2 MSTORE PUSH1 0x1 DUP3 ADD SLOAD SWAP5 DUP2 ADD SWAP5 SWAP1 SWAP5 MSTORE PUSH1 0x2 DUP2 ADD SLOAD SWAP5 DUP5 ADD SWAP5 SWAP1 SWAP5 MSTORE PUSH1 0x3 DUP5 ADD SLOAD PUSH1 0x60 DUP5 ADD MSTORE DUP4 ADD SLOAD PUSH1 0xFF SWAP1 DUP2 AND ISZERO ISZERO PUSH1 0x80 DUP5 ADD MSTORE PUSH1 0x5 DUP5 ADD SLOAD PUSH1 0xA0 DUP5 ADD MSTORE PUSH1 0x6 DUP5 ADD SLOAD AND ISZERO ISZERO PUSH1 0xC0 DUP4 ADD MSTORE PUSH1 0x7 DUP4 ADD DUP1 SLOAD SWAP2 SWAP5 POP SWAP2 SWAP3 SWAP2 PUSH1 0xE0 DUP5 ADD SWAP2 PUSH2 0xCC5 SWAP1 PUSH2 0x30AF JUMP JUMPDEST DUP1 PUSH1 0x1F ADD PUSH1 0x20 DUP1 SWAP2 DIV MUL PUSH1 0x20 ADD PUSH1 0x40 MLOAD SWAP1 DUP2 ADD PUSH1 0x40 MSTORE DUP1 SWAP3 SWAP2 SWAP1 DUP2 DUP2 MSTORE PUSH1 0x20 ADD DUP3 DUP1 SLOAD PUSH2 0xCF1 SWAP1 PUSH2 0x30AF JUMP JUMPDEST DUP1 ISZERO PUSH2 0xD3C JUMPI DUP1 PUSH1 0x1F LT PUSH2 0xD13 JUMPI PUSH2 0x100 DUP1 DUP4 SLOAD DIV MUL DUP4 MSTORE SWAP2 PUSH1 0x20 ADD SWAP2 PUSH2 0xD3C JUMP JUMPDEST DUP3 ADD SWAP2 SWAP1 PUSH0 MSTORE PUSH1 0x20 PUSH0 KECCAK256 SWAP1 JUMPDEST DUP2 SLOAD DUP2 MSTORE SWAP1 PUSH1 0x1 ADD SWAP1 PUSH1 0x20 ADD DUP1 DUP4 GT PUSH2 0xD1F JUMPI DUP3 SWAP1 SUB PUSH1 0x1F AND DUP3 ADD SWAP2 JUMPDEST POP POP POP SWAP2 DUP4 MSTORE POP POP PUSH1 0x8 DUP3 ADD SLOAD PUSH1 0xFF AND ISZERO ISZERO PUSH1 0x20 DUP3 ADD MSTORE PUSH1 0x9 DUP3 ADD DUP1 SLOAD PUSH1 0x40 SWAP1 SWAP3 ADD SWAP2 PUSH2 0xD68 SWAP1 PUSH2 0x30AF JUMP JUMPDEST DUP1 PUSH1 0x1F ADD PUSH1 0x20 DUP1 SWAP2 DIV MUL PUSH1 0x20 ADD PUSH1 0x40 MLOAD SWAP1 DUP2 ADD PUSH1 0x40 MSTORE DUP1 SWAP3 SWAP2 SWAP1 DUP2 DUP2 MSTORE PUSH1 0x20 ADD DUP3 DUP1 SLOAD PUSH2 0xD94 SWAP1 PUSH2 0x30AF JUMP JUMPDEST DUP1 ISZERO PUSH2 0xDDF JUMPI DUP1 PUSH1 0x1F LT PUSH2 0xDB6 JUMPI PUSH2 0x100 DUP1 DUP4 SLOAD DIV MUL DUP4 MSTORE SWAP2 PUSH1 0x20 ADD SWAP2 PUSH2 0xDDF JUMP JUMPDEST DUP3 ADD SWAP2 SWAP1 PUSH0 MSTORE PUSH1 0x20 PUSH0 KECCAK256 SWAP1 JUMPDEST DUP2 SLOAD DUP2 MSTORE SWAP1 PUSH1 0x1 ADD SWAP1 PUSH1 0x20 ADD DUP1 DUP4 GT PUSH2 0xDC2 JUMPI DUP3 SWAP1 SUB PUSH1 0x1F AND DUP3 ADD SWAP2 JUMPDEST POP POP POP POP POP DUP2 MSTORE POP POP DUP5 DUP4 DUP2 MLOAD DUP2 LT PUSH2 0xDFA JUMPI PUSH2 0xDFA PUSH2 0x306E JUMP JUMPDEST PUSH1 0x20 SWAP1 DUP2 MUL SWAP2 SWAP1 SWAP2 ADD ADD MSTORE POP PUSH1 0x1 ADD PUSH2 0xC0B JUMP JUMPDEST POP POP SWAP1 JUMP JUMPDEST CALLER PUSH0 SWAP1 DUP2 MSTORE PUSH1 0xA PUSH1 0x20 SWAP1 DUP2 MSTORE PUSH1 0x40 DUP1 DUP4 KECCAK256 PUSH1 0x1 PUSH1 0x1 PUSH1 0xA0 SHL SUB DUP8 AND DUP5 MSTORE SWAP1 SWAP2 MSTORE DUP2 KECCAK256 DUP4 SWAP1 SSTORE DUP1 JUMPDEST CALLER PUSH0 SWAP1 DUP2 MSTORE PUSH1 0x2 PUSH1 0x20 MSTORE PUSH1 0x40 SWAP1 KECCAK256 SLOAD DUP2 LT ISZERO PUSH2 0xED9 JUMPI CALLER PUSH0 SWAP1 DUP2 MSTORE PUSH1 0x2 PUSH1 0x20 MSTORE PUSH1 0x40 SWAP1 KECCAK256 DUP1 SLOAD DUP5 SWAP2 SWAP1 DUP4 SWAP1 DUP2 LT PUSH2 0xE73 JUMPI PUSH2 0xE73 PUSH2 0x306E JUMP JUMPDEST SWAP1 PUSH0 MSTORE PUSH1 0x20 PUSH0 KECCAK256 SWAP1 PUSH1 0x4 MUL ADD PUSH0 ADD SLOAD SUB PUSH2 0xED1 JUMPI CALLER PUSH0 SWAP1 DUP2 MSTORE PUSH1 0x2 PUSH1 0x20 MSTORE PUSH1 0x40 SWAP1 KECCAK256 DUP1 SLOAD PUSH1 0x1 SWAP2 SWAP1 DUP4 SWAP1 DUP2 LT PUSH2 0xEAB JUMPI PUSH2 0xEAB PUSH2 0x306E JUMP JUMPDEST PUSH0 SWAP2 DUP3 MSTORE PUSH1 0x20 SWAP1 SWAP2 KECCAK256 PUSH1 0x4 SWAP1 SWAP2 MUL ADD PUSH1 0x3 ADD DUP1 SLOAD PUSH1 0xFF NOT AND SWAP2 ISZERO ISZERO SWAP2 SWAP1 SWAP2 OR SWAP1 SSTORE PUSH2 0xED9 JUMP JUMPDEST PUSH1 0x1 ADD PUSH2 0xE3A JUMP JUMPDEST POP PUSH1 0x1 SWAP5 SWAP4 POP POP POP POP JUMP JUMPDEST CALLER PUSH0 SWAP1 DUP2 MSTORE PUSH1 0x2 PUSH1 0x20 SWAP1 DUP2 MSTORE PUSH1 0x40 DUP1 DUP4 KECCAK256 DUP1 SLOAD DUP3 MLOAD DUP2 DUP6 MUL DUP2 ADD DUP6 ADD SWAP1 SWAP4 MSTORE DUP1 DUP4 MSTORE PUSH1 0x60 SWAP5 SWAP3 SWAP4 SWAP2 SWAP3 SWAP1 SWAP2 DUP5 ADD JUMPDEST DUP3 DUP3 LT ISZERO PUSH2 0xF73 JUMPI PUSH0 DUP5 DUP2 MSTORE PUSH1 0x20 SWAP1 DUP2 SWAP1 KECCAK256 PUSH1 0x40 DUP1 MLOAD PUSH1 0x80 DUP2 ADD DUP3 MSTORE PUSH1 0x4 DUP7 MUL SWAP1 SWAP3 ADD DUP1 SLOAD DUP4 MSTORE PUSH1 0x1 DUP1 DUP3 ADD SLOAD PUSH1 0x1 PUSH1 0x1 PUSH1 0xA0 SHL SUB AND DUP5 DUP7 ADD MSTORE PUSH1 0x2 DUP3 ADD SLOAD SWAP3 DUP5 ADD SWAP3 SWAP1 SWAP3 MSTORE PUSH1 0x3 ADD SLOAD PUSH1 0xFF AND ISZERO ISZERO PUSH1 0x60 DUP4 ADD MSTORE SWAP1 DUP4 MSTORE SWAP1 SWAP3 ADD SWAP2 ADD PUSH2 0xF12 JUMP JUMPDEST POP POP POP POP SWAP1 POP SWAP1 JUMP JUMPDEST PUSH1 0xB PUSH1 0x20 MSTORE DUP2 PUSH0 MSTORE PUSH1 0x40 PUSH0 KECCAK256 DUP2 DUP2 SLOAD DUP2 LT PUSH2 0xF95 JUMPI PUSH0 DUP1 REVERT JUMPDEST PUSH0 SWAP2 DUP3 MSTORE PUSH1 0x20 SWAP1 SWAP2 KECCAK256 PUSH1 0x5 SWAP1 SWAP2 MUL ADD DUP1 SLOAD PUSH1 0x1 DUP3 ADD SLOAD PUSH1 0x2 DUP4 ADD DUP1 SLOAD PUSH1 0x1 PUSH1 0x1 PUSH1 0xA0 SHL SUB SWAP1 SWAP4 AND SWAP6 POP SWAP1 SWAP4 POP SWAP1 PUSH2 0xFCB SWAP1 PUSH2 0x30AF JUMP JUMPDEST DUP1 PUSH1 0x1F ADD PUSH1 0x20 DUP1 SWAP2 DIV MUL PUSH1 0x20 ADD PUSH1 0x40 MLOAD SWAP1 DUP2 ADD PUSH1 0x40 MSTORE DUP1 SWAP3 SWAP2 SWAP1 DUP2 DUP2 MSTORE PUSH1 0x20 ADD DUP3 DUP1 SLOAD PUSH2 0xFF7 SWAP1 PUSH2 0x30AF JUMP JUMPDEST DUP1 ISZERO PUSH2 0x1042 JUMPI DUP1 PUSH1 0x1F LT PUSH2 0x1019 JUMPI PUSH2 0x100 DUP1 DUP4 SLOAD DIV MUL DUP4 MSTORE SWAP2 PUSH1 0x20 ADD SWAP2 PUSH2 0x1042 JUMP JUMPDEST DUP3 ADD SWAP2 SWAP1 PUSH0 MSTORE PUSH1 0x20 PUSH0 KECCAK256 SWAP1 JUMPDEST DUP2 SLOAD DUP2 MSTORE SWAP1 PUSH1 0x1 ADD SWAP1 PUSH1 0x20 ADD DUP1 DUP4 GT PUSH2 0x1025 JUMPI DUP3 SWAP1 SUB PUSH1 0x1F AND DUP3 ADD SWAP2 JUMPDEST POP POP POP POP PUSH1 0x3 DUP4 ADD SLOAD PUSH1 0x4 SWAP1 SWAP4 ADD SLOAD SWAP2 SWAP3 PUSH1 0xFF DUP1 DUP3 AND SWAP4 PUSH2 0x100 SWAP1 SWAP3 DIV AND SWAP2 POP DUP7 JUMP JUMPDEST PUSH0 SLOAD PUSH1 0x1 PUSH1 0x1 PUSH1 0xA0 SHL SUB AND CALLER EQ DUP1 PUSH2 0x1091 JUMPI POP CALLER PUSH0 SWAP1 DUP2 MSTORE PUSH1 0x1 PUSH1 0x20 DUP2 SWAP1 MSTORE PUSH1 0x40 SWAP1 SWAP2 KECCAK256 SLOAD PUSH1 0xFF AND ISZERO ISZERO EQ JUMPDEST PUSH2 0x10E0 JUMPI PUSH1 0x40 MLOAD PUSH3 0x461BCD PUSH1 0xE5 SHL DUP2 MSTORE PUSH1 0x20 PUSH1 0x4 DUP3 ADD MSTORE PUSH1 0x2D PUSH1 0x24 DUP3 ADD MSTORE PUSH0 DUP1 MLOAD PUSH1 0x20 PUSH2 0x33AF DUP4 CODECOPY DUP2 MLOAD SWAP2 MSTORE PUSH1 0x44 DUP3 ADD MSTORE PUSH13 0x3932B6B7BB32AA32B0B1B432B9 PUSH1 0x99 SHL PUSH1 0x64 DUP3 ADD MSTORE PUSH1 0x84 ADD PUSH2 0x938 JUMP JUMPDEST PUSH1 0x1 PUSH1 0x1 PUSH1 0xA0 SHL SUB DUP2 AND PUSH2 0x1106 JUMPI PUSH1 0x40 MLOAD PUSH3 0x461BCD PUSH1 0xE5 SHL DUP2 MSTORE PUSH1 0x4 ADD PUSH2 0x938 SWAP1 PUSH2 0x317E JUMP JUMPDEST PUSH1 0x1 PUSH1 0x1 PUSH1 0xA0 SHL SUB DUP2 AND PUSH0 SWAP1 DUP2 MSTORE PUSH1 0x6 PUSH1 0x20 MSTORE PUSH1 0x40 SWAP1 KECCAK256 SLOAD PUSH1 0xFF AND ISZERO ISZERO PUSH1 0x1 EQ PUSH2 0x1172 JUMPI PUSH1 0x40 MLOAD PUSH3 0x461BCD PUSH1 0xE5 SHL DUP2 MSTORE PUSH1 0x20 PUSH1 0x4 DUP3 ADD MSTORE PUSH1 0x19 PUSH1 0x24 DUP3 ADD MSTORE PUSH32 0x6164647265737320617265206E6F742061207465616368657200000000000000 PUSH1 0x44 DUP3 ADD MSTORE PUSH1 0x64 ADD PUSH2 0x938 JUMP JUMPDEST PUSH1 0x1 PUSH1 0x1 PUSH1 0xA0 SHL SUB AND PUSH0 SWAP1 DUP2 MSTORE PUSH1 0x6 PUSH1 0x20 MSTORE PUSH1 0x40 SWAP1 KECCAK256 DUP1 SLOAD PUSH1 0xFF NOT AND SWAP1 SSTORE JUMP JUMPDEST PUSH0 SLOAD PUSH1 0x1 PUSH1 0x1 PUSH1 0xA0 SHL SUB AND CALLER EQ DUP1 PUSH2 0x11BE JUMPI POP CALLER PUSH0 SWAP1 DUP2 MSTORE PUSH1 0x1 PUSH1 0x20 DUP2 SWAP1 MSTORE PUSH1 0x40 SWAP1 SWAP2 KECCAK256 SLOAD PUSH1 0xFF AND ISZERO ISZERO EQ JUMPDEST DUP1 PUSH2 0x11DC JUMPI POP CALLER PUSH0 SWAP1 DUP2 MSTORE PUSH1 0x6 PUSH1 0x20 MSTORE PUSH1 0x40 SWAP1 KECCAK256 SLOAD PUSH1 0xFF AND ISZERO ISZERO PUSH1 0x1 EQ JUMPDEST PUSH2 0x1245 JUMPI PUSH1 0x40 MLOAD PUSH3 0x461BCD PUSH1 0xE5 SHL DUP2 MSTORE PUSH1 0x20 PUSH1 0x4 DUP3 ADD MSTORE PUSH1 0x34 PUSH1 0x24 DUP3 ADD MSTORE PUSH32 0x6F6E6C7920746F7061646D696E206F722061646D696E20746561636865722063 PUSH1 0x44 DUP3 ADD MSTORE PUSH20 0x185B8818D85B1B081C9958DBDC9910DC99591A5D PUSH1 0x62 SHL PUSH1 0x64 DUP3 ADD MSTORE PUSH1 0x84 ADD PUSH2 0x938 JUMP JUMPDEST PUSH1 0x1 PUSH1 0x1 PUSH1 0xA0 SHL SUB DUP5 AND PUSH2 0x126B JUMPI PUSH1 0x40 MLOAD PUSH3 0x461BCD PUSH1 0xE5 SHL DUP2 MSTORE PUSH1 0x4 ADD PUSH2 0x938 SWAP1 PUSH2 0x317E JUMP JUMPDEST PUSH0 DUP4 DUP2 MSTORE PUSH1 0x7 PUSH1 0x20 MSTORE PUSH1 0x40 SWAP1 KECCAK256 SLOAD PUSH1 0xFF AND ISZERO ISZERO PUSH1 0x1 EQ PUSH2 0x12BF JUMPI PUSH1 0x40 MLOAD PUSH3 0x461BCD PUSH1 0xE5 SHL DUP2 MSTORE PUSH1 0x20 PUSH1 0x4 DUP3 ADD MSTORE PUSH1 0xF PUSH1 0x24 DUP3 ADD MSTORE PUSH15 0x18DBDD5C9CD9481B9BDD08195E1A5D PUSH1 0x8A SHL PUSH1 0x44 DUP3 ADD MSTORE PUSH1 0x64 ADD PUSH2 0x938 JUMP JUMPDEST PUSH0 DUP4 DUP2 MSTORE PUSH1 0x3 PUSH1 0x20 MSTORE PUSH1 0x40 DUP2 KECCAK256 PUSH1 0x2 ADD SLOAD TIMESTAMP SWAP2 PUSH1 0x3C DUP6 LT PUSH2 0x12E7 JUMPI PUSH2 0x12E4 DUP3 DUP7 PUSH2 0x31A7 JUMP JUMPDEST SWAP1 POP JUMPDEST PUSH1 0x40 MLOAD DUP1 PUSH2 0x140 ADD PUSH1 0x40 MSTORE DUP1 DUP8 DUP2 MSTORE PUSH1 0x20 ADD DUP3 DUP2 MSTORE PUSH1 0x20 ADD DUP7 DUP2 MSTORE PUSH1 0x20 ADD DUP5 DUP2 MSTORE PUSH1 0x20 ADD PUSH0 ISZERO ISZERO DUP2 MSTORE PUSH1 0x20 ADD PUSH0 DUP2 MSTORE PUSH1 0x20 ADD PUSH0 ISZERO ISZERO DUP2 MSTORE PUSH1 0x20 ADD DUP6 DUP2 MSTORE PUSH1 0x20 ADD PUSH0 ISZERO ISZERO DUP2 MSTORE PUSH1 0x20 ADD PUSH1 0x40 MLOAD DUP1 PUSH1 0x20 ADD PUSH1 0x40 MSTORE DUP1 PUSH0 DUP2 MSTORE POP DUP2 MSTORE POP PUSH1 0x4 PUSH0 DUP10 PUSH1 0x1 PUSH1 0x1 PUSH1 0xA0 SHL SUB AND PUSH1 0x1 PUSH1 0x1 PUSH1 0xA0 SHL SUB AND DUP2 MSTORE PUSH1 0x20 ADD SWAP1 DUP2 MSTORE PUSH1 0x20 ADD PUSH0 KECCAK256 PUSH0 DUP9 DUP2 MSTORE PUSH1 0x20 ADD SWAP1 DUP2 MSTORE PUSH1 0x20 ADD PUSH0 KECCAK256 PUSH0 DUP3 ADD MLOAD DUP2 PUSH0 ADD SSTORE PUSH1 0x20 DUP3 ADD MLOAD DUP2 PUSH1 0x1 ADD SSTORE PUSH1 0x40 DUP3 ADD MLOAD DUP2 PUSH1 0x2 ADD SSTORE PUSH1 0x60 DUP3 ADD MLOAD DUP2 PUSH1 0x3 ADD SSTORE PUSH1 0x80 DUP3 ADD MLOAD DUP2 PUSH1 0x4 ADD PUSH0 PUSH2 0x100 EXP DUP2 SLOAD DUP2 PUSH1 0xFF MUL NOT AND SWAP1 DUP4 ISZERO ISZERO MUL OR SWAP1 SSTORE POP PUSH1 0xA0 DUP3 ADD MLOAD DUP2 PUSH1 0x5 ADD SSTORE PUSH1 0xC0 DUP3 ADD MLOAD DUP2 PUSH1 0x6 ADD PUSH0 PUSH2 0x100 EXP DUP2 SLOAD DUP2 PUSH1 0xFF MUL NOT AND SWAP1 DUP4 ISZERO ISZERO MUL OR SWAP1 SSTORE POP PUSH1 0xE0 DUP3 ADD MLOAD DUP2 PUSH1 0x7 ADD SWAP1 DUP2 PUSH2 0x13F6 SWAP2 SWAP1 PUSH2 0x320A JUMP JUMPDEST POP PUSH2 0x100 DUP3 ADD MLOAD PUSH1 0x8 DUP3 ADD DUP1 SLOAD PUSH1 0xFF NOT AND SWAP2 ISZERO ISZERO SWAP2 SWAP1 SWAP2 OR SWAP1 SSTORE PUSH2 0x120 DUP3 ADD MLOAD PUSH1 0x9 DUP3 ADD SWAP1 PUSH2 0x1425 SWAP1 DUP3 PUSH2 0x320A JUMP JUMPDEST POP POP POP PUSH1 0x1 PUSH1 0x1 PUSH1 0xA0 SHL SUB SWAP1 SWAP7 AND PUSH0 SWAP1 DUP2 MSTORE PUSH1 0x5 PUSH1 0x20 SWAP1 DUP2 MSTORE PUSH1 0x40 DUP3 KECCAK256 DUP1 SLOAD PUSH1 0x1 DUP2 ADD DUP3 SSTORE SWAP1 DUP4 MSTORE SWAP2 KECCAK256 ADD SWAP5 SWAP1 SWAP5 SSTORE POP POP POP POP POP JUMP JUMPDEST PUSH1 0x1 PUSH1 0x1 PUSH1 0xA0 SHL SUB DUP2 AND PUSH0 SWAP1 DUP2 MSTORE PUSH1 0xA PUSH1 0x20 SWAP1 DUP2 MSTORE PUSH1 0x40 DUP1 DUP4 KECCAK256 CALLER DUP5 MSTORE SWAP1 SWAP2 MSTORE SWAP1 KECCAK256 SLOAD PUSH2 0x14C2 JUMPI PUSH1 0x40 MLOAD PUSH3 0x461BCD PUSH1 0xE5 SHL DUP2 MSTORE PUSH1 0x20 PUSH1 0x4 DUP3 ADD MSTORE PUSH1 0x15 PUSH1 0x24 DUP3 ADD MSTORE PUSH21 0x1E5BDD48191BC81B9BDD08189948185B1B1BDDD959 PUSH1 0x5A SHL PUSH1 0x44 DUP3 ADD MSTORE PUSH1 0x64 ADD PUSH2 0x938 JUMP JUMPDEST PUSH1 0x1 PUSH1 0x1 PUSH1 0xA0 SHL SUB DUP2 AND PUSH0 SWAP1 DUP2 MSTORE PUSH1 0xA PUSH1 0x20 SWAP1 DUP2 MSTORE PUSH1 0x40 DUP1 DUP4 KECCAK256 CALLER DUP5 MSTORE SWAP1 SWAP2 MSTORE DUP2 KECCAK256 DUP1 SLOAD SWAP2 PUSH2 0x14F0 DUP4 PUSH2 0x32CA JUMP JUMPDEST SWAP1 SWAP2 SSTORE POP POP PUSH1 0x1 PUSH1 0x1 PUSH1 0xA0 SHL SUB DUP2 AND PUSH0 SWAP1 DUP2 MSTORE PUSH1 0x5 PUSH1 0x20 MSTORE PUSH1 0x40 DUP2 KECCAK256 SLOAD SWAP1 DUP2 PUSH8 0xFFFFFFFFFFFFFFFF DUP2 GT ISZERO PUSH2 0x1527 JUMPI PUSH2 0x1527 PUSH2 0x2D90 JUMP JUMPDEST PUSH1 0x40 MLOAD SWAP1 DUP1 DUP3 MSTORE DUP1 PUSH1 0x20 MUL PUSH1 0x20 ADD DUP3 ADD PUSH1 0x40 MSTORE DUP1 ISZERO PUSH2 0x1560 JUMPI DUP2 PUSH1 0x20 ADD JUMPDEST PUSH2 0x154D PUSH2 0x2A27 JUMP JUMPDEST DUP2 MSTORE PUSH1 0x20 ADD SWAP1 PUSH1 0x1 SWAP1 SUB SWAP1 DUP2 PUSH2 0x1545 JUMPI SWAP1 POP JUMPDEST POP SWAP1 POP PUSH0 JUMPDEST DUP3 DUP2 LT ISZERO PUSH2 0x18F0 JUMPI PUSH1 0x1 PUSH1 0x1 PUSH1 0xA0 SHL SUB DUP5 AND PUSH0 SWAP1 DUP2 MSTORE PUSH1 0x5 PUSH1 0x20 MSTORE PUSH1 0x40 DUP2 KECCAK256 DUP1 SLOAD DUP4 SWAP1 DUP2 LT PUSH2 0x1596 JUMPI PUSH2 0x1596 PUSH2 0x306E JUMP JUMPDEST PUSH0 SWAP2 DUP3 MSTORE PUSH1 0x20 DUP1 DUP4 KECCAK256 SWAP1 SWAP2 ADD SLOAD PUSH1 0x1 PUSH1 0x1 PUSH1 0xA0 SHL SUB DUP9 AND DUP4 MSTORE PUSH1 0x4 DUP1 DUP4 MSTORE PUSH1 0x40 DUP1 DUP6 KECCAK256 DUP4 DUP7 MSTORE DUP5 MSTORE SWAP4 DUP5 SWAP1 KECCAK256 DUP5 MLOAD PUSH2 0x140 DUP2 ADD DUP7 MSTORE DUP2 SLOAD DUP2 MSTORE PUSH1 0x1 DUP3 ADD SLOAD SWAP5 DUP2 ADD SWAP5 SWAP1 SWAP5 MSTORE PUSH1 0x2 DUP2 ADD SLOAD SWAP5 DUP5 ADD SWAP5 SWAP1 SWAP5 MSTORE PUSH1 0x3 DUP5 ADD SLOAD PUSH1 0x60 DUP5 ADD MSTORE DUP4 ADD SLOAD PUSH1 0xFF SWAP1 DUP2 AND ISZERO ISZERO PUSH1 0x80 DUP5 ADD MSTORE PUSH1 0x5 DUP5 ADD SLOAD PUSH1 0xA0 DUP5 ADD MSTORE PUSH1 0x6 DUP5 ADD SLOAD AND ISZERO ISZERO PUSH1 0xC0 DUP4 ADD MSTORE PUSH1 0x7 DUP4 ADD DUP1 SLOAD SWAP2 SWAP5 POP SWAP2 SWAP3 SWAP2 PUSH1 0xE0 DUP5 ADD SWAP2 PUSH2 0x1631 SWAP1 PUSH2 0x30AF JUMP JUMPDEST DUP1 PUSH1 0x1F ADD PUSH1 0x20 DUP1 SWAP2 DIV MUL PUSH1 0x20 ADD PUSH1 0x40 MLOAD SWAP1 DUP2 ADD PUSH1 0x40 MSTORE DUP1 SWAP3 SWAP2 SWAP1 DUP2 DUP2 MSTORE PUSH1 0x20 ADD DUP3 DUP1 SLOAD PUSH2 0x165D SWAP1 PUSH2 0x30AF JUMP JUMPDEST DUP1 ISZERO PUSH2 0x16A8 JUMPI DUP1 PUSH1 0x1F LT PUSH2 0x167F JUMPI PUSH2 0x100 DUP1 DUP4 SLOAD DIV MUL DUP4 MSTORE SWAP2 PUSH1 0x20 ADD SWAP2 PUSH2 0x16A8 JUMP JUMPDEST DUP3 ADD SWAP2 SWAP1 PUSH0 MSTORE PUSH1 0x20 PUSH0 KECCAK256 SWAP1 JUMPDEST DUP2 SLOAD DUP2 MSTORE SWAP1 PUSH1 0x1 ADD SWAP1 PUSH1 0x20 ADD DUP1 DUP4 GT PUSH2 0x168B JUMPI DUP3 SWAP1 SUB PUSH1 0x1F AND DUP3 ADD SWAP2 JUMPDEST POP POP POP SWAP2 DUP4 MSTORE POP POP PUSH1 0x8 DUP3 ADD SLOAD PUSH1 0xFF AND ISZERO ISZERO PUSH1 0x20 DUP3 ADD MSTORE PUSH1 0x9 DUP3 ADD DUP1 SLOAD PUSH1 0x40 SWAP1 SWAP3 ADD SWAP2 PUSH2 0x16D4 SWAP1 PUSH2 0x30AF JUMP JUMPDEST DUP1 PUSH1 0x1F ADD PUSH1 0x20 DUP1 SWAP2 DIV MUL PUSH1 0x20 ADD PUSH1 0x40 MLOAD SWAP1 DUP2 ADD PUSH1 0x40 MSTORE DUP1 SWAP3 SWAP2 SWAP1 DUP2 DUP2 MSTORE PUSH1 0x20 ADD DUP3 DUP1 SLOAD PUSH2 0x1700 SWAP1 PUSH2 0x30AF JUMP JUMPDEST DUP1 ISZERO PUSH2 0x174B JUMPI DUP1 PUSH1 0x1F LT PUSH2 0x1722 JUMPI PUSH2 0x100 DUP1 DUP4 SLOAD DIV MUL DUP4 MSTORE SWAP2 PUSH1 0x20 ADD SWAP2 PUSH2 0x174B JUMP JUMPDEST DUP3 ADD SWAP2 SWAP1 PUSH0 MSTORE PUSH1 0x20 PUSH0 KECCAK256 SWAP1 JUMPDEST DUP2 SLOAD DUP2 MSTORE SWAP1 PUSH1 0x1 ADD SWAP1 PUSH1 0x20 ADD DUP1 DUP4 GT PUSH2 0x172E JUMPI DUP3 SWAP1 SUB PUSH1 0x1F AND DUP3 ADD SWAP2 JUMPDEST POP POP POP POP POP DUP2 MSTORE POP POP DUP4 DUP4 DUP2 MLOAD DUP2 LT PUSH2 0x1766 JUMPI PUSH2 0x1766 PUSH2 0x306E JUMP JUMPDEST PUSH1 0x20 MUL PUSH1 0x20 ADD ADD DUP2 SWAP1 MSTORE POP DUP5 PUSH1 0x1 PUSH1 0x1 PUSH1 0xA0 SHL SUB AND PUSH32 0x9CBF22D1E26C3FCDE690DD334D1B5EEC6973003FD2816D81EF98B31A669CC0D8 DUP5 DUP5 DUP2 MLOAD DUP2 LT PUSH2 0x17AE JUMPI PUSH2 0x17AE PUSH2 0x306E JUMP JUMPDEST PUSH1 0x20 MUL PUSH1 0x20 ADD ADD MLOAD PUSH0 ADD MLOAD DUP6 DUP6 DUP2 MLOAD DUP2 LT PUSH2 0x17CB JUMPI PUSH2 0x17CB PUSH2 0x306E JUMP JUMPDEST PUSH1 0x20 MUL PUSH1 0x20 ADD ADD MLOAD PUSH1 0x20 ADD MLOAD DUP7 DUP7 DUP2 MLOAD DUP2 LT PUSH2 0x17E9 JUMPI PUSH2 0x17E9 PUSH2 0x306E JUMP JUMPDEST PUSH1 0x20 MUL PUSH1 0x20 ADD ADD MLOAD PUSH1 0x40 ADD MLOAD DUP8 DUP8 DUP2 MLOAD DUP2 LT PUSH2 0x1807 JUMPI PUSH2 0x1807 PUSH2 0x306E JUMP JUMPDEST PUSH1 0x20 MUL PUSH1 0x20 ADD ADD MLOAD PUSH1 0x60 ADD MLOAD DUP9 DUP9 DUP2 MLOAD DUP2 LT PUSH2 0x1825 JUMPI PUSH2 0x1825 PUSH2 0x306E JUMP JUMPDEST PUSH1 0x20 MUL PUSH1 0x20 ADD ADD MLOAD PUSH1 0x80 ADD MLOAD DUP10 DUP10 DUP2 MLOAD DUP2 LT PUSH2 0x1843 JUMPI PUSH2 0x1843 PUSH2 0x306E JUMP JUMPDEST PUSH1 0x20 MUL PUSH1 0x20 ADD ADD MLOAD PUSH1 0xA0 ADD MLOAD DUP11 DUP11 DUP2 MLOAD DUP2 LT PUSH2 0x1861 JUMPI PUSH2 0x1861 PUSH2 0x306E JUMP JUMPDEST PUSH1 0x20 MUL PUSH1 0x20 ADD ADD MLOAD PUSH1 0xC0 ADD MLOAD DUP12 DUP12 DUP2 MLOAD DUP2 LT PUSH2 0x187F JUMPI PUSH2 0x187F PUSH2 0x306E JUMP JUMPDEST PUSH1 0x20 MUL PUSH1 0x20 ADD ADD MLOAD PUSH1 0xE0 ADD MLOAD DUP13 DUP13 DUP2 MLOAD DUP2 LT PUSH2 0x189D JUMPI PUSH2 0x189D PUSH2 0x306E JUMP JUMPDEST PUSH1 0x20 MUL PUSH1 0x20 ADD ADD MLOAD PUSH2 0x100 ADD MLOAD DUP14 DUP14 DUP2 MLOAD DUP2 LT PUSH2 0x18BC JUMPI PUSH2 0x18BC PUSH2 0x306E JUMP JUMPDEST PUSH1 0x20 MUL PUSH1 0x20 ADD ADD MLOAD PUSH2 0x120 ADD MLOAD PUSH1 0x40 MLOAD PUSH2 0x18DF SWAP11 SWAP10 SWAP9 SWAP8 SWAP7 SWAP6 SWAP5 SWAP4 SWAP3 SWAP2 SWAP1 PUSH2 0x2FFE JUMP JUMPDEST PUSH1 0x40 MLOAD DUP1 SWAP2 SUB SWAP1 LOG2 POP PUSH1 0x1 ADD PUSH2 0x1565 JUMP JUMPDEST POP POP POP POP JUMP JUMPDEST PUSH1 0x60 PUSH1 0x9 DUP1 SLOAD DUP1 PUSH1 0x20 MUL PUSH1 0x20 ADD PUSH1 0x40 MLOAD SWAP1 DUP2 ADD PUSH1 0x40 MSTORE DUP1 SWAP3 SWAP2 SWAP1 DUP2 DUP2 MSTORE PUSH1 0x20 ADD DUP3 DUP1 SLOAD DUP1 ISZERO PUSH2 0x1942 JUMPI PUSH1 0x20 MUL DUP3 ADD SWAP2 SWAP1 PUSH0 MSTORE PUSH1 0x20 PUSH0 KECCAK256 SWAP1 JUMPDEST DUP2 SLOAD DUP2 MSTORE PUSH1 0x20 ADD SWAP1 PUSH1 0x1 ADD SWAP1 DUP1 DUP4 GT PUSH2 0x192E JUMPI JUMPDEST POP POP POP POP POP SWAP1 POP SWAP1 JUMP JUMPDEST PUSH0 SLOAD PUSH1 0x1 PUSH1 0x1 PUSH1 0xA0 SHL SUB AND CALLER EQ DUP1 PUSH2 0x1978 JUMPI POP CALLER PUSH0 SWAP1 DUP2 MSTORE PUSH1 0x1 PUSH1 0x20 DUP2 SWAP1 MSTORE PUSH1 0x40 SWAP1 SWAP2 KECCAK256 SLOAD PUSH1 0xFF AND ISZERO ISZERO EQ JUMPDEST PUSH2 0x19CF JUMPI PUSH1 0x40 MLOAD PUSH3 0x461BCD PUSH1 0xE5 SHL DUP2 MSTORE PUSH1 0x20 PUSH1 0x4 DUP3 ADD MSTORE PUSH1 0x35 PUSH1 0x24 DUP3 ADD MSTORE PUSH0 DUP1 MLOAD PUSH1 0x20 PUSH2 0x33AF DUP4 CODECOPY DUP2 MLOAD SWAP2 MSTORE PUSH1 0x44 DUP3 ADD MSTORE PUSH21 0x30B8383937BB32A1B932B234BA2A3930B739B332B9 PUSH1 0x59 SHL PUSH1 0x64 DUP3 ADD MSTORE PUSH1 0x84 ADD PUSH2 0x938 JUMP JUMPDEST PUSH1 0x1 PUSH1 0x1 PUSH1 0xA0 SHL SUB DUP3 AND PUSH0 SWAP1 DUP2 MSTORE PUSH1 0xB PUSH1 0x20 MSTORE PUSH1 0x40 SWAP1 KECCAK256 DUP1 SLOAD DUP3 SWAP1 DUP2 LT PUSH2 0x19F8 JUMPI PUSH2 0x19F8 PUSH2 0x306E JUMP JUMPDEST PUSH0 SWAP2 DUP3 MSTORE PUSH1 0x20 SWAP1 SWAP2 KECCAK256 PUSH1 0x3 PUSH1 0x5 SWAP1 SWAP3 MUL ADD ADD SLOAD PUSH1 0xFF AND ISZERO PUSH2 0x1A5B JUMPI PUSH1 0x40 MLOAD PUSH3 0x461BCD PUSH1 0xE5 SHL DUP2 MSTORE PUSH1 0x20 PUSH1 0x4 DUP3 ADD MSTORE PUSH1 0x19 PUSH1 0x24 DUP3 ADD MSTORE PUSH32 0x5472616E7366657220616C726561647920617070726F76656400000000000000 PUSH1 0x44 DUP3 ADD MSTORE PUSH1 0x64 ADD PUSH2 0x938 JUMP JUMPDEST PUSH1 0x1 PUSH1 0x1 PUSH1 0xA0 SHL SUB DUP3 AND PUSH0 SWAP1 DUP2 MSTORE PUSH1 0xB PUSH1 0x20 MSTORE PUSH1 0x40 SWAP1 KECCAK256 DUP1 SLOAD PUSH1 0x1 SWAP2 SWAP1 DUP4 SWAP1 DUP2 LT PUSH2 0x1A88 JUMPI PUSH2 0x1A88 PUSH2 0x306E JUMP JUMPDEST PUSH0 SWAP2 DUP3 MSTORE PUSH1 0x20 SWAP1 SWAP2 KECCAK256 PUSH1 0x5 SWAP1 SWAP2 MUL ADD PUSH1 0x3 ADD DUP1 SLOAD PUSH1 0xFF NOT AND SWAP2 ISZERO ISZERO SWAP2 SWAP1 SWAP2 OR SWAP1 SSTORE POP POP JUMP JUMPDEST PUSH0 SLOAD PUSH1 0x1 PUSH1 0x1 PUSH1 0xA0 SHL SUB AND CALLER EQ PUSH2 0x1AD6 JUMPI PUSH1 0x40 MLOAD PUSH3 0x461BCD PUSH1 0xE5 SHL DUP2 MSTORE PUSH1 0x4 ADD PUSH2 0x938 SWAP1 PUSH2 0x30FF JUMP JUMPDEST PUSH1 0x1 PUSH1 0x1 PUSH1 0xA0 SHL SUB DUP2 AND PUSH0 DUP2 DUP2 MSTORE PUSH1 0x1 PUSH1 0x20 DUP2 SWAP1 MSTORE PUSH1 0x40 DUP1 DUP4 KECCAK256 DUP1 SLOAD PUSH1 0xFF NOT AND SWAP1 SWAP3 OR SWAP1 SWAP2 SSTORE MLOAD PUSH32 0x44D6D25963F097AD14F29F06854A01F575648A1EF82F30E562CCD3889717E339 SWAP2 SWAP1 LOG2 POP JUMP JUMPDEST PUSH0 SLOAD PUSH1 0x1 PUSH1 0x1 PUSH1 0xA0 SHL SUB AND CALLER EQ PUSH2 0x1B4D JUMPI PUSH1 0x40 MLOAD PUSH3 0x461BCD PUSH1 0xE5 SHL DUP2 MSTORE PUSH1 0x4 ADD PUSH2 0x938 SWAP1 PUSH2 0x30FF JUMP JUMPDEST PUSH0 DUP1 SLOAD PUSH1 0x40 MLOAD PUSH1 0x1 PUSH1 0x1 PUSH1 0xA0 SHL SUB SWAP1 SWAP2 AND SWAP1 PUSH32 0x8BE0079C531659141344CD1FD0A4F28419497F9722A3DAAFE3B4186F6B6457E0 SWAP1 DUP4 SWAP1 LOG3 PUSH0 DUP1 SLOAD PUSH1 0x1 PUSH1 0x1 PUSH1 0xA0 SHL SUB NOT AND SWAP1 SSTORE JUMP JUMPDEST CALLER PUSH0 SWAP1 DUP2 MSTORE PUSH1 0x4 PUSH1 0x20 SWAP1 DUP2 MSTORE PUSH1 0x40 DUP1 DUP4 KECCAK256 DUP6 DUP5 MSTORE SWAP1 SWAP2 MSTORE DUP2 KECCAK256 PUSH1 0x3 ADD SLOAD SWAP1 SUB PUSH2 0x1BD0 JUMPI PUSH1 0x40 MLOAD PUSH3 0x461BCD PUSH1 0xE5 SHL DUP2 MSTORE PUSH1 0x4 ADD PUSH2 0x938 SWAP1 PUSH2 0x311F JUMP JUMPDEST CALLER PUSH0 SWAP1 DUP2 MSTORE PUSH1 0x4 PUSH1 0x20 SWAP1 DUP2 MSTORE PUSH1 0x40 DUP1 DUP4 KECCAK256 DUP6 DUP5 MSTORE SWAP1 SWAP2 MSTORE SWAP1 KECCAK256 PUSH1 0x6 ADD SLOAD PUSH1 0xFF AND ISZERO PUSH2 0x1C0D JUMPI PUSH1 0x40 MLOAD PUSH3 0x461BCD PUSH1 0xE5 SHL DUP2 MSTORE PUSH1 0x4 ADD PUSH2 0x938 SWAP1 PUSH2 0x314E JUMP JUMPDEST CALLER PUSH0 DUP2 DUP2 MSTORE PUSH1 0xB PUSH1 0x20 SWAP1 DUP2 MSTORE PUSH1 0x40 DUP1 DUP4 KECCAK256 DUP1 SLOAD DUP3 MLOAD PUSH1 0xC0 DUP2 ADD DUP5 MSTORE SWAP6 DUP7 MSTORE DUP6 DUP5 ADD DUP9 DUP2 MSTORE SWAP3 DUP7 ADD DUP8 DUP2 MSTORE PUSH1 0x60 DUP8 ADD DUP7 SWAP1 MSTORE PUSH1 0x80 DUP8 ADD DUP7 SWAP1 MSTORE PUSH1 0xA0 DUP8 ADD DUP3 SWAP1 MSTORE PUSH1 0x1 DUP1 DUP4 ADD DUP5 SSTORE SWAP3 DUP7 MSTORE SWAP4 SWAP1 SWAP5 KECCAK256 DUP6 MLOAD PUSH1 0x5 DUP7 MUL SWAP1 SWAP2 ADD DUP1 SLOAD PUSH1 0x1 PUSH1 0x1 PUSH1 0xA0 SHL SUB NOT AND PUSH1 0x1 PUSH1 0x1 PUSH1 0xA0 SHL SUB SWAP1 SWAP3 AND SWAP2 SWAP1 SWAP2 OR DUP2 SSTORE SWAP2 MLOAD SWAP1 DUP3 ADD SSTORE SWAP1 MLOAD SWAP2 SWAP3 SWAP2 PUSH1 0x2 DUP3 ADD SWAP1 PUSH2 0x1C9A SWAP1 DUP3 PUSH2 0x320A JUMP JUMPDEST POP PUSH1 0x60 DUP3 ADD MLOAD PUSH1 0x3 DUP3 ADD DUP1 SLOAD PUSH1 0x80 DUP6 ADD MLOAD ISZERO ISZERO PUSH2 0x100 MUL PUSH2 0xFF00 NOT SWAP4 ISZERO ISZERO SWAP4 SWAP1 SWAP4 AND PUSH2 0xFFFF NOT SWAP1 SWAP2 AND OR SWAP2 SWAP1 SWAP2 OR SWAP1 SSTORE PUSH1 0xA0 SWAP1 SWAP2 ADD MLOAD PUSH1 0x4 SWAP1 SWAP2 ADD SSTORE PUSH0 DUP1 JUMPDEST PUSH1 0xC SLOAD DUP2 LT ISZERO PUSH2 0x1D2A JUMPI CALLER PUSH1 0x1 PUSH1 0x1 PUSH1 0xA0 SHL SUB AND PUSH1 0xC DUP3 DUP2 SLOAD DUP2 LT PUSH2 0x1D00 JUMPI PUSH2 0x1D00 PUSH2 0x306E JUMP JUMPDEST PUSH0 SWAP2 DUP3 MSTORE PUSH1 0x20 SWAP1 SWAP2 KECCAK256 ADD SLOAD PUSH1 0x1 PUSH1 0x1 PUSH1 0xA0 SHL SUB AND SUB PUSH2 0x1D22 JUMPI PUSH1 0x1 SWAP2 POP PUSH2 0x1D2A JUMP JUMPDEST PUSH1 0x1 ADD PUSH2 0x1CD9 JUMP JUMPDEST POP DUP1 PUSH2 0x18F0 JUMPI PUSH1 0xC DUP1 SLOAD PUSH1 0x1 DUP2 ADD DUP3 SSTORE PUSH0 SWAP2 SWAP1 SWAP2 MSTORE PUSH32 0xDF6966C971051C3D54EC59162606531493A51404A002842F56009D7E5CF4A8C7 ADD DUP1 SLOAD PUSH1 0x1 PUSH1 0x1 PUSH1 0xA0 SHL SUB NOT AND CALLER OR SWAP1 SSTORE POP POP POP POP JUMP JUMPDEST PUSH2 0x1D9F PUSH1 0x40 MLOAD DUP1 PUSH1 0x80 ADD PUSH1 0x40 MSTORE DUP1 PUSH0 DUP2 MSTORE PUSH1 0x20 ADD PUSH1 0x60 DUP2 MSTORE PUSH1 0x20 ADD PUSH0 DUP2 MSTORE PUSH1 0x20 ADD PUSH0 DUP2 MSTORE POP SWAP1 JUMP JUMPDEST PUSH0 DUP3 DUP2 MSTORE PUSH1 0x7 PUSH1 0x20 MSTORE PUSH1 0x40 SWAP1 KECCAK256 DUP1 SLOAD PUSH1 0xFF NOT AND PUSH1 0x1 OR SWAP1 SSTORE PUSH1 0x3 PUSH0 DUP4 DUP2 MSTORE PUSH1 0x20 ADD SWAP1 DUP2 MSTORE PUSH1 0x20 ADD PUSH0 KECCAK256 PUSH1 0x40 MLOAD DUP1 PUSH1 0x80 ADD PUSH1 0x40 MSTORE SWAP1 DUP2 PUSH0 DUP3 ADD SLOAD DUP2 MSTORE PUSH1 0x20 ADD PUSH1 0x1 DUP3 ADD DUP1 SLOAD PUSH2 0x1DEC SWAP1 PUSH2 0x30AF JUMP JUMPDEST DUP1 PUSH1 0x1F ADD PUSH1 0x20 DUP1 SWAP2 DIV MUL PUSH1 0x20 ADD PUSH1 0x40 MLOAD SWAP1 DUP2 ADD PUSH1 0x40 MSTORE DUP1 SWAP3 SWAP2 SWAP1 DUP2 DUP2 MSTORE PUSH1 0x20 ADD DUP3 DUP1 SLOAD PUSH2 0x1E18 SWAP1 PUSH2 0x30AF JUMP JUMPDEST DUP1 ISZERO PUSH2 0x1E63 JUMPI DUP1 PUSH1 0x1F LT PUSH2 0x1E3A JUMPI PUSH2 0x100 DUP1 DUP4 SLOAD DIV MUL DUP4 MSTORE SWAP2 PUSH1 0x20 ADD SWAP2 PUSH2 0x1E63 JUMP JUMPDEST DUP3 ADD SWAP2 SWAP1 PUSH0 MSTORE PUSH1 0x20 PUSH0 KECCAK256 SWAP1 JUMPDEST DUP2 SLOAD DUP2 MSTORE SWAP1 PUSH1 0x1 ADD SWAP1 PUSH1 0x20 ADD DUP1 DUP4 GT PUSH2 0x1E46 JUMPI DUP3 SWAP1 SUB PUSH1 0x1F AND DUP3 ADD SWAP2 JUMPDEST POP POP POP POP POP DUP2 MSTORE PUSH1 0x20 ADD PUSH1 0x2 DUP3 ADD SLOAD DUP2 MSTORE PUSH1 0x20 ADD PUSH1 0x3 DUP3 ADD SLOAD DUP2 MSTORE POP POP SWAP1 POP SWAP2 SWAP1 POP JUMP JUMPDEST PUSH1 0x1 PUSH1 0x1 PUSH1 0xA0 SHL SUB DUP3 DUP2 AND PUSH0 SWAP1 DUP2 MSTORE PUSH1 0x2 PUSH1 0x20 DUP2 DUP2 MSTORE PUSH1 0x40 DUP1 DUP5 KECCAK256 DUP2 MLOAD PUSH1 0x80 DUP2 ADD DUP4 MSTORE PUSH1 0xD DUP1 SLOAD DUP3 MSTORE CALLER DUP3 DUP7 ADD SWAP1 DUP2 MSTORE SWAP4 DUP3 ADD DUP10 DUP2 MSTORE PUSH1 0x60 DUP4 ADD DUP9 DUP2 MSTORE DUP5 SLOAD PUSH1 0x1 DUP1 DUP3 ADD DUP8 SSTORE SWAP6 DUP11 MSTORE SWAP7 DUP10 KECCAK256 SWAP4 MLOAD PUSH1 0x4 SWAP1 SWAP8 MUL SWAP1 SWAP4 ADD SWAP6 DUP7 SSTORE SWAP4 MLOAD SWAP3 DUP6 ADD DUP1 SLOAD PUSH1 0x1 PUSH1 0x1 PUSH1 0xA0 SHL SUB NOT AND SWAP4 SWAP1 SWAP9 AND SWAP3 SWAP1 SWAP3 OR SWAP1 SWAP7 SSTORE SWAP1 MLOAD SWAP3 DUP3 ADD SWAP3 SWAP1 SWAP3 SSTORE SWAP3 MLOAD PUSH1 0x3 SWAP1 SWAP4 ADD DUP1 SLOAD PUSH1 0xFF NOT AND SWAP4 ISZERO ISZERO SWAP4 SWAP1 SWAP4 OR SWAP1 SWAP3 SSTORE DUP2 SLOAD SWAP2 SWAP1 PUSH2 0x1F29 DUP4 PUSH2 0x30E7 JUMP JUMPDEST SWAP2 SWAP1 POP SSTORE POP POP POP JUMP JUMPDEST PUSH1 0x60 PUSH1 0x1 PUSH1 0x1 PUSH1 0xA0 SHL SUB DUP3 AND PUSH2 0x1F8A JUMPI PUSH1 0x40 MLOAD PUSH3 0x461BCD PUSH1 0xE5 SHL DUP2 MSTORE PUSH1 0x20 PUSH1 0x4 DUP3 ADD MSTORE PUSH1 0x17 PUSH1 0x24 DUP3 ADD MSTORE PUSH32 0x496E76616C69642073747564656E742061646472657373000000000000000000 PUSH1 0x44 DUP3 ADD MSTORE PUSH1 0x64 ADD PUSH2 0x938 JUMP JUMPDEST PUSH1 0x1 PUSH1 0x1 PUSH1 0xA0 SHL SUB DUP3 AND PUSH0 SWAP1 DUP2 MSTORE PUSH1 0xB PUSH1 0x20 SWAP1 DUP2 MSTORE PUSH1 0x40 DUP1 DUP4 KECCAK256 DUP1 SLOAD DUP3 MLOAD DUP2 DUP6 MUL DUP2 ADD DUP6 ADD SWAP1 SWAP4 MSTORE DUP1 DUP4 MSTORE SWAP2 SWAP4 SWAP1 SWAP3 DUP5 ADD JUMPDEST DUP3 DUP3 LT ISZERO PUSH2 0x20CC JUMPI PUSH0 DUP5 DUP2 MSTORE PUSH1 0x20 SWAP1 DUP2 SWAP1 KECCAK256 PUSH1 0x40 DUP1 MLOAD PUSH1 0xC0 DUP2 ADD DUP3 MSTORE PUSH1 0x5 DUP7 MUL SWAP1 SWAP3 ADD DUP1 SLOAD PUSH1 0x1 PUSH1 0x1 PUSH1 0xA0 SHL SUB AND DUP4 MSTORE PUSH1 0x1 DUP2 ADD SLOAD SWAP4 DUP4 ADD SWAP4 SWAP1 SWAP4 MSTORE PUSH1 0x2 DUP4 ADD DUP1 SLOAD SWAP3 SWAP4 SWAP3 SWAP2 DUP5 ADD SWAP2 PUSH2 0x200E SWAP1 PUSH2 0x30AF JUMP JUMPDEST DUP1 PUSH1 0x1F ADD PUSH1 0x20 DUP1 SWAP2 DIV MUL PUSH1 0x20 ADD PUSH1 0x40 MLOAD SWAP1 DUP2 ADD PUSH1 0x40 MSTORE DUP1 SWAP3 SWAP2 SWAP1 DUP2 DUP2 MSTORE PUSH1 0x20 ADD DUP3 DUP1 SLOAD PUSH2 0x203A SWAP1 PUSH2 0x30AF JUMP JUMPDEST DUP1 ISZERO PUSH2 0x2085 JUMPI DUP1 PUSH1 0x1F LT PUSH2 0x205C JUMPI PUSH2 0x100 DUP1 DUP4 SLOAD DIV MUL DUP4 MSTORE SWAP2 PUSH1 0x20 ADD SWAP2 PUSH2 0x2085 JUMP JUMPDEST DUP3 ADD SWAP2 SWAP1 PUSH0 MSTORE PUSH1 0x20 PUSH0 KECCAK256 SWAP1 JUMPDEST DUP2 SLOAD DUP2 MSTORE SWAP1 PUSH1 0x1 ADD SWAP1 PUSH1 0x20 ADD DUP1 DUP4 GT PUSH2 0x2068 JUMPI DUP3 SWAP1 SUB PUSH1 0x1F AND DUP3 ADD SWAP2 JUMPDEST POP POP POP SWAP2 DUP4 MSTORE POP POP PUSH1 0x3 DUP3 ADD SLOAD PUSH1 0xFF DUP1 DUP3 AND ISZERO ISZERO PUSH1 0x20 DUP1 DUP6 ADD SWAP2 SWAP1 SWAP2 MSTORE PUSH2 0x100 SWAP1 SWAP3 DIV AND ISZERO ISZERO PUSH1 0x40 DUP4 ADD MSTORE PUSH1 0x4 SWAP1 SWAP3 ADD SLOAD PUSH1 0x60 SWAP1 SWAP2 ADD MSTORE SWAP1 DUP3 MSTORE PUSH1 0x1 SWAP3 SWAP1 SWAP3 ADD SWAP2 ADD PUSH2 0x1FBC JUMP JUMPDEST POP POP POP POP SWAP1 POP SWAP2 SWAP1 POP JUMP JUMPDEST PUSH1 0x3 PUSH1 0x20 MSTORE PUSH0 SWAP1 DUP2 MSTORE PUSH1 0x40 SWAP1 KECCAK256 DUP1 SLOAD PUSH1 0x1 DUP3 ADD DUP1 SLOAD SWAP2 SWAP3 SWAP2 PUSH2 0x20F8 SWAP1 PUSH2 0x30AF JUMP JUMPDEST DUP1 PUSH1 0x1F ADD PUSH1 0x20 DUP1 SWAP2 DIV MUL PUSH1 0x20 ADD PUSH1 0x40 MLOAD SWAP1 DUP2 ADD PUSH1 0x40 MSTORE DUP1 SWAP3 SWAP2 SWAP1 DUP2 DUP2 MSTORE PUSH1 0x20 ADD DUP3 DUP1 SLOAD PUSH2 0x2124 SWAP1 PUSH2 0x30AF JUMP JUMPDEST DUP1 ISZERO PUSH2 0x216F JUMPI DUP1 PUSH1 0x1F LT PUSH2 0x2146 JUMPI PUSH2 0x100 DUP1 DUP4 SLOAD DIV MUL DUP4 MSTORE SWAP2 PUSH1 0x20 ADD SWAP2 PUSH2 0x216F JUMP JUMPDEST DUP3 ADD SWAP2 SWAP1 PUSH0 MSTORE PUSH1 0x20 PUSH0 KECCAK256 SWAP1 JUMPDEST DUP2 SLOAD DUP2 MSTORE SWAP1 PUSH1 0x1 ADD SWAP1 PUSH1 0x20 ADD DUP1 DUP4 GT PUSH2 0x2152 JUMPI DUP3 SWAP1 SUB PUSH1 0x1F AND DUP3 ADD SWAP2 JUMPDEST POP POP POP POP POP SWAP1 DUP1 PUSH1 0x2 ADD SLOAD SWAP1 DUP1 PUSH1 0x3 ADD SLOAD SWAP1 POP DUP5 JUMP JUMPDEST CALLER PUSH0 SWAP1 DUP2 MSTORE PUSH1 0x6 PUSH1 0x20 MSTORE PUSH1 0x40 SWAP1 KECCAK256 SLOAD PUSH1 0xFF AND PUSH2 0x21D3 JUMPI PUSH1 0x40 MLOAD PUSH3 0x461BCD PUSH1 0xE5 SHL DUP2 MSTORE PUSH1 0x20 PUSH1 0x4 DUP3 ADD MSTORE PUSH1 0xD PUSH1 0x24 DUP3 ADD MSTORE PUSH13 0x2737BA1030903A32B0B1B432B9 PUSH1 0x99 SHL PUSH1 0x44 DUP3 ADD MSTORE PUSH1 0x64 ADD PUSH2 0x938 JUMP JUMPDEST PUSH1 0x1 PUSH1 0x1 PUSH1 0xA0 SHL SUB DUP4 AND PUSH0 SWAP1 DUP2 MSTORE PUSH1 0x4 PUSH1 0x20 SWAP1 DUP2 MSTORE PUSH1 0x40 DUP1 DUP4 KECCAK256 DUP6 DUP5 MSTORE SWAP1 SWAP2 MSTORE DUP2 KECCAK256 PUSH1 0x3 ADD SLOAD SWAP1 SUB PUSH2 0x2217 JUMPI PUSH1 0x40 MLOAD PUSH3 0x461BCD PUSH1 0xE5 SHL DUP2 MSTORE PUSH1 0x4 ADD PUSH2 0x938 SWAP1 PUSH2 0x311F JUMP JUMPDEST PUSH1 0x1 PUSH1 0x1 PUSH1 0xA0 SHL SUB DUP4 AND PUSH2 0x223D JUMPI PUSH1 0x40 MLOAD PUSH3 0x461BCD PUSH1 0xE5 SHL DUP2 MSTORE PUSH1 0x4 ADD PUSH2 0x938 SWAP1 PUSH2 0x317E JUMP JUMPDEST PUSH1 0x1 PUSH1 0x1 PUSH1 0xA0 SHL SUB DUP4 AND PUSH0 SWAP1 DUP2 MSTORE PUSH1 0x4 PUSH1 0x20 SWAP1 DUP2 MSTORE PUSH1 0x40 DUP1 DUP4 KECCAK256 DUP6 DUP5 MSTORE SWAP1 SWAP2 MSTORE SWAP1 KECCAK256 PUSH1 0x6 ADD SLOAD PUSH1 0xFF AND ISZERO PUSH2 0x2283 JUMPI PUSH1 0x40 MLOAD PUSH3 0x461BCD PUSH1 0xE5 SHL DUP2 MSTORE PUSH1 0x4 ADD PUSH2 0x938 SWAP1 PUSH2 0x314E JUMP JUMPDEST PUSH1 0x1 PUSH1 0x1 PUSH1 0xA0 SHL SUB DUP4 AND PUSH0 SWAP1 DUP2 MSTORE PUSH1 0x4 PUSH1 0x20 SWAP1 DUP2 MSTORE PUSH1 0x40 DUP1 DUP4 KECCAK256 DUP6 DUP5 MSTORE SWAP1 SWAP2 MSTORE DUP2 KECCAK256 PUSH1 0x5 ADD SLOAD PUSH2 0x22B4 SWAP1 PUSH1 0x1 PUSH2 0x3096 JUMP JUMPDEST PUSH0 DUP5 DUP2 MSTORE PUSH1 0x3 PUSH1 0x20 MSTORE PUSH1 0x40 DUP2 KECCAK256 PUSH1 0x2 ADD SLOAD SWAP2 SWAP3 POP SWAP1 PUSH2 0x22D3 SWAP1 DUP5 PUSH2 0x31A7 JUMP JUMPDEST PUSH1 0x1 PUSH1 0x1 PUSH1 0xA0 SHL SUB SWAP6 SWAP1 SWAP6 AND PUSH0 SWAP1 DUP2 MSTORE PUSH1 0x4 PUSH1 0x20 DUP2 DUP2 MSTORE PUSH1 0x40 DUP1 DUP5 KECCAK256 SWAP8 DUP5 MSTORE SWAP7 SWAP1 MSTORE SWAP5 SWAP1 KECCAK256 PUSH1 0x1 DUP1 DUP3 ADD SWAP7 SWAP1 SWAP7 SSTORE PUSH1 0x5 DUP2 ADD SWAP3 SWAP1 SWAP3 SSTORE POP PUSH1 0x2 DUP2 ADD SWAP2 SWAP1 SWAP2 SSTORE ADD DUP1 SLOAD PUSH1 0xFF NOT AND SWAP1 SWAP2 OR SWAP1 SSTORE JUMP JUMPDEST PUSH1 0x2 PUSH1 0x20 MSTORE DUP2 PUSH0 MSTORE PUSH1 0x40 PUSH0 KECCAK256 DUP2 DUP2 SLOAD DUP2 LT PUSH2 0x2339 JUMPI PUSH0 DUP1 REVERT JUMPDEST PUSH0 SWAP2 DUP3 MSTORE PUSH1 0x20 SWAP1 SWAP2 KECCAK256 PUSH1 0x4 SWAP1 SWAP2 MUL ADD DUP1 SLOAD PUSH1 0x1 DUP3 ADD SLOAD PUSH1 0x2 DUP4 ADD SLOAD PUSH1 0x3 SWAP1 SWAP4 ADD SLOAD SWAP2 SWAP5 POP PUSH1 0x1 PUSH1 0x1 PUSH1 0xA0 SHL SUB AND SWAP3 POP PUSH1 0xFF AND DUP5 JUMP JUMPDEST PUSH0 SLOAD PUSH1 0x1 PUSH1 0x1 PUSH1 0xA0 SHL SUB AND CALLER EQ DUP1 PUSH2 0x239A JUMPI POP CALLER PUSH0 SWAP1 DUP2 MSTORE PUSH1 0x1 PUSH1 0x20 DUP2 SWAP1 MSTORE PUSH1 0x40 SWAP1 SWAP2 KECCAK256 SLOAD PUSH1 0xFF AND ISZERO ISZERO EQ JUMPDEST PUSH2 0x23E3 JUMPI PUSH1 0x40 MLOAD PUSH3 0x461BCD PUSH1 0xE5 SHL DUP2 MSTORE PUSH1 0x20 PUSH1 0x4 DUP3 ADD MSTORE PUSH1 0x27 PUSH1 0x24 DUP3 ADD MSTORE PUSH0 DUP1 MLOAD PUSH1 0x20 PUSH2 0x33AF DUP4 CODECOPY DUP2 MLOAD SWAP2 MSTORE PUSH1 0x44 DUP3 ADD MSTORE PUSH7 0x65786563757465 PUSH1 0xC8 SHL PUSH1 0x64 DUP3 ADD MSTORE PUSH1 0x84 ADD PUSH2 0x938 JUMP JUMPDEST PUSH1 0x1 PUSH1 0x1 PUSH1 0xA0 SHL SUB DUP3 AND PUSH0 SWAP1 DUP2 MSTORE PUSH1 0xB PUSH1 0x20 MSTORE PUSH1 0x40 SWAP1 KECCAK256 DUP1 SLOAD DUP3 SWAP1 DUP2 LT PUSH2 0x240C JUMPI PUSH2 0x240C PUSH2 0x306E JUMP JUMPDEST PUSH0 SWAP2 DUP3 MSTORE PUSH1 0x20 SWAP1 SWAP2 KECCAK256 PUSH1 0x3 PUSH1 0x5 SWAP1 SWAP3 MUL ADD ADD SLOAD PUSH1 0xFF AND PUSH2 0x2466 JUMPI PUSH1 0x40 MLOAD PUSH3 0x461BCD PUSH1 0xE5 SHL DUP2 MSTORE PUSH1 0x20 PUSH1 0x4 DUP3 ADD MSTORE PUSH1 0x15 PUSH1 0x24 DUP3 ADD MSTORE PUSH21 0x151C985B9CD9995C881B9BDD08185C1C1C9BDD9959 PUSH1 0x5A SHL PUSH1 0x44 DUP3 ADD MSTORE PUSH1 0x64 ADD PUSH2 0x938 JUMP JUMPDEST PUSH1 0x1 PUSH1 0x1 PUSH1 0xA0 SHL SUB DUP3 AND PUSH0 SWAP1 DUP2 MSTORE PUSH1 0xB PUSH1 0x20 MSTORE PUSH1 0x40 SWAP1 KECCAK256 DUP1 SLOAD DUP3 SWAP1 DUP2 LT PUSH2 0x248F JUMPI PUSH2 0x248F PUSH2 0x306E JUMP JUMPDEST SWAP1 PUSH0 MSTORE PUSH1 0x20 PUSH0 KECCAK256 SWAP1 PUSH1 0x5 MUL ADD PUSH1 0x3 ADD PUSH1 0x1 SWAP1 SLOAD SWAP1 PUSH2 0x100 EXP SWAP1 DIV PUSH1 0xFF AND ISZERO PUSH2 0x24F9 JUMPI PUSH1 0x40 MLOAD PUSH3 0x461BCD PUSH1 0xE5 SHL DUP2 MSTORE PUSH1 0x20 PUSH1 0x4 DUP3 ADD MSTORE PUSH1 0x19 PUSH1 0x24 DUP3 ADD MSTORE PUSH32 0x5472616E7366657220616C726561647920657865637574656400000000000000 PUSH1 0x44 DUP3 ADD MSTORE PUSH1 0x64 ADD PUSH2 0x938 JUMP JUMPDEST PUSH1 0x1 PUSH1 0x1 PUSH1 0xA0 SHL SUB DUP3 AND PUSH0 SWAP1 DUP2 MSTORE PUSH1 0xB PUSH1 0x20 MSTORE PUSH1 0x40 SWAP1 KECCAK256 DUP1 SLOAD DUP3 SWAP1 DUP2 LT PUSH2 0x2522 JUMPI PUSH2 0x2522 PUSH2 0x306E JUMP JUMPDEST PUSH0 SWAP2 DUP3 MSTORE PUSH1 0x20 DUP1 DUP4 KECCAK256 PUSH1 0x1 PUSH1 0x1 PUSH1 0xA0 SHL SUB DUP7 AND DUP5 MSTORE PUSH1 0x4 DUP3 MSTORE PUSH1 0x40 DUP1 DUP6 KECCAK256 PUSH1 0xB SWAP1 SWAP4 MSTORE DUP5 KECCAK256 DUP1 SLOAD PUSH1 0x5 SWAP5 SWAP1 SWAP5 MUL SWAP1 SWAP2 ADD PUSH1 0x2 ADD SWAP4 SWAP2 SWAP3 DUP6 SWAP1 DUP2 LT PUSH2 0x2568 JUMPI PUSH2 0x2568 PUSH2 0x306E JUMP JUMPDEST SWAP1 PUSH0 MSTORE PUSH1 0x20 PUSH0 KECCAK256 SWAP1 PUSH1 0x5 MUL ADD PUSH1 0x1 ADD SLOAD DUP2 MSTORE PUSH1 0x20 ADD SWAP1 DUP2 MSTORE PUSH1 0x20 ADD PUSH0 KECCAK256 PUSH1 0x9 ADD SWAP1 DUP2 PUSH2 0x2594 SWAP2 SWAP1 PUSH2 0x32DF JUMP JUMPDEST POP PUSH1 0x1 PUSH1 0x1 PUSH1 0xA0 SHL SUB DUP3 AND PUSH0 SWAP1 DUP2 MSTORE PUSH1 0xB PUSH1 0x20 MSTORE PUSH1 0x40 SWAP1 KECCAK256 DUP1 SLOAD PUSH1 0x1 SWAP2 SWAP1 DUP4 SWAP1 DUP2 LT PUSH2 0x25C2 JUMPI PUSH2 0x25C2 PUSH2 0x306E JUMP JUMPDEST PUSH0 SWAP2 DUP3 MSTORE PUSH1 0x20 DUP1 DUP4 KECCAK256 PUSH1 0x3 PUSH1 0x5 SWAP1 SWAP4 MUL ADD SWAP2 SWAP1 SWAP2 ADD DUP1 SLOAD SWAP4 ISZERO ISZERO PUSH2 0x100 MUL PUSH2 0xFF00 NOT SWAP1 SWAP5 AND SWAP4 SWAP1 SWAP4 OR SWAP1 SWAP3 SSTORE PUSH1 0x1 PUSH1 0x1 PUSH1 0xA0 SHL SUB DUP5 AND DUP2 MSTORE PUSH1 0x4 DUP3 MSTORE PUSH1 0x40 DUP1 DUP3 KECCAK256 PUSH1 0xB SWAP1 SWAP4 MSTORE DUP2 KECCAK256 DUP1 SLOAD PUSH1 0x1 SWAP4 SWAP3 SWAP2 SWAP1 DUP6 SWAP1 DUP2 LT PUSH2 0x2622 JUMPI PUSH2 0x2622 PUSH2 0x306E JUMP JUMPDEST SWAP1 PUSH0 MSTORE PUSH1 0x20 PUSH0 KECCAK256 SWAP1 PUSH1 0x5 MUL ADD PUSH1 0x1 ADD SLOAD DUP2 MSTORE PUSH1 0x20 ADD SWAP1 DUP2 MSTORE PUSH1 0x20 ADD PUSH0 KECCAK256 PUSH1 0x8 ADD PUSH0 PUSH2 0x100 EXP DUP2 SLOAD DUP2 PUSH1 0xFF MUL NOT AND SWAP1 DUP4 ISZERO ISZERO MUL OR SWAP1 SSTORE POP POP POP JUMP JUMPDEST PUSH0 SLOAD PUSH1 0x1 PUSH1 0x1 PUSH1 0xA0 SHL SUB AND CALLER EQ DUP1 PUSH2 0x2688 JUMPI POP CALLER PUSH0 SWAP1 DUP2 MSTORE PUSH1 0x1 PUSH1 0x20 DUP2 SWAP1 MSTORE PUSH1 0x40 SWAP1 SWAP2 KECCAK256 SLOAD PUSH1 0xFF AND ISZERO ISZERO EQ JUMPDEST PUSH2 0x26D3 JUMPI PUSH1 0x40 MLOAD PUSH3 0x461BCD PUSH1 0xE5 SHL DUP2 MSTORE PUSH1 0x20 PUSH1 0x4 DUP3 ADD MSTORE PUSH1 0x29 PUSH1 0x24 DUP3 ADD MSTORE PUSH0 DUP1 MLOAD PUSH1 0x20 PUSH2 0x33AF DUP4 CODECOPY DUP2 MLOAD SWAP2 MSTORE PUSH1 0x44 DUP3 ADD MSTORE PUSH9 0x616464436F75727365 PUSH1 0xB8 SHL PUSH1 0x64 DUP3 ADD MSTORE PUSH1 0x84 ADD PUSH2 0x938 JUMP JUMPDEST PUSH0 DUP4 DUP2 MSTORE PUSH1 0x7 PUSH1 0x20 MSTORE PUSH1 0x40 SWAP1 KECCAK256 SLOAD PUSH1 0xFF AND ISZERO PUSH2 0x2729 JUMPI PUSH1 0x40 MLOAD PUSH3 0x461BCD PUSH1 0xE5 SHL DUP2 MSTORE PUSH1 0x20 PUSH1 0x4 DUP3 ADD MSTORE PUSH1 0x15 PUSH1 0x24 DUP3 ADD MSTORE PUSH21 0x436F7572736520616C726561647920657869737473 PUSH1 0x58 SHL PUSH1 0x44 DUP3 ADD MSTORE PUSH1 0x64 ADD PUSH2 0x938 JUMP JUMPDEST PUSH0 DUP4 DUP2 MSTORE PUSH1 0x7 PUSH1 0x20 SWAP1 DUP2 MSTORE PUSH1 0x40 DUP1 DUP4 KECCAK256 DUP1 SLOAD PUSH1 0xFF NOT AND PUSH1 0x1 SWAP1 DUP2 OR SWAP1 SWAP2 SSTORE PUSH1 0x9 DUP1 SLOAD DUP1 DUP4 ADD SWAP1 SWAP2 SSTORE PUSH32 0x6E1540171B6C0C960B71A7020D9F60077F6AF931A8BBF590DA0223DACF75C7AF ADD DUP8 SWAP1 SSTORE DUP2 MLOAD PUSH1 0x80 DUP2 ADD DUP4 MSTORE DUP8 DUP2 MSTORE DUP1 DUP5 ADD DUP7 DUP2 MSTORE DUP2 DUP5 ADD DUP9 SWAP1 MSTORE TIMESTAMP PUSH1 0x60 DUP4 ADD MSTORE DUP9 DUP7 MSTORE PUSH1 0x3 SWAP1 SWAP5 MSTORE SWAP2 SWAP1 SWAP4 KECCAK256 DUP2 MLOAD DUP2 SSTORE SWAP2 MLOAD SWAP1 SWAP3 DUP3 ADD SWAP1 PUSH2 0x27B4 SWAP1 DUP3 PUSH2 0x320A JUMP JUMPDEST POP PUSH1 0x40 DUP3 ADD MLOAD PUSH1 0x2 DUP3 ADD SSTORE PUSH1 0x60 SWAP1 SWAP2 ADD MLOAD PUSH1 0x3 SWAP1 SWAP2 ADD SSTORE POP POP POP JUMP JUMPDEST PUSH1 0x9 DUP2 DUP2 SLOAD DUP2 LT PUSH2 0x27DF JUMPI PUSH0 DUP1 REVERT JUMPDEST PUSH0 SWAP2 DUP3 MSTORE PUSH1 0x20 SWAP1 SWAP2 KECCAK256 ADD SLOAD SWAP1 POP DUP2 JUMP JUMPDEST PUSH1 0x4 PUSH1 0x20 DUP2 DUP2 MSTORE PUSH0 SWAP4 DUP5 MSTORE PUSH1 0x40 DUP1 DUP6 KECCAK256 SWAP1 SWAP2 MSTORE SWAP2 DUP4 MSTORE SWAP2 KECCAK256 DUP1 SLOAD PUSH1 0x1 DUP3 ADD SLOAD PUSH1 0x2 DUP4 ADD SLOAD PUSH1 0x3 DUP5 ADD SLOAD SWAP5 DUP5 ADD SLOAD PUSH1 0x5 DUP6 ADD SLOAD PUSH1 0x6 DUP7 ADD SLOAD PUSH1 0x7 DUP8 ADD DUP1 SLOAD SWAP7 SWAP9 SWAP6 SWAP8 SWAP5 SWAP7 PUSH1 0xFF SWAP5 DUP6 AND SWAP6 SWAP4 SWAP5 SWAP1 SWAP3 AND SWAP3 SWAP2 PUSH2 0x2848 SWAP1 PUSH2 0x30AF JUMP JUMPDEST DUP1 PUSH1 0x1F ADD PUSH1 0x20 DUP1 SWAP2 DIV MUL PUSH1 0x20 ADD PUSH1 0x40 MLOAD SWAP1 DUP2 ADD PUSH1 0x40 MSTORE DUP1 SWAP3 SWAP2 SWAP1 DUP2 DUP2 MSTORE PUSH1 0x20 ADD DUP3 DUP1 SLOAD PUSH2 0x2874 SWAP1 PUSH2 0x30AF JUMP JUMPDEST DUP1 ISZERO PUSH2 0x28BF JUMPI DUP1 PUSH1 0x1F LT PUSH2 0x2896 JUMPI PUSH2 0x100 DUP1 DUP4 SLOAD DIV MUL DUP4 MSTORE SWAP2 PUSH1 0x20 ADD SWAP2 PUSH2 0x28BF JUMP JUMPDEST DUP3 ADD SWAP2 SWAP1 PUSH0 MSTORE PUSH1 0x20 PUSH0 KECCAK256 SWAP1 JUMPDEST DUP2 SLOAD DUP2 MSTORE SWAP1 PUSH1 0x1 ADD SWAP1 PUSH1 0x20 ADD DUP1 DUP4 GT PUSH2 0x28A2 JUMPI DUP3 SWAP1 SUB PUSH1 0x1F AND DUP3 ADD SWAP2 JUMPDEST POP POP POP PUSH1 0x8 DUP5 ADD SLOAD PUSH1 0x9 DUP6 ADD DUP1 SLOAD SWAP5 SWAP6 PUSH1 0xFF SWAP1 SWAP3 AND SWAP5 SWAP2 SWAP4 POP SWAP2 POP PUSH2 0x28E3 SWAP1 PUSH2 0x30AF JUMP JUMPDEST DUP1 PUSH1 0x1F ADD PUSH1 0x20 DUP1 SWAP2 DIV MUL PUSH1 0x20 ADD PUSH1 0x40 MLOAD SWAP1 DUP2 ADD PUSH1 0x40 MSTORE DUP1 SWAP3 SWAP2 SWAP1 DUP2 DUP2 MSTORE PUSH1 0x20 ADD DUP3 DUP1 SLOAD PUSH2 0x290F SWAP1 PUSH2 0x30AF JUMP JUMPDEST DUP1 ISZERO PUSH2 0x295A JUMPI DUP1 PUSH1 0x1F LT PUSH2 0x2931 JUMPI PUSH2 0x100 DUP1 DUP4 SLOAD DIV MUL DUP4 MSTORE SWAP2 PUSH1 0x20 ADD SWAP2 PUSH2 0x295A JUMP JUMPDEST DUP3 ADD SWAP2 SWAP1 PUSH0 MSTORE PUSH1 0x20 PUSH0 KECCAK256 SWAP1 JUMPDEST DUP2 SLOAD DUP2 MSTORE SWAP1 PUSH1 0x1 ADD SWAP1 PUSH1 0x20 ADD DUP1 DUP4 GT PUSH2 0x293D JUMPI DUP3 SWAP1 SUB PUSH1 0x1F AND DUP3 ADD SWAP2 JUMPDEST POP POP POP POP POP SWAP1 POP DUP11 JUMP JUMPDEST PUSH0 SLOAD PUSH1 0x1 PUSH1 0x1 PUSH1 0xA0 SHL SUB AND CALLER EQ PUSH2 0x298D JUMPI PUSH1 0x40 MLOAD PUSH3 0x461BCD PUSH1 0xE5 SHL DUP2 MSTORE PUSH1 0x4 ADD PUSH2 0x938 SWAP1 PUSH2 0x30FF JUMP JUMPDEST PUSH1 0x1 PUSH1 0x1 PUSH1 0xA0 SHL SUB DUP2 AND PUSH2 0x29CE JUMPI PUSH1 0x40 MLOAD PUSH3 0x461BCD PUSH1 0xE5 SHL DUP2 MSTORE PUSH1 0x20 PUSH1 0x4 DUP3 ADD MSTORE PUSH1 0x8 PUSH1 0x24 DUP3 ADD MSTORE PUSH8 0x6E6577206973203 PUSH1 0xC4 SHL PUSH1 0x44 DUP3 ADD MSTORE PUSH1 0x64 ADD PUSH2 0x938 JUMP JUMPDEST PUSH0 DUP1 SLOAD PUSH1 0x40 MLOAD PUSH1 0x1 PUSH1 0x1 PUSH1 0xA0 SHL SUB DUP1 DUP6 AND SWAP4 SWAP3 AND SWAP2 PUSH32 0x8BE0079C531659141344CD1FD0A4F28419497F9722A3DAAFE3B4186F6B6457E0 SWAP2 LOG3 PUSH0 DUP1 SLOAD PUSH1 0x1 PUSH1 0x1 PUSH1 0xA0 SHL SUB NOT AND PUSH1 0x1 PUSH1 0x1 PUSH1 0xA0 SHL SUB SWAP3 SWAP1 SWAP3 AND SWAP2 SWAP1 SWAP2 OR SWAP1 SSTORE JUMP JUMPDEST PUSH1 0x40 MLOAD DUP1 PUSH2 0x140 ADD PUSH1 0x40 MSTORE DUP1 PUSH0 DUP2 MSTORE PUSH1 0x20 ADD PUSH0 DUP2 MSTORE PUSH1 0x20 ADD PUSH0 DUP2 MSTORE PUSH1 0x20 ADD PUSH0 DUP2 MSTORE PUSH1 0x20 ADD PUSH0 ISZERO ISZERO DUP2 MSTORE PUSH1 0x20 ADD PUSH0 DUP2 MSTORE PUSH1 0x20 ADD PUSH0 ISZERO ISZERO DUP2 MSTORE PUSH1 0x20 ADD PUSH1 0x60 DUP2 MSTORE PUSH1 0x20 ADD PUSH0 ISZERO ISZERO DUP2 MSTORE PUSH1 0x20 ADD PUSH1 0x60 DUP2 MSTORE POP SWAP1 JUMP JUMPDEST DUP1 CALLDATALOAD PUSH1 0x1 PUSH1 0x1 PUSH1 0xA0 SHL SUB DUP2 AND DUP2 EQ PUSH2 0x2A8E JUMPI PUSH0 DUP1 REVERT JUMPDEST SWAP2 SWAP1 POP JUMP JUMPDEST PUSH0 PUSH1 0x20 DUP3 DUP5 SUB SLT ISZERO PUSH2 0x2AA3 JUMPI PUSH0 DUP1 REVERT JUMPDEST PUSH2 0x2AAC DUP3 PUSH2 0x2A78 JUMP JUMPDEST SWAP4 SWAP3 POP POP POP JUMP JUMPDEST PUSH0 DUP1 PUSH1 0x40 DUP4 DUP6 SUB SLT ISZERO PUSH2 0x2AC4 JUMPI PUSH0 DUP1 REVERT JUMPDEST PUSH2 0x2ACD DUP4 PUSH2 0x2A78 JUMP JUMPDEST SWAP5 PUSH1 0x20 SWAP4 SWAP1 SWAP4 ADD CALLDATALOAD SWAP4 POP POP POP JUMP JUMPDEST PUSH0 DUP2 MLOAD DUP1 DUP5 MSTORE DUP1 PUSH1 0x20 DUP5 ADD PUSH1 0x20 DUP7 ADD MCOPY PUSH0 PUSH1 0x20 DUP3 DUP7 ADD ADD MSTORE PUSH1 0x20 PUSH1 0x1F NOT PUSH1 0x1F DUP4 ADD AND DUP6 ADD ADD SWAP2 POP POP SWAP3 SWAP2 POP POP JUMP JUMPDEST PUSH0 PUSH1 0x20 DUP1 DUP4 ADD DUP2 DUP5 MSTORE DUP1 DUP6 MLOAD DUP1 DUP4 MSTORE PUSH1 0x40 SWAP3 POP PUSH1 0x40 DUP7 ADD SWAP2 POP PUSH1 0x40 DUP2 PUSH1 0x5 SHL DUP8 ADD ADD DUP5 DUP9 ADD PUSH0 JUMPDEST DUP4 DUP2 LT ISZERO PUSH2 0x2BA9 JUMPI DUP9 DUP4 SUB PUSH1 0x3F NOT ADD DUP6 MSTORE DUP2 MLOAD DUP1 MLOAD PUSH1 0x1 PUSH1 0x1 PUSH1 0xA0 SHL SUB AND DUP5 MSTORE DUP8 DUP2 ADD MLOAD DUP9 DUP6 ADD MSTORE DUP7 DUP2 ADD MLOAD PUSH1 0xC0 DUP9 DUP7 ADD DUP2 SWAP1 MSTORE SWAP1 PUSH2 0x2B71 DUP3 DUP8 ADD DUP3 PUSH2 0x2ADB JUMP JUMPDEST PUSH1 0x60 DUP5 DUP2 ADD MLOAD ISZERO ISZERO SWAP1 DUP9 ADD MSTORE PUSH1 0x80 DUP1 DUP6 ADD MLOAD ISZERO ISZERO SWAP1 DUP9 ADD MSTORE PUSH1 0xA0 SWAP4 DUP5 ADD MLOAD SWAP4 SWAP1 SWAP7 ADD SWAP3 SWAP1 SWAP3 MSTORE POP POP SWAP4 DUP7 ADD SWAP4 SWAP1 DUP7 ADD SWAP1 PUSH1 0x1 ADD PUSH2 0x2B30 JUMP JUMPDEST POP SWAP1 SWAP9 SWAP8 POP POP POP POP POP POP POP POP JUMP JUMPDEST PUSH0 PUSH1 0x20 DUP3 DUP5 SUB SLT ISZERO PUSH2 0x2BC7 JUMPI PUSH0 DUP1 REVERT JUMPDEST POP CALLDATALOAD SWAP2 SWAP1 POP JUMP JUMPDEST PUSH0 PUSH1 0x20 DUP1 DUP4 ADD DUP2 DUP5 MSTORE DUP1 DUP6 MLOAD DUP1 DUP4 MSTORE PUSH1 0x40 SWAP3 POP PUSH1 0x40 DUP7 ADD SWAP2 POP PUSH1 0x40 DUP2 PUSH1 0x5 SHL DUP8 ADD ADD DUP5 DUP9 ADD PUSH0 JUMPDEST DUP4 DUP2 LT ISZERO PUSH2 0x2BA9 JUMPI PUSH1 0x3F NOT DUP10 DUP5 SUB ADD DUP6 MSTORE DUP2 MLOAD DUP1 MLOAD DUP5 MSTORE DUP8 DUP2 ADD MLOAD DUP9 DUP6 ADD MSTORE DUP7 DUP2 ADD MLOAD DUP8 DUP6 ADD MSTORE PUSH1 0x60 DUP1 DUP3 ADD MLOAD SWAP1 DUP6 ADD MSTORE PUSH1 0x80 DUP1 DUP3 ADD MLOAD ISZERO ISZERO SWAP1 DUP6 ADD MSTORE PUSH1 0xA0 DUP1 DUP3 ADD MLOAD SWAP1 DUP6 ADD MSTORE PUSH1 0xC0 DUP1 DUP3 ADD MLOAD ISZERO ISZERO SWAP1 DUP6 ADD MSTORE PUSH1 0xE0 DUP1 DUP3 ADD MLOAD PUSH2 0x140 DUP3 DUP8 ADD DUP2 SWAP1 MSTORE SWAP2 SWAP1 PUSH2 0x2C65 DUP4 DUP9 ADD DUP3 PUSH2 0x2ADB JUMP JUMPDEST SWAP3 POP POP POP PUSH2 0x100 DUP1 DUP4 ADD MLOAD PUSH2 0x2C7D DUP3 DUP9 ADD DUP3 ISZERO ISZERO SWAP1 MSTORE JUMP JUMPDEST POP POP PUSH2 0x120 DUP1 DUP4 ADD MLOAD SWAP3 POP DUP6 DUP3 SUB DUP2 DUP8 ADD MSTORE POP PUSH2 0x2C9A DUP2 DUP4 PUSH2 0x2ADB JUMP JUMPDEST SWAP7 DUP10 ADD SWAP7 SWAP5 POP POP POP SWAP1 DUP7 ADD SWAP1 PUSH1 0x1 ADD PUSH2 0x2BF5 JUMP JUMPDEST PUSH0 DUP1 PUSH0 PUSH1 0x60 DUP5 DUP7 SUB SLT ISZERO PUSH2 0x2CC0 JUMPI PUSH0 DUP1 REVERT JUMPDEST PUSH2 0x2CC9 DUP5 PUSH2 0x2A78 JUMP JUMPDEST SWAP6 PUSH1 0x20 DUP6 ADD CALLDATALOAD SWAP6 POP PUSH1 0x40 SWAP1 SWAP5 ADD CALLDATALOAD SWAP4 SWAP3 POP POP POP JUMP JUMPDEST PUSH1 0x20 DUP1 DUP3 MSTORE DUP3 MLOAD DUP3 DUP3 ADD DUP2 SWAP1 MSTORE PUSH0 SWAP2 SWAP1 PUSH1 0x40 SWAP1 DUP2 DUP6 ADD SWAP1 DUP7 DUP5 ADD DUP6 JUMPDEST DUP3 DUP2 LT ISZERO PUSH2 0x2D3F JUMPI DUP2 MLOAD DUP1 MLOAD DUP6 MSTORE DUP7 DUP2 ADD MLOAD PUSH1 0x1 PUSH1 0x1 PUSH1 0xA0 SHL SUB AND DUP8 DUP7 ADD MSTORE DUP6 DUP2 ADD MLOAD DUP7 DUP7 ADD MSTORE PUSH1 0x60 SWAP1 DUP2 ADD MLOAD ISZERO ISZERO SWAP1 DUP6 ADD MSTORE PUSH1 0x80 SWAP1 SWAP4 ADD SWAP3 SWAP1 DUP6 ADD SWAP1 PUSH1 0x1 ADD PUSH2 0x2CFA JUMP JUMPDEST POP SWAP2 SWAP8 SWAP7 POP POP POP POP POP POP POP JUMP JUMPDEST PUSH1 0x1 DUP1 PUSH1 0xA0 SHL SUB DUP8 AND DUP2 MSTORE DUP6 PUSH1 0x20 DUP3 ADD MSTORE PUSH1 0xC0 PUSH1 0x40 DUP3 ADD MSTORE PUSH0 PUSH2 0x2D72 PUSH1 0xC0 DUP4 ADD DUP8 PUSH2 0x2ADB JUMP JUMPDEST SWAP5 ISZERO ISZERO PUSH1 0x60 DUP4 ADD MSTORE POP SWAP2 ISZERO ISZERO PUSH1 0x80 DUP4 ADD MSTORE PUSH1 0xA0 SWAP1 SWAP2 ADD MSTORE SWAP4 SWAP3 POP POP POP JUMP JUMPDEST PUSH4 0x4E487B71 PUSH1 0xE0 SHL PUSH0 MSTORE PUSH1 0x41 PUSH1 0x4 MSTORE PUSH1 0x24 PUSH0 REVERT JUMPDEST PUSH0 DUP3 PUSH1 0x1F DUP4 ADD SLT PUSH2 0x2DB3 JUMPI PUSH0 DUP1 REVERT JUMPDEST DUP2 CALLDATALOAD PUSH8 0xFFFFFFFFFFFFFFFF DUP1 DUP3 GT ISZERO PUSH2 0x2DCE JUMPI PUSH2 0x2DCE PUSH2 0x2D90 JUMP JUMPDEST PUSH1 0x40 MLOAD PUSH1 0x1F DUP4 ADD PUSH1 0x1F NOT SWAP1 DUP2 AND PUSH1 0x3F ADD AND DUP2 ADD SWAP1 DUP3 DUP3 GT DUP2 DUP4 LT OR ISZERO PUSH2 0x2DF6 JUMPI PUSH2 0x2DF6 PUSH2 0x2D90 JUMP JUMPDEST DUP2 PUSH1 0x40 MSTORE DUP4 DUP2 MSTORE DUP7 PUSH1 0x20 DUP6 DUP9 ADD ADD GT ISZERO PUSH2 0x2E0E JUMPI PUSH0 DUP1 REVERT JUMPDEST DUP4 PUSH1 0x20 DUP8 ADD PUSH1 0x20 DUP4 ADD CALLDATACOPY PUSH0 PUSH1 0x20 DUP6 DUP4 ADD ADD MSTORE DUP1 SWAP5 POP POP POP POP POP SWAP3 SWAP2 POP POP JUMP JUMPDEST PUSH0 DUP1 PUSH0 DUP1 PUSH1 0x80 DUP6 DUP8 SUB SLT ISZERO PUSH2 0x2E40 JUMPI PUSH0 DUP1 REVERT JUMPDEST PUSH2 0x2E49 DUP6 PUSH2 0x2A78 JUMP JUMPDEST SWAP4 POP PUSH1 0x20 DUP6 ADD CALLDATALOAD SWAP3 POP PUSH1 0x40 DUP6 ADD CALLDATALOAD SWAP2 POP PUSH1 0x60 DUP6 ADD CALLDATALOAD PUSH8 0xFFFFFFFFFFFFFFFF DUP2 GT ISZERO PUSH2 0x2E72 JUMPI PUSH0 DUP1 REVERT JUMPDEST PUSH2 0x2E7E DUP8 DUP3 DUP9 ADD PUSH2 0x2DA4 JUMP JUMPDEST SWAP2 POP POP SWAP3 SWAP6 SWAP2 SWAP5 POP SWAP3 POP JUMP JUMPDEST PUSH1 0x20 DUP1 DUP3 MSTORE DUP3 MLOAD DUP3 DUP3 ADD DUP2 SWAP1 MSTORE PUSH0 SWAP2 SWAP1 DUP5 DUP3 ADD SWAP1 PUSH1 0x40 DUP6 ADD SWAP1 DUP5 JUMPDEST DUP2 DUP2 LT ISZERO PUSH2 0x2EC1 JUMPI DUP4 MLOAD DUP4 MSTORE SWAP3 DUP5 ADD SWAP3 SWAP2 DUP5 ADD SWAP2 PUSH1 0x1 ADD PUSH2 0x2EA5 JUMP JUMPDEST POP SWAP1 SWAP7 SWAP6 POP POP POP POP POP POP JUMP JUMPDEST PUSH0 DUP1 PUSH1 0x40 DUP4 DUP6 SUB SLT ISZERO PUSH2 0x2EDE JUMPI PUSH0 DUP1 REVERT JUMPDEST DUP3 CALLDATALOAD SWAP2 POP PUSH1 0x20 DUP4 ADD CALLDATALOAD PUSH8 0xFFFFFFFFFFFFFFFF DUP2 GT ISZERO PUSH2 0x2EFB JUMPI PUSH0 DUP1 REVERT JUMPDEST PUSH2 0x2F07 DUP6 DUP3 DUP7 ADD PUSH2 0x2DA4 JUMP JUMPDEST SWAP2 POP POP SWAP3 POP SWAP3 SWAP1 POP JUMP JUMPDEST PUSH1 0x20 DUP2 MSTORE DUP2 MLOAD PUSH1 0x20 DUP3 ADD MSTORE PUSH0 PUSH1 0x20 DUP4 ADD MLOAD PUSH1 0x80 PUSH1 0x40 DUP5 ADD MSTORE PUSH2 0x2F36 PUSH1 0xA0 DUP5 ADD DUP3 PUSH2 0x2ADB JUMP JUMPDEST SWAP1 POP PUSH1 0x40 DUP5 ADD MLOAD PUSH1 0x60 DUP5 ADD MSTORE PUSH1 0x60 DUP5 ADD MLOAD PUSH1 0x80 DUP5 ADD MSTORE DUP1 SWAP2 POP POP SWAP3 SWAP2 POP POP JUMP JUMPDEST DUP5 DUP2 MSTORE PUSH1 0x80 PUSH1 0x20 DUP3 ADD MSTORE PUSH0 PUSH2 0x2F6E PUSH1 0x80 DUP4 ADD DUP7 PUSH2 0x2ADB JUMP JUMPDEST PUSH1 0x40 DUP4 ADD SWAP5 SWAP1 SWAP5 MSTORE POP PUSH1 0x60 ADD MSTORE SWAP3 SWAP2 POP POP JUMP JUMPDEST PUSH0 DUP1 PUSH0 PUSH1 0x60 DUP5 DUP7 SUB SLT ISZERO PUSH2 0x2F93 JUMPI PUSH0 DUP1 REVERT JUMPDEST DUP4 CALLDATALOAD SWAP3 POP PUSH1 0x20 DUP5 ADD CALLDATALOAD SWAP2 POP PUSH1 0x40 DUP5 ADD CALLDATALOAD PUSH8 0xFFFFFFFFFFFFFFFF DUP2 GT ISZERO PUSH2 0x2FB7 JUMPI PUSH0 DUP1 REVERT JUMPDEST PUSH2 0x2FC3 DUP7 DUP3 DUP8 ADD PUSH2 0x2DA4 JUMP JUMPDEST SWAP2 POP POP SWAP3 POP SWAP3 POP SWAP3 JUMP JUMPDEST PUSH0 DUP1 PUSH1 0x40 DUP4 DUP6 SUB SLT ISZERO PUSH2 0x2FDE JUMPI PUSH0 DUP1 REVERT JUMPDEST PUSH2 0x2FE7 DUP4 PUSH2 0x2A78 JUMP JUMPDEST SWAP2 POP PUSH2 0x2FF5 PUSH1 0x20 DUP5 ADD PUSH2 0x2A78 JUMP JUMPDEST SWAP1 POP SWAP3 POP SWAP3 SWAP1 POP JUMP JUMPDEST PUSH0 PUSH2 0x140 DUP13 DUP4 MSTORE DUP12 PUSH1 0x20 DUP5 ADD MSTORE DUP11 PUSH1 0x40 DUP5 ADD MSTORE DUP10 PUSH1 0x60 DUP5 ADD MSTORE DUP9 ISZERO ISZERO PUSH1 0x80 DUP5 ADD MSTORE DUP8 PUSH1 0xA0 DUP5 ADD MSTORE DUP7 ISZERO ISZERO PUSH1 0xC0 DUP5 ADD MSTORE DUP1 PUSH1 0xE0 DUP5 ADD MSTORE PUSH2 0x303F DUP2 DUP5 ADD DUP8 PUSH2 0x2ADB JUMP JUMPDEST SWAP1 POP DUP5 ISZERO ISZERO PUSH2 0x100 DUP5 ADD MSTORE DUP3 DUP2 SUB PUSH2 0x120 DUP5 ADD MSTORE PUSH2 0x305D DUP2 DUP6 PUSH2 0x2ADB JUMP JUMPDEST SWAP14 SWAP13 POP POP POP POP POP POP POP POP POP POP POP POP POP JUMP JUMPDEST PUSH4 0x4E487B71 PUSH1 0xE0 SHL PUSH0 MSTORE PUSH1 0x32 PUSH1 0x4 MSTORE PUSH1 0x24 PUSH0 REVERT JUMPDEST PUSH4 0x4E487B71 PUSH1 0xE0 SHL PUSH0 MSTORE PUSH1 0x11 PUSH1 0x4 MSTORE PUSH1 0x24 PUSH0 REVERT JUMPDEST DUP1 DUP3 ADD DUP1 DUP3 GT ISZERO PUSH2 0x30A9 JUMPI PUSH2 0x30A9 PUSH2 0x3082 JUMP JUMPDEST SWAP3 SWAP2 POP POP JUMP JUMPDEST PUSH1 0x1 DUP2 DUP2 SHR SWAP1 DUP3 AND DUP1 PUSH2 0x30C3 JUMPI PUSH1 0x7F DUP3 AND SWAP2 POP JUMPDEST PUSH1 0x20 DUP3 LT DUP2 SUB PUSH2 0x30E1 JUMPI PUSH4 0x4E487B71 PUSH1 0xE0 SHL PUSH0 MSTORE PUSH1 0x22 PUSH1 0x4 MSTORE PUSH1 0x24 PUSH0 REVERT JUMPDEST POP SWAP2 SWAP1 POP JUMP JUMPDEST PUSH0 PUSH1 0x1 DUP3 ADD PUSH2 0x30F8 JUMPI PUSH2 0x30F8 PUSH2 0x3082 JUMP JUMPDEST POP PUSH1 0x1 ADD SWAP1 JUMP JUMPDEST PUSH1 0x20 DUP1 DUP3 MSTORE PUSH1 0x6 SWAP1 DUP3 ADD MSTORE PUSH6 0x10B7BBB732B9 PUSH1 0xD1 SHL PUSH1 0x40 DUP3 ADD MSTORE PUSH1 0x60 ADD SWAP1 JUMP JUMPDEST PUSH1 0x20 DUP1 DUP3 MSTORE PUSH1 0x15 SWAP1 DUP3 ADD MSTORE PUSH21 0x10DC99591A5D08191BD95CC81B9BDD08195E1A5CDD PUSH1 0x5A SHL PUSH1 0x40 DUP3 ADD MSTORE PUSH1 0x60 ADD SWAP1 JUMP JUMPDEST PUSH1 0x20 DUP1 DUP3 MSTORE PUSH1 0x16 SWAP1 DUP3 ADD MSTORE PUSH22 0x10DC99591A5D08185B1C9958591E481C995D9BDAD959 PUSH1 0x52 SHL PUSH1 0x40 DUP3 ADD MSTORE PUSH1 0x60 ADD SWAP1 JUMP JUMPDEST PUSH1 0x20 DUP1 DUP3 MSTORE PUSH1 0xF SWAP1 DUP3 ADD MSTORE PUSH15 0x496E76616C69642061646472657373 PUSH1 0x88 SHL PUSH1 0x40 DUP3 ADD MSTORE PUSH1 0x60 ADD SWAP1 JUMP JUMPDEST DUP1 DUP3 MUL DUP2 ISZERO DUP3 DUP3 DIV DUP5 EQ OR PUSH2 0x30A9 JUMPI PUSH2 0x30A9 PUSH2 0x3082 JUMP JUMPDEST PUSH1 0x1F DUP3 GT ISZERO PUSH2 0x3205 JUMPI DUP1 PUSH0 MSTORE PUSH1 0x20 PUSH0 KECCAK256 PUSH1 0x1F DUP5 ADD PUSH1 0x5 SHR DUP2 ADD PUSH1 0x20 DUP6 LT ISZERO PUSH2 0x31E3 JUMPI POP DUP1 JUMPDEST PUSH1 0x1F DUP5 ADD PUSH1 0x5 SHR DUP3 ADD SWAP2 POP JUMPDEST DUP2 DUP2 LT ISZERO PUSH2 0x3202 JUMPI PUSH0 DUP2 SSTORE PUSH1 0x1 ADD PUSH2 0x31EF JUMP JUMPDEST POP POP JUMPDEST POP POP POP JUMP JUMPDEST DUP2 MLOAD PUSH8 0xFFFFFFFFFFFFFFFF DUP2 GT ISZERO PUSH2 0x3224 JUMPI PUSH2 0x3224 PUSH2 0x2D90 JUMP JUMPDEST PUSH2 0x3238 DUP2 PUSH2 0x3232 DUP5 SLOAD PUSH2 0x30AF JUMP JUMPDEST DUP5 PUSH2 0x31BE JUMP JUMPDEST PUSH1 0x20 DUP1 PUSH1 0x1F DUP4 GT PUSH1 0x1 DUP2 EQ PUSH2 0x326B JUMPI PUSH0 DUP5 ISZERO PUSH2 0x3254 JUMPI POP DUP6 DUP4 ADD MLOAD JUMPDEST PUSH0 NOT PUSH1 0x3 DUP7 SWAP1 SHL SHR NOT AND PUSH1 0x1 DUP6 SWAP1 SHL OR DUP6 SSTORE PUSH2 0x32C2 JUMP JUMPDEST PUSH0 DUP6 DUP2 MSTORE PUSH1 0x20 DUP2 KECCAK256 PUSH1 0x1F NOT DUP7 AND SWAP2 JUMPDEST DUP3 DUP2 LT ISZERO PUSH2 0x3299 JUMPI DUP9 DUP7 ADD MLOAD DUP3 SSTORE SWAP5 DUP5 ADD SWAP5 PUSH1 0x1 SWAP1 SWAP2 ADD SWAP1 DUP5 ADD PUSH2 0x327A JUMP JUMPDEST POP DUP6 DUP3 LT ISZERO PUSH2 0x32B6 JUMPI DUP8 DUP6 ADD MLOAD PUSH0 NOT PUSH1 0x3 DUP9 SWAP1 SHL PUSH1 0xF8 AND SHR NOT AND DUP2 SSTORE JUMPDEST POP POP PUSH1 0x1 DUP5 PUSH1 0x1 SHL ADD DUP6 SSTORE JUMPDEST POP POP POP POP POP POP JUMP JUMPDEST PUSH0 DUP2 PUSH2 0x32D8 JUMPI PUSH2 0x32D8 PUSH2 0x3082 JUMP JUMPDEST POP PUSH0 NOT ADD SWAP1 JUMP JUMPDEST DUP2 DUP2 SUB PUSH2 0x32EA JUMPI POP POP JUMP JUMPDEST PUSH2 0x32F4 DUP3 SLOAD PUSH2 0x30AF JUMP JUMPDEST PUSH8 0xFFFFFFFFFFFFFFFF DUP2 GT ISZERO PUSH2 0x330C JUMPI PUSH2 0x330C PUSH2 0x2D90 JUMP JUMPDEST PUSH2 0x331A DUP2 PUSH2 0x3232 DUP5 SLOAD PUSH2 0x30AF JUMP JUMPDEST PUSH0 PUSH1 0x1F DUP3 GT PUSH1 0x1 DUP2 EQ PUSH2 0x334B JUMPI PUSH0 DUP4 ISZERO PUSH2 0x3334 JUMPI POP DUP5 DUP3 ADD SLOAD JUMPDEST PUSH0 NOT PUSH1 0x3 DUP6 SWAP1 SHL SHR NOT AND PUSH1 0x1 DUP5 SWAP1 SHL OR DUP5 SSTORE PUSH2 0x3202 JUMP JUMPDEST PUSH0 DUP6 DUP2 MSTORE PUSH1 0x20 DUP1 DUP3 KECCAK256 DUP7 DUP4 MSTORE SWAP1 DUP3 KECCAK256 PUSH1 0x1F NOT DUP7 AND SWAP3 JUMPDEST DUP4 DUP2 LT ISZERO PUSH2 0x3381 JUMPI DUP3 DUP7 ADD SLOAD DUP3 SSTORE PUSH1 0x1 SWAP6 DUP7 ADD SWAP6 SWAP1 SWAP2 ADD SWAP1 PUSH1 0x20 ADD PUSH2 0x3361 JUMP JUMPDEST POP DUP6 DUP4 LT ISZERO PUSH2 0x339E JUMPI DUP2 DUP6 ADD SLOAD PUSH0 NOT PUSH1 0x3 DUP9 SWAP1 SHL PUSH1 0xF8 AND SHR NOT AND DUP2 SSTORE JUMPDEST POP POP POP POP POP PUSH1 0x1 SWAP1 DUP2 SHL ADD SWAP1 SSTORE POP JUMP INVALID PUSH16 0x6E6C7920746F7061646D696E206F7220 PUSH2 0x646D PUSH10 0x6E2063616E2063616C6C KECCAK256 LOG2 PUSH5 0x6970667358 0x22 SLT KECCAK256 CALLER 0xEE LT 0xA8 0xCA SWAP4 0x2F 0xF9 CALLDATASIZE PUSH24 0x716A9EFBFBB39E4F07545FF1CF39EEBD77543CE67D086473 PUSH16 0x6C634300081900330000000000000000 "
		},
		"gasEstimates": {
			"creation": {
				"codeDepositCost": "2663200",
				"executionCost": "28662",
				"totalCost": "2691862"
			},
			"external": {
				"Cancel(address,uint256)": "33728",
				"GetAllApproveList()": "infinite",
				"Requests(address,uint256)": "144055",
				"addAdmin(address)": "27971",
				"addCourse(uint256,uint256,string)": "infinite",
				"addTeacher(address)": "29128",
				"allowance(address,address)": "infinite",
				"approve(address,uint256,uint256)": "infinite",
				"approveCreditTransfer(address,uint256)": "35685",
				"countCourseIdOccurrences(address)": "2570",
				"courseExists(uint256)": "2514",
				"courseLists(uint256)": "4605",
				"courserInfo(uint256)": "infinite",
				"creditTransferRequests(address,uint256)": "infinite",
				"executeCreditTransfer(address,uint256)": "infinite",
				"getAllCourseID()": "infinite",
				"getAllrequestCreditTransfer()": "infinite",
				"getCourseInfo(uint256)": "infinite",
				"getCreditTransfersOfStudent(address)": "infinite",
				"getCreditsOfStudent()": "infinite",
				"getStudentCreditByMechanism(address)": "infinite",
				"isAdmin(address)": "2574",
				"isWhiteList(address)": "2660",
				"modifyCredit(address,uint256,uint256)": "infinite",
				"owner()": "2374",
				"recordCredit(address,uint256,uint256,string)": "infinite",
				"removeAdmin(address)": "27998",
				"removeTeacher(address)": "31254",
				"renounceOwnership()": "30251",
				"requestCreditTransfer(uint256,string)": "infinite",
				"requestOfMechanism(address,uint256)": "11259",
				"setWhiteList(address)": "24707",
				"studentCourseIds(address,uint256)": "4795",
				"studentCredits(address,uint256)": "infinite",
				"studentLists(uint256)": "4679",
				"teachers(address)": "2594",
				"transferOwnership(address)": "30505"
			}
		},
		"methodIdentifiers": {
			"Cancel(address,uint256)": "27f83af9",
			"GetAllApproveList()": "4708fdd6",
			"Requests(address,uint256)": "995975d8",
			"addAdmin(address)": "70480275",
			"addCourse(uint256,uint256,string)": "dcc63a16",
			"addTeacher(address)": "3bc6e309",
			"allowance(address,address)": "dd62ed3e",
			"approve(address,uint256,uint256)": "426a8493",
			"approveCreditTransfer(address,uint256)": "6b105c81",
			"countCourseIdOccurrences(address)": "041c2ee0",
			"courseExists(uint256)": "5407b304",
			"courseLists(uint256)": "e2ed5a4e",
			"courserInfo(uint256)": "b264a4a5",
			"creditTransferRequests(address,uint256)": "4a5ad49e",
			"executeCreditTransfer(address,uint256)": "dba8c55f",
			"getAllCourseID()": "68fdbd70",
			"getAllrequestCreditTransfer()": "1145d39a",
			"getCourseInfo(uint256)": "981059ee",
			"getCreditTransfersOfStudent(address)": "a59742df",
			"getCreditsOfStudent()": "416d6499",
			"getStudentCreditByMechanism(address)": "659cc07b",
			"isAdmin(address)": "24d7806c",
			"isWhiteList(address)": "f99031a7",
			"modifyCredit(address,uint256,uint256)": "b44e7d09",
			"owner()": "8da5cb5b",
			"recordCredit(address,uint256,uint256,string)": "5ba75156",
			"removeAdmin(address)": "1785f53c",
			"removeTeacher(address)": "52ff6846",
			"renounceOwnership()": "715018a6",
			"requestCreditTransfer(uint256,string)": "75e7c425",
			"requestOfMechanism(address,uint256)": "b5fe8d09",
			"setWhiteList(address)": "39e899ee",
			"studentCourseIds(address,uint256)": "0740c8cf",
			"studentCredits(address,uint256)": "f2012286",
			"studentLists(uint256)": "261ca633",
			"teachers(address)": "f0a47f78",
			"transferOwnership(address)": "f2fde38b"
		}
	},
	"abi": [
		{
			"anonymous": false,
			"inputs": [
				{
					"indexed": true,
					"internalType": "address",
					"name": "newAdmin",
					"type": "address"
				}
			],
			"name": "AdminAdded",
			"type": "event"
		},
		{
			"anonymous": false,
			"inputs": [
				{
					"indexed": true,
					"internalType": "address",
					"name": "admin",
					"type": "address"
				}
			],
			"name": "AdminRemoved",
			"type": "event"
		},
		{
			"anonymous": false,
			"inputs": [
				{
					"indexed": true,
					"internalType": "address",
					"name": "student",
					"type": "address"
				},
				{
					"indexed": false,
					"internalType": "uint256",
					"name": "courseId",
					"type": "uint256"
				},
				{
					"indexed": false,
					"internalType": "uint256",
					"name": "credits",
					"type": "uint256"
				},
				{
					"indexed": false,
					"internalType": "uint256",
					"name": "score",
					"type": "uint256"
				},
				{
					"indexed": false,
					"internalType": "uint256",
					"name": "issueDate",
					"type": "uint256"
				},
				{
					"indexed": false,
					"internalType": "bool",
					"name": "isModified",
					"type": "bool"
				},
				{
					"indexed": false,
					"internalType": "uint256",
					"name": "modifyNum",
					"type": "uint256"
				},
				{
					"indexed": false,
					"internalType": "bool",
					"name": "isRevoked",
					"type": "bool"
				},
				{
					"indexed": false,
					"internalType": "string",
					"name": "issuingInstitution",
					"type": "string"
				},
				{
					"indexed": false,
					"internalType": "bool",
					"name": "isTransferred",
					"type": "bool"
				},
				{
					"indexed": false,
					"internalType": "string",
					"name": "targetInstitution",
					"type": "string"
				}
			],
			"name": "LogCreditDetails",
			"type": "event"
		},
		{
			"anonymous": false,
			"inputs": [
				{
					"indexed": true,
					"internalType": "address",
					"name": "previousOwner",
					"type": "address"
				},
				{
					"indexed": true,
					"internalType": "address",
					"name": "newOwner",
					"type": "address"
				}
			],
			"name": "OwnershipTransferred",
			"type": "event"
		},
		{
			"inputs": [
				{
					"internalType": "address",
					"name": "student",
					"type": "address"
				},
				{
					"internalType": "uint256",
					"name": "courseId",
					"type": "uint256"
				}
			],
			"name": "Cancel",
			"outputs": [],
			"stateMutability": "nonpayable",
			"type": "function"
		},
		{
			"inputs": [],
			"name": "GetAllApproveList",
			"outputs": [
				{
					"components": [
						{
							"internalType": "uint256",
							"name": "id",
							"type": "uint256"
						},
						{
							"internalType": "address",
							"name": "mechanism",
							"type": "address"
						},
						{
							"internalType": "uint256",
							"name": "expectNum",
							"type": "uint256"
						},
						{
							"internalType": "bool",
							"name": "isApproved",
							"type": "bool"
						}
					],
					"internalType": "struct Creditcertification.Request[]",
					"name": "",
					"type": "tuple[]"
				}
			],
			"stateMutability": "view",
			"type": "function"
		},
		{
			"inputs": [
				{
					"internalType": "address",
					"name": "stuAddr",
					"type": "address"
				},
				{
					"internalType": "uint256",
					"name": "num",
					"type": "uint256"
				}
			],
			"name": "Requests",
			"outputs": [],
			"stateMutability": "nonpayable",
			"type": "function"
		},
		{
			"inputs": [
				{
					"internalType": "address",
					"name": "_newAdmin",
					"type": "address"
				}
			],
			"name": "addAdmin",
			"outputs": [],
			"stateMutability": "nonpayable",
			"type": "function"
		},
		{
			"inputs": [
				{
					"internalType": "uint256",
					"name": "courseId",
					"type": "uint256"
				},
				{
					"internalType": "uint256",
					"name": "credits",
					"type": "uint256"
				},
				{
					"internalType": "string",
					"name": "courseName",
					"type": "string"
				}
			],
			"name": "addCourse",
			"outputs": [],
			"stateMutability": "nonpayable",
			"type": "function"
		},
		{
			"inputs": [
				{
					"internalType": "address",
					"name": "teacher",
					"type": "address"
				}
			],
			"name": "addTeacher",
			"outputs": [],
			"stateMutability": "nonpayable",
			"type": "function"
		},
		{
			"inputs": [
				{
					"internalType": "address",
					"name": "",
					"type": "address"
				},
				{
					"internalType": "address",
					"name": "",
					"type": "address"
				}
			],
			"name": "allowance",
			"outputs": [
				{
					"internalType": "uint256",
					"name": "",
					"type": "uint256"
				}
			],
			"stateMutability": "view",
			"type": "function"
		},
		{
			"inputs": [
				{
					"internalType": "address",
					"name": "spender",
					"type": "address"
				},
				{
					"internalType": "uint256",
					"name": "num",
					"type": "uint256"
				},
				{
					"internalType": "uint256",
					"name": "requestId",
					"type": "uint256"
				}
			],
			"name": "approve",
			"outputs": [
				{
					"internalType": "bool",
					"name": "",
					"type": "bool"
				}
			],
			"stateMutability": "nonpayable",
			"type": "function"
		},
		{
			"inputs": [
				{
					"internalType": "address",
					"name": "student",
					"type": "address"
				},
				{
					"internalType": "uint256",
					"name": "index",
					"type": "uint256"
				}
			],
			"name": "approveCreditTransfer",
			"outputs": [],
			"stateMutability": "nonpayable",
			"type": "function"
		},
		{
			"inputs": [
				{
					"internalType": "address",
					"name": "student",
					"type": "address"
				}
			],
			"name": "countCourseIdOccurrences",
			"outputs": [
				{
					"internalType": "uint256",
					"name": "",
					"type": "uint256"
				}
			],
			"stateMutability": "view",
			"type": "function"
		},
		{
			"inputs": [
				{
					"internalType": "uint256",
					"name": "",
					"type": "uint256"
				}
			],
			"name": "courseExists",
			"outputs": [
				{
					"internalType": "bool",
					"name": "",
					"type": "bool"
				}
			],
			"stateMutability": "view",
			"type": "function"
		},
		{
			"inputs": [
				{
					"internalType": "uint256",
					"name": "",
					"type": "uint256"
				}
			],
			"name": "courseLists",
			"outputs": [
				{
					"internalType": "uint256",
					"name": "",
					"type": "uint256"
				}
			],
			"stateMutability": "view",
			"type": "function"
		},
		{
			"inputs": [
				{
					"internalType": "uint256",
					"name": "",
					"type": "uint256"
				}
			],
			"name": "courserInfo",
			"outputs": [
				{
					"internalType": "uint256",
					"name": "courserId",
					"type": "uint256"
				},
				{
					"internalType": "string",
					"name": "courserName",
					"type": "string"
				},
				{
					"internalType": "uint256",
					"name": "credits",
					"type": "uint256"
				},
				{
					"internalType": "uint256",
					"name": "createTime",
					"type": "uint256"
				}
			],
			"stateMutability": "view",
			"type": "function"
		},
		{
			"inputs": [
				{
					"internalType": "address",
					"name": "",
					"type": "address"
				},
				{
					"internalType": "uint256",
					"name": "",
					"type": "uint256"
				}
			],
			"name": "creditTransferRequests",
			"outputs": [
				{
					"internalType": "address",
					"name": "studentAddr",
					"type": "address"
				},
				{
					"internalType": "uint256",
					"name": "courseId",
					"type": "uint256"
				},
				{
					"internalType": "string",
					"name": "targetInstitution",
					"type": "string"
				},
				{
					"internalType": "bool",
					"name": "isApproved",
					"type": "bool"
				},
				{
					"internalType": "bool",
					"name": "isExecuted",
					"type": "bool"
				},
				{
					"internalType": "uint256",
					"name": "index",
					"type": "uint256"
				}
			],
			"stateMutability": "view",
			"type": "function"
		},
		{
			"inputs": [
				{
					"internalType": "address",
					"name": "student",
					"type": "address"
				},
				{
					"internalType": "uint256",
					"name": "index",
					"type": "uint256"
				}
			],
			"name": "executeCreditTransfer",
			"outputs": [],
			"stateMutability": "nonpayable",
			"type": "function"
		},
		{
			"inputs": [],
			"name": "getAllCourseID",
			"outputs": [
				{
					"internalType": "uint256[]",
					"name": "",
					"type": "uint256[]"
				}
			],
			"stateMutability": "view",
			"type": "function"
		},
		{
			"inputs": [],
			"name": "getAllrequestCreditTransfer",
			"outputs": [
				{
					"components": [
						{
							"internalType": "address",
							"name": "studentAddr",
							"type": "address"
						},
						{
							"internalType": "uint256",
							"name": "courseId",
							"type": "uint256"
						},
						{
							"internalType": "string",
							"name": "targetInstitution",
							"type": "string"
						},
						{
							"internalType": "bool",
							"name": "isApproved",
							"type": "bool"
						},
						{
							"internalType": "bool",
							"name": "isExecuted",
							"type": "bool"
						},
						{
							"internalType": "uint256",
							"name": "index",
							"type": "uint256"
						}
					],
					"internalType": "struct Creditcertification.CreditTransfer[]",
					"name": "",
					"type": "tuple[]"
				}
			],
			"stateMutability": "view",
			"type": "function"
		},
		{
			"inputs": [
				{
					"internalType": "uint256",
					"name": "courseId",
					"type": "uint256"
				}
			],
			"name": "getCourseInfo",
			"outputs": [
				{
					"components": [
						{
							"internalType": "uint256",
							"name": "courserId",
							"type": "uint256"
						},
						{
							"internalType": "string",
							"name": "courserName",
							"type": "string"
						},
						{
							"internalType": "uint256",
							"name": "credits",
							"type": "uint256"
						},
						{
							"internalType": "uint256",
							"name": "createTime",
							"type": "uint256"
						}
					],
					"internalType": "struct Creditcertification.CourserInfo",
					"name": "",
					"type": "tuple"
				}
			],
			"stateMutability": "nonpayable",
			"type": "function"
		},
		{
			"inputs": [
				{
					"internalType": "address",
					"name": "student",
					"type": "address"
				}
			],
			"name": "getCreditTransfersOfStudent",
			"outputs": [
				{
					"components": [
						{
							"internalType": "address",
							"name": "studentAddr",
							"type": "address"
						},
						{
							"internalType": "uint256",
							"name": "courseId",
							"type": "uint256"
						},
						{
							"internalType": "string",
							"name": "targetInstitution",
							"type": "string"
						},
						{
							"internalType": "bool",
							"name": "isApproved",
							"type": "bool"
						},
						{
							"internalType": "bool",
							"name": "isExecuted",
							"type": "bool"
						},
						{
							"internalType": "uint256",
							"name": "index",
							"type": "uint256"
						}
					],
					"internalType": "struct Creditcertification.CreditTransfer[]",
					"name": "",
					"type": "tuple[]"
				}
			],
			"stateMutability": "view",
			"type": "function"
		},
		{
			"inputs": [],
			"name": "getCreditsOfStudent",
			"outputs": [
				{
					"components": [
						{
							"internalType": "uint256",
							"name": "courserId",
							"type": "uint256"
						},
						{
							"internalType": "uint256",
							"name": "credits",
							"type": "uint256"
						},
						{
							"internalType": "uint256",
							"name": "score",
							"type": "uint256"
						},
						{
							"internalType": "uint256",
							"name": "issueDate",
							"type": "uint256"
						},
						{
							"internalType": "bool",
							"name": "isModified",
							"type": "bool"
						},
						{
							"internalType": "uint256",
							"name": "modifyNum",
							"type": "uint256"
						},
						{
							"internalType": "bool",
							"name": "isRevoked",
							"type": "bool"
						},
						{
							"internalType": "string",
							"name": "issuingInstitution",
							"type": "string"
						},
						{
							"internalType": "bool",
							"name": "isTransferred",
							"type": "bool"
						},
						{
							"internalType": "string",
							"name": "targetInstitution",
							"type": "string"
						}
					],
					"internalType": "struct Creditcertification.Credit[]",
					"name": "creditList",
					"type": "tuple[]"
				}
			],
			"stateMutability": "view",
			"type": "function"
		},
		{
			"inputs": [
				{
					"internalType": "address",
					"name": "student",
					"type": "address"
				}
			],
			"name": "getStudentCreditByMechanism",
			"outputs": [],
			"stateMutability": "nonpayable",
			"type": "function"
		},
		{
			"inputs": [
				{
					"internalType": "address",
					"name": "",
					"type": "address"
				}
			],
			"name": "isAdmin",
			"outputs": [
				{
					"internalType": "bool",
					"name": "",
					"type": "bool"
				}
			],
			"stateMutability": "view",
			"type": "function"
		},
		{
			"inputs": [
				{
					"internalType": "address",
					"name": "",
					"type": "address"
				}
			],
			"name": "isWhiteList",
			"outputs": [
				{
					"internalType": "bool",
					"name": "",
					"type": "bool"
				}
			],
			"stateMutability": "view",
			"type": "function"
		},
		{
			"inputs": [
				{
					"internalType": "address",
					"name": "student",
					"type": "address"
				},
				{
					"internalType": "uint256",
					"name": "courseId",
					"type": "uint256"
				},
				{
					"internalType": "uint256",
					"name": "newScore",
					"type": "uint256"
				}
			],
			"name": "modifyCredit",
			"outputs": [],
			"stateMutability": "nonpayable",
			"type": "function"
		},
		{
			"inputs": [],
			"name": "owner",
			"outputs": [
				{
					"internalType": "address",
					"name": "",
					"type": "address"
				}
			],
			"stateMutability": "view",
			"type": "function"
		},
		{
			"inputs": [
				{
					"internalType": "address",
					"name": "student",
					"type": "address"
				},
				{
					"internalType": "uint256",
					"name": "courserId",
					"type": "uint256"
				},
				{
					"internalType": "uint256",
					"name": "score",
					"type": "uint256"
				},
				{
					"internalType": "string",
					"name": "issuingInstitution",
					"type": "string"
				}
			],
			"name": "recordCredit",
			"outputs": [],
			"stateMutability": "nonpayable",
			"type": "function"
		},
		{
			"inputs": [
				{
					"internalType": "address",
					"name": "_admin",
					"type": "address"
				}
			],
			"name": "removeAdmin",
			"outputs": [],
			"stateMutability": "nonpayable",
			"type": "function"
		},
		{
			"inputs": [
				{
					"internalType": "address",
					"name": "teacher",
					"type": "address"
				}
			],
			"name": "removeTeacher",
			"outputs": [],
			"stateMutability": "nonpayable",
			"type": "function"
		},
		{
			"inputs": [],
			"name": "renounceOwnership",
			"outputs": [],
			"stateMutability": "nonpayable",
			"type": "function"
		},
		{
			"inputs": [
				{
					"internalType": "uint256",
					"name": "courseId",
					"type": "uint256"
				},
				{
					"internalType": "string",
					"name": "targetInstitution",
					"type": "string"
				}
			],
			"name": "requestCreditTransfer",
			"outputs": [],
			"stateMutability": "nonpayable",
			"type": "function"
		},
		{
			"inputs": [
				{
					"internalType": "address",
					"name": "",
					"type": "address"
				},
				{
					"internalType": "uint256",
					"name": "",
					"type": "uint256"
				}
			],
			"name": "requestOfMechanism",
			"outputs": [
				{
					"internalType": "uint256",
					"name": "id",
					"type": "uint256"
				},
				{
					"internalType": "address",
					"name": "mechanism",
					"type": "address"
				},
				{
					"internalType": "uint256",
					"name": "expectNum",
					"type": "uint256"
				},
				{
					"internalType": "bool",
					"name": "isApproved",
					"type": "bool"
				}
			],
			"stateMutability": "view",
			"type": "function"
		},
		{
			"inputs": [
				{
					"internalType": "address",
					"name": "userAddr",
					"type": "address"
				}
			],
			"name": "setWhiteList",
			"outputs": [],
			"stateMutability": "nonpayable",
			"type": "function"
		},
		{
			"inputs": [
				{
					"internalType": "address",
					"name": "",
					"type": "address"
				},
				{
					"internalType": "uint256",
					"name": "",
					"type": "uint256"
				}
			],
			"name": "studentCourseIds",
			"outputs": [
				{
					"internalType": "uint256",
					"name": "",
					"type": "uint256"
				}
			],
			"stateMutability": "view",
			"type": "function"
		},
		{
			"inputs": [
				{
					"internalType": "address",
					"name": "",
					"type": "address"
				},
				{
					"internalType": "uint256",
					"name": "",
					"type": "uint256"
				}
			],
			"name": "studentCredits",
			"outputs": [
				{
					"internalType": "uint256",
					"name": "courserId",
					"type": "uint256"
				},
				{
					"internalType": "uint256",
					"name": "credits",
					"type": "uint256"
				},
				{
					"internalType": "uint256",
					"name": "score",
					"type": "uint256"
				},
				{
					"internalType": "uint256",
					"name": "issueDate",
					"type": "uint256"
				},
				{
					"internalType": "bool",
					"name": "isModified",
					"type": "bool"
				},
				{
					"internalType": "uint256",
					"name": "modifyNum",
					"type": "uint256"
				},
				{
					"internalType": "bool",
					"name": "isRevoked",
					"type": "bool"
				},
				{
					"internalType": "string",
					"name": "issuingInstitution",
					"type": "string"
				},
				{
					"internalType": "bool",
					"name": "isTransferred",
					"type": "bool"
				},
				{
					"internalType": "string",
					"name": "targetInstitution",
					"type": "string"
				}
			],
			"stateMutability": "view",
			"type": "function"
		},
		{
			"inputs": [
				{
					"internalType": "uint256",
					"name": "",
					"type": "uint256"
				}
			],
			"name": "studentLists",
			"outputs": [
				{
					"internalType": "address",
					"name": "",
					"type": "address"
				}
			],
			"stateMutability": "view",
			"type": "function"
		},
		{
			"inputs": [
				{
					"internalType": "address",
					"name": "",
					"type": "address"
				}
			],
			"name": "teachers",
			"outputs": [
				{
					"internalType": "bool",
					"name": "",
					"type": "bool"
				}
			],
			"stateMutability": "view",
			"type": "function"
		},
		{
			"inputs": [
				{
					"internalType": "address",
					"name": "newOwner",
					"type": "address"
				}
			],
			"name": "transferOwnership",
			"outputs": [],
			"stateMutability": "nonpayable",
			"type": "function"
		}
	]
}